{
  "address": "0x002692285b051cA32628aD95B55b018e3CdD1837",
  "abi": [
    {
      "inputs": [
        {
          "internalType": "address",
          "name": "_endpoint",
          "type": "address"
        }
      ],
      "stateMutability": "nonpayable",
      "type": "constructor"
    },
    {
      "inputs": [],
      "name": "endpoint",
      "outputs": [
        {
          "internalType": "contract ILayerZeroEndpoint",
          "name": "",
          "type": "address"
        }
      ],
      "stateMutability": "view",
      "type": "function"
    },
    {
      "inputs": [
        {
          "internalType": "uint16",
          "name": "_chainId",
          "type": "uint16"
        },
        {
          "internalType": "address",
          "name": "_ua",
          "type": "address"
        },
        {
          "internalType": "bytes",
          "name": "_path",
          "type": "bytes"
        }
      ],
      "name": "increment",
      "outputs": [
        {
          "internalType": "uint64",
          "name": "",
          "type": "uint64"
        }
      ],
      "stateMutability": "nonpayable",
      "type": "function"
    },
    {
      "inputs": [
        {
          "internalType": "uint16",
          "name": "",
          "type": "uint16"
        },
        {
          "internalType": "bytes",
          "name": "",
          "type": "bytes"
        }
      ],
      "name": "outboundNonce",
      "outputs": [
        {
          "internalType": "uint64",
          "name": "",
          "type": "uint64"
        }
      ],
      "stateMutability": "view",
      "type": "function"
    }
  ],
  "transactionHash": "0x919953ed2cbedc79465bcc1fede79bbd183b796d63b780a73601240c141c3f18",
  "args": [
    "0xda5D3fC344812781Db552335b98d2C3DdedC93f2"
  ],
  "numDeployments": 1,
  "solcInputHash": "66a864f53fcbcd62b4ecebba23860347",
  "bytecode": "0x60a060405234801561001057600080fd5b506040516104463803806104468339818101604052602081101561003357600080fd5b5051606081901b6001600160601b0319166080526001600160a01b03166103da61006c600039806101c352806101f352506103da6000f3fe608060405234801561001057600080fd5b50600436106100415760003560e01c80635e280f11146100465780636fe7b6731461006a578063c533338f14610110575b600080fd5b61004e6101c1565b604080516001600160a01b039092168252519081900360200190f35b6100f36004803603606081101561008057600080fd5b61ffff823516916001600160a01b03602082013516918101906060810160408201356401000000008111156100b457600080fd5b8201836020820111156100c657600080fd5b803590602001918460018302840111640100000000831117156100e857600080fd5b5090925090506101e5565b6040805167ffffffffffffffff9092168252519081900360200190f35b6100f36004803603604081101561012657600080fd5b61ffff823516919081019060408101602082013564010000000081111561014c57600080fd5b82018360208201111561015e57600080fd5b8035906020019184600183028401116401000000008311171561018057600080fd5b91908080601f01602080910402602001604051908101604052809392919081815260200183838082843760009201919091525092955061033d945050505050565b7f000000000000000000000000000000000000000000000000000000000000000081565b6000336001600160a01b03167f00000000000000000000000000000000000000000000000000000000000000006001600160a01b0316639c729da1866040518263ffffffff1660e01b815260040180826001600160a01b0316815260200191505060206040518083038186803b15801561025e57600080fd5b505afa158015610272573d6000803e3d6000fd5b505050506040513d602081101561028857600080fd5b50516001600160a01b0316146102cf5760405162461bcd60e51b81526004018080602001828103825260328152602001806103736032913960400191505060405180910390fd5b6000808661ffff1661ffff16815260200190815260200160002083836040518083838082843791909101948552505060405160209381900393909301909220805467ffffffffffffffff198116600167ffffffffffffffff9283160191821617909155979650505050505050565b6000602081815292815260409020815180830184018051928152908401929093019190912091525467ffffffffffffffff168156fe4e6f6e6365436f6e74726163743a206d73672e73656e646572206973206e6f742076616c69642073656e646c696272617279a2646970667358221220d20bdc60090e6a03dd14c7e470f007041543cef28a4200706b08e0130de9d42f64736f6c63430007060033",
  "devdoc": {
    "kind": "dev",
    "methods": {},
    "version": 1
  },
  "userdoc": {
    "kind": "user",
    "methods": {},
    "version": 1
  },
  "storageLayout": {
    "storage": [
      {
        "astId": 5107,
        "contract": "contracts/V1Contracts/contracts/NonceContract.sol:NonceContract",
        "label": "outboundNonce",
        "offset": 0,
        "slot": "0",
        "type": "t_mapping(t_uint16,t_mapping(t_bytes_memory_ptr,t_uint64))"
      }
    ],
    "types": {
      "t_bytes_memory_ptr": {
        "encoding": "bytes",
        "label": "bytes",
        "numberOfBytes": "32"
      },
      "t_mapping(t_bytes_memory_ptr,t_uint64)": {
        "encoding": "mapping",
        "key": "t_bytes_memory_ptr",
        "label": "mapping(bytes => uint64)",
        "numberOfBytes": "32",
        "value": "t_uint64"
      },
      "t_mapping(t_uint16,t_mapping(t_bytes_memory_ptr,t_uint64))": {
        "encoding": "mapping",
        "key": "t_uint16",
        "label": "mapping(uint16 => mapping(bytes => uint64))",
        "numberOfBytes": "32",
        "value": "t_mapping(t_bytes_memory_ptr,t_uint64)"
      },
      "t_uint16": {
        "encoding": "inplace",
        "label": "uint16",
        "numberOfBytes": "2"
      },
      "t_uint64": {
        "encoding": "inplace",
        "label": "uint64",
        "numberOfBytes": "8"
      }
    }
  }
}