{
  "address": "0xda5D3fC344812781Db552335b98d2C3DdedC93f2",
  "abi": [
    {
      "inputs": [
        {
          "internalType": "uint16",
          "name": "_chainId",
          "type": "uint16"
        }
      ],
      "stateMutability": "nonpayable",
      "type": "constructor"
    },
    {
      "anonymous": false,
      "inputs": [
        {
          "indexed": false,
          "internalType": "uint16",
          "name": "version",
          "type": "uint16"
        }
      ],
      "name": "DefaultReceiveVersionSet",
      "type": "event"
    },
    {
      "anonymous": false,
      "inputs": [
        {
          "indexed": false,
          "internalType": "uint16",
          "name": "version",
          "type": "uint16"
        }
      ],
      "name": "DefaultSendVersionSet",
      "type": "event"
    },
    {
      "anonymous": false,
      "inputs": [
        {
          "indexed": false,
          "internalType": "uint16",
          "name": "version",
          "type": "uint16"
        }
      ],
      "name": "NewLibraryVersionAdded",
      "type": "event"
    },
    {
      "anonymous": false,
      "inputs": [
        {
          "indexed": true,
          "internalType": "address",
          "name": "previousOwner",
          "type": "address"
        },
        {
          "indexed": true,
          "internalType": "address",
          "name": "newOwner",
          "type": "address"
        }
      ],
      "name": "OwnershipTransferred",
      "type": "event"
    },
    {
      "anonymous": false,
      "inputs": [
        {
          "indexed": false,
          "internalType": "uint16",
          "name": "srcChainId",
          "type": "uint16"
        },
        {
          "indexed": false,
          "internalType": "bytes",
          "name": "srcAddress",
          "type": "bytes"
        },
        {
          "indexed": false,
          "internalType": "uint64",
          "name": "nonce",
          "type": "uint64"
        },
        {
          "indexed": false,
          "internalType": "address",
          "name": "dstAddress",
          "type": "address"
        }
      ],
      "name": "PayloadCleared",
      "type": "event"
    },
    {
      "anonymous": false,
      "inputs": [
        {
          "indexed": false,
          "internalType": "uint16",
          "name": "srcChainId",
          "type": "uint16"
        },
        {
          "indexed": false,
          "internalType": "bytes",
          "name": "srcAddress",
          "type": "bytes"
        },
        {
          "indexed": false,
          "internalType": "address",
          "name": "dstAddress",
          "type": "address"
        },
        {
          "indexed": false,
          "internalType": "uint64",
          "name": "nonce",
          "type": "uint64"
        },
        {
          "indexed": false,
          "internalType": "bytes",
          "name": "payload",
          "type": "bytes"
        },
        {
          "indexed": false,
          "internalType": "bytes",
          "name": "reason",
          "type": "bytes"
        }
      ],
      "name": "PayloadStored",
      "type": "event"
    },
    {
      "anonymous": false,
      "inputs": [
        {
          "indexed": false,
          "internalType": "uint16",
          "name": "chainId",
          "type": "uint16"
        },
        {
          "indexed": false,
          "internalType": "bytes",
          "name": "srcAddress",
          "type": "bytes"
        }
      ],
      "name": "UaForceResumeReceive",
      "type": "event"
    },
    {
      "anonymous": false,
      "inputs": [
        {
          "indexed": false,
          "internalType": "address",
          "name": "ua",
          "type": "address"
        },
        {
          "indexed": false,
          "internalType": "uint16",
          "name": "version",
          "type": "uint16"
        }
      ],
      "name": "UaReceiveVersionSet",
      "type": "event"
    },
    {
      "anonymous": false,
      "inputs": [
        {
          "indexed": false,
          "internalType": "address",
          "name": "ua",
          "type": "address"
        },
        {
          "indexed": false,
          "internalType": "uint16",
          "name": "version",
          "type": "uint16"
        }
      ],
      "name": "UaSendVersionSet",
      "type": "event"
    },
    {
      "inputs": [],
      "name": "BLOCK_VERSION",
      "outputs": [
        {
          "internalType": "uint16",
          "name": "",
          "type": "uint16"
        }
      ],
      "stateMutability": "view",
      "type": "function"
    },
    {
      "inputs": [],
      "name": "DEFAULT_VERSION",
      "outputs": [
        {
          "internalType": "uint16",
          "name": "",
          "type": "uint16"
        }
      ],
      "stateMutability": "view",
      "type": "function"
    },
    {
      "inputs": [],
      "name": "chainId",
      "outputs": [
        {
          "internalType": "uint16",
          "name": "",
          "type": "uint16"
        }
      ],
      "stateMutability": "view",
      "type": "function"
    },
    {
      "inputs": [],
      "name": "defaultReceiveLibraryAddress",
      "outputs": [
        {
          "internalType": "address",
          "name": "",
          "type": "address"
        }
      ],
      "stateMutability": "view",
      "type": "function"
    },
    {
      "inputs": [],
      "name": "defaultReceiveVersion",
      "outputs": [
        {
          "internalType": "uint16",
          "name": "",
          "type": "uint16"
        }
      ],
      "stateMutability": "view",
      "type": "function"
    },
    {
      "inputs": [],
      "name": "defaultSendLibrary",
      "outputs": [
        {
          "internalType": "contract ILayerZeroMessagingLibrary",
          "name": "",
          "type": "address"
        }
      ],
      "stateMutability": "view",
      "type": "function"
    },
    {
      "inputs": [],
      "name": "defaultSendVersion",
      "outputs": [
        {
          "internalType": "uint16",
          "name": "",
          "type": "uint16"
        }
      ],
      "stateMutability": "view",
      "type": "function"
    },
    {
      "inputs": [
        {
          "internalType": "uint16",
          "name": "_dstChainId",
          "type": "uint16"
        },
        {
          "internalType": "address",
          "name": "_userApplication",
          "type": "address"
        },
        {
          "internalType": "bytes",
          "name": "_payload",
          "type": "bytes"
        },
        {
          "internalType": "bool",
          "name": "_payInZRO",
          "type": "bool"
        },
        {
          "internalType": "bytes",
          "name": "_adapterParams",
          "type": "bytes"
        }
      ],
      "name": "estimateFees",
      "outputs": [
        {
          "internalType": "uint256",
          "name": "nativeFee",
          "type": "uint256"
        },
        {
          "internalType": "uint256",
          "name": "zroFee",
          "type": "uint256"
        }
      ],
      "stateMutability": "view",
      "type": "function"
    },
    {
      "inputs": [
        {
          "internalType": "uint16",
          "name": "_srcChainId",
          "type": "uint16"
        },
        {
          "internalType": "bytes",
          "name": "_srcAddress",
          "type": "bytes"
        }
      ],
      "name": "forceResumeReceive",
      "outputs": [],
      "stateMutability": "nonpayable",
      "type": "function"
    },
    {
      "inputs": [],
      "name": "getChainId",
      "outputs": [
        {
          "internalType": "uint16",
          "name": "",
          "type": "uint16"
        }
      ],
      "stateMutability": "view",
      "type": "function"
    },
    {
      "inputs": [
        {
          "internalType": "uint16",
          "name": "_version",
          "type": "uint16"
        },
        {
          "internalType": "uint16",
          "name": "_chainId",
          "type": "uint16"
        },
        {
          "internalType": "address",
          "name": "_userApplication",
          "type": "address"
        },
        {
          "internalType": "uint256",
          "name": "_configType",
          "type": "uint256"
        }
      ],
      "name": "getConfig",
      "outputs": [
        {
          "internalType": "bytes",
          "name": "",
          "type": "bytes"
        }
      ],
      "stateMutability": "view",
      "type": "function"
    },
    {
      "inputs": [
        {
          "internalType": "uint16",
          "name": "_srcChainId",
          "type": "uint16"
        },
        {
          "internalType": "bytes",
          "name": "_srcAddress",
          "type": "bytes"
        }
      ],
      "name": "getInboundNonce",
      "outputs": [
        {
          "internalType": "uint64",
          "name": "",
          "type": "uint64"
        }
      ],
      "stateMutability": "view",
      "type": "function"
    },
    {
      "inputs": [
        {
          "internalType": "uint16",
          "name": "_dstChainId",
          "type": "uint16"
        },
        {
          "internalType": "address",
          "name": "_srcAddress",
          "type": "address"
        }
      ],
      "name": "getOutboundNonce",
      "outputs": [
        {
          "internalType": "uint64",
          "name": "",
          "type": "uint64"
        }
      ],
      "stateMutability": "view",
      "type": "function"
    },
    {
      "inputs": [
        {
          "internalType": "address",
          "name": "_userApplication",
          "type": "address"
        }
      ],
      "name": "getReceiveLibraryAddress",
      "outputs": [
        {
          "internalType": "address",
          "name": "receiveLibraryAddress",
          "type": "address"
        }
      ],
      "stateMutability": "view",
      "type": "function"
    },
    {
      "inputs": [
        {
          "internalType": "address",
          "name": "_userApplication",
          "type": "address"
        }
      ],
      "name": "getReceiveVersion",
      "outputs": [
        {
          "internalType": "uint16",
          "name": "",
          "type": "uint16"
        }
      ],
      "stateMutability": "view",
      "type": "function"
    },
    {
      "inputs": [
        {
          "internalType": "address",
          "name": "_userApplication",
          "type": "address"
        }
      ],
      "name": "getSendLibraryAddress",
      "outputs": [
        {
          "internalType": "address",
          "name": "sendLibraryAddress",
          "type": "address"
        }
      ],
      "stateMutability": "view",
      "type": "function"
    },
    {
      "inputs": [
        {
          "internalType": "address",
          "name": "_userApplication",
          "type": "address"
        }
      ],
      "name": "getSendVersion",
      "outputs": [
        {
          "internalType": "uint16",
          "name": "",
          "type": "uint16"
        }
      ],
      "stateMutability": "view",
      "type": "function"
    },
    {
      "inputs": [
        {
          "internalType": "uint16",
          "name": "_srcChainId",
          "type": "uint16"
        },
        {
          "internalType": "bytes",
          "name": "_srcAddress",
          "type": "bytes"
        }
      ],
      "name": "hasStoredPayload",
      "outputs": [
        {
          "internalType": "bool",
          "name": "",
          "type": "bool"
        }
      ],
      "stateMutability": "view",
      "type": "function"
    },
    {
      "inputs": [
        {
          "internalType": "uint16",
          "name": "",
          "type": "uint16"
        },
        {
          "internalType": "bytes",
          "name": "",
          "type": "bytes"
        }
      ],
      "name": "inboundNonce",
      "outputs": [
        {
          "internalType": "uint64",
          "name": "",
          "type": "uint64"
        }
      ],
      "stateMutability": "view",
      "type": "function"
    },
    {
      "inputs": [],
      "name": "isReceivingPayload",
      "outputs": [
        {
          "internalType": "bool",
          "name": "",
          "type": "bool"
        }
      ],
      "stateMutability": "view",
      "type": "function"
    },
    {
      "inputs": [],
      "name": "isSendingPayload",
      "outputs": [
        {
          "internalType": "bool",
          "name": "",
          "type": "bool"
        }
      ],
      "stateMutability": "view",
      "type": "function"
    },
    {
      "inputs": [],
      "name": "latestVersion",
      "outputs": [
        {
          "internalType": "uint16",
          "name": "",
          "type": "uint16"
        }
      ],
      "stateMutability": "view",
      "type": "function"
    },
    {
      "inputs": [
        {
          "internalType": "uint16",
          "name": "",
          "type": "uint16"
        }
      ],
      "name": "libraryLookup",
      "outputs": [
        {
          "internalType": "contract ILayerZeroMessagingLibrary",
          "name": "",
          "type": "address"
        }
      ],
      "stateMutability": "view",
      "type": "function"
    },
    {
      "inputs": [
        {
          "internalType": "address",
          "name": "_newLayerZeroLibraryAddress",
          "type": "address"
        }
      ],
      "name": "newVersion",
      "outputs": [],
      "stateMutability": "nonpayable",
      "type": "function"
    },
    {
      "inputs": [
        {
          "internalType": "uint16",
          "name": "",
          "type": "uint16"
        },
        {
          "internalType": "address",
          "name": "",
          "type": "address"
        }
      ],
      "name": "outboundNonce",
      "outputs": [
        {
          "internalType": "uint64",
          "name": "",
          "type": "uint64"
        }
      ],
      "stateMutability": "view",
      "type": "function"
    },
    {
      "inputs": [],
      "name": "owner",
      "outputs": [
        {
          "internalType": "address",
          "name": "",
          "type": "address"
        }
      ],
      "stateMutability": "view",
      "type": "function"
    },
    {
      "inputs": [
        {
          "internalType": "uint16",
          "name": "_srcChainId",
          "type": "uint16"
        },
        {
          "internalType": "bytes",
          "name": "_srcAddress",
          "type": "bytes"
        },
        {
          "internalType": "address",
          "name": "_dstAddress",
          "type": "address"
        },
        {
          "internalType": "uint64",
          "name": "_nonce",
          "type": "uint64"
        },
        {
          "internalType": "uint256",
          "name": "_gasLimit",
          "type": "uint256"
        },
        {
          "internalType": "bytes",
          "name": "_payload",
          "type": "bytes"
        }
      ],
      "name": "receivePayload",
      "outputs": [],
      "stateMutability": "nonpayable",
      "type": "function"
    },
    {
      "inputs": [],
      "name": "renounceOwnership",
      "outputs": [],
      "stateMutability": "nonpayable",
      "type": "function"
    },
    {
      "inputs": [
        {
          "internalType": "uint16",
          "name": "_srcChainId",
          "type": "uint16"
        },
        {
          "internalType": "bytes",
          "name": "_srcAddress",
          "type": "bytes"
        },
        {
          "internalType": "bytes",
          "name": "_payload",
          "type": "bytes"
        }
      ],
      "name": "retryPayload",
      "outputs": [],
      "stateMutability": "nonpayable",
      "type": "function"
    },
    {
      "inputs": [
        {
          "internalType": "uint16",
          "name": "_dstChainId",
          "type": "uint16"
        },
        {
          "internalType": "bytes",
          "name": "_destination",
          "type": "bytes"
        },
        {
          "internalType": "bytes",
          "name": "_payload",
          "type": "bytes"
        },
        {
          "internalType": "address payable",
          "name": "_refundAddress",
          "type": "address"
        },
        {
          "internalType": "address",
          "name": "_zroPaymentAddress",
          "type": "address"
        },
        {
          "internalType": "bytes",
          "name": "_adapterParams",
          "type": "bytes"
        }
      ],
      "name": "send",
      "outputs": [],
      "stateMutability": "payable",
      "type": "function"
    },
    {
      "inputs": [
        {
          "internalType": "uint16",
          "name": "_version",
          "type": "uint16"
        },
        {
          "internalType": "uint16",
          "name": "_chainId",
          "type": "uint16"
        },
        {
          "internalType": "uint256",
          "name": "_configType",
          "type": "uint256"
        },
        {
          "internalType": "bytes",
          "name": "_config",
          "type": "bytes"
        }
      ],
      "name": "setConfig",
      "outputs": [],
      "stateMutability": "nonpayable",
      "type": "function"
    },
    {
      "inputs": [
        {
          "internalType": "uint16",
          "name": "_newDefaultReceiveVersion",
          "type": "uint16"
        }
      ],
      "name": "setDefaultReceiveVersion",
      "outputs": [],
      "stateMutability": "nonpayable",
      "type": "function"
    },
    {
      "inputs": [
        {
          "internalType": "uint16",
          "name": "_newDefaultSendVersion",
          "type": "uint16"
        }
      ],
      "name": "setDefaultSendVersion",
      "outputs": [],
      "stateMutability": "nonpayable",
      "type": "function"
    },
    {
      "inputs": [
        {
          "internalType": "uint16",
          "name": "_newVersion",
          "type": "uint16"
        }
      ],
      "name": "setReceiveVersion",
      "outputs": [],
      "stateMutability": "nonpayable",
      "type": "function"
    },
    {
      "inputs": [
        {
          "internalType": "uint16",
          "name": "_newVersion",
          "type": "uint16"
        }
      ],
      "name": "setSendVersion",
      "outputs": [],
      "stateMutability": "nonpayable",
      "type": "function"
    },
    {
      "inputs": [
        {
          "internalType": "uint16",
          "name": "",
          "type": "uint16"
        },
        {
          "internalType": "bytes",
          "name": "",
          "type": "bytes"
        }
      ],
      "name": "storedPayload",
      "outputs": [
        {
          "internalType": "uint64",
          "name": "payloadLength",
          "type": "uint64"
        },
        {
          "internalType": "address",
          "name": "dstAddress",
          "type": "address"
        },
        {
          "internalType": "bytes32",
          "name": "payloadHash",
          "type": "bytes32"
        }
      ],
      "stateMutability": "view",
      "type": "function"
    },
    {
      "inputs": [
        {
          "internalType": "address",
          "name": "newOwner",
          "type": "address"
        }
      ],
      "name": "transferOwnership",
      "outputs": [],
      "stateMutability": "nonpayable",
      "type": "function"
    },
    {
      "inputs": [
        {
          "internalType": "address",
          "name": "",
          "type": "address"
        }
      ],
      "name": "uaConfigLookup",
      "outputs": [
        {
          "internalType": "uint16",
          "name": "sendVersion",
          "type": "uint16"
        },
        {
          "internalType": "uint16",
          "name": "receiveVersion",
          "type": "uint16"
        },
        {
          "internalType": "address",
          "name": "receiveLibraryAddress",
          "type": "address"
        },
        {
          "internalType": "contract ILayerZeroMessagingLibrary",
          "name": "sendLibrary",
          "type": "address"
        }
      ],
      "stateMutability": "view",
      "type": "function"
    }
  ],
  "transactionHash": "0xbc2c04d4c4d25cbc3cca09aee80e5fe43110538ece3cbbef6ed087717755678e",
  "args": [
    10106
  ],
  "numDeployments": 1,
  "solcInputHash": "0a2e1b6b4d1dfbe0c6477c4d34fda102",
  "bytecode": "0x60a06040526008805461ff001960ff19909116600117166101001790553480156200002957600080fd5b506040516200338638038062003386833981810160405260208110156200004f57600080fd5b505160006200005d620000bd565b600080546001600160a01b0319166001600160a01b0383169081178255604051929350917f8be0079c531659141344cd1fd0a4f28419497f9722a3daafe3b4186f6b6457e0908290a35060f01b6001600160f01b031916608052620000c1565b3390565b60805160f01c6132a2620000e4600039806114c25280611a4452506132a26000f3fe6080604052600436106102255760003560e01c80639c729da111610123578063ca066b35116100ab578063f2fde38b1161006f578063f2fde38b14610d39578063f4abee4b14610d6c578063f5ecbdbc14610dd5578063faee093f14610e97578063fdc07c7014610eac57610225565b8063ca066b3514610c31578063cbed8b9c14610c46578063da1a7c9a14610cdc578063e97a448a14610d0f578063ebfea6e014610d2457610225565b8063bd42a713116100f2578063bd42a71314610994578063c07f47d4146109c2578063c2fa4813146109d7578063c580310014610ad1578063c7e3711714610c0357610225565b80639c729da114610839578063a91606df1461086c578063aaff5f1614610881578063b20864991461095757610225565b806342d65a8d116101b157806376a386dc1161017557806376a386dc1461060e5780637a145748146106fa5780638da5cb5b146107535780639924d33b146107685780639a8a05921461082457610225565b806342d65a8d146104fa5780634afb422b146105805780635d9ef01a146105b1578063715018a6146105c657806371ba2fd6146105db57610225565b806310ddb137116101f857806310ddb1371461036c578063158c81ad1461039a57806324ba3f2c146103cd5780633408e470146103e257806340a7bb10146103f757610225565b806307e0db171461022a578063096568f61461025a5780630b837bb5146102a45780630eaf6ea6146102d2575b600080fd5b34801561023657600080fd5b506102586004803603602081101561024d57600080fd5b503561ffff16610f32565b005b34801561026657600080fd5b5061028d6004803603602081101561027d57600080fd5b50356001600160a01b0316611023565b6040805161ffff9092168252519081900360200190f35b3480156102b057600080fd5b50610258600480360360208110156102c757600080fd5b503561ffff16611062565b3480156102de57600080fd5b50610358600480360360408110156102f557600080fd5b61ffff8235169190810190604081016020820135600160201b81111561031a57600080fd5b82018360208201111561032c57600080fd5b803590602001918460018302840111600160201b8311171561034d57600080fd5b5090925090506111ed565b604080519115158252519081900360200190f35b34801561037857600080fd5b506102586004803603602081101561038f57600080fd5b503561ffff16611239565b3480156103a657600080fd5b50610258600480360360208110156103bd57600080fd5b50356001600160a01b0316611338565b3480156103d957600080fd5b5061028d6114bb565b3480156103ee57600080fd5b5061028d6114c0565b34801561040357600080fd5b506104e1600480360360a081101561041a57600080fd5b61ffff823516916001600160a01b0360208201351691810190606081016040820135600160201b81111561044d57600080fd5b82018360208201111561045f57600080fd5b803590602001918460018302840111600160201b8311171561048057600080fd5b919390928235151592604081019060200135600160201b8111156104a357600080fd5b8201836020820111156104b557600080fd5b803590602001918460018302840111600160201b831117156104d657600080fd5b5090925090506114e4565b6040805192835260208301919091528051918290030190f35b34801561050657600080fd5b506102586004803603604081101561051d57600080fd5b61ffff8235169190810190604081016020820135600160201b81111561054257600080fd5b82018360208201111561055457600080fd5b803590602001918460018302840111600160201b8311171561057557600080fd5b50909250905061163c565b34801561058c57600080fd5b506105956117bf565b604080516001600160a01b039092168252519081900360200190f35b3480156105bd57600080fd5b5061028d6117d5565b3480156105d257600080fd5b506102586117df565b3480156105e757600080fd5b50610595600480360360208110156105fe57600080fd5b50356001600160a01b031661188b565b34801561061a57600080fd5b506106ca6004803603604081101561063157600080fd5b61ffff8235169190810190604081016020820135600160201b81111561065657600080fd5b82018360208201111561066857600080fd5b803590602001918460018302840111600160201b8311171561068957600080fd5b91908080601f016020809104026020016040519081016040528093929190818152602001838380828437600092019190915250929550611974945050505050565b604080516001600160401b0390941684526001600160a01b03909216602084015282820152519081900360600190f35b34801561070657600080fd5b506107376004803603604081101561071d57600080fd5b50803561ffff1690602001356001600160a01b03166119c5565b604080516001600160401b039092168252519081900360200190f35b34801561075f57600080fd5b506105956119fc565b34801561077457600080fd5b506107376004803603604081101561078b57600080fd5b61ffff8235169190810190604081016020820135600160201b8111156107b057600080fd5b8201836020820111156107c257600080fd5b803590602001918460018302840111600160201b831117156107e357600080fd5b91908080601f016020809104026020016040519081016040528093929190818152602001838380828437600092019190915250929550611a0b945050505050565b34801561083057600080fd5b5061028d611a42565b34801561084557600080fd5b506105956004803603602081101561085c57600080fd5b50356001600160a01b0316611a66565b34801561087857600080fd5b5061028d611b42565b34801561088d57600080fd5b50610258600480360360608110156108a457600080fd5b61ffff8235169190810190604081016020820135600160201b8111156108c957600080fd5b8201836020820111156108db57600080fd5b803590602001918460018302840111600160201b831117156108fc57600080fd5b919390929091602081019035600160201b81111561091957600080fd5b82018360208201111561092b57600080fd5b803590602001918460018302840111600160201b8311171561094c57600080fd5b509092509050611b48565b34801561096357600080fd5b506107376004803603604081101561097a57600080fd5b50803561ffff1690602001356001600160a01b0316611eba565b3480156109a057600080fd5b50610258600480360360208110156109b757600080fd5b503561ffff16611ee0565b3480156109ce57600080fd5b5061028d612070565b3480156109e357600080fd5b50610258600480360360c08110156109fa57600080fd5b61ffff8235169190810190604081016020820135600160201b811115610a1f57600080fd5b820183602082011115610a3157600080fd5b803590602001918460018302840111600160201b83111715610a5257600080fd5b919390926001600160a01b03833516926001600160401b03602082013516926040820135929091608081019060600135600160201b811115610a9357600080fd5b820183602082011115610aa557600080fd5b803590602001918460018302840111600160201b83111715610ac657600080fd5b509092509050612081565b610258600480360360c0811015610ae757600080fd5b61ffff8235169190810190604081016020820135600160201b811115610b0c57600080fd5b820183602082011115610b1e57600080fd5b803590602001918460018302840111600160201b83111715610b3f57600080fd5b919390929091602081019035600160201b811115610b5c57600080fd5b820183602082011115610b6e57600080fd5b803590602001918460018302840111600160201b83111715610b8f57600080fd5b919390926001600160a01b0383358116936020810135909116929190606081019060400135600160201b811115610bc557600080fd5b820183602082011115610bd757600080fd5b803590602001918460018302840111600160201b83111715610bf857600080fd5b509092509050612645565b348015610c0f57600080fd5b5061059560048036036020811015610c2657600080fd5b503561ffff1661284f565b348015610c3d57600080fd5b5061035861286a565b348015610c5257600080fd5b5061025860048036036080811015610c6957600080fd5b61ffff823581169260208101359091169160408201359190810190608081016060820135600160201b811115610c9e57600080fd5b820183602082011115610cb057600080fd5b803590602001918460018302840111600160201b83111715610cd157600080fd5b50909250905061287b565b348015610ce857600080fd5b5061028d60048036036020811015610cff57600080fd5b50356001600160a01b0316612a47565b348015610d1b57600080fd5b50610358612a95565b348015610d3057600080fd5b50610595612aa1565b348015610d4557600080fd5b5061025860048036036020811015610d5c57600080fd5b50356001600160a01b0316612ab0565b348015610d7857600080fd5b50610d9f60048036036020811015610d8f57600080fd5b50356001600160a01b0316612bb2565b6040805161ffff95861681529390941660208401526001600160a01b039182168385015216606082015290519081900360800190f35b348015610de157600080fd5b50610e2260048036036080811015610df857600080fd5b5061ffff81358116916020810135909116906001600160a01b036040820135169060600135612bf0565b6040805160208082528351818301528351919283929083019185019080838360005b83811015610e5c578181015183820152602001610e44565b50505050905090810190601f168015610e895780820380516001836020036101000a031916815260200191505b509250505060405180910390f35b348015610ea357600080fd5b5061028d612e54565b348015610eb857600080fd5b5061073760048036036040811015610ecf57600080fd5b61ffff8235169190810190604081016020820135600160201b811115610ef457600080fd5b820183602082011115610f0657600080fd5b803590602001918460018302840111600160201b83111715610f2757600080fd5b509092509050612e64565b600054819061ffff600160a01b9091048116908216111580610f57575061ffff818116145b610f925760405162461bcd60e51b815260040180806020018281038252602c815260200180612f90602c913960400191505060405180910390fd5b336000818152600460209081526040808320805461ffff881661ffff19909116811782558085526001808552948390205494820180546001600160a01b0319166001600160a01b039690961695909517909455815194855291840192909252815190927ff2bc255571446a2f9b7cb2f0c75fd6a279bdb469f515d5a5c9910f713aeb32ca92908290030190a1505050565b6001600160a01b0381166000908152600460205260408120805461ffff161561105157805461ffff16611059565b60025461ffff165b9150505b919050565b61106a612eb0565b6001600160a01b031661107b6119fc565b6001600160a01b0316146110c4576040805162461bcd60e51b8152602060048201819052602482015260008051602061314e833981519152604482015290519081900360640190fd5b600054819061ffff600160a01b90910481169082161115806110e9575061ffff818116145b6111245760405162461bcd60e51b815260040180806020018281038252602c815260200180612f90602c913960400191505060405180910390fd5b61ffff82166111645760405162461bcd60e51b81526004018080602001828103825260288152602001806131eb6028913960400191505060405180910390fd5b6002805461ffff191661ffff84811691821780845590811660009081526001602090815260409182902054640100000000600160c01b03199093166001600160a01b03909316600160201b0292909217909355825191825291517feb685c087d38029bbde35299b748c6b80f099c7e5c3f9fe2dbb3ace1099e3b07929181900390910190a15050565b61ffff8316600090815260076020526040808220905182919085908590808383808284379190910194855250506040519283900360200190922060010154151593505050509392505050565b600054819061ffff600160a01b909104811690821611158061125e575061ffff818116145b6112995760405162461bcd60e51b815260040180806020018281038252602c815260200180612f90602c913960400191505060405180910390fd5b336000818152600460209081526040808320805463ffff000019166201000061ffff891690810291909117808355818652600185529483902054640100000000600160c01b03199095166001600160a01b03909516600160201b02949094178155815194855291840192909252815190927f9c199418af68d1547d7b99c71ee6a9eb18b27990dfcfb38982f3e3fb8c7b6bef92908290030190a1505050565b611340612eb0565b6001600160a01b03166113516119fc565b6001600160a01b03161461139a576040805162461bcd60e51b8152602060048201819052602482015260008051602061314e833981519152604482015290519081900360640190fd5b6001600160a01b0381166113df5760405162461bcd60e51b815260040180806020018281038252602d815260200180613121602d913960400191505060405180910390fd5b60005461ffff600160a01b90910481161061142b5760405162461bcd60e51b815260040180806020018281038252602c8152602001806130f5602c913960400191505060405180910390fd5b60008054600161ffff600160a01b808404821683018216810261ffff60a01b1990941693909317808555839004811684526020918252604080852080546001600160a01b0388166001600160a01b03199091161790559354845193900416825291517f18c7402e58a1bec57f4eb75af242f65ababbbe09d9db383e0542f00635e5b8c5929181900390910190a150565b600081565b7f000000000000000000000000000000000000000000000000000000000000000090565b6001600160a01b03861660009081526004602052604081208054829190829061ffff161561151f5760018201546001600160a01b0316611533565b600254600160201b90046001600160a01b03165b9050806001600160a01b03166340a7bb108c8c8c8c8c8c8c6040518863ffffffff1660e01b8152600401808861ffff168152602001876001600160a01b03168152602001806020018515158152602001806020018381038352888882818152602001925080828437600083820152601f01601f191690910184810383528581526020019050858580828437600081840152601f19601f8201169050808301925050509950505050505050505050604080518083038186803b1580156115f757600080fd5b505afa15801561160b573d6000803e3d6000fd5b505050506040513d604081101561162157600080fd5b508051602090910151909c909b509950505050505050505050565b61ffff831660009081526007602052604080822090518490849080838380828437919091019485525050604051928390036020019092206001810154909350151591506116d29050576040805162461bcd60e51b815260206004820152601c60248201527f4c617965725a65726f3a206e6f2073746f726564207061796c6f616400000000604482015290519081900360640190fd5b8054600160401b90046001600160a01b03163314611737576040805162461bcd60e51b815260206004820152601960248201527f4c617965725a65726f3a20696e76616c69642063616c6c657200000000000000604482015290519081900360640190fd5b80546001600160e01b0319168155600060018201556040805161ffff86168152602081018281529181018490527f23d2684f396e92a6e2ff2d16f98e6fea00d50cb27a64b531bc0748f730211f98918691869186919060608201848480828437600083820152604051601f909101601f1916909201829003965090945050505050a150505050565b600254600160201b90046001600160a01b031681565b60025461ffff1681565b6117e7612eb0565b6001600160a01b03166117f86119fc565b6001600160a01b031614611841576040805162461bcd60e51b8152602060048201819052602482015260008051602061314e833981519152604482015290519081900360640190fd5b600080546040516001600160a01b03909116907f8be0079c531659141344cd1fd0a4f28419497f9722a3daafe3b4186f6b6457e0908390a3600080546001600160a01b0319169055565b6001600160a01b0381166000908152600460205260408120805461ffff620100009091048116908114156118f05760405162461bcd60e51b815260040180806020018281038252602b815260200180613242602b913960400191505060405180910390fd5b61ffff81166119585760025462010000900461ffff90811614156119455760405162461bcd60e51b8152600401808060200182810382526035815260200180612fbc6035913960400191505060405180910390fd5b6003546001600160a01b0316925061196d565b8154600160201b90046001600160a01b031692505b5050919050565b60076020908152600092835260409092208151808301840180519281529084019290930191909120915280546001909101546001600160401b03821691600160401b90046001600160a01b03169083565b61ffff821660009081526006602090815260408083206001600160a01b03851684529091529020546001600160401b031692915050565b6000546001600160a01b031690565b600560209081526000928352604090922081518083018401805192815290840192909301919091209152546001600160401b031681565b7f000000000000000000000000000000000000000000000000000000000000000081565b6001600160a01b0381166000908152600460205260408120805461ffff90811690811415611ac55760405162461bcd60e51b81526004018080602001828103825260288152602001806130cd6028913960400191505060405180910390fd5b61ffff8116611b2e5760025461ffff9081161415611b145760405162461bcd60e51b81526004018080602001828103825260328152602001806130656032913960400191505060405180910390fd5b600254600160201b90046001600160a01b0316925061196d565b50600101546001600160a01b031692915050565b61ffff81565b600854610100900460ff16600114611ba7576040805162461bcd60e51b815260206004820181905260248201527f4c617965725a65726f3a206e6f2072656365697665207265656e7472616e6379604482015290519081900360640190fd5b6008805461ff00191661020017905561ffff85166000908152600760205260408082209051869086908083838082843791909101948552505060405192839003602001909220600181015490935015159150611c4c9050576040805162461bcd60e51b815260206004820152601c60248201527f4c617965725a65726f3a206e6f2073746f726564207061796c6f616400000000604482015290519081900360640190fd5b80546001600160401b031682148015611c865750806001015483836040518083838082843780830192505050925050506040518091039020145b611cd7576040805162461bcd60e51b815260206004820152601a60248201527f4c617965725a65726f3a20696e76616c6964207061796c6f6164000000000000604482015290519081900360640190fd5b80546001600160e01b03198116825560006001830181905561ffff88168152600560205260408082209051600160401b9093046001600160a01b031692889088908083838082843791909101948552505060405192839003602001832054621d356760e01b845261ffff8c16600485019081526001600160401b0390911660448501819052608060248601908152608486018c90529095506001600160a01b03871694621d356794508d93508c928c9288928d928d929091606481019060a401888880828437600083820152601f01601f191690910184810383528581526020019050858580828437600081840152601f19601f82011690508083019250505098505050505050505050600060405180830381600087803b158015611dfb57600080fd5b505af1158015611e0f573d6000803e3d6000fd5b505050507f612434f39581c8e7d99746c9c20c6eb0ce8c0eb99f007c5719d620841370957d8888888486604051808661ffff16815260200180602001846001600160401b03168152602001836001600160a01b031681526020018281038252868682818152602001925080828437600083820152604051601f909101601f19169092018290039850909650505050505050a150506008805461ff001916610100179055505050505050565b60066020908152600092835260408084209091529082529020546001600160401b031681565b611ee8612eb0565b6001600160a01b0316611ef96119fc565b6001600160a01b031614611f42576040805162461bcd60e51b8152602060048201819052602482015260008051602061314e833981519152604482015290519081900360640190fd5b600054819061ffff600160a01b9091048116908216111580611f67575061ffff818116145b611fa25760405162461bcd60e51b815260040180806020018281038252602c815260200180612f90602c913960400191505060405180910390fd5b61ffff8216611fe25760405162461bcd60e51b815260040180806020018281038252602b81526020018061319d602b913960400191505060405180910390fd5b6002805463ffff000019166201000061ffff8581168281029390931793849055920490911660009081526001602090815260409182902054600380546001600160a01b039092166001600160a01b0319909216919091179055815192835290517f96874dbe70c8a59e7996847475489a70a1b5096ed92cdc858b63ebabd071f8199281900390910190a15050565b600054600160a01b900461ffff1681565b600854610100900460ff166001146120e0576040805162461bcd60e51b815260206004820181905260248201527f4c617965725a65726f3a206e6f2072656365697665207265656e7472616e6379604482015290519081900360640190fd5b6008805461ff00191661020017905561ffff881660009081526005602052604090819020905188908890808383808284379190910194855250506040519283900360200190922080546001600160401b03808216600101811667ffffffffffffffff19909216821790925590871614915061219d9050576040805162461bcd60e51b81526020600482015260166024820152754c617965725a65726f3a2077726f6e67206e6f6e636560501b604482015290519081900360640190fd5b6001600160a01b0385166000908152600460205260409020805462010000900461ffff16612213576003546001600160a01b0316331461220e5760405162461bcd60e51b8152600401808060200182810382526022815260200180612ff16022913960400191505060405180910390fd5b612278565b8054600160201b90046001600160a01b03163314612278576040805162461bcd60e51b815260206004820152601a60248201527f4c617965725a65726f3a20696e76616c6964206c696272617279000000000000604482015290519081900360640190fd5b61ffff891660009081526007602052604080822090518a908a908083838082843791909101948552505060405192839003602001909220600181015490935015915061230d9050576040805162461bcd60e51b815260206004820152601e60248201527f4c617965725a65726f3a20696e206d65737361676520626c6f636b696e670000604482015290519081900360640190fd5b866001600160a01b0316621d3567868c8c8c8b8a8a6040518863ffffffff1660e01b8152600401808761ffff16815260200180602001856001600160401b03168152602001806020018381038352888882818152602001925080828437600083820152601f01601f191690910184810383528581526020019050858580828437600081840152601f19601f82011690508083019250505098505050505050505050600060405180830381600088803b1580156123c857600080fd5b5087f1935050505080156123da575060015b61262a573d808015612408576040519150601f19603f3d011682016040523d82523d6000602084013e61240d565b606091505b506040518060600160405280868690506001600160401b03168152602001896001600160a01b0316815260200186866040518083838082843780830192505050925050506040518091039020815250600760008d61ffff1661ffff1681526020019081526020016000208b8b604051808383808284378083019250505092505050908152602001604051809103902060008201518160000160006101000a8154816001600160401b0302191690836001600160401b0316021790555060208201518160000160086101000a8154816001600160a01b0302191690836001600160a01b03160217905550604082015181600101559050507f0f9e4d95b62f08222d612b5ab92039cd8fbbbea550a95e8df9f927436bbdf5db8b8b8b8b8b8a8a88604051808961ffff16815260200180602001876001600160a01b03168152602001866001600160401b03168152602001806020018060200184810384528b8b82818152602001925080828437600083820152601f01601f1916909101858103845287815260200190508787808284376000838201819052601f909101601f191690920186810384528751815287516020918201939189019250908190849084905b838110156125e55781810151838201526020016125cd565b50505050905090810190601f1680156126125780820380516001836020036101000a031916815260200191505b509b50505050505050505050505060405180910390a1505b50506008805461ff0019166101001790555050505050505050565b60085460ff1660011461269f576040805162461bcd60e51b815260206004820152601d60248201527f4c617965725a65726f3a206e6f2073656e64207265656e7472616e6379000000604482015290519081900360640190fd5b60088054600260ff1990911617905533600081815260046020908152604080832061ffff8e16845260068352818420948452939091529020805467ffffffffffffffff1981166001600160401b039182166001019182161790915561270382612eb4565b6001600160a01b0316634d3a0f7c3433848f8f8f8f8f8f8f8f8f6040518d63ffffffff1660e01b8152600401808c6001600160a01b031681526020018b6001600160401b031681526020018a61ffff1681526020018060200180602001876001600160a01b03168152602001866001600160a01b031681526020018060200184810384528c8c82818152602001925080828437600083820152601f01601f191690910185810384528a815260200190508a8a80828437600083820152601f01601f191690910185810383528681526020019050868680828437600081840152601f19601f8201169050808301925050509e5050505050505050505050505050506000604051808303818588803b15801561281c57600080fd5b505af1158015612830573d6000803e3d6000fd5b50506008805460ff191660011790555050505050505050505050505050565b6001602052600090815260409020546001600160a01b031681565b600854610100900460ff1660021490565b600054859061ffff600160a01b90910481169082161115806128a0575061ffff818116145b6128db5760405162461bcd60e51b815260040180806020018281038252602c815260200180612f90602c913960400191505060405180910390fd5b61ffff861661293b5760025461ffff8082166201000090920416146129315760405162461bcd60e51b81526004018080602001828103825260368152602001806130976036913960400191505060405180910390fd5b60025461ffff1695505b61ffff868116141561297e5760405162461bcd60e51b815260040180806020018281038252602f815260200180613213602f913960400191505060405180910390fd5b61ffff80871660009081526001602052604090819020549051633e385cd360e21b815291871660048301908152336024840181905260448401889052608060648501908152608485018790526001600160a01b039093169363f8e1734c938a938a928a928a929160a401848480828437600081840152601f19601f8201169050808301925050509650505050505050600060405180830381600087803b158015612a2757600080fd5b505af1158015612a3b573d6000803e3d6000fd5b50505050505050505050565b6001600160a01b0381166000908152600460205260408120805462010000900461ffff1615612a8157805462010000900461ffff16611059565b505060025462010000900461ffff16919050565b60085460ff1660021490565b6003546001600160a01b031681565b612ab8612eb0565b6001600160a01b0316612ac96119fc565b6001600160a01b031614612b12576040805162461bcd60e51b8152602060048201819052602482015260008051602061314e833981519152604482015290519081900360640190fd5b6001600160a01b038116612b575760405162461bcd60e51b81526004018080602001828103825260268152602001806130136026913960400191505060405180910390fd5b600080546040516001600160a01b03808516939216917f8be0079c531659141344cd1fd0a4f28419497f9722a3daafe3b4186f6b6457e091a3600080546001600160a01b0319166001600160a01b0392909216919091179055565b6004602052600090815260409020805460019091015461ffff80831692620100008104909116916001600160a01b03600160201b9092048216911684565b600054606090859061ffff600160a01b9091048116908216111580612c18575061ffff818116145b612c535760405162461bcd60e51b815260040180806020018281038252602c815260200180612f90602c913960400191505060405180910390fd5b61ffff8616612cb35760025461ffff808216620100009092041614612ca95760405162461bcd60e51b815260040180806020018281038252602c815260200180613039602c913960400191505060405180910390fd5b60025461ffff1695505b61ffff8681161415612cf65760405162461bcd60e51b815260040180806020018281038252602f81526020018061316e602f913960400191505060405180910390fd5b61ffff8087166000908152600160205260408082205481516352d2871f60e01b815293891660048501526001600160a01b0388811660248601526044850188905291519116926352d2871f926064808301939192829003018186803b158015612d5e57600080fd5b505afa158015612d72573d6000803e3d6000fd5b505050506040513d6000823e601f3d908101601f191682016040526020811015612d9b57600080fd5b8101908080516040519392919084600160201b821115612dba57600080fd5b908301906020820185811115612dcf57600080fd5b8251600160201b811182820188101715612de857600080fd5b82525081516020918201929091019080838360005b83811015612e15578181015183820152602001612dfd565b50505050905090810190601f168015612e425780820380516001836020036101000a031916815260200191505b50604052505050915050949350505050565b60025462010000900461ffff1681565b61ffff83166000908152600560205260408082209051849084908083838082843791909101948552505060405192839003602001909220546001600160401b0316925050509392505050565b3390565b805460009061ffff16612f205760025461ffff9081161415612f075760405162461bcd60e51b81526004018080602001828103825260238152602001806131c86023913960400191505060405180910390fd5b50600254600160201b90046001600160a01b031661105d565b815461ffff9081161415612f7b576040805162461bcd60e51b815260206004820152601b60248201527f4c617965725a65726f3a20696e20424c4f434b5f56455253494f4e0000000000604482015290519081900360640190fd5b5060018101546001600160a01b031661105d56fe4c617965725a65726f3a20696e76616c6964206d6573736167696e67206c6962726172792076657273696f6e4c617965725a65726f3a20726563656976652076657273696f6e202864656661756c742920697320424c4f434b5f56455253494f4e4c617965725a65726f3a20696e76616c69642064656661756c74206c6962726172794f776e61626c653a206e6577206f776e657220697320746865207a65726f20616464726573734c617965725a65726f3a206e6f2044454641554c5420636f6e666967207768696c65206d6967726174696f6e4c617965725a65726f3a2073656e642076657273696f6e202864656661756c742920697320424c4f434b5f56455253494f4e4c617965725a65726f3a2063616e206e6f742073657420436f6e66696720647572696e672044454641554c54206d6967726174696f6e4c617965725a65726f3a2073656e642076657273696f6e20697320424c4f434b5f56455253494f4e4c617965725a65726f3a2063616e206e6f7420616464206e6577206d6573736167696e67206c6962726172794c617965725a65726f3a206e65772076657273696f6e2063616e6e6f74206265207a65726f20616464726573734f776e61626c653a2063616c6c6572206973206e6f7420746865206f776e65724c617965725a65726f3a2063616e206e6f742067657420636f6e66696720666f7220424c4f434b5f56455253494f4e4c617965725a65726f3a2064656661756c7420726563656976652076657273696f6e206d757374203e20304c617965725a65726f3a2064656661756c7420696e20424c4f434b5f56455253494f4e4c617965725a65726f3a2064656661756c742073656e642076657273696f6e206d757374203e20304c617965725a65726f3a2063616e206e6f742073657420636f6e66696720666f7220424c4f434b5f56455253494f4e4c617965725a65726f3a20726563656976652076657273696f6e20697320424c4f434b5f56455253494f4ea2646970667358221220d993f78dc52770aa3a4676d01a40b6766351fa91a89aa097c802eac81c21052164736f6c63430007060033",
  "devdoc": {
    "kind": "dev",
    "methods": {
      "owner()": {
        "details": "Returns the address of the current owner."
      },
      "renounceOwnership()": {
        "details": "Leaves the contract without owner. It will not be possible to call `onlyOwner` functions anymore. Can only be called by the current owner. NOTE: Renouncing ownership will leave the contract without an owner, thereby removing any functionality that is only available to the owner."
      },
      "transferOwnership(address)": {
        "details": "Transfers ownership of the contract to a new account (`newOwner`). Can only be called by the current owner."
      }
    },
    "version": 1
  },
  "userdoc": {
    "kind": "user",
    "methods": {},
    "version": 1
  },
  "storageLayout": {
    "storage": [
      {
        "astId": 493,
        "contract": "contracts/V1Contracts/contracts/Endpoint.sol:Endpoint",
        "label": "_owner",
        "offset": 0,
        "slot": "0",
        "type": "t_address"
      },
      {
        "astId": 2282,
        "contract": "contracts/V1Contracts/contracts/Endpoint.sol:Endpoint",
        "label": "latestVersion",
        "offset": 20,
        "slot": "0",
        "type": "t_uint16"
      },
      {
        "astId": 2286,
        "contract": "contracts/V1Contracts/contracts/Endpoint.sol:Endpoint",
        "label": "libraryLookup",
        "offset": 0,
        "slot": "1",
        "type": "t_mapping(t_uint16,t_contract(ILayerZeroMessagingLibrary)17203)"
      },
      {
        "astId": 2288,
        "contract": "contracts/V1Contracts/contracts/Endpoint.sol:Endpoint",
        "label": "defaultSendVersion",
        "offset": 0,
        "slot": "2",
        "type": "t_uint16"
      },
      {
        "astId": 2290,
        "contract": "contracts/V1Contracts/contracts/Endpoint.sol:Endpoint",
        "label": "defaultReceiveVersion",
        "offset": 2,
        "slot": "2",
        "type": "t_uint16"
      },
      {
        "astId": 2292,
        "contract": "contracts/V1Contracts/contracts/Endpoint.sol:Endpoint",
        "label": "defaultSendLibrary",
        "offset": 4,
        "slot": "2",
        "type": "t_contract(ILayerZeroMessagingLibrary)17203"
      },
      {
        "astId": 2294,
        "contract": "contracts/V1Contracts/contracts/Endpoint.sol:Endpoint",
        "label": "defaultReceiveLibraryAddress",
        "offset": 0,
        "slot": "3",
        "type": "t_address"
      },
      {
        "astId": 2314,
        "contract": "contracts/V1Contracts/contracts/Endpoint.sol:Endpoint",
        "label": "uaConfigLookup",
        "offset": 0,
        "slot": "4",
        "type": "t_mapping(t_address,t_struct(LibraryConfig)2303_storage)"
      },
      {
        "astId": 2320,
        "contract": "contracts/V1Contracts/contracts/Endpoint.sol:Endpoint",
        "label": "inboundNonce",
        "offset": 0,
        "slot": "5",
        "type": "t_mapping(t_uint16,t_mapping(t_bytes_memory_ptr,t_uint64))"
      },
      {
        "astId": 2326,
        "contract": "contracts/V1Contracts/contracts/Endpoint.sol:Endpoint",
        "label": "outboundNonce",
        "offset": 0,
        "slot": "6",
        "type": "t_mapping(t_uint16,t_mapping(t_address,t_uint64))"
      },
      {
        "astId": 2332,
        "contract": "contracts/V1Contracts/contracts/Endpoint.sol:Endpoint",
        "label": "storedPayload",
        "offset": 0,
        "slot": "7",
        "type": "t_mapping(t_uint16,t_mapping(t_bytes_memory_ptr,t_struct(StoredPayload)2310_storage))"
      },
      {
        "astId": 2405,
        "contract": "contracts/V1Contracts/contracts/Endpoint.sol:Endpoint",
        "label": "_send_entered_state",
        "offset": 0,
        "slot": "8",
        "type": "t_uint8"
      },
      {
        "astId": 2408,
        "contract": "contracts/V1Contracts/contracts/Endpoint.sol:Endpoint",
        "label": "_receive_entered_state",
        "offset": 1,
        "slot": "8",
        "type": "t_uint8"
      }
    ],
    "types": {
      "t_address": {
        "encoding": "inplace",
        "label": "address",
        "numberOfBytes": "20"
      },
      "t_bytes32": {
        "encoding": "inplace",
        "label": "bytes32",
        "numberOfBytes": "32"
      },
      "t_bytes_memory_ptr": {
        "encoding": "bytes",
        "label": "bytes",
        "numberOfBytes": "32"
      },
      "t_contract(ILayerZeroMessagingLibrary)17203": {
        "encoding": "inplace",
        "label": "contract ILayerZeroMessagingLibrary",
        "numberOfBytes": "20"
      },
      "t_mapping(t_address,t_struct(LibraryConfig)2303_storage)": {
        "encoding": "mapping",
        "key": "t_address",
        "label": "mapping(address => struct Endpoint.LibraryConfig)",
        "numberOfBytes": "32",
        "value": "t_struct(LibraryConfig)2303_storage"
      },
      "t_mapping(t_address,t_uint64)": {
        "encoding": "mapping",
        "key": "t_address",
        "label": "mapping(address => uint64)",
        "numberOfBytes": "32",
        "value": "t_uint64"
      },
      "t_mapping(t_bytes_memory_ptr,t_struct(StoredPayload)2310_storage)": {
        "encoding": "mapping",
        "key": "t_bytes_memory_ptr",
        "label": "mapping(bytes => struct Endpoint.StoredPayload)",
        "numberOfBytes": "32",
        "value": "t_struct(StoredPayload)2310_storage"
      },
      "t_mapping(t_bytes_memory_ptr,t_uint64)": {
        "encoding": "mapping",
        "key": "t_bytes_memory_ptr",
        "label": "mapping(bytes => uint64)",
        "numberOfBytes": "32",
        "value": "t_uint64"
      },
      "t_mapping(t_uint16,t_contract(ILayerZeroMessagingLibrary)17203)": {
        "encoding": "mapping",
        "key": "t_uint16",
        "label": "mapping(uint16 => contract ILayerZeroMessagingLibrary)",
        "numberOfBytes": "32",
        "value": "t_contract(ILayerZeroMessagingLibrary)17203"
      },
      "t_mapping(t_uint16,t_mapping(t_address,t_uint64))": {
        "encoding": "mapping",
        "key": "t_uint16",
        "label": "mapping(uint16 => mapping(address => uint64))",
        "numberOfBytes": "32",
        "value": "t_mapping(t_address,t_uint64)"
      },
      "t_mapping(t_uint16,t_mapping(t_bytes_memory_ptr,t_struct(StoredPayload)2310_storage))": {
        "encoding": "mapping",
        "key": "t_uint16",
        "label": "mapping(uint16 => mapping(bytes => struct Endpoint.StoredPayload))",
        "numberOfBytes": "32",
        "value": "t_mapping(t_bytes_memory_ptr,t_struct(StoredPayload)2310_storage)"
      },
      "t_mapping(t_uint16,t_mapping(t_bytes_memory_ptr,t_uint64))": {
        "encoding": "mapping",
        "key": "t_uint16",
        "label": "mapping(uint16 => mapping(bytes => uint64))",
        "numberOfBytes": "32",
        "value": "t_mapping(t_bytes_memory_ptr,t_uint64)"
      },
      "t_struct(LibraryConfig)2303_storage": {
        "encoding": "inplace",
        "label": "struct Endpoint.LibraryConfig",
        "members": [
          {
            "astId": 2296,
            "contract": "contracts/V1Contracts/contracts/Endpoint.sol:Endpoint",
            "label": "sendVersion",
            "offset": 0,
            "slot": "0",
            "type": "t_uint16"
          },
          {
            "astId": 2298,
            "contract": "contracts/V1Contracts/contracts/Endpoint.sol:Endpoint",
            "label": "receiveVersion",
            "offset": 2,
            "slot": "0",
            "type": "t_uint16"
          },
          {
            "astId": 2300,
            "contract": "contracts/V1Contracts/contracts/Endpoint.sol:Endpoint",
            "label": "receiveLibraryAddress",
            "offset": 4,
            "slot": "0",
            "type": "t_address"
          },
          {
            "astId": 2302,
            "contract": "contracts/V1Contracts/contracts/Endpoint.sol:Endpoint",
            "label": "sendLibrary",
            "offset": 0,
            "slot": "1",
            "type": "t_contract(ILayerZeroMessagingLibrary)17203"
          }
        ],
        "numberOfBytes": "64"
      },
      "t_struct(StoredPayload)2310_storage": {
        "encoding": "inplace",
        "label": "struct Endpoint.StoredPayload",
        "members": [
          {
            "astId": 2305,
            "contract": "contracts/V1Contracts/contracts/Endpoint.sol:Endpoint",
            "label": "payloadLength",
            "offset": 0,
            "slot": "0",
            "type": "t_uint64"
          },
          {
            "astId": 2307,
            "contract": "contracts/V1Contracts/contracts/Endpoint.sol:Endpoint",
            "label": "dstAddress",
            "offset": 8,
            "slot": "0",
            "type": "t_address"
          },
          {
            "astId": 2309,
            "contract": "contracts/V1Contracts/contracts/Endpoint.sol:Endpoint",
            "label": "payloadHash",
            "offset": 0,
            "slot": "1",
            "type": "t_bytes32"
          }
        ],
        "numberOfBytes": "64"
      },
      "t_uint16": {
        "encoding": "inplace",
        "label": "uint16",
        "numberOfBytes": "2"
      },
      "t_uint64": {
        "encoding": "inplace",
        "label": "uint64",
        "numberOfBytes": "8"
      },
      "t_uint8": {
        "encoding": "inplace",
        "label": "uint8",
        "numberOfBytes": "1"
      }
    }
  }
}