{
  "address": "0xFfa4e5475e76c39eB22D3A0c5FB259BD48321758",
  "abi": [
    {
      "inputs": [
        {
          "internalType": "address",
          "name": "_stargateBridgeAddress",
          "type": "address"
        },
        {
          "internalType": "address",
          "name": "_stargateTokenAddress",
          "type": "address"
        }
      ],
      "stateMutability": "nonpayable",
      "type": "constructor"
    },
    {
      "inputs": [
        {
          "internalType": "bytes",
          "name": "data",
          "type": "bytes"
        },
        {
          "internalType": "uint256",
          "name": "sizeOfSrcAddress",
          "type": "uint256"
        },
        {
          "internalType": "bytes32",
          "name": "ulnAddress",
          "type": "bytes32"
        }
      ],
      "name": "getPacket",
      "outputs": [
        {
          "components": [
            {
              "internalType": "uint16",
              "name": "srcChainId",
              "type": "uint16"
            },
            {
              "internalType": "uint16",
              "name": "dstChainId",
              "type": "uint16"
            },
            {
              "internalType": "uint64",
              "name": "nonce",
              "type": "uint64"
            },
            {
              "internalType": "address",
              "name": "dstAddress",
              "type": "address"
            },
            {
              "internalType": "bytes",
              "name": "srcAddress",
              "type": "bytes"
            },
            {
              "internalType": "bytes32",
              "name": "ulnAddress",
              "type": "bytes32"
            },
            {
              "internalType": "bytes",
              "name": "payload",
              "type": "bytes"
            }
          ],
          "internalType": "struct LayerZeroPacket.Packet",
          "name": "",
          "type": "tuple"
        }
      ],
      "stateMutability": "pure",
      "type": "function"
    },
    {
      "inputs": [],
      "name": "getProofType",
      "outputs": [
        {
          "internalType": "uint8",
          "name": "",
          "type": "uint8"
        }
      ],
      "stateMutability": "view",
      "type": "function"
    },
    {
      "inputs": [],
      "name": "getUtilsVersion",
      "outputs": [
        {
          "internalType": "uint8",
          "name": "",
          "type": "uint8"
        }
      ],
      "stateMutability": "view",
      "type": "function"
    },
    {
      "inputs": [
        {
          "internalType": "bytes32",
          "name": "",
          "type": "bytes32"
        },
        {
          "internalType": "uint256[]",
          "name": "",
          "type": "uint256[]"
        },
        {
          "internalType": "uint256",
          "name": "",
          "type": "uint256"
        },
        {
          "internalType": "bytes[]",
          "name": "proof",
          "type": "bytes[]"
        }
      ],
      "name": "getVerifyLog",
      "outputs": [
        {
          "components": [
            {
              "internalType": "bytes32",
              "name": "contractAddress",
              "type": "bytes32"
            },
            {
              "internalType": "bytes32",
              "name": "topicZeroSig",
              "type": "bytes32"
            },
            {
              "internalType": "bytes",
              "name": "data",
              "type": "bytes"
            }
          ],
          "internalType": "struct IValidationLibraryHelperV2.ULNLog",
          "name": "log",
          "type": "tuple"
        }
      ],
      "stateMutability": "pure",
      "type": "function"
    },
    {
      "inputs": [],
      "name": "proofType",
      "outputs": [
        {
          "internalType": "uint8",
          "name": "",
          "type": "uint8"
        }
      ],
      "stateMutability": "view",
      "type": "function"
    },
    {
      "inputs": [
        {
          "internalType": "bytes",
          "name": "_payload",
          "type": "bytes"
        }
      ],
      "name": "secureStgPayload",
      "outputs": [
        {
          "internalType": "bytes",
          "name": "",
          "type": "bytes"
        }
      ],
      "stateMutability": "view",
      "type": "function"
    },
    {
      "inputs": [
        {
          "internalType": "bytes",
          "name": "_payload",
          "type": "bytes"
        }
      ],
      "name": "secureStgTokenPayload",
      "outputs": [
        {
          "internalType": "bytes",
          "name": "",
          "type": "bytes"
        }
      ],
      "stateMutability": "pure",
      "type": "function"
    },
    {
      "inputs": [],
      "name": "stargateBridgeAddress",
      "outputs": [
        {
          "internalType": "address",
          "name": "",
          "type": "address"
        }
      ],
      "stateMutability": "view",
      "type": "function"
    },
    {
      "inputs": [],
      "name": "stargateTokenAddress",
      "outputs": [
        {
          "internalType": "address",
          "name": "",
          "type": "address"
        }
      ],
      "stateMutability": "view",
      "type": "function"
    },
    {
      "inputs": [],
      "name": "utilsVersion",
      "outputs": [
        {
          "internalType": "uint8",
          "name": "",
          "type": "uint8"
        }
      ],
      "stateMutability": "view",
      "type": "function"
    },
    {
      "inputs": [
        {
          "internalType": "bytes32",
          "name": "_packetHash",
          "type": "bytes32"
        },
        {
          "internalType": "bytes",
          "name": "_transactionProof",
          "type": "bytes"
        },
        {
          "internalType": "uint256",
          "name": "_remoteAddressSize",
          "type": "uint256"
        }
      ],
      "name": "validateProof",
      "outputs": [
        {
          "components": [
            {
              "internalType": "uint16",
              "name": "srcChainId",
              "type": "uint16"
            },
            {
              "internalType": "uint16",
              "name": "dstChainId",
              "type": "uint16"
            },
            {
              "internalType": "uint64",
              "name": "nonce",
              "type": "uint64"
            },
            {
              "internalType": "address",
              "name": "dstAddress",
              "type": "address"
            },
            {
              "internalType": "bytes",
              "name": "srcAddress",
              "type": "bytes"
            },
            {
              "internalType": "bytes32",
              "name": "ulnAddress",
              "type": "bytes32"
            },
            {
              "internalType": "bytes",
              "name": "payload",
              "type": "bytes"
            }
          ],
          "internalType": "struct LayerZeroPacket.Packet",
          "name": "packet",
          "type": "tuple"
        }
      ],
      "stateMutability": "view",
      "type": "function"
    }
  ],
  "transactionHash": "0x6b4c7aa7925c6cdf8fb922b7c157f84f784a1a86e3167be137881533322b5ffe",
  "args": [
    "0x0000000000000000000000000000000000000000",
    "0x0000000000000000000000000000000000000000"
  ],
  "numDeployments": 1,
  "solcInputHash": "66a864f53fcbcd62b4ecebba23860347",
  "bytecode": "0x60c06040526000805461ff001960ff199091166002171661010017905534801561002857600080fd5b5060405161121538038061121583398101604081905261004791610081565b6001600160601b0319606092831b8116608052911b1660a0526100b3565b80516001600160a01b038116811461007c57600080fd5b919050565b60008060408385031215610093578182fd5b61009c83610065565b91506100aa60208401610065565b90509250929050565b60805160601c60a05160601c61112f6100e66000398061036e52806103d75250806101e0528061031d525061112f6000f3fe608060405234801561001057600080fd5b50600436106100a95760003560e01c80636348d269116100715780636348d269146101345780639bcd850f14610149578063b71e0f7114610151578063d633ad6114610164578063e965c1921461016c578063ea455df914610174576100a9565b806305af5d35146100ae5780630f222e65146100cc5780632ff20449146100ec57806347713b391461010c5780635711c2a814610114575b600080fd5b6100b6610187565b6040516100c39190610fb1565b60405180910390f35b6100df6100da366004610b52565b610190565b6040516100c39190610f82565b6100ff6100fa366004610cc3565b6101a2565b6040516100c39190610ef3565b6100b66101bd565b610127610122366004610c4d565b6101cb565b6040516100c39190610e44565b61013c6101de565b6040516100c39190610e30565b6100b6610202565b6100ff61015f366004610bd1565b61020b565b6100b66103c7565b61013c6103d5565b610127610182366004610c4d565b6103f9565b60005460ff1681565b610198610946565b9695505050505050565b6101aa610965565b6101b5848484610404565b949350505050565b600054610100900460ff1681565b60606101d68261059c565b90505b919050565b7f000000000000000000000000000000000000000000000000000000000000000081565b60005460ff1690565b610213610965565b6000821161023c5760405162461bcd60e51b815260040161023390610ebc565b60405180910390fd5b6020831180156102625750848484604051610258929190610e20565b6040518091039020145b61027e5760405162461bcd60e51b815260040161023390610e79565b600061028d60208286886110a5565b8080601f016020809104026020016040519081016040528093929190818152602001838380828437600092019190915250505060208083015192935061031991506102db908790818a6110a5565b8080601f0160208091040260200160405190810160405280939291908181526020018383808284376000920191909152508892508591506104049050565b92507f00000000000000000000000000000000000000000000000000000000000000006001600160a01b031683606001516001600160a01b0316141561036c576103668360c0015161059c565b60c08401525b7f00000000000000000000000000000000000000000000000000000000000000006001600160a01b031683606001516001600160a01b031614156103bd576103b78360c00151610681565b60c08401525b5050949350505050565b600054610100900460ff1690565b7f000000000000000000000000000000000000000000000000000000000000000081565b60606101d682610681565b61040c610965565b8351600061041b85602061071e565b905080821015610472576040805162461bcd60e51b815260206004820152601f60248201527f4c617965725a65726f5061636b65743a20696e76616c6964207061636b657400604482015290519081900360640190fd5b6008860151600a870151868801600c8101516020909101518486039392919061ffff83166104e7576040805162461bcd60e51b815260206004820152601f60248201527f4c617965725a65726f5061636b65743a20696e76616c6964207061636b657400604482015290519081900360640190fd5b6104ef6109a3565b6104f9818c610781565b506105098160008e602a8f6107bb565b506105126109a3565b8615610540576105228188610781565b5061053e60008e6105348b602061071e565b849291908b6107bb565b505b6040805160e08101825261ffff96871681529490951660208501526001600160401b03909516938301939093526001600160a01b031660608201529051608082015260a08101879052905160c082015293505050509392505050565b6020810151606090600160ff8216141561067a576000806000806000806000898060200190518101906105cf9190610d0e565b975097509750975097509750975050600081511115610672578151600090156105f9575060148201515b803b8061066f576000826040516020016106139190610e03565b60408051601f198184030181526020838101835260008085529251919450919261064b928f928f928f928f928f928f928b9201610fbf565b60408051601f198184030181529190529c506101d99b505050505050505050505050565b50505b505050505050505b5090919050565b60606000808380602001905181019061069a9190610c7f565b91509150600080835111156106b0575060148201515b6001600160a01b0381166107155760405161dead906000906106d6908390602001610e03565b604051602081830303815290604052905080846040516020016106fa929190610e57565b604051602081830303815290604052955050505050506101d9565b50929392505050565b600082820183811015610778576040805162461bcd60e51b815260206004820152601b60248201527f536166654d6174683a206164646974696f6e206f766572666c6f770000000000604482015290519081900360640190fd5b90505b92915050565b6107896109a3565b602082061561079e5760208206602003820191505b506020828101829052604080518085526000815290920101905290565b6107c36109a3565b856020015182860111156107ed576107ed866107e58860200151888601610859565b600202610870565b60008087518051886020830101935080898701111561080c5788860182525b5050508484015b602084106108325780518252601f199093019260209182019101610813565b51815160001960208690036101000a01908116901991909116179052508495945050505050565b60008183111561086a57508161077b565b50919050565b815161087c8383610781565b50610887838261088d565b50505050565b6108956109a3565b610778838460000151518485516108aa6109a3565b82518211156108b857600080fd5b846020015182850111156108da576108da856107e58760200151878601610859565b6000808651805187602083010193508088870111156108f95787860182525b505050602084015b602084106109205780518252601f199093019260209182019101610901565b51815160001960208690036101000a019081169019919091161790525083949350505050565b6040805160608082018352600080835260208301529181019190915290565b6040805160e08101825260008082526020820181905291810182905260608082018390526080820181905260a082019290925260c081019190915290565b604051806040016040528060608152602001600081525090565b60008083601f8401126109ce578081fd5b5081356001600160401b038111156109e4578182fd5b60208301915083602080830285010111156109fe57600080fd5b9250929050565b600082601f830112610a15578081fd5b8135610a28610a2382611084565b611061565b818152846020838601011115610a3c578283fd5b816020850160208301379081016020019190915292915050565b600082601f830112610a66578081fd5b8151610a74610a2382611084565b818152846020838601011115610a88578283fd5b6101b58260208301602087016110cd565b600060408284031215610aaa578081fd5b604051604081018181106001600160401b0382111715610ac657fe5b604052825181526020928301519281019290925250919050565b600060c08284031215610af1578081fd5b60405160c081018181106001600160401b0382111715610b0d57fe5b8060405250809150825181526020830151602082015260408301516040820152606083015160608201526080830151608082015260a083015160a08201525092915050565b60008060008060008060808789031215610b6a578182fd5b8635955060208701356001600160401b0380821115610b87578384fd5b610b938a838b016109bd565b9097509550604089013594506060890135915080821115610bb2578384fd5b50610bbf89828a016109bd565b979a9699509497509295939492505050565b60008060008060608587031215610be6578384fd5b8435935060208501356001600160401b0380821115610c03578485fd5b818701915087601f830112610c16578485fd5b813581811115610c24578586fd5b886020828501011115610c35578586fd5b95986020929092019750949560400135945092505050565b600060208284031215610c5e578081fd5b81356001600160401b03811115610c73578182fd5b6101b584828501610a05565b60008060408385031215610c91578182fd5b82516001600160401b03811115610ca6578283fd5b610cb285828601610a56565b925050602083015190509250929050565b600080600060608486031215610cd7578283fd5b83356001600160401b03811115610cec578384fd5b610cf886828701610a05565b9660208601359650604090950135949350505050565b6000806000806000806000806101c0898b031215610d2a578182fd5b885160ff81168114610d3a578283fd5b80985050602089015196506040890151955060608901519450610d608a60808b01610a99565b9350610d6f8a60c08b01610ae0565b92506101808901516001600160401b0380821115610d8b578384fd5b610d978c838d01610a56565b93506101a08b0151915080821115610dad578283fd5b50610dba8b828c01610a56565b9150509295985092959890939650565b6001600160a01b03169052565b60008151808452610def8160208601602086016110cd565b601f01601f19169290920160200192915050565b60609190911b6bffffffffffffffffffffffff1916815260140190565b6000828483379101908152919050565b6001600160a01b0391909116815260200190565b6000602082526107786020830184610dd7565b600060408252610e6a6040830185610dd7565b90508260208301529392505050565b60208082526023908201527f50726f6f664c69623a20696e76616c6964207472616e73616374696f6e20707260408201526237b7b360e91b606082015260800190565b6020808252601e908201527f50726f6f664c69623a20696e76616c696420616464726573732073697a650000604082015260600190565b60006020825261ffff808451166020840152806020850151166040840152506001600160401b0360408401511660608301526060830151610f376080840182610dca565b50608083015160e060a0840152610f52610100840182610dd7565b905060a084015160c084015260c0840151601f198483030160e0850152610f798282610dd7565b95945050505050565b600060208252825160208301526020830151604083015260408301516060808401526101b56080840182610dd7565b60ff91909116815260200190565b60006101c060ff8b16835289602084015288604084015287606084015286516080840152602087015160a0840152855160c0840152602086015160e084015260408601516101008401526060860151610120840152608086015161014084015260a08601516101608401528061018084015261103d81840186610dd7565b90508281036101a08401526110528185610dd7565b9b9a5050505050505050505050565b6040518181016001600160401b038111828210171561107c57fe5b604052919050565b60006001600160401b0382111561109757fe5b50601f01601f191660200190565b600080858511156110b4578182fd5b838611156110c0578182fd5b5050820193919092039150565b60005b838110156110e85781810151838201526020016110d0565b83811115610887575050600091015256fea26469706673582212208a47c185c2c51bf981fed1c94078ee4ca86530f3cfc307ed47298914e4e05c7c64736f6c63430007060033",
  "devdoc": {
    "kind": "dev",
    "methods": {},
    "version": 1
  },
  "userdoc": {
    "kind": "user",
    "methods": {},
    "version": 1
  },
  "storageLayout": {
    "storage": [
      {
        "astId": 4591,
        "contract": "contracts/V1Contracts/contracts/FPValidator.sol:FPValidator",
        "label": "proofType",
        "offset": 0,
        "slot": "0",
        "type": "t_uint8"
      },
      {
        "astId": 4594,
        "contract": "contracts/V1Contracts/contracts/FPValidator.sol:FPValidator",
        "label": "utilsVersion",
        "offset": 1,
        "slot": "0",
        "type": "t_uint8"
      }
    ],
    "types": {
      "t_uint8": {
        "encoding": "inplace",
        "label": "uint8",
        "numberOfBytes": "1"
      }
    }
  }
}