{
  "address": "0x2D6C989170B1F57eAcC4e01c30bfD13bab75D2d5",
  "abi": [
    {
      "anonymous": false,
      "inputs": [
        {
          "indexed": true,
          "internalType": "address",
          "name": "previousOwner",
          "type": "address"
        },
        {
          "indexed": true,
          "internalType": "address",
          "name": "newOwner",
          "type": "address"
        }
      ],
      "name": "OwnershipTransferred",
      "type": "event"
    },
    {
      "inputs": [],
      "name": "ARBITRUM_COMPRESSION_PERCENT",
      "outputs": [
        {
          "internalType": "uint128",
          "name": "",
          "type": "uint128"
        }
      ],
      "stateMutability": "view",
      "type": "function"
    },
    {
      "inputs": [],
      "name": "PRICE_RATIO_DENOMINATOR",
      "outputs": [
        {
          "internalType": "uint128",
          "name": "",
          "type": "uint128"
        }
      ],
      "stateMutability": "view",
      "type": "function"
    },
    {
      "inputs": [],
      "name": "arbitrumPriceExt",
      "outputs": [
        {
          "internalType": "uint64",
          "name": "gasPerL2Tx",
          "type": "uint64"
        },
        {
          "internalType": "uint32",
          "name": "gasPerL1CallDataByte",
          "type": "uint32"
        }
      ],
      "stateMutability": "view",
      "type": "function"
    },
    {
      "inputs": [
        {
          "internalType": "uint16",
          "name": "",
          "type": "uint16"
        }
      ],
      "name": "defaultModelPrice",
      "outputs": [
        {
          "internalType": "uint128",
          "name": "priceRatio",
          "type": "uint128"
        },
        {
          "internalType": "uint64",
          "name": "gasPriceInUnit",
          "type": "uint64"
        },
        {
          "internalType": "uint32",
          "name": "gasPerByte",
          "type": "uint32"
        }
      ],
      "stateMutability": "view",
      "type": "function"
    },
    {
      "inputs": [
        {
          "internalType": "uint16",
          "name": "_dstChainId",
          "type": "uint16"
        },
        {
          "internalType": "uint256",
          "name": "_callDataSize",
          "type": "uint256"
        },
        {
          "internalType": "uint256",
          "name": "_gas",
          "type": "uint256"
        }
      ],
      "name": "estimateFeeByChain",
      "outputs": [
        {
          "internalType": "uint256",
          "name": "fee",
          "type": "uint256"
        },
        {
          "internalType": "uint128",
          "name": "priceRatio",
          "type": "uint128"
        }
      ],
      "stateMutability": "view",
      "type": "function"
    },
    {
      "inputs": [
        {
          "internalType": "uint16",
          "name": "_dstChainId",
          "type": "uint16"
        },
        {
          "internalType": "uint256",
          "name": "_callDataSize",
          "type": "uint256"
        },
        {
          "internalType": "uint256",
          "name": "_gas",
          "type": "uint256"
        }
      ],
      "name": "estimateFeeWithArbitrumModel",
      "outputs": [
        {
          "internalType": "uint256",
          "name": "fee",
          "type": "uint256"
        },
        {
          "internalType": "uint128",
          "name": "priceRatio",
          "type": "uint128"
        }
      ],
      "stateMutability": "view",
      "type": "function"
    },
    {
      "inputs": [
        {
          "internalType": "uint16",
          "name": "_dstChainId",
          "type": "uint16"
        },
        {
          "internalType": "uint256",
          "name": "_callDataSize",
          "type": "uint256"
        },
        {
          "internalType": "uint256",
          "name": "_gas",
          "type": "uint256"
        }
      ],
      "name": "estimateFeeWithDefaultModel",
      "outputs": [
        {
          "internalType": "uint256",
          "name": "fee",
          "type": "uint256"
        },
        {
          "internalType": "uint128",
          "name": "priceRatio",
          "type": "uint128"
        }
      ],
      "stateMutability": "view",
      "type": "function"
    },
    {
      "inputs": [
        {
          "internalType": "uint16",
          "name": "_dstChainId",
          "type": "uint16"
        },
        {
          "internalType": "uint256",
          "name": "_callDataSize",
          "type": "uint256"
        },
        {
          "internalType": "uint256",
          "name": "_gas",
          "type": "uint256"
        }
      ],
      "name": "estimateFeeWithOptimismModel",
      "outputs": [
        {
          "internalType": "uint256",
          "name": "fee",
          "type": "uint256"
        },
        {
          "internalType": "uint128",
          "name": "priceRatio",
          "type": "uint128"
        }
      ],
      "stateMutability": "view",
      "type": "function"
    },
    {
      "inputs": [
        {
          "internalType": "uint16",
          "name": "_dstChainId",
          "type": "uint16"
        }
      ],
      "name": "getPrice",
      "outputs": [
        {
          "components": [
            {
              "internalType": "uint128",
              "name": "priceRatio",
              "type": "uint128"
            },
            {
              "internalType": "uint64",
              "name": "gasPriceInUnit",
              "type": "uint64"
            },
            {
              "internalType": "uint32",
              "name": "gasPerByte",
              "type": "uint32"
            }
          ],
          "internalType": "struct ILayerZeroPriceFeed.Price",
          "name": "price",
          "type": "tuple"
        }
      ],
      "stateMutability": "view",
      "type": "function"
    },
    {
      "inputs": [],
      "name": "getPriceRatioDenominator",
      "outputs": [
        {
          "internalType": "uint128",
          "name": "",
          "type": "uint128"
        }
      ],
      "stateMutability": "view",
      "type": "function"
    },
    {
      "inputs": [
        {
          "internalType": "address",
          "name": "_priceUpdater",
          "type": "address"
        }
      ],
      "name": "initialize",
      "outputs": [],
      "stateMutability": "nonpayable",
      "type": "function"
    },
    {
      "inputs": [],
      "name": "nativeTokenPriceUSD",
      "outputs": [
        {
          "internalType": "uint128",
          "name": "",
          "type": "uint128"
        }
      ],
      "stateMutability": "view",
      "type": "function"
    },
    {
      "inputs": [],
      "name": "onUpgrade",
      "outputs": [],
      "stateMutability": "nonpayable",
      "type": "function"
    },
    {
      "inputs": [],
      "name": "owner",
      "outputs": [
        {
          "internalType": "address",
          "name": "",
          "type": "address"
        }
      ],
      "stateMutability": "view",
      "type": "function"
    },
    {
      "inputs": [
        {
          "internalType": "address",
          "name": "",
          "type": "address"
        }
      ],
      "name": "priceUpdater",
      "outputs": [
        {
          "internalType": "bool",
          "name": "",
          "type": "bool"
        }
      ],
      "stateMutability": "view",
      "type": "function"
    },
    {
      "inputs": [],
      "name": "renounceOwnership",
      "outputs": [],
      "stateMutability": "nonpayable",
      "type": "function"
    },
    {
      "inputs": [
        {
          "internalType": "uint128",
          "name": "_compressionPercent",
          "type": "uint128"
        }
      ],
      "name": "setArbitrumCompressionPercent",
      "outputs": [],
      "stateMutability": "nonpayable",
      "type": "function"
    },
    {
      "inputs": [
        {
          "internalType": "uint128",
          "name": "_nativeTokenPriceUSD",
          "type": "uint128"
        }
      ],
      "name": "setNativeTokenPriceUSD",
      "outputs": [],
      "stateMutability": "nonpayable",
      "type": "function"
    },
    {
      "inputs": [
        {
          "components": [
            {
              "internalType": "uint16",
              "name": "chainId",
              "type": "uint16"
            },
            {
              "components": [
                {
                  "internalType": "uint128",
                  "name": "priceRatio",
                  "type": "uint128"
                },
                {
                  "internalType": "uint64",
                  "name": "gasPriceInUnit",
                  "type": "uint64"
                },
                {
                  "internalType": "uint32",
                  "name": "gasPerByte",
                  "type": "uint32"
                }
              ],
              "internalType": "struct ILayerZeroPriceFeed.Price",
              "name": "price",
              "type": "tuple"
            }
          ],
          "internalType": "struct ILayerZeroPriceFeed.UpdatePrice[]",
          "name": "_price",
          "type": "tuple[]"
        }
      ],
      "name": "setPrice",
      "outputs": [],
      "stateMutability": "nonpayable",
      "type": "function"
    },
    {
      "inputs": [
        {
          "components": [
            {
              "internalType": "uint16",
              "name": "chainId",
              "type": "uint16"
            },
            {
              "components": [
                {
                  "internalType": "uint128",
                  "name": "priceRatio",
                  "type": "uint128"
                },
                {
                  "internalType": "uint64",
                  "name": "gasPriceInUnit",
                  "type": "uint64"
                },
                {
                  "internalType": "uint32",
                  "name": "gasPerByte",
                  "type": "uint32"
                }
              ],
              "internalType": "struct ILayerZeroPriceFeed.Price",
              "name": "price",
              "type": "tuple"
            },
            {
              "components": [
                {
                  "internalType": "uint64",
                  "name": "gasPerL2Tx",
                  "type": "uint64"
                },
                {
                  "internalType": "uint32",
                  "name": "gasPerL1CallDataByte",
                  "type": "uint32"
                }
              ],
              "internalType": "struct ILayerZeroPriceFeed.ArbitrumPriceExt",
              "name": "extend",
              "type": "tuple"
            }
          ],
          "internalType": "struct ILayerZeroPriceFeed.UpdatePriceExt[]",
          "name": "_price",
          "type": "tuple[]"
        }
      ],
      "name": "setPriceForArbitrum",
      "outputs": [],
      "stateMutability": "nonpayable",
      "type": "function"
    },
    {
      "inputs": [
        {
          "internalType": "uint128",
          "name": "_denominator",
          "type": "uint128"
        }
      ],
      "name": "setPriceRatioDenominator",
      "outputs": [],
      "stateMutability": "nonpayable",
      "type": "function"
    },
    {
      "inputs": [
        {
          "internalType": "address",
          "name": "_addr",
          "type": "address"
        },
        {
          "internalType": "bool",
          "name": "_active",
          "type": "bool"
        }
      ],
      "name": "setPriceUpdater",
      "outputs": [],
      "stateMutability": "nonpayable",
      "type": "function"
    },
    {
      "inputs": [
        {
          "internalType": "address",
          "name": "newOwner",
          "type": "address"
        }
      ],
      "name": "transferOwnership",
      "outputs": [],
      "stateMutability": "nonpayable",
      "type": "function"
    }
  ],
  "transactionHash": "0x84a649023cd69f6d6dca5ca37e2918fbe5f3e3b5bb5f0cbcf64ff4869c27cb55",
  "args": [],
  "numDeployments": 1,
  "solcInputHash": "cce07b4c973b800e43d6c9441a8b3dcf",
  "bytecode": "0x608060405234801561001057600080fd5b50611850806100206000396000f3fe608060405234801561001057600080fd5b506004361061014d5760003560e01c80638da5cb5b116100c3578063cd68b79b1161007c578063cd68b79b146102a5578063d350ad25146102ad578063e0ad121a146102c0578063e15d16e8146102e0578063f2fde38b146102f3578063ff37b496146103065761014d565b80638da5cb5b146102385780638f7002d21461024d57806392807f581461026f578063ab1518ab14610277578063c18403271461028a578063c4d66de8146102925761014d565b806352a725101161011557806352a72510146101b65780635d6d7ccb146101c9578063711746e2146101dc578063715018a6146101ef5780637bc3c9ab146101f75780638ca2fb08146102185761014d565b806315527af6146101525780631824a46b146101675780632f7cb0b41461016f57806336a5beba146101825780633c04741e146101a1575b600080fd5b61016561016036600461147b565b610319565b005b61016561042b565b61016561017d3660046115ab565b6104ba565b61018a61053b565b604051610198929190611766565b60405180910390f35b6101a9610559565b604051610198919061170b565b6101656101c4366004611441565b610568565b6101656101d73660046115ab565b6105f5565b6101656101ea3660046114ea565b61065d565b6101656106df565b61020a6102053660046115df565b61078b565b60405161019892919061174f565b61022b610226366004611420565b61081a565b6040516101989190611659565b61024061082f565b6040516101989190611645565b61026061025b3660046115c5565b61083e565b6040516101989392919061171f565b6101a9610879565b61020a6102853660046115df565b610888565b6101a96109e1565b6101656102a0366004611420565b6109f0565b6101a9610b4b565b6101656102bb3660046115ab565b610b61565b6102d36102ce3660046115c5565b610be5565b60405161019891906116d2565b61020a6102ee3660046115df565b610c49565b610165610301366004611420565b610ce4565b61020a6103143660046115df565b610de7565b3361032261082f565b6001600160a01b031614610368573360009081526066602052604090205460ff166103685760405162461bcd60e51b815260040161035f90611664565b60405180910390fd5b60005b81811015610426573683838381811061038057fe5b60c0029190910191506103b2905061039b60208301836115c5565b6103ad36849003840160208501611547565b610ed9565b60006103c460a083016080840161162b565b905060006103d860c0840160a08501611611565b6068805463ffffffff909216600160401b026bffffffff0000000000000000196001600160401b0390951667ffffffffffffffff19909316929092179390931617909155505060010161036b565b505050565b6000610435610f85565b90506001600160a01b038116610474576001600160a01b037fb53127684a568b3173ae13b9f8a6016e243e63b6e8ee1178d6a717850b5d610355610489565b336001600160a01b0382161461048957600080fd5b50606580546402540be4006001600160801b0319909116179055606980546001600160801b0316602f60801b179055565b6104c2610faa565b6001600160a01b03166104d361082f565b6001600160a01b03161461051c576040805162461bcd60e51b815260206004820181905260248201526000805160206117fb833981519152604482015290519081900360640190fd5b606980546001600160801b03928316600160801b029216919091179055565b6068546001600160401b03811690600160401b900463ffffffff1682565b6065546001600160801b031681565b610570610faa565b6001600160a01b031661058161082f565b6001600160a01b0316146105ca576040805162461bcd60e51b815260206004820181905260248201526000805160206117fb833981519152604482015290519081900360640190fd5b6001600160a01b03919091166000908152606660205260409020805460ff1916911515919091179055565b336105fe61082f565b6001600160a01b03161461063b573360009081526066602052604090205460ff1661063b5760405162461bcd60e51b815260040161035f90611664565b606980546001600160801b0319166001600160801b0392909216919091179055565b3361066661082f565b6001600160a01b0316146106a3573360009081526066602052604090205460ff166106a35760405162461bcd60e51b815260040161035f90611664565b60005b8181101561042657368383838181106106bb57fe5b6080029190910191506106d6905061039b60208301836115c5565b506001016106a6565b6106e7610faa565b6001600160a01b03166106f861082f565b6001600160a01b031614610741576040805162461bcd60e51b815260206004820181905260248201526000805160206117fb833981519152604482015290519081900360640190fd5b6033546040516000916001600160a01b0316907f8be0079c531659141344cd1fd0a4f28419497f9722a3daafe3b4186f6b6457e0908390a3603380546001600160a01b0319169055565b6000808461ffff16606e14806107a657508461ffff1661279f145b806107b657508461ffff16614eaf145b156107cf576107c6858585610de7565b91509150610812565b8461ffff16606f14806107e757508461ffff16612794145b806107f757508461ffff16614ea4145b15610807576107c6858585610888565b6107c6858585610c49565b935093915050565b60666020526000908152604090205460ff1681565b6033546001600160a01b031690565b6067602052600090815260409020546001600160801b03811690600160801b81046001600160401b031690600160c01b900463ffffffff1683565b6069546001600160801b031681565b600080600061089686610fae565b61ffff811660009081526067602052604081208054929350916108d990610c74906108d3908a9063ffffffff600160c01b90910481169061101016565b90611072565b82549091506000906108fc908390600160801b90046001600160401b0316611010565b61ffff8a166000908152606760205260408120805492935091610931908b9063ffffffff600160c01b90910481169061101016565b825490915060009061095d90600160801b90046001600160401b0316610957848d611072565b90611010565b606554875491925060009161098a916001600160801b039081169161098491899116611010565b906110cc565b60655485549192506000916109b1916001600160801b039081169161098491879116611010565b905060006109bf8383611072565b9554959f6001600160801b039096169e50949c50505050505050505050505050565b6065546001600160801b031690565b60006109fa610f85565b90506001600160a01b038116610a39576001600160a01b037fb53127684a568b3173ae13b9f8a6016e243e63b6e8ee1178d6a717850b5d610355610a4e565b336001600160a01b03821614610a4e57600080fd5b600054610100900460ff1680610a675750610a67611133565b80610a75575060005460ff16155b610ab05760405162461bcd60e51b815260040180806020018281038252602e8152602001806117ac602e913960400191505060405180910390fd5b600054610100900460ff16158015610adb576000805460ff1961ff0019909116610100171660011790555b610ae3611144565b6001600160a01b0383166000908152606660205260409020805460ff19166001179055606580546001600160801b0319166402540be40017905560698054602f60801b6001600160801b03919091161790558015610426576000805461ff0019169055505050565b606954600160801b90046001600160801b031681565b610b69610faa565b6001600160a01b0316610b7a61082f565b6001600160a01b031614610bc3576040805162461bcd60e51b815260206004820181905260248201526000805160206117fb833981519152604482015290519081900360640190fd5b606580546001600160801b0319166001600160801b0392909216919091179055565b610bed611395565b5061ffff16600090815260676020908152604091829020825160608101845290546001600160801b0381168252600160801b81046001600160401b031692820192909252600160c01b90910463ffffffff169181019190915290565b61ffff8316600090815260676020526040812080548291908290610c7f90879063ffffffff600160c01b90910481169061101016565b8254909150600090610ca590600160801b90046001600160401b03166109578489611072565b6065548454919250610cc9916001600160801b039182169161098491859116611010565b925492986001600160801b0390931697509195505050505050565b610cec610faa565b6001600160a01b0316610cfd61082f565b6001600160a01b031614610d46576040805162461bcd60e51b815260206004820181905260248201526000805160206117fb833981519152604482015290519081900360640190fd5b6001600160a01b038116610d8b5760405162461bcd60e51b81526004018080602001828103825260268152602001806117866026913960400191505060405180910390fd5b6033546040516001600160a01b038084169216907f8be0079c531659141344cd1fd0a4f28419497f9722a3daafe3b4186f6b6457e090600090a3603380546001600160a01b0319166001600160a01b0392909216919091179055565b61ffff831660009081526067602052604081206068546069548392918391610e3d91600160401b900463ffffffff9081169161095791606491610984918c91600160801b90046001600160801b03169061101016565b8254909150600090610e6190889063ffffffff600160c01b90910481169061101016565b8354606854919250600091610e99916001600160401b03600160801b9091048116916109579186916108d391899183918f9116611072565b6065548554919250610ebd916001600160801b039182169161098491859116611010565b935493996001600160801b039094169850929650505050505050565b805160208083015160409384015184516060810186526001600160801b0394851681526001600160401b0392831681850190815263ffffffff92831682880190815261ffff90981660009081526067909552959093209251835495519651909116600160c01b0263ffffffff60c01b1996909216600160801b0267ffffffffffffffff60801b19919094166001600160801b031990951694909417939093169190911792909216179055565b7fb53127684a568b3173ae13b9f8a6016e243e63b6e8ee1178d6a717850b5d61035490565b3390565b60008161ffff16606f1415610fc55750606561100b565b8161ffff166127941415610fdc575061278961100b565b8161ffff16614ea41415610ff35750614e9961100b565b60405162461bcd60e51b815260040161035f9061169b565b919050565b60008261101f5750600061106c565b8282028284828161102c57fe5b04146110695760405162461bcd60e51b81526004018080602001828103825260218152602001806117da6021913960400191505060405180910390fd5b90505b92915050565b600082820183811015611069576040805162461bcd60e51b815260206004820152601b60248201527f536166654d6174683a206164646974696f6e206f766572666c6f770000000000604482015290519081900360640190fd5b6000808211611122576040805162461bcd60e51b815260206004820152601a60248201527f536166654d6174683a206469766973696f6e206279207a65726f000000000000604482015290519081900360640190fd5b81838161112b57fe5b049392505050565b600061113e306111f6565b15905090565b600054610100900460ff168061115d575061115d611133565b8061116b575060005460ff16155b6111a65760405162461bcd60e51b815260040180806020018281038252602e8152602001806117ac602e913960400191505060405180910390fd5b600054610100900460ff161580156111d1576000805460ff1961ff0019909116610100171660011790555b6111d96111fc565b6111e161129c565b80156111f3576000805461ff00191690555b50565b3b151590565b600054610100900460ff16806112155750611215611133565b80611223575060005460ff16155b61125e5760405162461bcd60e51b815260040180806020018281038252602e8152602001806117ac602e913960400191505060405180910390fd5b600054610100900460ff161580156111e1576000805460ff1961ff00199091166101001716600117905580156111f3576000805461ff001916905550565b600054610100900460ff16806112b557506112b5611133565b806112c3575060005460ff16155b6112fe5760405162461bcd60e51b815260040180806020018281038252602e8152602001806117ac602e913960400191505060405180910390fd5b600054610100900460ff16158015611329576000805460ff1961ff0019909116610100171660011790555b6000611333610faa565b603380546001600160a01b0319166001600160a01b038316908117909155604051919250906000907f8be0079c531659141344cd1fd0a4f28419497f9722a3daafe3b4186f6b6457e0908290a35080156111f3576000805461ff001916905550565b604080516060810182526000808252602082018190529181019190915290565b80356001600160a01b038116811461100b57600080fd5b80356001600160801b038116811461100b57600080fd5b803561ffff8116811461100b57600080fd5b803563ffffffff8116811461100b57600080fd5b80356001600160401b038116811461100b57600080fd5b600060208284031215611431578081fd5b61143a826113b5565b9392505050565b60008060408385031215611453578081fd5b61145c836113b5565b915060208301358015158114611470578182fd5b809150509250929050565b6000806020838503121561148d578182fd5b82356001600160401b03808211156114a3578384fd5b818501915085601f8301126114b6578384fd5b8135818111156114c4578485fd5b86602060c0830285010111156114d8578485fd5b60209290920196919550909350505050565b600080602083850312156114fc578182fd5b82356001600160401b0380821115611512578384fd5b818501915085601f830112611525578384fd5b813581811115611533578485fd5b8660206080830285010111156114d8578485fd5b600060608284031215611558578081fd5b604051606081018181106001600160401b038211171561157457fe5b604052611580836113cc565b815261158e60208401611409565b602082015261159f604084016113f5565b60408201529392505050565b6000602082840312156115bc578081fd5b61143a826113cc565b6000602082840312156115d6578081fd5b61143a826113e3565b6000806000606084860312156115f3578081fd5b6115fc846113e3565b95602085013595506040909401359392505050565b600060208284031215611622578081fd5b61143a826113f5565b60006020828403121561163c578081fd5b61143a82611409565b6001600160a01b0391909116815260200190565b901515815260200190565b6020808252601c908201527f5072696365466565643a206e6f74207072696365207570646174657200000000604082015260600190565b6020808252601e908201527f5072696365466565643a20756e6b6e6f776e206c3220636861696e2069640000604082015260600190565b81516001600160801b031681526020808301516001600160401b03169082015260409182015163ffffffff169181019190915260600190565b6001600160801b0391909116815260200190565b6001600160801b039390931683526001600160401b0391909116602083015263ffffffff16604082015260600190565b9182526001600160801b0316602082015260400190565b6001600160401b0392909216825263ffffffff1660208201526040019056fe4f776e61626c653a206e6577206f776e657220697320746865207a65726f2061646472657373496e697469616c697a61626c653a20636f6e747261637420697320616c726561647920696e697469616c697a6564536166654d6174683a206d756c7469706c69636174696f6e206f766572666c6f774f776e61626c653a2063616c6c6572206973206e6f7420746865206f776e6572a2646970667358221220534ee8a23a154f09abfdaa0df11a8c4c0d8ee026225cbfc8a4f46379058f12a364736f6c63430007060033",
  "devdoc": {
    "kind": "dev",
    "methods": {
      "owner()": {
        "details": "Returns the address of the current owner."
      },
      "renounceOwnership()": {
        "details": "Leaves the contract without owner. It will not be possible to call `onlyOwner` functions anymore. Can only be called by the current owner. NOTE: Renouncing ownership will leave the contract without an owner, thereby removing any functionality that is only available to the owner."
      },
      "transferOwnership(address)": {
        "details": "Transfers ownership of the contract to a new account (`newOwner`). Can only be called by the current owner."
      }
    },
    "version": 1
  },
  "userdoc": {
    "kind": "user",
    "methods": {},
    "version": 1
  },
  "storageLayout": {
    "storage": [
      {
        "astId": 137,
        "contract": "contracts/V1Contracts/contracts/PriceFeed.sol:PriceFeed",
        "label": "_initialized",
        "offset": 0,
        "slot": "0",
        "type": "t_bool"
      },
      {
        "astId": 140,
        "contract": "contracts/V1Contracts/contracts/PriceFeed.sol:PriceFeed",
        "label": "_initializing",
        "offset": 1,
        "slot": "0",
        "type": "t_bool"
      },
      {
        "astId": 484,
        "contract": "contracts/V1Contracts/contracts/PriceFeed.sol:PriceFeed",
        "label": "__gap",
        "offset": 0,
        "slot": "1",
        "type": "t_array(t_uint256)50_storage"
      },
      {
        "astId": 10,
        "contract": "contracts/V1Contracts/contracts/PriceFeed.sol:PriceFeed",
        "label": "_owner",
        "offset": 0,
        "slot": "51",
        "type": "t_address"
      },
      {
        "astId": 129,
        "contract": "contracts/V1Contracts/contracts/PriceFeed.sol:PriceFeed",
        "label": "__gap",
        "offset": 0,
        "slot": "52",
        "type": "t_array(t_uint256)49_storage"
      },
      {
        "astId": 5256,
        "contract": "contracts/V1Contracts/contracts/PriceFeed.sol:PriceFeed",
        "label": "PRICE_RATIO_DENOMINATOR",
        "offset": 0,
        "slot": "101",
        "type": "t_uint128"
      },
      {
        "astId": 5260,
        "contract": "contracts/V1Contracts/contracts/PriceFeed.sol:PriceFeed",
        "label": "priceUpdater",
        "offset": 0,
        "slot": "102",
        "type": "t_mapping(t_address,t_bool)"
      },
      {
        "astId": 5264,
        "contract": "contracts/V1Contracts/contracts/PriceFeed.sol:PriceFeed",
        "label": "defaultModelPrice",
        "offset": 0,
        "slot": "103",
        "type": "t_mapping(t_uint16,t_struct(Price)17293_storage)"
      },
      {
        "astId": 5266,
        "contract": "contracts/V1Contracts/contracts/PriceFeed.sol:PriceFeed",
        "label": "arbitrumPriceExt",
        "offset": 0,
        "slot": "104",
        "type": "t_struct(ArbitrumPriceExt)17303_storage"
      },
      {
        "astId": 5269,
        "contract": "contracts/V1Contracts/contracts/PriceFeed.sol:PriceFeed",
        "label": "nativeTokenPriceUSD",
        "offset": 0,
        "slot": "105",
        "type": "t_uint128"
      },
      {
        "astId": 5271,
        "contract": "contracts/V1Contracts/contracts/PriceFeed.sol:PriceFeed",
        "label": "ARBITRUM_COMPRESSION_PERCENT",
        "offset": 16,
        "slot": "105",
        "type": "t_uint128"
      }
    ],
    "types": {
      "t_address": {
        "encoding": "inplace",
        "label": "address",
        "numberOfBytes": "20"
      },
      "t_array(t_uint256)49_storage": {
        "base": "t_uint256",
        "encoding": "inplace",
        "label": "uint256[49]",
        "numberOfBytes": "1568"
      },
      "t_array(t_uint256)50_storage": {
        "base": "t_uint256",
        "encoding": "inplace",
        "label": "uint256[50]",
        "numberOfBytes": "1600"
      },
      "t_bool": {
        "encoding": "inplace",
        "label": "bool",
        "numberOfBytes": "1"
      },
      "t_mapping(t_address,t_bool)": {
        "encoding": "mapping",
        "key": "t_address",
        "label": "mapping(address => bool)",
        "numberOfBytes": "32",
        "value": "t_bool"
      },
      "t_mapping(t_uint16,t_struct(Price)17293_storage)": {
        "encoding": "mapping",
        "key": "t_uint16",
        "label": "mapping(uint16 => struct ILayerZeroPriceFeed.Price)",
        "numberOfBytes": "32",
        "value": "t_struct(Price)17293_storage"
      },
      "t_struct(ArbitrumPriceExt)17303_storage": {
        "encoding": "inplace",
        "label": "struct ILayerZeroPriceFeed.ArbitrumPriceExt",
        "members": [
          {
            "astId": 17300,
            "contract": "contracts/V1Contracts/contracts/PriceFeed.sol:PriceFeed",
            "label": "gasPerL2Tx",
            "offset": 0,
            "slot": "0",
            "type": "t_uint64"
          },
          {
            "astId": 17302,
            "contract": "contracts/V1Contracts/contracts/PriceFeed.sol:PriceFeed",
            "label": "gasPerL1CallDataByte",
            "offset": 8,
            "slot": "0",
            "type": "t_uint32"
          }
        ],
        "numberOfBytes": "32"
      },
      "t_struct(Price)17293_storage": {
        "encoding": "inplace",
        "label": "struct ILayerZeroPriceFeed.Price",
        "members": [
          {
            "astId": 17288,
            "contract": "contracts/V1Contracts/contracts/PriceFeed.sol:PriceFeed",
            "label": "priceRatio",
            "offset": 0,
            "slot": "0",
            "type": "t_uint128"
          },
          {
            "astId": 17290,
            "contract": "contracts/V1Contracts/contracts/PriceFeed.sol:PriceFeed",
            "label": "gasPriceInUnit",
            "offset": 16,
            "slot": "0",
            "type": "t_uint64"
          },
          {
            "astId": 17292,
            "contract": "contracts/V1Contracts/contracts/PriceFeed.sol:PriceFeed",
            "label": "gasPerByte",
            "offset": 24,
            "slot": "0",
            "type": "t_uint32"
          }
        ],
        "numberOfBytes": "32"
      },
      "t_uint128": {
        "encoding": "inplace",
        "label": "uint128",
        "numberOfBytes": "16"
      },
      "t_uint16": {
        "encoding": "inplace",
        "label": "uint16",
        "numberOfBytes": "2"
      },
      "t_uint256": {
        "encoding": "inplace",
        "label": "uint256",
        "numberOfBytes": "32"
      },
      "t_uint32": {
        "encoding": "inplace",
        "label": "uint32",
        "numberOfBytes": "4"
      },
      "t_uint64": {
        "encoding": "inplace",
        "label": "uint64",
        "numberOfBytes": "8"
      }
    }
  }
}