{
  "address": "0xE8aB326d283a0D245FF5b05E950dE5CFfAab99B4",
  "abi": [
    {
      "anonymous": false,
      "inputs": [
        {
          "indexed": false,
          "internalType": "address",
          "name": "addr",
          "type": "address"
        },
        {
          "indexed": false,
          "internalType": "bool",
          "name": "approved",
          "type": "bool"
        }
      ],
      "name": "ApproveAddress",
      "type": "event"
    },
    {
      "anonymous": false,
      "inputs": [
        {
          "indexed": false,
          "internalType": "uint256",
          "name": "totalFee",
          "type": "uint256"
        }
      ],
      "name": "AssignJob",
      "type": "event"
    },
    {
      "anonymous": false,
      "inputs": [
        {
          "indexed": false,
          "internalType": "uint16",
          "name": "dstChain",
          "type": "uint16"
        },
        {
          "indexed": false,
          "internalType": "uint64",
          "name": "capacity",
          "type": "uint64"
        },
        {
          "indexed": false,
          "internalType": "uint64",
          "name": "rate",
          "type": "uint64"
        }
      ],
      "name": "DstRateLimiterSet",
      "type": "event"
    },
    {
      "anonymous": false,
      "inputs": [
        {
          "indexed": true,
          "internalType": "address",
          "name": "previousOwner",
          "type": "address"
        },
        {
          "indexed": true,
          "internalType": "address",
          "name": "newOwner",
          "type": "address"
        }
      ],
      "name": "OwnershipTransferred",
      "type": "event"
    },
    {
      "anonymous": false,
      "inputs": [
        {
          "indexed": false,
          "internalType": "uint64",
          "name": "capacity",
          "type": "uint64"
        },
        {
          "indexed": false,
          "internalType": "uint64",
          "name": "rate",
          "type": "uint64"
        }
      ],
      "name": "RateLimiterSet",
      "type": "event"
    },
    {
      "anonymous": false,
      "inputs": [
        {
          "indexed": false,
          "internalType": "uint16",
          "name": "chainId",
          "type": "uint16"
        },
        {
          "indexed": false,
          "internalType": "uint16",
          "name": "outboundProofType",
          "type": "uint16"
        },
        {
          "indexed": false,
          "internalType": "uint128",
          "name": "dstNativeAmtCap",
          "type": "uint128"
        },
        {
          "indexed": false,
          "internalType": "uint64",
          "name": "baseGas",
          "type": "uint64"
        },
        {
          "indexed": false,
          "internalType": "uint64",
          "name": "gasPerByte",
          "type": "uint64"
        }
      ],
      "name": "SetDstConfig",
      "type": "event"
    },
    {
      "anonymous": false,
      "inputs": [
        {
          "indexed": false,
          "internalType": "uint16",
          "name": "chainId",
          "type": "uint16"
        },
        {
          "indexed": false,
          "internalType": "uint128",
          "name": "dstPriceRatio",
          "type": "uint128"
        },
        {
          "indexed": false,
          "internalType": "uint128",
          "name": "dstGasPriceInWei",
          "type": "uint128"
        }
      ],
      "name": "SetDstPrice",
      "type": "event"
    },
    {
      "anonymous": false,
      "inputs": [
        {
          "indexed": false,
          "internalType": "address",
          "name": "priceConfigUpdater",
          "type": "address"
        },
        {
          "indexed": false,
          "internalType": "bool",
          "name": "allow",
          "type": "bool"
        }
      ],
      "name": "SetPriceConfigUpdater",
      "type": "event"
    },
    {
      "anonymous": false,
      "inputs": [
        {
          "indexed": true,
          "internalType": "address",
          "name": "to",
          "type": "address"
        },
        {
          "indexed": true,
          "internalType": "uint256",
          "name": "quantity",
          "type": "uint256"
        }
      ],
      "name": "ValueTransferFailed",
      "type": "event"
    },
    {
      "anonymous": false,
      "inputs": [
        {
          "indexed": false,
          "internalType": "address",
          "name": "to",
          "type": "address"
        },
        {
          "indexed": false,
          "internalType": "uint256",
          "name": "amount",
          "type": "uint256"
        }
      ],
      "name": "Withdraw",
      "type": "event"
    },
    {
      "inputs": [],
      "name": "AIRDROP_GAS_LIMIT",
      "outputs": [
        {
          "internalType": "uint256",
          "name": "",
          "type": "uint256"
        }
      ],
      "stateMutability": "view",
      "type": "function"
    },
    {
      "inputs": [
        {
          "internalType": "address",
          "name": "",
          "type": "address"
        }
      ],
      "name": "approvedAddresses",
      "outputs": [
        {
          "internalType": "bool",
          "name": "",
          "type": "bool"
        }
      ],
      "stateMutability": "view",
      "type": "function"
    },
    {
      "inputs": [
        {
          "internalType": "uint16",
          "name": "_dstChainId",
          "type": "uint16"
        },
        {
          "internalType": "uint16",
          "name": "_outboundProofType",
          "type": "uint16"
        },
        {
          "internalType": "address",
          "name": "_userApplication",
          "type": "address"
        },
        {
          "internalType": "uint256",
          "name": "_payloadSize",
          "type": "uint256"
        },
        {
          "internalType": "bytes",
          "name": "_adapterParams",
          "type": "bytes"
        }
      ],
      "name": "assignJob",
      "outputs": [
        {
          "internalType": "uint256",
          "name": "fee",
          "type": "uint256"
        }
      ],
      "stateMutability": "nonpayable",
      "type": "function"
    },
    {
      "inputs": [
        {
          "internalType": "uint16",
          "name": "_dstChainId",
          "type": "uint16"
        },
        {
          "internalType": "uint64",
          "name": "_capacity",
          "type": "uint64"
        },
        {
          "internalType": "uint64",
          "name": "_rate",
          "type": "uint64"
        }
      ],
      "name": "configRateLimiter",
      "outputs": [],
      "stateMutability": "nonpayable",
      "type": "function"
    },
    {
      "inputs": [
        {
          "internalType": "uint16",
          "name": "",
          "type": "uint16"
        },
        {
          "internalType": "uint16",
          "name": "",
          "type": "uint16"
        }
      ],
      "name": "dstConfigLookup",
      "outputs": [
        {
          "internalType": "uint128",
          "name": "dstNativeAmtCap",
          "type": "uint128"
        },
        {
          "internalType": "uint64",
          "name": "baseGas",
          "type": "uint64"
        },
        {
          "internalType": "uint64",
          "name": "gasPerByte",
          "type": "uint64"
        }
      ],
      "stateMutability": "view",
      "type": "function"
    },
    {
      "inputs": [
        {
          "internalType": "uint16",
          "name": "",
          "type": "uint16"
        }
      ],
      "name": "dstFloorMarginsUSD",
      "outputs": [
        {
          "internalType": "uint128",
          "name": "",
          "type": "uint128"
        }
      ],
      "stateMutability": "view",
      "type": "function"
    },
    {
      "inputs": [
        {
          "internalType": "uint16",
          "name": "",
          "type": "uint16"
        }
      ],
      "name": "dstMultipliers",
      "outputs": [
        {
          "internalType": "uint128",
          "name": "",
          "type": "uint128"
        }
      ],
      "stateMutability": "view",
      "type": "function"
    },
    {
      "inputs": [
        {
          "internalType": "uint16",
          "name": "_dstChainId",
          "type": "uint16"
        }
      ],
      "name": "dstPriceLookup",
      "outputs": [
        {
          "components": [
            {
              "internalType": "uint128",
              "name": "dstPriceRatio",
              "type": "uint128"
            },
            {
              "internalType": "uint128",
              "name": "dstGasPriceInWei",
              "type": "uint128"
            }
          ],
          "internalType": "struct RelayerV2.DstPrice",
          "name": "",
          "type": "tuple"
        }
      ],
      "stateMutability": "view",
      "type": "function"
    },
    {
      "inputs": [
        {
          "internalType": "uint16",
          "name": "",
          "type": "uint16"
        }
      ],
      "name": "dstPriceLookupOld",
      "outputs": [
        {
          "internalType": "uint128",
          "name": "dstPriceRatio",
          "type": "uint128"
        },
        {
          "internalType": "uint128",
          "name": "dstGasPriceInWei",
          "type": "uint128"
        }
      ],
      "stateMutability": "view",
      "type": "function"
    },
    {
      "inputs": [],
      "name": "fpBytes",
      "outputs": [
        {
          "internalType": "uint16",
          "name": "",
          "type": "uint16"
        }
      ],
      "stateMutability": "view",
      "type": "function"
    },
    {
      "inputs": [
        {
          "internalType": "uint16",
          "name": "_dstChainId",
          "type": "uint16"
        },
        {
          "internalType": "uint16",
          "name": "_outboundProofType",
          "type": "uint16"
        },
        {
          "internalType": "address",
          "name": "_userApplication",
          "type": "address"
        },
        {
          "internalType": "uint256",
          "name": "_payloadSize",
          "type": "uint256"
        },
        {
          "internalType": "bytes",
          "name": "_adapterParams",
          "type": "bytes"
        }
      ],
      "name": "getFee",
      "outputs": [
        {
          "internalType": "uint256",
          "name": "",
          "type": "uint256"
        }
      ],
      "stateMutability": "view",
      "type": "function"
    },
    {
      "inputs": [
        {
          "internalType": "address",
          "name": "_uln",
          "type": "address"
        },
        {
          "internalType": "address",
          "name": "_priceFeed",
          "type": "address"
        },
        {
          "internalType": "address",
          "name": "_stargateBridgeAddr",
          "type": "address"
        },
        {
          "internalType": "address",
          "name": "_stargateComposer",
          "type": "address"
        },
        {
          "internalType": "uint256",
          "name": "_nativeDecimalsRate",
          "type": "uint256"
        }
      ],
      "name": "initialize",
      "outputs": [],
      "stateMutability": "nonpayable",
      "type": "function"
    },
    {
      "inputs": [
        {
          "internalType": "address",
          "name": "_relayerAddress",
          "type": "address"
        }
      ],
      "name": "isApproved",
      "outputs": [
        {
          "internalType": "bool",
          "name": "",
          "type": "bool"
        }
      ],
      "stateMutability": "view",
      "type": "function"
    },
    {
      "inputs": [],
      "name": "limiter",
      "outputs": [
        {
          "internalType": "uint64",
          "name": "capacity",
          "type": "uint64"
        },
        {
          "internalType": "uint64",
          "name": "tokens",
          "type": "uint64"
        },
        {
          "internalType": "uint64",
          "name": "rate",
          "type": "uint64"
        },
        {
          "internalType": "uint64",
          "name": "lastRefillTime",
          "type": "uint64"
        }
      ],
      "stateMutability": "view",
      "type": "function"
    },
    {
      "inputs": [
        {
          "internalType": "address",
          "name": "",
          "type": "address"
        }
      ],
      "name": "limiterWhitelist",
      "outputs": [
        {
          "internalType": "bool",
          "name": "",
          "type": "bool"
        }
      ],
      "stateMutability": "view",
      "type": "function"
    },
    {
      "inputs": [
        {
          "internalType": "uint16",
          "name": "",
          "type": "uint16"
        }
      ],
      "name": "limiters",
      "outputs": [
        {
          "internalType": "uint64",
          "name": "capacity",
          "type": "uint64"
        },
        {
          "internalType": "uint64",
          "name": "tokens",
          "type": "uint64"
        },
        {
          "internalType": "uint64",
          "name": "rate",
          "type": "uint64"
        },
        {
          "internalType": "uint64",
          "name": "lastRefillTime",
          "type": "uint64"
        }
      ],
      "stateMutability": "view",
      "type": "function"
    },
    {
      "inputs": [],
      "name": "mptOverhead",
      "outputs": [
        {
          "internalType": "uint16",
          "name": "",
          "type": "uint16"
        }
      ],
      "stateMutability": "view",
      "type": "function"
    },
    {
      "inputs": [],
      "name": "multiplierBps",
      "outputs": [
        {
          "internalType": "uint128",
          "name": "",
          "type": "uint128"
        }
      ],
      "stateMutability": "view",
      "type": "function"
    },
    {
      "inputs": [],
      "name": "nativeDecimalsRate",
      "outputs": [
        {
          "internalType": "uint256",
          "name": "",
          "type": "uint256"
        }
      ],
      "stateMutability": "view",
      "type": "function"
    },
    {
      "inputs": [
        {
          "internalType": "address",
          "name": "_stargateBridgeAddr",
          "type": "address"
        },
        {
          "internalType": "address",
          "name": "_stargateComposer",
          "type": "address"
        },
        {
          "internalType": "uint256",
          "name": "_nativeDecimalsRate",
          "type": "uint256"
        }
      ],
      "name": "onUpgrade",
      "outputs": [],
      "stateMutability": "nonpayable",
      "type": "function"
    },
    {
      "inputs": [],
      "name": "owner",
      "outputs": [
        {
          "internalType": "address",
          "name": "",
          "type": "address"
        }
      ],
      "stateMutability": "view",
      "type": "function"
    },
    {
      "inputs": [],
      "name": "paused",
      "outputs": [
        {
          "internalType": "bool",
          "name": "",
          "type": "bool"
        }
      ],
      "stateMutability": "view",
      "type": "function"
    },
    {
      "inputs": [
        {
          "internalType": "address",
          "name": "",
          "type": "address"
        }
      ],
      "name": "priceConfigUpdaters",
      "outputs": [
        {
          "internalType": "bool",
          "name": "",
          "type": "bool"
        }
      ],
      "stateMutability": "view",
      "type": "function"
    },
    {
      "inputs": [],
      "name": "priceFeed",
      "outputs": [
        {
          "internalType": "contract ILayerZeroPriceFeedV2",
          "name": "",
          "type": "address"
        }
      ],
      "stateMutability": "view",
      "type": "function"
    },
    {
      "inputs": [],
      "name": "renounceOwnership",
      "outputs": [],
      "stateMutability": "nonpayable",
      "type": "function"
    },
    {
      "inputs": [
        {
          "internalType": "address",
          "name": "_relayerAddress",
          "type": "address"
        },
        {
          "internalType": "bool",
          "name": "_approve",
          "type": "bool"
        }
      ],
      "name": "setApprovedAddress",
      "outputs": [],
      "stateMutability": "nonpayable",
      "type": "function"
    },
    {
      "inputs": [
        {
          "internalType": "uint16",
          "name": "_chainId",
          "type": "uint16"
        },
        {
          "internalType": "uint16",
          "name": "_outboundProofType",
          "type": "uint16"
        },
        {
          "internalType": "uint128",
          "name": "_dstNativeAmtCap",
          "type": "uint128"
        },
        {
          "internalType": "uint64",
          "name": "_baseGas",
          "type": "uint64"
        },
        {
          "internalType": "uint64",
          "name": "_gasPerByte",
          "type": "uint64"
        }
      ],
      "name": "setDstConfig",
      "outputs": [],
      "stateMutability": "nonpayable",
      "type": "function"
    },
    {
      "inputs": [
        {
          "components": [
            {
              "internalType": "uint16",
              "name": "chainId",
              "type": "uint16"
            },
            {
              "internalType": "uint128",
              "name": "floorMargin",
              "type": "uint128"
            }
          ],
          "internalType": "struct RelayerV2.DstFloorMargin[]",
          "name": "_margins",
          "type": "tuple[]"
        }
      ],
      "name": "setDstFloorMarginsUSD",
      "outputs": [],
      "stateMutability": "nonpayable",
      "type": "function"
    },
    {
      "inputs": [
        {
          "internalType": "uint16",
          "name": "_chainId",
          "type": "uint16"
        },
        {
          "internalType": "uint128",
          "name": "_dstPriceRatio",
          "type": "uint128"
        },
        {
          "internalType": "uint128",
          "name": "_dstGasPriceInWei",
          "type": "uint128"
        }
      ],
      "name": "setDstPrice",
      "outputs": [],
      "stateMutability": "nonpayable",
      "type": "function"
    },
    {
      "inputs": [
        {
          "components": [
            {
              "internalType": "uint16",
              "name": "chainId",
              "type": "uint16"
            },
            {
              "internalType": "uint128",
              "name": "multiplier",
              "type": "uint128"
            }
          ],
          "internalType": "struct RelayerV2.DstMultiplier[]",
          "name": "_multipliers",
          "type": "tuple[]"
        }
      ],
      "name": "setDstPriceMultipliers",
      "outputs": [],
      "stateMutability": "nonpayable",
      "type": "function"
    },
    {
      "inputs": [
        {
          "internalType": "address",
          "name": "_addr",
          "type": "address"
        },
        {
          "internalType": "bool",
          "name": "_skipRateLimits",
          "type": "bool"
        }
      ],
      "name": "setLimiterWhitelist",
      "outputs": [],
      "stateMutability": "nonpayable",
      "type": "function"
    },
    {
      "inputs": [
        {
          "internalType": "bool",
          "name": "_paused",
          "type": "bool"
        }
      ],
      "name": "setPause",
      "outputs": [],
      "stateMutability": "nonpayable",
      "type": "function"
    },
    {
      "inputs": [
        {
          "internalType": "address",
          "name": "_priceConfigUpdater",
          "type": "address"
        },
        {
          "internalType": "bool",
          "name": "_allow",
          "type": "bool"
        }
      ],
      "name": "setPriceConfigUpdater",
      "outputs": [],
      "stateMutability": "nonpayable",
      "type": "function"
    },
    {
      "inputs": [
        {
          "internalType": "address",
          "name": "_priceFeed",
          "type": "address"
        }
      ],
      "name": "setPriceFeed",
      "outputs": [],
      "stateMutability": "nonpayable",
      "type": "function"
    },
    {
      "inputs": [
        {
          "internalType": "uint128",
          "name": "_multiplierBps",
          "type": "uint128"
        }
      ],
      "name": "setPriceMultiplierBps",
      "outputs": [],
      "stateMutability": "nonpayable",
      "type": "function"
    },
    {
      "inputs": [
        {
          "internalType": "address",
          "name": "_stargateAddress",
          "type": "address"
        }
      ],
      "name": "setStargateAddress",
      "outputs": [],
      "stateMutability": "nonpayable",
      "type": "function"
    },
    {
      "inputs": [],
      "name": "stargateBridgeAddr",
      "outputs": [
        {
          "internalType": "address",
          "name": "",
          "type": "address"
        }
      ],
      "stateMutability": "view",
      "type": "function"
    },
    {
      "inputs": [],
      "name": "stargateBridgeAddress",
      "outputs": [
        {
          "internalType": "address",
          "name": "",
          "type": "address"
        }
      ],
      "stateMutability": "view",
      "type": "function"
    },
    {
      "inputs": [],
      "name": "stargateComposer",
      "outputs": [
        {
          "internalType": "contract IStargateComposer",
          "name": "",
          "type": "address"
        }
      ],
      "stateMutability": "view",
      "type": "function"
    },
    {
      "inputs": [
        {
          "internalType": "address",
          "name": "newOwner",
          "type": "address"
        }
      ],
      "name": "transferOwnership",
      "outputs": [],
      "stateMutability": "nonpayable",
      "type": "function"
    },
    {
      "inputs": [],
      "name": "uln",
      "outputs": [
        {
          "internalType": "contract ILayerZeroUltraLightNodeV2",
          "name": "",
          "type": "address"
        }
      ],
      "stateMutability": "view",
      "type": "function"
    },
    {
      "inputs": [],
      "name": "validateProofBytes",
      "outputs": [
        {
          "internalType": "uint16",
          "name": "",
          "type": "uint16"
        }
      ],
      "stateMutability": "view",
      "type": "function"
    },
    {
      "inputs": [
        {
          "internalType": "uint16",
          "name": "_srcChainId",
          "type": "uint16"
        },
        {
          "internalType": "address",
          "name": "_dstAddress",
          "type": "address"
        },
        {
          "internalType": "uint256",
          "name": "_gasLimit",
          "type": "uint256"
        },
        {
          "internalType": "bytes32",
          "name": "_blockHash",
          "type": "bytes32"
        },
        {
          "internalType": "bytes32",
          "name": "_data",
          "type": "bytes32"
        },
        {
          "internalType": "bytes",
          "name": "_transactionProof",
          "type": "bytes"
        }
      ],
      "name": "validateTransactionProofV1",
      "outputs": [],
      "stateMutability": "nonpayable",
      "type": "function"
    },
    {
      "inputs": [
        {
          "internalType": "uint16",
          "name": "_srcChainId",
          "type": "uint16"
        },
        {
          "internalType": "address",
          "name": "_dstAddress",
          "type": "address"
        },
        {
          "internalType": "uint256",
          "name": "_gasLimit",
          "type": "uint256"
        },
        {
          "internalType": "bytes32",
          "name": "_blockHash",
          "type": "bytes32"
        },
        {
          "internalType": "bytes32",
          "name": "_data",
          "type": "bytes32"
        },
        {
          "internalType": "bytes",
          "name": "_transactionProof",
          "type": "bytes"
        },
        {
          "internalType": "address payable",
          "name": "_to",
          "type": "address"
        }
      ],
      "name": "validateTransactionProofV2",
      "outputs": [],
      "stateMutability": "payable",
      "type": "function"
    },
    {
      "inputs": [
        {
          "internalType": "address payable",
          "name": "_to",
          "type": "address"
        },
        {
          "internalType": "uint256",
          "name": "_amount",
          "type": "uint256"
        }
      ],
      "name": "withdrawFee",
      "outputs": [],
      "stateMutability": "nonpayable",
      "type": "function"
    },
    {
      "inputs": [
        {
          "internalType": "address",
          "name": "_token",
          "type": "address"
        },
        {
          "internalType": "address",
          "name": "_to",
          "type": "address"
        },
        {
          "internalType": "uint256",
          "name": "_amount",
          "type": "uint256"
        }
      ],
      "name": "withdrawToken",
      "outputs": [],
      "stateMutability": "nonpayable",
      "type": "function"
    }
  ],
  "transactionHash": "0xa469aed91b2690b5d829fbc8109d0b3c962ca98582f9ca370ff2d74a056751e1",
  "args": [],
  "numDeployments": 1,
  "solcInputHash": "cce07b4c973b800e43d6c9441a8b3dcf",
  "bytecode": "0x608060405234801561001057600080fd5b506001600055613781806100256000396000f3fe60806040526004361061027d5760003560e01c806374b87f671161014f578063ac353e04116100c1578063d5f8b0141161007a578063d5f8b01414610756578063efbf196a14610776578063f136a87414610796578063f2fde38b146107b6578063f7013ef6146107d6578063fd9be522146107f65761027d565b8063ac353e04146106a1578063b8f8bad4146106b6578063bedb86fb146106d6578063bf4dab51146106f6578063c03f152914610716578063c3b04e7f146107365761027d565b80638644c578116101135780638644c578146105f45780638da5cb5b1461062257806398dabd5014610637578063993d5af61461064c5780639e8c71781461066c578063ac0bfd73146106815761027d565b806374b87f671461055d578063765a8a5414610572578063801db1fe1461059f57806381ba209a146105bf5780638576db67146105d45761027d565b806355b35249116101f357806369cf4e3a116101ac57806369cf4e3a146104ac5780636c473aff146104ce578063704ed152146104e3578063715018a614610513578063724e78da14610528578063741bef1a146105485761027d565b806355b35249146103f5578063575765e2146104155780635886ea65146104355780635c975abb146104555780636348d26914610477578063673448dd1461048c5761027d565b80633352b608116102455780633352b6081461032f5780633bfb4047146103515780633f1034871461036657806343b9a0c4146103865780634c0fc8d0146103a85780634eeba250146103c85761027d565b806301e336671461028257806303343f54146102a45780630508941e146102c457806323161ff8146102d7578063252f7b011461030f575b600080fd5b34801561028e57600080fd5b506102a261029d366004612c2d565b610816565b005b3480156102b057600080fd5b506102a26102bf366004612b83565b6109c9565b6102a26102d2366004612e45565b610a27565b3480156102e357600080fd5b506102f76102f2366004612f21565b610be0565b604051610306939291906134a0565b60405180910390f35b34801561031b57600080fd5b506102a261032a366004612dc4565b610c22565b34801561033b57600080fd5b50610344610d37565b60405161030691906130e9565b34801561035d57600080fd5b50610344610d46565b34801561037257600080fd5b506102a2610381366004612fd1565b610d55565b34801561039257600080fd5b5061039b610e77565b60405161030691906135b8565b3480156103b457600080fd5b506102a26103c3366004612c6d565b610e7d565b3480156103d457600080fd5b506103e86103e3366004612daa565b610ee4565b6040516103069190613472565b34801561040157600080fd5b506103e8610410366004612daa565b610eff565b34801561042157600080fd5b506102a2610430366004612c6d565b610f1a565b34801561044157600080fd5b5061039b610450366004612f53565b610fde565b34801561046157600080fd5b5061046a611203565b6040516103069190613131565b34801561048357600080fd5b5061034461120c565b34801561049857600080fd5b5061046a6104a7366004612b83565b61121b565b3480156104b857600080fd5b506104c161123d565b60405161030691906134ca565b3480156104da57600080fd5b5061034461124e565b3480156104ef57600080fd5b506105036104fe366004612daa565b61125d565b60405161030694939291906135c1565b34801561051f57600080fd5b506102a2611297565b34801561053457600080fd5b506102a2610543366004612b83565b611343565b34801561055457600080fd5b506103446113a7565b34801561056957600080fd5b506105036113bb565b34801561057e57600080fd5b5061059261058d366004612daa565b6113e9565b604051610306919061344f565b3480156105ab57600080fd5b506102a26105ba366004612c6d565b6114ab565b3480156105cb57600080fd5b506104c1611563565b3480156105e057600080fd5b5061046a6105ef366004612b83565b611574565b34801561060057600080fd5b5061061461060f366004612daa565b611589565b604051610306929190613486565b34801561062e57600080fd5b506103446115af565b34801561064357600080fd5b506104c16115be565b34801561065857600080fd5b5061046a610667366004612b83565b6115cf565b34801561067857600080fd5b5061039b6115e4565b34801561068d57600080fd5b506102a261069c36600461303d565b6115ea565b3480156106ad57600080fd5b506103e86116b4565b3480156106c257600080fd5b506102a26106d1366004612ed9565b6116c3565b3480156106e257600080fd5b506102a26106f1366004612ce4565b6116ff565b34801561070257600080fd5b506102a2610711366004612ca5565b611774565b34801561072257600080fd5b5061039b610731366004612f53565b611857565b34801561074257600080fd5b506102a2610751366004612d8e565b6118c9565b34801561076257600080fd5b506102a2610771366004612ca5565b611927565b34801561078257600080fd5b506102a2610791366004612c2d565b611a0a565b3480156107a257600080fd5b5061046a6107b1366004612b83565b611a9e565b3480156107c257600080fd5b506102a26107d1366004612b83565b611ab3565b3480156107e257600080fd5b506102a26107f1366004612bca565b611bb6565b34801561080257600080fd5b506102a2610811366004612b9f565b611d81565b3361081f6115af565b6001600160a01b03161461085b576108363361121b565b61085b5760405162461bcd60e51b81526004016108529061313c565b60405180910390fd5b6001600160a01b03831661090d57478082111561088a5760405162461bcd60e51b815260040161085290613254565b6000836001600160a01b0316836040516108a3906130e6565b60006040518083038185875af1925050503d80600081146108e0576040519150601f19603f3d011682016040523d82523d6000602084013e6108e5565b606091505b50509050806109065760405162461bcd60e51b8152600401610852906131e6565b50506109c4565b6040516370a0823160e01b81526000906001600160a01b038516906370a082319061093c9030906004016130e9565b60206040518083038186803b15801561095457600080fd5b505afa158015610968573d6000803e3d6000fd5b505050506040513d601f19601f8201168201806040525081019061098c919061307a565b9050808211156109ae5760405162461bcd60e51b8152600401610852906132cf565b6109c26001600160a01b0385168484611ec0565b505b505050565b336109d26115af565b6001600160a01b031614610a05576109e93361121b565b610a055760405162461bcd60e51b81526004016108529061313c565b606780546001600160a01b0319166001600160a01b0392909216919091179055565b33610a306115af565b6001600160a01b031614610a6357610a473361121b565b610a635760405162461bcd60e51b81526004016108529061313c565b60026000541415610abb576040805162461bcd60e51b815260206004820152601f60248201527f5265656e7472616e637947756172643a207265656e7472616e742063616c6c00604482015290519081900360640190fd5b60026000819055506000816001600160a01b031661271034604051610adf906130e6565b600060405180830381858888f193505050503d8060008114610b1d576040519150601f19603f3d011682016040523d82523d6000602084013e610b22565b606091505b5050905080610b625760405134906001600160a01b038416907f2c7a964ca3de5ec1d42d9822f9bbd0eb142a59cc9f855e9d93813b773192c7a390600090a35b60665460405163987fa2d560e01b81526001600160a01b039091169063987fa2d590610b9e908c908c908c908c908c908c908c906004016134d9565b600060405180830381600087803b158015610bb857600080fd5b505af1158015610bcc573d6000803e3d6000fd5b505060016000555050505050505050505050565b60696020908152600092835260408084209091529082529020546001600160801b038116906001600160401b03600160801b8204811691600160c01b90041683565b33610c2b6115af565b6001600160a01b031614610c5e57610c423361121b565b610c5e5760405162461bcd60e51b81526004016108529061313c565b60026000541415610cb6576040805162461bcd60e51b815260206004820152601f60248201527f5265656e7472616e637947756172643a207265656e7472616e742063616c6c00604482015290519081900360640190fd5b600260005560665460405163987fa2d560e01b81526001600160a01b039091169063987fa2d590610cf7908a908a908a908a908a908a908a906004016134d9565b600060405180830381600087803b158015610d1157600080fd5b505af1158015610d25573d6000803e3d6000fd5b50506001600055505050505050505050565b6070546001600160a01b031681565b6071546001600160a01b031681565b33610d5e6115af565b6001600160a01b031614610d9157610d753361121b565b610d915760405162461bcd60e51b81526004016108529061313c565b604080516060810182526001600160801b0385811682526001600160401b03858116602080850191825286831685870190815261ffff8c8116600090815260698452888120918d16815292529086902094518554925191516001600160801b031990931694169390931767ffffffffffffffff60801b1916600160801b93831693909302929092176001600160c01b0316600160c01b9290911691909102179055517fd053e021dda81c7c2794ff89e320caea5379962d49ed383a3bd0a54ffc4b932f90610e689087908790879087908790613537565b60405180910390a15050505050565b61271081565b33610e866115af565b6001600160a01b031614610eb957610e9d3361121b565b610eb95760405162461bcd60e51b81526004016108529061313c565b6001600160a01b03919091166000908152607460205260409020805460ff1916911515919091179055565b606d602052600090815260409020546001600160801b031681565b606e602052600090815260409020546001600160801b031681565b610f22611f12565b6001600160a01b0316610f336115af565b6001600160a01b031614610f7c576040805162461bcd60e51b815260206004820181905260248201526000805160206136d5833981519152604482015290519081900360640190fd5b6001600160a01b0382166000908152606a602052604090819020805460ff1916831515179055517fb10786d0bfa68fb1aa29552d9203e5f545f7c073ff0784da1de1d800986f102390610fd29084908490613116565b60405180910390a15050565b60006127108761ffff16106110465761ffff871660009081526075602090815260408083206001600160a01b038916845260749092529091205460ff16158015611031575080546001600160401b031615155b156110445761104281612710611f16565b505b505b6066546001600160a01b031633146110705760405162461bcd60e51b815260040161085290613315565b6127108411156110925760405162461bcd60e51b8152600401610852906133b3565b6071546001600160a01b038681169116141561117d5760008461022014806110bb575084610140145b806110c7575084610120145b806110d257508460a0145b90508061117b57607060009054906101000a90046001600160a01b03166001600160a01b0316634b60b4256040518163ffffffff1660e01b815260040160206040518083038186803b15801561112757600080fd5b505afa15801561113b573d6000803e3d6000fd5b505050506040513d601f19601f8201168201806040525081019061115f9190612d00565b61117b5760405162461bcd60e51b815260040161085290613343565b505b6111c08787878787878080601f016020809104026020016040519081016040528093929190818152602001838380828437600092019190915250611fab92505050565b90507fdf21c415b78ed2552cc9971249e32a053abce6087a0ae0fbf3f78db5174a3493816040516111f191906135b8565b60405180910390a19695505050505050565b606b5460ff1681565b6067546001600160a01b031681565b6001600160a01b0381166000908152606a602052604090205460ff165b919050565b606c54600160901b900461ffff1681565b6066546001600160a01b031681565b6075602052600090815260409020546001600160401b0380821691600160401b8104821691600160801b8204811691600160c01b90041684565b61129f611f12565b6001600160a01b03166112b06115af565b6001600160a01b0316146112f9576040805162461bcd60e51b815260206004820181905260248201526000805160206136d5833981519152604482015290519081900360640190fd5b6034546040516000916001600160a01b0316907f8be0079c531659141344cd1fd0a4f28419497f9722a3daafe3b4186f6b6457e0908390a3603480546001600160a01b0319169055565b3361134c6115af565b6001600160a01b03161461137f576113633361121b565b61137f5760405162461bcd60e51b81526004016108529061313c565b606b80546001600160a01b0390921661010002610100600160a81b0319909216919091179055565b606b5461010090046001600160a01b031681565b6073546001600160401b0380821691600160401b8104821691600160801b8204811691600160c01b90041684565b6113f1612ad2565b606b54604051636d13331d60e11b815260009161010090046001600160a01b03169063da26663a906114279086906004016134ca565b60606040518083038186803b15801561143f57600080fd5b505afa158015611453573d6000803e3d6000fd5b505050506040513d601f19601f820116820180604052508101906114779190612d1c565b6040805180820190915281516001600160801b031681526020918201516001600160401b0316918101919091529392505050565b6114b3611f12565b6001600160a01b03166114c46115af565b6001600160a01b03161461150d576040805162461bcd60e51b815260206004820181905260248201526000805160206136d5833981519152604482015290519081900360640190fd5b6001600160a01b0382166000908152606f602052604090819020805460ff1916831515179055517fde6b048d6c4e63d85fde37ccbe03f4380c6d12cb2a1e9ce9268bbf47a1ef687890610fd29084908490613116565b606c54600160a01b900461ffff1681565b606f6020526000908152604090205460ff1681565b6068602052600090815260409020546001600160801b0380821691600160801b90041682565b6034546001600160a01b031690565b606c54600160801b900461ffff1681565b60746020526000908152604090205460ff1681565b60725481565b6115f2611f12565b6001600160a01b03166116036115af565b6001600160a01b03161461164c576040805162461bcd60e51b815260206004820181905260248201526000805160206136d5833981519152604482015290519081900360640190fd5b61ffff831660009081526075602052604090206116698184612267565b61167381836122b6565b7fef8c12209e343995996ccec80a634ec26a6a9def842e54066ef89fef385280388484846040516116a693929190613593565b60405180910390a150505050565b606c546001600160801b031681565b336116cc6115af565b6001600160a01b0316146109c4576116e33361121b565b6109c45760405162461bcd60e51b81526004016108529061313c565b611707611f12565b6001600160a01b03166117186115af565b6001600160a01b031614611761576040805162461bcd60e51b815260206004820181905260248201526000805160206136d5833981519152604482015290519081900360640190fd5b606b805460ff1916911515919091179055565b3361177d6115af565b6001600160a01b0316141580156117a45750336000908152606a602052604090205460ff16155b156117d857336000908152606f602052604090205460ff166117d85760405162461bcd60e51b8152600401610852906132a1565b60005b818110156109c457368383838181106117f057fe5b905060400201905080602001602081019061180b9190612d8e565b606d600061181c6020850185612daa565b61ffff168152602081019190915260400160002080546001600160801b0319166001600160801b0392909216919091179055506001016117db565b600061271084111561187b5760405162461bcd60e51b81526004016108529061316b565b6118be8787878787878080601f016020809104026020016040519081016040528093929190818152602001838380828437600092019190915250611fab92505050565b979650505050505050565b336118d26115af565b6001600160a01b031614611905576118e93361121b565b6119055760405162461bcd60e51b81526004016108529061313c565b606c80546001600160801b0319166001600160801b0392909216919091179055565b336119306115af565b6001600160a01b0316141580156119575750336000908152606a602052604090205460ff16155b1561198b57336000908152606f602052604090205460ff1661198b5760405162461bcd60e51b8152600401610852906132a1565b60005b818110156109c457368383838181106119a357fe5b90506040020190508060200160208101906119be9190612d8e565b606e60006119cf6020850185612daa565b61ffff168152602081019190915260400160002080546001600160801b0319166001600160801b03929092169190911790555060010161198e565b6000611a146122e9565b90506001600160a01b038116611a53576001600160a01b037fb53127684a568b3173ae13b9f8a6016e243e63b6e8ee1178d6a717850b5d610355611a68565b336001600160a01b03821614611a6857600080fd5b50607180546001600160a01b039485166001600160a01b0319918216179091556070805493909416921691909117909155607255565b606a6020526000908152604090205460ff1681565b611abb611f12565b6001600160a01b0316611acc6115af565b6001600160a01b031614611b15576040805162461bcd60e51b815260206004820181905260248201526000805160206136d5833981519152604482015290519081900360640190fd5b6001600160a01b038116611b5a5760405162461bcd60e51b815260040180806020018281038252602681526020018061363a6026913960400191505060405180910390fd5b6034546040516001600160a01b038084169216907f8be0079c531659141344cd1fd0a4f28419497f9722a3daafe3b4186f6b6457e090600090a3603480546001600160a01b0319166001600160a01b0392909216919091179055565b6000611bc06122e9565b90506001600160a01b038116611bff576001600160a01b037fb53127684a568b3173ae13b9f8a6016e243e63b6e8ee1178d6a717850b5d610355611c14565b336001600160a01b03821614611c1457600080fd5b600154610100900460ff1680611c2d5750611c2d61230e565b80611c3b575060015460ff16155b611c765760405162461bcd60e51b815260040180806020018281038252602e815260200180613686602e913960400191505060405180910390fd5b600154610100900460ff16158015611ca0576001805460ff1961ff00199091166101001716811790555b611ca861231f565b606680546001600160a01b0319166001600160a01b038916179055611cce306001610f1a565b606c8054606b8054610100600160a81b0319166101006001600160a01b038b81169190910291909117909155612ee06001600160801b03199092169190911761ffff60801b1916602960821b1761ffff60901b1916600560951b1761ffff60a01b1916607d60a21b17909155607180546001600160a01b0319908116888416179091556070805490911691861691909117905560728390558015611d78576001805461ff00191690555b50505050505050565b33611d8a6115af565b6001600160a01b031614611dbd57611da13361121b565b611dbd5760405162461bcd60e51b81526004016108529061313c565b6066546040516334a095fd60e11b81526000916001600160a01b0316906369412bfa90611dee9030906004016130e9565b60206040518083038186803b158015611e0657600080fd5b505afa158015611e1a573d6000803e3d6000fd5b505050506040513d601f19601f82011682018060405250810190611e3e919061307a565b905080821115611e605760405162461bcd60e51b8152600401610852906132cf565b6066546040516303d8c5ef60e11b81526001600160a01b03909116906307b18bde90611e9290869086906004016130fd565b600060405180830381600087803b158015611eac57600080fd5b505af1158015611d78573d6000803e3d6000fd5b604080516001600160a01b038416602482015260448082018490528251808303909101815260649091019091526020810180516001600160e01b031663a9059cbb60e01b1790526109c49084906123d0565b3390565b6000611f23836000612481565b82546001600160401b03600160401b9091048116908316811015611f785760405162461bcd60e51b815260040180806020018281038252602d8152602001806136f5602d913960400191505060405180910390fd5b83546001600160401b0391849003918216600160401b0267ffffffffffffffff60401b1990911617845590505b92915050565b606b5460009060ff1615611fd15760405162461bcd60e51b81526004016108529061338c565b815160221480611fe2575060428251115b611ffe5760405162461bcd60e51b8152600401610852906131a0565b60028201516022830151806120255760405162461bcd60e51b8152600401610852906133ea565b8161ffff166001148061203c57508161ffff166002145b6120585760405162461bcd60e51b81526004016108529061321d565b61ffff88811660009081526069602090815260408083208b85168452909152812091841660021461209657606c54600160801b900461ffff166120af565b606c546120af90600160801b900461ffff166020612551565b905060008961ffff166002146120dd57606c546120d8908990600160a01b900461ffff16612551565b6120f6565b606c546120f6908990600160901b900461ffff16612551565b606b549091508b9060009081908190819061010090046001600160a01b03166388a4124c866121258a8a612551565b8b5461214190600160801b90046001600160401b03168e612551565b6040518463ffffffff1660e01b815260040161215f93929190613577565b60806040518083038186803b15801561217757600080fd5b505afa15801561218b573d6000803e3d6000fd5b505050506040513d601f19601f820116820180604052508101906121af9190613092565b935093509350935060008a61ffff16600214156121f6575060428c015188546001600160801b03168111156121f65760405162461bcd60e51b815260040161085290613418565b6000811561223b57606c54612238906127109061222c906001600160801b03908116906122329089811690849089908d166125b2565b9061260b565b906125b2565b90505b6122508161224a898987612672565b90612551565b9c5050505050505050505050505095945050505050565b815467ffffffffffffffff19166001600160401b0391821690811767ffffffffffffffff60401b1916600160401b91909102176001600160c01b0316600160c01b429290921691909102179055565b6122c1826000612481565b81546001600160401b03909116600160801b0267ffffffffffffffff60801b19909116179055565b7fb53127684a568b3173ae13b9f8a6016e243e63b6e8ee1178d6a717850b5d61035490565b60006123193061272f565b15905090565b600154610100900460ff1680612338575061233861230e565b80612346575060015460ff16155b6123815760405162461bcd60e51b815260040180806020018281038252602e815260200180613686602e913960400191505060405180910390fd5b600154610100900460ff161580156123ab576001805460ff1961ff00199091166101001716811790555b6123b3612735565b6123bb6127d4565b80156123cd576001805461ff00191690555b50565b6000612425826040518060400160405280602081526020017f5361666545524332303a206c6f772d6c6576656c2063616c6c206661696c6564815250856001600160a01b03166128cc9092919063ffffffff16565b8051909150156109c45780806020019051602081101561244457600080fd5b50516109c45760405162461bcd60e51b815260040180806020018281038252602a815260200180613722602a913960400191505060405180910390fd5b81546001600160401b03808316914291600160c01b909104811690821611156124cc578354600160801b81046001600160401b03908116600160c01b90920481168303160291909101905b811561252b5783546001600160401b03600160401b8204811693909301921682116124f75781612503565b83546001600160401b03165b84546001600160401b0391909116600160401b0267ffffffffffffffff60401b199091161784555b83546001600160401b03909116600160c01b026001600160c01b03909116179092555050565b6000828201838110156125ab576040805162461bcd60e51b815260206004820152601b60248201527f536166654d6174683a206164646974696f6e206f766572666c6f770000000000604482015290519081900360640190fd5b9392505050565b6000826125c157506000611fa5565b828202828482816125ce57fe5b04146125ab5760405162461bcd60e51b81526004018080602001828103825260218152602001806136b46021913960400191505060405180910390fd5b6000808211612661576040805162461bcd60e51b815260206004820152601a60248201527f536166654d6174683a206469766973696f6e206279207a65726f000000000000604482015290519081900360640190fd5b81838161266a57fe5b049392505050565b61ffff83166000908152606d60205260408120546001600160801b0316806126a25750606c546001600160801b03165b60006126bd61271061222c876001600160801b0386166125b2565b90506001600160801b0384166126d65791506125ab9050565b60725461ffff87166000908152606e602052604081205490916127169161270f916001600160801b03808a169261222c929116906125b2565b8790612551565b905081811161272557816118be565b9695505050505050565b3b151590565b600154610100900460ff168061274e575061274e61230e565b8061275c575060015460ff16155b6127975760405162461bcd60e51b815260040180806020018281038252602e815260200180613686602e913960400191505060405180910390fd5b600154610100900460ff161580156123bb576001805460ff1961ff001990911661010017168117905580156123cd576001805461ff001916905550565b600154610100900460ff16806127ed57506127ed61230e565b806127fb575060015460ff16155b6128365760405162461bcd60e51b815260040180806020018281038252602e815260200180613686602e913960400191505060405180910390fd5b600154610100900460ff16158015612860576001805460ff1961ff00199091166101001716811790555b600061286a611f12565b603480546001600160a01b0319166001600160a01b038316908117909155604051919250906000907f8be0079c531659141344cd1fd0a4f28419497f9722a3daafe3b4186f6b6457e0908290a35080156123cd576001805461ff001916905550565b60606128db84846000856128e3565b949350505050565b6060824710156129245760405162461bcd60e51b81526004018080602001828103825260268152602001806136606026913960400191505060405180910390fd5b61292d8561272f565b61297e576040805162461bcd60e51b815260206004820152601d60248201527f416464726573733a2063616c6c20746f206e6f6e2d636f6e7472616374000000604482015290519081900360640190fd5b600080866001600160a01b031685876040518082805190602001908083835b602083106129bc5780518252601f19909201916020918201910161299d565b6001836020036101000a03801982511681845116808217855250505050505090500191505060006040518083038185875af1925050503d8060008114612a1e576040519150601f19603f3d011682016040523d82523d6000602084013e612a23565b606091505b50915091506118be82828660608315612a3d5750816125ab565b825115612a4d5782518084602001fd5b8160405162461bcd60e51b81526004018080602001828103825283818151815260200191508051906020019080838360005b83811015612a97578181015183820152602001612a7f565b50505050905090810190601f168015612ac45780820380516001836020036101000a031916815260200191505b509250505060405180910390fd5b604080518082019091526000808252602082015290565b60008083601f840112612afa578182fd5b5081356001600160401b03811115612b10578182fd5b602083019150836020604083028501011115612b2b57600080fd5b9250929050565b60008083601f840112612b43578182fd5b5081356001600160401b03811115612b59578182fd5b602083019150836020828501011115612b2b57600080fd5b803561ffff8116811461123857600080fd5b600060208284031215612b94578081fd5b81356125ab816135ec565b60008060408385031215612bb1578081fd5b8235612bbc816135ec565b946020939093013593505050565b600080600080600060a08688031215612be1578081fd5b8535612bec816135ec565b94506020860135612bfc816135ec565b93506040860135612c0c816135ec565b92506060860135612c1c816135ec565b949793965091946080013592915050565b600080600060608486031215612c41578283fd5b8335612c4c816135ec565b92506020840135612c5c816135ec565b929592945050506040919091013590565b60008060408385031215612c7f578182fd5b8235612c8a816135ec565b91506020830135612c9a81613601565b809150509250929050565b60008060208385031215612cb7578182fd5b82356001600160401b03811115612ccc578283fd5b612cd885828601612ae9565b90969095509350505050565b600060208284031215612cf5578081fd5b81356125ab81613601565b600060208284031215612d11578081fd5b81516125ab81613601565b600060608284031215612d2d578081fd5b604051606081018181106001600160401b0382111715612d4957fe5b6040528251612d578161360f565b81526020830151612d6781613624565b6020820152604083015163ffffffff81168114612d82578283fd5b60408201529392505050565b600060208284031215612d9f578081fd5b81356125ab8161360f565b600060208284031215612dbb578081fd5b6125ab82612b71565b600080600080600080600060c0888a031215612dde578485fd5b612de788612b71565b96506020880135612df7816135ec565b955060408801359450606088013593506080880135925060a08801356001600160401b03811115612e26578283fd5b612e328a828b01612b32565b989b979a50959850939692959293505050565b60008060008060008060008060e0898b031215612e60578182fd5b612e6989612b71565b97506020890135612e79816135ec565b965060408901359550606089013594506080890135935060a08901356001600160401b03811115612ea8578283fd5b612eb48b828c01612b32565b90945092505060c0890135612ec8816135ec565b809150509295985092959890939650565b600080600060608486031215612eed578081fd5b612ef684612b71565b92506020840135612f068161360f565b91506040840135612f168161360f565b809150509250925092565b60008060408385031215612f33578182fd5b612f3c83612b71565b9150612f4a60208401612b71565b90509250929050565b60008060008060008060a08789031215612f6b578384fd5b612f7487612b71565b9550612f8260208801612b71565b94506040870135612f92816135ec565b93506060870135925060808701356001600160401b03811115612fb3578283fd5b612fbf89828a01612b32565b979a9699509497509295939492505050565b600080600080600060a08688031215612fe8578283fd5b612ff186612b71565b9450612fff60208701612b71565b9350604086013561300f8161360f565b9250606086013561301f81613624565b9150608086013561302f81613624565b809150509295509295909350565b600080600060608486031215613051578081fd5b61305a84612b71565b9250602084013561306a81613624565b91506040840135612f1681613624565b60006020828403121561308b578081fd5b5051919050565b600080600080608085870312156130a7578182fd5b8451935060208501516130b98161360f565b60408601519093506130ca8161360f565b60608601519092506130db8161360f565b939692955090935050565b90565b6001600160a01b0391909116815260200190565b6001600160a01b03929092168252602082015260400190565b6001600160a01b039290921682521515602082015260400190565b901515815260200190565b60208082526015908201527414995b185e595c8e881b9bdd08185c1c1c9bdd9959605a1b604082015260600190565b6020808252818101527f52656c617965723a205f7061796c6f616453697a6520746f6f6f6f6f20626967604082015260600190565b60208082526026908201527f52656c617965723a2077726f6e67205f61646170746572506172616d65746572604082015265732073697a6560d01b606082015260800190565b6020808252601d908201527f52656c617965723a206661696c656420746f2073656e64206574686572000000604082015260600190565b6020808252601b908201527f52656c617965723a20756e737570706f72746564207478547970650000000000604082015260600190565b6020808252602d908201527f52656c617965723a206e6f7420656e6f756768206e617469766520666565206660408201526c1bdc881dda5d1a191c985dd85b609a1b606082015260800190565b6020808252601490820152732932b630bcb2b91d103737ba103ab83230ba32b960611b604082015260600190565b60208082526026908201527f52656c617965723a206e6f7420656e6f7567682066656520666f722077697468604082015265191c985dd85b60d21b606082015260800190565b6020808252601490820152732932b630bcb2b91d1034b73b30b634b2103ab63760611b604082015260600190565b60208082526029908201527f52656c617965723a20737461726761746520636f6d706f736572206973206e6f604082015268742073656e64696e6760b81b606082015260800190565b6020808252600d908201526c10591b5a5b8e881c185d5cd959609a1b604082015260600190565b6020808252601d908201527f52656c617965723a205f7061796c6f616453697a65203e203130303030000000604082015260600190565b60208082526014908201527352656c617965723a2067617320746f6f206c6f7760601b604082015260600190565b6020808252601f908201527f52656c617965723a206473744e6174697665416d7420746f6f206c6172676500604082015260600190565b81516001600160801b039081168252602092830151169181019190915260400190565b6001600160801b0391909116815260200190565b6001600160801b0392831681529116602082015260400190565b6001600160801b039390931683526001600160401b03918216602084015216604082015260600190565b61ffff91909116815260200190565b600061ffff8916825260018060a01b038816602083015286604083015285606083015284608083015260c060a08301528260c0830152828460e084013781830160e090810191909152601f909201601f191601019695505050505050565b61ffff95861681529390941660208401526001600160801b039190911660408301526001600160401b039081166060830152909116608082015260a00190565b61ffff9390931683526020830191909152604082015260600190565b61ffff9390931683526001600160401b03918216602084015216604082015260600190565b90815260200190565b6001600160401b03948516815292841660208401529083166040830152909116606082015260800190565b6001600160a01b03811681146123cd57600080fd5b80151581146123cd57600080fd5b6001600160801b03811681146123cd57600080fd5b6001600160401b03811681146123cd57600080fdfe4f776e61626c653a206e6577206f776e657220697320746865207a65726f2061646472657373416464726573733a20696e73756666696369656e742062616c616e636520666f722063616c6c496e697469616c697a61626c653a20636f6e747261637420697320616c726561647920696e697469616c697a6564536166654d6174683a206d756c7469706c69636174696f6e206f766572666c6f774f776e61626c653a2063616c6c6572206973206e6f7420746865206f776e657252656c6179657256323a206f7574206f6620636f756e74657273202d2074727920616761696e206c61746572215361666545524332303a204552433230206f7065726174696f6e20646964206e6f742073756363656564a2646970667358221220533f346d3eb4e24e2ba040fc8d2c54d17e333f35750add93717712a9b4bf843864736f6c63430007060033",
  "devdoc": {
    "kind": "dev",
    "methods": {
      "owner()": {
        "details": "Returns the address of the current owner."
      },
      "renounceOwnership()": {
        "details": "Leaves the contract without owner. It will not be possible to call `onlyOwner` functions anymore. Can only be called by the current owner. NOTE: Renouncing ownership will leave the contract without an owner, thereby removing any functionality that is only available to the owner."
      },
      "transferOwnership(address)": {
        "details": "Transfers ownership of the contract to a new account (`newOwner`). Can only be called by the current owner."
      }
    },
    "version": 1
  },
  "userdoc": {
    "kind": "user",
    "methods": {},
    "version": 1
  },
  "storageLayout": {
    "storage": [
      {
        "astId": 2233,
        "contract": "contracts/V1Contracts/contracts/RelayerV2.sol:RelayerV2",
        "label": "_status",
        "offset": 0,
        "slot": "0",
        "type": "t_uint256"
      },
      {
        "astId": 137,
        "contract": "contracts/V1Contracts/contracts/RelayerV2.sol:RelayerV2",
        "label": "_initialized",
        "offset": 0,
        "slot": "1",
        "type": "t_bool"
      },
      {
        "astId": 140,
        "contract": "contracts/V1Contracts/contracts/RelayerV2.sol:RelayerV2",
        "label": "_initializing",
        "offset": 1,
        "slot": "1",
        "type": "t_bool"
      },
      {
        "astId": 484,
        "contract": "contracts/V1Contracts/contracts/RelayerV2.sol:RelayerV2",
        "label": "__gap",
        "offset": 0,
        "slot": "2",
        "type": "t_array(t_uint256)50_storage"
      },
      {
        "astId": 10,
        "contract": "contracts/V1Contracts/contracts/RelayerV2.sol:RelayerV2",
        "label": "_owner",
        "offset": 0,
        "slot": "52",
        "type": "t_address"
      },
      {
        "astId": 129,
        "contract": "contracts/V1Contracts/contracts/RelayerV2.sol:RelayerV2",
        "label": "__gap",
        "offset": 0,
        "slot": "53",
        "type": "t_array(t_uint256)49_storage"
      },
      {
        "astId": 6453,
        "contract": "contracts/V1Contracts/contracts/RelayerV2.sol:RelayerV2",
        "label": "uln",
        "offset": 0,
        "slot": "102",
        "type": "t_contract(ILayerZeroUltraLightNodeV2)17790"
      },
      {
        "astId": 6455,
        "contract": "contracts/V1Contracts/contracts/RelayerV2.sol:RelayerV2",
        "label": "stargateBridgeAddress",
        "offset": 0,
        "slot": "103",
        "type": "t_address"
      },
      {
        "astId": 6484,
        "contract": "contracts/V1Contracts/contracts/RelayerV2.sol:RelayerV2",
        "label": "dstPriceLookupOld",
        "offset": 0,
        "slot": "104",
        "type": "t_mapping(t_uint16,t_struct(DstPrice)6463_storage)"
      },
      {
        "astId": 6490,
        "contract": "contracts/V1Contracts/contracts/RelayerV2.sol:RelayerV2",
        "label": "dstConfigLookup",
        "offset": 0,
        "slot": "105",
        "type": "t_mapping(t_uint16,t_mapping(t_uint16,t_struct(DstConfig)6470_storage))"
      },
      {
        "astId": 6494,
        "contract": "contracts/V1Contracts/contracts/RelayerV2.sol:RelayerV2",
        "label": "approvedAddresses",
        "offset": 0,
        "slot": "106",
        "type": "t_mapping(t_address,t_bool)"
      },
      {
        "astId": 6544,
        "contract": "contracts/V1Contracts/contracts/RelayerV2.sol:RelayerV2",
        "label": "paused",
        "offset": 0,
        "slot": "107",
        "type": "t_bool"
      },
      {
        "astId": 6546,
        "contract": "contracts/V1Contracts/contracts/RelayerV2.sol:RelayerV2",
        "label": "priceFeed",
        "offset": 1,
        "slot": "107",
        "type": "t_contract(ILayerZeroPriceFeedV2)17398"
      },
      {
        "astId": 6548,
        "contract": "contracts/V1Contracts/contracts/RelayerV2.sol:RelayerV2",
        "label": "multiplierBps",
        "offset": 0,
        "slot": "108",
        "type": "t_uint128"
      },
      {
        "astId": 6550,
        "contract": "contracts/V1Contracts/contracts/RelayerV2.sol:RelayerV2",
        "label": "validateProofBytes",
        "offset": 16,
        "slot": "108",
        "type": "t_uint16"
      },
      {
        "astId": 6552,
        "contract": "contracts/V1Contracts/contracts/RelayerV2.sol:RelayerV2",
        "label": "fpBytes",
        "offset": 18,
        "slot": "108",
        "type": "t_uint16"
      },
      {
        "astId": 6554,
        "contract": "contracts/V1Contracts/contracts/RelayerV2.sol:RelayerV2",
        "label": "mptOverhead",
        "offset": 20,
        "slot": "108",
        "type": "t_uint16"
      },
      {
        "astId": 6558,
        "contract": "contracts/V1Contracts/contracts/RelayerV2.sol:RelayerV2",
        "label": "dstMultipliers",
        "offset": 0,
        "slot": "109",
        "type": "t_mapping(t_uint16,t_uint128)"
      },
      {
        "astId": 6562,
        "contract": "contracts/V1Contracts/contracts/RelayerV2.sol:RelayerV2",
        "label": "dstFloorMarginsUSD",
        "offset": 0,
        "slot": "110",
        "type": "t_mapping(t_uint16,t_uint128)"
      },
      {
        "astId": 6566,
        "contract": "contracts/V1Contracts/contracts/RelayerV2.sol:RelayerV2",
        "label": "priceConfigUpdaters",
        "offset": 0,
        "slot": "111",
        "type": "t_mapping(t_address,t_bool)"
      },
      {
        "astId": 6568,
        "contract": "contracts/V1Contracts/contracts/RelayerV2.sol:RelayerV2",
        "label": "stargateComposer",
        "offset": 0,
        "slot": "112",
        "type": "t_contract(IStargateComposer)6428"
      },
      {
        "astId": 6570,
        "contract": "contracts/V1Contracts/contracts/RelayerV2.sol:RelayerV2",
        "label": "stargateBridgeAddr",
        "offset": 0,
        "slot": "113",
        "type": "t_address"
      },
      {
        "astId": 6572,
        "contract": "contracts/V1Contracts/contracts/RelayerV2.sol:RelayerV2",
        "label": "nativeDecimalsRate",
        "offset": 0,
        "slot": "114",
        "type": "t_uint256"
      },
      {
        "astId": 6574,
        "contract": "contracts/V1Contracts/contracts/RelayerV2.sol:RelayerV2",
        "label": "limiter",
        "offset": 0,
        "slot": "115",
        "type": "t_struct(Info)17942_storage"
      },
      {
        "astId": 6584,
        "contract": "contracts/V1Contracts/contracts/RelayerV2.sol:RelayerV2",
        "label": "limiterWhitelist",
        "offset": 0,
        "slot": "116",
        "type": "t_mapping(t_address,t_bool)"
      },
      {
        "astId": 6588,
        "contract": "contracts/V1Contracts/contracts/RelayerV2.sol:RelayerV2",
        "label": "limiters",
        "offset": 0,
        "slot": "117",
        "type": "t_mapping(t_uint16,t_struct(Info)17942_storage)"
      }
    ],
    "types": {
      "t_address": {
        "encoding": "inplace",
        "label": "address",
        "numberOfBytes": "20"
      },
      "t_array(t_uint256)49_storage": {
        "base": "t_uint256",
        "encoding": "inplace",
        "label": "uint256[49]",
        "numberOfBytes": "1568"
      },
      "t_array(t_uint256)50_storage": {
        "base": "t_uint256",
        "encoding": "inplace",
        "label": "uint256[50]",
        "numberOfBytes": "1600"
      },
      "t_bool": {
        "encoding": "inplace",
        "label": "bool",
        "numberOfBytes": "1"
      },
      "t_contract(ILayerZeroPriceFeedV2)17398": {
        "encoding": "inplace",
        "label": "contract ILayerZeroPriceFeedV2",
        "numberOfBytes": "20"
      },
      "t_contract(ILayerZeroUltraLightNodeV2)17790": {
        "encoding": "inplace",
        "label": "contract ILayerZeroUltraLightNodeV2",
        "numberOfBytes": "20"
      },
      "t_contract(IStargateComposer)6428": {
        "encoding": "inplace",
        "label": "contract IStargateComposer",
        "numberOfBytes": "20"
      },
      "t_mapping(t_address,t_bool)": {
        "encoding": "mapping",
        "key": "t_address",
        "label": "mapping(address => bool)",
        "numberOfBytes": "32",
        "value": "t_bool"
      },
      "t_mapping(t_uint16,t_mapping(t_uint16,t_struct(DstConfig)6470_storage))": {
        "encoding": "mapping",
        "key": "t_uint16",
        "label": "mapping(uint16 => mapping(uint16 => struct RelayerV2.DstConfig))",
        "numberOfBytes": "32",
        "value": "t_mapping(t_uint16,t_struct(DstConfig)6470_storage)"
      },
      "t_mapping(t_uint16,t_struct(DstConfig)6470_storage)": {
        "encoding": "mapping",
        "key": "t_uint16",
        "label": "mapping(uint16 => struct RelayerV2.DstConfig)",
        "numberOfBytes": "32",
        "value": "t_struct(DstConfig)6470_storage"
      },
      "t_mapping(t_uint16,t_struct(DstPrice)6463_storage)": {
        "encoding": "mapping",
        "key": "t_uint16",
        "label": "mapping(uint16 => struct RelayerV2.DstPrice)",
        "numberOfBytes": "32",
        "value": "t_struct(DstPrice)6463_storage"
      },
      "t_mapping(t_uint16,t_struct(Info)17942_storage)": {
        "encoding": "mapping",
        "key": "t_uint16",
        "label": "mapping(uint16 => struct RateLimiter.Info)",
        "numberOfBytes": "32",
        "value": "t_struct(Info)17942_storage"
      },
      "t_mapping(t_uint16,t_uint128)": {
        "encoding": "mapping",
        "key": "t_uint16",
        "label": "mapping(uint16 => uint128)",
        "numberOfBytes": "32",
        "value": "t_uint128"
      },
      "t_struct(DstConfig)6470_storage": {
        "encoding": "inplace",
        "label": "struct RelayerV2.DstConfig",
        "members": [
          {
            "astId": 6465,
            "contract": "contracts/V1Contracts/contracts/RelayerV2.sol:RelayerV2",
            "label": "dstNativeAmtCap",
            "offset": 0,
            "slot": "0",
            "type": "t_uint128"
          },
          {
            "astId": 6467,
            "contract": "contracts/V1Contracts/contracts/RelayerV2.sol:RelayerV2",
            "label": "baseGas",
            "offset": 16,
            "slot": "0",
            "type": "t_uint64"
          },
          {
            "astId": 6469,
            "contract": "contracts/V1Contracts/contracts/RelayerV2.sol:RelayerV2",
            "label": "gasPerByte",
            "offset": 24,
            "slot": "0",
            "type": "t_uint64"
          }
        ],
        "numberOfBytes": "32"
      },
      "t_struct(DstPrice)6463_storage": {
        "encoding": "inplace",
        "label": "struct RelayerV2.DstPrice",
        "members": [
          {
            "astId": 6460,
            "contract": "contracts/V1Contracts/contracts/RelayerV2.sol:RelayerV2",
            "label": "dstPriceRatio",
            "offset": 0,
            "slot": "0",
            "type": "t_uint128"
          },
          {
            "astId": 6462,
            "contract": "contracts/V1Contracts/contracts/RelayerV2.sol:RelayerV2",
            "label": "dstGasPriceInWei",
            "offset": 16,
            "slot": "0",
            "type": "t_uint128"
          }
        ],
        "numberOfBytes": "32"
      },
      "t_struct(Info)17942_storage": {
        "encoding": "inplace",
        "label": "struct RateLimiter.Info",
        "members": [
          {
            "astId": 17935,
            "contract": "contracts/V1Contracts/contracts/RelayerV2.sol:RelayerV2",
            "label": "capacity",
            "offset": 0,
            "slot": "0",
            "type": "t_uint64"
          },
          {
            "astId": 17937,
            "contract": "contracts/V1Contracts/contracts/RelayerV2.sol:RelayerV2",
            "label": "tokens",
            "offset": 8,
            "slot": "0",
            "type": "t_uint64"
          },
          {
            "astId": 17939,
            "contract": "contracts/V1Contracts/contracts/RelayerV2.sol:RelayerV2",
            "label": "rate",
            "offset": 16,
            "slot": "0",
            "type": "t_uint64"
          },
          {
            "astId": 17941,
            "contract": "contracts/V1Contracts/contracts/RelayerV2.sol:RelayerV2",
            "label": "lastRefillTime",
            "offset": 24,
            "slot": "0",
            "type": "t_uint64"
          }
        ],
        "numberOfBytes": "32"
      },
      "t_uint128": {
        "encoding": "inplace",
        "label": "uint128",
        "numberOfBytes": "16"
      },
      "t_uint16": {
        "encoding": "inplace",
        "label": "uint16",
        "numberOfBytes": "2"
      },
      "t_uint256": {
        "encoding": "inplace",
        "label": "uint256",
        "numberOfBytes": "32"
      },
      "t_uint64": {
        "encoding": "inplace",
        "label": "uint64",
        "numberOfBytes": "8"
      }
    }
  }
}