{
  "address": "0x8046E204930e5243FCE14B45C279d7e52E2AEd84",
  "abi": [
    {
      "inputs": [
        {
          "internalType": "address",
          "name": "_ulnv2",
          "type": "address"
        }
      ],
      "stateMutability": "nonpayable",
      "type": "constructor"
    },
    {
      "anonymous": false,
      "inputs": [
        {
          "indexed": false,
          "internalType": "bool",
          "name": "feeEnabled",
          "type": "bool"
        }
      ],
      "name": "FeeEnabled",
      "type": "event"
    },
    {
      "anonymous": false,
      "inputs": [
        {
          "indexed": false,
          "internalType": "uint256",
          "name": "bp",
          "type": "uint256"
        }
      ],
      "name": "NativeBP",
      "type": "event"
    },
    {
      "anonymous": false,
      "inputs": [
        {
          "indexed": true,
          "internalType": "address",
          "name": "previousOwner",
          "type": "address"
        },
        {
          "indexed": true,
          "internalType": "address",
          "name": "newOwner",
          "type": "address"
        }
      ],
      "name": "OwnershipTransferred",
      "type": "event"
    },
    {
      "anonymous": false,
      "inputs": [
        {
          "indexed": false,
          "internalType": "bool",
          "name": "zroEnabled",
          "type": "bool"
        }
      ],
      "name": "ZroEnabled",
      "type": "event"
    },
    {
      "anonymous": false,
      "inputs": [
        {
          "indexed": false,
          "internalType": "uint256",
          "name": "zroFee",
          "type": "uint256"
        }
      ],
      "name": "ZroFee",
      "type": "event"
    },
    {
      "inputs": [],
      "name": "feeEnabled",
      "outputs": [
        {
          "internalType": "bool",
          "name": "",
          "type": "bool"
        }
      ],
      "stateMutability": "view",
      "type": "function"
    },
    {
      "inputs": [
        {
          "internalType": "bool",
          "name": "payInZro",
          "type": "bool"
        },
        {
          "internalType": "uint256",
          "name": "relayerFee",
          "type": "uint256"
        },
        {
          "internalType": "uint256",
          "name": "oracleFee",
          "type": "uint256"
        }
      ],
      "name": "getFees",
      "outputs": [
        {
          "internalType": "uint256",
          "name": "",
          "type": "uint256"
        }
      ],
      "stateMutability": "view",
      "type": "function"
    },
    {
      "inputs": [],
      "name": "nativeBP",
      "outputs": [
        {
          "internalType": "uint256",
          "name": "",
          "type": "uint256"
        }
      ],
      "stateMutability": "view",
      "type": "function"
    },
    {
      "inputs": [],
      "name": "owner",
      "outputs": [
        {
          "internalType": "address",
          "name": "",
          "type": "address"
        }
      ],
      "stateMutability": "view",
      "type": "function"
    },
    {
      "inputs": [],
      "name": "renounceOwnership",
      "outputs": [],
      "stateMutability": "nonpayable",
      "type": "function"
    },
    {
      "inputs": [
        {
          "internalType": "bool",
          "name": "_feeEnabled",
          "type": "bool"
        }
      ],
      "name": "setFeeEnabled",
      "outputs": [],
      "stateMutability": "nonpayable",
      "type": "function"
    },
    {
      "inputs": [
        {
          "internalType": "uint256",
          "name": "_nativeBP",
          "type": "uint256"
        }
      ],
      "name": "setNativeBP",
      "outputs": [],
      "stateMutability": "nonpayable",
      "type": "function"
    },
    {
      "inputs": [
        {
          "internalType": "bool",
          "name": "_zroEnabled",
          "type": "bool"
        }
      ],
      "name": "setZroEnabled",
      "outputs": [],
      "stateMutability": "nonpayable",
      "type": "function"
    },
    {
      "inputs": [
        {
          "internalType": "uint256",
          "name": "_zroFee",
          "type": "uint256"
        }
      ],
      "name": "setZroFee",
      "outputs": [],
      "stateMutability": "nonpayable",
      "type": "function"
    },
    {
      "inputs": [
        {
          "internalType": "address",
          "name": "newOwner",
          "type": "address"
        }
      ],
      "name": "transferOwnership",
      "outputs": [],
      "stateMutability": "nonpayable",
      "type": "function"
    },
    {
      "inputs": [],
      "name": "uln",
      "outputs": [
        {
          "internalType": "contract ILayerZeroUltraLightNodeV2",
          "name": "",
          "type": "address"
        }
      ],
      "stateMutability": "view",
      "type": "function"
    },
    {
      "inputs": [
        {
          "internalType": "address payable",
          "name": "_to",
          "type": "address"
        },
        {
          "internalType": "uint256",
          "name": "_amount",
          "type": "uint256"
        }
      ],
      "name": "withdrawNativeFromULN",
      "outputs": [],
      "stateMutability": "nonpayable",
      "type": "function"
    },
    {
      "inputs": [
        {
          "internalType": "address",
          "name": "_token",
          "type": "address"
        },
        {
          "internalType": "address",
          "name": "_to",
          "type": "address"
        },
        {
          "internalType": "uint256",
          "name": "_amount",
          "type": "uint256"
        }
      ],
      "name": "withdrawToken",
      "outputs": [],
      "stateMutability": "nonpayable",
      "type": "function"
    },
    {
      "inputs": [
        {
          "internalType": "address",
          "name": "_to",
          "type": "address"
        },
        {
          "internalType": "uint256",
          "name": "_amount",
          "type": "uint256"
        }
      ],
      "name": "withdrawZROFromULN",
      "outputs": [],
      "stateMutability": "nonpayable",
      "type": "function"
    },
    {
      "inputs": [],
      "name": "zroEnabled",
      "outputs": [
        {
          "internalType": "bool",
          "name": "",
          "type": "bool"
        }
      ],
      "stateMutability": "view",
      "type": "function"
    },
    {
      "inputs": [],
      "name": "zroFee",
      "outputs": [
        {
          "internalType": "uint256",
          "name": "",
          "type": "uint256"
        }
      ],
      "stateMutability": "view",
      "type": "function"
    }
  ],
  "transactionHash": "0xa311f62960782e7bcf8453c23edb02ec1b959011e71f6887816c6a5f21b628b4",
  "args": [
    "0xFb3D1152CdCc8E348eFfBdD745117E331749C72f"
  ],
  "numDeployments": 1,
  "solcInputHash": "66a864f53fcbcd62b4ecebba23860347",
  "bytecode": "0x608060405234801561001057600080fd5b506040516110263803806110268339818101604052602081101561003357600080fd5b5051600061003f6100b6565b600080546001600160a01b0319166001600160a01b0383169081178255604051929350917f8be0079c531659141344cd1fd0a4f28419497f9722a3daafe3b4186f6b6457e0908290a350600380546001600160a01b03909216620100000262010000600160b01b03199092169190911790556100ba565b3390565b610f5d806100c96000396000f3fe608060405234801561001057600080fd5b50600436106101005760003560e01c80638da5cb5b11610097578063baead4cc11610066578063baead4cc1461026e578063d684b2531461028b578063d935d123146102aa578063f2fde38b146102b257610100565b80638da5cb5b1461023a57806396a141a014610242578063a771ebc71461024a578063af406aa51461026657610100565b80636c473aff116100d35780636c473aff146101c5578063715018a6146101e95780637ba20ccf146101f15780638c6163971461020e57610100565b806301e33667146101055780630db474fa1461013d5780633c5ac8f71461015c5780635cbbbd7514610188575b600080fd5b61013b6004803603606081101561011b57600080fd5b506001600160a01b038135811691602081013590911690604001356102d8565b005b61013b6004803603602081101561015357600080fd5b50351515610353565b61013b6004803603604081101561017257600080fd5b506001600160a01b0381351690602001356103fc565b6101b36004803603606081101561019e57600080fd5b508035151590602081013590604001356104d6565b60408051918252519081900360200190f35b6101cd61058c565b604080516001600160a01b039092168252519081900360200190f35b61013b6105a1565b61013b6004803603602081101561020757600080fd5b503561064d565b61013b6004803603604081101561022457600080fd5b506001600160a01b0381351690602001356106ea565b6101cd6107a8565b6101b36107b7565b6102526107bd565b604080519115158252519081900360200190f35b6101b36107c6565b61013b6004803603602081101561028457600080fd5b50356107cc565b61013b600480360360208110156102a157600080fd5b50351515610869565b61025261091a565b61013b600480360360208110156102c857600080fd5b50356001600160a01b0316610928565b6102e0610a2a565b6001600160a01b03166102f16107a8565b6001600160a01b03161461033a576040805162461bcd60e51b81526020600482018190526024820152600080516020610ede833981519152604482015290519081900360640190fd5b61034e6001600160a01b0384168383610a2e565b505050565b61035b610a2a565b6001600160a01b031661036c6107a8565b6001600160a01b0316146103b5576040805162461bcd60e51b81526020600482018190526024820152600080516020610ede833981519152604482015290519081900360640190fd5b6003805482151560ff19909116811790915560408051918252517fe97fa32ceb811a18d1b14115b17ae0034db328b2e2ca987d9922cbf47b03fad69181900360200190a150565b610404610a2a565b6001600160a01b03166104156107a8565b6001600160a01b03161461045e576040805162461bcd60e51b81526020600482018190526024820152600080516020610ede833981519152604482015290519081900360640190fd5b600354604080516303d8c5ef60e11b81526001600160a01b03858116600483015260248201859052915162010000909304909116916307b18bde9160448082019260009290919082900301818387803b1580156104ba57600080fd5b505af11580156104ce573d6000803e3d6000fd5b505050505050565b60035460009060ff161561058157831561054f57600354610100900460ff16610546576040805162461bcd60e51b815260206004820152601d60248201527f4c617965725a65726f3a205a524f206973206e6f7420656e61626c6564000000604482015290519081900360640190fd5b50600254610585565b61057a61271061057460015461056e8688610a8090919063ffffffff16565b90610ae3565b90610b3c565b9050610585565b5060005b9392505050565b6003546201000090046001600160a01b031681565b6105a9610a2a565b6001600160a01b03166105ba6107a8565b6001600160a01b031614610603576040805162461bcd60e51b81526020600482018190526024820152600080516020610ede833981519152604482015290519081900360640190fd5b600080546040516001600160a01b03909116907f8be0079c531659141344cd1fd0a4f28419497f9722a3daafe3b4186f6b6457e0908390a3600080546001600160a01b0319169055565b610655610a2a565b6001600160a01b03166106666107a8565b6001600160a01b0316146106af576040805162461bcd60e51b81526020600482018190526024820152600080516020610ede833981519152604482015290519081900360640190fd5b60028190556040805182815290517f804d99c2291bc4a6be11ff016f65cfc644f8d488ef55a5318d0217a1fdc4e9fd9181900360200190a150565b6106f2610a2a565b6001600160a01b03166107036107a8565b6001600160a01b03161461074c576040805162461bcd60e51b81526020600482018190526024820152600080516020610ede833981519152604482015290519081900360640190fd5b60035460408051638525b71160e01b81526001600160a01b0385811660048301526024820185905291516201000090930490911691638525b7119160448082019260009290919082900301818387803b1580156104ba57600080fd5b6000546001600160a01b031690565b60015481565b60035460ff1681565b60025481565b6107d4610a2a565b6001600160a01b03166107e56107a8565b6001600160a01b03161461082e576040805162461bcd60e51b81526020600482018190526024820152600080516020610ede833981519152604482015290519081900360640190fd5b60018190556040805182815290517ff2a316ed322d32481373e7ed416bc6c1ec2afcfa3bf2f1df9eb4300e1a9620e39181900360200190a150565b610871610a2a565b6001600160a01b03166108826107a8565b6001600160a01b0316146108cb576040805162461bcd60e51b81526020600482018190526024820152600080516020610ede833981519152604482015290519081900360640190fd5b60038054821515610100810261ff00199092169190911790915560408051918252517f279d3ec34d7b325d10d4b9d6c63464877a6fe6ac3997f7508bdb3b9d2d5050b39181900360200190a150565b600354610100900460ff1681565b610930610a2a565b6001600160a01b03166109416107a8565b6001600160a01b03161461098a576040805162461bcd60e51b81526020600482018190526024820152600080516020610ede833981519152604482015290519081900360640190fd5b6001600160a01b0381166109cf5760405162461bcd60e51b8152600401808060200182810382526026815260200180610e716026913960400191505060405180910390fd5b600080546040516001600160a01b03808516939216917f8be0079c531659141344cd1fd0a4f28419497f9722a3daafe3b4186f6b6457e091a3600080546001600160a01b0319166001600160a01b0392909216919091179055565b3390565b604080516001600160a01b038416602482015260448082018490528251808303909101815260649091019091526020810180516001600160e01b031663a9059cbb60e01b17905261034e908490610ba3565b600082820183811015610ada576040805162461bcd60e51b815260206004820152601b60248201527f536166654d6174683a206164646974696f6e206f766572666c6f770000000000604482015290519081900360640190fd5b90505b92915050565b600082610af257506000610add565b82820282848281610aff57fe5b0414610ada5760405162461bcd60e51b8152600401808060200182810382526021815260200180610ebd6021913960400191505060405180910390fd5b6000808211610b92576040805162461bcd60e51b815260206004820152601a60248201527f536166654d6174683a206469766973696f6e206279207a65726f000000000000604482015290519081900360640190fd5b818381610b9b57fe5b049392505050565b6000610bf8826040518060400160405280602081526020017f5361666545524332303a206c6f772d6c6576656c2063616c6c206661696c6564815250856001600160a01b0316610c549092919063ffffffff16565b80519091501561034e57808060200190516020811015610c1757600080fd5b505161034e5760405162461bcd60e51b815260040180806020018281038252602a815260200180610efe602a913960400191505060405180910390fd5b6060610c638484600085610c6b565b949350505050565b606082471015610cac5760405162461bcd60e51b8152600401808060200182810382526026815260200180610e976026913960400191505060405180910390fd5b610cb585610dc6565b610d06576040805162461bcd60e51b815260206004820152601d60248201527f416464726573733a2063616c6c20746f206e6f6e2d636f6e7472616374000000604482015290519081900360640190fd5b600080866001600160a01b031685876040518082805190602001908083835b60208310610d445780518252601f199092019160209182019101610d25565b6001836020036101000a03801982511681845116808217855250505050505090500191505060006040518083038185875af1925050503d8060008114610da6576040519150601f19603f3d011682016040523d82523d6000602084013e610dab565b606091505b5091509150610dbb828286610dcc565b979650505050505050565b3b151590565b60608315610ddb575081610585565b825115610deb5782518084602001fd5b8160405162461bcd60e51b81526004018080602001828103825283818151815260200191508051906020019080838360005b83811015610e35578181015183820152602001610e1d565b50505050905090810190601f168015610e625780820380516001836020036101000a031916815260200191505b509250505060405180910390fdfe4f776e61626c653a206e6577206f776e657220697320746865207a65726f2061646472657373416464726573733a20696e73756666696369656e742062616c616e636520666f722063616c6c536166654d6174683a206d756c7469706c69636174696f6e206f766572666c6f774f776e61626c653a2063616c6c6572206973206e6f7420746865206f776e65725361666545524332303a204552433230206f7065726174696f6e20646964206e6f742073756363656564a26469706673582212201dbf5c3a517e34f9f55361063a1e5bc1d06fbd50e5ed8a8269dcdb0c0fb8bb1364736f6c63430007060033",
  "devdoc": {
    "kind": "dev",
    "methods": {
      "owner()": {
        "details": "Returns the address of the current owner."
      },
      "renounceOwnership()": {
        "details": "Leaves the contract without owner. It will not be possible to call `onlyOwner` functions anymore. Can only be called by the current owner. NOTE: Renouncing ownership will leave the contract without an owner, thereby removing any functionality that is only available to the owner."
      },
      "transferOwnership(address)": {
        "details": "Transfers ownership of the contract to a new account (`newOwner`). Can only be called by the current owner."
      }
    },
    "version": 1
  },
  "userdoc": {
    "kind": "user",
    "methods": {},
    "version": 1
  },
  "storageLayout": {
    "storage": [
      {
        "astId": 493,
        "contract": "contracts/V1Contracts/contracts/TreasuryV2.sol:TreasuryV2",
        "label": "_owner",
        "offset": 0,
        "slot": "0",
        "type": "t_address"
      },
      {
        "astId": 8601,
        "contract": "contracts/V1Contracts/contracts/TreasuryV2.sol:TreasuryV2",
        "label": "nativeBP",
        "offset": 0,
        "slot": "1",
        "type": "t_uint256"
      },
      {
        "astId": 8603,
        "contract": "contracts/V1Contracts/contracts/TreasuryV2.sol:TreasuryV2",
        "label": "zroFee",
        "offset": 0,
        "slot": "2",
        "type": "t_uint256"
      },
      {
        "astId": 8605,
        "contract": "contracts/V1Contracts/contracts/TreasuryV2.sol:TreasuryV2",
        "label": "feeEnabled",
        "offset": 0,
        "slot": "3",
        "type": "t_bool"
      },
      {
        "astId": 8607,
        "contract": "contracts/V1Contracts/contracts/TreasuryV2.sol:TreasuryV2",
        "label": "zroEnabled",
        "offset": 1,
        "slot": "3",
        "type": "t_bool"
      },
      {
        "astId": 8609,
        "contract": "contracts/V1Contracts/contracts/TreasuryV2.sol:TreasuryV2",
        "label": "uln",
        "offset": 2,
        "slot": "3",
        "type": "t_contract(ILayerZeroUltraLightNodeV2)17790"
      }
    ],
    "types": {
      "t_address": {
        "encoding": "inplace",
        "label": "address",
        "numberOfBytes": "20"
      },
      "t_bool": {
        "encoding": "inplace",
        "label": "bool",
        "numberOfBytes": "1"
      },
      "t_contract(ILayerZeroUltraLightNodeV2)17790": {
        "encoding": "inplace",
        "label": "contract ILayerZeroUltraLightNodeV2",
        "numberOfBytes": "20"
      },
      "t_uint256": {
        "encoding": "inplace",
        "label": "uint256",
        "numberOfBytes": "32"
      }
    }
  }
}