{
  "address": "0xFb3D1152CdCc8E348eFfBdD745117E331749C72f",
  "abi": [
    {
      "inputs": [
        {
          "internalType": "address",
          "name": "_endpoint",
          "type": "address"
        },
        {
          "internalType": "address",
          "name": "_nonceContract",
          "type": "address"
        },
        {
          "internalType": "uint16",
          "name": "_localChainId",
          "type": "uint16"
        }
      ],
      "stateMutability": "nonpayable",
      "type": "constructor"
    },
    {
      "anonymous": false,
      "inputs": [
        {
          "indexed": true,
          "internalType": "uint16",
          "name": "chainId",
          "type": "uint16"
        },
        {
          "indexed": false,
          "internalType": "address",
          "name": "lib",
          "type": "address"
        }
      ],
      "name": "AddInboundProofLibraryForChain",
      "type": "event"
    },
    {
      "anonymous": false,
      "inputs": [
        {
          "indexed": true,
          "internalType": "address",
          "name": "userApplication",
          "type": "address"
        },
        {
          "indexed": true,
          "internalType": "uint256",
          "name": "configType",
          "type": "uint256"
        },
        {
          "indexed": false,
          "internalType": "bytes",
          "name": "newConfig",
          "type": "bytes"
        }
      ],
      "name": "AppConfigUpdated",
      "type": "event"
    },
    {
      "anonymous": false,
      "inputs": [
        {
          "indexed": true,
          "internalType": "uint16",
          "name": "chainId",
          "type": "uint16"
        },
        {
          "indexed": false,
          "internalType": "uint16",
          "name": "proofType",
          "type": "uint16"
        }
      ],
      "name": "EnableSupportedOutboundProof",
      "type": "event"
    },
    {
      "anonymous": false,
      "inputs": [
        {
          "indexed": true,
          "internalType": "uint16",
          "name": "srcChainId",
          "type": "uint16"
        },
        {
          "indexed": true,
          "internalType": "address",
          "name": "oracle",
          "type": "address"
        },
        {
          "indexed": false,
          "internalType": "bytes32",
          "name": "lookupHash",
          "type": "bytes32"
        },
        {
          "indexed": false,
          "internalType": "bytes32",
          "name": "blockData",
          "type": "bytes32"
        },
        {
          "indexed": false,
          "internalType": "uint256",
          "name": "confirmations",
          "type": "uint256"
        }
      ],
      "name": "HashReceived",
      "type": "event"
    },
    {
      "anonymous": false,
      "inputs": [
        {
          "indexed": true,
          "internalType": "uint16",
          "name": "srcChainId",
          "type": "uint16"
        },
        {
          "indexed": false,
          "internalType": "bytes",
          "name": "srcAddress",
          "type": "bytes"
        },
        {
          "indexed": true,
          "internalType": "address",
          "name": "dstAddress",
          "type": "address"
        },
        {
          "indexed": false,
          "internalType": "uint64",
          "name": "nonce",
          "type": "uint64"
        },
        {
          "indexed": false,
          "internalType": "bytes32",
          "name": "payloadHash",
          "type": "bytes32"
        }
      ],
      "name": "InvalidDst",
      "type": "event"
    },
    {
      "anonymous": false,
      "inputs": [
        {
          "indexed": true,
          "internalType": "address",
          "name": "previousOwner",
          "type": "address"
        },
        {
          "indexed": true,
          "internalType": "address",
          "name": "newOwner",
          "type": "address"
        }
      ],
      "name": "OwnershipTransferred",
      "type": "event"
    },
    {
      "anonymous": false,
      "inputs": [
        {
          "indexed": false,
          "internalType": "bytes",
          "name": "payload",
          "type": "bytes"
        }
      ],
      "name": "Packet",
      "type": "event"
    },
    {
      "anonymous": false,
      "inputs": [
        {
          "indexed": true,
          "internalType": "uint16",
          "name": "srcChainId",
          "type": "uint16"
        },
        {
          "indexed": false,
          "internalType": "bytes",
          "name": "srcAddress",
          "type": "bytes"
        },
        {
          "indexed": true,
          "internalType": "address",
          "name": "dstAddress",
          "type": "address"
        },
        {
          "indexed": false,
          "internalType": "uint64",
          "name": "nonce",
          "type": "uint64"
        },
        {
          "indexed": false,
          "internalType": "bytes32",
          "name": "payloadHash",
          "type": "bytes32"
        }
      ],
      "name": "PacketReceived",
      "type": "event"
    },
    {
      "anonymous": false,
      "inputs": [
        {
          "indexed": false,
          "internalType": "bytes",
          "name": "adapterParams",
          "type": "bytes"
        },
        {
          "indexed": false,
          "internalType": "uint16",
          "name": "outboundProofType",
          "type": "uint16"
        }
      ],
      "name": "RelayerParams",
      "type": "event"
    },
    {
      "anonymous": false,
      "inputs": [
        {
          "indexed": true,
          "internalType": "uint16",
          "name": "chainId",
          "type": "uint16"
        },
        {
          "indexed": false,
          "internalType": "uint256",
          "name": "size",
          "type": "uint256"
        }
      ],
      "name": "SetChainAddressSize",
      "type": "event"
    },
    {
      "anonymous": false,
      "inputs": [
        {
          "indexed": true,
          "internalType": "uint16",
          "name": "chainId",
          "type": "uint16"
        },
        {
          "indexed": true,
          "internalType": "uint16",
          "name": "proofType",
          "type": "uint16"
        },
        {
          "indexed": false,
          "internalType": "bytes",
          "name": "adapterParams",
          "type": "bytes"
        }
      ],
      "name": "SetDefaultAdapterParamsForChainId",
      "type": "event"
    },
    {
      "anonymous": false,
      "inputs": [
        {
          "indexed": true,
          "internalType": "uint16",
          "name": "chainId",
          "type": "uint16"
        },
        {
          "indexed": false,
          "internalType": "uint16",
          "name": "inboundProofLib",
          "type": "uint16"
        },
        {
          "indexed": false,
          "internalType": "uint64",
          "name": "inboundBlockConfirm",
          "type": "uint64"
        },
        {
          "indexed": false,
          "internalType": "address",
          "name": "relayer",
          "type": "address"
        },
        {
          "indexed": false,
          "internalType": "uint16",
          "name": "outboundProofType",
          "type": "uint16"
        },
        {
          "indexed": false,
          "internalType": "uint64",
          "name": "outboundBlockConfirm",
          "type": "uint64"
        },
        {
          "indexed": false,
          "internalType": "address",
          "name": "oracle",
          "type": "address"
        }
      ],
      "name": "SetDefaultConfigForChainId",
      "type": "event"
    },
    {
      "anonymous": false,
      "inputs": [
        {
          "indexed": true,
          "internalType": "address",
          "name": "tokenAddress",
          "type": "address"
        }
      ],
      "name": "SetLayerZeroToken",
      "type": "event"
    },
    {
      "anonymous": false,
      "inputs": [
        {
          "indexed": true,
          "internalType": "uint16",
          "name": "chainId",
          "type": "uint16"
        },
        {
          "indexed": false,
          "internalType": "bytes32",
          "name": "uln",
          "type": "bytes32"
        }
      ],
      "name": "SetRemoteUln",
      "type": "event"
    },
    {
      "anonymous": false,
      "inputs": [
        {
          "indexed": true,
          "internalType": "address",
          "name": "treasuryAddress",
          "type": "address"
        }
      ],
      "name": "SetTreasury",
      "type": "event"
    },
    {
      "anonymous": false,
      "inputs": [
        {
          "indexed": true,
          "internalType": "address",
          "name": "msgSender",
          "type": "address"
        },
        {
          "indexed": true,
          "internalType": "address",
          "name": "to",
          "type": "address"
        },
        {
          "indexed": false,
          "internalType": "uint256",
          "name": "amount",
          "type": "uint256"
        }
      ],
      "name": "WithdrawNative",
      "type": "event"
    },
    {
      "anonymous": false,
      "inputs": [
        {
          "indexed": true,
          "internalType": "address",
          "name": "msgSender",
          "type": "address"
        },
        {
          "indexed": true,
          "internalType": "address",
          "name": "to",
          "type": "address"
        },
        {
          "indexed": false,
          "internalType": "uint256",
          "name": "amount",
          "type": "uint256"
        }
      ],
      "name": "WithdrawZRO",
      "type": "event"
    },
    {
      "inputs": [],
      "name": "CONFIG_TYPE_INBOUND_BLOCK_CONFIRMATIONS",
      "outputs": [
        {
          "internalType": "uint256",
          "name": "",
          "type": "uint256"
        }
      ],
      "stateMutability": "view",
      "type": "function"
    },
    {
      "inputs": [],
      "name": "CONFIG_TYPE_INBOUND_PROOF_LIBRARY_VERSION",
      "outputs": [
        {
          "internalType": "uint256",
          "name": "",
          "type": "uint256"
        }
      ],
      "stateMutability": "view",
      "type": "function"
    },
    {
      "inputs": [],
      "name": "CONFIG_TYPE_ORACLE",
      "outputs": [
        {
          "internalType": "uint256",
          "name": "",
          "type": "uint256"
        }
      ],
      "stateMutability": "view",
      "type": "function"
    },
    {
      "inputs": [],
      "name": "CONFIG_TYPE_OUTBOUND_BLOCK_CONFIRMATIONS",
      "outputs": [
        {
          "internalType": "uint256",
          "name": "",
          "type": "uint256"
        }
      ],
      "stateMutability": "view",
      "type": "function"
    },
    {
      "inputs": [],
      "name": "CONFIG_TYPE_OUTBOUND_PROOF_TYPE",
      "outputs": [
        {
          "internalType": "uint256",
          "name": "",
          "type": "uint256"
        }
      ],
      "stateMutability": "view",
      "type": "function"
    },
    {
      "inputs": [],
      "name": "CONFIG_TYPE_RELAYER",
      "outputs": [
        {
          "internalType": "uint256",
          "name": "",
          "type": "uint256"
        }
      ],
      "stateMutability": "view",
      "type": "function"
    },
    {
      "inputs": [
        {
          "internalType": "address",
          "name": "_address",
          "type": "address"
        }
      ],
      "name": "accruedNativeFee",
      "outputs": [
        {
          "internalType": "uint256",
          "name": "",
          "type": "uint256"
        }
      ],
      "stateMutability": "view",
      "type": "function"
    },
    {
      "inputs": [
        {
          "internalType": "uint16",
          "name": "_chainId",
          "type": "uint16"
        },
        {
          "internalType": "address",
          "name": "_library",
          "type": "address"
        }
      ],
      "name": "addInboundProofLibraryForChain",
      "outputs": [],
      "stateMutability": "nonpayable",
      "type": "function"
    },
    {
      "inputs": [
        {
          "internalType": "address",
          "name": "",
          "type": "address"
        },
        {
          "internalType": "uint16",
          "name": "",
          "type": "uint16"
        }
      ],
      "name": "appConfig",
      "outputs": [
        {
          "internalType": "uint16",
          "name": "inboundProofLibraryVersion",
          "type": "uint16"
        },
        {
          "internalType": "uint64",
          "name": "inboundBlockConfirmations",
          "type": "uint64"
        },
        {
          "internalType": "address",
          "name": "relayer",
          "type": "address"
        },
        {
          "internalType": "uint16",
          "name": "outboundProofType",
          "type": "uint16"
        },
        {
          "internalType": "uint64",
          "name": "outboundBlockConfirmations",
          "type": "uint64"
        },
        {
          "internalType": "address",
          "name": "oracle",
          "type": "address"
        }
      ],
      "stateMutability": "view",
      "type": "function"
    },
    {
      "inputs": [
        {
          "internalType": "uint16",
          "name": "",
          "type": "uint16"
        }
      ],
      "name": "chainAddressSizeMap",
      "outputs": [
        {
          "internalType": "uint256",
          "name": "",
          "type": "uint256"
        }
      ],
      "stateMutability": "view",
      "type": "function"
    },
    {
      "inputs": [
        {
          "internalType": "uint16",
          "name": "",
          "type": "uint16"
        },
        {
          "internalType": "uint16",
          "name": "",
          "type": "uint16"
        }
      ],
      "name": "defaultAdapterParams",
      "outputs": [
        {
          "internalType": "bytes",
          "name": "",
          "type": "bytes"
        }
      ],
      "stateMutability": "view",
      "type": "function"
    },
    {
      "inputs": [
        {
          "internalType": "uint16",
          "name": "",
          "type": "uint16"
        }
      ],
      "name": "defaultAppConfig",
      "outputs": [
        {
          "internalType": "uint16",
          "name": "inboundProofLibraryVersion",
          "type": "uint16"
        },
        {
          "internalType": "uint64",
          "name": "inboundBlockConfirmations",
          "type": "uint64"
        },
        {
          "internalType": "address",
          "name": "relayer",
          "type": "address"
        },
        {
          "internalType": "uint16",
          "name": "outboundProofType",
          "type": "uint16"
        },
        {
          "internalType": "uint64",
          "name": "outboundBlockConfirmations",
          "type": "uint64"
        },
        {
          "internalType": "address",
          "name": "oracle",
          "type": "address"
        }
      ],
      "stateMutability": "view",
      "type": "function"
    },
    {
      "inputs": [
        {
          "internalType": "uint16",
          "name": "_chainId",
          "type": "uint16"
        },
        {
          "internalType": "uint16",
          "name": "_proofType",
          "type": "uint16"
        }
      ],
      "name": "enableSupportedOutboundProof",
      "outputs": [],
      "stateMutability": "nonpayable",
      "type": "function"
    },
    {
      "inputs": [],
      "name": "endpoint",
      "outputs": [
        {
          "internalType": "contract ILayerZeroEndpoint",
          "name": "",
          "type": "address"
        }
      ],
      "stateMutability": "view",
      "type": "function"
    },
    {
      "inputs": [
        {
          "internalType": "uint16",
          "name": "_dstChainId",
          "type": "uint16"
        },
        {
          "internalType": "address",
          "name": "_ua",
          "type": "address"
        },
        {
          "internalType": "bytes",
          "name": "_payload",
          "type": "bytes"
        },
        {
          "internalType": "bool",
          "name": "_payInZRO",
          "type": "bool"
        },
        {
          "internalType": "bytes",
          "name": "_adapterParams",
          "type": "bytes"
        }
      ],
      "name": "estimateFees",
      "outputs": [
        {
          "internalType": "uint256",
          "name": "nativeFee",
          "type": "uint256"
        },
        {
          "internalType": "uint256",
          "name": "zroFee",
          "type": "uint256"
        }
      ],
      "stateMutability": "view",
      "type": "function"
    },
    {
      "inputs": [
        {
          "internalType": "uint16",
          "name": "_remoteChainId",
          "type": "uint16"
        },
        {
          "internalType": "address",
          "name": "_ua",
          "type": "address"
        }
      ],
      "name": "getAppConfig",
      "outputs": [
        {
          "components": [
            {
              "internalType": "uint16",
              "name": "inboundProofLibraryVersion",
              "type": "uint16"
            },
            {
              "internalType": "uint64",
              "name": "inboundBlockConfirmations",
              "type": "uint64"
            },
            {
              "internalType": "address",
              "name": "relayer",
              "type": "address"
            },
            {
              "internalType": "uint16",
              "name": "outboundProofType",
              "type": "uint16"
            },
            {
              "internalType": "uint64",
              "name": "outboundBlockConfirmations",
              "type": "uint64"
            },
            {
              "internalType": "address",
              "name": "oracle",
              "type": "address"
            }
          ],
          "internalType": "struct ILayerZeroUltraLightNodeV2.ApplicationConfiguration",
          "name": "",
          "type": "tuple"
        }
      ],
      "stateMutability": "view",
      "type": "function"
    },
    {
      "inputs": [
        {
          "internalType": "uint16",
          "name": "_remoteChainId",
          "type": "uint16"
        },
        {
          "internalType": "address",
          "name": "_ua",
          "type": "address"
        },
        {
          "internalType": "uint256",
          "name": "_configType",
          "type": "uint256"
        }
      ],
      "name": "getConfig",
      "outputs": [
        {
          "internalType": "bytes",
          "name": "",
          "type": "bytes"
        }
      ],
      "stateMutability": "view",
      "type": "function"
    },
    {
      "inputs": [
        {
          "internalType": "uint16",
          "name": "_chainId",
          "type": "uint16"
        },
        {
          "internalType": "bytes",
          "name": "_path",
          "type": "bytes"
        }
      ],
      "name": "getOutboundNonce",
      "outputs": [
        {
          "internalType": "uint64",
          "name": "",
          "type": "uint64"
        }
      ],
      "stateMutability": "view",
      "type": "function"
    },
    {
      "inputs": [
        {
          "internalType": "address",
          "name": "",
          "type": "address"
        },
        {
          "internalType": "uint16",
          "name": "",
          "type": "uint16"
        },
        {
          "internalType": "bytes32",
          "name": "",
          "type": "bytes32"
        },
        {
          "internalType": "bytes32",
          "name": "",
          "type": "bytes32"
        }
      ],
      "name": "hashLookup",
      "outputs": [
        {
          "internalType": "uint256",
          "name": "",
          "type": "uint256"
        }
      ],
      "stateMutability": "view",
      "type": "function"
    },
    {
      "inputs": [
        {
          "internalType": "uint16",
          "name": "",
          "type": "uint16"
        },
        {
          "internalType": "uint16",
          "name": "",
          "type": "uint16"
        }
      ],
      "name": "inboundProofLibrary",
      "outputs": [
        {
          "internalType": "address",
          "name": "",
          "type": "address"
        }
      ],
      "stateMutability": "view",
      "type": "function"
    },
    {
      "inputs": [],
      "name": "layerZeroToken",
      "outputs": [
        {
          "internalType": "contract IERC20",
          "name": "",
          "type": "address"
        }
      ],
      "stateMutability": "view",
      "type": "function"
    },
    {
      "inputs": [],
      "name": "localChainId",
      "outputs": [
        {
          "internalType": "uint16",
          "name": "",
          "type": "uint16"
        }
      ],
      "stateMutability": "view",
      "type": "function"
    },
    {
      "inputs": [
        {
          "internalType": "uint16",
          "name": "",
          "type": "uint16"
        }
      ],
      "name": "maxInboundProofLibrary",
      "outputs": [
        {
          "internalType": "uint16",
          "name": "",
          "type": "uint16"
        }
      ],
      "stateMutability": "view",
      "type": "function"
    },
    {
      "inputs": [
        {
          "internalType": "address",
          "name": "",
          "type": "address"
        }
      ],
      "name": "nativeFees",
      "outputs": [
        {
          "internalType": "uint256",
          "name": "",
          "type": "uint256"
        }
      ],
      "stateMutability": "view",
      "type": "function"
    },
    {
      "inputs": [],
      "name": "nonceContract",
      "outputs": [
        {
          "internalType": "contract NonceContract",
          "name": "",
          "type": "address"
        }
      ],
      "stateMutability": "view",
      "type": "function"
    },
    {
      "inputs": [],
      "name": "owner",
      "outputs": [
        {
          "internalType": "address",
          "name": "",
          "type": "address"
        }
      ],
      "stateMutability": "view",
      "type": "function"
    },
    {
      "inputs": [],
      "name": "renounceOwnership",
      "outputs": [],
      "stateMutability": "nonpayable",
      "type": "function"
    },
    {
      "inputs": [
        {
          "internalType": "address",
          "name": "_ua",
          "type": "address"
        },
        {
          "internalType": "uint64",
          "name": "",
          "type": "uint64"
        },
        {
          "internalType": "uint16",
          "name": "_dstChainId",
          "type": "uint16"
        },
        {
          "internalType": "bytes",
          "name": "_path",
          "type": "bytes"
        },
        {
          "internalType": "bytes",
          "name": "_payload",
          "type": "bytes"
        },
        {
          "internalType": "address payable",
          "name": "_refundAddress",
          "type": "address"
        },
        {
          "internalType": "address",
          "name": "_zroPaymentAddress",
          "type": "address"
        },
        {
          "internalType": "bytes",
          "name": "_adapterParams",
          "type": "bytes"
        }
      ],
      "name": "send",
      "outputs": [],
      "stateMutability": "payable",
      "type": "function"
    },
    {
      "inputs": [
        {
          "internalType": "uint16",
          "name": "_chainId",
          "type": "uint16"
        },
        {
          "internalType": "uint256",
          "name": "_size",
          "type": "uint256"
        }
      ],
      "name": "setChainAddressSize",
      "outputs": [],
      "stateMutability": "nonpayable",
      "type": "function"
    },
    {
      "inputs": [
        {
          "internalType": "uint16",
          "name": "_remoteChainId",
          "type": "uint16"
        },
        {
          "internalType": "address",
          "name": "_ua",
          "type": "address"
        },
        {
          "internalType": "uint256",
          "name": "_configType",
          "type": "uint256"
        },
        {
          "internalType": "bytes",
          "name": "_config",
          "type": "bytes"
        }
      ],
      "name": "setConfig",
      "outputs": [],
      "stateMutability": "nonpayable",
      "type": "function"
    },
    {
      "inputs": [
        {
          "internalType": "uint16",
          "name": "_chainId",
          "type": "uint16"
        },
        {
          "internalType": "uint16",
          "name": "_proofType",
          "type": "uint16"
        },
        {
          "internalType": "bytes",
          "name": "_adapterParams",
          "type": "bytes"
        }
      ],
      "name": "setDefaultAdapterParamsForChainId",
      "outputs": [],
      "stateMutability": "nonpayable",
      "type": "function"
    },
    {
      "inputs": [
        {
          "internalType": "uint16",
          "name": "_chainId",
          "type": "uint16"
        },
        {
          "internalType": "uint16",
          "name": "_inboundProofLibraryVersion",
          "type": "uint16"
        },
        {
          "internalType": "uint64",
          "name": "_inboundBlockConfirmations",
          "type": "uint64"
        },
        {
          "internalType": "address",
          "name": "_relayer",
          "type": "address"
        },
        {
          "internalType": "uint16",
          "name": "_outboundProofType",
          "type": "uint16"
        },
        {
          "internalType": "uint64",
          "name": "_outboundBlockConfirmations",
          "type": "uint64"
        },
        {
          "internalType": "address",
          "name": "_oracle",
          "type": "address"
        }
      ],
      "name": "setDefaultConfigForChainId",
      "outputs": [],
      "stateMutability": "nonpayable",
      "type": "function"
    },
    {
      "inputs": [
        {
          "internalType": "address",
          "name": "_layerZeroToken",
          "type": "address"
        }
      ],
      "name": "setLayerZeroToken",
      "outputs": [],
      "stateMutability": "nonpayable",
      "type": "function"
    },
    {
      "inputs": [
        {
          "internalType": "uint16",
          "name": "_remoteChainId",
          "type": "uint16"
        },
        {
          "internalType": "bytes32",
          "name": "_remoteUln",
          "type": "bytes32"
        }
      ],
      "name": "setRemoteUln",
      "outputs": [],
      "stateMutability": "nonpayable",
      "type": "function"
    },
    {
      "inputs": [
        {
          "internalType": "address",
          "name": "_treasury",
          "type": "address"
        }
      ],
      "name": "setTreasury",
      "outputs": [],
      "stateMutability": "nonpayable",
      "type": "function"
    },
    {
      "inputs": [
        {
          "internalType": "uint16",
          "name": "",
          "type": "uint16"
        },
        {
          "internalType": "uint16",
          "name": "",
          "type": "uint16"
        }
      ],
      "name": "supportedOutboundProof",
      "outputs": [
        {
          "internalType": "bool",
          "name": "",
          "type": "bool"
        }
      ],
      "stateMutability": "view",
      "type": "function"
    },
    {
      "inputs": [
        {
          "internalType": "address",
          "name": "newOwner",
          "type": "address"
        }
      ],
      "name": "transferOwnership",
      "outputs": [],
      "stateMutability": "nonpayable",
      "type": "function"
    },
    {
      "inputs": [],
      "name": "treasuryContract",
      "outputs": [
        {
          "internalType": "contract ILayerZeroTreasury",
          "name": "",
          "type": "address"
        }
      ],
      "stateMutability": "view",
      "type": "function"
    },
    {
      "inputs": [],
      "name": "treasuryZROFees",
      "outputs": [
        {
          "internalType": "uint256",
          "name": "",
          "type": "uint256"
        }
      ],
      "stateMutability": "view",
      "type": "function"
    },
    {
      "inputs": [
        {
          "internalType": "uint16",
          "name": "",
          "type": "uint16"
        }
      ],
      "name": "ulnLookup",
      "outputs": [
        {
          "internalType": "bytes32",
          "name": "",
          "type": "bytes32"
        }
      ],
      "stateMutability": "view",
      "type": "function"
    },
    {
      "inputs": [
        {
          "internalType": "uint16",
          "name": "_srcChainId",
          "type": "uint16"
        },
        {
          "internalType": "bytes32",
          "name": "_lookupHash",
          "type": "bytes32"
        },
        {
          "internalType": "uint256",
          "name": "_confirmations",
          "type": "uint256"
        },
        {
          "internalType": "bytes32",
          "name": "_blockData",
          "type": "bytes32"
        }
      ],
      "name": "updateHash",
      "outputs": [],
      "stateMutability": "nonpayable",
      "type": "function"
    },
    {
      "inputs": [
        {
          "internalType": "uint16",
          "name": "_srcChainId",
          "type": "uint16"
        },
        {
          "internalType": "address",
          "name": "_dstAddress",
          "type": "address"
        },
        {
          "internalType": "uint256",
          "name": "_gasLimit",
          "type": "uint256"
        },
        {
          "internalType": "bytes32",
          "name": "_lookupHash",
          "type": "bytes32"
        },
        {
          "internalType": "bytes32",
          "name": "_blockData",
          "type": "bytes32"
        },
        {
          "internalType": "bytes",
          "name": "_transactionProof",
          "type": "bytes"
        }
      ],
      "name": "validateTransactionProof",
      "outputs": [],
      "stateMutability": "nonpayable",
      "type": "function"
    },
    {
      "inputs": [
        {
          "internalType": "address payable",
          "name": "_to",
          "type": "address"
        },
        {
          "internalType": "uint256",
          "name": "_amount",
          "type": "uint256"
        }
      ],
      "name": "withdrawNative",
      "outputs": [],
      "stateMutability": "nonpayable",
      "type": "function"
    },
    {
      "inputs": [
        {
          "internalType": "address",
          "name": "_to",
          "type": "address"
        },
        {
          "internalType": "uint256",
          "name": "_amount",
          "type": "uint256"
        }
      ],
      "name": "withdrawZRO",
      "outputs": [],
      "stateMutability": "nonpayable",
      "type": "function"
    }
  ],
  "transactionHash": "0xac518d4ca7b83afa17f0956eda16a0b8ee0a9dca28adee14dc4298d4efe13059",
  "args": [
    "0xda5D3fC344812781Db552335b98d2C3DdedC93f2",
    "0x002692285b051cA32628aD95B55b018e3CdD1837",
    10106
  ],
  "numDeployments": 1,
  "solcInputHash": "66a864f53fcbcd62b4ecebba23860347",
  "bytecode": "0x60e06040523480156200001157600080fd5b5060405162004d7b38038062004d7b83398101604081905262000034916200013f565b60016000908155620000456200011e565b600180546001600160a01b0319166001600160a01b038316908117909155604051919250906000907f8be0079c531659141344cd1fd0a4f28419497f9722a3daafe3b4186f6b6457e0908290a3506001600160a01b038316620000c55760405162461bcd60e51b8152600401620000bc9062000191565b60405180910390fd5b6001600160a01b038216620000ee5760405162461bcd60e51b8152600401620000bc90620001db565b60f01b6001600160f01b03191660a052606091821b6001600160601b0319908116608052911b1660c0526200022a565b3390565b80516001600160a01b03811681146200013a57600080fd5b919050565b60008060006060848603121562000154578283fd5b6200015f8462000122565b92506200016f6020850162000122565b9150604084015161ffff8116811462000186578182fd5b809150509250925092565b6020808252602a908201527f4c617965725a65726f3a20656e64706f696e742063616e6e6f74206265207a65604082015269726f206164647265737360b01b606082015260800190565b6020808252602f908201527f4c617965725a65726f3a206e6f6e6365436f6e74726163742063616e6e6f742060408201526e6265207a65726f206164647265737360881b606082015260800190565b60805160601c60a05160f01c60c05160601c614af862000283600039806107cd5280610f2f52806123bd5250806111395280611595528061214d525080610da152806115b952806122da52806128935250614af86000f3fe6080604052600436106102675760003560e01c80638317814a11610144578063d543c774116100b6578063ed28580a1161007a578063ed28580a14610716578063f0f4426014610736578063f2fde38b14610756578063f47a5feb14610776578063f58589a21461078b578063f8e1734c146107ab57610267565b8063d543c77414610669578063db00719b14610696578063ddfdef5a146106b6578063ea216c21146106d6578063eb0d4c31146106f657610267565b8063959f594311610108578063959f59431461059a578063987fa2d5146105ba578063a4662222146105da578063b77d22ad14610607578063b8e7e3e01461061c578063b9a99bed1461063c57610267565b80638317814a146105105780638525b7111461053057806387078f9f146105505780638da5cb5b14610570578063904d3b8d1461058557610267565b806352d2871f116101dd5780636a14ac82116101a15780636a14ac8214610466578063704316e514610486578063715018a6146104a6578063759c5b3b146104bb5780638140666e146104db5780638207f79d146104f057610267565b806352d2871f146103cf57806352d3b500146103ef5780635b056da51461040f5780635e280f111461043157806369412bfa1461044657610267565b80632cfacb061161022f5780632cfacb06146103105780632f8134641461033257806331bd24301461036457806340a7bb101461037957806349148c37146103a75780634d3a0f7c146103bc57610267565b806302bd97431461026c57806307b18bde1461029757806307b9ca7c146102b957806318da0011146102ce5780632a819bbf146102e3575b600080fd5b34801561027857600080fd5b506102816107cb565b60405161028e9190613e6c565b60405180910390f35b3480156102a357600080fd5b506102b76102b23660046136b4565b6107ef565b005b3480156102c557600080fd5b50610281610979565b3480156102da57600080fd5b50610281610988565b3480156102ef57600080fd5b506103036102fe366004613bf4565b610997565b60405161028e9190613f01565b34801561031c57600080fd5b50610325610a3b565b60405161028e9190613ea3565b34801561033e57600080fd5b5061035261034d366004613938565b610a40565b60405161028e96959493929190614934565b34801561037057600080fd5b50610325610a9c565b34801561038557600080fd5b50610399610394366004613981565b610aa1565b60405161028e92919061497c565b3480156103b357600080fd5b50610325610d9a565b6102b76103ca36600461376e565b610d9f565b3480156103db57600080fd5b506103036103ea366004613a2b565b6111d2565b3480156103fb57600080fd5b506102b761040a366004613698565b6114c1565b34801561041b57600080fd5b50610424611593565b60405161028e91906147fd565b34801561043d57600080fd5b506102816115b7565b34801561045257600080fd5b50610325610461366004613698565b6115db565b34801561047257600080fd5b506102b7610481366004613c73565b6115fa565b34801561049257600080fd5b506102b76104a1366004613b68565b611942565b3480156104b257600080fd5b506102b7611a07565b3480156104c757600080fd5b506103256104d6366004613717565b611ab3565b3480156104e757600080fd5b50610325611adf565b3480156104fc57600080fd5b506102b761050b366004613954565b611ae4565b34801561051c57600080fd5b506102b761052b366004613c11565b611c36565b34801561053c57600080fd5b506102b761054b36600461375c565b611d0d565b34801561055c57600080fd5b506102b761056b366004613b4b565b611e0f565b34801561057c57600080fd5b50610281611ef4565b34801561059157600080fd5b50610325611f03565b3480156105a657600080fd5b506103256105b5366004613938565b611f08565b3480156105c657600080fd5b506102b76105d5366004613a6b565b611f1a565b3480156105e657600080fd5b506105fa6105f5366004613954565b612376565b60405161028e9190614793565b34801561061357600080fd5b50610325612388565b34801561062857600080fd5b50610424610637366004613938565b61238d565b34801561064857600080fd5b5061065c610657366004613ba2565b6123a3565b60405161028e919061498a565b34801561067557600080fd5b50610689610684366004613bf4565b61244e565b60405161028e9190613e80565b3480156106a257600080fd5b506102816106b1366004613bf4565b61246e565b3480156106c257600080fd5b506103526106d13660046136df565b612494565b3480156106e257600080fd5b506103256106f1366004613938565b6124fb565b34801561070257600080fd5b506102b7610711366004613bf4565b61250d565b34801561072257600080fd5b506102b7610731366004613b4b565b6125cb565b34801561074257600080fd5b506102b7610751366004613698565b6126a4565b34801561076257600080fd5b506102b7610771366004613698565b612776565b34801561078257600080fd5b50610325612879565b34801561079757600080fd5b506103256107a6366004613698565b61287f565b3480156107b757600080fd5b506102b76107c6366004613adb565b612891565b7f000000000000000000000000000000000000000000000000000000000000000081565b60026000541415610847576040805162461bcd60e51b815260206004820152601f60248201527f5265656e7472616e637947756172643a207265656e7472616e742063616c6c00604482015290519081900360640190fd5b60026000556001600160a01b03821661087b5760405162461bcd60e51b8152600401610872906140dc565b60405180910390fd5b336000908152600460205260409020546108959082612b5f565b336000908152600460205260408082209290925590516001600160a01b0384169083906108c190613de5565b60006040518083038185875af1925050503d80600081146108fe576040519150601f19603f3d011682016040523d82523d6000602084013e610903565b606091505b50509050806109245760405162461bcd60e51b815260040161087290614060565b826001600160a01b0316336001600160a01b03167f3bfd26201736b5cb14a562ab3cfc2bef76901726e3a78483d6288af47131e1d9846040516109679190613ea3565b60405180910390a35050600160005550565b6002546001600160a01b031681565b6003546001600160a01b031681565b60086020908152600092835260408084208252918352918190208054825160026001831615610100026000190190921691909104601f810185900485028201850190935282815292909190830182828015610a335780601f10610a0857610100808354040283529160200191610a33565b820191906000526020600020905b815481529060010190602001808311610a1657829003601f168201915b505050505081565b600381565b6007602052600090815260409020805460019091015461ffff808316926001600160401b036201000082048116936001600160a01b03600160501b8404811694600160f01b9094049093169291811691600160401b9091041686565b600681565b6000806000610ab08a8a612bbc565b905060608415610af95785858080601f016020809104026020016040519081016040528093929190818152602001838380828437600092019190915250929350610baa92505050565b61ffff808c166000908152600860209081526040808320606087015190941683529281529082902080548351601f600260001961010060018616150201909316929092049182018490048402810184019094528084529091830182828015610ba25780601f10610b7757610100808354040283529160200191610ba2565b820191906000526020600020905b815481529060010190602001808311610b8557829003601f168201915b505050505090505b600082604001516001600160a01b031663c03f15298d85606001518e8e8e9050876040518663ffffffff1660e01b8152600401610beb9594939291906148c2565b60206040518083038186803b158015610c0357600080fd5b505afa158015610c17573d6000803e3d6000fd5b505050506040513d601f19601f82011682018060405250810190610c3b9190613d08565b905060008b905060008460a001516001600160a01b0316635553fb8e8f87606001518860800151866040518563ffffffff1660e01b8152600401610c8294939291906148ff565b60206040518083038186803b158015610c9a57600080fd5b505afa158015610cae573d6000803e3d6000fd5b505050506040513d601f19601f82011682018060405250810190610cd29190613d08565b600354604051635cbbbd7560e01b81529192506000916001600160a01b0390911690635cbbbd7590610d0c908e9088908790600401613e8b565b60206040518083038186803b158015610d2457600080fd5b505afa158015610d38573d6000803e3d6000fd5b505050506040513d601f19601f82011682018060405250810190610d5c9190613d08565b90508a610d6c5780975087610d71565b809650865b50610d8682610d808a87612d34565b90612d34565b975050505050505097509795505050505050565b600281565b7f00000000000000000000000000000000000000000000000000000000000000006001600160a01b03163314610de75760405162461bcd60e51b8152600401610872906145e0565b61ffff89166000908152600e60205260409020548b908a90610e1b5760405162461bcd60e51b815260040161087290613fae565b61ffff81166000908152600c6020526040812054606091908015801590610e445750601481018c145b610e605760405162461bcd60e51b815260040161087290614665565b6000808e8e8080601f01602080910402602001604051908101604052809392919081815260200183838082843760009201919091525050505083810160140151925090506001600160a01b0387811690831614610ecf5760405162461bcd60e51b815260040161087290614361565b8e8e6000908592610ee2939291906149c1565b8080601f01602080910402602001604051908101604052809392919081815260200183838082843760009201919091525050604051636fe7b67360e01b8152929750506001600160a01b037f00000000000000000000000000000000000000000000000000000000000000001691636fe7b6739150610f699089908b90869060040161480c565b602060405180830381600087803b158015610f8357600080fd5b505af1158015610f97573d6000803e3d6000fd5b505050506040513d601f19601f82011682018060405250810190610fbb9190613d3c565b935050505060008a8a8080601f01602080910402602001604051908101604052809392919081815260200183838082843760009201829052509394506110079250879150889050612bbc565b9050600061104f86838986518d8d8080601f016020809104026020016040519081016040528093929190818152602001838380828437600092019190915250612d8e92505050565b9050600061105e87848a612f31565b9050600061106e83838b8f612fd2565b9050600061108082610d808686612d34565b9050348111156110a25760405162461bcd60e51b815260040161087290614097565b60006110ae3483612b5f565b905080156111345760008f6001600160a01b0316826040516110cf90613de5565b60006040518083038185875af1925050503d806000811461110c576040519150601f19603f3d011682016040523d82523d6000602084013e611111565b606091505b50509050806111325760405162461bcd60e51b8152600401610872906141b4565b505b6000887f00000000000000000000000000000000000000000000000000000000000000008d8d8d8c60405160200161117196959493929190613de8565b60405160208183030381529060405290507fe9bded5f24a4168e4f3bf44e00298c993b22376aad8c58c7dda9718a54cbea82816040516111b19190613f01565b60405180910390a15050505050505050505050505050505050505050505050565b6001600160a01b038216600090815260066020908152604080832061ffff871684529091529020606090600183141561126657805461ffff166112505761ffff808616600090815260076020908152604091829020549151611239939290921691016147fd565b6040516020818303038152906040529150506114ba565b80546040516112399161ffff16906020016147fd565b60028314156112d95780546201000090046001600160401b03166112b85761ffff8516600090815260076020908152604091829020549151611239926201000090046001600160401b0316910161498a565b8054604051611239916201000090046001600160401b03169060200161498a565b600383141561134f578054600160501b90046001600160a01b031661132d5761ffff851660009081526007602090815260409182902054915161123992600160501b90046001600160a01b03169101613e6c565b805460405161123991600160501b90046001600160a01b031690602001613e6c565b60048314156113b7578054600160f01b900461ffff1661139a5761ffff80861660009081526007602090815260409182902054915161123993600160f01b90930490921691016147fd565b805460405161123991600160f01b900461ffff16906020016147fd565b60058314156114215760018101546001600160401b03166114035761ffff8516600090815260076020908152604091829020600101549151611239926001600160401b0316910161498a565b6001810154604051611239916001600160401b03169060200161498a565b60068314156114a0576001810154600160401b90046001600160a01b031661147b5761ffff851660009081526007602090815260409182902060010154915161123992600160401b90046001600160a01b03169101613e6c565b600181015460405161123991600160401b90046001600160a01b031690602001613e6c565b60405162461bcd60e51b815260040161087290614029565b505b9392505050565b6114c9613123565b6001600160a01b03166114da611ef4565b6001600160a01b031614611523576040805162461bcd60e51b81526020600482018190526024820152600080516020614a79833981519152604482015290519081900360640190fd5b6001600160a01b0381166115495760405162461bcd60e51b815260040161087290614121565b600280546001600160a01b0319166001600160a01b0383169081179091556040517f33d644987381deff4408951d55afa136f124e22a7810b163b2aaa3ebef770f6490600090a250565b7f000000000000000000000000000000000000000000000000000000000000000081565b7f000000000000000000000000000000000000000000000000000000000000000081565b6001600160a01b0381166000908152600460205260409020545b919050565b611602613123565b6001600160a01b0316611613611ef4565b6001600160a01b03161461165c576040805162461bcd60e51b81526020600482018190526024820152600080516020614a79833981519152604482015290519081900360640190fd5b61ffff8088166000908152600a6020526040902054811690871611801590611688575060008661ffff16115b6116a45760405162461bcd60e51b815260040161087290614481565b6000856001600160401b0316116116cd5760405162461bcd60e51b8152600401610872906146fd565b6001600160a01b0384166116f35760405162461bcd60e51b815260040161087290614172565b61ffff8088166000908152600b602090815260408083209387168352929052205460ff166117335760405162461bcd60e51b815260040161087290613f68565b6000826001600160401b03161161175c5760405162461bcd60e51b815260040161087290614617565b6001600160a01b0381166117825760405162461bcd60e51b81526004016108729061426d565b6040518060c001604052808761ffff168152602001866001600160401b03168152602001856001600160a01b031681526020018461ffff168152602001836001600160401b03168152602001826001600160a01b0316815250600760008961ffff1661ffff16815260200190815260200160002060008201518160000160006101000a81548161ffff021916908361ffff16021790555060208201518160000160026101000a8154816001600160401b0302191690836001600160401b03160217905550604082015181600001600a6101000a8154816001600160a01b0302191690836001600160a01b03160217905550606082015181600001601e6101000a81548161ffff021916908361ffff16021790555060808201518160010160006101000a8154816001600160401b0302191690836001600160401b0316021790555060a08201518160010160086101000a8154816001600160a01b0302191690836001600160a01b031602179055509050508661ffff167f5a76432853a0871c4e780def7f3ffc7912339b53f022ac31127fe5ff84a36fa187878787878760405161193196959493929190614934565b60405180910390a250505050505050565b336000908152600d6020908152604080832061ffff88168452825280832086845282528083208484529091529020548281106119905760405162461bcd60e51b8152600401610872906143e1565b336000818152600d6020908152604080832061ffff8a1680855290835281842089855283528184208785529092529182902086905590517f74bbc026808dcba59692d6a8bb20596849ca718e10e2432c6cdf48af865bc5d9906119f890889087908990613eac565b60405180910390a35050505050565b611a0f613123565b6001600160a01b0316611a20611ef4565b6001600160a01b031614611a69576040805162461bcd60e51b81526020600482018190526024820152600080516020614a79833981519152604482015290519081900360640190fd5b6001546040516000916001600160a01b0316907f8be0079c531659141344cd1fd0a4f28419497f9722a3daafe3b4186f6b6457e0908390a3600180546001600160a01b0319169055565b600d60209081526000948552604080862082529385528385208152918452828420909152825290205481565b600481565b611aec613123565b6001600160a01b0316611afd611ef4565b6001600160a01b031614611b46576040805162461bcd60e51b81526020600482018190526024820152600080516020614a79833981519152604482015290519081900360640190fd5b6001600160a01b038116611b6c5760405162461bcd60e51b815260040161087290614398565b61ffff8083166000908152600a60205260409020548116908110611ba25760405162461bcd60e51b81526004016108729061459e565b61ffff8381166000818152600a60209081526040808320805461ffff191660019790970195861696871790556009825280832095835294905283902080546001600160a01b0319166001600160a01b03861617905591519091907f802d55279d51813cb7a9a98e8fd2d7bec5346cb830901c11b85d1650cb857e9a90611c29908590613e6c565b60405180910390a2505050565b611c3e613123565b6001600160a01b0316611c4f611ef4565b6001600160a01b031614611c98576040805162461bcd60e51b81526020600482018190526024820152600080516020614a79833981519152604482015290519081900360640190fd5b61ffff8085166000908152600860209081526040808320938716835292905220611cc39083836134a1565b508261ffff168461ffff167f4a5695eee2a74d548d5f5c485a3de99ace99e3b664c8e30a90f49be6ebb549328484604051611cff929190613eed565b60405180910390a350505050565b60026000541415611d65576040805162461bcd60e51b815260206004820152601f60248201527f5265656e7472616e637947756172643a207265656e7472616e742063616c6c00604482015290519081900360640190fd5b60026000556003546001600160a01b03163314611d945760405162461bcd60e51b815260040161087290613ff2565b600554611da19082612b5f565b600555600254611dbb906001600160a01b03168383613127565b816001600160a01b0316336001600160a01b03167f3a20c8c3cd1848485ae8261a52398bb9b26f195b717306b3cf7f058e62c095d583604051611dfe9190613ea3565b60405180910390a350506001600055565b611e17613123565b6001600160a01b0316611e28611ef4565b6001600160a01b031614611e71576040805162461bcd60e51b81526020600482018190526024820152600080516020614a79833981519152604482015290519081900360640190fd5b61ffff82166000908152600c602052604090205415611ea25760405162461bcd60e51b8152600401610872906146ad565b61ffff82166000818152600c602052604090819020839055517f0611bb2107e385b79ec826fff8ecc1c1248a7aae3c875c96668f8cfbf173422090611ee8908490613ea3565b60405180910390a25050565b6001546001600160a01b031690565b600581565b600c6020526000908152604090205481565b6000611f268888612bbc565b60408101519091506001600160a01b03163314611f555760405162461bcd60e51b81526004016108729061432a565b611f5d61352d565b61ffff89166000908152600c602052604090205480611f8e5760405162461bcd60e51b815260040161087290614665565b60a08301516001600160a01b03166000908152600d6020908152604080832061ffff8e16845282528083208a845282528083208984529091529020548015801590611fe6575083602001516001600160401b03168110155b6120025760405162461bcd60e51b81526004016108729061474a565b61ffff808c1660009081526009602090815260408083208851909416835292905281902054905163b71e0f7160e01b81526001600160a01b0390911690819063b71e0f719061205b908b908b908b908990600401613ec2565b600060405180830381600087803b15801561207557600080fd5b505af1158015612089573d6000803e3d6000fd5b505050506040513d6000823e601f3d908101601f191682016040526120b1919081019061385d565b60a081015161ffff8e166000908152600e60205260409020549195501491505080156120e0575060a082015115155b6120fc5760405162461bcd60e51b8152600401610872906142ae565b8961ffff16826000015161ffff16146121275760405162461bcd60e51b8152600401610872906142f3565b808260800151511461214b5760405162461bcd60e51b8152600401610872906144d1565b7f000000000000000000000000000000000000000000000000000000000000000061ffff16826020015161ffff16146121965760405162461bcd60e51b81526004016108729061444a565b886001600160a01b031682606001516001600160a01b0316146121cb5760405162461bcd60e51b815260040161087290614236565b6121d48961317e565b6122455781606001516001600160a01b0316826000015161ffff167fa2786598bd84ae4a299103996359e6cb4333404583256079dfc279386baf5832846080015185604001518660c001518051906020012060405161223593929190613f3a565b60405180910390a350505061236d565b600082608001518360600151604051602001612262929190613dae565b604051602081830303815290604052905082606001516001600160a01b0316836000015161ffff167f2bd2d8a84b748439fd50d79a49502b4eb5faa25b864da6a9ab5c150704be9a4d856080015186604001518760c00151805190602001206040516122d093929190613f3a565b60405180910390a37f00000000000000000000000000000000000000000000000000000000000000006001600160a01b031663c2fa48138c838d87604001518e8960c001516040518763ffffffff1660e01b815260040161233696959493929190614861565b600060405180830381600087803b15801561235057600080fd5b505af1158015612364573d6000803e3d6000fd5b50505050505050505b50505050505050565b61237e61356b565b6114ba8383612bbc565b600181565b600a6020526000908152604090205461ffff1681565b60405163c533338f60e01b81526000906001600160a01b037f0000000000000000000000000000000000000000000000000000000000000000169063c533338f906123f690879087908790600401614843565b60206040518083038186803b15801561240e57600080fd5b505afa158015612422573d6000803e3d6000fd5b505050506040513d601f19601f820116820180604052508101906124469190613d3c565b949350505050565b600b60209081526000928352604080842090915290825290205460ff1681565b60096020908152600092835260408084209091529082529020546001600160a01b031681565b60066020908152600092835260408084209091529082529020805460019091015461ffff808316926001600160401b036201000082048116936001600160a01b03600160501b8404811694600160f01b9094049093169291811691600160401b9091041686565b600e6020526000908152604090205481565b612515613123565b6001600160a01b0316612526611ef4565b6001600160a01b03161461256f576040805162461bcd60e51b81526020600482018190526024820152600080516020614a79833981519152604482015290519081900360640190fd5b61ffff8083166000818152600b602090815260408083209486168352939052829020805460ff1916600117905590517fec23bee6f88cfecebb09d6aaaed66f0ce110debc1f61117c8270a7116597df9a90611ee89084906147fd565b6125d3613123565b6001600160a01b03166125e4611ef4565b6001600160a01b03161461262d576040805162461bcd60e51b81526020600482018190526024820152600080516020614a79833981519152604482015290519081900360640190fd5b61ffff82166000908152600e60205260409020541561265e5760405162461bcd60e51b81526004016108729061455d565b61ffff82166000818152600e602052604090819020839055517f0dad975e1d2fbe771c95cdcc7be9a1e61181de7173abe0a32b8f8f83140873e590611ee8908490613ea3565b6126ac613123565b6001600160a01b03166126bd611ef4565b6001600160a01b031614612706576040805162461bcd60e51b81526020600482018190526024820152600080516020614a79833981519152604482015290519081900360640190fd5b6001600160a01b03811661272c5760405162461bcd60e51b815260040161087290614513565b600380546001600160a01b0319166001600160a01b0383169081179091556040517fcb7ef3e545f5cdb893f5c568ba710fe08f336375a2d9fd66e161033f8fc09ef390600090a250565b61277e613123565b6001600160a01b031661278f611ef4565b6001600160a01b0316146127d8576040805162461bcd60e51b81526020600482018190526024820152600080516020614a79833981519152604482015290519081900360640190fd5b6001600160a01b03811661281d5760405162461bcd60e51b8152600401808060200182810382526026815260200180614a536026913960400191505060405180910390fd5b6001546040516001600160a01b038084169216907f8be0079c531659141344cd1fd0a4f28419497f9722a3daafe3b4186f6b6457e090600090a3600180546001600160a01b0319166001600160a01b0392909216919091179055565b60055481565b60046020526000908152604090205481565b7f00000000000000000000000000000000000000000000000000000000000000006001600160a01b031633146128d95760405162461bcd60e51b8152600401610872906145e0565b6001600160a01b038416600090815260066020908152604080832061ffff891684529091529020600184141561296957600061291783850185613938565b61ffff8089166000908152600a602052604090205491925090811690821611156129535760405162461bcd60e51b815260040161087290614481565b815461ffff191661ffff91909116178155612b13565b60028414156129aa57600061298083850185613d20565b82546001600160401b03909116620100000269ffffffffffffffff00001990911617825550612b13565b6003841415612a015760006129c183850185613698565b82546001600160a01b03909116600160501b027fffff0000000000000000000000000000000000000000ffffffffffffffffffff90911617825550612b13565b6004841415612a89576000612a1883850185613938565b61ffff8089166000908152600b602090815260408083209385168352929052205490915060ff1680612a4c575061ffff8116155b612a685760405162461bcd60e51b815260040161087290613f68565b815461ffff909116600160f01b026001600160f01b03909116178155612b13565b6005841415612ac9576000612aa083850185613d20565b60018301805467ffffffffffffffff19166001600160401b039290921691909117905550612b13565b60068414156114a0576000612ae083850185613698565b6001830180546001600160a01b03909216600160401b0268010000000000000000600160e01b0319909216919091179055505b83856001600160a01b03167ffc01bf86212a14151d51d1be5c2ac64d67d5ec823dfc6f53298d7ce3f3d3d2528585604051612b4f929190613eed565b60405180910390a3505050505050565b600082821115612bb6576040805162461bcd60e51b815260206004820152601e60248201527f536166654d6174683a207375627472616374696f6e206f766572666c6f770000604482015290519081900360640190fd5b50900390565b612bc461356b565b6001600160a01b03808316600090815260066020908152604080832061ffff808916808652918452828520835160c081018552815480841682526001600160401b03620100008204811683890152600160501b82048a1683880152600160f01b909104841660608301526001909201549182166080820152600160401b90910490961660a087015290845260079092529091208251909116612c6957805461ffff1682525b60208201516001600160401b0316612c925780546201000090046001600160401b031660208301525b60408201516001600160a01b0316612cbc578054600160501b90046001600160a01b031660408301525b606082015161ffff16612cdc578054600160f01b900461ffff1660608301525b60808201516001600160401b0316612d025760018101546001600160401b031660808301525b60a08201516001600160a01b03166114b85760010154600160401b90046001600160a01b031660a08201529392505050565b6000828201838110156114ba576040805162461bcd60e51b815260206004820152601b60248201527f536166654d6174683a206164646974696f6e206f766572666c6f770000000000604482015290519081900360640190fd5b6000815160001415612e4b5761ffff808716600090815260086020908152604080832060608a015190941683529281529082902080548351601f600260001961010060018616150201909316929092049182018490048402810184019094528084529091830182828015612e435780601f10612e1857610100808354040283529160200191612e43565b820191906000526020600020905b815481529060010190602001808311612e2657829003601f168201915b505050505091505b60408086015160608701519151635886ea6560e01b8152909182916001600160a01b03831691635886ea6591612e8b918c918b908b908b906004016148c2565b602060405180830381600087803b158015612ea557600080fd5b505af1158015612eb9573d6000803e3d6000fd5b505050506040513d601f19601f82011682018060405250810190612edd9190613d08565b9250612ee98284613184565b7fb0c632f55f1e1b3b2c3d82f41ee4716bb4c00f0f5d84cdafc141581bb8757a4f848860600151604051612f1e929190613f14565b60405180910390a1505095945050505050565b60a08201516060830151608084015160405163c5e193cd60e01b8152600093926001600160a01b0384169263c5e193cd92612f74928a92909189906004016148ff565b602060405180830381600087803b158015612f8e57600080fd5b505af1158015612fa2573d6000803e3d6000fd5b505050506040513d601f19601f82011682018060405250810190612fc69190613d08565b91506114b88183613184565b6000806001600160a01b0383161580612ff457506002546001600160a01b0316155b600354604051635cbbbd7560e01b81529192506000916001600160a01b0390911690635cbbbd759061302f908515908b908b90600401613e8b565b60206040518083038186803b15801561304757600080fd5b505afa15801561305b573d6000803e3d6000fd5b505050506040513d601f19601f8201168201806040525081019061307f9190613d08565b905080156131195781156130ac576003546001600160a01b03166130a38183613184565b81935050613119565b846001600160a01b0316846001600160a01b031614806130d457506001600160a01b03841632145b6130f05760405162461bcd60e51b8152600401610872906141eb565b600254613108906001600160a01b03168530846131c7565b6005546131159082612d34565b6005555b5050949350505050565b3390565b604080516001600160a01b038416602482015260448082018490528251808303909101815260649091019091526020810180516001600160e01b031663a9059cbb60e01b179052613179908490613227565b505050565b3b151590565b6001600160a01b0382166000908152600460205260409020546131a79082612d34565b6001600160a01b0390921660009081526004602052604090209190915550565b604080516001600160a01b0380861660248301528416604482015260648082018490528251808303909101815260849091019091526020810180516001600160e01b03166323b872dd60e01b179052613221908590613227565b50505050565b600061327c826040518060400160405280602081526020017f5361666545524332303a206c6f772d6c6576656c2063616c6c206661696c6564815250856001600160a01b03166132d89092919063ffffffff16565b8051909150156131795780806020019051602081101561329b57600080fd5b50516131795760405162461bcd60e51b815260040180806020018281038252602a815260200180614a99602a913960400191505060405180910390fd5b60606124468484600085856132ec8561317e565b61333d576040805162461bcd60e51b815260206004820152601d60248201527f416464726573733a2063616c6c20746f206e6f6e2d636f6e7472616374000000604482015290519081900360640190fd5b600080866001600160a01b031685876040518082805190602001908083835b6020831061337b5780518252601f19909201916020918201910161335c565b6001836020036101000a03801982511681845116808217855250505050505090500191505060006040518083038185875af1925050503d80600081146133dd576040519150601f19603f3d011682016040523d82523d6000602084013e6133e2565b606091505b50915091506133f28282866133fd565b979650505050505050565b6060831561340c5750816114ba565b82511561341c5782518084602001fd5b8160405162461bcd60e51b81526004018080602001828103825283818151815260200191508051906020019080838360005b8381101561346657818101518382015260200161344e565b50505050905090810190601f1680156134935780820380516001836020036101000a031916815260200191505b509250505060405180910390fd5b828054600181600116156101000203166002900490600052602060002090601f0160209004810192826134d7576000855561351d565b82601f106134f05782800160ff1982351617855561351d565b8280016001018555821561351d579182015b8281111561351d578235825591602001919060010190613502565b506135299291506135a0565b5090565b6040805160e08101825260008082526020820181905291810182905260608082018390526080820181905260a082019290925260c081019190915290565b6040805160c081018252600080825260208201819052918101829052606081018290526080810182905260a081019190915290565b5b8082111561352957600081556001016135a1565b80356115f581614a15565b80516115f581614a15565b60008083601f8401126135dc578182fd5b5081356001600160401b038111156135f2578182fd5b60208301915083602082850101111561360a57600080fd5b9250929050565b600082601f830112613621578081fd5b81516001600160401b0381111561363457fe5b613647601f8201601f191660200161499e565b81815284602083860101111561365b578283fd5b6124468260208301602087016149e9565b80356115f581614a2d565b80516115f581614a2d565b80356115f581614a3d565b80516115f581614a3d565b6000602082840312156136a9578081fd5b81356114ba81614a15565b600080604083850312156136c6578081fd5b82356136d181614a15565b946020939093013593505050565b600080604083850312156136f1578182fd5b82356136fc81614a15565b9150602083013561370c81614a2d565b809150509250929050565b6000806000806080858703121561372c578182fd5b843561373781614a15565b9350602085013561374781614a2d565b93969395505050506040820135916060013590565b600080604083850312156136c6578182fd5b60008060008060008060008060008060006101008c8e03121561378f578687fd5b6137988c6135b5565b9a506137a660208d01613682565b99506137b460408d0161366c565b98506001600160401b038060608e013511156137ce578788fd5b6137de8e60608f01358f016135cb565b909950975060808d01358110156137f3578687fd5b6138038e60808f01358f016135cb565b909750955061381460a08e016135b5565b945061382260c08e016135b5565b93508060e08e01351115613834578283fd5b506138458d60e08e01358e016135cb565b81935080925050509295989b509295989b9093969950565b60006020828403121561386e578081fd5b81516001600160401b0380821115613884578283fd5b9083019060e08286031215613897578283fd5b6138a160e061499e565b6138aa83613677565b81526138b860208401613677565b60208201526138c96040840161368d565b60408201526138da606084016135c0565b60608201526080830151828111156138f0578485fd5b6138fc87828601613611565b60808301525060a083015160a082015260c08301518281111561391d578485fd5b61392987828601613611565b60c08301525095945050505050565b600060208284031215613949578081fd5b81356114ba81614a2d565b60008060408385031215613966578182fd5b823561397181614a2d565b9150602083013561370c81614a15565b600080600080600080600060a0888a03121561399b578081fd5b87356139a681614a2d565b965060208801356139b681614a15565b955060408801356001600160401b03808211156139d1578283fd5b6139dd8b838c016135cb565b909750955060608a0135915081151582146139f6578283fd5b90935060808901359080821115613a0b578283fd5b50613a188a828b016135cb565b989b979a50959850939692959293505050565b600080600060608486031215613a3f578081fd5b8335613a4a81614a2d565b92506020840135613a5a81614a15565b929592945050506040919091013590565b600080600080600080600060c0888a031215613a85578081fd5b8735613a9081614a2d565b96506020880135613aa081614a15565b955060408801359450606088013593506080880135925060a08801356001600160401b03811115613acf578182fd5b613a188a828b016135cb565b600080600080600060808688031215613af2578283fd5b8535613afd81614a2d565b94506020860135613b0d81614a15565b93506040860135925060608601356001600160401b03811115613b2e578182fd5b613b3a888289016135cb565b969995985093965092949392505050565b60008060408385031215613b5d578182fd5b82356136d181614a2d565b60008060008060808587031215613b7d578182fd5b8435613b8881614a2d565b966020860135965060408601359560600135945092505050565b600080600060408486031215613bb6578081fd5b8335613bc181614a2d565b925060208401356001600160401b03811115613bdb578182fd5b613be7868287016135cb565b9497909650939450505050565b60008060408385031215613c06578182fd5b82356136fc81614a2d565b60008060008060608587031215613c26578182fd5b8435613c3181614a2d565b93506020850135613c4181614a2d565b925060408501356001600160401b03811115613c5b578283fd5b613c67878288016135cb565b95989497509550505050565b600080600080600080600060e0888a031215613c8d578081fd5b8735613c9881614a2d565b96506020880135613ca881614a2d565b95506040880135613cb881614a3d565b94506060880135613cc881614a15565b93506080880135613cd881614a2d565b925060a0880135613ce881614a3d565b915060c0880135613cf881614a15565b8091505092959891949750929550565b600060208284031215613d19578081fd5b5051919050565b600060208284031215613d31578081fd5b81356114ba81614a3d565b600060208284031215613d4d578081fd5b81516114ba81614a3d565b60008284528282602086013780602084860101526020601f19601f85011685010190509392505050565b60008151808452613d9a8160208601602086016149e9565b601f01601f19169290920160200192915050565b60008351613dc08184602088016149e9565b60609390931b6bffffffffffffffffffffffff19169190920190815260140192915050565b90565b60006001600160401b0360c01b8860c01b16825261ffff60f01b808860f01b1660088401526bffffffffffffffffffffffff198760601b16600a840152808660f01b16601e840152508351613e448160208501602088016149e9565b80830190508351613e5c8160208401602088016149e9565b0160200198975050505050505050565b6001600160a01b0391909116815260200190565b901515815260200190565b92151583526020830191909152604082015260600190565b90815260200190565b9283526020830191909152604082015260600190565b600085825260606020830152613edc606083018587613d58565b905082604083015295945050505050565b600060208252612446602083018486613d58565b6000602082526114ba6020830184613d82565b600060408252613f276040830185613d82565b905061ffff831660208301529392505050565b600060608252613f4d6060830186613d82565b6001600160401b039490941660208301525060400152919050565b60208082526026908201527f4c617965725a65726f3a20696e76616c6964206f7574626f756e642070726f6f60408201526566207479706560d01b606082015260800190565b60208082526024908201527f4c617965725a65726f3a20647374436861696e496420646f6573206e6f7420656040820152631e1a5cdd60e21b606082015260800190565b60208082526018908201527f4c617965725a65726f3a206f6e6c792074726561737572790000000000000000604082015260600190565b6020808252601e908201527f4c617965725a65726f3a20496e76616c696420636f6e66696720747970650000604082015260600190565b6020808252601a908201527f4c617965725a65726f3a207769746864726177206661696c6564000000000000604082015260600190565b60208082526025908201527f4c617965725a65726f3a206e6f7420656e6f756768206e617469766520666f72604082015264206665657360d81b606082015260800190565b60208082526025908201527f4c617965725a65726f3a205f746f2063616e6e6f74206265207a65726f206164604082015264647265737360d81b606082015260800190565b60208082526031908201527f4c617965725a65726f3a205f6c617965725a65726f546f6b656e2063616e6e6f60408201527074206265207a65726f206164647265737360781b606082015260800190565b60208082526022908201527f4c617965725a65726f3a20696e76616c69642072656c61796572206164647265604082015261737360f01b606082015260800190565b6020808252601b908201527f4c617965725a65726f3a206661696c656420746f20726566756e640000000000604082015260600190565b6020808252602b908201527f4c617965725a65726f3a206d75737420626520706169642062792073656e646560408201526a391037b91037b934b3b4b760a91b606082015260800190565b6020808252601d908201527f4c617965725a65726f3a20696e76616c69642064737441646472657373000000604082015260600190565b60208082526021908201527f4c617965725a65726f3a20696e76616c6964206f7261636c65206164647265736040820152607360f81b606082015260800190565b60208082526025908201527f4c617965725a65726f3a20696e76616c6964205f7061636b65742e756c6e4164604082015264647265737360d81b606082015260800190565b6020808252601e908201527f4c617965725a65726f3a20696e76616c696420737263436861696e2049640000604082015260600190565b6020808252601a908201527f4c617965725a65726f3a20696e76616c69642072656c61796572000000000000604082015260600190565b6020808252601a908201527f4c617965725a65726f3a2077726f6e6720706174682064617461000000000000604082015260600190565b60208082526029908201527f4c617965725a65726f3a206c6962726172792063616e6e6f74206265207a65726040820152686f206164647265737360b81b606082015260800190565b60208082526043908201527f4c617965725a65726f3a206f7261636c6520646174612063616e206f6e6c792060408201527f75706461746520696620697420686173206d6f726520636f6e6669726d6174696060820152626f6e7360e81b608082015260a00190565b6020808252601e908201527f4c617965725a65726f3a20696e76616c696420647374436861696e2049640000604082015260600190565b60208082526030908201527f4c617965725a65726f3a20696e76616c696420696e626f756e642070726f6f6660408201526f103634b13930b93c903b32b939b4b7b760811b606082015260800190565b60208082526022908201527f4c617965725a65726f3a20696e76616c696420737263416464726573732073696040820152617a6560f01b606082015260800190565b6020808252602a908201527f4c617965725a65726f3a2074726561737572792063616e6e6f74206265207a65604082015269726f206164647265737360b01b606082015260800190565b60208082526021908201527f4c617965725a65726f3a2072656d6f746520756c6e20616c72656164792073656040820152601d60fa1b606082015260800190565b60208082526022908201527f4c617965725a65726f3a2063616e206e6f7420616464206e6577206c69627261604082015261727960f01b606082015260800190565b60208082526018908201527f4c617965725a65726f3a206f6e6c7920656e64706f696e740000000000000000604082015260600190565b6020808252602e908201527f4c617965725a65726f3a20696e76616c6964206f7574626f756e6420626c6f6360408201526d359031b7b73334b936b0ba34b7b760911b606082015260800190565b60208082526028908201527f4c617965725a65726f3a20696e636f72726563742072656d6f746520616464726040820152676573732073697a6560c01b606082015260800190565b60208082526030908201527f4c617965725a65726f3a2072656d6f746520636861696e20616464726573732060408201526f1cda5e9948185b1c9958591e481cd95d60821b606082015260800190565b6020808252602d908201527f4c617965725a65726f3a20696e76616c696420696e626f756e6420626c6f636b60408201526c1031b7b73334b936b0ba34b7b760991b606082015260800190565b60208082526029908201527f4c617965725a65726f3a206e6f7420656e6f75676820626c6f636b20636f6e6660408201526869726d6174696f6e7360b81b606082015260800190565b600060c08201905061ffff80845116835260208401516001600160401b0380821660208601526040860151915060018060a01b0380831660408701528360608801511660608701528160808801511660808701528060a08801511660a08701525050505092915050565b61ffff91909116815260200190565b61ffff841681526001600160a01b038316602082015260606040820181905260009061483a90830184613d82565b95945050505050565b600061ffff851682526040602083015261483a604083018486613d58565b600061ffff8816825260c0602083015261487e60c0830188613d82565b6001600160a01b03871660408401526001600160401b03861660608401526080830185905282810360a08401526148b58185613d82565b9998505050505050505050565b61ffff8681168252851660208201526001600160a01b03841660408201526060810183905260a0608082018190526000906133f290830184613d82565b61ffff94851681529290931660208301526001600160401b031660408201526001600160a01b03909116606082015260800190565b61ffff96871681526001600160401b0395861660208201526001600160a01b03948516604082015292909516606083015290921660808301529190911660a082015260c00190565b918252602082015260400190565b6001600160401b0391909116815260200190565b6040518181016001600160401b03811182821017156149b957fe5b604052919050565b600080858511156149d0578182fd5b838611156149dc578182fd5b5050820193919092039150565b60005b83811015614a045781810151838201526020016149ec565b838111156132215750506000910152565b6001600160a01b0381168114614a2a57600080fd5b50565b61ffff81168114614a2a57600080fd5b6001600160401b0381168114614a2a57600080fdfe4f776e61626c653a206e6577206f776e657220697320746865207a65726f20616464726573734f776e61626c653a2063616c6c6572206973206e6f7420746865206f776e65725361666545524332303a204552433230206f7065726174696f6e20646964206e6f742073756363656564a264697066735822122019c65792faddabf67403588319c2f9eb71d7c13c9cb7a342c7d2e34e882d8efe64736f6c63430007060033",
  "devdoc": {
    "kind": "dev",
    "methods": {
      "owner()": {
        "details": "Returns the address of the current owner."
      },
      "renounceOwnership()": {
        "details": "Leaves the contract without owner. It will not be possible to call `onlyOwner` functions anymore. Can only be called by the current owner. NOTE: Renouncing ownership will leave the contract without an owner, thereby removing any functionality that is only available to the owner."
      },
      "transferOwnership(address)": {
        "details": "Transfers ownership of the contract to a new account (`newOwner`). Can only be called by the current owner."
      }
    },
    "version": 1
  },
  "userdoc": {
    "kind": "user",
    "methods": {},
    "version": 1
  },
  "storageLayout": {
    "storage": [
      {
        "astId": 2233,
        "contract": "contracts/V1Contracts/contracts/UltraLightNodeV2.sol:UltraLightNodeV2",
        "label": "_status",
        "offset": 0,
        "slot": "0",
        "type": "t_uint256"
      },
      {
        "astId": 493,
        "contract": "contracts/V1Contracts/contracts/UltraLightNodeV2.sol:UltraLightNodeV2",
        "label": "_owner",
        "offset": 0,
        "slot": "1",
        "type": "t_address"
      },
      {
        "astId": 10950,
        "contract": "contracts/V1Contracts/contracts/UltraLightNodeV2.sol:UltraLightNodeV2",
        "label": "layerZeroToken",
        "offset": 0,
        "slot": "2",
        "type": "t_contract(IERC20)1690"
      },
      {
        "astId": 10952,
        "contract": "contracts/V1Contracts/contracts/UltraLightNodeV2.sol:UltraLightNodeV2",
        "label": "treasuryContract",
        "offset": 0,
        "slot": "3",
        "type": "t_contract(ILayerZeroTreasury)17532"
      },
      {
        "astId": 10956,
        "contract": "contracts/V1Contracts/contracts/UltraLightNodeV2.sol:UltraLightNodeV2",
        "label": "nativeFees",
        "offset": 0,
        "slot": "4",
        "type": "t_mapping(t_address,t_uint256)"
      },
      {
        "astId": 10958,
        "contract": "contracts/V1Contracts/contracts/UltraLightNodeV2.sol:UltraLightNodeV2",
        "label": "treasuryZROFees",
        "offset": 0,
        "slot": "5",
        "type": "t_uint256"
      },
      {
        "astId": 10964,
        "contract": "contracts/V1Contracts/contracts/UltraLightNodeV2.sol:UltraLightNodeV2",
        "label": "appConfig",
        "offset": 0,
        "slot": "6",
        "type": "t_mapping(t_address,t_mapping(t_uint16,t_struct(ApplicationConfiguration)17663_storage))"
      },
      {
        "astId": 10968,
        "contract": "contracts/V1Contracts/contracts/UltraLightNodeV2.sol:UltraLightNodeV2",
        "label": "defaultAppConfig",
        "offset": 0,
        "slot": "7",
        "type": "t_mapping(t_uint16,t_struct(ApplicationConfiguration)17663_storage)"
      },
      {
        "astId": 10974,
        "contract": "contracts/V1Contracts/contracts/UltraLightNodeV2.sol:UltraLightNodeV2",
        "label": "defaultAdapterParams",
        "offset": 0,
        "slot": "8",
        "type": "t_mapping(t_uint16,t_mapping(t_uint16,t_bytes_storage))"
      },
      {
        "astId": 10980,
        "contract": "contracts/V1Contracts/contracts/UltraLightNodeV2.sol:UltraLightNodeV2",
        "label": "inboundProofLibrary",
        "offset": 0,
        "slot": "9",
        "type": "t_mapping(t_uint16,t_mapping(t_uint16,t_address))"
      },
      {
        "astId": 10984,
        "contract": "contracts/V1Contracts/contracts/UltraLightNodeV2.sol:UltraLightNodeV2",
        "label": "maxInboundProofLibrary",
        "offset": 0,
        "slot": "10",
        "type": "t_mapping(t_uint16,t_uint16)"
      },
      {
        "astId": 10990,
        "contract": "contracts/V1Contracts/contracts/UltraLightNodeV2.sol:UltraLightNodeV2",
        "label": "supportedOutboundProof",
        "offset": 0,
        "slot": "11",
        "type": "t_mapping(t_uint16,t_mapping(t_uint16,t_bool))"
      },
      {
        "astId": 10994,
        "contract": "contracts/V1Contracts/contracts/UltraLightNodeV2.sol:UltraLightNodeV2",
        "label": "chainAddressSizeMap",
        "offset": 0,
        "slot": "12",
        "type": "t_mapping(t_uint16,t_uint256)"
      },
      {
        "astId": 11004,
        "contract": "contracts/V1Contracts/contracts/UltraLightNodeV2.sol:UltraLightNodeV2",
        "label": "hashLookup",
        "offset": 0,
        "slot": "13",
        "type": "t_mapping(t_address,t_mapping(t_uint16,t_mapping(t_bytes32,t_mapping(t_bytes32,t_uint256))))"
      },
      {
        "astId": 11008,
        "contract": "contracts/V1Contracts/contracts/UltraLightNodeV2.sol:UltraLightNodeV2",
        "label": "ulnLookup",
        "offset": 0,
        "slot": "14",
        "type": "t_mapping(t_uint16,t_bytes32)"
      }
    ],
    "types": {
      "t_address": {
        "encoding": "inplace",
        "label": "address",
        "numberOfBytes": "20"
      },
      "t_bool": {
        "encoding": "inplace",
        "label": "bool",
        "numberOfBytes": "1"
      },
      "t_bytes32": {
        "encoding": "inplace",
        "label": "bytes32",
        "numberOfBytes": "32"
      },
      "t_bytes_storage": {
        "encoding": "bytes",
        "label": "bytes",
        "numberOfBytes": "32"
      },
      "t_contract(IERC20)1690": {
        "encoding": "inplace",
        "label": "contract IERC20",
        "numberOfBytes": "20"
      },
      "t_contract(ILayerZeroTreasury)17532": {
        "encoding": "inplace",
        "label": "contract ILayerZeroTreasury",
        "numberOfBytes": "20"
      },
      "t_mapping(t_address,t_mapping(t_uint16,t_mapping(t_bytes32,t_mapping(t_bytes32,t_uint256))))": {
        "encoding": "mapping",
        "key": "t_address",
        "label": "mapping(address => mapping(uint16 => mapping(bytes32 => mapping(bytes32 => uint256))))",
        "numberOfBytes": "32",
        "value": "t_mapping(t_uint16,t_mapping(t_bytes32,t_mapping(t_bytes32,t_uint256)))"
      },
      "t_mapping(t_address,t_mapping(t_uint16,t_struct(ApplicationConfiguration)17663_storage))": {
        "encoding": "mapping",
        "key": "t_address",
        "label": "mapping(address => mapping(uint16 => struct ILayerZeroUltraLightNodeV2.ApplicationConfiguration))",
        "numberOfBytes": "32",
        "value": "t_mapping(t_uint16,t_struct(ApplicationConfiguration)17663_storage)"
      },
      "t_mapping(t_address,t_uint256)": {
        "encoding": "mapping",
        "key": "t_address",
        "label": "mapping(address => uint256)",
        "numberOfBytes": "32",
        "value": "t_uint256"
      },
      "t_mapping(t_bytes32,t_mapping(t_bytes32,t_uint256))": {
        "encoding": "mapping",
        "key": "t_bytes32",
        "label": "mapping(bytes32 => mapping(bytes32 => uint256))",
        "numberOfBytes": "32",
        "value": "t_mapping(t_bytes32,t_uint256)"
      },
      "t_mapping(t_bytes32,t_uint256)": {
        "encoding": "mapping",
        "key": "t_bytes32",
        "label": "mapping(bytes32 => uint256)",
        "numberOfBytes": "32",
        "value": "t_uint256"
      },
      "t_mapping(t_uint16,t_address)": {
        "encoding": "mapping",
        "key": "t_uint16",
        "label": "mapping(uint16 => address)",
        "numberOfBytes": "32",
        "value": "t_address"
      },
      "t_mapping(t_uint16,t_bool)": {
        "encoding": "mapping",
        "key": "t_uint16",
        "label": "mapping(uint16 => bool)",
        "numberOfBytes": "32",
        "value": "t_bool"
      },
      "t_mapping(t_uint16,t_bytes32)": {
        "encoding": "mapping",
        "key": "t_uint16",
        "label": "mapping(uint16 => bytes32)",
        "numberOfBytes": "32",
        "value": "t_bytes32"
      },
      "t_mapping(t_uint16,t_bytes_storage)": {
        "encoding": "mapping",
        "key": "t_uint16",
        "label": "mapping(uint16 => bytes)",
        "numberOfBytes": "32",
        "value": "t_bytes_storage"
      },
      "t_mapping(t_uint16,t_mapping(t_bytes32,t_mapping(t_bytes32,t_uint256)))": {
        "encoding": "mapping",
        "key": "t_uint16",
        "label": "mapping(uint16 => mapping(bytes32 => mapping(bytes32 => uint256)))",
        "numberOfBytes": "32",
        "value": "t_mapping(t_bytes32,t_mapping(t_bytes32,t_uint256))"
      },
      "t_mapping(t_uint16,t_mapping(t_uint16,t_address))": {
        "encoding": "mapping",
        "key": "t_uint16",
        "label": "mapping(uint16 => mapping(uint16 => address))",
        "numberOfBytes": "32",
        "value": "t_mapping(t_uint16,t_address)"
      },
      "t_mapping(t_uint16,t_mapping(t_uint16,t_bool))": {
        "encoding": "mapping",
        "key": "t_uint16",
        "label": "mapping(uint16 => mapping(uint16 => bool))",
        "numberOfBytes": "32",
        "value": "t_mapping(t_uint16,t_bool)"
      },
      "t_mapping(t_uint16,t_mapping(t_uint16,t_bytes_storage))": {
        "encoding": "mapping",
        "key": "t_uint16",
        "label": "mapping(uint16 => mapping(uint16 => bytes))",
        "numberOfBytes": "32",
        "value": "t_mapping(t_uint16,t_bytes_storage)"
      },
      "t_mapping(t_uint16,t_struct(ApplicationConfiguration)17663_storage)": {
        "encoding": "mapping",
        "key": "t_uint16",
        "label": "mapping(uint16 => struct ILayerZeroUltraLightNodeV2.ApplicationConfiguration)",
        "numberOfBytes": "32",
        "value": "t_struct(ApplicationConfiguration)17663_storage"
      },
      "t_mapping(t_uint16,t_uint16)": {
        "encoding": "mapping",
        "key": "t_uint16",
        "label": "mapping(uint16 => uint16)",
        "numberOfBytes": "32",
        "value": "t_uint16"
      },
      "t_mapping(t_uint16,t_uint256)": {
        "encoding": "mapping",
        "key": "t_uint16",
        "label": "mapping(uint16 => uint256)",
        "numberOfBytes": "32",
        "value": "t_uint256"
      },
      "t_struct(ApplicationConfiguration)17663_storage": {
        "encoding": "inplace",
        "label": "struct ILayerZeroUltraLightNodeV2.ApplicationConfiguration",
        "members": [
          {
            "astId": 17652,
            "contract": "contracts/V1Contracts/contracts/UltraLightNodeV2.sol:UltraLightNodeV2",
            "label": "inboundProofLibraryVersion",
            "offset": 0,
            "slot": "0",
            "type": "t_uint16"
          },
          {
            "astId": 17654,
            "contract": "contracts/V1Contracts/contracts/UltraLightNodeV2.sol:UltraLightNodeV2",
            "label": "inboundBlockConfirmations",
            "offset": 2,
            "slot": "0",
            "type": "t_uint64"
          },
          {
            "astId": 17656,
            "contract": "contracts/V1Contracts/contracts/UltraLightNodeV2.sol:UltraLightNodeV2",
            "label": "relayer",
            "offset": 10,
            "slot": "0",
            "type": "t_address"
          },
          {
            "astId": 17658,
            "contract": "contracts/V1Contracts/contracts/UltraLightNodeV2.sol:UltraLightNodeV2",
            "label": "outboundProofType",
            "offset": 30,
            "slot": "0",
            "type": "t_uint16"
          },
          {
            "astId": 17660,
            "contract": "contracts/V1Contracts/contracts/UltraLightNodeV2.sol:UltraLightNodeV2",
            "label": "outboundBlockConfirmations",
            "offset": 0,
            "slot": "1",
            "type": "t_uint64"
          },
          {
            "astId": 17662,
            "contract": "contracts/V1Contracts/contracts/UltraLightNodeV2.sol:UltraLightNodeV2",
            "label": "oracle",
            "offset": 8,
            "slot": "1",
            "type": "t_address"
          }
        ],
        "numberOfBytes": "64"
      },
      "t_uint16": {
        "encoding": "inplace",
        "label": "uint16",
        "numberOfBytes": "2"
      },
      "t_uint256": {
        "encoding": "inplace",
        "label": "uint256",
        "numberOfBytes": "32"
      },
      "t_uint64": {
        "encoding": "inplace",
        "label": "uint64",
        "numberOfBytes": "8"
      }
    }
  }
}