{
  "address": "0x89dA85A27Fab76b5AcacBeDDD21B9b4370F99EDb",
  "abi": [
    {
      "inputs": [
        {
          "internalType": "uint32",
          "name": "_vid",
          "type": "uint32"
        },
        {
          "internalType": "address[]",
          "name": "_messageLibs",
          "type": "address[]"
        },
        {
          "internalType": "address",
          "name": "_priceFeed",
          "type": "address"
        },
        {
          "internalType": "address[]",
          "name": "_signers",
          "type": "address[]"
        },
        {
          "internalType": "uint64",
          "name": "_quorum",
          "type": "uint64"
        },
        {
          "internalType": "address[]",
          "name": "_admins",
          "type": "address[]"
        }
      ],
      "stateMutability": "nonpayable",
      "type": "constructor"
    },
    {
      "inputs": [
        {
          "internalType": "bytes32",
          "name": "executableHash",
          "type": "bytes32"
        }
      ],
      "name": "DVN_DuplicatedHash",
      "type": "error"
    },
    {
      "inputs": [],
      "name": "DVN_InstructionExpired",
      "type": "error"
    },
    {
      "inputs": [
        {
          "internalType": "bytes32",
          "name": "role",
          "type": "bytes32"
        }
      ],
      "name": "DVN_InvalidRole",
      "type": "error"
    },
    {
      "inputs": [],
      "name": "DVN_InvalidSignatures",
      "type": "error"
    },
    {
      "inputs": [
        {
          "internalType": "address",
          "name": "target",
          "type": "address"
        }
      ],
      "name": "DVN_InvalidTarget",
      "type": "error"
    },
    {
      "inputs": [
        {
          "internalType": "uint32",
          "name": "vid",
          "type": "uint32"
        }
      ],
      "name": "DVN_InvalidVid",
      "type": "error"
    },
    {
      "inputs": [],
      "name": "DVN_OnlySelf",
      "type": "error"
    },
    {
      "inputs": [],
      "name": "MultiSig_OnlySigner",
      "type": "error"
    },
    {
      "inputs": [],
      "name": "MultiSig_QuorumIsZero",
      "type": "error"
    },
    {
      "inputs": [
        {
          "internalType": "uint64",
          "name": "signersSize",
          "type": "uint64"
        },
        {
          "internalType": "uint64",
          "name": "quorum",
          "type": "uint64"
        }
      ],
      "name": "MultiSig_SignersSizeIsLessThanQuorum",
      "type": "error"
    },
    {
      "inputs": [
        {
          "internalType": "address",
          "name": "signer",
          "type": "address"
        },
        {
          "internalType": "bool",
          "name": "active",
          "type": "bool"
        }
      ],
      "name": "MultiSig_StateAlreadySet",
      "type": "error"
    },
    {
      "inputs": [],
      "name": "MultiSig_UnorderedSigners",
      "type": "error"
    },
    {
      "inputs": [
        {
          "internalType": "address",
          "name": "_to",
          "type": "address"
        },
        {
          "internalType": "uint256",
          "name": "_value",
          "type": "uint256"
        }
      ],
      "name": "Transfer_NativeFailed",
      "type": "error"
    },
    {
      "inputs": [],
      "name": "Transfer_ToAddressIsZero",
      "type": "error"
    },
    {
      "inputs": [],
      "name": "Worker_NotAllowed",
      "type": "error"
    },
    {
      "inputs": [],
      "name": "Worker_OnlyMessageLib",
      "type": "error"
    },
    {
      "inputs": [],
      "name": "Worker_RoleRenouncingDisabled",
      "type": "error"
    },
    {
      "anonymous": false,
      "inputs": [
        {
          "indexed": false,
          "internalType": "uint256",
          "name": "_index",
          "type": "uint256"
        },
        {
          "indexed": false,
          "internalType": "bytes",
          "name": "_data",
          "type": "bytes"
        }
      ],
      "name": "ExecuteFailed",
      "type": "event"
    },
    {
      "anonymous": false,
      "inputs": [
        {
          "components": [
            {
              "internalType": "uint32",
              "name": "vid",
              "type": "uint32"
            },
            {
              "internalType": "address",
              "name": "target",
              "type": "address"
            },
            {
              "internalType": "bytes",
              "name": "callData",
              "type": "bytes"
            },
            {
              "internalType": "uint256",
              "name": "expiration",
              "type": "uint256"
            },
            {
              "internalType": "bytes",
              "name": "signatures",
              "type": "bytes"
            }
          ],
          "indexed": false,
          "internalType": "struct ExecuteParam",
          "name": "param",
          "type": "tuple"
        },
        {
          "indexed": false,
          "internalType": "bytes32",
          "name": "_hash",
          "type": "bytes32"
        }
      ],
      "name": "HashAlreadyUsed",
      "type": "event"
    },
    {
      "anonymous": false,
      "inputs": [
        {
          "indexed": false,
          "internalType": "address",
          "name": "account",
          "type": "address"
        }
      ],
      "name": "Paused",
      "type": "event"
    },
    {
      "anonymous": false,
      "inputs": [
        {
          "indexed": true,
          "internalType": "bytes32",
          "name": "role",
          "type": "bytes32"
        },
        {
          "indexed": true,
          "internalType": "bytes32",
          "name": "previousAdminRole",
          "type": "bytes32"
        },
        {
          "indexed": true,
          "internalType": "bytes32",
          "name": "newAdminRole",
          "type": "bytes32"
        }
      ],
      "name": "RoleAdminChanged",
      "type": "event"
    },
    {
      "anonymous": false,
      "inputs": [
        {
          "indexed": true,
          "internalType": "bytes32",
          "name": "role",
          "type": "bytes32"
        },
        {
          "indexed": true,
          "internalType": "address",
          "name": "account",
          "type": "address"
        },
        {
          "indexed": true,
          "internalType": "address",
          "name": "sender",
          "type": "address"
        }
      ],
      "name": "RoleGranted",
      "type": "event"
    },
    {
      "anonymous": false,
      "inputs": [
        {
          "indexed": true,
          "internalType": "bytes32",
          "name": "role",
          "type": "bytes32"
        },
        {
          "indexed": true,
          "internalType": "address",
          "name": "account",
          "type": "address"
        },
        {
          "indexed": true,
          "internalType": "address",
          "name": "sender",
          "type": "address"
        }
      ],
      "name": "RoleRevoked",
      "type": "event"
    },
    {
      "anonymous": false,
      "inputs": [
        {
          "indexed": false,
          "internalType": "uint16",
          "name": "multiplierBps",
          "type": "uint16"
        }
      ],
      "name": "SetDefaultMultiplierBps",
      "type": "event"
    },
    {
      "anonymous": false,
      "inputs": [
        {
          "components": [
            {
              "internalType": "uint32",
              "name": "dstEid",
              "type": "uint32"
            },
            {
              "internalType": "uint64",
              "name": "gas",
              "type": "uint64"
            },
            {
              "internalType": "uint16",
              "name": "multiplierBps",
              "type": "uint16"
            },
            {
              "internalType": "uint128",
              "name": "floorMarginUSD",
              "type": "uint128"
            }
          ],
          "indexed": false,
          "internalType": "struct IDVN.DstConfigParam[]",
          "name": "params",
          "type": "tuple[]"
        }
      ],
      "name": "SetDstConfig",
      "type": "event"
    },
    {
      "anonymous": false,
      "inputs": [
        {
          "indexed": false,
          "internalType": "address",
          "name": "priceFeed",
          "type": "address"
        }
      ],
      "name": "SetPriceFeed",
      "type": "event"
    },
    {
      "anonymous": false,
      "inputs": [
        {
          "indexed": false,
          "internalType": "uint32",
          "name": "dstEid",
          "type": "uint32"
        },
        {
          "indexed": false,
          "internalType": "uint8[]",
          "name": "optionTypes",
          "type": "uint8[]"
        }
      ],
      "name": "SetSupportedOptionTypes",
      "type": "event"
    },
    {
      "anonymous": false,
      "inputs": [
        {
          "indexed": false,
          "internalType": "address",
          "name": "workerLib",
          "type": "address"
        }
      ],
      "name": "SetWorkerLib",
      "type": "event"
    },
    {
      "anonymous": false,
      "inputs": [
        {
          "indexed": false,
          "internalType": "address",
          "name": "account",
          "type": "address"
        }
      ],
      "name": "Unpaused",
      "type": "event"
    },
    {
      "anonymous": false,
      "inputs": [
        {
          "indexed": false,
          "internalType": "uint64",
          "name": "_quorum",
          "type": "uint64"
        }
      ],
      "name": "UpdateQuorum",
      "type": "event"
    },
    {
      "anonymous": false,
      "inputs": [
        {
          "indexed": false,
          "internalType": "address",
          "name": "_signer",
          "type": "address"
        },
        {
          "indexed": false,
          "internalType": "bool",
          "name": "_active",
          "type": "bool"
        }
      ],
      "name": "UpdateSigner",
      "type": "event"
    },
    {
      "anonymous": false,
      "inputs": [
        {
          "indexed": false,
          "internalType": "uint256",
          "name": "fee",
          "type": "uint256"
        }
      ],
      "name": "VerifierFeePaid",
      "type": "event"
    },
    {
      "anonymous": false,
      "inputs": [
        {
          "indexed": false,
          "internalType": "uint256",
          "name": "idx",
          "type": "uint256"
        }
      ],
      "name": "VerifySignaturesFailed",
      "type": "event"
    },
    {
      "anonymous": false,
      "inputs": [
        {
          "indexed": false,
          "internalType": "address",
          "name": "lib",
          "type": "address"
        },
        {
          "indexed": false,
          "internalType": "address",
          "name": "to",
          "type": "address"
        },
        {
          "indexed": false,
          "internalType": "uint256",
          "name": "amount",
          "type": "uint256"
        }
      ],
      "name": "Withdraw",
      "type": "event"
    },
    {
      "inputs": [],
      "name": "DEFAULT_ADMIN_ROLE",
      "outputs": [
        {
          "internalType": "bytes32",
          "name": "",
          "type": "bytes32"
        }
      ],
      "stateMutability": "view",
      "type": "function"
    },
    {
      "inputs": [],
      "name": "allowlistSize",
      "outputs": [
        {
          "internalType": "uint64",
          "name": "",
          "type": "uint64"
        }
      ],
      "stateMutability": "view",
      "type": "function"
    },
    {
      "inputs": [
        {
          "components": [
            {
              "internalType": "uint32",
              "name": "dstEid",
              "type": "uint32"
            },
            {
              "internalType": "bytes",
              "name": "packetHeader",
              "type": "bytes"
            },
            {
              "internalType": "bytes32",
              "name": "payloadHash",
              "type": "bytes32"
            },
            {
              "internalType": "uint64",
              "name": "confirmations",
              "type": "uint64"
            },
            {
              "internalType": "address",
              "name": "sender",
              "type": "address"
            }
          ],
          "internalType": "struct ILayerZeroDVN.AssignJobParam",
          "name": "_param",
          "type": "tuple"
        },
        {
          "internalType": "bytes",
          "name": "_options",
          "type": "bytes"
        }
      ],
      "name": "assignJob",
      "outputs": [
        {
          "internalType": "uint256",
          "name": "totalFee",
          "type": "uint256"
        }
      ],
      "stateMutability": "payable",
      "type": "function"
    },
    {
      "inputs": [
        {
          "internalType": "uint16",
          "name": "_dstEid",
          "type": "uint16"
        },
        {
          "internalType": "uint16",
          "name": "",
          "type": "uint16"
        },
        {
          "internalType": "uint64",
          "name": "_confirmations",
          "type": "uint64"
        },
        {
          "internalType": "address",
          "name": "_sender",
          "type": "address"
        }
      ],
      "name": "assignJob",
      "outputs": [
        {
          "internalType": "uint256",
          "name": "totalFee",
          "type": "uint256"
        }
      ],
      "stateMutability": "nonpayable",
      "type": "function"
    },
    {
      "inputs": [],
      "name": "defaultMultiplierBps",
      "outputs": [
        {
          "internalType": "uint16",
          "name": "",
          "type": "uint16"
        }
      ],
      "stateMutability": "view",
      "type": "function"
    },
    {
      "inputs": [
        {
          "internalType": "uint32",
          "name": "dstEid",
          "type": "uint32"
        }
      ],
      "name": "dstConfig",
      "outputs": [
        {
          "internalType": "uint64",
          "name": "gas",
          "type": "uint64"
        },
        {
          "internalType": "uint16",
          "name": "multiplierBps",
          "type": "uint16"
        },
        {
          "internalType": "uint128",
          "name": "floorMarginUSD",
          "type": "uint128"
        }
      ],
      "stateMutability": "view",
      "type": "function"
    },
    {
      "inputs": [
        {
          "components": [
            {
              "internalType": "uint32",
              "name": "vid",
              "type": "uint32"
            },
            {
              "internalType": "address",
              "name": "target",
              "type": "address"
            },
            {
              "internalType": "bytes",
              "name": "callData",
              "type": "bytes"
            },
            {
              "internalType": "uint256",
              "name": "expiration",
              "type": "uint256"
            },
            {
              "internalType": "bytes",
              "name": "signatures",
              "type": "bytes"
            }
          ],
          "internalType": "struct ExecuteParam[]",
          "name": "_params",
          "type": "tuple[]"
        }
      ],
      "name": "execute",
      "outputs": [],
      "stateMutability": "nonpayable",
      "type": "function"
    },
    {
      "inputs": [
        {
          "internalType": "uint32",
          "name": "_dstEid",
          "type": "uint32"
        },
        {
          "internalType": "uint64",
          "name": "_confirmations",
          "type": "uint64"
        },
        {
          "internalType": "address",
          "name": "_sender",
          "type": "address"
        },
        {
          "internalType": "bytes",
          "name": "_options",
          "type": "bytes"
        }
      ],
      "name": "getFee",
      "outputs": [
        {
          "internalType": "uint256",
          "name": "fee",
          "type": "uint256"
        }
      ],
      "stateMutability": "view",
      "type": "function"
    },
    {
      "inputs": [
        {
          "internalType": "uint16",
          "name": "_dstEid",
          "type": "uint16"
        },
        {
          "internalType": "uint16",
          "name": "",
          "type": "uint16"
        },
        {
          "internalType": "uint64",
          "name": "_confirmations",
          "type": "uint64"
        },
        {
          "internalType": "address",
          "name": "_sender",
          "type": "address"
        }
      ],
      "name": "getFee",
      "outputs": [
        {
          "internalType": "uint256",
          "name": "fee",
          "type": "uint256"
        }
      ],
      "stateMutability": "view",
      "type": "function"
    },
    {
      "inputs": [
        {
          "internalType": "bytes32",
          "name": "role",
          "type": "bytes32"
        }
      ],
      "name": "getRoleAdmin",
      "outputs": [
        {
          "internalType": "bytes32",
          "name": "",
          "type": "bytes32"
        }
      ],
      "stateMutability": "view",
      "type": "function"
    },
    {
      "inputs": [
        {
          "internalType": "uint32",
          "name": "_eid",
          "type": "uint32"
        }
      ],
      "name": "getSupportedOptionTypes",
      "outputs": [
        {
          "internalType": "uint8[]",
          "name": "",
          "type": "uint8[]"
        }
      ],
      "stateMutability": "view",
      "type": "function"
    },
    {
      "inputs": [
        {
          "internalType": "bytes32",
          "name": "_role",
          "type": "bytes32"
        },
        {
          "internalType": "address",
          "name": "_account",
          "type": "address"
        }
      ],
      "name": "grantRole",
      "outputs": [],
      "stateMutability": "nonpayable",
      "type": "function"
    },
    {
      "inputs": [
        {
          "internalType": "address",
          "name": "_sender",
          "type": "address"
        }
      ],
      "name": "hasAcl",
      "outputs": [
        {
          "internalType": "bool",
          "name": "",
          "type": "bool"
        }
      ],
      "stateMutability": "view",
      "type": "function"
    },
    {
      "inputs": [
        {
          "internalType": "bytes32",
          "name": "role",
          "type": "bytes32"
        },
        {
          "internalType": "address",
          "name": "account",
          "type": "address"
        }
      ],
      "name": "hasRole",
      "outputs": [
        {
          "internalType": "bool",
          "name": "",
          "type": "bool"
        }
      ],
      "stateMutability": "view",
      "type": "function"
    },
    {
      "inputs": [
        {
          "internalType": "uint32",
          "name": "_vid",
          "type": "uint32"
        },
        {
          "internalType": "address",
          "name": "_target",
          "type": "address"
        },
        {
          "internalType": "bytes",
          "name": "_callData",
          "type": "bytes"
        },
        {
          "internalType": "uint256",
          "name": "_expiration",
          "type": "uint256"
        }
      ],
      "name": "hashCallData",
      "outputs": [
        {
          "internalType": "bytes32",
          "name": "",
          "type": "bytes32"
        }
      ],
      "stateMutability": "pure",
      "type": "function"
    },
    {
      "inputs": [],
      "name": "paused",
      "outputs": [
        {
          "internalType": "bool",
          "name": "",
          "type": "bool"
        }
      ],
      "stateMutability": "view",
      "type": "function"
    },
    {
      "inputs": [],
      "name": "priceFeed",
      "outputs": [
        {
          "internalType": "address",
          "name": "",
          "type": "address"
        }
      ],
      "stateMutability": "view",
      "type": "function"
    },
    {
      "inputs": [],
      "name": "quorum",
      "outputs": [
        {
          "internalType": "uint64",
          "name": "",
          "type": "uint64"
        }
      ],
      "stateMutability": "view",
      "type": "function"
    },
    {
      "inputs": [
        {
          "components": [
            {
              "internalType": "uint32",
              "name": "vid",
              "type": "uint32"
            },
            {
              "internalType": "address",
              "name": "target",
              "type": "address"
            },
            {
              "internalType": "bytes",
              "name": "callData",
              "type": "bytes"
            },
            {
              "internalType": "uint256",
              "name": "expiration",
              "type": "uint256"
            },
            {
              "internalType": "bytes",
              "name": "signatures",
              "type": "bytes"
            }
          ],
          "internalType": "struct ExecuteParam",
          "name": "_param",
          "type": "tuple"
        }
      ],
      "name": "quorumChangeAdmin",
      "outputs": [],
      "stateMutability": "nonpayable",
      "type": "function"
    },
    {
      "inputs": [
        {
          "internalType": "bytes32",
          "name": "",
          "type": "bytes32"
        },
        {
          "internalType": "address",
          "name": "",
          "type": "address"
        }
      ],
      "name": "renounceRole",
      "outputs": [],
      "stateMutability": "pure",
      "type": "function"
    },
    {
      "inputs": [
        {
          "internalType": "bytes32",
          "name": "_role",
          "type": "bytes32"
        },
        {
          "internalType": "address",
          "name": "_account",
          "type": "address"
        }
      ],
      "name": "revokeRole",
      "outputs": [],
      "stateMutability": "nonpayable",
      "type": "function"
    },
    {
      "inputs": [
        {
          "internalType": "uint16",
          "name": "_multiplierBps",
          "type": "uint16"
        }
      ],
      "name": "setDefaultMultiplierBps",
      "outputs": [],
      "stateMutability": "nonpayable",
      "type": "function"
    },
    {
      "inputs": [
        {
          "components": [
            {
              "internalType": "uint32",
              "name": "dstEid",
              "type": "uint32"
            },
            {
              "internalType": "uint64",
              "name": "gas",
              "type": "uint64"
            },
            {
              "internalType": "uint16",
              "name": "multiplierBps",
              "type": "uint16"
            },
            {
              "internalType": "uint128",
              "name": "floorMarginUSD",
              "type": "uint128"
            }
          ],
          "internalType": "struct IDVN.DstConfigParam[]",
          "name": "_params",
          "type": "tuple[]"
        }
      ],
      "name": "setDstConfig",
      "outputs": [],
      "stateMutability": "nonpayable",
      "type": "function"
    },
    {
      "inputs": [
        {
          "internalType": "bool",
          "name": "_paused",
          "type": "bool"
        }
      ],
      "name": "setPaused",
      "outputs": [],
      "stateMutability": "nonpayable",
      "type": "function"
    },
    {
      "inputs": [
        {
          "internalType": "address",
          "name": "_priceFeed",
          "type": "address"
        }
      ],
      "name": "setPriceFeed",
      "outputs": [],
      "stateMutability": "nonpayable",
      "type": "function"
    },
    {
      "inputs": [
        {
          "internalType": "uint64",
          "name": "_quorum",
          "type": "uint64"
        }
      ],
      "name": "setQuorum",
      "outputs": [],
      "stateMutability": "nonpayable",
      "type": "function"
    },
    {
      "inputs": [
        {
          "internalType": "address",
          "name": "_signer",
          "type": "address"
        },
        {
          "internalType": "bool",
          "name": "_active",
          "type": "bool"
        }
      ],
      "name": "setSigner",
      "outputs": [],
      "stateMutability": "nonpayable",
      "type": "function"
    },
    {
      "inputs": [
        {
          "internalType": "uint32",
          "name": "_eid",
          "type": "uint32"
        },
        {
          "internalType": "uint8[]",
          "name": "_optionTypes",
          "type": "uint8[]"
        }
      ],
      "name": "setSupportedOptionTypes",
      "outputs": [],
      "stateMutability": "nonpayable",
      "type": "function"
    },
    {
      "inputs": [
        {
          "internalType": "address",
          "name": "_workerFeeLib",
          "type": "address"
        }
      ],
      "name": "setWorkerFeeLib",
      "outputs": [],
      "stateMutability": "nonpayable",
      "type": "function"
    },
    {
      "inputs": [],
      "name": "signerSize",
      "outputs": [
        {
          "internalType": "uint64",
          "name": "",
          "type": "uint64"
        }
      ],
      "stateMutability": "view",
      "type": "function"
    },
    {
      "inputs": [
        {
          "internalType": "address",
          "name": "signer",
          "type": "address"
        }
      ],
      "name": "signers",
      "outputs": [
        {
          "internalType": "bool",
          "name": "active",
          "type": "bool"
        }
      ],
      "stateMutability": "view",
      "type": "function"
    },
    {
      "inputs": [
        {
          "internalType": "bytes4",
          "name": "interfaceId",
          "type": "bytes4"
        }
      ],
      "name": "supportsInterface",
      "outputs": [
        {
          "internalType": "bool",
          "name": "",
          "type": "bool"
        }
      ],
      "stateMutability": "view",
      "type": "function"
    },
    {
      "inputs": [
        {
          "internalType": "bytes32",
          "name": "executableHash",
          "type": "bytes32"
        }
      ],
      "name": "usedHashes",
      "outputs": [
        {
          "internalType": "bool",
          "name": "used",
          "type": "bool"
        }
      ],
      "stateMutability": "view",
      "type": "function"
    },
    {
      "inputs": [
        {
          "internalType": "bytes32",
          "name": "_hash",
          "type": "bytes32"
        },
        {
          "internalType": "bytes",
          "name": "_signatures",
          "type": "bytes"
        }
      ],
      "name": "verifySignatures",
      "outputs": [
        {
          "internalType": "bool",
          "name": "",
          "type": "bool"
        },
        {
          "internalType": "enum MultiSig.Errors",
          "name": "",
          "type": "uint8"
        }
      ],
      "stateMutability": "view",
      "type": "function"
    },
    {
      "inputs": [],
      "name": "vid",
      "outputs": [
        {
          "internalType": "uint32",
          "name": "",
          "type": "uint32"
        }
      ],
      "stateMutability": "view",
      "type": "function"
    },
    {
      "inputs": [
        {
          "internalType": "address",
          "name": "_lib",
          "type": "address"
        },
        {
          "internalType": "address",
          "name": "_to",
          "type": "address"
        },
        {
          "internalType": "uint256",
          "name": "_amount",
          "type": "uint256"
        }
      ],
      "name": "withdrawFee",
      "outputs": [],
      "stateMutability": "nonpayable",
      "type": "function"
    },
    {
      "inputs": [
        {
          "internalType": "address",
          "name": "_lib",
          "type": "address"
        },
        {
          "internalType": "address payable",
          "name": "_to",
          "type": "address"
        },
        {
          "internalType": "uint256",
          "name": "_amount",
          "type": "uint256"
        }
      ],
      "name": "withdrawFeeFromUlnV2",
      "outputs": [],
      "stateMutability": "nonpayable",
      "type": "function"
    },
    {
      "inputs": [
        {
          "internalType": "address",
          "name": "_token",
          "type": "address"
        },
        {
          "internalType": "address",
          "name": "_to",
          "type": "address"
        },
        {
          "internalType": "uint256",
          "name": "_amount",
          "type": "uint256"
        }
      ],
      "name": "withdrawToken",
      "outputs": [],
      "stateMutability": "nonpayable",
      "type": "function"
    },
    {
      "inputs": [],
      "name": "workerFeeLib",
      "outputs": [
        {
          "internalType": "address",
          "name": "",
          "type": "address"
        }
      ],
      "stateMutability": "view",
      "type": "function"
    }
  ],
  "transactionHash": "0x98bc4624255cfa8cb8d904c68196242c2eee45dc7f6cd8f5a5c9d471a0c08da0",
  "args": [
    10106,
    [
      "0xC2E94Ba47fEe71A926AD70799480b72C22d30F44",
      "0x47636b3188774a3E7273D85A537b9bA4Ee7b2535"
    ],
    "0xD351c120907029c56ec2422796dA13AE94C61994",
    [
      "0x5AB40527AA622960E26a171c58011de58DFA5bE9",
      "0x7e1879A1Fba74d8107E2E3EE42f5fea5E6500f5B",
      "0xE4059e1B02d8d74Fc82d27BD5006Ecc3605D9CEc"
    ],
    2,
    [
      "0x9F403140Bc0574D7d36eA472b82DAa1Bbd4eF327",
      "0xB8FF877ed78Ba520Ece21B1de7843A8a57cA47Cb"
    ]
  ],
  "numDeployments": 1,
  "solcInputHash": "df45c5d73ee7212b45689d2cdbb787f2",
  "bytecode": "0x60a06040523480156200001157600080fd5b5060405162003c1038038062003c108339810160408190526200003491620004c4565b6001805460ff61ffff60e81b01191661017760ed1b179055600280546001600160a01b0319166001600160a01b03861617905582828686612ee060008660005b8551811015620000d557620000cc7f724aface199fe5bed93ae8508474576a9adf3dc443b2c451842a2242919f19de878381518110620000b857620000b862000597565b60200260200101516200027b60201b60201c565b60010162000074565b5060005b815181101562000126576200011d7fa49807205ce4d355092ef5a8a18f56e8913cf4a201fbe287825b095693c21775838381518110620000b857620000b862000597565b600101620000d9565b505050505050806001600160401b03166000036200015757604051635f86e17760e01b815260040160405180910390fd5b806001600160401b0316825110156200019d5781516040516378e2c15760e11b81526001600160401b039182166004820152908216602482015260440160405180910390fd5b6000805b83518110156200022f576000848281518110620001c257620001c262000597565b60200260200101519050826001600160a01b0316816001600160a01b031611620001ff576040516305fa937f60e11b815260040160405180910390fd5b6001600160a01b0381166000908152600460205260409020805460ff1916600190811790915590925001620001a1565b50509051600580546001600160401b0393841668010000000000000000026001600160801b0319909116939092169290921717905550505063ffffffff90921660805250620005ea9050565b7f74845de37cfabd357633214b47fa91ccd19b05b7c5a08ac22c187f811fb62bca82148015620002cc57506000828152602081815260408083206001600160a01b038516845290915290205460ff16155b15620003195760018054601590620002f490600160a81b90046001600160401b0316620005ad565b91906101000a8154816001600160401b0302191690836001600160401b031602179055505b62000325828262000329565b5050565b6000828152602081815260408083206001600160a01b038516845290915290205460ff1662000325576000828152602081815260408083206001600160a01b03851684529091529020805460ff19166001179055620003853390565b6001600160a01b0316816001600160a01b0316837f2f8788117e7eff1d82e926ec794901d17c78024a50270940304540a733656f0d60405160405180910390a45050565b634e487b7160e01b600052604160045260246000fd5b80516001600160a01b0381168114620003f757600080fd5b919050565b600082601f8301126200040e57600080fd5b815160206001600160401b03808311156200042d576200042d620003c9565b8260051b604051601f19603f83011681018181108482111715620004555762000455620003c9565b60405293845260208187018101949081019250878511156200047657600080fd5b6020870191505b84821015620004a1576200049182620003df565b835291830191908301906200047d565b979650505050505050565b80516001600160401b0381168114620003f757600080fd5b60008060008060008060c08789031215620004de57600080fd5b865163ffffffff81168114620004f357600080fd5b60208801519096506001600160401b03808211156200051157600080fd5b6200051f8a838b01620003fc565b96506200052f60408a01620003df565b955060608901519150808211156200054657600080fd5b620005548a838b01620003fc565b94506200056460808a01620004ac565b935060a08901519150808211156200057b57600080fd5b506200058a89828a01620003fc565b9150509295509295509295565b634e487b7160e01b600052603260045260246000fd5b60006001600160401b038281166002600160401b03198101620005e057634e487b7160e01b600052601160045260246000fd5b6001019392505050565b6080516135fc620006146000396000818161074c0152818161122d0152611b1401526135fc6000f3fe60806040526004361061022f5760003560e01c80638585c9451161012e578063c7a823e0116100ab578063d547741f1161006f578063d547741f146107aa578063dafe0ccc146107ca578063f010cb23146107ea578063f3b4ebd01461080a578063fd62e7501461082a57600080fd5b8063c7a823e0146106cc578063c7b2370b146106fa578063cd88b9031461071a578063cf34c7681461073a578063d2ae21041461078357600080fd5b8063aef18bf7116100f2578063aef18bf714610617578063b143044b14610647578063c358de0a14610667578063c416aa5114610687578063c5e193cd146106ac57600080fd5b80638585c9451461052a57806391d148541461054a57806395d376d71461056a5780639e9449651461057d578063a217fddf1461060257600080fd5b80632f2ff15d116101bc5780635553fb8e116101805780635553fb8e1461046a5780635c975abb1461048a578063724e78da146104a2578063736c0d5b146104c2578063741bef1a146104f257600080fd5b80632f2ff15d146103ca57806330bb3aac146103ea57806331cb61051461040a57806336568abe1461042a57806352d3b8711461044a57600080fd5b806316c38b3c1161020357806316c38b3c146102e05780631703a01814610300578063248a9ca31461033f57806326e67a371461037d5780632de11376146103aa57600080fd5b8062bf2e801461023457806301e336671461026e57806301ffc9a7146102905780631095b6d7146102c0575b600080fd5b34801561024057600080fd5b5060015461025690600160e81b900461ffff1681565b60405161ffff90911681526020015b60405180910390f35b34801561027a57600080fd5b5061028e610289366004612928565b61084a565b005b34801561029c57600080fd5b506102b06102ab366004612969565b610873565b6040519015158152602001610265565b3480156102cc57600080fd5b5061028e6102db366004612928565b6108aa565b3480156102ec57600080fd5b5061028e6102fb3660046129a1565b6109ac565b34801561030c57600080fd5b5060055461032790600160401b90046001600160401b031681565b6040516001600160401b039091168152602001610265565b34801561034b57600080fd5b5061036f61035a3660046129be565b60009081526020819052604090206001015490565b604051908152602001610265565b34801561038957600080fd5b5061039d6103983660046129eb565b6109d1565b6040516102659190612a06565b3480156103b657600080fd5b506102b06103c5366004612a4d565b610a58565b3480156103d657600080fd5b5061028e6103e5366004612a6a565b610add565b3480156103f657600080fd5b5061036f610405366004612af2565b610bb7565b34801561041657600080fd5b5061028e610425366004612b69565b610ccf565b34801561043657600080fd5b5061028e610445366004612a6a565b610cf9565b34801561045657600080fd5b5061028e610465366004612b97565b610d12565b34801561047657600080fd5b5061036f610485366004612c1d565b610e8b565b34801561049657600080fd5b5060015460ff166102b0565b3480156104ae57600080fd5b5061028e6104bd366004612a4d565b610fa3565b3480156104ce57600080fd5b506102b06104dd366004612a4d565b60046020526000908152604090205460ff1681565b3480156104fe57600080fd5b50600254610512906001600160a01b031681565b6040516001600160a01b039091168152602001610265565b34801561053657600080fd5b5061028e610545366004612c73565b611011565b34801561055657600080fd5b506102b0610565366004612a6a565b61103d565b61036f610578366004612ca6565b611066565b34801561058957600080fd5b506105d16105983660046129eb565b6006602052600090815260409020546001600160401b03811690600160401b810461ffff1690600160501b90046001600160801b031683565b604080516001600160401b03909416845261ffff90921660208401526001600160801b031690820152606001610265565b34801561060e57600080fd5b5061036f600081565b34801561062357600080fd5b506102b06106323660046129be565b60076020526000908152604090205460ff1681565b34801561065357600080fd5b5061028e610662366004612d52565b6111dc565b34801561067357600080fd5b5061028e610682366004612d93565b611491565b34801561069357600080fd5b506001546105129061010090046001600160a01b031681565b3480156106b857600080fd5b5061036f6106c7366004612c1d565b6114f9565b3480156106d857600080fd5b506106ec6106e7366004612dae565b611666565b604051610265929190612e02565b34801561070657600080fd5b5061028e610715366004612a4d565b611843565b34801561072657600080fd5b5061028e610735366004612e36565b6118b1565b34801561074657600080fd5b5061076e7f000000000000000000000000000000000000000000000000000000000000000081565b60405163ffffffff9091168152602001610265565b34801561078f57600080fd5b5060015461032790600160a81b90046001600160401b031681565b3480156107b657600080fd5b5061028e6107c5366004612a6a565b6118f0565b3480156107d657600080fd5b5061028e6107e5366004612928565b6119a4565b3480156107f657600080fd5b5061036f610805366004612e7b565b611a59565b34801561081657600080fd5b5061028e610825366004612ee5565b611a95565b34801561083657600080fd5b50600554610327906001600160401b031681565b60008051602061358783398151915261086281611c43565b61086d848484611c4d565b50505050565b60006001600160e01b03198216637965db0b60e01b14806108a457506301ffc9a760e01b6001600160e01b03198316145b92915050565b6000805160206135878339815191526108c281611c43565b6108da6000805160206135678339815191528561103d565b6108f757604051635ee08b9760e01b815260040160405180910390fd5b604051637ecdf29160e11b81526001600160a01b0384811660048301526024820184905285169063fd9be52290604401600060405180830381600087803b15801561094157600080fd5b505af1158015610955573d6000803e3d6000fd5b5050604080516001600160a01b038089168252871660208201529081018590527f9b1bfa7fa9ee420a16e124f794c35ac9f90472acc99140eb2f6447c714cad8eb925060600190505b60405180910390a150505050565b60006109b781611c43565b81156109c9576109c5611c70565b5050565b6109c5611cc4565b63ffffffff8116600090815260036020908152604091829020805483518184028101840190945280845260609392830182828015610a4c57602002820191906000526020600020906000905b825461010083900a900460ff16815260206001928301818104948501949093039092029101808411610a1d5790505b50505050509050919050565b6000610a847f4270fae16c6d150d00e80b689daca99e8073b1838ff2b6063a37be9d851283e48361103d565b15610a9157506000919050565b600154600160a81b90046001600160401b03161580610ac35750610ac36000805160206135a78339815191528361103d565b15610ad057506001919050565b506000919050565b919050565b816000805160206135a7833981519152811480610b1957507f4270fae16c6d150d00e80b689daca99e8073b1838ff2b6063a37be9d851283e481145b80610b31575060008051602061356783398151915281145b15610b5b57303314610b5657604051637d5d391d60e11b815260040160405180910390fd5b610ba8565b6000805160206135878339815191528103610b8757610b56600080516020613587833981519152611c43565b604051634a7ee1b960e11b8152600481018290526024015b60405180910390fd5b610bb28383611cfd565b505050565b600083610bc381610a58565b610be057604051634ab5ebcd60e01b815260040160405180910390fd5b6040805160c0810182526002546001600160a01b03908116825263ffffffff8a1660208084018290526001600160401b03808c16858701528a84166060860152600554600160401b900416608085015260015461ffff600160e81b82041660a086015260009283526006909152908490209351637bfa20a960e01b8152929361010090910490911691637bfa20a991610c82918591908a908a90600401612fa1565b602060405180830381865afa158015610c9f573d6000803e3d6000fd5b505050506040513d601f19601f82011682018060405250810190610cc39190612ffb565b98975050505050505050565b303314610cef57604051637d5d391d60e11b815260040160405180910390fd5b6109c58282611d75565b60405163dec9f03160e01b815260040160405180910390fd5b600080516020613587833981519152610d2a81611c43565b60005b82811015610e4c5736848483818110610d4857610d48613014565b90506080020190506040518060600160405280826020016020810190610d6e9190612c73565b6001600160401b03168152602001610d8c6060840160408501612d93565b61ffff168152602001610da56080840160608501613041565b6001600160801b0316905260066000610dc160208501856129eb565b63ffffffff1681526020808201929092526040908101600020835181549385015194909201516001600160801b0316600160501b026fffffffffffffffffffffffffffffffff60501b1961ffff909516600160401b0269ffffffffffffffffffff199094166001600160401b0390931692909217929092179290921691909117905550600101610d2d565b507f7dd21e42791b013d1929e86f0c59085e4fca24251f0f1aa81917b3b1611766e08383604051610e7e92919061305c565b60405180910390a1505050565b600081610e9781610a58565b610eb457604051634ab5ebcd60e01b815260040160405180910390fd5b6040805160c0810182526002546001600160a01b03908116825261ffff808a1660208085018290526001600160401b03808b16868801528985166060870152600554600160401b9004166080860152600154600160e81b810490931660a0860152600091825260068152858220865191820187529181529451637bfa20a960e01b8152939461010090920490921692637bfa20a992610f57928692600401613140565b602060405180830381865afa158015610f74573d6000803e3d6000fd5b505050506040513d601f19601f82011682018060405250810190610f989190612ffb565b979650505050505050565b600080516020613587833981519152610fbb81611c43565b600280546001600160a01b0319166001600160a01b0384169081179091556040519081527ff724a45d041687842411f2b977ef22ab8f43c8f1104f4592b42a00f9b34a643d906020015b60405180910390a15050565b30331461103157604051637d5d391d60e11b815260040160405180910390fd5b61103a81611ed0565b50565b6000918252602082815260408084206001600160a01b0393909316845291905290205460ff1690565b600060008051602061356783398151915261108081611c43565b61109060a0860160808701612a4d565b61109981610a58565b6110b657604051634ab5ebcd60e01b815260040160405180910390fd5b6040805160c081019091526002546001600160a01b031681526000906020808201906110e4908a018a6129eb565b63ffffffff1681526020016110ff60808a0160608b01612c73565b6001600160401b0316815260200161111d60a08a0160808b01612a4d565b6001600160a01b039081168252600554600160401b90046001600160401b0316602080840191909152600154600160e81b810461ffff16604090940193909352929350610100909104169063df2b057e908390600690600090611182908d018d6129eb565b63ffffffff1663ffffffff16815260200190815260200160002089896040518563ffffffff1660e01b81526004016111bd9493929190612fa1565b6020604051808303816000875af1158015610f74573d6000803e3d6000fd5b6000805160206135878339815191526111f481611c43565b60005b8281101561086d573684848381811061121257611212613014565b905060200281019061122491906131a3565b905063ffffffff7f00000000000000000000000000000000000000000000000000000000000000001661125a60208301836129eb565b63ffffffff161461126b5750611489565b4281606001351161127c5750611489565b60006112b561128e60208401846129eb565b61129e6040850160208601612a4d565b6112ab60408601866131c3565b8660600135611a59565b905060006112ca826106e760808601866131c3565b5090508061130d576040518481527fd6d90193101048cc1b6edcdc2348f5acf7a4a4a97d3e7b668b74cb7602ab3ebc9060200160405180910390a1505050611489565b600061132d61131f60408601866131c3565b61132891613209565b611f9e565b905080156113a85760008381526007602052604090205460ff161561138e577f9bb9bddbdf537a2104255307230b323d7982f4512ee8e5bd15df62ddca50ab97848460405161137d92919061327e565b60405180910390a150505050611489565b6000838152600760205260409020805460ff191660011790555b6000806113bb6040870160208801612a4d565b6001600160a01b03166113d160408801886131c3565b6040516113df929190613319565b6000604051808303816000865af19150503d806000811461141c576040519150601f19603f3d011682016040523d82523d6000602084013e611421565b606091505b509150915081611482578215611448576000858152600760205260409020805460ff191690555b7fdc8cdd96296241bbefda4a8e18ad2e0985a8da6495b34d409cfc4c886ee3b0cf8782604051611479929190613329565b60405180910390a15b5050505050505b6001016111f7565b6000805160206135878339815191526114a981611c43565b6001805461ffff60e81b1916600160e81b61ffff8516908102919091179091556040519081527f7af0ac740036ffb1c97b03697859d729e80a44ae5030543d64971c313565ab4d90602001611005565b600060008051602061356783398151915261151381611c43565b8261151d81610a58565b61153a57604051634ab5ebcd60e01b815260040160405180910390fd5b6040805160c0810182526002546001600160a01b03908116825261ffff808b1660208085018290526001600160401b03808c16868801528a85166060870152600554600160401b9004166080860152600154600160e81b810490931660a0860152600091825260068152858220865191820187529181529451636f9582bf60e11b815293946101009092049092169263df2b057e926115dd928692600401613140565b6020604051808303816000875af11580156115fc573d6000803e3d6000fd5b505050506040513d601f19601f820116820180604052508101906116209190612ffb565b93507f87e46b0a6199bc734632187269a103c05714ee0adae5b28f30723955724f37ef8460405161165391815260200190565b60405180910390a1505050949350505050565b600554600090819061168990600160401b90046001600160401b03166041613358565b831461169b575060009050600161183b565b60006116f4866040517f19457468657265756d205369676e6564204d6573736167653a0a3332000000006020820152603c8101829052600090605c01604051602081830303815290604052805190602001209050919050565b90506000805b600554600160401b90046001600160401b031681101561182f573660008888611724856041613358565b9061173086600161336f565b61173b906041613358565b9261174893929190613382565b9150915060008061178f8785858080601f016020809104026020016040519081016040528093929190818152602001838380828437600092019190915250611fd792505050565b909250905060008160048111156117a8576117a8612dec565b146117c15760006001985098505050505050505061183b565b856001600160a01b0316826001600160a01b0316116117ee5760006002985098505050505050505061183b565b6001600160a01b03821660009081526004602052604090205460ff166118225760006003985098505050505050505061183b565b50935050506001016116fa565b50600160009350935050505b935093915050565b60008051602061358783398151915261185b81611c43565b60018054610100600160a81b0319166101006001600160a01b038516908102919091179091556040519081527f1399be28223800f8669b3ba5f8721d9fc16fc4e8d0bbf98378791c8c5a3015e090602001611005565b6000805160206135878339815191526118c981611c43565b63ffffffff841660009081526003602052604090206118e9908484612855565b5050505050565b816000805160206135a783398151915281148061192c57507f4270fae16c6d150d00e80b689daca99e8073b1838ff2b6063a37be9d851283e481145b80611944575060008051602061356783398151915281145b1561196e5730331461196957604051637d5d391d60e11b815260040160405180910390fd5b61199a565b6000805160206135878339815191528103610b8757611969600080516020613587833981519152611c43565b610bb2838361201c565b6000805160206135878339815191526119bc81611c43565b6119d46000805160206135678339815191528561103d565b6119f157604051635ee08b9760e01b815260040160405180910390fd5b6040516303d8c5ef60e11b81526001600160a01b038481166004830152602482018490528516906307b18bde90604401600060405180830381600087803b158015611a3b57600080fd5b505af1158015611a4f573d6000803e3d6000fd5b5050505050505050565b60008585838686604051602001611a749594939291906133ac565b60405160208183030381529060405280519060200120905095945050505050565b42816060013511611ab957604051630bbaf26360e01b815260040160405180910390fd5b30611aca6040830160208401612a4d565b6001600160a01b031614611b0d57611ae86040820160208301612a4d565b604051631ce0bfcd60e01b81526001600160a01b039091166004820152602401610b9f565b63ffffffff7f000000000000000000000000000000000000000000000000000000000000000016611b4160208301836129eb565b63ffffffff1614611b7b57611b5960208201826129eb565b60405163134bf0e160e11b815263ffffffff9091166004820152602401610b9f565b6000611b8d61128e60208401846129eb565b90506000611ba2826106e760808601866131c3565b50905080611bc357604051630af656f760e11b815260040160405180910390fd5b60008281526007602052604090205460ff1615611bf657604051634eb522d360e11b815260048101839052602401610b9f565b60008281526007602052604090819020805460ff19166001179055610bb29060008051602061358783398151915290611c31908601866131c3565b810190611c3e9190612a4d565b611cfd565b61103a8133612092565b6001600160a01b038316611c6557610bb282826120eb565b610bb2838383612198565b611c786121d3565b6001805460ff1916811790557f62e78cea01bee320cd4e420270b5ea74000d11b0c9f74754ebdbfc544b05a258335b6040516001600160a01b03909116815260200160405180910390a1565b611ccc61221b565b6001805460ff191690557f5db9ee0a495bf2e6ff9c91a7834c1ba4fdd244a5e8aa4e537bd38aeae4b073aa33611ca7565b6000805160206135a783398151915282148015611d215750611d1f828261103d565b155b15611d6b5760018054601590611d4690600160a81b90046001600160401b03166133f2565b91906101000a8154816001600160401b0302191690836001600160401b031602179055505b6109c58282612264565b6001600160a01b03821660009081526004602052604090205481151560ff909116151503611dc9576040516302c6469560e51b81526001600160a01b03831660048201528115156024820152604401610b9f565b6001600160a01b0382166000908152600460205260408120805460ff191683151517905581611e0f57600554611e0a906001906001600160401b0316613418565b611e26565b600554611e26906001600160401b0316600161343f565b6005549091506001600160401b03600160401b9091048116908216811115611e74576040516378e2c15760e11b81526001600160401b03808416600483015282166024820152604401610b9f565b6005805467ffffffffffffffff19166001600160401b038416179055604080516001600160a01b038616815284151560208201527f863d338cad74814b108a06288ad5e0e80d56495e0332238b1d2cdcfa0ca8e5ce910161099e565b806001600160401b0316600003611efa57604051635f86e17760e01b815260040160405180910390fd5b6005546001600160401b03908116908216811015611f3e576040516378e2c15760e11b81526001600160401b03808316600483015283166024820152604401610b9f565b600580546fffffffffffffffff00000000000000001916600160401b6001600160401b038516908102919091179091556040519081527fb600f3cf7f38a4b49bb0c75f722ef69f7e3e39ef3bb4aa8207fd86e724a2324990602001611005565b60006001600160e01b03198216630111a9b760e11b148015906108a457506001600160e01b0319821663704316e560e01b141592915050565b600080825160410361200d5760208301516040840151606085015160001a612001878285856122e8565b94509450505050612015565b506000905060025b9250929050565b6000805160206135a78339815191528214801561203e575061203e828261103d565b15612088576001805460159061206390600160a81b90046001600160401b031661345f565b91906101000a8154816001600160401b0302191690836001600160401b031602179055505b6109c582826123ac565b61209c828261103d565b6109c5576120a981612411565b6120b4836020612423565b6040516020016120c5929190613482565b60408051601f198184030181529082905262461bcd60e51b8252610b9f916004016134f7565b6001600160a01b038216612112576040516306b7a93160e41b815260040160405180910390fd5b6000826001600160a01b03168260405160006040518083038185875af1925050503d806000811461215f576040519150601f19603f3d011682016040523d82523d6000602084013e612164565b606091505b5050905080610bb257604051631196f20d60e21b81526001600160a01b038416600482015260248101839052604401610b9f565b6001600160a01b0382166121bf576040516306b7a93160e41b815260040160405180910390fd5b610bb26001600160a01b03841683836125c5565b60015460ff16156122195760405162461bcd60e51b815260206004820152601060248201526f14185d5cd8589b194e881c185d5cd95960821b6044820152606401610b9f565b565b60015460ff166122195760405162461bcd60e51b815260206004820152601460248201527314185d5cd8589b194e881b9bdd081c185d5cd95960621b6044820152606401610b9f565b61226e828261103d565b6109c5576000828152602081815260408083206001600160a01b03851684529091529020805460ff191660011790556122a43390565b6001600160a01b0316816001600160a01b0316837f2f8788117e7eff1d82e926ec794901d17c78024a50270940304540a733656f0d60405160405180910390a45050565b6000807f7fffffffffffffffffffffffffffffff5d576e7357a4501ddfe92f46681b20a083111561231f57506000905060036123a3565b6040805160008082526020820180845289905260ff881692820192909252606081018690526080810185905260019060a0016020604051602081039080840390855afa158015612373573d6000803e3d6000fd5b5050604051601f1901519150506001600160a01b03811661239c576000600192509250506123a3565b9150600090505b94509492505050565b6123b6828261103d565b156109c5576000828152602081815260408083206001600160a01b0385168085529252808320805460ff1916905551339285917ff6391f5c32d9c69d2a47ea670b442974b53935d1edc7fd64eb21e047a839171b9190a45050565b60606108a46001600160a01b03831660145b60606000612432836002613358565b61243d90600261336f565b6001600160401b038111156124545761245461350a565b6040519080825280601f01601f19166020018201604052801561247e576020820181803683370190505b509050600360fc1b8160008151811061249957612499613014565b60200101906001600160f81b031916908160001a905350600f60fb1b816001815181106124c8576124c8613014565b60200101906001600160f81b031916908160001a90535060006124ec846002613358565b6124f790600161336f565b90505b600181111561256f576f181899199a1a9b1b9c1cb0b131b232b360811b85600f166010811061252b5761252b613014565b1a60f81b82828151811061254157612541613014565b60200101906001600160f81b031916908160001a90535060049490941c9361256881613520565b90506124fa565b5083156125be5760405162461bcd60e51b815260206004820181905260248201527f537472696e67733a20686578206c656e67746820696e73756666696369656e746044820152606401610b9f565b9392505050565b604080516001600160a01b03848116602483015260448083018590528351808403909101815260649092018352602080830180516001600160e01b031663a9059cbb60e01b17905283518085019094528084527f5361666545524332303a206c6f772d6c6576656c2063616c6c206661696c656490840152610bb2928692916000916126559185169084906126d5565b90508051600014806126765750808060200190518101906126769190613537565b610bb25760405162461bcd60e51b815260206004820152602a60248201527f5361666545524332303a204552433230206f7065726174696f6e20646964206e6044820152691bdd081cdd58d8d9595960b21b6064820152608401610b9f565b60606126e484846000856126ec565b949350505050565b60608247101561274d5760405162461bcd60e51b815260206004820152602660248201527f416464726573733a20696e73756666696369656e742062616c616e636520666f6044820152651c8818d85b1b60d21b6064820152608401610b9f565b600080866001600160a01b031685876040516127699190613554565b60006040518083038185875af1925050503d80600081146127a6576040519150601f19603f3d011682016040523d82523d6000602084013e6127ab565b606091505b5091509150610f98878383876060831561282657825160000361281f576001600160a01b0385163b61281f5760405162461bcd60e51b815260206004820152601d60248201527f416464726573733a2063616c6c20746f206e6f6e2d636f6e74726163740000006044820152606401610b9f565b50816126e4565b6126e4838381511561283b5781518083602001fd5b8060405162461bcd60e51b8152600401610b9f91906134f7565b82805482825590600052602060002090601f016020900481019282156128ee5791602002820160005b838211156128bf57833560ff1683826101000a81548160ff021916908360ff160217905550926020019260010160208160000104928301926001030261287e565b80156128ec5782816101000a81549060ff02191690556001016020816000010492830192600103026128bf565b505b506128fa9291506128fe565b5090565b5b808211156128fa57600081556001016128ff565b6001600160a01b038116811461103a57600080fd5b60008060006060848603121561293d57600080fd5b833561294881612913565b9250602084013561295881612913565b929592945050506040919091013590565b60006020828403121561297b57600080fd5b81356001600160e01b0319811681146125be57600080fd5b801515811461103a57600080fd5b6000602082840312156129b357600080fd5b81356125be81612993565b6000602082840312156129d057600080fd5b5035919050565b803563ffffffff81168114610ad857600080fd5b6000602082840312156129fd57600080fd5b6125be826129d7565b6020808252825182820181905260009190848201906040850190845b81811015612a4157835160ff1683529284019291840191600101612a22565b50909695505050505050565b600060208284031215612a5f57600080fd5b81356125be81612913565b60008060408385031215612a7d57600080fd5b823591506020830135612a8f81612913565b809150509250929050565b80356001600160401b0381168114610ad857600080fd5b60008083601f840112612ac357600080fd5b5081356001600160401b03811115612ada57600080fd5b60208301915083602082850101111561201557600080fd5b600080600080600060808688031215612b0a57600080fd5b612b13866129d7565b9450612b2160208701612a9a565b93506040860135612b3181612913565b925060608601356001600160401b03811115612b4c57600080fd5b612b5888828901612ab1565b969995985093965092949392505050565b60008060408385031215612b7c57600080fd5b8235612b8781612913565b91506020830135612a8f81612993565b60008060208385031215612baa57600080fd5b82356001600160401b0380821115612bc157600080fd5b818501915085601f830112612bd557600080fd5b813581811115612be457600080fd5b8660208260071b8501011115612bf957600080fd5b60209290920196919550909350505050565b803561ffff81168114610ad857600080fd5b60008060008060808587031215612c3357600080fd5b612c3c85612c0b565b9350612c4a60208601612c0b565b9250612c5860408601612a9a565b91506060850135612c6881612913565b939692955090935050565b600060208284031215612c8557600080fd5b6125be82612a9a565b600060a08284031215612ca057600080fd5b50919050565b600080600060408486031215612cbb57600080fd5b83356001600160401b0380821115612cd257600080fd5b612cde87838801612c8e565b94506020860135915080821115612cf457600080fd5b50612d0186828701612ab1565b9497909650939450505050565b60008083601f840112612d2057600080fd5b5081356001600160401b03811115612d3757600080fd5b6020830191508360208260051b850101111561201557600080fd5b60008060208385031215612d6557600080fd5b82356001600160401b03811115612d7b57600080fd5b612d8785828601612d0e565b90969095509350505050565b600060208284031215612da557600080fd5b6125be82612c0b565b600080600060408486031215612dc357600080fd5b8335925060208401356001600160401b03811115612de057600080fd5b612d0186828701612ab1565b634e487b7160e01b600052602160045260246000fd5b82151581526040810160048310612e2957634e487b7160e01b600052602160045260246000fd5b8260208301529392505050565b600080600060408486031215612e4b57600080fd5b612e54846129d7565b925060208401356001600160401b03811115612e6f57600080fd5b612d0186828701612d0e565b600080600080600060808688031215612e9357600080fd5b612e9c866129d7565b94506020860135612eac81612913565b935060408601356001600160401b03811115612ec757600080fd5b612ed388828901612ab1565b96999598509660600135949350505050565b600060208284031215612ef757600080fd5b81356001600160401b03811115612f0d57600080fd5b6126e484828501612c8e565b60018060a01b0380825116835263ffffffff602083015116602084015260408201516001600160401b03808216604086015282606085015116606086015280608085015116608086015250505061ffff60a08201511660a08301525050565b81835281816020850137506000828201602090810191909152601f909101601f19169091010190565b6000610140612fb08388612f19565b612fe760c0840187546001600160401b0381168252604081811c61ffff16602084015260509190911c6001600160801b0316910152565b80610120840152610f988184018587612f78565b60006020828403121561300d57600080fd5b5051919050565b634e487b7160e01b600052603260045260246000fd5b80356001600160801b0381168114610ad857600080fd5b60006020828403121561305357600080fd5b6125be8261302a565b6020808252818101839052600090604080840186845b878110156130e35763ffffffff613088836129d7565b1683526001600160401b0361309e868401612a9a565b168584015261ffff6130b1858401612c0b565b168484015260606001600160801b036130cb82850161302a565b16908401526080928301929190910190600101613072565b5090979650505050505050565b60005b8381101561310b5781810151838201526020016130f3565b50506000910152565b6000815180845261312c8160208601602086016130f0565b601f01601f19169290920160200192915050565b600061014061314f8387612f19565b61318660c0840186546001600160401b0381168252604081811c61ffff16602084015260509190911c6001600160801b0316910152565b8061012084015261319981840185613114565b9695505050505050565b60008235609e198336030181126131b957600080fd5b9190910192915050565b6000808335601e198436030181126131da57600080fd5b8301803591506001600160401b038211156131f457600080fd5b60200191503681900382131561201557600080fd5b6001600160e01b031981358181169160048510156132315780818660040360031b1b83161692505b505092915050565b6000808335601e1984360301811261325057600080fd5b83016020810192503590506001600160401b0381111561326f57600080fd5b80360382131561201557600080fd5b6040815263ffffffff613290846129d7565b166040820152600060208401356132a681612913565b6001600160a01b031660608301526132c16040850185613239565b60a060808501526132d660e085018284612f78565b915050606085013560a08401526132f06080860186613239565b848303603f190160c0860152613307838284612f78565b93505050508260208301529392505050565b8183823760009101908152919050565b8281526040602082015260006126e46040830184613114565b634e487b7160e01b600052601160045260246000fd5b80820281158282048414176108a4576108a4613342565b808201808211156108a4576108a4613342565b6000808585111561339257600080fd5b8386111561339f57600080fd5b5050820193919092039150565b63ffffffff60e01b8660e01b1681526bffffffffffffffffffffffff198560601b1660048201528360188201528183603883013760009101603801908152949350505050565b60006001600160401b0380831681810361340e5761340e613342565b6001019392505050565b6001600160401b0382811682821603908082111561343857613438613342565b5092915050565b6001600160401b0381811683821601908082111561343857613438613342565b60006001600160401b0382168061347857613478613342565b6000190192915050565b7f416363657373436f6e74726f6c3a206163636f756e74200000000000000000008152600083516134ba8160178501602088016130f0565b7001034b99036b4b9b9b4b733903937b6329607d1b60179184019182015283516134eb8160288401602088016130f0565b01602801949350505050565b6020815260006125be6020830184613114565b634e487b7160e01b600052604160045260246000fd5b60008161352f5761352f613342565b506000190190565b60006020828403121561354957600080fd5b81516125be81612993565b600082516131b98184602087016130f056fe724aface199fe5bed93ae8508474576a9adf3dc443b2c451842a2242919f19dea49807205ce4d355092ef5a8a18f56e8913cf4a201fbe287825b095693c2177574845de37cfabd357633214b47fa91ccd19b05b7c5a08ac22c187f811fb62bcaa2646970667358221220a11bda39b5eba36307b8c386e2dd33add9354815dcbbf35b0509937940a05b9164736f6c63430008160033",
  "devdoc": {
    "events": {
      "Paused(address)": {
        "details": "Emitted when the pause is triggered by `account`."
      },
      "RoleAdminChanged(bytes32,bytes32,bytes32)": {
        "details": "Emitted when `newAdminRole` is set as ``role``'s admin role, replacing `previousAdminRole` `DEFAULT_ADMIN_ROLE` is the starting admin for all roles, despite {RoleAdminChanged} not being emitted signaling this. _Available since v3.1._"
      },
      "RoleGranted(bytes32,address,address)": {
        "details": "Emitted when `account` is granted `role`. `sender` is the account that originated the contract call, an admin role bearer except when using {AccessControl-_setupRole}."
      },
      "RoleRevoked(bytes32,address,address)": {
        "details": "Emitted when `account` is revoked `role`. `sender` is the account that originated the contract call:   - if using `revokeRole`, it is the admin role bearer   - if using `renounceRole`, it is the role bearer (i.e. `account`)"
      },
      "Unpaused(address)": {
        "details": "Emitted when the pause is lifted by `account`."
      }
    },
    "kind": "dev",
    "methods": {
      "assignJob((uint32,bytes,bytes32,uint64,address),bytes)": {
        "details": "for ULN301, ULN302 and more to assign jobdvn network can reject job from _sender by adding/removing them from allowlist/denylist",
        "params": {
          "_options": "dvn options",
          "_param": "assign job param"
        }
      },
      "assignJob(uint16,uint16,uint64,address)": {
        "details": "to support ULNv2dvn network can reject job from _sender by adding/removing them from allowlist/denylist",
        "params": {
          "": "//_outboundProofType outbound proof type",
          "_confirmations": "block confirmations",
          "_dstEid": "destination EndpointId",
          "_sender": "message sender address"
        }
      },
      "constructor": {
        "details": "DVN doesn't have a roleAdmin (address(0x0))Supports all of ULNv2, ULN301, ULN302 and more",
        "params": {
          "_admins": "array of admin addresses that are granted the ADMIN_ROLE",
          "_messageLibs": "array of message lib addresses that are granted the MESSAGE_LIB_ROLE",
          "_priceFeed": "price feed address",
          "_quorum": "quorum for multisig",
          "_signers": "array of signer addresses for multisig",
          "_vid": "unique identifier for this DVN instance"
        }
      },
      "execute((uint32,address,bytes,uint256,bytes)[])": {
        "details": "takes a list of instructions and executes them in orderif any of the instructions fail, it will emit an error event and continue to execute the rest of the instructions",
        "params": {
          "_params": "array of ExecuteParam, includes target, callData, expiration, signatures"
        }
      },
      "getFee(uint16,uint16,uint64,address)": {
        "details": "to support ULNv2getFee can revert if _sender doesn't pass ACL",
        "params": {
          "": "//_outboundProofType outbound proof type",
          "_confirmations": "block confirmations",
          "_dstEid": "destination EndpointId",
          "_sender": "message sender address"
        }
      },
      "getFee(uint32,uint64,address,bytes)": {
        "details": "getFee can revert if _sender doesn't pass ACL",
        "params": {
          "_confirmations": "block confirmations",
          "_dstEid": "destination EndpointId",
          "_options": "dvn options",
          "_sender": "message sender address"
        },
        "returns": {
          "fee": "fee in native amount"
        }
      },
      "getRoleAdmin(bytes32)": {
        "details": "Returns the admin role that controls `role`. See {grantRole} and {revokeRole}. To change a role's admin, use {_setRoleAdmin}."
      },
      "grantRole(bytes32,address)": {
        "details": "overrides AccessControl to allow self/admin to grant role'function sig 0x2f2ff15d",
        "params": {
          "_account": "account to grant role to",
          "_role": "role to grant"
        }
      },
      "hasAcl(address)": {
        "details": "Access control list using allowlist and denylist1) if one address is in the denylist -> deny2) else if address in the allowlist OR allowlist is empty (allows everyone)-> allow3) else deny",
        "params": {
          "_sender": "address to check"
        }
      },
      "hasRole(bytes32,address)": {
        "details": "Returns `true` if `account` has been granted `role`."
      },
      "hashCallData(uint32,address,bytes,uint256)": {
        "params": {
          "_callData": "call data",
          "_expiration": "expiration timestamp",
          "_target": "target address"
        },
        "returns": {
          "_0": "hash of above"
        }
      },
      "paused()": {
        "details": "Returns true if the contract is paused, and false otherwise."
      },
      "quorumChangeAdmin((uint32,address,bytes,uint256,bytes))": {
        "details": "calldata in the case is abi.encode new admin address"
      },
      "renounceRole(bytes32,address)": {
        "details": "overrides AccessControl to disable renouncing of roles"
      },
      "revokeRole(bytes32,address)": {
        "details": "overrides AccessControl to allow self/admin to revoke rolefunction sig 0xd547741f",
        "params": {
          "_account": "account to revoke role from",
          "_role": "role to revoke"
        }
      },
      "setDefaultMultiplierBps(uint16)": {
        "params": {
          "_multiplierBps": "default multiplier for worker fee"
        }
      },
      "setDstConfig((uint32,uint64,uint16,uint128)[])": {
        "params": {
          "_params": "array of DstConfigParam"
        }
      },
      "setPaused(bool)": {
        "details": "flag to pause execution of workers (if used with whenNotPaused modifier)",
        "params": {
          "_paused": "true to pause, false to unpause"
        }
      },
      "setPriceFeed(address)": {
        "params": {
          "_priceFeed": "price feed address"
        }
      },
      "setQuorum(uint64)": {
        "details": "set quorum for multisigfunction sig 0x8585c945",
        "params": {
          "_quorum": "to set"
        }
      },
      "setSigner(address,bool)": {
        "details": "set signers for multisigfunction sig 0x31cb6105",
        "params": {
          "_active": "true to add, false to remove",
          "_signer": "signer address"
        }
      },
      "setWorkerFeeLib(address)": {
        "params": {
          "_workerFeeLib": "worker fee lib address"
        }
      },
      "supportsInterface(bytes4)": {
        "details": "See {IERC165-supportsInterface}."
      },
      "withdrawFee(address,address,uint256)": {
        "details": "supports withdrawing fee from ULN301, ULN302 and more",
        "params": {
          "_amount": "amount to withdraw",
          "_lib": "message lib address",
          "_to": "address to withdraw fee to"
        }
      },
      "withdrawFeeFromUlnV2(address,address,uint256)": {
        "details": "to support ULNv2the withdrawFee function for ULN30X is built in the Worker contract",
        "params": {
          "_amount": "amount to withdraw",
          "_lib": "message lib address",
          "_to": "address to withdraw to"
        }
      },
      "withdrawToken(address,address,uint256)": {
        "details": "supports withdrawing token from the contract",
        "params": {
          "_amount": "amount to withdraw",
          "_to": "address to withdraw token to",
          "_token": "token address"
        }
      }
    },
    "version": 1
  },
  "userdoc": {
    "kind": "user",
    "methods": {
      "quorumChangeAdmin((uint32,address,bytes,uint256,bytes))": {
        "notice": "function for quorum to change admin without going through execute function"
      }
    },
    "version": 1
  },
  "storageLayout": {
    "storage": [
      {
        "astId": 7552,
        "contract": "contracts/messagelib/contracts/uln/dvn/DVN.sol:DVN",
        "label": "_roles",
        "offset": 0,
        "slot": "0",
        "type": "t_mapping(t_bytes32,t_struct(RoleData)7547_storage)"
      },
      {
        "astId": 8481,
        "contract": "contracts/messagelib/contracts/uln/dvn/DVN.sol:DVN",
        "label": "_paused",
        "offset": 0,
        "slot": "1",
        "type": "t_bool"
      },
      {
        "astId": 16351,
        "contract": "contracts/messagelib/contracts/uln/dvn/DVN.sol:DVN",
        "label": "workerFeeLib",
        "offset": 1,
        "slot": "1",
        "type": "t_address"
      },
      {
        "astId": 16353,
        "contract": "contracts/messagelib/contracts/uln/dvn/DVN.sol:DVN",
        "label": "allowlistSize",
        "offset": 21,
        "slot": "1",
        "type": "t_uint64"
      },
      {
        "astId": 16355,
        "contract": "contracts/messagelib/contracts/uln/dvn/DVN.sol:DVN",
        "label": "defaultMultiplierBps",
        "offset": 29,
        "slot": "1",
        "type": "t_uint16"
      },
      {
        "astId": 16357,
        "contract": "contracts/messagelib/contracts/uln/dvn/DVN.sol:DVN",
        "label": "priceFeed",
        "offset": 0,
        "slot": "2",
        "type": "t_address"
      },
      {
        "astId": 16362,
        "contract": "contracts/messagelib/contracts/uln/dvn/DVN.sol:DVN",
        "label": "supportedOptionTypes",
        "offset": 0,
        "slot": "3",
        "type": "t_mapping(t_uint32,t_array(t_uint8)dyn_storage)"
      },
      {
        "astId": 22158,
        "contract": "contracts/messagelib/contracts/uln/dvn/DVN.sol:DVN",
        "label": "signers",
        "offset": 0,
        "slot": "4",
        "type": "t_mapping(t_address,t_bool)"
      },
      {
        "astId": 22160,
        "contract": "contracts/messagelib/contracts/uln/dvn/DVN.sol:DVN",
        "label": "signerSize",
        "offset": 0,
        "slot": "5",
        "type": "t_uint64"
      },
      {
        "astId": 22162,
        "contract": "contracts/messagelib/contracts/uln/dvn/DVN.sol:DVN",
        "label": "quorum",
        "offset": 8,
        "slot": "5",
        "type": "t_uint64"
      },
      {
        "astId": 20943,
        "contract": "contracts/messagelib/contracts/uln/dvn/DVN.sol:DVN",
        "label": "dstConfig",
        "offset": 0,
        "slot": "6",
        "type": "t_mapping(t_uint32,t_struct(DstConfig)25199_storage)"
      },
      {
        "astId": 20947,
        "contract": "contracts/messagelib/contracts/uln/dvn/DVN.sol:DVN",
        "label": "usedHashes",
        "offset": 0,
        "slot": "7",
        "type": "t_mapping(t_bytes32,t_bool)"
      }
    ],
    "types": {
      "t_address": {
        "encoding": "inplace",
        "label": "address",
        "numberOfBytes": "20"
      },
      "t_array(t_uint8)dyn_storage": {
        "base": "t_uint8",
        "encoding": "dynamic_array",
        "label": "uint8[]",
        "numberOfBytes": "32"
      },
      "t_bool": {
        "encoding": "inplace",
        "label": "bool",
        "numberOfBytes": "1"
      },
      "t_bytes32": {
        "encoding": "inplace",
        "label": "bytes32",
        "numberOfBytes": "32"
      },
      "t_mapping(t_address,t_bool)": {
        "encoding": "mapping",
        "key": "t_address",
        "label": "mapping(address => bool)",
        "numberOfBytes": "32",
        "value": "t_bool"
      },
      "t_mapping(t_bytes32,t_bool)": {
        "encoding": "mapping",
        "key": "t_bytes32",
        "label": "mapping(bytes32 => bool)",
        "numberOfBytes": "32",
        "value": "t_bool"
      },
      "t_mapping(t_bytes32,t_struct(RoleData)7547_storage)": {
        "encoding": "mapping",
        "key": "t_bytes32",
        "label": "mapping(bytes32 => struct AccessControl.RoleData)",
        "numberOfBytes": "32",
        "value": "t_struct(RoleData)7547_storage"
      },
      "t_mapping(t_uint32,t_array(t_uint8)dyn_storage)": {
        "encoding": "mapping",
        "key": "t_uint32",
        "label": "mapping(uint32 => uint8[])",
        "numberOfBytes": "32",
        "value": "t_array(t_uint8)dyn_storage"
      },
      "t_mapping(t_uint32,t_struct(DstConfig)25199_storage)": {
        "encoding": "mapping",
        "key": "t_uint32",
        "label": "mapping(uint32 => struct IDVN.DstConfig)",
        "numberOfBytes": "32",
        "value": "t_struct(DstConfig)25199_storage"
      },
      "t_struct(DstConfig)25199_storage": {
        "encoding": "inplace",
        "label": "struct IDVN.DstConfig",
        "members": [
          {
            "astId": 25194,
            "contract": "contracts/messagelib/contracts/uln/dvn/DVN.sol:DVN",
            "label": "gas",
            "offset": 0,
            "slot": "0",
            "type": "t_uint64"
          },
          {
            "astId": 25196,
            "contract": "contracts/messagelib/contracts/uln/dvn/DVN.sol:DVN",
            "label": "multiplierBps",
            "offset": 8,
            "slot": "0",
            "type": "t_uint16"
          },
          {
            "astId": 25198,
            "contract": "contracts/messagelib/contracts/uln/dvn/DVN.sol:DVN",
            "label": "floorMarginUSD",
            "offset": 10,
            "slot": "0",
            "type": "t_uint128"
          }
        ],
        "numberOfBytes": "32"
      },
      "t_struct(RoleData)7547_storage": {
        "encoding": "inplace",
        "label": "struct AccessControl.RoleData",
        "members": [
          {
            "astId": 7544,
            "contract": "contracts/messagelib/contracts/uln/dvn/DVN.sol:DVN",
            "label": "members",
            "offset": 0,
            "slot": "0",
            "type": "t_mapping(t_address,t_bool)"
          },
          {
            "astId": 7546,
            "contract": "contracts/messagelib/contracts/uln/dvn/DVN.sol:DVN",
            "label": "adminRole",
            "offset": 0,
            "slot": "1",
            "type": "t_bytes32"
          }
        ],
        "numberOfBytes": "64"
      },
      "t_uint128": {
        "encoding": "inplace",
        "label": "uint128",
        "numberOfBytes": "16"
      },
      "t_uint16": {
        "encoding": "inplace",
        "label": "uint16",
        "numberOfBytes": "2"
      },
      "t_uint32": {
        "encoding": "inplace",
        "label": "uint32",
        "numberOfBytes": "4"
      },
      "t_uint64": {
        "encoding": "inplace",
        "label": "uint64",
        "numberOfBytes": "8"
      },
      "t_uint8": {
        "encoding": "inplace",
        "label": "uint8",
        "numberOfBytes": "1"
      }
    }
  }
}