{
  "address": "0xdb9FE20cAe84137485663e42e943aD7E1782a5a2",
  "abi": [
    {
      "inputs": [
        {
          "internalType": "uint256",
          "name": "_nativeDecimalsRate",
          "type": "uint256"
        }
      ],
      "stateMutability": "nonpayable",
      "type": "constructor"
    },
    {
      "inputs": [
        {
          "internalType": "uint32",
          "name": "eid",
          "type": "uint32"
        }
      ],
      "name": "DVN_EidNotSupported",
      "type": "error"
    },
    {
      "inputs": [
        {
          "internalType": "uint256",
          "name": "cursor",
          "type": "uint256"
        }
      ],
      "name": "DVN_InvalidDVNOptions",
      "type": "error"
    },
    {
      "inputs": [
        {
          "internalType": "uint8",
          "name": "optionType",
          "type": "uint8"
        }
      ],
      "name": "DVN_UnsupportedOptionType",
      "type": "error"
    },
    {
      "inputs": [
        {
          "internalType": "address",
          "name": "_to",
          "type": "address"
        },
        {
          "internalType": "uint256",
          "name": "_value",
          "type": "uint256"
        }
      ],
      "name": "Transfer_NativeFailed",
      "type": "error"
    },
    {
      "inputs": [],
      "name": "Transfer_ToAddressIsZero",
      "type": "error"
    },
    {
      "anonymous": false,
      "inputs": [
        {
          "indexed": true,
          "internalType": "address",
          "name": "previousOwner",
          "type": "address"
        },
        {
          "indexed": true,
          "internalType": "address",
          "name": "newOwner",
          "type": "address"
        }
      ],
      "name": "OwnershipTransferred",
      "type": "event"
    },
    {
      "inputs": [
        {
          "components": [
            {
              "internalType": "address",
              "name": "priceFeed",
              "type": "address"
            },
            {
              "internalType": "uint32",
              "name": "dstEid",
              "type": "uint32"
            },
            {
              "internalType": "uint64",
              "name": "confirmations",
              "type": "uint64"
            },
            {
              "internalType": "address",
              "name": "sender",
              "type": "address"
            },
            {
              "internalType": "uint64",
              "name": "quorum",
              "type": "uint64"
            },
            {
              "internalType": "uint16",
              "name": "defaultMultiplierBps",
              "type": "uint16"
            }
          ],
          "internalType": "struct IDVNFeeLib.FeeParams",
          "name": "_params",
          "type": "tuple"
        },
        {
          "components": [
            {
              "internalType": "uint64",
              "name": "gas",
              "type": "uint64"
            },
            {
              "internalType": "uint16",
              "name": "multiplierBps",
              "type": "uint16"
            },
            {
              "internalType": "uint128",
              "name": "floorMarginUSD",
              "type": "uint128"
            }
          ],
          "internalType": "struct IDVN.DstConfig",
          "name": "_dstConfig",
          "type": "tuple"
        },
        {
          "internalType": "bytes",
          "name": "_options",
          "type": "bytes"
        }
      ],
      "name": "getFee",
      "outputs": [
        {
          "internalType": "uint256",
          "name": "",
          "type": "uint256"
        }
      ],
      "stateMutability": "view",
      "type": "function"
    },
    {
      "inputs": [
        {
          "components": [
            {
              "internalType": "address",
              "name": "priceFeed",
              "type": "address"
            },
            {
              "internalType": "uint32",
              "name": "dstEid",
              "type": "uint32"
            },
            {
              "internalType": "uint64",
              "name": "confirmations",
              "type": "uint64"
            },
            {
              "internalType": "address",
              "name": "sender",
              "type": "address"
            },
            {
              "internalType": "uint64",
              "name": "quorum",
              "type": "uint64"
            },
            {
              "internalType": "uint16",
              "name": "defaultMultiplierBps",
              "type": "uint16"
            }
          ],
          "internalType": "struct IDVNFeeLib.FeeParams",
          "name": "_params",
          "type": "tuple"
        },
        {
          "components": [
            {
              "internalType": "uint64",
              "name": "gas",
              "type": "uint64"
            },
            {
              "internalType": "uint16",
              "name": "multiplierBps",
              "type": "uint16"
            },
            {
              "internalType": "uint128",
              "name": "floorMarginUSD",
              "type": "uint128"
            }
          ],
          "internalType": "struct IDVN.DstConfig",
          "name": "_dstConfig",
          "type": "tuple"
        },
        {
          "internalType": "bytes",
          "name": "_options",
          "type": "bytes"
        }
      ],
      "name": "getFeeOnSend",
      "outputs": [
        {
          "internalType": "uint256",
          "name": "",
          "type": "uint256"
        }
      ],
      "stateMutability": "payable",
      "type": "function"
    },
    {
      "inputs": [],
      "name": "owner",
      "outputs": [
        {
          "internalType": "address",
          "name": "",
          "type": "address"
        }
      ],
      "stateMutability": "view",
      "type": "function"
    },
    {
      "inputs": [],
      "name": "renounceOwnership",
      "outputs": [],
      "stateMutability": "nonpayable",
      "type": "function"
    },
    {
      "inputs": [
        {
          "internalType": "address",
          "name": "newOwner",
          "type": "address"
        }
      ],
      "name": "transferOwnership",
      "outputs": [],
      "stateMutability": "nonpayable",
      "type": "function"
    },
    {
      "inputs": [
        {
          "internalType": "address",
          "name": "_token",
          "type": "address"
        },
        {
          "internalType": "address",
          "name": "_to",
          "type": "address"
        },
        {
          "internalType": "uint256",
          "name": "_amount",
          "type": "uint256"
        }
      ],
      "name": "withdrawToken",
      "outputs": [],
      "stateMutability": "nonpayable",
      "type": "function"
    },
    {
      "stateMutability": "payable",
      "type": "receive"
    }
  ],
  "transactionHash": "0xb6446af6b8dc0fd997dc5c3b8743fcf0f9087ce6f8558fd93842cf8e9e9e157d",
  "args": [
    "1000000000000000000"
  ],
  "numDeployments": 1,
  "solcInputHash": "df45c5d73ee7212b45689d2cdbb787f2",
  "bytecode": "0x60a060405234801561001057600080fd5b50604051610f43380380610f4383398101604081905261002f91610090565b61003833610040565b6080526100a9565b600080546001600160a01b038381166001600160a01b0319831681178455604051919092169283917f8be0079c531659141344cd1fd0a4f28419497f9722a3daafe3b4186f6b6457e09190a35050565b6000602082840312156100a257600080fd5b5051919050565b608051610e7f6100c460003960006106640152610e7f6000f3fe6080604052600436106100595760003560e01c806301e3366714610065578063715018a6146100875780637bfa20a91461009c5780638da5cb5b146100cf578063df2b057e146100f7578063f2fde38b1461010a57600080fd5b3661006057005b600080fd5b34801561007157600080fd5b50610085610080366004610abf565b61012a565b005b34801561009357600080fd5b50610085610142565b3480156100a857600080fd5b506100bc6100b7366004610afb565b610156565b6040519081526020015b60405180910390f35b3480156100db57600080fd5b506000546040516001600160a01b0390911681526020016100c6565b6100bc610105366004610afb565b6102e8565b34801561011657600080fd5b50610085610125366004610b9d565b6103d1565b61013261044a565b61013d8383836104a4565b505050565b61014a61044a565b61015460006104c7565b565b60006101656020850185610bb8565b67ffffffffffffffff166000036101ad576101866040860160208701610be2565b60405163680489c560e11b815263ffffffff90911660048201526024015b60405180910390fd5b6101b78383610517565b5060006101dc6101cd60a0880160808901610bb8565b67ffffffffffffffff16610589565b90506000806101ee6020890189610b9d565b6001600160a01b03166388a4124c61020c60408b0160208c01610be2565b8561021a60208c018c610bb8565b6040516001600160e01b031960e086901b16815263ffffffff939093166004840152602483019190915267ffffffffffffffff166044820152606401608060405180830381865afa158015610273573d6000803e3d6000fd5b505050506040513d601f19601f820116820180604052508101906102979190610c1d565b9350505091506102da828860200160208101906102b49190610c72565b6102c460c08c0160a08d01610c72565b6102d460608c0160408d01610c96565b856105f5565b93505050505b949350505050565b60006102f76020850185610bb8565b67ffffffffffffffff16600003610318576101866040860160208701610be2565b6103228383610517565b5060006103386101cd60a0880160808901610bb8565b905060008061034a6020890189610b9d565b6001600160a01b031663c1723a1d61036860408b0160208c01610be2565b8561037660208c018c610bb8565b6040516001600160e01b031960e086901b16815263ffffffff939093166004840152602483019190915267ffffffffffffffff1660448201526064016080604051808303816000875af1158015610273573d6000803e3d6000fd5b6103d961044a565b6001600160a01b03811661043e5760405162461bcd60e51b815260206004820152602660248201527f4f776e61626c653a206e6577206f776e657220697320746865207a65726f206160448201526564647265737360d01b60648201526084016101a4565b610447816104c7565b50565b6000546001600160a01b031633146101545760405162461bcd60e51b815260206004820181905260248201527f4f776e61626c653a2063616c6c6572206973206e6f7420746865206f776e657260448201526064016101a4565b6001600160a01b0383166104bc5761013d82826106cb565b61013d838383610778565b600080546001600160a01b038381166001600160a01b0319831681178455604051919092169283917f8be0079c531659141344cd1fd0a4f28419497f9722a3daafe3b4186f6b6457e09190a35050565b600080821561055a5760008061052e8686856107b3565b604051637085244b60e01b815260ff8516600482015290965092945085935050602490910190506101a4565b80831461057d5760405163013adb8360e21b8152600481018290526024016101a4565b60009150505b92915050565b600080610597604184610cc9565b90506105a4602082610cf6565b156105cc576105b4602082610cf6565b6105be9082610d0a565b6105c9906020610d1d565b90505b806105d960e06044610d1d565b6105e39190610d1d565b6105ee906040610d1d565b9392505050565b60008061ffff861615610608578561060a565b845b9050600061271061061f61ffff84168a610cc9565b6106299190610d30565b90506001600160801b038416158061064857506001600160801b038516155b156106565791506106c29050565b6000846001600160801b03167f0000000000000000000000000000000000000000000000000000000000000000876001600160801b03166106979190610cc9565b6106a19190610d30565b6106ab908a610d1d565b90508181116106ba57816106bc565b805b93505050505b95945050505050565b6001600160a01b0382166106f2576040516306b7a93160e41b815260040160405180910390fd5b6000826001600160a01b03168260405160006040518083038185875af1925050503d806000811461073f576040519150601f19603f3d011682016040523d82523d6000602084013e610744565b606091505b505090508061013d57604051631196f20d60e21b81526001600160a01b0384166004820152602481018390526044016101a4565b6001600160a01b03821661079f576040516306b7a93160e41b815260040160405180910390fd5b61013d6001600160a01b038416838361080d565b6000368160018401816107c788888461085f565b60028301929091506107df9089908990600301610886565b94506002820161ffff821683016107f881838b8d610d44565b979b909a50969850505061ffff160193505050565b604080516001600160a01b038416602482015260448082018490528251808303909101815260649091019091526020810180516001600160e01b031663a9059cbb60e01b17905261013d9084906108ab565b60006002820161087181848688610d44565b61087a91610d6e565b60f01c95945050505050565b600083838381811061089a5761089a610d9e565b919091013560f81c95945050505050565b6000610900826040518060400160405280602081526020017f5361666545524332303a206c6f772d6c6576656c2063616c6c206661696c6564815250856001600160a01b03166109809092919063ffffffff16565b90508051600014806109215750808060200190518101906109219190610db4565b61013d5760405162461bcd60e51b815260206004820152602a60248201527f5361666545524332303a204552433230206f7065726174696f6e20646964206e6044820152691bdd081cdd58d8d9595960b21b60648201526084016101a4565b60606102e0848460008585600080866001600160a01b031685876040516109a79190610dfa565b60006040518083038185875af1925050503d80600081146109e4576040519150601f19603f3d011682016040523d82523d6000602084013e6109e9565b606091505b50915091506109fa87838387610a05565b979650505050505050565b60608315610a74578251600003610a6d576001600160a01b0385163b610a6d5760405162461bcd60e51b815260206004820152601d60248201527f416464726573733a2063616c6c20746f206e6f6e2d636f6e747261637400000060448201526064016101a4565b50816102e0565b6102e08383815115610a895781518083602001fd5b8060405162461bcd60e51b81526004016101a49190610e16565b80356001600160a01b0381168114610aba57600080fd5b919050565b600080600060608486031215610ad457600080fd5b610add84610aa3565b9250610aeb60208501610aa3565b9150604084013590509250925092565b600080600080848603610140811215610b1357600080fd5b60c0811215610b2157600080fd5b859450606060bf1982011215610b3657600080fd5b5060c08501925061012085013567ffffffffffffffff80821115610b5957600080fd5b818701915087601f830112610b6d57600080fd5b813581811115610b7c57600080fd5b886020828501011115610b8e57600080fd5b95989497505060200194505050565b600060208284031215610baf57600080fd5b6105ee82610aa3565b600060208284031215610bca57600080fd5b813567ffffffffffffffff811681146105ee57600080fd5b600060208284031215610bf457600080fd5b813563ffffffff811681146105ee57600080fd5b6001600160801b038116811461044757600080fd5b60008060008060808587031215610c3357600080fd5b845193506020850151610c4581610c08565b6040860151909350610c5681610c08565b6060860151909250610c6781610c08565b939692955090935050565b600060208284031215610c8457600080fd5b813561ffff811681146105ee57600080fd5b600060208284031215610ca857600080fd5b81356105ee81610c08565b634e487b7160e01b600052601160045260246000fd5b808202811582820484141761058357610583610cb3565b634e487b7160e01b600052601260045260246000fd5b600082610d0557610d05610ce0565b500690565b8181038181111561058357610583610cb3565b8082018082111561058357610583610cb3565b600082610d3f57610d3f610ce0565b500490565b60008085851115610d5457600080fd5b83861115610d6157600080fd5b5050820193919092039150565b6001600160f01b03198135818116916002851015610d965780818660020360031b1b83161692505b505092915050565b634e487b7160e01b600052603260045260246000fd5b600060208284031215610dc657600080fd5b815180151581146105ee57600080fd5b60005b83811015610df1578181015183820152602001610dd9565b50506000910152565b60008251610e0c818460208701610dd6565b9190910192915050565b6020815260008251806020840152610e35816040850160208701610dd6565b601f01601f1916919091016040019291505056fea264697066735822122042080f5cb659bf5964b091174e703d4cb2807e759d30cdf630d2d36342b2f7c764736f6c63430008160033",
  "devdoc": {
    "kind": "dev",
    "methods": {
      "getFee((address,uint32,uint64,address,uint64,uint16),(uint64,uint16,uint128),bytes)": {
        "details": "get fee view function",
        "params": {
          "": "//_options options",
          "_dstConfig": "dst config",
          "_params": "fee params"
        }
      },
      "getFeeOnSend((address,uint32,uint64,address,uint64,uint16),(uint64,uint16,uint128),bytes)": {
        "details": "get fee function that can change state. e.g. paying priceFeed",
        "params": {
          "": "//_options options",
          "_dstConfig": "dst config",
          "_params": "fee params"
        }
      },
      "owner()": {
        "details": "Returns the address of the current owner."
      },
      "renounceOwnership()": {
        "details": "Leaves the contract without owner. It will not be possible to call `onlyOwner` functions. Can only be called by the current owner. NOTE: Renouncing ownership will leave the contract without an owner, thereby disabling any functionality that is only available to the owner."
      },
      "transferOwnership(address)": {
        "details": "Transfers ownership of the contract to a new account (`newOwner`). Can only be called by the current owner."
      }
    },
    "version": 1
  },
  "userdoc": {
    "kind": "user",
    "methods": {},
    "version": 1
  },
  "storageLayout": {
    "storage": [
      {
        "astId": 7924,
        "contract": "contracts/messagelib/contracts/uln/dvn/DVNFeeLib.sol:DVNFeeLib",
        "label": "_owner",
        "offset": 0,
        "slot": "0",
        "type": "t_address"
      }
    ],
    "types": {
      "t_address": {
        "encoding": "inplace",
        "label": "address",
        "numberOfBytes": "20"
      }
    }
  }
}