{
  "address": "0x1260AdfaFCad76834BaEB4693724067A0C19cA62",
  "abi": [
    {
      "inputs": [
        {
          "internalType": "uint32",
          "name": "_eid",
          "type": "uint32"
        },
        {
          "internalType": "address",
          "name": "_owner",
          "type": "address"
        }
      ],
      "stateMutability": "nonpayable",
      "type": "constructor"
    },
    {
      "inputs": [],
      "name": "LZ_AlreadyRegistered",
      "type": "error"
    },
    {
      "inputs": [],
      "name": "LZ_ComposeExists",
      "type": "error"
    },
    {
      "inputs": [
        {
          "internalType": "bytes32",
          "name": "expected",
          "type": "bytes32"
        },
        {
          "internalType": "bytes32",
          "name": "actual",
          "type": "bytes32"
        }
      ],
      "name": "LZ_ComposeNotFound",
      "type": "error"
    },
    {
      "inputs": [],
      "name": "LZ_DefaultReceiveLibUnavailable",
      "type": "error"
    },
    {
      "inputs": [],
      "name": "LZ_DefaultSendLibUnavailable",
      "type": "error"
    },
    {
      "inputs": [
        {
          "internalType": "uint256",
          "name": "requiredNative",
          "type": "uint256"
        },
        {
          "internalType": "uint256",
          "name": "suppliedNative",
          "type": "uint256"
        },
        {
          "internalType": "uint256",
          "name": "requiredLzToken",
          "type": "uint256"
        },
        {
          "internalType": "uint256",
          "name": "suppliedLzToken",
          "type": "uint256"
        }
      ],
      "name": "LZ_InsufficientFee",
      "type": "error"
    },
    {
      "inputs": [],
      "name": "LZ_InvalidExpiry",
      "type": "error"
    },
    {
      "inputs": [
        {
          "internalType": "uint64",
          "name": "nonce",
          "type": "uint64"
        }
      ],
      "name": "LZ_InvalidNonce",
      "type": "error"
    },
    {
      "inputs": [],
      "name": "LZ_InvalidPayloadHash",
      "type": "error"
    },
    {
      "inputs": [],
      "name": "LZ_InvalidReceiveLibrary",
      "type": "error"
    },
    {
      "inputs": [],
      "name": "LZ_LzTokenUnavailable",
      "type": "error"
    },
    {
      "inputs": [],
      "name": "LZ_OnlyNonDefaultLib",
      "type": "error"
    },
    {
      "inputs": [],
      "name": "LZ_OnlyReceiveLib",
      "type": "error"
    },
    {
      "inputs": [],
      "name": "LZ_OnlyRegisteredLib",
      "type": "error"
    },
    {
      "inputs": [],
      "name": "LZ_OnlyRegisteredOrDefaultLib",
      "type": "error"
    },
    {
      "inputs": [],
      "name": "LZ_OnlySendLib",
      "type": "error"
    },
    {
      "inputs": [],
      "name": "LZ_PathNotInitializable",
      "type": "error"
    },
    {
      "inputs": [],
      "name": "LZ_PathNotVerifiable",
      "type": "error"
    },
    {
      "inputs": [
        {
          "internalType": "bytes32",
          "name": "expected",
          "type": "bytes32"
        },
        {
          "internalType": "bytes32",
          "name": "actual",
          "type": "bytes32"
        }
      ],
      "name": "LZ_PayloadHashNotFound",
      "type": "error"
    },
    {
      "inputs": [],
      "name": "LZ_SameValue",
      "type": "error"
    },
    {
      "inputs": [],
      "name": "LZ_SendReentrancy",
      "type": "error"
    },
    {
      "inputs": [],
      "name": "LZ_Unauthorized",
      "type": "error"
    },
    {
      "inputs": [],
      "name": "LZ_UnsupportedEid",
      "type": "error"
    },
    {
      "inputs": [],
      "name": "LZ_UnsupportedInterface",
      "type": "error"
    },
    {
      "inputs": [],
      "name": "LZ_ZeroLzTokenFee",
      "type": "error"
    },
    {
      "inputs": [
        {
          "internalType": "address",
          "name": "_to",
          "type": "address"
        },
        {
          "internalType": "uint256",
          "name": "_value",
          "type": "uint256"
        }
      ],
      "name": "Transfer_NativeFailed",
      "type": "error"
    },
    {
      "inputs": [],
      "name": "Transfer_ToAddressIsZero",
      "type": "error"
    },
    {
      "anonymous": false,
      "inputs": [
        {
          "indexed": false,
          "internalType": "address",
          "name": "from",
          "type": "address"
        },
        {
          "indexed": false,
          "internalType": "address",
          "name": "to",
          "type": "address"
        },
        {
          "indexed": false,
          "internalType": "bytes32",
          "name": "guid",
          "type": "bytes32"
        },
        {
          "indexed": false,
          "internalType": "uint16",
          "name": "index",
          "type": "uint16"
        }
      ],
      "name": "ComposeDelivered",
      "type": "event"
    },
    {
      "anonymous": false,
      "inputs": [
        {
          "indexed": false,
          "internalType": "address",
          "name": "from",
          "type": "address"
        },
        {
          "indexed": false,
          "internalType": "address",
          "name": "to",
          "type": "address"
        },
        {
          "indexed": false,
          "internalType": "bytes32",
          "name": "guid",
          "type": "bytes32"
        },
        {
          "indexed": false,
          "internalType": "uint16",
          "name": "index",
          "type": "uint16"
        },
        {
          "indexed": false,
          "internalType": "bytes",
          "name": "message",
          "type": "bytes"
        }
      ],
      "name": "ComposeSent",
      "type": "event"
    },
    {
      "anonymous": false,
      "inputs": [
        {
          "indexed": false,
          "internalType": "uint32",
          "name": "eid",
          "type": "uint32"
        },
        {
          "indexed": false,
          "internalType": "address",
          "name": "newLib",
          "type": "address"
        }
      ],
      "name": "DefaultReceiveLibrarySet",
      "type": "event"
    },
    {
      "anonymous": false,
      "inputs": [
        {
          "indexed": false,
          "internalType": "uint32",
          "name": "eid",
          "type": "uint32"
        },
        {
          "indexed": false,
          "internalType": "address",
          "name": "oldLib",
          "type": "address"
        },
        {
          "indexed": false,
          "internalType": "uint256",
          "name": "expiry",
          "type": "uint256"
        }
      ],
      "name": "DefaultReceiveLibraryTimeoutSet",
      "type": "event"
    },
    {
      "anonymous": false,
      "inputs": [
        {
          "indexed": false,
          "internalType": "uint32",
          "name": "eid",
          "type": "uint32"
        },
        {
          "indexed": false,
          "internalType": "address",
          "name": "newLib",
          "type": "address"
        }
      ],
      "name": "DefaultSendLibrarySet",
      "type": "event"
    },
    {
      "anonymous": false,
      "inputs": [
        {
          "indexed": false,
          "internalType": "address",
          "name": "sender",
          "type": "address"
        },
        {
          "indexed": false,
          "internalType": "address",
          "name": "delegate",
          "type": "address"
        }
      ],
      "name": "DelegateSet",
      "type": "event"
    },
    {
      "anonymous": false,
      "inputs": [
        {
          "indexed": false,
          "internalType": "uint32",
          "name": "srcEid",
          "type": "uint32"
        },
        {
          "indexed": false,
          "internalType": "bytes32",
          "name": "sender",
          "type": "bytes32"
        },
        {
          "indexed": false,
          "internalType": "address",
          "name": "receiver",
          "type": "address"
        },
        {
          "indexed": false,
          "internalType": "uint64",
          "name": "nonce",
          "type": "uint64"
        }
      ],
      "name": "InboundNonceSkipped",
      "type": "event"
    },
    {
      "anonymous": false,
      "inputs": [
        {
          "indexed": false,
          "internalType": "address",
          "name": "newLib",
          "type": "address"
        }
      ],
      "name": "LibraryRegistered",
      "type": "event"
    },
    {
      "anonymous": false,
      "inputs": [
        {
          "indexed": true,
          "internalType": "address",
          "name": "from",
          "type": "address"
        },
        {
          "indexed": true,
          "internalType": "address",
          "name": "to",
          "type": "address"
        },
        {
          "indexed": true,
          "internalType": "address",
          "name": "executor",
          "type": "address"
        },
        {
          "indexed": false,
          "internalType": "bytes32",
          "name": "guid",
          "type": "bytes32"
        },
        {
          "indexed": false,
          "internalType": "uint16",
          "name": "index",
          "type": "uint16"
        },
        {
          "indexed": false,
          "internalType": "uint256",
          "name": "gas",
          "type": "uint256"
        },
        {
          "indexed": false,
          "internalType": "uint256",
          "name": "value",
          "type": "uint256"
        },
        {
          "indexed": false,
          "internalType": "bytes",
          "name": "message",
          "type": "bytes"
        },
        {
          "indexed": false,
          "internalType": "bytes",
          "name": "extraData",
          "type": "bytes"
        },
        {
          "indexed": false,
          "internalType": "bytes",
          "name": "reason",
          "type": "bytes"
        }
      ],
      "name": "LzComposeAlert",
      "type": "event"
    },
    {
      "anonymous": false,
      "inputs": [
        {
          "indexed": true,
          "internalType": "address",
          "name": "receiver",
          "type": "address"
        },
        {
          "indexed": true,
          "internalType": "address",
          "name": "executor",
          "type": "address"
        },
        {
          "components": [
            {
              "internalType": "uint32",
              "name": "srcEid",
              "type": "uint32"
            },
            {
              "internalType": "bytes32",
              "name": "sender",
              "type": "bytes32"
            },
            {
              "internalType": "uint64",
              "name": "nonce",
              "type": "uint64"
            }
          ],
          "indexed": false,
          "internalType": "struct Origin",
          "name": "origin",
          "type": "tuple"
        },
        {
          "indexed": false,
          "internalType": "bytes32",
          "name": "guid",
          "type": "bytes32"
        },
        {
          "indexed": false,
          "internalType": "uint256",
          "name": "gas",
          "type": "uint256"
        },
        {
          "indexed": false,
          "internalType": "uint256",
          "name": "value",
          "type": "uint256"
        },
        {
          "indexed": false,
          "internalType": "bytes",
          "name": "message",
          "type": "bytes"
        },
        {
          "indexed": false,
          "internalType": "bytes",
          "name": "extraData",
          "type": "bytes"
        },
        {
          "indexed": false,
          "internalType": "bytes",
          "name": "reason",
          "type": "bytes"
        }
      ],
      "name": "LzReceiveAlert",
      "type": "event"
    },
    {
      "anonymous": false,
      "inputs": [
        {
          "indexed": false,
          "internalType": "address",
          "name": "token",
          "type": "address"
        }
      ],
      "name": "LzTokenSet",
      "type": "event"
    },
    {
      "anonymous": false,
      "inputs": [
        {
          "indexed": true,
          "internalType": "address",
          "name": "previousOwner",
          "type": "address"
        },
        {
          "indexed": true,
          "internalType": "address",
          "name": "newOwner",
          "type": "address"
        }
      ],
      "name": "OwnershipTransferred",
      "type": "event"
    },
    {
      "anonymous": false,
      "inputs": [
        {
          "indexed": false,
          "internalType": "uint32",
          "name": "srcEid",
          "type": "uint32"
        },
        {
          "indexed": false,
          "internalType": "bytes32",
          "name": "sender",
          "type": "bytes32"
        },
        {
          "indexed": false,
          "internalType": "address",
          "name": "receiver",
          "type": "address"
        },
        {
          "indexed": false,
          "internalType": "uint64",
          "name": "nonce",
          "type": "uint64"
        },
        {
          "indexed": false,
          "internalType": "bytes32",
          "name": "payloadHash",
          "type": "bytes32"
        }
      ],
      "name": "PacketBurnt",
      "type": "event"
    },
    {
      "anonymous": false,
      "inputs": [
        {
          "components": [
            {
              "internalType": "uint32",
              "name": "srcEid",
              "type": "uint32"
            },
            {
              "internalType": "bytes32",
              "name": "sender",
              "type": "bytes32"
            },
            {
              "internalType": "uint64",
              "name": "nonce",
              "type": "uint64"
            }
          ],
          "indexed": false,
          "internalType": "struct Origin",
          "name": "origin",
          "type": "tuple"
        },
        {
          "indexed": false,
          "internalType": "address",
          "name": "receiver",
          "type": "address"
        }
      ],
      "name": "PacketDelivered",
      "type": "event"
    },
    {
      "anonymous": false,
      "inputs": [
        {
          "indexed": false,
          "internalType": "uint32",
          "name": "srcEid",
          "type": "uint32"
        },
        {
          "indexed": false,
          "internalType": "bytes32",
          "name": "sender",
          "type": "bytes32"
        },
        {
          "indexed": false,
          "internalType": "address",
          "name": "receiver",
          "type": "address"
        },
        {
          "indexed": false,
          "internalType": "uint64",
          "name": "nonce",
          "type": "uint64"
        },
        {
          "indexed": false,
          "internalType": "bytes32",
          "name": "payloadHash",
          "type": "bytes32"
        }
      ],
      "name": "PacketNilified",
      "type": "event"
    },
    {
      "anonymous": false,
      "inputs": [
        {
          "indexed": false,
          "internalType": "bytes",
          "name": "encodedPayload",
          "type": "bytes"
        },
        {
          "indexed": false,
          "internalType": "bytes",
          "name": "options",
          "type": "bytes"
        },
        {
          "indexed": false,
          "internalType": "address",
          "name": "sendLibrary",
          "type": "address"
        }
      ],
      "name": "PacketSent",
      "type": "event"
    },
    {
      "anonymous": false,
      "inputs": [
        {
          "components": [
            {
              "internalType": "uint32",
              "name": "srcEid",
              "type": "uint32"
            },
            {
              "internalType": "bytes32",
              "name": "sender",
              "type": "bytes32"
            },
            {
              "internalType": "uint64",
              "name": "nonce",
              "type": "uint64"
            }
          ],
          "indexed": false,
          "internalType": "struct Origin",
          "name": "origin",
          "type": "tuple"
        },
        {
          "indexed": false,
          "internalType": "address",
          "name": "receiver",
          "type": "address"
        },
        {
          "indexed": false,
          "internalType": "bytes32",
          "name": "payloadHash",
          "type": "bytes32"
        }
      ],
      "name": "PacketVerified",
      "type": "event"
    },
    {
      "anonymous": false,
      "inputs": [
        {
          "indexed": false,
          "internalType": "address",
          "name": "receiver",
          "type": "address"
        },
        {
          "indexed": false,
          "internalType": "uint32",
          "name": "eid",
          "type": "uint32"
        },
        {
          "indexed": false,
          "internalType": "address",
          "name": "newLib",
          "type": "address"
        }
      ],
      "name": "ReceiveLibrarySet",
      "type": "event"
    },
    {
      "anonymous": false,
      "inputs": [
        {
          "indexed": false,
          "internalType": "address",
          "name": "receiver",
          "type": "address"
        },
        {
          "indexed": false,
          "internalType": "uint32",
          "name": "eid",
          "type": "uint32"
        },
        {
          "indexed": false,
          "internalType": "address",
          "name": "oldLib",
          "type": "address"
        },
        {
          "indexed": false,
          "internalType": "uint256",
          "name": "timeout",
          "type": "uint256"
        }
      ],
      "name": "ReceiveLibraryTimeoutSet",
      "type": "event"
    },
    {
      "anonymous": false,
      "inputs": [
        {
          "indexed": false,
          "internalType": "address",
          "name": "sender",
          "type": "address"
        },
        {
          "indexed": false,
          "internalType": "uint32",
          "name": "eid",
          "type": "uint32"
        },
        {
          "indexed": false,
          "internalType": "address",
          "name": "newLib",
          "type": "address"
        }
      ],
      "name": "SendLibrarySet",
      "type": "event"
    },
    {
      "inputs": [],
      "name": "EMPTY_PAYLOAD_HASH",
      "outputs": [
        {
          "internalType": "bytes32",
          "name": "",
          "type": "bytes32"
        }
      ],
      "stateMutability": "view",
      "type": "function"
    },
    {
      "inputs": [],
      "name": "NIL_PAYLOAD_HASH",
      "outputs": [
        {
          "internalType": "bytes32",
          "name": "",
          "type": "bytes32"
        }
      ],
      "stateMutability": "view",
      "type": "function"
    },
    {
      "inputs": [],
      "name": "blockedLibrary",
      "outputs": [
        {
          "internalType": "address",
          "name": "",
          "type": "address"
        }
      ],
      "stateMutability": "view",
      "type": "function"
    },
    {
      "inputs": [
        {
          "internalType": "address",
          "name": "_oapp",
          "type": "address"
        },
        {
          "internalType": "uint32",
          "name": "_srcEid",
          "type": "uint32"
        },
        {
          "internalType": "bytes32",
          "name": "_sender",
          "type": "bytes32"
        },
        {
          "internalType": "uint64",
          "name": "_nonce",
          "type": "uint64"
        },
        {
          "internalType": "bytes32",
          "name": "_payloadHash",
          "type": "bytes32"
        }
      ],
      "name": "burn",
      "outputs": [],
      "stateMutability": "nonpayable",
      "type": "function"
    },
    {
      "inputs": [
        {
          "internalType": "address",
          "name": "_oapp",
          "type": "address"
        },
        {
          "components": [
            {
              "internalType": "uint32",
              "name": "srcEid",
              "type": "uint32"
            },
            {
              "internalType": "bytes32",
              "name": "sender",
              "type": "bytes32"
            },
            {
              "internalType": "uint64",
              "name": "nonce",
              "type": "uint64"
            }
          ],
          "internalType": "struct Origin",
          "name": "_origin",
          "type": "tuple"
        },
        {
          "internalType": "bytes32",
          "name": "_guid",
          "type": "bytes32"
        },
        {
          "internalType": "bytes",
          "name": "_message",
          "type": "bytes"
        }
      ],
      "name": "clear",
      "outputs": [],
      "stateMutability": "nonpayable",
      "type": "function"
    },
    {
      "inputs": [
        {
          "internalType": "address",
          "name": "from",
          "type": "address"
        },
        {
          "internalType": "address",
          "name": "to",
          "type": "address"
        },
        {
          "internalType": "bytes32",
          "name": "guid",
          "type": "bytes32"
        },
        {
          "internalType": "uint16",
          "name": "index",
          "type": "uint16"
        }
      ],
      "name": "composeQueue",
      "outputs": [
        {
          "internalType": "bytes32",
          "name": "messageHash",
          "type": "bytes32"
        }
      ],
      "stateMutability": "view",
      "type": "function"
    },
    {
      "inputs": [
        {
          "internalType": "uint32",
          "name": "srcEid",
          "type": "uint32"
        }
      ],
      "name": "defaultReceiveLibrary",
      "outputs": [
        {
          "internalType": "address",
          "name": "lib",
          "type": "address"
        }
      ],
      "stateMutability": "view",
      "type": "function"
    },
    {
      "inputs": [
        {
          "internalType": "uint32",
          "name": "srcEid",
          "type": "uint32"
        }
      ],
      "name": "defaultReceiveLibraryTimeout",
      "outputs": [
        {
          "internalType": "address",
          "name": "lib",
          "type": "address"
        },
        {
          "internalType": "uint256",
          "name": "expiry",
          "type": "uint256"
        }
      ],
      "stateMutability": "view",
      "type": "function"
    },
    {
      "inputs": [
        {
          "internalType": "uint32",
          "name": "dstEid",
          "type": "uint32"
        }
      ],
      "name": "defaultSendLibrary",
      "outputs": [
        {
          "internalType": "address",
          "name": "lib",
          "type": "address"
        }
      ],
      "stateMutability": "view",
      "type": "function"
    },
    {
      "inputs": [
        {
          "internalType": "address",
          "name": "oapp",
          "type": "address"
        }
      ],
      "name": "delegates",
      "outputs": [
        {
          "internalType": "address",
          "name": "delegate",
          "type": "address"
        }
      ],
      "stateMutability": "view",
      "type": "function"
    },
    {
      "inputs": [],
      "name": "eid",
      "outputs": [
        {
          "internalType": "uint32",
          "name": "",
          "type": "uint32"
        }
      ],
      "stateMutability": "view",
      "type": "function"
    },
    {
      "inputs": [
        {
          "internalType": "address",
          "name": "_oapp",
          "type": "address"
        },
        {
          "internalType": "address",
          "name": "_lib",
          "type": "address"
        },
        {
          "internalType": "uint32",
          "name": "_eid",
          "type": "uint32"
        },
        {
          "internalType": "uint32",
          "name": "_configType",
          "type": "uint32"
        }
      ],
      "name": "getConfig",
      "outputs": [
        {
          "internalType": "bytes",
          "name": "config",
          "type": "bytes"
        }
      ],
      "stateMutability": "view",
      "type": "function"
    },
    {
      "inputs": [
        {
          "internalType": "address",
          "name": "_receiver",
          "type": "address"
        },
        {
          "internalType": "uint32",
          "name": "_srcEid",
          "type": "uint32"
        }
      ],
      "name": "getReceiveLibrary",
      "outputs": [
        {
          "internalType": "address",
          "name": "lib",
          "type": "address"
        },
        {
          "internalType": "bool",
          "name": "isDefault",
          "type": "bool"
        }
      ],
      "stateMutability": "view",
      "type": "function"
    },
    {
      "inputs": [],
      "name": "getRegisteredLibraries",
      "outputs": [
        {
          "internalType": "address[]",
          "name": "",
          "type": "address[]"
        }
      ],
      "stateMutability": "view",
      "type": "function"
    },
    {
      "inputs": [],
      "name": "getSendContext",
      "outputs": [
        {
          "internalType": "uint32",
          "name": "",
          "type": "uint32"
        },
        {
          "internalType": "address",
          "name": "",
          "type": "address"
        }
      ],
      "stateMutability": "view",
      "type": "function"
    },
    {
      "inputs": [
        {
          "internalType": "address",
          "name": "_sender",
          "type": "address"
        },
        {
          "internalType": "uint32",
          "name": "_dstEid",
          "type": "uint32"
        }
      ],
      "name": "getSendLibrary",
      "outputs": [
        {
          "internalType": "address",
          "name": "lib",
          "type": "address"
        }
      ],
      "stateMutability": "view",
      "type": "function"
    },
    {
      "inputs": [
        {
          "internalType": "address",
          "name": "_receiver",
          "type": "address"
        },
        {
          "internalType": "uint32",
          "name": "_srcEid",
          "type": "uint32"
        },
        {
          "internalType": "bytes32",
          "name": "_sender",
          "type": "bytes32"
        }
      ],
      "name": "inboundNonce",
      "outputs": [
        {
          "internalType": "uint64",
          "name": "",
          "type": "uint64"
        }
      ],
      "stateMutability": "view",
      "type": "function"
    },
    {
      "inputs": [
        {
          "internalType": "address",
          "name": "receiver",
          "type": "address"
        },
        {
          "internalType": "uint32",
          "name": "srcEid",
          "type": "uint32"
        },
        {
          "internalType": "bytes32",
          "name": "sender",
          "type": "bytes32"
        },
        {
          "internalType": "uint64",
          "name": "inboundNonce",
          "type": "uint64"
        }
      ],
      "name": "inboundPayloadHash",
      "outputs": [
        {
          "internalType": "bytes32",
          "name": "payloadHash",
          "type": "bytes32"
        }
      ],
      "stateMutability": "view",
      "type": "function"
    },
    {
      "inputs": [
        {
          "components": [
            {
              "internalType": "uint32",
              "name": "srcEid",
              "type": "uint32"
            },
            {
              "internalType": "bytes32",
              "name": "sender",
              "type": "bytes32"
            },
            {
              "internalType": "uint64",
              "name": "nonce",
              "type": "uint64"
            }
          ],
          "internalType": "struct Origin",
          "name": "_origin",
          "type": "tuple"
        },
        {
          "internalType": "address",
          "name": "_receiver",
          "type": "address"
        }
      ],
      "name": "initializable",
      "outputs": [
        {
          "internalType": "bool",
          "name": "",
          "type": "bool"
        }
      ],
      "stateMutability": "view",
      "type": "function"
    },
    {
      "inputs": [
        {
          "internalType": "address",
          "name": "_sender",
          "type": "address"
        },
        {
          "internalType": "uint32",
          "name": "_dstEid",
          "type": "uint32"
        }
      ],
      "name": "isDefaultSendLibrary",
      "outputs": [
        {
          "internalType": "bool",
          "name": "",
          "type": "bool"
        }
      ],
      "stateMutability": "view",
      "type": "function"
    },
    {
      "inputs": [
        {
          "internalType": "address",
          "name": "lib",
          "type": "address"
        }
      ],
      "name": "isRegisteredLibrary",
      "outputs": [
        {
          "internalType": "bool",
          "name": "",
          "type": "bool"
        }
      ],
      "stateMutability": "view",
      "type": "function"
    },
    {
      "inputs": [],
      "name": "isSendingMessage",
      "outputs": [
        {
          "internalType": "bool",
          "name": "",
          "type": "bool"
        }
      ],
      "stateMutability": "view",
      "type": "function"
    },
    {
      "inputs": [
        {
          "internalType": "uint32",
          "name": "_eid",
          "type": "uint32"
        }
      ],
      "name": "isSupportedEid",
      "outputs": [
        {
          "internalType": "bool",
          "name": "",
          "type": "bool"
        }
      ],
      "stateMutability": "view",
      "type": "function"
    },
    {
      "inputs": [
        {
          "internalType": "address",
          "name": "_receiver",
          "type": "address"
        },
        {
          "internalType": "uint32",
          "name": "_srcEid",
          "type": "uint32"
        },
        {
          "internalType": "address",
          "name": "_actualReceiveLib",
          "type": "address"
        }
      ],
      "name": "isValidReceiveLibrary",
      "outputs": [
        {
          "internalType": "bool",
          "name": "",
          "type": "bool"
        }
      ],
      "stateMutability": "view",
      "type": "function"
    },
    {
      "inputs": [
        {
          "internalType": "address",
          "name": "receiver",
          "type": "address"
        },
        {
          "internalType": "uint32",
          "name": "srcEid",
          "type": "uint32"
        },
        {
          "internalType": "bytes32",
          "name": "sender",
          "type": "bytes32"
        }
      ],
      "name": "lazyInboundNonce",
      "outputs": [
        {
          "internalType": "uint64",
          "name": "nonce",
          "type": "uint64"
        }
      ],
      "stateMutability": "view",
      "type": "function"
    },
    {
      "inputs": [
        {
          "internalType": "address",
          "name": "_from",
          "type": "address"
        },
        {
          "internalType": "address",
          "name": "_to",
          "type": "address"
        },
        {
          "internalType": "bytes32",
          "name": "_guid",
          "type": "bytes32"
        },
        {
          "internalType": "uint16",
          "name": "_index",
          "type": "uint16"
        },
        {
          "internalType": "bytes",
          "name": "_message",
          "type": "bytes"
        },
        {
          "internalType": "bytes",
          "name": "_extraData",
          "type": "bytes"
        }
      ],
      "name": "lzCompose",
      "outputs": [],
      "stateMutability": "payable",
      "type": "function"
    },
    {
      "inputs": [
        {
          "internalType": "address",
          "name": "_from",
          "type": "address"
        },
        {
          "internalType": "address",
          "name": "_to",
          "type": "address"
        },
        {
          "internalType": "bytes32",
          "name": "_guid",
          "type": "bytes32"
        },
        {
          "internalType": "uint16",
          "name": "_index",
          "type": "uint16"
        },
        {
          "internalType": "uint256",
          "name": "_gas",
          "type": "uint256"
        },
        {
          "internalType": "uint256",
          "name": "_value",
          "type": "uint256"
        },
        {
          "internalType": "bytes",
          "name": "_message",
          "type": "bytes"
        },
        {
          "internalType": "bytes",
          "name": "_extraData",
          "type": "bytes"
        },
        {
          "internalType": "bytes",
          "name": "_reason",
          "type": "bytes"
        }
      ],
      "name": "lzComposeAlert",
      "outputs": [],
      "stateMutability": "nonpayable",
      "type": "function"
    },
    {
      "inputs": [
        {
          "components": [
            {
              "internalType": "uint32",
              "name": "srcEid",
              "type": "uint32"
            },
            {
              "internalType": "bytes32",
              "name": "sender",
              "type": "bytes32"
            },
            {
              "internalType": "uint64",
              "name": "nonce",
              "type": "uint64"
            }
          ],
          "internalType": "struct Origin",
          "name": "_origin",
          "type": "tuple"
        },
        {
          "internalType": "address",
          "name": "_receiver",
          "type": "address"
        },
        {
          "internalType": "bytes32",
          "name": "_guid",
          "type": "bytes32"
        },
        {
          "internalType": "bytes",
          "name": "_message",
          "type": "bytes"
        },
        {
          "internalType": "bytes",
          "name": "_extraData",
          "type": "bytes"
        }
      ],
      "name": "lzReceive",
      "outputs": [],
      "stateMutability": "payable",
      "type": "function"
    },
    {
      "inputs": [
        {
          "components": [
            {
              "internalType": "uint32",
              "name": "srcEid",
              "type": "uint32"
            },
            {
              "internalType": "bytes32",
              "name": "sender",
              "type": "bytes32"
            },
            {
              "internalType": "uint64",
              "name": "nonce",
              "type": "uint64"
            }
          ],
          "internalType": "struct Origin",
          "name": "_origin",
          "type": "tuple"
        },
        {
          "internalType": "address",
          "name": "_receiver",
          "type": "address"
        },
        {
          "internalType": "bytes32",
          "name": "_guid",
          "type": "bytes32"
        },
        {
          "internalType": "uint256",
          "name": "_gas",
          "type": "uint256"
        },
        {
          "internalType": "uint256",
          "name": "_value",
          "type": "uint256"
        },
        {
          "internalType": "bytes",
          "name": "_message",
          "type": "bytes"
        },
        {
          "internalType": "bytes",
          "name": "_extraData",
          "type": "bytes"
        },
        {
          "internalType": "bytes",
          "name": "_reason",
          "type": "bytes"
        }
      ],
      "name": "lzReceiveAlert",
      "outputs": [],
      "stateMutability": "nonpayable",
      "type": "function"
    },
    {
      "inputs": [],
      "name": "lzToken",
      "outputs": [
        {
          "internalType": "address",
          "name": "",
          "type": "address"
        }
      ],
      "stateMutability": "view",
      "type": "function"
    },
    {
      "inputs": [],
      "name": "nativeToken",
      "outputs": [
        {
          "internalType": "address",
          "name": "",
          "type": "address"
        }
      ],
      "stateMutability": "view",
      "type": "function"
    },
    {
      "inputs": [
        {
          "internalType": "address",
          "name": "_sender",
          "type": "address"
        },
        {
          "internalType": "uint32",
          "name": "_dstEid",
          "type": "uint32"
        },
        {
          "internalType": "bytes32",
          "name": "_receiver",
          "type": "bytes32"
        }
      ],
      "name": "nextGuid",
      "outputs": [
        {
          "internalType": "bytes32",
          "name": "",
          "type": "bytes32"
        }
      ],
      "stateMutability": "view",
      "type": "function"
    },
    {
      "inputs": [
        {
          "internalType": "address",
          "name": "_oapp",
          "type": "address"
        },
        {
          "internalType": "uint32",
          "name": "_srcEid",
          "type": "uint32"
        },
        {
          "internalType": "bytes32",
          "name": "_sender",
          "type": "bytes32"
        },
        {
          "internalType": "uint64",
          "name": "_nonce",
          "type": "uint64"
        },
        {
          "internalType": "bytes32",
          "name": "_payloadHash",
          "type": "bytes32"
        }
      ],
      "name": "nilify",
      "outputs": [],
      "stateMutability": "nonpayable",
      "type": "function"
    },
    {
      "inputs": [
        {
          "internalType": "address",
          "name": "sender",
          "type": "address"
        },
        {
          "internalType": "uint32",
          "name": "dstEid",
          "type": "uint32"
        },
        {
          "internalType": "bytes32",
          "name": "receiver",
          "type": "bytes32"
        }
      ],
      "name": "outboundNonce",
      "outputs": [
        {
          "internalType": "uint64",
          "name": "nonce",
          "type": "uint64"
        }
      ],
      "stateMutability": "view",
      "type": "function"
    },
    {
      "inputs": [],
      "name": "owner",
      "outputs": [
        {
          "internalType": "address",
          "name": "",
          "type": "address"
        }
      ],
      "stateMutability": "view",
      "type": "function"
    },
    {
      "inputs": [
        {
          "components": [
            {
              "internalType": "uint32",
              "name": "dstEid",
              "type": "uint32"
            },
            {
              "internalType": "bytes32",
              "name": "receiver",
              "type": "bytes32"
            },
            {
              "internalType": "bytes",
              "name": "message",
              "type": "bytes"
            },
            {
              "internalType": "bytes",
              "name": "options",
              "type": "bytes"
            },
            {
              "internalType": "bool",
              "name": "payInLzToken",
              "type": "bool"
            }
          ],
          "internalType": "struct MessagingParams",
          "name": "_params",
          "type": "tuple"
        },
        {
          "internalType": "address",
          "name": "_sender",
          "type": "address"
        }
      ],
      "name": "quote",
      "outputs": [
        {
          "components": [
            {
              "internalType": "uint256",
              "name": "nativeFee",
              "type": "uint256"
            },
            {
              "internalType": "uint256",
              "name": "lzTokenFee",
              "type": "uint256"
            }
          ],
          "internalType": "struct MessagingFee",
          "name": "",
          "type": "tuple"
        }
      ],
      "stateMutability": "view",
      "type": "function"
    },
    {
      "inputs": [
        {
          "internalType": "address",
          "name": "receiver",
          "type": "address"
        },
        {
          "internalType": "uint32",
          "name": "srcEid",
          "type": "uint32"
        }
      ],
      "name": "receiveLibraryTimeout",
      "outputs": [
        {
          "internalType": "address",
          "name": "lib",
          "type": "address"
        },
        {
          "internalType": "uint256",
          "name": "expiry",
          "type": "uint256"
        }
      ],
      "stateMutability": "view",
      "type": "function"
    },
    {
      "inputs": [
        {
          "internalType": "address",
          "name": "_token",
          "type": "address"
        },
        {
          "internalType": "address",
          "name": "_to",
          "type": "address"
        },
        {
          "internalType": "uint256",
          "name": "_amount",
          "type": "uint256"
        }
      ],
      "name": "recoverToken",
      "outputs": [],
      "stateMutability": "nonpayable",
      "type": "function"
    },
    {
      "inputs": [
        {
          "internalType": "address",
          "name": "_lib",
          "type": "address"
        }
      ],
      "name": "registerLibrary",
      "outputs": [],
      "stateMutability": "nonpayable",
      "type": "function"
    },
    {
      "inputs": [],
      "name": "renounceOwnership",
      "outputs": [],
      "stateMutability": "nonpayable",
      "type": "function"
    },
    {
      "inputs": [
        {
          "components": [
            {
              "internalType": "uint32",
              "name": "dstEid",
              "type": "uint32"
            },
            {
              "internalType": "bytes32",
              "name": "receiver",
              "type": "bytes32"
            },
            {
              "internalType": "bytes",
              "name": "message",
              "type": "bytes"
            },
            {
              "internalType": "bytes",
              "name": "options",
              "type": "bytes"
            },
            {
              "internalType": "bool",
              "name": "payInLzToken",
              "type": "bool"
            }
          ],
          "internalType": "struct MessagingParams",
          "name": "_params",
          "type": "tuple"
        },
        {
          "internalType": "address",
          "name": "_refundAddress",
          "type": "address"
        }
      ],
      "name": "send",
      "outputs": [
        {
          "components": [
            {
              "internalType": "bytes32",
              "name": "guid",
              "type": "bytes32"
            },
            {
              "internalType": "uint64",
              "name": "nonce",
              "type": "uint64"
            },
            {
              "components": [
                {
                  "internalType": "uint256",
                  "name": "nativeFee",
                  "type": "uint256"
                },
                {
                  "internalType": "uint256",
                  "name": "lzTokenFee",
                  "type": "uint256"
                }
              ],
              "internalType": "struct MessagingFee",
              "name": "fee",
              "type": "tuple"
            }
          ],
          "internalType": "struct MessagingReceipt",
          "name": "",
          "type": "tuple"
        }
      ],
      "stateMutability": "payable",
      "type": "function"
    },
    {
      "inputs": [
        {
          "internalType": "address",
          "name": "_to",
          "type": "address"
        },
        {
          "internalType": "bytes32",
          "name": "_guid",
          "type": "bytes32"
        },
        {
          "internalType": "uint16",
          "name": "_index",
          "type": "uint16"
        },
        {
          "internalType": "bytes",
          "name": "_message",
          "type": "bytes"
        }
      ],
      "name": "sendCompose",
      "outputs": [],
      "stateMutability": "nonpayable",
      "type": "function"
    },
    {
      "inputs": [
        {
          "internalType": "address",
          "name": "_oapp",
          "type": "address"
        },
        {
          "internalType": "address",
          "name": "_lib",
          "type": "address"
        },
        {
          "components": [
            {
              "internalType": "uint32",
              "name": "eid",
              "type": "uint32"
            },
            {
              "internalType": "uint32",
              "name": "configType",
              "type": "uint32"
            },
            {
              "internalType": "bytes",
              "name": "config",
              "type": "bytes"
            }
          ],
          "internalType": "struct SetConfigParam[]",
          "name": "_params",
          "type": "tuple[]"
        }
      ],
      "name": "setConfig",
      "outputs": [],
      "stateMutability": "nonpayable",
      "type": "function"
    },
    {
      "inputs": [
        {
          "internalType": "uint32",
          "name": "_eid",
          "type": "uint32"
        },
        {
          "internalType": "address",
          "name": "_newLib",
          "type": "address"
        },
        {
          "internalType": "uint256",
          "name": "_gracePeriod",
          "type": "uint256"
        }
      ],
      "name": "setDefaultReceiveLibrary",
      "outputs": [],
      "stateMutability": "nonpayable",
      "type": "function"
    },
    {
      "inputs": [
        {
          "internalType": "uint32",
          "name": "_eid",
          "type": "uint32"
        },
        {
          "internalType": "address",
          "name": "_lib",
          "type": "address"
        },
        {
          "internalType": "uint256",
          "name": "_expiry",
          "type": "uint256"
        }
      ],
      "name": "setDefaultReceiveLibraryTimeout",
      "outputs": [],
      "stateMutability": "nonpayable",
      "type": "function"
    },
    {
      "inputs": [
        {
          "internalType": "uint32",
          "name": "_eid",
          "type": "uint32"
        },
        {
          "internalType": "address",
          "name": "_newLib",
          "type": "address"
        }
      ],
      "name": "setDefaultSendLibrary",
      "outputs": [],
      "stateMutability": "nonpayable",
      "type": "function"
    },
    {
      "inputs": [
        {
          "internalType": "address",
          "name": "_delegate",
          "type": "address"
        }
      ],
      "name": "setDelegate",
      "outputs": [],
      "stateMutability": "nonpayable",
      "type": "function"
    },
    {
      "inputs": [
        {
          "internalType": "address",
          "name": "_lzToken",
          "type": "address"
        }
      ],
      "name": "setLzToken",
      "outputs": [],
      "stateMutability": "nonpayable",
      "type": "function"
    },
    {
      "inputs": [
        {
          "internalType": "address",
          "name": "_oapp",
          "type": "address"
        },
        {
          "internalType": "uint32",
          "name": "_eid",
          "type": "uint32"
        },
        {
          "internalType": "address",
          "name": "_newLib",
          "type": "address"
        },
        {
          "internalType": "uint256",
          "name": "_gracePeriod",
          "type": "uint256"
        }
      ],
      "name": "setReceiveLibrary",
      "outputs": [],
      "stateMutability": "nonpayable",
      "type": "function"
    },
    {
      "inputs": [
        {
          "internalType": "address",
          "name": "_oapp",
          "type": "address"
        },
        {
          "internalType": "uint32",
          "name": "_eid",
          "type": "uint32"
        },
        {
          "internalType": "address",
          "name": "_lib",
          "type": "address"
        },
        {
          "internalType": "uint256",
          "name": "_expiry",
          "type": "uint256"
        }
      ],
      "name": "setReceiveLibraryTimeout",
      "outputs": [],
      "stateMutability": "nonpayable",
      "type": "function"
    },
    {
      "inputs": [
        {
          "internalType": "address",
          "name": "_oapp",
          "type": "address"
        },
        {
          "internalType": "uint32",
          "name": "_eid",
          "type": "uint32"
        },
        {
          "internalType": "address",
          "name": "_newLib",
          "type": "address"
        }
      ],
      "name": "setSendLibrary",
      "outputs": [],
      "stateMutability": "nonpayable",
      "type": "function"
    },
    {
      "inputs": [
        {
          "internalType": "address",
          "name": "_oapp",
          "type": "address"
        },
        {
          "internalType": "uint32",
          "name": "_srcEid",
          "type": "uint32"
        },
        {
          "internalType": "bytes32",
          "name": "_sender",
          "type": "bytes32"
        },
        {
          "internalType": "uint64",
          "name": "_nonce",
          "type": "uint64"
        }
      ],
      "name": "skip",
      "outputs": [],
      "stateMutability": "nonpayable",
      "type": "function"
    },
    {
      "inputs": [
        {
          "internalType": "address",
          "name": "newOwner",
          "type": "address"
        }
      ],
      "name": "transferOwnership",
      "outputs": [],
      "stateMutability": "nonpayable",
      "type": "function"
    },
    {
      "inputs": [
        {
          "components": [
            {
              "internalType": "uint32",
              "name": "srcEid",
              "type": "uint32"
            },
            {
              "internalType": "bytes32",
              "name": "sender",
              "type": "bytes32"
            },
            {
              "internalType": "uint64",
              "name": "nonce",
              "type": "uint64"
            }
          ],
          "internalType": "struct Origin",
          "name": "_origin",
          "type": "tuple"
        },
        {
          "internalType": "address",
          "name": "_receiver",
          "type": "address"
        }
      ],
      "name": "verifiable",
      "outputs": [
        {
          "internalType": "bool",
          "name": "",
          "type": "bool"
        }
      ],
      "stateMutability": "view",
      "type": "function"
    },
    {
      "inputs": [
        {
          "components": [
            {
              "internalType": "uint32",
              "name": "srcEid",
              "type": "uint32"
            },
            {
              "internalType": "bytes32",
              "name": "sender",
              "type": "bytes32"
            },
            {
              "internalType": "uint64",
              "name": "nonce",
              "type": "uint64"
            }
          ],
          "internalType": "struct Origin",
          "name": "_origin",
          "type": "tuple"
        },
        {
          "internalType": "address",
          "name": "_receiver",
          "type": "address"
        },
        {
          "internalType": "bytes32",
          "name": "_payloadHash",
          "type": "bytes32"
        }
      ],
      "name": "verify",
      "outputs": [],
      "stateMutability": "nonpayable",
      "type": "function"
    }
  ],
  "transactionHash": "0x94da05c4b07e498d1cfb829c048b75a167fbe92bcefb870751de7580484f9fc3",
  "args": [
    10106,
    "0x462c2AE39B6B0bdB950Deb2BC82082308cF8cB10"
  ],
  "numDeployments": 2,
  "solcInputHash": "df45c5d73ee7212b45689d2cdbb787f2",
  "bytecode": "0x60c06040526001600d553480156200001657600080fd5b50604051620056c1380380620056c18339810160408190526200003991620002d6565b816200004533620000a6565b63ffffffff166080526040516200005c90620002c8565b604051809103906000f08015801562000079573d6000803e3d6000fd5b506001600160a01b031660a08190526200009390620000f6565b6200009e81620000a6565b505062000353565b600080546001600160a01b038381166001600160a01b0319831681178455604051919092169283917f8be0079c531659141344cd1fd0a4f28419497f9722a3daafe3b4186f6b6457e09190a35050565b6200010062000267565b6040516301ffc9a760e01b81526325fc096160e21b60048201526001600160a01b038216906301ffc9a790602401602060405180830381865afa1580156200014c573d6000803e3d6000fd5b505050506040513d601f19601f8201168201806040525081019062000172919062000328565b620001905760405163eb64f35d60e01b815260040160405180910390fd5b6001600160a01b03811660009081526005602052604090205460ff1615620001cb5760405163457517f360e11b815260040160405180910390fd5b6001600160a01b0381166000818152600560209081526040808320805460ff191660019081179091556004805491820181559093527f8a35acfbc15ff81a39ae7d344fd709f28e8600b4aa8c65c6b64bfe7fe36bd19b90920180546001600160a01b0319168417905590519182527f6b374d56679ca9463f27c85c6311e2bb7fde69bf201d3da39d53f10bd9d78af5910160405180910390a150565b6000546001600160a01b03163314620002c65760405162461bcd60e51b815260206004820181905260248201527f4f776e61626c653a2063616c6c6572206973206e6f7420746865206f776e6572604482015260640160405180910390fd5b565b6101e380620054de83390190565b60008060408385031215620002ea57600080fd5b825163ffffffff81168114620002ff57600080fd5b60208401519092506001600160a01b03811681146200031d57600080fd5b809150509250929050565b6000602082840312156200033b57600080fd5b815180151581146200034c57600080fd5b9392505050565b60805160a0516151426200039c60003960006107810152600081816105310152818161278901528181612f7b01528181612fe20152818161358e01526135f501526151426000f3fe6080604052600436106103505760003560e01c80639132e5c3116101c6578063c9fc7bcd116100f7578063ddc28c5811610095578063e8964e811161006f578063e8964e8114610b8f578063ef667aa114610baf578063f2fde38b14610bfa578063f64be4c714610c1a57600080fd5b8063ddc28c5814610b2e578063e1758bd814610b5b578063e4fe1d9414610b6f57600080fd5b8063d4b4ec8f116100d1578063d4b4ec8f14610a72578063d70b890214610a92578063dc706a6214610ab2578063dc93c8a214610ae257600080fd5b8063c9fc7bcd146109f6578063ca5eb5e114610a3d578063cb5026b914610a5d57600080fd5b8063a7229fd911610164578063aafea3121161013e578063aafea31214610976578063b96a277f14610996578063c28e0eed146109b6578063c9a54a99146109d657600080fd5b8063a7229fd914610916578063a825d74714610936578063aafe5e071461095657600080fd5b80639c6d7340116101a05780639c6d73401461086f5780639d7f9775146108b6578063a0dd43fc146108d6578063a718531b146108f657600080fd5b80639132e5c31461081a57806391d20fa11461083c5780639535ff301461084f57600080fd5b80635b17bb70116102a05780636f50a8031161023e57806379624ca91161021857806379624ca9146107a35780637cb59012146107bc578063861e1ca5146107dc5780638da5cb5b146107fc57600080fd5b80636f50a80314610724578063715018a61461075a578063733180911461076f57600080fd5b80636a14d7151161027a5780636a14d715146106655780636bf73fa3146106855780636dbd9f90146106a55780636e83f5bb146106c557600080fd5b80635b17bb70146105b65780636750cd4c14610615578063697fe6b61461064557600080fd5b80632baf0be71161030d578063402f8468116102e7578063402f8468146104c057806340f80683146104ff578063416ecebf1461051f578063587cde1e1461056857600080fd5b80632baf0be7146104355780632e80fbf31461045957806335d330b01461047957600080fd5b80630c0c389e1461035557806314f651a91461036a578063183c834f146103a85780632637a450146103c85780632a56c1b0146103e85780632b3197b914610408575b600080fd5b610368610363366004613fee565b610c50565b005b34801561037657600080fd5b5061037f610d4e565b6040805163ffffffff90931683526001600160a01b039091166020830152015b60405180910390f35b3480156103b457600080fd5b506103686103c336600461409d565b610d80565b6103db6103d63660046140e8565b611027565b60405161039f919061413a565b3480156103f457600080fd5b5061036861040336600461417c565b61114d565b34801561041457600080fd5b506104286104233660046141eb565b6111ed565b60405161039f919061428f565b34801561044157600080fd5b5061044b60001981565b60405190815260200161039f565b34801561046557600080fd5b506103686104743660046142b9565b6112b8565b34801561048557600080fd5b5061044b610494366004614320565b600c60209081526000948552604080862082529385528385208152918452828420909152825290205481565b3480156104cc57600080fd5b506104e06104db366004614362565b611427565b604080516001600160a01b03909316835290151560208301520161039f565b34801561050b57600080fd5b5061036861051a3660046142b9565b6114a5565b34801561052b57600080fd5b506105537f000000000000000000000000000000000000000000000000000000000000000081565b60405163ffffffff909116815260200161039f565b34801561057457600080fd5b5061059e61058336600461438c565b600f602052600090815260409020546001600160a01b031681565b6040516001600160a01b03909116815260200161039f565b3480156105c257600080fd5b506105fd6105d13660046143a7565b60016020908152600093845260408085208252928452828420905282529020546001600160401b031681565b6040516001600160401b03909116815260200161039f565b34801561062157600080fd5b506106356106303660046143e3565b61160b565b604051901515815260200161039f565b34801561065157600080fd5b506103686106603660046143fe565b61165b565b34801561067157600080fd5b5061036861068036600461409d565b6116d0565b34801561069157600080fd5b506103686106a03660046144f9565b611aae565b3480156106b157600080fd5b506103686106c03660046145dc565b611b18565b3480156106d157600080fd5b506107056106e03660046143e3565b600b60205260009081526040902080546001909101546001600160a01b039091169082565b604080516001600160a01b03909316835260208301919091520161039f565b34801561073057600080fd5b5061059e61073f3660046143e3565b600a602052600090815260409020546001600160a01b031681565b34801561076657600080fd5b50610368611bba565b34801561077b57600080fd5b5061059e7f000000000000000000000000000000000000000000000000000000000000000081565b3480156107af57600080fd5b50600d5460011415610635565b3480156107c857600080fd5b506103686107d736600461466c565b611bce565b3480156107e857600080fd5b506106356107f73660046146bd565b611cba565b34801561080857600080fd5b506000546001600160a01b031661059e565b34801561082657600080fd5b5061082f611d26565b60405161039f91906146e8565b61036861084a366004614735565b611d88565b34801561085b57600080fd5b5061036861086a3660046147df565b611f18565b34801561087b57600080fd5b506105fd61088a3660046143a7565b60036020908152600093845260408085208252928452828420905282529020546001600160401b031681565b3480156108c257600080fd5b506106356108d13660046147df565b61217c565b3480156108e257600080fd5b506105fd6108f13660046143a7565b612256565b34801561090257600080fd5b50610368610911366004614822565b6122b6565b34801561092257600080fd5b5061036861093136600461484e565b6125d6565b34801561094257600080fd5b5061036861095136600461486c565b6125ee565b34801561096257600080fd5b5061044b6109713660046143a7565b612739565b34801561098257600080fd5b506103686109913660046148a9565b6127b9565b3480156109a257600080fd5b5061059e6109b1366004614362565b6129e2565b3480156109c257600080fd5b506103686109d136600461438c565b612a51565b3480156109e257600080fd5b506106356109f13660046146bd565b612aae565b348015610a0257600080fd5b5061044b610a113660046148c5565b600260209081526000948552604080862082529385528385208152918452828420909152825290205481565b348015610a4957600080fd5b50610368610a5836600461438c565b612b13565b348015610a6957600080fd5b5061044b600081565b348015610a7e57600080fd5b50610368610a8d366004614822565b612b73565b348015610a9e57600080fd5b50610368610aad3660046148c5565b612db1565b348015610abe57600080fd5b50610635610acd36600461438c565b60056020526000908152604090205460ff1681565b348015610aee57600080fd5b50610635610afd366004614362565b6001600160a01b03918216600090815260066020908152604080832063ffffffff9490941683529290522054161590565b348015610b3a57600080fd5b50610b4e610b493660046140e8565b612ea0565b60405161039f9190614907565b348015610b6757600080fd5b50600061059e565b348015610b7b57600080fd5b50600e5461059e906001600160a01b031681565b348015610b9b57600080fd5b50610368610baa36600461438c565b61310c565b348015610bbb57600080fd5b50610705610bca366004614362565b6008602090815260009283526040808420909152908252902080546001909101546001600160a01b039091169082565b348015610c0657600080fd5b50610368610c1536600461438c565b613270565b348015610c2657600080fd5b5061059e610c353660046143e3565b6009602052600090815260409020546001600160a01b031681565b610c9f86610c6160208a018a6143e3565b60208a0135610c7660608c0160408d0161491e565b898989604051602001610c8b93929190614939565b6040516020818303038152906040526132e9565b506040516313137d6560e01b81526001600160a01b038716906313137d65903490610cda908b908a908a908a9033908b908b906004016149b5565b6000604051808303818588803b158015610cf357600080fd5b505af1158015610d07573d6000803e3d6000fd5b50505050507f3cd5e48f9730b129dc7550f0fcea9c767b7be37837cd10e55eb35f734f4bca048787604051610d3d929190614a0c565b60405180910390a150505050505050565b600080610d5e600d546001141590565b610d6a57600080610d78565b610d78600d5460a081901c91565b915091509091565b6001600160a01b038216600090815260056020526040902054829060ff16610dbb57604051631bc58ef360e11b815260040160405180910390fd5b826001600160a01b03811615610e5e576000816001600160a01b0316631881d94d6040518163ffffffff1660e01b8152600401602060405180830381865afa158015610e0b573d6000803e3d6000fd5b505050506040513d601f19601f82011682018060405250810190610e2f9190614a48565b6002811115610e4057610e40614a32565b03610e5e576040516342756b1b60e11b815260040160405180910390fd5b83856001600160a01b03821615610efa576040516319d4335360e21b815263ffffffff821660048201526001600160a01b03831690636750cd4c90602401602060405180830381865afa158015610eb9573d6000803e3d6000fd5b505050506040513d601f19601f82011682018060405250810190610edd9190614a77565b610efa57604051630e476aa960e21b815260040160405180910390fd5b610f03886134a4565b6000610f0f8989611427565b9150508015610f3157604051633c075f7560e01b815260040160405180910390fd5b85600003610f79576001600160a01b038916600090815260086020908152604080832063ffffffff8c168452909152812080546001600160a01b031916815560010155610fdf565b438611610f99576040516302efcf9160e11b815260040160405180910390fd5b6001600160a01b03898116600090815260086020908152604080832063ffffffff8d168452909152902080546001600160a01b0319169189169190911781556001018690555b7f4e0a5bbfa0c11a64effb1ada324b5437a17272e1aed9320398715ef71bb20928898989896040516110149493929190614a94565b60405180910390a1505050505050505050565b61102f613f37565b61103c60208401846143e3565b336001600d54146110605760405163ee120b0960e01b815260040160405180910390fd5b63ffffffff60a01b60a083811b919091166001600160a01b03831617600d5561108e90860160808701614ac4565b80156110a35750600e546001600160a01b0316155b156110c157604051632d7b695560e11b815260040160405180910390fd5b6000806110ce33886134f5565b9150915060006110db3490565b905060006110f76110f260a08b0160808c01614ac4565b6137a1565b90506111088460400151838361383d565b600e5460408501516020015161112a916001600160a01b03169083868c61388b565b60408401515161113c9083858b6138b8565b50506001600d555095945050505050565b611156856134a4565b600083838360405160200161116d93929190614939565b60408051601f1981840301815291905290506111ab8661119060208801886143e3565b60208801356111a560608a0160408b0161491e565b856132e9565b507f3cd5e48f9730b129dc7550f0fcea9c767b7be37837cd10e55eb35f734f4bca0485876040516111dd929190614a0c565b60405180910390a1505050505050565b6001600160a01b038316600090815260056020526040902054606090849060ff1661122b57604051631bc58ef360e11b815260040160405180910390fd5b604051639c33abf760e01b815263ffffffff80861660048301526001600160a01b0388811660248401529085166044830152861690639c33abf790606401600060405180830381865afa158015611286573d6000803e3d6000fd5b505050506040513d6000823e601f3d908101601f191682016040526112ae9190810190614b74565b9695505050505050565b6112c1856134a4565b6001600160a01b038516600090815260026020908152604080832063ffffffff88168452825280832086845282528083206001600160401b038616845290915290205481811461133357604051637182306f60e01b815260048101829052602481018390526044015b60405180910390fd5b6001600160a01b038616600090815260016020908152604080832063ffffffff8916845282528083208784529091529020546001600160401b039081169084161180159061137f575080155b156113a857604051630c09b63560e41b81526001600160401b038416600482015260240161132a565b6001600160a01b038616600090815260026020908152604080832063ffffffff89168452825280832087845282528083206001600160401b0387168452909152908190206000199055517faf0450c392c4f702515a457a362328c8aa21916048ca6d0419e248b30cb55292906111dd90879087908a9088908890614ba8565b6001600160a01b03808316600090815260076020908152604080832063ffffffff86168452909152812054909116908161149e5763ffffffff83166000908152600a60205260409020546001600160a01b031691508161149a57604051633c74268360e11b815260040160405180910390fd5b5060015b9250929050565b6114ae856134a4565b6001600160a01b038516600090815260026020908152604080832063ffffffff88168452825280832086845282528083206001600160401b038616845290915290205481811461151b57604051637182306f60e01b8152600481018290526024810183905260440161132a565b80158061156557506001600160a01b038616600090815260016020908152604080832063ffffffff8916845282528083208784529091529020546001600160401b03908116908416115b1561158e57604051630c09b63560e41b81526001600160401b038416600482015260240161132a565b6001600160a01b038616600090815260026020908152604080832063ffffffff89168452825280832087845282528083206001600160401b038716845290915280822091909155517f7f68a37a6e69a0de35024a234558f9efe4b33b58657753d21eaaa82d51c3510e906111dd90879087908a9088908890614ba8565b63ffffffff81166000908152600960205260408120546001600160a01b031615801590611655575063ffffffff82166000908152600a60205260409020546001600160a01b031615155b92915050565b336001600160a01b03168b6001600160a01b03168d6001600160a01b03167f8a0b1dce321c5c5fb42349bce46d18087c04140de520917661fb923e44a904b98d8d8d8d8d8d8d8d8d8d6040516116ba9a99989796959493929190614be5565b60405180910390a4505050505050505050505050565b6001600160a01b038216600090815260056020526040902054829060ff1615801561170357506001600160a01b03811615155b156117215760405163a4ff2ec360e01b815260040160405180910390fd5b826001600160a01b038116156117c4576000816001600160a01b0316631881d94d6040518163ffffffff1660e01b8152600401602060405180830381865afa158015611771573d6000803e3d6000fd5b505050506040513d601f19601f820116820180604052508101906117959190614a48565b60028111156117a6576117a6614a32565b036117c4576040516342756b1b60e11b815260040160405180910390fd5b83856001600160a01b03821615611860576040516319d4335360e21b815263ffffffff821660048201526001600160a01b03831690636750cd4c90602401602060405180830381865afa15801561181f573d6000803e3d6000fd5b505050506040513d601f19601f820116820180604052508101906118439190614a77565b61186057604051630e476aa960e21b815260040160405180910390fd5b611869886134a4565b6001600160a01b03808916600090815260076020908152604080832063ffffffff8c168452909152902054811690871681036118b85760405163d0ecb66b60e01b815260040160405180910390fd5b6001600160a01b03898116600081815260076020908152604080832063ffffffff8e168085529083529281902080546001600160a01b031916958d1695861790558051938452908301919091528101919091527fcd6f92f5ac6185a5acfa02c92090746cec64d777269cbcd0ed031e396657a1c29060600160405180910390a18515611a32576001600160a01b038116158061195b57506001600160a01b038716155b1561197957604051633c075f7560e01b815260040160405180910390fd5b60006040518060400160405280836001600160a01b0316815260200188436119a19190614c64565b90526001600160a01b038b8116600090815260086020908152604080832063ffffffff8f168452825291829020845181546001600160a01b03191694169390931783558301516001909201829055519192507f4e0a5bbfa0c11a64effb1ada324b5437a17272e1aed9320398715ef71bb2092891611a24918d918d918791614a94565b60405180910390a150611aa3565b6001600160a01b038916600090815260086020908152604080832063ffffffff8c16845290915280822080546001600160a01b0319168155600101829055517f4e0a5bbfa0c11a64effb1ada324b5437a17272e1aed9320398715ef71bb2092891611014918c918c91869190614a94565b505050505050505050565b336001600160a01b03168a6001600160a01b03167f7edfa10fe10193301ad8a8bea7e968c7bcabcc64981f368e3aeada40ce26ae2c8d8c8c8c8c8c8c8c8c8c604051611b039a99989796959493929190614c77565b60405180910390a35050505050505050505050565b6001600160a01b038316600090815260056020526040902054839060ff16611b5357604051631bc58ef360e11b815260040160405180910390fd5b611b5c856134a4565b604051631077eb9160e11b81526001600160a01b038516906320efd72290611b8c90889087908790600401614cd6565b600060405180830381600087803b158015611ba657600080fd5b505af1158015611aa3573d6000803e3d6000fd5b611bc26138e2565b611bcc600061393c565b565b336000908152600c602090815260408083206001600160a01b03891684528252808320878452825280832061ffff8716845290915290205415611c2457604051630542086560e21b815260040160405180910390fd5b8181604051611c34929190614dc9565b60408051918290038220336000818152600c60209081528482206001600160a01b038c16835281528482208a8352815284822061ffff8a168352905292909220557f3d52ff888d033fd3dd1d8057da59e850c91d91a72c41dfa445b247dfedeb6dc191611cab919088908890889088908890614dd9565b60405180910390a15050505050565b6001600160a01b03811660009081526001602090815260408220611d1f91859185918590611cea908501856143e3565b63ffffffff168152602080820192909252604090810160009081208984013582529092529020546001600160401b031661398c565b9392505050565b60606004805480602002602001604051908101604052809291908181526020018280548015611d7e57602002820191906000526020600020905b81546001600160a01b03168152600190910190602001808311611d60575b5050505050905090565b6001600160a01b038089166000908152600c60209081526040808320938b168352928152828220898352815282822061ffff891683529052818120549151611dd39087908790614dc9565b60405180910390209050808214611e07576040516335ca595f60e01b8152600481018390526024810182905260440161132a565b6001600160a01b03808b166000908152600c60209081526040808320938d168084529382528083208c8452825280832061ffff8c168452909152908190206001905551630685081360e51b815263d0a10260903490611e76908e908d908c908c9033908d908d90600401614e23565b6000604051808303818588803b158015611e8f57600080fd5b505af1158015611ea3573d6000803e3d6000fd5b50505050507e36c98efcf9e6641dfbc9051f66f405253e8e0c2ab4a24dccda15595b7378c88a8a8a8a604051611f0494939291906001600160a01b039485168152929093166020830152604082015261ffff91909116606082015260800190565b60405180910390a150505050505050505050565b6001600160a01b038116600090815260056020526040902054819060ff16158015611f4b57506001600160a01b03811615155b15611f695760405163a4ff2ec360e01b815260040160405180910390fd5b816001600160a01b0381161561200c576001816001600160a01b0316631881d94d6040518163ffffffff1660e01b8152600401602060405180830381865afa158015611fb9573d6000803e3d6000fd5b505050506040513d601f19601f82011682018060405250810190611fdd9190614a48565b6002811115611fee57611fee614a32565b0361200c57604051633d00f6f160e11b815260040160405180910390fd5b82846001600160a01b038216156120a8576040516319d4335360e21b815263ffffffff821660048201526001600160a01b03831690636750cd4c90602401602060405180830381865afa158015612067573d6000803e3d6000fd5b505050506040513d601f19601f8201168201806040525081019061208b9190614a77565b6120a857604051630e476aa960e21b815260040160405180910390fd5b6120b1876134a4565b6001600160a01b03878116600090815260066020908152604080832063ffffffff8b1684529091529020548187169116036120ff5760405163d0ecb66b60e01b815260040160405180910390fd5b6001600160a01b03878116600081815260066020908152604080832063ffffffff8c168085529083529281902080546001600160a01b031916958b1695861790558051938452908301919091528101919091527f4cff966ebee29a156dcb34cf72c1d06231fb1777f6bdf6e8089819232f002b1c90606001610d3d565b600080600061218b8686611427565b91509150816001600160a01b0316846001600160a01b0316036121b357600192505050611d1f565b6000816121e8576001600160a01b038716600090815260086020908152604080832063ffffffff8a16845290915290206121fe565b63ffffffff86166000908152600b602052604090205b6040805180820190915281546001600160a01b03908116808352600190930154602083015290925086161480156122385750438160200151115b156122495760019350505050611d1f565b5060009695505050505050565b6001600160a01b038316600090815260016020908152604080832063ffffffff8616845282528083208484529091528120546001600160401b03165b6122a185858584600101613a10565b156122ae57600101612292565b949350505050565b6122be6138e2565b6001600160a01b038216600090815260056020526040902054829060ff166122f957604051631bc58ef360e11b815260040160405180910390fd5b826001600160a01b0381161561239c576000816001600160a01b0316631881d94d6040518163ffffffff1660e01b8152600401602060405180830381865afa158015612349573d6000803e3d6000fd5b505050506040513d601f19601f8201168201806040525081019061236d9190614a48565b600281111561237e5761237e614a32565b0361239c576040516342756b1b60e11b815260040160405180910390fd5b83856001600160a01b03821615612438576040516319d4335360e21b815263ffffffff821660048201526001600160a01b03831690636750cd4c90602401602060405180830381865afa1580156123f7573d6000803e3d6000fd5b505050506040513d601f19601f8201168201806040525081019061241b9190614a77565b61243857604051630e476aa960e21b815260040160405180910390fd5b63ffffffff87166000908152600a60205260409020546001600160a01b03908116908716810361247b5760405163d0ecb66b60e01b815260040160405180910390fd5b63ffffffff88166000818152600a602090815260409182902080546001600160a01b0319166001600160a01b038c169081179091558251938452908301527fc16891855cffb4a5ac51ac11864a3f3c96ba816cc45fe686c987ae36277de5ec910160405180910390a185156125695763ffffffff88166000908152600b6020526040902080546001600160a01b0319166001600160a01b0383161781556125228743614c64565b600182018190556040517f55b28633cdb29709386f555dfc54418592ad475ce7a65a78ac5928af60ffb8f89161255b918c918691614e76565b60405180910390a1506125cc565b63ffffffff88166000908152600b602052604080822080546001600160a01b0319168155600101829055517f55b28633cdb29709386f555dfc54418592ad475ce7a65a78ac5928af60ffb8f8916125c3918b918591614e76565b60405180910390a15b5050505050505050565b6125de6138e2565b6125e9838383613a5d565b505050565b612605826125ff60208601866143e3565b3361217c565b612622576040516313e9bb2b60e21b815260040160405180910390fd5b6001600160a01b0382166000908152600160209081526040822090829061264b908701876143e3565b63ffffffff168152602080820192909252604090810160009081208784013582529092529020546001600160401b0316905061268884848361398c565b6126a55760405163751cb20f60e01b815260040160405180910390fd5b6126b0848483613a80565b6126cc5760405162bbf0e560e11b815260040160405180910390fd5b6126f8836126dd60208701876143e3565b60208701356126f26060890160408a0161491e565b86613b3d565b7f0d87345f3d1c929caba93e1c3821b54ff3512e12b66aa3cfe54b6bcbc17e59b484848460405161272b93929190614e9d565b60405180910390a150505050565b6001600160a01b038316600090815260036020908152604080832063ffffffff8616845282528083208484529091528120548190612781906001600160401b03166001614ec5565b90506127b0817f0000000000000000000000000000000000000000000000000000000000000000878787613ba3565b95945050505050565b6127c16138e2565b6001600160a01b038116600090815260056020526040902054819060ff166127fc57604051631bc58ef360e11b815260040160405180910390fd5b816001600160a01b0381161561289f576001816001600160a01b0316631881d94d6040518163ffffffff1660e01b8152600401602060405180830381865afa15801561284c573d6000803e3d6000fd5b505050506040513d601f19601f820116820180604052508101906128709190614a48565b600281111561288157612881614a32565b0361289f57604051633d00f6f160e11b815260040160405180910390fd5b82846001600160a01b0382161561293b576040516319d4335360e21b815263ffffffff821660048201526001600160a01b03831690636750cd4c90602401602060405180830381865afa1580156128fa573d6000803e3d6000fd5b505050506040513d601f19601f8201168201806040525081019061291e9190614a77565b61293b57604051630e476aa960e21b815260040160405180910390fd5b63ffffffff86166000908152600960205260409020546001600160a01b0380871691160361297c5760405163d0ecb66b60e01b815260040160405180910390fd5b63ffffffff861660008181526009602090815260409182902080546001600160a01b0319166001600160a01b038a169081179091558251938452908301527f16aa0f528038ab41019e95bae5b418a50ba8532c5800e3b7ea2f517d3fa625f591016111dd565b6001600160a01b03808316600090815260066020908152604080832063ffffffff861684529091529020541680611655575063ffffffff81166000908152600960205260409020546001600160a01b03168061165557604051636c1ccdb560e01b815260040160405180910390fd5b612a596138e2565b600e80546001600160a01b0319166001600160a01b0383169081179091556040519081527fd476ec5ec1ac11cec3714d41e7ea49419471aceb9bd0dff1becfc3e363a62396906020015b60405180910390a150565b6001600160a01b03811660009081526001602090815260408220611d1f91859185918590612ade908501856143e3565b63ffffffff168152602080820192909252604090810160009081208984013582529092529020546001600160401b0316613a80565b336000818152600f602090815260409182902080546001600160a01b0319166001600160a01b0386169081179091558251938452908301527f6ee10e9ed4d6ce9742703a498707862f4b00f1396a87195eb93267b3d79839819101612aa3565b6001600160a01b038216600090815260056020526040902054829060ff16612bae57604051631bc58ef360e11b815260040160405180910390fd5b826001600160a01b03811615612c51576000816001600160a01b0316631881d94d6040518163ffffffff1660e01b8152600401602060405180830381865afa158015612bfe573d6000803e3d6000fd5b505050506040513d601f19601f82011682018060405250810190612c229190614a48565b6002811115612c3357612c33614a32565b03612c51576040516342756b1b60e11b815260040160405180910390fd5b83856001600160a01b03821615612ced576040516319d4335360e21b815263ffffffff821660048201526001600160a01b03831690636750cd4c90602401602060405180830381865afa158015612cac573d6000803e3d6000fd5b505050506040513d601f19601f82011682018060405250810190612cd09190614a77565b612ced57604051630e476aa960e21b815260040160405180910390fd5b612cf56138e2565b84600003612d295763ffffffff87166000908152600b6020526040812080546001600160a01b031916815560010155612d7e565b438511612d49576040516302efcf9160e11b815260040160405180910390fd5b63ffffffff87166000908152600b6020526040902080546001600160a01b0319166001600160a01b0388161781556001018590555b7f55b28633cdb29709386f555dfc54418592ad475ce7a65a78ac5928af60ffb8f8878787604051610d3d93929190614e76565b612dba846134a4565b612dc5848484612256565b612dd0906001614ec5565b6001600160401b0316816001600160401b031614612e0c57604051630c09b63560e41b81526001600160401b038216600482015260240161132a565b6001600160a01b038416600081815260016020908152604080832063ffffffff8816808552908352818420878552835292819020805467ffffffffffffffff19166001600160401b038716908117909155815193845291830186905282019290925260608101919091527f28f40053783033ef755556a0c3315379141f51a33aed8334174ffbadd90bde489060800161272b565b6040805180820190915260008082526020820152612ec460a0840160808501614ac4565b8015612ed95750600e546001600160a01b0316155b15612ef757604051632d7b695560e11b815260040160405180910390fd5b6001600160a01b03821660009081526003602090815260408220908290612f20908701876143e3565b63ffffffff16815260208082019290925260409081016000908120878401358252909252902054612f5b906001600160401b03166001614ec5565b905060006040518060e00160405280836001600160401b031681526020017f000000000000000000000000000000000000000000000000000000000000000063ffffffff168152602001856001600160a01b03168152602001866000016020810190612fc791906143e3565b63ffffffff1681526020018660200135815260200161301f847f0000000000000000000000000000000000000000000000000000000000000000888a600001602081019061301591906143e3565b8b60200135613ba3565b81526020016130316040880188614ee5565b8080601f01602080910402602001604051908101604052809392919081815260200183838082843760009201829052509390945250929350915061307e9050856109b160208901896143e3565b90506001600160a01b03811663d80e9bd98361309d60608a018a614ee5565b6130ad60a08c0160808d01614ac4565b6040518563ffffffff1660e01b81526004016130cc9493929190614f2b565b6040805180830381865afa1580156130e8573d6000803e3d6000fd5b505050506040513d601f19601f820116820180604052508101906112ae919061501f565b6131146138e2565b6040516301ffc9a760e01b81526325fc096160e21b60048201526001600160a01b038216906301ffc9a790602401602060405180830381865afa15801561315f573d6000803e3d6000fd5b505050506040513d601f19601f820116820180604052508101906131839190614a77565b6131a05760405163eb64f35d60e01b815260040160405180910390fd5b6001600160a01b03811660009081526005602052604090205460ff16156131da5760405163457517f360e11b815260040160405180910390fd5b6001600160a01b0381166000818152600560209081526040808320805460ff191660019081179091556004805491820181559093527f8a35acfbc15ff81a39ae7d344fd709f28e8600b4aa8c65c6b64bfe7fe36bd19b90920180546001600160a01b0319168417905590519182527f6b374d56679ca9463f27c85c6311e2bb7fde69bf201d3da39d53f10bd9d78af59101612aa3565b6132786138e2565b6001600160a01b0381166132dd5760405162461bcd60e51b815260206004820152602660248201527f4f776e61626c653a206e6577206f776e657220697320746865207a65726f206160448201526564647265737360d01b606482015260840161132a565b6132e68161393c565b50565b6001600160a01b038516600090815260016020908152604080832063ffffffff8816845282528083208684529091528120546001600160401b039081169084168110156133d757600181015b846001600160401b0316816001600160401b03161161338a5761335a88888884613a10565b61338257604051630c09b63560e41b81526001600160401b038216600482015260240161132a565b600101613335565b506001600160a01b038716600090815260016020908152604080832063ffffffff8a16845282528083208884529091529020805467ffffffffffffffff19166001600160401b0386161790555b82516020808501919091206001600160a01b038916600090815260028352604080822063ffffffff8b168352845280822089835284528082206001600160401b0389168352909352919091205490925080831461345157604051637182306f60e01b8152600481018290526024810184905260440161132a565b50506001600160a01b03909516600090815260026020908152604080832063ffffffff90971683529581528582209482529384528481206001600160401b03909316815291909252918220919091555090565b336001600160a01b038216148015906134d757506001600160a01b038181166000908152600f6020526040902054163314155b156132e65760405163c4c5259360e01b815260040160405180910390fd5b6134fd613f37565b60008061356e8561351160208701876143e3565b6001600160a01b0391909116600090815260036020908152604080832063ffffffff949094168352928152828220818901358352905220805467ffffffffffffffff19811660016001600160401b03928316019182161790915590565b905060006040518060e00160405280836001600160401b031681526020017f000000000000000000000000000000000000000000000000000000000000000063ffffffff168152602001876001600160a01b031681526020018660000160208101906135da91906143e3565b63ffffffff16815260200186602001358152602001613628847f00000000000000000000000000000000000000000000000000000000000000008a8a600001602081019061301591906143e3565b815260200161363a6040880188614ee5565b8080601f0160208091040260200160405190810160405280939291908181526020018383808284376000920182905250939094525092935091506136879050876109b160208901896143e3565b90506000806001600160a01b038316634389e58f856136a960608c018c614ee5565b6136b960a08e0160808f01614ac4565b6040518563ffffffff1660e01b81526004016136d89493929190614f2b565b6000604051808303816000875af11580156136f7573d6000803e3d6000fd5b505050506040513d6000823e601f3d908101601f1916820160405261371f919081019061503b565b90925090507f1ab700d4ced0c005b164c0f789fd09fcbb0156d4c2041b8a3bfbcd961cd1567f8161375360608b018b614ee5565b866040516137649493929190615089565b60405180910390a1506040805160608101825260a09094015184526001600160401b03909416602084015292820192909252925090509250929050565b6000811561383857600e546040516370a0823160e01b81523060048201526001600160a01b03909116906370a0823190602401602060405180830381865afa1580156137f1573d6000803e3d6000fd5b505050506040513d601f19601f8201168201806040525081019061381591906150c9565b90508060000361383857604051631775123760e01b815260040160405180910390fd5b919050565b825182108061384f5750808360200151115b156125e95782516020840151604051634f3ec0d360e01b815260048101929092526024820184905260448201526064810182905260840161132a565b831561389c5761389c858386613c1c565b828410156138b1576138b18582868603613c1c565b5050505050565b83156138c8576138c88285613c57565b828410156138dc576138dc81858503613c57565b50505050565b6000546001600160a01b03163314611bcc5760405162461bcd60e51b815260206004820181905260248201527f4f776e61626c653a2063616c6c6572206973206e6f7420746865206f776e6572604482015260640161132a565b600080546001600160a01b038381166001600160a01b0319831681178455604051919092169283917f8be0079c531659141344cd1fd0a4f28419497f9722a3daafe3b4186f6b6457e09190a35050565b600080826001600160401b031611806122ae5750604051600162842fc360e01b031981526001600160a01b0384169063ff7bd03d906139cf9087906004016150e2565b602060405180830381865afa1580156139ec573d6000803e3d6000fd5b505050506040513d601f19601f820116820180604052508101906122ae9190614a77565b6001600160a01b038416600090815260026020908152604080832063ffffffff87168452825280832085845282528083206001600160401b03851684529091529020541515949350505050565b6001600160a01b038316613a75576125e98282613c57565b6125e9838383613c1c565b60006001600160401b038216613a9c606086016040870161491e565b6001600160401b031611806122ae57506001600160a01b03831660009081526002602090815260408220908290613ad5908801886143e3565b63ffffffff1663ffffffff1681526020019081526020016000206000866020013581526020019081526020016000206000866040016020810190613b19919061491e565b6001600160401b031681526020810191909152604001600020541415949350505050565b80613b5b576040516304df7fdb60e11b815260040160405180910390fd5b6001600160a01b03909416600090815260026020908152604080832063ffffffff90961683529481528482209382529283528381206001600160401b03909216815291522055565b600085856001600160a01b03861660405160c09390931b6001600160c01b031916602084015260e091821b6001600160e01b03199081166028850152602c8401919091529085901b16604c8201526050810183905260700160405160208183030381529060405280519060200120905095945050505050565b6001600160a01b038216613c43576040516306b7a93160e41b815260040160405180910390fd5b6125e96001600160a01b0384168383613d04565b6001600160a01b038216613c7e576040516306b7a93160e41b815260040160405180910390fd5b6000826001600160a01b03168260405160006040518083038185875af1925050503d8060008114613ccb576040519150601f19603f3d011682016040523d82523d6000602084013e613cd0565b606091505b50509050806125e957604051631196f20d60e21b81526001600160a01b03841660048201526024810183905260440161132a565b604080516001600160a01b03848116602483015260448083018590528351808403909101815260649092018352602080830180516001600160e01b031663a9059cbb60e01b17905283518085019094528084527f5361666545524332303a206c6f772d6c6576656c2063616c6c206661696c6564908401526125e992869291600091613d94918516908490613e14565b9050805160001480613db5575080806020019051810190613db59190614a77565b6125e95760405162461bcd60e51b815260206004820152602a60248201527f5361666545524332303a204552433230206f7065726174696f6e20646964206e6044820152691bdd081cdd58d8d9595960b21b606482015260840161132a565b60606122ae848460008585600080866001600160a01b03168587604051613e3b91906150f0565b60006040518083038185875af1925050503d8060008114613e78576040519150601f19603f3d011682016040523d82523d6000602084013e613e7d565b606091505b5091509150613e8e87838387613e99565b979650505050505050565b60608315613f08578251600003613f01576001600160a01b0385163b613f015760405162461bcd60e51b815260206004820152601d60248201527f416464726573733a2063616c6c20746f206e6f6e2d636f6e7472616374000000604482015260640161132a565b50816122ae565b6122ae8383815115613f1d5781518083602001fd5b8060405162461bcd60e51b815260040161132a919061428f565b60405180606001604052806000801916815260200160006001600160401b03168152602001613f79604051806040016040528060008152602001600081525090565b905290565b600060608284031215613f9057600080fd5b50919050565b80356001600160a01b038116811461383857600080fd5b60008083601f840112613fbf57600080fd5b5081356001600160401b03811115613fd657600080fd5b60208301915083602082850101111561149e57600080fd5b600080600080600080600060e0888a03121561400957600080fd5b6140138989613f7e565b965061402160608901613f96565b95506080880135945060a08801356001600160401b038082111561404457600080fd5b6140508b838c01613fad565b909650945060c08a013591508082111561406957600080fd5b506140768a828b01613fad565b989b979a50959850939692959293505050565b803563ffffffff8116811461383857600080fd5b600080600080608085870312156140b357600080fd5b6140bc85613f96565b93506140ca60208601614089565b92506140d860408601613f96565b9396929550929360600135925050565b600080604083850312156140fb57600080fd5b82356001600160401b0381111561411157600080fd5b830160a0818603121561412357600080fd5b915061413160208401613f96565b90509250929050565b6000608082019050825182526001600160401b0360208401511660208301526040830151614175604084018280518252602090810151910152565b5092915050565b600080600080600060c0868803121561419457600080fd5b61419d86613f96565b94506141ac8760208801613f7e565b93506080860135925060a08601356001600160401b038111156141ce57600080fd5b6141da88828901613fad565b969995985093965092949392505050565b6000806000806080858703121561420157600080fd5b61420a85613f96565b935061421860208601613f96565b925061422660408601614089565b915061423460608601614089565b905092959194509250565b60005b8381101561425a578181015183820152602001614242565b50506000910152565b6000815180845261427b81602086016020860161423f565b601f01601f19169290920160200192915050565b602081526000611d1f6020830184614263565b80356001600160401b038116811461383857600080fd5b600080600080600060a086880312156142d157600080fd5b6142da86613f96565b94506142e860208701614089565b9350604086013592506142fd606087016142a2565b949793965091946080013592915050565b803561ffff8116811461383857600080fd5b6000806000806080858703121561433657600080fd5b61433f85613f96565b935061434d60208601613f96565b9250604085013591506142346060860161430e565b6000806040838503121561437557600080fd5b61437e83613f96565b915061413160208401614089565b60006020828403121561439e57600080fd5b611d1f82613f96565b6000806000606084860312156143bc57600080fd5b6143c584613f96565b92506143d360208501614089565b9150604084013590509250925092565b6000602082840312156143f557600080fd5b611d1f82614089565b6000806000806000806000806000806000806101208d8f03121561442157600080fd5b61442a8d613f96565b9b5061443860208e01613f96565b9a5060408d0135995061444d60608e0161430e565b985060808d0135975060a08d013596506001600160401b0360c08e0135111561447557600080fd5b6144858e60c08f01358f01613fad565b90965094506001600160401b0360e08e013511156144a257600080fd5b6144b28e60e08f01358f01613fad565b90945092506001600160401b036101008e013511156144d057600080fd5b6144e18e6101008f01358f01613fad565b81935080925050509295989b509295989b509295989b565b60008060008060008060008060008060006101408c8e03121561451b57600080fd5b6145258d8d613f7e565b9a5061453360608d01613f96565b995060808c0135985060a08c0135975060c08c013596506001600160401b038060e08e0135111561456357600080fd5b6145738e60e08f01358f01613fad565b90975095506101008d013581101561458a57600080fd5b61459b8e6101008f01358f01613fad565b90955093506101208d01358110156145b257600080fd5b506145c48d6101208e01358e01613fad565b81935080925050509295989b509295989b9093969950565b600080600080606085870312156145f257600080fd5b6145fb85613f96565b935061460960208601613f96565b925060408501356001600160401b038082111561462557600080fd5b818701915087601f83011261463957600080fd5b81358181111561464857600080fd5b8860208260051b850101111561465d57600080fd5b95989497505060200194505050565b60008060008060006080868803121561468457600080fd5b61468d86613f96565b9450602086013593506146a26040870161430e565b925060608601356001600160401b038111156141ce57600080fd5b600080608083850312156146d057600080fd5b6146da8484613f7e565b915061413160608401613f96565b6020808252825182820181905260009190848201906040850190845b818110156147295783516001600160a01b031683529284019291840191600101614704565b50909695505050505050565b60008060008060008060008060c0898b03121561475157600080fd5b61475a89613f96565b975061476860208a01613f96565b96506040890135955061477d60608a0161430e565b945060808901356001600160401b038082111561479957600080fd5b6147a58c838d01613fad565b909650945060a08b01359150808211156147be57600080fd5b506147cb8b828c01613fad565b999c989b5096995094979396929594505050565b6000806000606084860312156147f457600080fd5b6147fd84613f96565b925061480b60208501614089565b915061481960408501613f96565b90509250925092565b60008060006060848603121561483757600080fd5b61484084614089565b92506143d360208501613f96565b60008060006060848603121561486357600080fd5b61484084613f96565b600080600060a0848603121561488157600080fd5b61488b8585613f7e565b925061489960608501613f96565b9150608084013590509250925092565b600080604083850312156148bc57600080fd5b61412383614089565b600080600080608085870312156148db57600080fd5b6148e485613f96565b93506148f260208601614089565b925060408501359150614234606086016142a2565b815181526020808301519082015260408101611655565b60006020828403121561493057600080fd5b611d1f826142a2565b838152818360208301376000910160200190815292915050565b63ffffffff61496182614089565b168252602081013560208301526001600160401b03614982604083016142a2565b1660408301525050565b81835281816020850137506000828201602090810191909152601f909101601f19169091010190565b6149bf8189614953565b86606082015260e0608082015260006149dc60e08301878961498c565b6001600160a01b03861660a084015282810360c08401526149fe81858761498c565b9a9950505050505050505050565b60808101614a1a8285614953565b6001600160a01b039290921660609190910152919050565b634e487b7160e01b600052602160045260246000fd5b600060208284031215614a5a57600080fd5b815160038110611d1f57600080fd5b80151581146132e657600080fd5b600060208284031215614a8957600080fd5b8151611d1f81614a69565b6001600160a01b03948516815263ffffffff93909316602084015292166040820152606081019190915260800190565b600060208284031215614ad657600080fd5b8135611d1f81614a69565b634e487b7160e01b600052604160045260246000fd5b600082601f830112614b0857600080fd5b81516001600160401b0380821115614b2257614b22614ae1565b604051601f8301601f19908116603f01168101908282118183101715614b4a57614b4a614ae1565b81604052838152866020858801011115614b6357600080fd5b6112ae84602083016020890161423f565b600060208284031215614b8657600080fd5b81516001600160401b03811115614b9c57600080fd5b6122ae84828501614af7565b63ffffffff95909516855260208501939093526001600160a01b039190911660408401526001600160401b03166060830152608082015260a00190565b8a815261ffff8a16602082015288604082015287606082015260e060808201526000614c1560e08301888a61498c565b82810360a0840152614c2881878961498c565b905082810360c0840152614c3d81858761498c565b9d9c50505050505050505050505050565b634e487b7160e01b600052601160045260246000fd5b8082018082111561165557611655614c4e565b6000610120614c86838e614953565b8b60608401528a60808401528960a08401528060c0840152614cab818401898b61498c565b905082810360e0840152614cc081878961498c565b9050828103610100840152614c3d81858761498c565b6001600160a01b03841681526040602080830182905282820184905260009190606090818501600587901b8601830188865b89811015614db957888303605f190184528135368c9003605e19018112614d2e57600080fd5b8b0163ffffffff80614d3f83614089565b16855280614d4e888401614089565b16878601525087810135601e19823603018112614d6a57600080fd5b0185810190356001600160401b03811115614d8457600080fd5b803603821315614d9357600080fd5b8789860152614da5888601828461498c565b958701959450505090840190600101614d08565b50909a9950505050505050505050565b8183823760009101908152919050565b6001600160a01b038781168252861660208201526040810185905261ffff8416606082015260a060808201819052600090614e17908301848661498c565b98975050505050505050565b600060018060a01b03808a16835288602084015260a06040840152614e4c60a08401888a61498c565b81871660608501528381036080850152614e6781868861498c565b9b9a5050505050505050505050565b63ffffffff9390931683526001600160a01b03919091166020830152604082015260600190565b60a08101614eab8286614953565b6001600160a01b0393909316606082015260800152919050565b6001600160401b0381811683821601908082111561417557614175614c4e565b6000808335601e19843603018112614efc57600080fd5b8301803591506001600160401b03821115614f1657600080fd5b60200191503681900382131561149e57600080fd5b606080825285516001600160401b031682820152602086015163ffffffff16608083015260408601516001600160a01b031660a0830152850151600090614f7a60c084018263ffffffff169052565b50608086015160e083015260a086015161010083015260c086015160e0610120840152614fab610140840182614263565b90508281036020840152614fc081868861498c565b9150506127b0604083018415159052565b600060408284031215614fe357600080fd5b604051604081018181106001600160401b038211171561500557615005614ae1565b604052825181526020928301519281019290925250919050565b60006040828403121561503157600080fd5b611d1f8383614fd1565b6000806060838503121561504e57600080fd5b6150588484614fd1565b915060408301516001600160401b0381111561507357600080fd5b61507f85828601614af7565b9150509250929050565b60608152600061509c6060830187614263565b82810360208401526150af81868861498c565b91505060018060a01b038316604083015295945050505050565b6000602082840312156150db57600080fd5b5051919050565b606081016116558284614953565b6000825161510281846020870161423f565b919091019291505056fea2646970667358221220506e9330af0a0dd5cce667c4aded24214554c16e7a8be64f8eadd172fad6cbe164736f6c63430008160033608060405234801561001057600080fd5b506101c3806100206000396000f3fe608060405234801561001057600080fd5b506004361061004c5760003560e01c806301ffc9a7146100655780631881d94d1461008d57806354fd4d501461009c5780636750cd4c146100c3575b604051632657b6c360e01b815260040160405180910390fd5b61007861007336600461010e565b6100d7565b60405190151581526020015b60405180910390f35b6002604051610084919061013f565b6040805167ffffffffffffffff815260ff6020820152600291810191909152606001610084565b6100786100d1366004610167565b50600190565b60006001600160e01b031982166325fc096160e21b148061010857506301ffc9a760e01b6001600160e01b03198316145b92915050565b60006020828403121561012057600080fd5b81356001600160e01b03198116811461013857600080fd5b9392505050565b602081016003831061016157634e487b7160e01b600052602160045260246000fd5b91905290565b60006020828403121561017957600080fd5b813563ffffffff8116811461013857600080fdfea2646970667358221220bdfdc706ca44dd5356c6259437691b6c036825981f687bc620f6e8bc6dc2705f64736f6c63430008160033",
  "devdoc": {
    "kind": "dev",
    "methods": {
      "burn(address,uint32,bytes32,uint64,bytes32)": {
        "details": "Marks a nonce as unexecutable and un-verifiable. The nonce can never be re-verified or executed.Reverts if the provided _payloadHash does not match the currently verified payload hash.Only packets with nonces less than or equal to the lazy inbound nonce can be burned.Reverts if the nonce has already been executed.Authenticated by the caller"
      },
      "clear(address,(uint32,bytes32,uint64),bytes32,bytes)": {
        "details": "Oapp uses this interface to clear a message.this is a PULL mode versus the PUSH mode of lzReceivethe cleared message can be ignored by the app (effectively burnt)authenticated by oapp",
        "params": {
          "_guid": "the guid of the message",
          "_message": "the message",
          "_origin": "the origin of the message"
        }
      },
      "constructor": {
        "params": {
          "_eid": "the unique Endpoint Id for this deploy that all other Endpoints can use to send to it"
        }
      },
      "getConfig(address,address,uint32,uint32)": {
        "details": "a view function to query the current configuration of the OApp"
      },
      "getReceiveLibrary(address,uint32)": {
        "details": "the receiveLibrary can be lazily resolved that if not set it will point to the default configured by LayerZero"
      },
      "getSendContext()": {
        "details": "returns (eid, sender) if sending message, (0, 0) otherwise"
      },
      "getSendLibrary(address,uint32)": {
        "details": "If the Oapp does not have a selected Send Library, this function will resolve to the default library configured by LayerZero",
        "params": {
          "_dstEid": "The destination endpoint id",
          "_sender": "The address of the Oapp that is sending the message"
        },
        "returns": {
          "lib": "address of the Send Library"
        }
      },
      "inboundNonce(address,uint32,bytes32)": {
        "details": "returns the max index of the longest gapless sequence of verified msg nonces.the uninitialized value is 0. the first nonce is always 1it starts from the lazyInboundNonce (last checkpoint) and iteratively check if the next nonce has been verifiedthis function can OOG if too many backlogs, but it can be trivially fixed by just clearing some prior messagesNOTE: Oapp explicitly skipped nonces count as \"verified\" for these purposeseg. [1,2,3,4,6,7] => 4, [1,2,6,8,10] => 2, [1,3,4,5,6] => 1"
      },
      "isSendingMessage()": {
        "details": "returns true if sending message"
      },
      "isSupportedEid(uint32)": {
        "details": "returns true only if both the default send/receive libraries are set"
      },
      "isValidReceiveLibrary(address,uint32,address)": {
        "details": "called when the endpoint checks if the msgLib attempting to verify the msg is the configured msgLib of the Oappthis check provides the ability for Oapp to lock in a trusted msgLibit will fist check if the msgLib is the currently configured one. then check if the msgLib is the one in grace period of msgLib versioning upgrade"
      },
      "lzCompose(address,address,bytes32,uint16,bytes,bytes)": {
        "details": "execute a composed messages from the sender to the composer (receiver)the execution provides the execution context (caller, extraData) to the receiver.      the receiver can optionally assert the caller and validate the untrusted extraDatacan not re-entrant",
        "params": {
          "_extraData": "the extra data provided by the executor. this data is untrusted and should be validated.",
          "_from": "the address which sends the composed message. in most cases, it is the Oapp's address.",
          "_guid": "the message guid",
          "_message": "the message",
          "_to": "the address which receives the composed message"
        }
      },
      "lzComposeAlert(address,address,bytes32,uint16,uint256,uint256,bytes,bytes,bytes)": {
        "params": {
          "_extraData": "the extra data provided by the executor",
          "_from": "the address which sends the composed message",
          "_guid": "the message guid",
          "_message": "the message",
          "_reason": "the reason why the message is not received",
          "_to": "the address which receives the composed message"
        }
      },
      "lzReceive((uint32,bytes32,uint64),address,bytes32,bytes,bytes)": {
        "details": "MESSAGING STEP 3 - the last stepexecute a verified message to the designated receiverthe execution provides the execution context (caller, extraData) to the receiver. the receiver can optionally assert the caller and validate the untrusted extraDatacant reentrant because the payload is cleared before execution",
        "params": {
          "_extraData": "the extra data provided by the executor. this data is untrusted and should be validated.",
          "_guid": "the guid of the message",
          "_message": "the message",
          "_origin": "the origin of the message",
          "_receiver": "the receiver of the message"
        }
      },
      "lzReceiveAlert((uint32,bytes32,uint64),address,bytes32,uint256,uint256,bytes,bytes,bytes)": {
        "params": {
          "_extraData": "the extra data provided by the executor.",
          "_guid": "the guid of the message",
          "_message": "the message",
          "_origin": "the origin of the message",
          "_reason": "the reason for failure",
          "_receiver": "the receiver of the message"
        }
      },
      "nativeToken()": {
        "details": "override this if the endpoint is charging ERC20 tokens as native",
        "returns": {
          "_0": "0x0 if using native. otherwise the address of the native ERC20 token"
        }
      },
      "nextGuid(address,uint32,bytes32)": {
        "details": "returns the GUID for the next message given the paththe Oapp might want to include the GUID into the message in some cases"
      },
      "nilify(address,uint32,bytes32,uint64,bytes32)": {
        "details": "Marks a packet as verified, but disallows execution until it is re-verified.Reverts if the provided _payloadHash does not match the currently verified payload hash.A non-verified nonce can be nilified by passing EMPTY_PAYLOAD_HASH for _payloadHash.Assumes the computational intractability of finding a payload that hashes to bytes32.max.Authenticated by the caller"
      },
      "owner()": {
        "details": "Returns the address of the current owner."
      },
      "quote((uint32,bytes32,bytes,bytes,bool),address)": {
        "details": "MESSAGING STEP 0",
        "params": {
          "_params": "the messaging parameters",
          "_sender": "the sender of the message"
        }
      },
      "recoverToken(address,address,uint256)": {
        "details": "recover the token sent to this contract by mistakeonly owner",
        "params": {
          "_amount": "the amount to send",
          "_to": "the address to send the token to",
          "_token": "the token to recover. if 0x0 then it is native token"
        }
      },
      "registerLibrary(address)": {
        "details": "all libraries have to implement the erc165 interface to prevent wrong configurationsonly owner"
      },
      "renounceOwnership()": {
        "details": "Leaves the contract without owner. It will not be possible to call `onlyOwner` functions. Can only be called by the current owner. NOTE: Renouncing ownership will leave the contract without an owner, thereby disabling any functionality that is only available to the owner."
      },
      "send((uint32,bytes32,bytes,bytes,bool),address)": {
        "details": "MESSAGING STEP 1 - OApp need to transfer the fees to the endpoint before sending the message",
        "params": {
          "_params": "the messaging parameters",
          "_refundAddress": "the address to refund both the native and lzToken"
        }
      },
      "sendCompose(address,bytes32,uint16,bytes)": {
        "details": "the Oapp sends the lzCompose message to the endpointthe composer MUST assert the sender because anyone can send compose msg with this functionwith the same GUID, the Oapp can send compose to multiple _composer at the same timeauthenticated by the msg.sender",
        "params": {
          "_guid": "the message guid",
          "_message": "the message",
          "_to": "the address which will receive the composed message"
        }
      },
      "setConfig(address,address,(uint32,uint32,bytes)[])": {
        "details": "authenticated by the _oapp"
      },
      "setDefaultReceiveLibrary(uint32,address,uint256)": {
        "details": "owner setting the defaultSendLibrarymust be a registered library (including blockLibrary) with the eid support enabledin version migration, it can add a grace period to the old library. if the grace period is 0, it will delete the timeout configuration.only owner"
      },
      "setDefaultReceiveLibraryTimeout(uint32,address,uint256)": {
        "details": "owner setting the defaultSendLibrarymust be a registered library (including blockLibrary) with the eid support enabledcan used to (1) extend the current configuration (2) force remove the current configuration (3) change to a new configuration",
        "params": {
          "_expiry": "the block number when lib expires"
        }
      },
      "setDefaultSendLibrary(uint32,address)": {
        "details": "owner setting the defaultSendLibrarycan set to the blockedLibrary, which is a registered librarythe msgLib must enable the support before they can be registered to the endpoint as the defaultonly owner"
      },
      "setLzToken(address)": {
        "details": "allows reconfiguration to recover from wrong configurationsusers should never approve the EndpointV2 contract to spend their non-layerzero tokensoverride this function if the endpoint is charging ERC20 tokens as nativeonly owner",
        "params": {
          "_lzToken": "the new layer zero token address"
        }
      },
      "setReceiveLibrary(address,uint32,address,uint256)": {
        "details": "Oapp setting the receiveLibrarymust be a registered library (including blockLibrary) with the eid support enabledin version migration, it can add a grace period to the old library. if the grace period is 0, it will delete the timeout configuration.authenticated by the Oapp",
        "params": {
          "_gracePeriod": "the number of blocks from now until oldLib expires"
        }
      },
      "setReceiveLibraryTimeout(address,uint32,address,uint256)": {
        "details": "Oapp setting the defaultSendLibrarymust be a registered library (including blockLibrary) with the eid support enabledcan used to (1) extend the current configuration (2)  force remove the current configuration (3) change to a new configuration",
        "params": {
          "_expiry": "the block number when lib expires"
        }
      },
      "setSendLibrary(address,uint32,address)": {
        "details": "Oapp setting the sendLibrarymust be a registered library (including blockLibrary) with the eid support enabledauthenticated by the Oapp"
      },
      "skip(address,uint32,bytes32,uint64)": {
        "details": "the caller must provide _nonce to prevent skipping the unintended nonceit could happen in some race conditions, e.g. to skip nonce 3, but nonce 3 was consumed firstusage: skipping the next nonce to prevent message verification, e.g. skip a message when Precrime throws alertsif the Oapp wants to skip a verified message, it should call the clear() function insteadafter skipping, the lazyInboundNonce is set to the provided nonce, which makes the inboundNonce also the provided nonceie. allows the Oapp to increment the lazyInboundNonce without having had that corresponding msg be verified"
      },
      "transferOwnership(address)": {
        "details": "Transfers ownership of the contract to a new account (`newOwner`). Can only be called by the current owner."
      },
      "verify((uint32,bytes32,uint64),address,bytes32)": {
        "details": "MESSAGING STEP 2 - on the destination chainconfigured receive library verifies a message",
        "params": {
          "_origin": "a struct holding the srcEid, nonce, and sender of the message",
          "_payloadHash": "the payload hash of the message",
          "_receiver": "the receiver of the message"
        }
      }
    },
    "version": 1
  },
  "userdoc": {
    "kind": "user",
    "methods": {
      "getSendLibrary(address,uint32)": {
        "notice": "The Send Library is the Oapp specified library that will be used to send the message to the destination endpoint. If the Oapp does not specify a Send Library, the default Send Library will be used."
      },
      "quote((uint32,bytes32,bytes,bytes,bool),address)": {
        "notice": "This view function gives the application built on top of LayerZero the ability to requests a quote with the same parameters as they would to send their message. Since the quotes are given on chain there is a race condition in which the prices could change between the time the user gets their quote and the time they submit their message. If the price moves up and the user doesn't send enough funds the transaction will revert, if the price goes down the _refundAddress provided by the app will be refunded the difference."
      },
      "setDelegate(address)": {
        "notice": "delegate is authorized by the oapp to configure anything in layerzero"
      }
    },
    "version": 1
  },
  "storageLayout": {
    "storage": [
      {
        "astId": 7924,
        "contract": "contracts/protocol/contracts/EndpointV2.sol:EndpointV2",
        "label": "_owner",
        "offset": 0,
        "slot": "0",
        "type": "t_address"
      },
      {
        "astId": 32225,
        "contract": "contracts/protocol/contracts/EndpointV2.sol:EndpointV2",
        "label": "lazyInboundNonce",
        "offset": 0,
        "slot": "1",
        "type": "t_mapping(t_address,t_mapping(t_uint32,t_mapping(t_bytes32,t_uint64)))"
      },
      {
        "astId": 32235,
        "contract": "contracts/protocol/contracts/EndpointV2.sol:EndpointV2",
        "label": "inboundPayloadHash",
        "offset": 0,
        "slot": "2",
        "type": "t_mapping(t_address,t_mapping(t_uint32,t_mapping(t_bytes32,t_mapping(t_uint64,t_bytes32))))"
      },
      {
        "astId": 32243,
        "contract": "contracts/protocol/contracts/EndpointV2.sol:EndpointV2",
        "label": "outboundNonce",
        "offset": 0,
        "slot": "3",
        "type": "t_mapping(t_address,t_mapping(t_uint32,t_mapping(t_bytes32,t_uint64)))"
      },
      {
        "astId": 31239,
        "contract": "contracts/protocol/contracts/EndpointV2.sol:EndpointV2",
        "label": "registeredLibraries",
        "offset": 0,
        "slot": "4",
        "type": "t_array(t_address)dyn_storage"
      },
      {
        "astId": 31243,
        "contract": "contracts/protocol/contracts/EndpointV2.sol:EndpointV2",
        "label": "isRegisteredLibrary",
        "offset": 0,
        "slot": "5",
        "type": "t_mapping(t_address,t_bool)"
      },
      {
        "astId": 31249,
        "contract": "contracts/protocol/contracts/EndpointV2.sol:EndpointV2",
        "label": "sendLibrary",
        "offset": 0,
        "slot": "6",
        "type": "t_mapping(t_address,t_mapping(t_uint32,t_address))"
      },
      {
        "astId": 31255,
        "contract": "contracts/protocol/contracts/EndpointV2.sol:EndpointV2",
        "label": "receiveLibrary",
        "offset": 0,
        "slot": "7",
        "type": "t_mapping(t_address,t_mapping(t_uint32,t_address))"
      },
      {
        "astId": 31262,
        "contract": "contracts/protocol/contracts/EndpointV2.sol:EndpointV2",
        "label": "receiveLibraryTimeout",
        "offset": 0,
        "slot": "8",
        "type": "t_mapping(t_address,t_mapping(t_uint32,t_struct(Timeout)33390_storage))"
      },
      {
        "astId": 31266,
        "contract": "contracts/protocol/contracts/EndpointV2.sol:EndpointV2",
        "label": "defaultSendLibrary",
        "offset": 0,
        "slot": "9",
        "type": "t_mapping(t_uint32,t_address)"
      },
      {
        "astId": 31270,
        "contract": "contracts/protocol/contracts/EndpointV2.sol:EndpointV2",
        "label": "defaultReceiveLibrary",
        "offset": 0,
        "slot": "10",
        "type": "t_mapping(t_uint32,t_address)"
      },
      {
        "astId": 31275,
        "contract": "contracts/protocol/contracts/EndpointV2.sol:EndpointV2",
        "label": "defaultReceiveLibraryTimeout",
        "offset": 0,
        "slot": "11",
        "type": "t_mapping(t_uint32,t_struct(Timeout)33390_storage)"
      },
      {
        "astId": 32780,
        "contract": "contracts/protocol/contracts/EndpointV2.sol:EndpointV2",
        "label": "composeQueue",
        "offset": 0,
        "slot": "12",
        "type": "t_mapping(t_address,t_mapping(t_address,t_mapping(t_bytes32,t_mapping(t_uint16,t_bytes32))))"
      },
      {
        "astId": 32968,
        "contract": "contracts/protocol/contracts/EndpointV2.sol:EndpointV2",
        "label": "_sendContext",
        "offset": 0,
        "slot": "13",
        "type": "t_uint256"
      },
      {
        "astId": 29996,
        "contract": "contracts/protocol/contracts/EndpointV2.sol:EndpointV2",
        "label": "lzToken",
        "offset": 0,
        "slot": "14",
        "type": "t_address"
      },
      {
        "astId": 30000,
        "contract": "contracts/protocol/contracts/EndpointV2.sol:EndpointV2",
        "label": "delegates",
        "offset": 0,
        "slot": "15",
        "type": "t_mapping(t_address,t_address)"
      }
    ],
    "types": {
      "t_address": {
        "encoding": "inplace",
        "label": "address",
        "numberOfBytes": "20"
      },
      "t_array(t_address)dyn_storage": {
        "base": "t_address",
        "encoding": "dynamic_array",
        "label": "address[]",
        "numberOfBytes": "32"
      },
      "t_bool": {
        "encoding": "inplace",
        "label": "bool",
        "numberOfBytes": "1"
      },
      "t_bytes32": {
        "encoding": "inplace",
        "label": "bytes32",
        "numberOfBytes": "32"
      },
      "t_mapping(t_address,t_address)": {
        "encoding": "mapping",
        "key": "t_address",
        "label": "mapping(address => address)",
        "numberOfBytes": "32",
        "value": "t_address"
      },
      "t_mapping(t_address,t_bool)": {
        "encoding": "mapping",
        "key": "t_address",
        "label": "mapping(address => bool)",
        "numberOfBytes": "32",
        "value": "t_bool"
      },
      "t_mapping(t_address,t_mapping(t_address,t_mapping(t_bytes32,t_mapping(t_uint16,t_bytes32))))": {
        "encoding": "mapping",
        "key": "t_address",
        "label": "mapping(address => mapping(address => mapping(bytes32 => mapping(uint16 => bytes32))))",
        "numberOfBytes": "32",
        "value": "t_mapping(t_address,t_mapping(t_bytes32,t_mapping(t_uint16,t_bytes32)))"
      },
      "t_mapping(t_address,t_mapping(t_bytes32,t_mapping(t_uint16,t_bytes32)))": {
        "encoding": "mapping",
        "key": "t_address",
        "label": "mapping(address => mapping(bytes32 => mapping(uint16 => bytes32)))",
        "numberOfBytes": "32",
        "value": "t_mapping(t_bytes32,t_mapping(t_uint16,t_bytes32))"
      },
      "t_mapping(t_address,t_mapping(t_uint32,t_address))": {
        "encoding": "mapping",
        "key": "t_address",
        "label": "mapping(address => mapping(uint32 => address))",
        "numberOfBytes": "32",
        "value": "t_mapping(t_uint32,t_address)"
      },
      "t_mapping(t_address,t_mapping(t_uint32,t_mapping(t_bytes32,t_mapping(t_uint64,t_bytes32))))": {
        "encoding": "mapping",
        "key": "t_address",
        "label": "mapping(address => mapping(uint32 => mapping(bytes32 => mapping(uint64 => bytes32))))",
        "numberOfBytes": "32",
        "value": "t_mapping(t_uint32,t_mapping(t_bytes32,t_mapping(t_uint64,t_bytes32)))"
      },
      "t_mapping(t_address,t_mapping(t_uint32,t_mapping(t_bytes32,t_uint64)))": {
        "encoding": "mapping",
        "key": "t_address",
        "label": "mapping(address => mapping(uint32 => mapping(bytes32 => uint64)))",
        "numberOfBytes": "32",
        "value": "t_mapping(t_uint32,t_mapping(t_bytes32,t_uint64))"
      },
      "t_mapping(t_address,t_mapping(t_uint32,t_struct(Timeout)33390_storage))": {
        "encoding": "mapping",
        "key": "t_address",
        "label": "mapping(address => mapping(uint32 => struct IMessageLibManager.Timeout))",
        "numberOfBytes": "32",
        "value": "t_mapping(t_uint32,t_struct(Timeout)33390_storage)"
      },
      "t_mapping(t_bytes32,t_mapping(t_uint16,t_bytes32))": {
        "encoding": "mapping",
        "key": "t_bytes32",
        "label": "mapping(bytes32 => mapping(uint16 => bytes32))",
        "numberOfBytes": "32",
        "value": "t_mapping(t_uint16,t_bytes32)"
      },
      "t_mapping(t_bytes32,t_mapping(t_uint64,t_bytes32))": {
        "encoding": "mapping",
        "key": "t_bytes32",
        "label": "mapping(bytes32 => mapping(uint64 => bytes32))",
        "numberOfBytes": "32",
        "value": "t_mapping(t_uint64,t_bytes32)"
      },
      "t_mapping(t_bytes32,t_uint64)": {
        "encoding": "mapping",
        "key": "t_bytes32",
        "label": "mapping(bytes32 => uint64)",
        "numberOfBytes": "32",
        "value": "t_uint64"
      },
      "t_mapping(t_uint16,t_bytes32)": {
        "encoding": "mapping",
        "key": "t_uint16",
        "label": "mapping(uint16 => bytes32)",
        "numberOfBytes": "32",
        "value": "t_bytes32"
      },
      "t_mapping(t_uint32,t_address)": {
        "encoding": "mapping",
        "key": "t_uint32",
        "label": "mapping(uint32 => address)",
        "numberOfBytes": "32",
        "value": "t_address"
      },
      "t_mapping(t_uint32,t_mapping(t_bytes32,t_mapping(t_uint64,t_bytes32)))": {
        "encoding": "mapping",
        "key": "t_uint32",
        "label": "mapping(uint32 => mapping(bytes32 => mapping(uint64 => bytes32)))",
        "numberOfBytes": "32",
        "value": "t_mapping(t_bytes32,t_mapping(t_uint64,t_bytes32))"
      },
      "t_mapping(t_uint32,t_mapping(t_bytes32,t_uint64))": {
        "encoding": "mapping",
        "key": "t_uint32",
        "label": "mapping(uint32 => mapping(bytes32 => uint64))",
        "numberOfBytes": "32",
        "value": "t_mapping(t_bytes32,t_uint64)"
      },
      "t_mapping(t_uint32,t_struct(Timeout)33390_storage)": {
        "encoding": "mapping",
        "key": "t_uint32",
        "label": "mapping(uint32 => struct IMessageLibManager.Timeout)",
        "numberOfBytes": "32",
        "value": "t_struct(Timeout)33390_storage"
      },
      "t_mapping(t_uint64,t_bytes32)": {
        "encoding": "mapping",
        "key": "t_uint64",
        "label": "mapping(uint64 => bytes32)",
        "numberOfBytes": "32",
        "value": "t_bytes32"
      },
      "t_struct(Timeout)33390_storage": {
        "encoding": "inplace",
        "label": "struct IMessageLibManager.Timeout",
        "members": [
          {
            "astId": 33387,
            "contract": "contracts/protocol/contracts/EndpointV2.sol:EndpointV2",
            "label": "lib",
            "offset": 0,
            "slot": "0",
            "type": "t_address"
          },
          {
            "astId": 33389,
            "contract": "contracts/protocol/contracts/EndpointV2.sol:EndpointV2",
            "label": "expiry",
            "offset": 0,
            "slot": "1",
            "type": "t_uint256"
          }
        ],
        "numberOfBytes": "64"
      },
      "t_uint16": {
        "encoding": "inplace",
        "label": "uint16",
        "numberOfBytes": "2"
      },
      "t_uint256": {
        "encoding": "inplace",
        "label": "uint256",
        "numberOfBytes": "32"
      },
      "t_uint32": {
        "encoding": "inplace",
        "label": "uint32",
        "numberOfBytes": "4"
      },
      "t_uint64": {
        "encoding": "inplace",
        "label": "uint64",
        "numberOfBytes": "8"
      }
    }
  }
}