{
  "address": "0x6CDc0765f50Ec799de90A36Bf9db14a1B1e1e6E6",
  "abi": [
    {
      "anonymous": false,
      "inputs": [
        {
          "indexed": false,
          "internalType": "uint8",
          "name": "version",
          "type": "uint8"
        }
      ],
      "name": "Initialized",
      "type": "event"
    },
    {
      "inputs": [],
      "name": "EMPTY_PAYLOAD_HASH",
      "outputs": [
        {
          "internalType": "bytes32",
          "name": "",
          "type": "bytes32"
        }
      ],
      "stateMutability": "view",
      "type": "function"
    },
    {
      "inputs": [],
      "name": "NIL_PAYLOAD_HASH",
      "outputs": [
        {
          "internalType": "bytes32",
          "name": "",
          "type": "bytes32"
        }
      ],
      "stateMutability": "view",
      "type": "function"
    },
    {
      "inputs": [],
      "name": "endpoint",
      "outputs": [
        {
          "internalType": "contract ILayerZeroEndpointV2",
          "name": "",
          "type": "address"
        }
      ],
      "stateMutability": "view",
      "type": "function"
    },
    {
      "inputs": [
        {
          "components": [
            {
              "internalType": "uint32",
              "name": "srcEid",
              "type": "uint32"
            },
            {
              "internalType": "bytes32",
              "name": "sender",
              "type": "bytes32"
            },
            {
              "internalType": "uint64",
              "name": "nonce",
              "type": "uint64"
            }
          ],
          "internalType": "struct Origin",
          "name": "_origin",
          "type": "tuple"
        },
        {
          "internalType": "address",
          "name": "_receiver",
          "type": "address"
        }
      ],
      "name": "executable",
      "outputs": [
        {
          "internalType": "enum ExecutionState",
          "name": "",
          "type": "uint8"
        }
      ],
      "stateMutability": "view",
      "type": "function"
    },
    {
      "inputs": [
        {
          "components": [
            {
              "internalType": "uint32",
              "name": "srcEid",
              "type": "uint32"
            },
            {
              "internalType": "bytes32",
              "name": "sender",
              "type": "bytes32"
            },
            {
              "internalType": "uint64",
              "name": "nonce",
              "type": "uint64"
            }
          ],
          "internalType": "struct Origin",
          "name": "_origin",
          "type": "tuple"
        },
        {
          "internalType": "address",
          "name": "_receiver",
          "type": "address"
        }
      ],
      "name": "initializable",
      "outputs": [
        {
          "internalType": "bool",
          "name": "",
          "type": "bool"
        }
      ],
      "stateMutability": "view",
      "type": "function"
    },
    {
      "inputs": [
        {
          "internalType": "address",
          "name": "_endpoint",
          "type": "address"
        }
      ],
      "name": "initialize",
      "outputs": [],
      "stateMutability": "nonpayable",
      "type": "function"
    },
    {
      "inputs": [
        {
          "components": [
            {
              "internalType": "uint32",
              "name": "srcEid",
              "type": "uint32"
            },
            {
              "internalType": "bytes32",
              "name": "sender",
              "type": "bytes32"
            },
            {
              "internalType": "uint64",
              "name": "nonce",
              "type": "uint64"
            }
          ],
          "internalType": "struct Origin",
          "name": "_origin",
          "type": "tuple"
        },
        {
          "internalType": "address",
          "name": "_receiver",
          "type": "address"
        },
        {
          "internalType": "address",
          "name": "_receiveLib",
          "type": "address"
        },
        {
          "internalType": "bytes32",
          "name": "_payloadHash",
          "type": "bytes32"
        }
      ],
      "name": "verifiable",
      "outputs": [
        {
          "internalType": "bool",
          "name": "",
          "type": "bool"
        }
      ],
      "stateMutability": "view",
      "type": "function"
    }
  ],
  "transactionHash": "0x85f4b027a537e9c7cbf826969a61a6896c8c16612489b42b2fd89d4056e587d7",
  "args": [],
  "numDeployments": 1,
  "solcInputHash": "df45c5d73ee7212b45689d2cdbb787f2",
  "bytecode": "0x608060405234801561001057600080fd5b50610a0c806100206000396000f3fe608060405234801561001057600080fd5b506004361061007d5760003560e01c8063861e1ca51161005b578063861e1ca5146100ef578063c4d66de814610112578063cb5026b914610127578063e1e3a7df1461012f57600080fd5b80632baf0be7146100825780634b4b2efb1461009e5780635e280f11146100be575b600080fd5b61008b60001981565b6040519081526020015b60405180910390f35b6100b16100ac36600461082a565b610142565b604051610095919061085e565b6000546100d7906201000090046001600160a01b031681565b6040516001600160a01b039091168152602001610095565b6101026100fd36600461082a565b6103a1565b6040519015158152602001610095565b610125610120366004610886565b610425565b005b61008b600081565b61010261013d3660046108a8565b6105bc565b6000805483516020850151604080870151905163c9fc7bcd60e01b81526001600160a01b03878116600483015263ffffffff9094166024820152604481019290925267ffffffffffffffff16606482015283926201000090049091169063c9fc7bcd90608401602060405180830381865afa1580156101c5573d6000803e3d6000fd5b505050506040513d601f19601f820116820180604052508101906101e991906108f4565b90508015801561029f5750600054845160208601516040516305b17bb760e41b81526001600160a01b03878116600483015263ffffffff90931660248201526044810191909152620100009092041690635b17bb7090606401602060405180830381865afa15801561025f573d6000803e3d6000fd5b505050506040513d601f19601f82011682018060405250810190610283919061090d565b67ffffffffffffffff16846040015167ffffffffffffffff1611155b156102ae57600391505061039b565b600019811480159061036657506000548451602086015160405163283750ff60e21b81526001600160a01b03878116600483015263ffffffff9093166024820152604481019190915262010000909204169063a0dd43fc90606401602060405180830381865afa158015610326573d6000803e3d6000fd5b505050506040513d601f19601f8201168201806040525081019061034a919061090d565b67ffffffffffffffff16846040015167ffffffffffffffff1611155b1561037557600291505061039b565b801580159061038657506000198114155b1561039557600191505061039b565b60009150505b92915050565b6000805460405163861e1ca560e01b8152620100009091046001600160a01b03169063861e1ca5906103d9908690869060040161092a565b602060405180830381865afa925050508015610412575060408051601f3d908101601f1916820190925261040f91810190610969565b60015b61041e5750600061039b565b905061039b565b600061044f7fb53127684a568b3173ae13b9f8a6016e243e63b6e8ee1178d6a717850b5d61035490565b90506001600160a01b03811661048e576001600160a01b037fb53127684a568b3173ae13b9f8a6016e243e63b6e8ee1178d6a717850b5d6103556104a3565b336001600160a01b038216146104a357600080fd5b600054610100900460ff16158080156104c35750600054600160ff909116105b806104dd5750303b1580156104dd575060005460ff166001145b6105455760405162461bcd60e51b815260206004820152602e60248201527f496e697469616c697a61626c653a20636f6e747261637420697320616c72656160448201526d191e481a5b9a5d1a585b1a5e995960921b60648201526084015b60405180910390fd5b6000805460ff191660011790558015610568576000805461ff0019166101001790555b610571836106f0565b80156105b7576000805461ff0019169055604051600181527f7f26b83ff96e1f2b6a682f133852f6798a09c465da95921460cefb38474024989060200160405180910390a15b505050565b600080548551604051639d7f977560e01b81526001600160a01b03878116600483015263ffffffff90921660248201528582166044820152620100009092041690639d7f977590606401602060405180830381865afa158015610623573d6000803e3d6000fd5b505050506040513d601f19601f820116820180604052508101906106479190610969565b610653575060006106e8565b60005460405163c9a54a9960e01b8152620100009091046001600160a01b03169063c9a54a999061068a908890889060040161092a565b602060405180830381865afa1580156106a7573d6000803e3d6000fd5b505050506040513d601f19601f820116820180604052508101906106cb9190610969565b6106d7575060006106e8565b816106e4575060006106e8565b5060015b949350505050565b600054610100900460ff166107175760405162461bcd60e51b815260040161053c9061098b565b61072081610723565b50565b600054610100900460ff1661074a5760405162461bcd60e51b815260040161053c9061098b565b600080546001600160a01b03909216620100000262010000600160b01b0319909216919091179055565b67ffffffffffffffff8116811461072057600080fd5b60006060828403121561079c57600080fd5b6040516060810181811067ffffffffffffffff821117156107cd57634e487b7160e01b600052604160045260246000fd5b604052905080823563ffffffff811681146107e757600080fd5b815260208381013590820152604083013561080181610774565b6040919091015292915050565b80356001600160a01b038116811461082557600080fd5b919050565b6000806080838503121561083d57600080fd5b610847848461078a565b91506108556060840161080e565b90509250929050565b602081016004831061088057634e487b7160e01b600052602160045260246000fd5b91905290565b60006020828403121561089857600080fd5b6108a18261080e565b9392505050565b60008060008060c085870312156108be57600080fd5b6108c8868661078a565b93506108d66060860161080e565b92506108e46080860161080e565b9396929550929360a00135925050565b60006020828403121561090657600080fd5b5051919050565b60006020828403121561091f57600080fd5b81516108a181610774565b825163ffffffff1681526020808401519082015260409283015167ffffffffffffffff16928101929092526001600160a01b0316606082015260800190565b60006020828403121561097b57600080fd5b815180151581146108a157600080fd5b6020808252602b908201527f496e697469616c697a61626c653a20636f6e7472616374206973206e6f74206960408201526a6e697469616c697a696e6760a81b60608201526080019056fea264697066735822122035bd9677e5c7f4379ee20292ad01596322cb23e4b06e8b109b0339763940c37f64736f6c63430008160033",
  "devdoc": {
    "events": {
      "Initialized(uint8)": {
        "details": "Triggered when the contract has been initialized or reinitialized."
      }
    },
    "kind": "dev",
    "methods": {
      "executable((uint32,bytes32,uint64),address)": {
        "details": "check if a message is executable.",
        "returns": {
          "_0": "ExecutionState of Executed, Executable, or NotExecutable"
        }
      },
      "verifiable((uint32,bytes32,uint64),address,address,bytes32)": {
        "details": "check if a message is verifiable."
      }
    },
    "version": 1
  },
  "userdoc": {
    "kind": "user",
    "methods": {},
    "version": 1
  },
  "storageLayout": {
    "storage": [
      {
        "astId": 5514,
        "contract": "contracts/protocol/contracts/EndpointV2View.sol:EndpointV2View",
        "label": "_initialized",
        "offset": 0,
        "slot": "0",
        "type": "t_uint8"
      },
      {
        "astId": 5517,
        "contract": "contracts/protocol/contracts/EndpointV2View.sol:EndpointV2View",
        "label": "_initializing",
        "offset": 1,
        "slot": "0",
        "type": "t_bool"
      },
      {
        "astId": 31023,
        "contract": "contracts/protocol/contracts/EndpointV2View.sol:EndpointV2View",
        "label": "endpoint",
        "offset": 2,
        "slot": "0",
        "type": "t_contract(ILayerZeroEndpointV2)33285"
      },
      {
        "astId": 31207,
        "contract": "contracts/protocol/contracts/EndpointV2View.sol:EndpointV2View",
        "label": "__gap",
        "offset": 0,
        "slot": "1",
        "type": "t_array(t_uint256)49_storage"
      }
    ],
    "types": {
      "t_array(t_uint256)49_storage": {
        "base": "t_uint256",
        "encoding": "inplace",
        "label": "uint256[49]",
        "numberOfBytes": "1568"
      },
      "t_bool": {
        "encoding": "inplace",
        "label": "bool",
        "numberOfBytes": "1"
      },
      "t_contract(ILayerZeroEndpointV2)33285": {
        "encoding": "inplace",
        "label": "contract ILayerZeroEndpointV2",
        "numberOfBytes": "20"
      },
      "t_uint256": {
        "encoding": "inplace",
        "label": "uint256",
        "numberOfBytes": "32"
      },
      "t_uint8": {
        "encoding": "inplace",
        "label": "uint8",
        "numberOfBytes": "1"
      }
    }
  }
}