{
  "address": "0x10481D7866Bf54Ec8985aDea2A92370863BAf4f5",
  "abi": [
    {
      "inputs": [
        {
          "internalType": "uint256",
          "name": "_nativeDecimalsRate",
          "type": "uint256"
        }
      ],
      "stateMutability": "nonpayable",
      "type": "constructor"
    },
    {
      "inputs": [
        {
          "internalType": "uint32",
          "name": "eid",
          "type": "uint32"
        }
      ],
      "name": "Executor_EidNotSupported",
      "type": "error"
    },
    {
      "inputs": [
        {
          "internalType": "uint256",
          "name": "cursor",
          "type": "uint256"
        }
      ],
      "name": "Executor_InvalidExecutorOptions",
      "type": "error"
    },
    {
      "inputs": [],
      "name": "Executor_InvalidLzComposeOption",
      "type": "error"
    },
    {
      "inputs": [],
      "name": "Executor_InvalidLzReceiveOption",
      "type": "error"
    },
    {
      "inputs": [],
      "name": "Executor_InvalidNativeDropOption",
      "type": "error"
    },
    {
      "inputs": [
        {
          "internalType": "uint256",
          "name": "amount",
          "type": "uint256"
        },
        {
          "internalType": "uint256",
          "name": "cap",
          "type": "uint256"
        }
      ],
      "name": "Executor_NativeAmountExceedsCap",
      "type": "error"
    },
    {
      "inputs": [],
      "name": "Executor_NoOptions",
      "type": "error"
    },
    {
      "inputs": [
        {
          "internalType": "uint8",
          "name": "optionType",
          "type": "uint8"
        }
      ],
      "name": "Executor_UnsupportedOptionType",
      "type": "error"
    },
    {
      "inputs": [],
      "name": "Executor_ZeroLzComposeGasProvided",
      "type": "error"
    },
    {
      "inputs": [],
      "name": "Executor_ZeroLzReceiveGasProvided",
      "type": "error"
    },
    {
      "inputs": [
        {
          "internalType": "address",
          "name": "_to",
          "type": "address"
        },
        {
          "internalType": "uint256",
          "name": "_value",
          "type": "uint256"
        }
      ],
      "name": "Transfer_NativeFailed",
      "type": "error"
    },
    {
      "inputs": [],
      "name": "Transfer_ToAddressIsZero",
      "type": "error"
    },
    {
      "anonymous": false,
      "inputs": [
        {
          "indexed": true,
          "internalType": "address",
          "name": "previousOwner",
          "type": "address"
        },
        {
          "indexed": true,
          "internalType": "address",
          "name": "newOwner",
          "type": "address"
        }
      ],
      "name": "OwnershipTransferred",
      "type": "event"
    },
    {
      "inputs": [
        {
          "components": [
            {
              "internalType": "address",
              "name": "priceFeed",
              "type": "address"
            },
            {
              "internalType": "uint32",
              "name": "dstEid",
              "type": "uint32"
            },
            {
              "internalType": "address",
              "name": "sender",
              "type": "address"
            },
            {
              "internalType": "uint256",
              "name": "calldataSize",
              "type": "uint256"
            },
            {
              "internalType": "uint16",
              "name": "defaultMultiplierBps",
              "type": "uint16"
            }
          ],
          "internalType": "struct IExecutorFeeLib.FeeParams",
          "name": "_params",
          "type": "tuple"
        },
        {
          "components": [
            {
              "internalType": "uint64",
              "name": "lzReceiveBaseGas",
              "type": "uint64"
            },
            {
              "internalType": "uint16",
              "name": "multiplierBps",
              "type": "uint16"
            },
            {
              "internalType": "uint128",
              "name": "floorMarginUSD",
              "type": "uint128"
            },
            {
              "internalType": "uint128",
              "name": "nativeCap",
              "type": "uint128"
            },
            {
              "internalType": "uint64",
              "name": "lzComposeBaseGas",
              "type": "uint64"
            }
          ],
          "internalType": "struct IExecutor.DstConfig",
          "name": "_dstConfig",
          "type": "tuple"
        },
        {
          "internalType": "bytes",
          "name": "_options",
          "type": "bytes"
        }
      ],
      "name": "getFee",
      "outputs": [
        {
          "internalType": "uint256",
          "name": "fee",
          "type": "uint256"
        }
      ],
      "stateMutability": "view",
      "type": "function"
    },
    {
      "inputs": [
        {
          "components": [
            {
              "internalType": "address",
              "name": "priceFeed",
              "type": "address"
            },
            {
              "internalType": "uint32",
              "name": "dstEid",
              "type": "uint32"
            },
            {
              "internalType": "address",
              "name": "sender",
              "type": "address"
            },
            {
              "internalType": "uint256",
              "name": "calldataSize",
              "type": "uint256"
            },
            {
              "internalType": "uint16",
              "name": "defaultMultiplierBps",
              "type": "uint16"
            }
          ],
          "internalType": "struct IExecutorFeeLib.FeeParams",
          "name": "_params",
          "type": "tuple"
        },
        {
          "components": [
            {
              "internalType": "uint64",
              "name": "lzReceiveBaseGas",
              "type": "uint64"
            },
            {
              "internalType": "uint16",
              "name": "multiplierBps",
              "type": "uint16"
            },
            {
              "internalType": "uint128",
              "name": "floorMarginUSD",
              "type": "uint128"
            },
            {
              "internalType": "uint128",
              "name": "nativeCap",
              "type": "uint128"
            },
            {
              "internalType": "uint64",
              "name": "lzComposeBaseGas",
              "type": "uint64"
            }
          ],
          "internalType": "struct IExecutor.DstConfig",
          "name": "_dstConfig",
          "type": "tuple"
        },
        {
          "internalType": "bytes",
          "name": "_options",
          "type": "bytes"
        }
      ],
      "name": "getFeeOnSend",
      "outputs": [
        {
          "internalType": "uint256",
          "name": "fee",
          "type": "uint256"
        }
      ],
      "stateMutability": "nonpayable",
      "type": "function"
    },
    {
      "inputs": [],
      "name": "owner",
      "outputs": [
        {
          "internalType": "address",
          "name": "",
          "type": "address"
        }
      ],
      "stateMutability": "view",
      "type": "function"
    },
    {
      "inputs": [],
      "name": "renounceOwnership",
      "outputs": [],
      "stateMutability": "nonpayable",
      "type": "function"
    },
    {
      "inputs": [
        {
          "internalType": "address",
          "name": "newOwner",
          "type": "address"
        }
      ],
      "name": "transferOwnership",
      "outputs": [],
      "stateMutability": "nonpayable",
      "type": "function"
    },
    {
      "inputs": [
        {
          "internalType": "address",
          "name": "_token",
          "type": "address"
        },
        {
          "internalType": "address",
          "name": "_to",
          "type": "address"
        },
        {
          "internalType": "uint256",
          "name": "_amount",
          "type": "uint256"
        }
      ],
      "name": "withdrawToken",
      "outputs": [],
      "stateMutability": "nonpayable",
      "type": "function"
    },
    {
      "stateMutability": "payable",
      "type": "receive"
    }
  ],
  "transactionHash": "0xe4533fb6fca434a4be43284f50eae759c949a7499ed71aea4d365ec1f18d3fe9",
  "args": [
    "1000000000000000000"
  ],
  "numDeployments": 1,
  "solcInputHash": "df45c5d73ee7212b45689d2cdbb787f2",
  "bytecode": "0x60a060405234801561001057600080fd5b5060405161135d38038061135d83398101604081905261002f91610090565b61003833610040565b6080526100a9565b600080546001600160a01b038381166001600160a01b0319831681178455604051919092169283917f8be0079c531659141344cd1fd0a4f28419497f9722a3daafe3b4186f6b6457e09190a35050565b6000602082840312156100a257600080fd5b5051919050565b6080516112996100c4600039600061083301526112996000f3fe6080604052600436106100595760003560e01c806301e3366714610065578063434ee01614610087578063566ef762146100ba578063715018a6146100da5780638da5cb5b146100ef578063f2fde38b1461011757600080fd5b3661006057005b600080fd5b34801561007157600080fd5b50610085610080366004610e77565b610137565b005b34801561009357600080fd5b506100a76100a2366004610ecb565b61014f565b6040519081526020015b60405180910390f35b3480156100c657600080fd5b506100a76100d5366004610ecb565b610340565b3480156100e657600080fd5b50610085610413565b3480156100fb57600080fd5b506000546040516001600160a01b0390911681526020016100b1565b34801561012357600080fd5b50610085610132366004610f5d565b610427565b61013f6104a0565b61014a8383836104fa565b505050565b600061015e6020850185610f7f565b67ffffffffffffffff166000036101a65761017f6040860160208701610fa9565b60405163c3baa0b760e01b815263ffffffff90911660048201526024015b60405180910390fd5b6000806102026101ce6101bf60408a0160208b01610fa9565b61753063ffffffff9091161090565b6101db6020890189610f7f565b6101eb60a08a0160808b01610f7f565b6101fb60808b0160608c01610fe4565b898961051d565b9092509050600080808061021960208c018c610f5d565b6001600160a01b03166388a4124c61023760408e0160208f01610fa9565b6040516001600160e01b031960e084901b16815263ffffffff91909116600482015260608e0135602482015260448101889052606401608060405180830381865afa15801561028a573d6000803e3d6000fd5b505050506040513d601f19601f820116820180604052508101906102ae9190611001565b9296509094509250905060006102ca60408c0160208d01611056565b61ffff16156102e8576102e360408c0160208d01611056565b6102f8565b6102f860a08d0160808e01611056565b905061031885828d60400160208101906103129190610fe4565b856107db565b975061032687858584610898565b6103309089611090565b9c9b505050505050505050505050565b600061034f6020850185610f7f565b67ffffffffffffffff166000036103705761017f6040860160208701610fa9565b6000806103896101ce6101bf60408a0160208b01610fa9565b909250905060008080806103a060208c018c610f5d565b6001600160a01b031663c1723a1d6103be60408e0160208f01610fa9565b6040516001600160e01b031960e084901b16815263ffffffff91909116600482015260608e01356024820152604481018890526064016080604051808303816000875af115801561028a573d6000803e3d6000fd5b61041b6104a0565b61042560006108ee565b565b61042f6104a0565b6001600160a01b0381166104945760405162461bcd60e51b815260206004820152602660248201527f4f776e61626c653a206e6577206f776e657220697320746865207a65726f206160448201526564647265737360d01b606482015260840161019d565b61049d816108ee565b50565b6000546001600160a01b031633146104255760405162461bcd60e51b815260206004820181905260248201527f4f776e61626c653a2063616c6c6572206973206e6f7420746865206f776e6572604482015260640161019d565b6001600160a01b0383166105125761014a828261093e565b61014a8383836109eb565b60008082810361053f5760405162575ea160e01b815260040160405180910390fd5b5067ffffffffffffffff861660008089815b868410156107215760003681806105698c8c8a610a26565b9a509195509350915087905060001960ff8516016105fc5760008061058e8585610a7c565b915091508780156105a857506000816001600160801b0316115b156105cb5760405163052e551560e01b815260ff8716600482015260240161019d565b6105de6001600160801b0382168d611090565b9b506105f36001600160801b03831688611090565b96505050610718565b60011960ff8516016106325760006106148484610ae1565b50905061062a6001600160801b0382168c611090565b9a5050610718565b60021960ff8516016106e55785156106625760405163052e551560e01b815260ff8516600482015260240161019d565b60008061066f8585610b1f565b9250925050816001600160801b031660000361069e5760405163a169d0e160e01b815260040160405180910390fd5b6106b16001600160801b0382168d611090565b9b508f67ffffffffffffffff16826106c991906110a9565b6106dc906001600160801b03168c611090565b9a505050610718565b60031960ff8516016106fa5760019650610718565b60405163052e551560e01b815260ff8516600482015260240161019d565b50505050610551565b83871461074457604051634c83bb7560e11b81526004810185905260240161019d565b886001600160801b031686111561077f576040516242670160e11b8152600481018790526001600160801b038a16602482015260440161019d565b806000036107a057604051630e5eb8f360e41b815260040160405180910390fd5b6107aa8186611090565b945082156107cc5760646107bf8660666110d0565b6107c991906110e7565b94505b50505050965096945050505050565b6000806127106107ef61ffff8716886110d0565b6107f991906110e7565b90506001600160801b038316158061081857506001600160801b038416155b15610824579050610890565b600086846001600160801b03167f0000000000000000000000000000000000000000000000000000000000000000876001600160801b031661086691906110d0565b61087091906110e7565b61087a9190611090565b9050818111610889578161088b565b805b925050505b949350505050565b60008415610890576127108261ffff16846001600160801b0316866001600160801b0316886108c791906110d0565b6108d191906110e7565b6108db91906110d0565b6108e591906110e7565b95945050505050565b600080546001600160a01b038381166001600160a01b0319831681178455604051919092169283917f8be0079c531659141344cd1fd0a4f28419497f9722a3daafe3b4186f6b6457e09190a35050565b6001600160a01b038216610965576040516306b7a93160e41b815260040160405180910390fd5b6000826001600160a01b03168260405160006040518083038185875af1925050503d80600081146109b2576040519150601f19603f3d011682016040523d82523d6000602084013e6109b7565b606091505b505090508061014a57604051631196f20d60e21b81526001600160a01b03841660048201526024810183905260440161019d565b6001600160a01b038216610a12576040516306b7a93160e41b815260040160405180910390fd5b61014a6001600160a01b0384168383610b93565b600036816001840181610a3a888884610be5565b600292909201919050610a4e888884610c0c565b94506001820161ffff82168301610a6781838b8d611109565b979b909a50969850505061ffff160193505050565b60008060108314801590610a91575060208314155b15610aaf57604051634796aee160e01b815260040160405180910390fd5b610abb84846000610c31565b915060208314610acc576000610ad8565b610ad884846010610c31565b90509250929050565b60008060308314610b05576040516361d0c2c760e11b815260040160405180910390fd5b610b1184846000610c31565b9150610ad884846010610c58565b6000808060128414801590610b35575060228414155b15610b5357604051638b4aa70b60e01b815260040160405180910390fd5b610b5f85856000610be5565b9250610b6d85856002610c31565b915060228414610b7e576000610b8a565b610b8a85856012610c31565b90509250925092565b604080516001600160a01b038416602482015260448082018490528251808303909101815260649091019091526020810180516001600160e01b031663a9059cbb60e01b17905261014a908490610c73565b600060028201610bf781848688611109565b610c0091611133565b60f01c95945050505050565b6000838383818110610c2057610c20611163565b919091013560f81c95945050505050565b600060108201610c4381848688611109565b610c4c91611179565b60801c95945050505050565b600060208201610c6a81848688611109565b6108e5916111b0565b6000610cc8826040518060400160405280602081526020017f5361666545524332303a206c6f772d6c6576656c2063616c6c206661696c6564815250856001600160a01b0316610d489092919063ffffffff16565b9050805160001480610ce9575080806020019051810190610ce991906111ce565b61014a5760405162461bcd60e51b815260206004820152602a60248201527f5361666545524332303a204552433230206f7065726174696f6e20646964206e6044820152691bdd081cdd58d8d9595960b21b606482015260840161019d565b6060610890848460008585600080866001600160a01b03168587604051610d6f9190611214565b60006040518083038185875af1925050503d8060008114610dac576040519150601f19603f3d011682016040523d82523d6000602084013e610db1565b606091505b509150915061088b8783838760608315610e2c578251600003610e25576001600160a01b0385163b610e255760405162461bcd60e51b815260206004820152601d60248201527f416464726573733a2063616c6c20746f206e6f6e2d636f6e7472616374000000604482015260640161019d565b5081610890565b6108908383815115610e415781518083602001fd5b8060405162461bcd60e51b815260040161019d9190611230565b80356001600160a01b0381168114610e7257600080fd5b919050565b600080600060608486031215610e8c57600080fd5b610e9584610e5b565b9250610ea360208501610e5b565b9150604084013590509250925092565b600060a08284031215610ec557600080fd5b50919050565b6000806000806101608587031215610ee257600080fd5b610eec8686610eb3565b9350610efb8660a08701610eb3565b925061014085013567ffffffffffffffff80821115610f1957600080fd5b818701915087601f830112610f2d57600080fd5b813581811115610f3c57600080fd5b886020828501011115610f4e57600080fd5b95989497505060200194505050565b600060208284031215610f6f57600080fd5b610f7882610e5b565b9392505050565b600060208284031215610f9157600080fd5b813567ffffffffffffffff81168114610f7857600080fd5b600060208284031215610fbb57600080fd5b813563ffffffff81168114610f7857600080fd5b6001600160801b038116811461049d57600080fd5b600060208284031215610ff657600080fd5b8135610f7881610fcf565b6000806000806080858703121561101757600080fd5b84519350602085015161102981610fcf565b604086015190935061103a81610fcf565b606086015190925061104b81610fcf565b939692955090935050565b60006020828403121561106857600080fd5b813561ffff81168114610f7857600080fd5b634e487b7160e01b600052601160045260246000fd5b808201808211156110a3576110a361107a565b92915050565b6001600160801b038181168382160190808211156110c9576110c961107a565b5092915050565b80820281158282048414176110a3576110a361107a565b60008261110457634e487b7160e01b600052601260045260246000fd5b500490565b6000808585111561111957600080fd5b8386111561112657600080fd5b5050820193919092039150565b6001600160f01b0319813581811691600285101561115b5780818660020360031b1b83161692505b505092915050565b634e487b7160e01b600052603260045260246000fd5b6fffffffffffffffffffffffffffffffff19813581811691601085101561115b5760109490940360031b84901b1690921692915050565b803560208310156110a357600019602084900360031b1b1692915050565b6000602082840312156111e057600080fd5b81518015158114610f7857600080fd5b60005b8381101561120b5781810151838201526020016111f3565b50506000910152565b600082516112268184602087016111f0565b9190910192915050565b602081526000825180602084015261124f8160408501602087016111f0565b601f01601f1916919091016040019291505056fea264697066735822122014383fe57cdf601044b6ccfa06a6533d7f3c598721228ed624dd74c5029f4d4064736f6c63430008160033",
  "devdoc": {
    "kind": "dev",
    "methods": {
      "owner()": {
        "details": "Returns the address of the current owner."
      },
      "renounceOwnership()": {
        "details": "Leaves the contract without owner. It will not be possible to call `onlyOwner` functions. Can only be called by the current owner. NOTE: Renouncing ownership will leave the contract without an owner, thereby disabling any functionality that is only available to the owner."
      },
      "transferOwnership(address)": {
        "details": "Transfers ownership of the contract to a new account (`newOwner`). Can only be called by the current owner."
      }
    },
    "version": 1
  },
  "userdoc": {
    "kind": "user",
    "methods": {},
    "version": 1
  },
  "storageLayout": {
    "storage": [
      {
        "astId": 7924,
        "contract": "contracts/messagelib/contracts/ExecutorFeeLib.sol:ExecutorFeeLib",
        "label": "_owner",
        "offset": 0,
        "slot": "0",
        "type": "t_address"
      }
    ],
    "types": {
      "t_address": {
        "encoding": "inplace",
        "label": "address",
        "numberOfBytes": "20"
      }
    }
  }
}