{
  "address": "0xc926727dF6A4C3E58ea70d7b5fa39BCf3a12F9e2",
  "abi": [
    {
      "inputs": [
        {
          "internalType": "address",
          "name": "_to",
          "type": "address"
        },
        {
          "internalType": "uint256",
          "name": "_value",
          "type": "uint256"
        }
      ],
      "name": "Transfer_NativeFailed",
      "type": "error"
    },
    {
      "inputs": [],
      "name": "Transfer_ToAddressIsZero",
      "type": "error"
    },
    {
      "inputs": [],
      "name": "Worker_NotAllowed",
      "type": "error"
    },
    {
      "inputs": [],
      "name": "Worker_OnlyMessageLib",
      "type": "error"
    },
    {
      "inputs": [],
      "name": "Worker_RoleRenouncingDisabled",
      "type": "error"
    },
    {
      "anonymous": false,
      "inputs": [
        {
          "components": [
            {
              "internalType": "uint32",
              "name": "dstEid",
              "type": "uint32"
            },
            {
              "internalType": "uint64",
              "name": "lzReceiveBaseGas",
              "type": "uint64"
            },
            {
              "internalType": "uint64",
              "name": "lzComposeBaseGas",
              "type": "uint64"
            },
            {
              "internalType": "uint16",
              "name": "multiplierBps",
              "type": "uint16"
            },
            {
              "internalType": "uint128",
              "name": "floorMarginUSD",
              "type": "uint128"
            },
            {
              "internalType": "uint128",
              "name": "nativeCap",
              "type": "uint128"
            }
          ],
          "indexed": false,
          "internalType": "struct IExecutor.DstConfigParam[]",
          "name": "params",
          "type": "tuple[]"
        }
      ],
      "name": "DstConfigSet",
      "type": "event"
    },
    {
      "anonymous": false,
      "inputs": [
        {
          "indexed": false,
          "internalType": "uint8",
          "name": "version",
          "type": "uint8"
        }
      ],
      "name": "Initialized",
      "type": "event"
    },
    {
      "anonymous": false,
      "inputs": [
        {
          "components": [
            {
              "internalType": "uint32",
              "name": "srcEid",
              "type": "uint32"
            },
            {
              "internalType": "bytes32",
              "name": "sender",
              "type": "bytes32"
            },
            {
              "internalType": "uint64",
              "name": "nonce",
              "type": "uint64"
            }
          ],
          "indexed": false,
          "internalType": "struct Origin",
          "name": "origin",
          "type": "tuple"
        },
        {
          "indexed": false,
          "internalType": "uint32",
          "name": "dstEid",
          "type": "uint32"
        },
        {
          "indexed": false,
          "internalType": "address",
          "name": "oapp",
          "type": "address"
        },
        {
          "components": [
            {
              "internalType": "address",
              "name": "receiver",
              "type": "address"
            },
            {
              "internalType": "uint256",
              "name": "amount",
              "type": "uint256"
            }
          ],
          "indexed": false,
          "internalType": "struct IExecutor.NativeDropParams[]",
          "name": "params",
          "type": "tuple[]"
        },
        {
          "indexed": false,
          "internalType": "bool[]",
          "name": "success",
          "type": "bool[]"
        }
      ],
      "name": "NativeDropApplied",
      "type": "event"
    },
    {
      "anonymous": false,
      "inputs": [
        {
          "indexed": false,
          "internalType": "address",
          "name": "account",
          "type": "address"
        }
      ],
      "name": "Paused",
      "type": "event"
    },
    {
      "anonymous": false,
      "inputs": [
        {
          "indexed": true,
          "internalType": "bytes32",
          "name": "role",
          "type": "bytes32"
        },
        {
          "indexed": true,
          "internalType": "bytes32",
          "name": "previousAdminRole",
          "type": "bytes32"
        },
        {
          "indexed": true,
          "internalType": "bytes32",
          "name": "newAdminRole",
          "type": "bytes32"
        }
      ],
      "name": "RoleAdminChanged",
      "type": "event"
    },
    {
      "anonymous": false,
      "inputs": [
        {
          "indexed": true,
          "internalType": "bytes32",
          "name": "role",
          "type": "bytes32"
        },
        {
          "indexed": true,
          "internalType": "address",
          "name": "account",
          "type": "address"
        },
        {
          "indexed": true,
          "internalType": "address",
          "name": "sender",
          "type": "address"
        }
      ],
      "name": "RoleGranted",
      "type": "event"
    },
    {
      "anonymous": false,
      "inputs": [
        {
          "indexed": true,
          "internalType": "bytes32",
          "name": "role",
          "type": "bytes32"
        },
        {
          "indexed": true,
          "internalType": "address",
          "name": "account",
          "type": "address"
        },
        {
          "indexed": true,
          "internalType": "address",
          "name": "sender",
          "type": "address"
        }
      ],
      "name": "RoleRevoked",
      "type": "event"
    },
    {
      "anonymous": false,
      "inputs": [
        {
          "indexed": false,
          "internalType": "uint16",
          "name": "multiplierBps",
          "type": "uint16"
        }
      ],
      "name": "SetDefaultMultiplierBps",
      "type": "event"
    },
    {
      "anonymous": false,
      "inputs": [
        {
          "indexed": false,
          "internalType": "address",
          "name": "priceFeed",
          "type": "address"
        }
      ],
      "name": "SetPriceFeed",
      "type": "event"
    },
    {
      "anonymous": false,
      "inputs": [
        {
          "indexed": false,
          "internalType": "uint32",
          "name": "dstEid",
          "type": "uint32"
        },
        {
          "indexed": false,
          "internalType": "uint8[]",
          "name": "optionTypes",
          "type": "uint8[]"
        }
      ],
      "name": "SetSupportedOptionTypes",
      "type": "event"
    },
    {
      "anonymous": false,
      "inputs": [
        {
          "indexed": false,
          "internalType": "address",
          "name": "workerLib",
          "type": "address"
        }
      ],
      "name": "SetWorkerLib",
      "type": "event"
    },
    {
      "anonymous": false,
      "inputs": [
        {
          "indexed": false,
          "internalType": "address",
          "name": "account",
          "type": "address"
        }
      ],
      "name": "Unpaused",
      "type": "event"
    },
    {
      "anonymous": false,
      "inputs": [
        {
          "indexed": false,
          "internalType": "address",
          "name": "lib",
          "type": "address"
        },
        {
          "indexed": false,
          "internalType": "address",
          "name": "to",
          "type": "address"
        },
        {
          "indexed": false,
          "internalType": "uint256",
          "name": "amount",
          "type": "uint256"
        }
      ],
      "name": "Withdraw",
      "type": "event"
    },
    {
      "inputs": [],
      "name": "DEFAULT_ADMIN_ROLE",
      "outputs": [
        {
          "internalType": "bytes32",
          "name": "",
          "type": "bytes32"
        }
      ],
      "stateMutability": "view",
      "type": "function"
    },
    {
      "inputs": [],
      "name": "allowlistSize",
      "outputs": [
        {
          "internalType": "uint64",
          "name": "",
          "type": "uint64"
        }
      ],
      "stateMutability": "view",
      "type": "function"
    },
    {
      "inputs": [
        {
          "internalType": "uint32",
          "name": "_dstEid",
          "type": "uint32"
        },
        {
          "internalType": "address",
          "name": "_sender",
          "type": "address"
        },
        {
          "internalType": "uint256",
          "name": "_calldataSize",
          "type": "uint256"
        },
        {
          "internalType": "bytes",
          "name": "_options",
          "type": "bytes"
        }
      ],
      "name": "assignJob",
      "outputs": [
        {
          "internalType": "uint256",
          "name": "fee",
          "type": "uint256"
        }
      ],
      "stateMutability": "nonpayable",
      "type": "function"
    },
    {
      "inputs": [
        {
          "internalType": "address",
          "name": "_from",
          "type": "address"
        },
        {
          "internalType": "address",
          "name": "_to",
          "type": "address"
        },
        {
          "internalType": "bytes32",
          "name": "_guid",
          "type": "bytes32"
        },
        {
          "internalType": "uint16",
          "name": "_index",
          "type": "uint16"
        },
        {
          "internalType": "bytes",
          "name": "_message",
          "type": "bytes"
        },
        {
          "internalType": "bytes",
          "name": "_extraData",
          "type": "bytes"
        },
        {
          "internalType": "uint256",
          "name": "_gasLimit",
          "type": "uint256"
        }
      ],
      "name": "compose302",
      "outputs": [],
      "stateMutability": "payable",
      "type": "function"
    },
    {
      "inputs": [],
      "name": "defaultMultiplierBps",
      "outputs": [
        {
          "internalType": "uint16",
          "name": "",
          "type": "uint16"
        }
      ],
      "stateMutability": "view",
      "type": "function"
    },
    {
      "inputs": [
        {
          "internalType": "uint32",
          "name": "dstEid",
          "type": "uint32"
        }
      ],
      "name": "dstConfig",
      "outputs": [
        {
          "internalType": "uint64",
          "name": "lzReceiveBaseGas",
          "type": "uint64"
        },
        {
          "internalType": "uint16",
          "name": "multiplierBps",
          "type": "uint16"
        },
        {
          "internalType": "uint128",
          "name": "floorMarginUSD",
          "type": "uint128"
        },
        {
          "internalType": "uint128",
          "name": "nativeCap",
          "type": "uint128"
        },
        {
          "internalType": "uint64",
          "name": "lzComposeBaseGas",
          "type": "uint64"
        }
      ],
      "stateMutability": "view",
      "type": "function"
    },
    {
      "inputs": [],
      "name": "endpoint",
      "outputs": [
        {
          "internalType": "address",
          "name": "",
          "type": "address"
        }
      ],
      "stateMutability": "view",
      "type": "function"
    },
    {
      "inputs": [
        {
          "internalType": "bytes",
          "name": "_packet",
          "type": "bytes"
        },
        {
          "internalType": "uint256",
          "name": "_gasLimit",
          "type": "uint256"
        }
      ],
      "name": "execute301",
      "outputs": [],
      "stateMutability": "nonpayable",
      "type": "function"
    },
    {
      "inputs": [
        {
          "components": [
            {
              "internalType": "address",
              "name": "receiver",
              "type": "address"
            },
            {
              "components": [
                {
                  "internalType": "uint32",
                  "name": "srcEid",
                  "type": "uint32"
                },
                {
                  "internalType": "bytes32",
                  "name": "sender",
                  "type": "bytes32"
                },
                {
                  "internalType": "uint64",
                  "name": "nonce",
                  "type": "uint64"
                }
              ],
              "internalType": "struct Origin",
              "name": "origin",
              "type": "tuple"
            },
            {
              "internalType": "bytes32",
              "name": "guid",
              "type": "bytes32"
            },
            {
              "internalType": "bytes",
              "name": "message",
              "type": "bytes"
            },
            {
              "internalType": "bytes",
              "name": "extraData",
              "type": "bytes"
            },
            {
              "internalType": "uint256",
              "name": "gasLimit",
              "type": "uint256"
            }
          ],
          "internalType": "struct IExecutor.ExecutionParams",
          "name": "_executionParams",
          "type": "tuple"
        }
      ],
      "name": "execute302",
      "outputs": [],
      "stateMutability": "payable",
      "type": "function"
    },
    {
      "inputs": [
        {
          "internalType": "uint32",
          "name": "_dstEid",
          "type": "uint32"
        },
        {
          "internalType": "address",
          "name": "_sender",
          "type": "address"
        },
        {
          "internalType": "uint256",
          "name": "_calldataSize",
          "type": "uint256"
        },
        {
          "internalType": "bytes",
          "name": "_options",
          "type": "bytes"
        }
      ],
      "name": "getFee",
      "outputs": [
        {
          "internalType": "uint256",
          "name": "fee",
          "type": "uint256"
        }
      ],
      "stateMutability": "view",
      "type": "function"
    },
    {
      "inputs": [
        {
          "internalType": "bytes32",
          "name": "role",
          "type": "bytes32"
        }
      ],
      "name": "getRoleAdmin",
      "outputs": [
        {
          "internalType": "bytes32",
          "name": "",
          "type": "bytes32"
        }
      ],
      "stateMutability": "view",
      "type": "function"
    },
    {
      "inputs": [
        {
          "internalType": "uint32",
          "name": "_eid",
          "type": "uint32"
        }
      ],
      "name": "getSupportedOptionTypes",
      "outputs": [
        {
          "internalType": "uint8[]",
          "name": "",
          "type": "uint8[]"
        }
      ],
      "stateMutability": "view",
      "type": "function"
    },
    {
      "inputs": [
        {
          "internalType": "bytes32",
          "name": "role",
          "type": "bytes32"
        },
        {
          "internalType": "address",
          "name": "account",
          "type": "address"
        }
      ],
      "name": "grantRole",
      "outputs": [],
      "stateMutability": "nonpayable",
      "type": "function"
    },
    {
      "inputs": [
        {
          "internalType": "address",
          "name": "_sender",
          "type": "address"
        }
      ],
      "name": "hasAcl",
      "outputs": [
        {
          "internalType": "bool",
          "name": "",
          "type": "bool"
        }
      ],
      "stateMutability": "view",
      "type": "function"
    },
    {
      "inputs": [
        {
          "internalType": "bytes32",
          "name": "role",
          "type": "bytes32"
        },
        {
          "internalType": "address",
          "name": "account",
          "type": "address"
        }
      ],
      "name": "hasRole",
      "outputs": [
        {
          "internalType": "bool",
          "name": "",
          "type": "bool"
        }
      ],
      "stateMutability": "view",
      "type": "function"
    },
    {
      "inputs": [
        {
          "internalType": "address",
          "name": "_endpoint",
          "type": "address"
        },
        {
          "internalType": "address",
          "name": "_receiveUln301",
          "type": "address"
        },
        {
          "internalType": "address[]",
          "name": "_messageLibs",
          "type": "address[]"
        },
        {
          "internalType": "address",
          "name": "_priceFeed",
          "type": "address"
        },
        {
          "internalType": "address",
          "name": "_roleAdmin",
          "type": "address"
        },
        {
          "internalType": "address[]",
          "name": "_admins",
          "type": "address[]"
        }
      ],
      "name": "initialize",
      "outputs": [],
      "stateMutability": "nonpayable",
      "type": "function"
    },
    {
      "inputs": [],
      "name": "localEid",
      "outputs": [
        {
          "internalType": "uint32",
          "name": "",
          "type": "uint32"
        }
      ],
      "stateMutability": "view",
      "type": "function"
    },
    {
      "inputs": [
        {
          "components": [
            {
              "internalType": "uint32",
              "name": "srcEid",
              "type": "uint32"
            },
            {
              "internalType": "bytes32",
              "name": "sender",
              "type": "bytes32"
            },
            {
              "internalType": "uint64",
              "name": "nonce",
              "type": "uint64"
            }
          ],
          "internalType": "struct Origin",
          "name": "_origin",
          "type": "tuple"
        },
        {
          "internalType": "uint32",
          "name": "_dstEid",
          "type": "uint32"
        },
        {
          "internalType": "address",
          "name": "_oapp",
          "type": "address"
        },
        {
          "components": [
            {
              "internalType": "address",
              "name": "receiver",
              "type": "address"
            },
            {
              "internalType": "uint256",
              "name": "amount",
              "type": "uint256"
            }
          ],
          "internalType": "struct IExecutor.NativeDropParams[]",
          "name": "_nativeDropParams",
          "type": "tuple[]"
        },
        {
          "internalType": "uint256",
          "name": "_nativeDropGasLimit",
          "type": "uint256"
        }
      ],
      "name": "nativeDrop",
      "outputs": [],
      "stateMutability": "payable",
      "type": "function"
    },
    {
      "inputs": [
        {
          "components": [
            {
              "internalType": "uint32",
              "name": "srcEid",
              "type": "uint32"
            },
            {
              "internalType": "bytes32",
              "name": "sender",
              "type": "bytes32"
            },
            {
              "internalType": "uint64",
              "name": "nonce",
              "type": "uint64"
            }
          ],
          "internalType": "struct Origin",
          "name": "_origin",
          "type": "tuple"
        },
        {
          "components": [
            {
              "internalType": "address",
              "name": "receiver",
              "type": "address"
            },
            {
              "internalType": "uint256",
              "name": "amount",
              "type": "uint256"
            }
          ],
          "internalType": "struct IExecutor.NativeDropParams[]",
          "name": "_nativeDropParams",
          "type": "tuple[]"
        },
        {
          "internalType": "uint256",
          "name": "_nativeDropGasLimit",
          "type": "uint256"
        },
        {
          "internalType": "bytes",
          "name": "_packet",
          "type": "bytes"
        },
        {
          "internalType": "uint256",
          "name": "_gasLimit",
          "type": "uint256"
        }
      ],
      "name": "nativeDropAndExecute301",
      "outputs": [],
      "stateMutability": "payable",
      "type": "function"
    },
    {
      "inputs": [
        {
          "components": [
            {
              "internalType": "address",
              "name": "receiver",
              "type": "address"
            },
            {
              "internalType": "uint256",
              "name": "amount",
              "type": "uint256"
            }
          ],
          "internalType": "struct IExecutor.NativeDropParams[]",
          "name": "_nativeDropParams",
          "type": "tuple[]"
        },
        {
          "internalType": "uint256",
          "name": "_nativeDropGasLimit",
          "type": "uint256"
        },
        {
          "components": [
            {
              "internalType": "address",
              "name": "receiver",
              "type": "address"
            },
            {
              "components": [
                {
                  "internalType": "uint32",
                  "name": "srcEid",
                  "type": "uint32"
                },
                {
                  "internalType": "bytes32",
                  "name": "sender",
                  "type": "bytes32"
                },
                {
                  "internalType": "uint64",
                  "name": "nonce",
                  "type": "uint64"
                }
              ],
              "internalType": "struct Origin",
              "name": "origin",
              "type": "tuple"
            },
            {
              "internalType": "bytes32",
              "name": "guid",
              "type": "bytes32"
            },
            {
              "internalType": "bytes",
              "name": "message",
              "type": "bytes"
            },
            {
              "internalType": "bytes",
              "name": "extraData",
              "type": "bytes"
            },
            {
              "internalType": "uint256",
              "name": "gasLimit",
              "type": "uint256"
            }
          ],
          "internalType": "struct IExecutor.ExecutionParams",
          "name": "_executionParams",
          "type": "tuple"
        }
      ],
      "name": "nativeDropAndExecute302",
      "outputs": [],
      "stateMutability": "payable",
      "type": "function"
    },
    {
      "inputs": [
        {
          "internalType": "address",
          "name": "_receiveUln301",
          "type": "address"
        }
      ],
      "name": "onUpgrade",
      "outputs": [],
      "stateMutability": "nonpayable",
      "type": "function"
    },
    {
      "inputs": [],
      "name": "paused",
      "outputs": [
        {
          "internalType": "bool",
          "name": "",
          "type": "bool"
        }
      ],
      "stateMutability": "view",
      "type": "function"
    },
    {
      "inputs": [],
      "name": "priceFeed",
      "outputs": [
        {
          "internalType": "address",
          "name": "",
          "type": "address"
        }
      ],
      "stateMutability": "view",
      "type": "function"
    },
    {
      "inputs": [],
      "name": "receiveUln301",
      "outputs": [
        {
          "internalType": "address",
          "name": "",
          "type": "address"
        }
      ],
      "stateMutability": "view",
      "type": "function"
    },
    {
      "inputs": [
        {
          "internalType": "bytes32",
          "name": "",
          "type": "bytes32"
        },
        {
          "internalType": "address",
          "name": "",
          "type": "address"
        }
      ],
      "name": "renounceRole",
      "outputs": [],
      "stateMutability": "pure",
      "type": "function"
    },
    {
      "inputs": [
        {
          "internalType": "bytes32",
          "name": "role",
          "type": "bytes32"
        },
        {
          "internalType": "address",
          "name": "account",
          "type": "address"
        }
      ],
      "name": "revokeRole",
      "outputs": [],
      "stateMutability": "nonpayable",
      "type": "function"
    },
    {
      "inputs": [
        {
          "internalType": "uint16",
          "name": "_multiplierBps",
          "type": "uint16"
        }
      ],
      "name": "setDefaultMultiplierBps",
      "outputs": [],
      "stateMutability": "nonpayable",
      "type": "function"
    },
    {
      "inputs": [
        {
          "components": [
            {
              "internalType": "uint32",
              "name": "dstEid",
              "type": "uint32"
            },
            {
              "internalType": "uint64",
              "name": "lzReceiveBaseGas",
              "type": "uint64"
            },
            {
              "internalType": "uint64",
              "name": "lzComposeBaseGas",
              "type": "uint64"
            },
            {
              "internalType": "uint16",
              "name": "multiplierBps",
              "type": "uint16"
            },
            {
              "internalType": "uint128",
              "name": "floorMarginUSD",
              "type": "uint128"
            },
            {
              "internalType": "uint128",
              "name": "nativeCap",
              "type": "uint128"
            }
          ],
          "internalType": "struct IExecutor.DstConfigParam[]",
          "name": "_params",
          "type": "tuple[]"
        }
      ],
      "name": "setDstConfig",
      "outputs": [],
      "stateMutability": "nonpayable",
      "type": "function"
    },
    {
      "inputs": [
        {
          "internalType": "bool",
          "name": "_paused",
          "type": "bool"
        }
      ],
      "name": "setPaused",
      "outputs": [],
      "stateMutability": "nonpayable",
      "type": "function"
    },
    {
      "inputs": [
        {
          "internalType": "address",
          "name": "_priceFeed",
          "type": "address"
        }
      ],
      "name": "setPriceFeed",
      "outputs": [],
      "stateMutability": "nonpayable",
      "type": "function"
    },
    {
      "inputs": [
        {
          "internalType": "uint32",
          "name": "_eid",
          "type": "uint32"
        },
        {
          "internalType": "uint8[]",
          "name": "_optionTypes",
          "type": "uint8[]"
        }
      ],
      "name": "setSupportedOptionTypes",
      "outputs": [],
      "stateMutability": "nonpayable",
      "type": "function"
    },
    {
      "inputs": [
        {
          "internalType": "address",
          "name": "_workerFeeLib",
          "type": "address"
        }
      ],
      "name": "setWorkerFeeLib",
      "outputs": [],
      "stateMutability": "nonpayable",
      "type": "function"
    },
    {
      "inputs": [
        {
          "internalType": "bytes4",
          "name": "interfaceId",
          "type": "bytes4"
        }
      ],
      "name": "supportsInterface",
      "outputs": [
        {
          "internalType": "bool",
          "name": "",
          "type": "bool"
        }
      ],
      "stateMutability": "view",
      "type": "function"
    },
    {
      "inputs": [
        {
          "internalType": "address",
          "name": "_lib",
          "type": "address"
        },
        {
          "internalType": "address",
          "name": "_to",
          "type": "address"
        },
        {
          "internalType": "uint256",
          "name": "_amount",
          "type": "uint256"
        }
      ],
      "name": "withdrawFee",
      "outputs": [],
      "stateMutability": "nonpayable",
      "type": "function"
    },
    {
      "inputs": [
        {
          "internalType": "address",
          "name": "_token",
          "type": "address"
        },
        {
          "internalType": "address",
          "name": "_to",
          "type": "address"
        },
        {
          "internalType": "uint256",
          "name": "_amount",
          "type": "uint256"
        }
      ],
      "name": "withdrawToken",
      "outputs": [],
      "stateMutability": "nonpayable",
      "type": "function"
    },
    {
      "inputs": [],
      "name": "workerFeeLib",
      "outputs": [
        {
          "internalType": "address",
          "name": "",
          "type": "address"
        }
      ],
      "stateMutability": "view",
      "type": "function"
    }
  ],
  "transactionHash": "0x9e06cedabfd87662c72eb56bc13a343b9d996bd28ea85555212f4c041caeb8f5",
  "args": [],
  "numDeployments": 1,
  "solcInputHash": "df45c5d73ee7212b45689d2cdbb787f2",
  "bytecode": "0x608060405234801561001057600080fd5b506137ce806100206000396000f3fe60806040526004361061020d5760003560e01c8063717e8a4211610118578063c2803b2c116100a0578063cd88b9031161006f578063cd88b903146106c6578063cfc32570146106e6578063d2ae2104146106f9578063d547741f14610738578063fa34c84e1461075857600080fd5b8063c2803b2c14610645578063c358de0a14610666578063c416aa5114610686578063c7b2370b146106a657600080fd5b80637cd44734116100e75780637cd447341461053a5780638624ba071461054d57806391d14854146105605780639e94496514610580578063a217fddf1461063057600080fd5b8063717e8a42146104a0578063724e78da146104c057806372607537146104e0578063741bef1a1461051a57600080fd5b80632f2ff15d1161019b5780633d85ac331161016a5780633d85ac33146103fc578063475b6d9e1461041c5780635c975abb1461042f5780635e280f1114610447578063709eb6641461048057600080fd5b80632f2ff15d146103895780633146646a146103a957806336568abe146103c95780633927c075146103e957600080fd5b80631095b6d7116101e25780631095b6d7146102be57806316c38b3c146102de578063248a9ca3146102fe57806326e67a371461033c5780632de113761461036957600080fd5b80629fc68114610212578062bf2e801461023457806301e336671461026e57806301ffc9a71461028e575b600080fd5b34801561021e57600080fd5b5061023261022d3660046127ca565b610778565b005b34801561024057600080fd5b5060c95461025690600160e01b900461ffff1681565b60405161ffff90911681526020015b60405180910390f35b34801561027a57600080fd5b5061023261028936600461286e565b6109bf565b34801561029a57600080fd5b506102ae6102a93660046128aa565b6109e8565b6040519015158152602001610265565b3480156102ca57600080fd5b506102326102d936600461286e565b610a1f565b3480156102ea57600080fd5b506102326102f93660046128e2565b610b32565b34801561030a57600080fd5b5061032e6103193660046128ff565b60009081526065602052604090206001015490565b604051908152602001610265565b34801561034857600080fd5b5061035c61035736600461292a565b610b57565b6040516102659190612947565b34801561037557600080fd5b506102ae61038436600461298e565b610bde565b34801561039557600080fd5b506102326103a43660046129a9565b610c75565b3480156103b557600080fd5b506102326103c4366004612a1d565b610c9f565b3480156103d557600080fd5b506102326103e43660046129a9565b610d30565b6102326103f7366004612ac4565b610d49565b34801561040857600080fd5b50610232610417366004612b97565b610dfb565b61023261042a366004612c9e565b610f73565b34801561043b57600080fd5b5060975460ff166102ae565b34801561045357600080fd5b5061012e54610468906001600160a01b031681565b6040516001600160a01b039091168152602001610265565b34801561048c57600080fd5b5061032e61049b366004612d1e565b610fb5565b3480156104ac57600080fd5b5061032e6104bb366004612d1e565b6110b6565b3480156104cc57600080fd5b506102326104db36600461298e565b6111e4565b3480156104ec57600080fd5b5061012e5461050590600160a01b900463ffffffff1681565b60405163ffffffff9091168152602001610265565b34801561052657600080fd5b5060ca54610468906001600160a01b031681565b610232610548366004612d8e565b61124a565b61023261055b366004612e53565b6113ad565b34801561056c57600080fd5b506102ae61057b3660046129a9565b611586565b34801561058c57600080fd5b506105ed61059b36600461292a565b61012d60205260009081526040902080546001909101546001600160401b038083169261ffff600160401b820416926001600160801b03600160501b90920482169291811691600160801b9091041685565b604080516001600160401b03968716815261ffff90951660208601526001600160801b03938416908501529116606083015291909116608082015260a001610265565b34801561063c57600080fd5b5061032e600081565b34801561065157600080fd5b5061012f54610468906001600160a01b031681565b34801561067257600080fd5b50610232610681366004612ec5565b6115b1565b34801561069257600080fd5b5060c954610468906001600160a01b031681565b3480156106b257600080fd5b506102326106c136600461298e565b611619565b3480156106d257600080fd5b506102326106e1366004612ee0565b61167f565b6102326106f4366004612f67565b6116b7565b34801561070557600080fd5b5060c95461072090600160a01b90046001600160401b031681565b6040516001600160401b039091168152602001610265565b34801561074457600080fd5b506102326107533660046129a9565b611847565b34801561076457600080fd5b5061023261077336600461298e565b61186c565b60006107906000805160206137598339815191525490565b90506001600160a01b0381166107bd576001600160a01b03600080516020613759833981519152556107d2565b336001600160a01b038216146107d257600080fd5b600054610100900460ff16158080156107f25750600054600160ff909116105b8061080c5750303b15801561080c575060005460ff166001145b6108745760405162461bcd60e51b815260206004820152602e60248201527f496e697469616c697a61626c653a20636f6e747261637420697320616c72656160448201526d191e481a5b9a5d1a585b1a5e995960921b60648201526084015b60405180910390fd5b6000805460ff191660011790558015610897576000805461ff0019166101001790555b61089f6118ea565b6108ae8686612ee0878761191b565b61012e80546001600160a01b0319166001600160a01b038a169081179091556040805163416ecebf60e01b8152905163416ecebf916004808201926020929091908290030181865afa158015610908573d6000803e3d6000fd5b505050506040513d601f19601f8201168201806040525081019061092c9190612f9b565b61012e805463ffffffff60a01b1916600160a01b63ffffffff939093169290920291909117905561012f80546001600160a01b0319166001600160a01b03891617905580156109b5576000805461ff0019169055604051600181527f7f26b83ff96e1f2b6a682f133852f6798a09c465da95921460cefb38474024989060200160405180910390a15b5050505050505050565b6000805160206137798339815191526109d781611967565b6109e2848484611974565b50505050565b60006001600160e01b03198216637965db0b60e01b1480610a1957506301ffc9a760e01b6001600160e01b03198316145b92915050565b600080516020613779833981519152610a3781611967565b610a617f724aface199fe5bed93ae8508474576a9adf3dc443b2c451842a2242919f19de85611586565b610a7e57604051635ee08b9760e01b815260040160405180910390fd5b604051637ecdf29160e11b81526001600160a01b0384811660048301526024820184905285169063fd9be52290604401600060405180830381600087803b158015610ac857600080fd5b505af1158015610adc573d6000803e3d6000fd5b5050604080516001600160a01b038089168252871660208201529081018590527f9b1bfa7fa9ee420a16e124f794c35ac9f90472acc99140eb2f6447c714cad8eb9250606001905060405180910390a150505050565b6000610b3d81611967565b8115610b4f57610b4b611997565b5050565b610b4b6119f1565b63ffffffff8116600090815260cb6020908152604091829020805483518184028101840190945280845260609392830182828015610bd257602002820191906000526020600020906000905b825461010083900a900460ff16815260206001928301818104948501949093039092029101808411610ba35790505b50505050509050919050565b6000610c0a7f4270fae16c6d150d00e80b689daca99e8073b1838ff2b6063a37be9d851283e483611586565b15610c1757506000919050565b60c954600160a01b90046001600160401b03161580610c5b5750610c5b7f74845de37cfabd357633214b47fa91ccd19b05b7c5a08ac22c187f811fb62bca83611586565b15610c6857506001919050565b506000919050565b919050565b600082815260656020526040902060010154610c9081611967565b610c9a8383611a2a565b505050565b600080516020613779833981519152610cb781611967565b610cbf611ab4565b61012f54604051631cca20df60e31b81526001600160a01b039091169063e65106f890610cf490879087908790600401612fe1565b600060405180830381600087803b158015610d0e57600080fd5b505af1158015610d22573d6000803e3d6000fd5b505050506109e2600160fb55565b60405163dec9f03160e01b815260040160405180910390fd5b600080516020613779833981519152610d6181611967565b610d69611ab4565b610d8988610d778686611b14565b610d818787611b37565b8a8a8a611b50565b5061012f54604051631cca20df60e31b81526001600160a01b039091169063e65106f890610dbf90879087908790600401612fe1565b600060405180830381600087803b158015610dd957600080fd5b505af1158015610ded573d6000803e3d6000fd5b505050506109b5600160fb55565b600080516020613779833981519152610e1381611967565b60005b8251811015610f37576000838281518110610e3357610e33613005565b6020908102919091018101516040805160a08082018352838501516001600160401b03908116835260608086015161ffff9081168589019081526080808901516001600160801b03908116888a01908152968a01518116948801948552888a01518616918801918252985163ffffffff16600090815261012d909a529690982094518554985194518816600160501b026fffffffffffffffffffffffffffffffff60501b1995909216600160401b0269ffffffffffffffffffff1990991690841617979097179290921695909517825551600191820180549351909516600160801b026001600160c01b031990931693169290921717909155919091019050610e16565b507fb99f6de5e22c60c178b03bfacf2daeb4b6089f5b37e0fe2c48a5d5141191fc5382604051610f67919061301b565b60405180910390a15050565b600080516020613779833981519152610f8b81611967565b610f93611ab4565b610fa1878787878787611b50565b50610fac600160fb55565b50505050505050565b600084610fc181610bde565b610fde57604051634ab5ebcd60e01b815260040160405180910390fd5b610fe6611cb7565b6040805160a08101825260ca546001600160a01b03908116825263ffffffff8a1660208084018290528a831684860152606084018a905260c95461ffff600160e01b8204166080860152600092835261012d9091529084902093516321a7700b60e11b8152929391169163434ee01691611069918591908a908a906004016130b8565b602060405180830381865afa158015611086573d6000803e3d6000fd5b505050506040513d601f19601f820116820180604052508101906110aa9190613161565b98975050505050505050565b60007f724aface199fe5bed93ae8508474576a9adf3dc443b2c451842a2242919f19de6110e281611967565b856110ec81610bde565b61110957604051634ab5ebcd60e01b815260040160405180910390fd5b611111611cb7565b6040805160a08101825260ca546001600160a01b03908116825263ffffffff8b1660208084018290528b831684860152606084018b905260c95461ffff600160e01b8204166080860152600092835261012d909152908490209351632b377bb160e11b8152929391169163566ef76291611194918591908b908b906004016130b8565b6020604051808303816000875af11580156111b3573d6000803e3d6000fd5b505050506040513d601f19601f820116820180604052508101906111d79190613161565b9998505050505050505050565b6000805160206137798339815191526111fc81611967565b60ca80546001600160a01b0319166001600160a01b0384169081179091556040519081527ff724a45d041687842411f2b977ef22ab8f43c8f1104f4592b42a00f9b34a643d90602001610f67565b60008051602061377983398151915261126281611967565b61126a611ab4565b61012e546040516391d20fa160e01b81526001600160a01b03909116906391d20fa190849034906112ad908f908f908f908f908f908f908f908f9060040161317a565b6000604051808303818589803b1580156112c657600080fd5b5088f194505050505080156112d9575060015b611397573d808015611307576040519150601f19603f3d011682016040523d82523d6000602084013e61130c565b606091505b5061012e60009054906101000a90046001600160a01b03166001600160a01b031663697fe6b68c8c8c8c88348e8e8e8e8c6040518c63ffffffff1660e01b81526004016113639b9a9998979695949392919061322a565b600060405180830381600087803b15801561137d57600080fd5b505af1158015611391573d6000803e3d6000fd5b50505050505b6113a1600160fb55565b50505050505050505050565b6000805160206137798339815191526113c581611967565b6113cd611ab4565b61012e546000906113fc906020850190600160a01b900463ffffffff166113f4828761298e565b898989611b50565b9050600061140a82346132c9565b61012e549091506001600160a01b0316630c0c389e60e08601358360208801611433818a61298e565b60808a013561144560a08c018c6132dc565b61145260c08e018e6132dc565b6040518a63ffffffff1660e01b8152600401611474979695949392919061335d565b6000604051808303818589803b15801561148d57600080fd5b5088f194505050505080156114a0575060015b611573573d8080156114ce576040519150601f19603f3d011682016040523d82523d6000602084013e6114d3565b606091505b5061012e546001600160a01b0316636bf73fa3602087016114f4818961298e565b608089013560e08a01358761150c60a08d018d6132dc565b61151960c08f018f6132dc565b8b6040518b63ffffffff1660e01b815260040161153f9a999897969594939291906133b3565b600060405180830381600087803b15801561155957600080fd5b505af115801561156d573d6000803e3d6000fd5b50505050505b505061157f600160fb55565b5050505050565b60009182526065602090815260408084206001600160a01b0393909316845291905290205460ff1690565b6000805160206137798339815191526115c981611967565b60c9805461ffff60e01b1916600160e01b61ffff8516908102919091179091556040519081527f7af0ac740036ffb1c97b03697859d729e80a44ae5030543d64971c313565ab4d90602001610f67565b60008051602061377983398151915261163181611967565b60c980546001600160a01b0319166001600160a01b0384169081179091556040519081527f1399be28223800f8669b3ba5f8721d9fc16fc4e8d0bbf98378791c8c5a3015e090602001610f67565b60008051602061377983398151915261169781611967565b63ffffffff8416600090815260cb6020526040902061157f9084846125ee565b6000805160206137798339815191526116cf81611967565b6116d7611ab4565b61012e546001600160a01b0316630c0c389e60e084013534602086016116fd818861298e565b608088013561170f60a08a018a6132dc565b61171c60c08c018c6132dc565b6040518a63ffffffff1660e01b815260040161173e979695949392919061335d565b6000604051808303818589803b15801561175757600080fd5b5088f1945050505050801561176a575060015b61183d573d808015611798576040519150601f19603f3d011682016040523d82523d6000602084013e61179d565b606091505b5061012e546001600160a01b0316636bf73fa3602085016117be818761298e565b608087013560e0880135346117d660a08b018b6132dc565b6117e360c08d018d6132dc565b8b6040518b63ffffffff1660e01b81526004016118099a999897969594939291906133b3565b600060405180830381600087803b15801561182357600080fd5b505af1158015611837573d6000803e3d6000fd5b50505050505b610b4b600160fb55565b60008281526065602052604090206001015461186281611967565b610c9a8383611cfd565b60006118846000805160206137598339815191525490565b90506001600160a01b0381166118b1576001600160a01b03600080516020613759833981519152556118c6565b336001600160a01b038216146118c657600080fd5b5061012f80546001600160a01b0319166001600160a01b0392909216919091179055565b600054610100900460ff166119115760405162461bcd60e51b815260040161086b90613431565b611919611d85565b565b600054610100900460ff166119425760405162461bcd60e51b815260040161086b90613431565b61194a611dac565b611952611dac565b61195a611dd3565b61157f8585858585611e06565b6119718133611f11565b50565b6001600160a01b03831661198c57610c9a8282611f6a565b610c9a838383612017565b61199f611cb7565b6097805460ff191660011790557f62e78cea01bee320cd4e420270b5ea74000d11b0c9f74754ebdbfc544b05a2586119d43390565b6040516001600160a01b03909116815260200160405180910390a1565b6119f9612052565b6097805460ff191690557f5db9ee0a495bf2e6ff9c91a7834c1ba4fdd244a5e8aa4e537bd38aeae4b073aa336119d4565b7f74845de37cfabd357633214b47fa91ccd19b05b7c5a08ac22c187f811fb62bca82148015611a605750611a5e8282611586565b155b15611aaa5760c98054601490611a8590600160a01b90046001600160401b031661347c565b91906101000a8154816001600160401b0302191690836001600160401b031602179055505b610b4b828261209b565b600260fb5403611b065760405162461bcd60e51b815260206004820152601f60248201527f5265656e7472616e637947756172643a207265656e7472616e742063616c6c00604482015260640161086b565b600260fb55565b600160fb55565b6000611b246031602d84866134a2565b611b2d916134cc565b60e01c9392505050565b6000611b49611b468484612121565b90565b9392505050565b600080836001600160401b03811115611b6b57611b6b6126c3565b604051908082528060200260200182016040528015611b94578160200160208202803683370190505b50905060005b84811015611c6a576000868683818110611bb657611bb6613005565b905060400201803603810190611bcc91906134fc565b9050600081600001516001600160a01b031682602001518790604051600060405180830381858888f193505050503d8060008114611c26576040519150601f19603f3d011682016040523d82523d6000602084013e611c2b565b606091505b5050905080848481518110611c4257611c42613005565b911515602092830291909101820152820151611c5e9086613552565b94505050600101611b9a565b507f1f48172553121d8bf273ce457a5a3dd180d464e0add3e0143045b7fa039c3468888888888886604051611ca4969594939291906135a3565b60405180910390a1509695505050505050565b60975460ff16156119195760405162461bcd60e51b815260206004820152601060248201526f14185d5cd8589b194e881c185d5cd95960821b604482015260640161086b565b7f74845de37cfabd357633214b47fa91ccd19b05b7c5a08ac22c187f811fb62bca82148015611d315750611d318282611586565b15611d7b5760c98054601490611d5690600160a01b90046001600160401b0316613628565b91906101000a8154816001600160401b0302191690836001600160401b031602179055505b610b4b828261213a565b600054610100900460ff16611b0d5760405162461bcd60e51b815260040161086b90613431565b600054610100900460ff166119195760405162461bcd60e51b815260040161086b90613431565b600054610100900460ff16611dfa5760405162461bcd60e51b815260040161086b90613431565b6097805460ff19169055565b600054610100900460ff16611e2d5760405162461bcd60e51b815260040161086b90613431565b60c9805461ffff60e01b1916600160e01b61ffff86160217905560ca80546001600160a01b0319166001600160a01b0386811691909117909155821615611e7957611e79600083611a2a565b60005b8551811015611ed057611ec87f724aface199fe5bed93ae8508474576a9adf3dc443b2c451842a2242919f19de878381518110611ebb57611ebb613005565b6020026020010151611a2a565b600101611e7c565b5060005b8151811015611f0957611f01600080516020613779833981519152838381518110611ebb57611ebb613005565b600101611ed4565b505050505050565b611f1b8282611586565b610b4b57611f28816121a1565b611f338360206121b3565b604051602001611f4492919061364b565b60408051601f198184030181529082905262461bcd60e51b825261086b916004016136c0565b6001600160a01b038216611f91576040516306b7a93160e41b815260040160405180910390fd5b6000826001600160a01b03168260405160006040518083038185875af1925050503d8060008114611fde576040519150601f19603f3d011682016040523d82523d6000602084013e611fe3565b606091505b5050905080610c9a57604051631196f20d60e21b81526001600160a01b03841660048201526024810183905260440161086b565b6001600160a01b03821661203e576040516306b7a93160e41b815260040160405180910390fd5b610c9a6001600160a01b038416838361234e565b60975460ff166119195760405162461bcd60e51b815260206004820152601460248201527314185d5cd8589b194e881b9bdd081c185d5cd95960621b604482015260640161086b565b6120a58282611586565b610b4b5760008281526065602090815260408083206001600160a01b03851684529091529020805460ff191660011790556120dd3390565b6001600160a01b0316816001600160a01b0316837f2f8788117e7eff1d82e926ec794901d17c78024a50270940304540a733656f0d60405160405180910390a45050565b60006121316051603184866134a2565b611b49916136d3565b6121448282611586565b15610b4b5760008281526065602090815260408083206001600160a01b0385168085529252808320805460ff1916905551339285917ff6391f5c32d9c69d2a47ea670b442974b53935d1edc7fd64eb21e047a839171b9190a45050565b6060610a196001600160a01b03831660145b606060006121c28360026136f1565b6121cd906002613552565b6001600160401b038111156121e4576121e46126c3565b6040519080825280601f01601f19166020018201604052801561220e576020820181803683370190505b509050600360fc1b8160008151811061222957612229613005565b60200101906001600160f81b031916908160001a905350600f60fb1b8160018151811061225857612258613005565b60200101906001600160f81b031916908160001a905350600061227c8460026136f1565b612287906001613552565b90505b60018111156122ff576f181899199a1a9b1b9c1cb0b131b232b360811b85600f16601081106122bb576122bb613005565b1a60f81b8282815181106122d1576122d1613005565b60200101906001600160f81b031916908160001a90535060049490941c936122f881613708565b905061228a565b508315611b495760405162461bcd60e51b815260206004820181905260248201527f537472696e67733a20686578206c656e67746820696e73756666696369656e74604482015260640161086b565b604080516001600160a01b03848116602483015260448083018590528351808403909101815260649092018352602080830180516001600160e01b031663a9059cbb60e01b17905283518085019094528084527f5361666545524332303a206c6f772d6c6576656c2063616c6c206661696c656490840152610c9a928692916000916123de91851690849061245e565b90508051600014806123ff5750808060200190518101906123ff919061371f565b610c9a5760405162461bcd60e51b815260206004820152602a60248201527f5361666545524332303a204552433230206f7065726174696f6e20646964206e6044820152691bdd081cdd58d8d9595960b21b606482015260840161086b565b606061246d8484600085612475565b949350505050565b6060824710156124d65760405162461bcd60e51b815260206004820152602660248201527f416464726573733a20696e73756666696369656e742062616c616e636520666f6044820152651c8818d85b1b60d21b606482015260840161086b565b600080866001600160a01b031685876040516124f2919061373c565b60006040518083038185875af1925050503d806000811461252f576040519150601f19603f3d011682016040523d82523d6000602084013e612534565b606091505b509150915061254587838387612550565b979650505050505050565b606083156125bf5782516000036125b8576001600160a01b0385163b6125b85760405162461bcd60e51b815260206004820152601d60248201527f416464726573733a2063616c6c20746f206e6f6e2d636f6e7472616374000000604482015260640161086b565b508161246d565b61246d83838151156125d45781518083602001fd5b8060405162461bcd60e51b815260040161086b91906136c0565b82805482825590600052602060002090601f016020900481019282156126875791602002820160005b8382111561265857833560ff1683826101000a81548160ff021916908360ff1602179055509260200192600101602081600001049283019260010302612617565b80156126855782816101000a81549060ff0219169055600101602081600001049283019260010302612658565b505b50612693929150612697565b5090565b5b808211156126935760008155600101612698565b80356001600160a01b0381168114610c7057600080fd5b634e487b7160e01b600052604160045260246000fd5b60405160c081016001600160401b03811182821017156126fb576126fb6126c3565b60405290565b604051601f8201601f191681016001600160401b0381118282101715612729576127296126c3565b604052919050565b60006001600160401b0382111561274a5761274a6126c3565b5060051b60200190565b600082601f83011261276557600080fd5b8135602061277a61277583612731565b612701565b8083825260208201915060208460051b87010193508684111561279c57600080fd5b602086015b848110156127bf576127b2816126ac565b83529183019183016127a1565b509695505050505050565b60008060008060008060c087890312156127e357600080fd5b6127ec876126ac565b95506127fa602088016126ac565b945060408701356001600160401b038082111561281657600080fd5b6128228a838b01612754565b955061283060608a016126ac565b945061283e60808a016126ac565b935060a089013591508082111561285457600080fd5b5061286189828a01612754565b9150509295509295509295565b60008060006060848603121561288357600080fd5b61288c846126ac565b925061289a602085016126ac565b9150604084013590509250925092565b6000602082840312156128bc57600080fd5b81356001600160e01b031981168114611b4957600080fd5b801515811461197157600080fd5b6000602082840312156128f457600080fd5b8135611b49816128d4565b60006020828403121561291157600080fd5b5035919050565b63ffffffff8116811461197157600080fd5b60006020828403121561293c57600080fd5b8135611b4981612918565b6020808252825182820181905260009190848201906040850190845b8181101561298257835160ff1683529284019291840191600101612963565b50909695505050505050565b6000602082840312156129a057600080fd5b611b49826126ac565b600080604083850312156129bc57600080fd5b823591506129cc602084016126ac565b90509250929050565b60008083601f8401126129e757600080fd5b5081356001600160401b038111156129fe57600080fd5b602083019150836020828501011115612a1657600080fd5b9250929050565b600080600060408486031215612a3257600080fd5b83356001600160401b03811115612a4857600080fd5b612a54868287016129d5565b909790965060209590950135949350505050565b600060608284031215612a7a57600080fd5b50919050565b60008083601f840112612a9257600080fd5b5081356001600160401b03811115612aa957600080fd5b6020830191508360208260061b8501011115612a1657600080fd5b600080600080600080600060e0888a031215612adf57600080fd5b612ae98989612a68565b965060608801356001600160401b0380821115612b0557600080fd5b612b118b838c01612a80565b909850965060808a0135955060a08a0135915080821115612b3157600080fd5b50612b3e8a828b016129d5565b989b979a5095989497959660c090950135949350505050565b80356001600160401b0381168114610c7057600080fd5b803561ffff81168114610c7057600080fd5b80356001600160801b0381168114610c7057600080fd5b60006020808385031215612baa57600080fd5b82356001600160401b03811115612bc057600080fd5b8301601f81018513612bd157600080fd5b8035612bdf61277582612731565b81815260c09182028301840191848201919088841115612bfe57600080fd5b938501935b83851015612c925780858a031215612c1b5760008081fd5b612c236126d9565b8535612c2e81612918565b8152612c3b868801612b57565b878201526040612c4c818801612b57565b908201526060612c5d878201612b6e565b908201526080612c6e878201612b80565b9082015260a0612c7f878201612b80565b9082015283529384019391850191612c03565b50979650505050505050565b60008060008060008060e08789031215612cb757600080fd5b612cc18888612a68565b95506060870135612cd181612918565b9450612cdf608088016126ac565b935060a08701356001600160401b03811115612cfa57600080fd5b612d0689828a01612a80565b979a969950949794969560c090950135949350505050565b600080600080600060808688031215612d3657600080fd5b8535612d4181612918565b9450612d4f602087016126ac565b93506040860135925060608601356001600160401b03811115612d7157600080fd5b612d7d888289016129d5565b969995985093965092949392505050565b600080600080600080600080600060e08a8c031215612dac57600080fd5b612db58a6126ac565b9850612dc360208b016126ac565b975060408a01359650612dd860608b01612b6e565b955060808a01356001600160401b0380821115612df457600080fd5b612e008d838e016129d5565b909750955060a08c0135915080821115612e1957600080fd5b50612e268c828d016129d5565b9a9d999c50979a9699959894979660c00135949350505050565b60006101008284031215612a7a57600080fd5b60008060008060608587031215612e6957600080fd5b84356001600160401b0380821115612e8057600080fd5b612e8c88838901612a80565b9096509450602087013593506040870135915080821115612eac57600080fd5b50612eb987828801612e40565b91505092959194509250565b600060208284031215612ed757600080fd5b611b4982612b6e565b600080600060408486031215612ef557600080fd5b8335612f0081612918565b925060208401356001600160401b0380821115612f1c57600080fd5b818601915086601f830112612f3057600080fd5b813581811115612f3f57600080fd5b8760208260051b8501011115612f5457600080fd5b6020830194508093505050509250925092565b600060208284031215612f7957600080fd5b81356001600160401b03811115612f8f57600080fd5b61246d84828501612e40565b600060208284031215612fad57600080fd5b8151611b4981612918565b81835281816020850137506000828201602090810191909152601f909101601f19169091010190565b604081526000612ff5604083018587612fb8565b9050826020830152949350505050565b634e487b7160e01b600052603260045260246000fd5b602080825282518282018190526000919060409081850190868401855b828110156130ab578151805163ffffffff168552868101516001600160401b039081168887015286820151168686015260608082015161ffff16908601526080808201516001600160801b039081169187019190915260a091820151169085015260c09093019290850190600101613038565b5091979650505050505050565b84516001600160a01b03908116825260208087015163ffffffff1690830152604080870151909116818301526060808701519083015260808087015161ffff9081168285015286546001600160401b0380821660a08701529381901c90911660c085015260501c6001600160801b0390811660e08501526001870154908116610100850152901c1661012082015261016061014082018190526000906125458382018587612fb8565b60006020828403121561317357600080fd5b5051919050565b6001600160a01b038981168252881660208201526040810187905261ffff8616606082015260c0608082018190526000906131b89083018688612fb8565b82810360a08401526131cb818587612fb8565b9b9a5050505050505050505050565b60005b838110156131f55781810151838201526020016131dd565b50506000910152565b600081518084526132168160208601602086016131da565b601f01601f19169290920160200192915050565b6001600160a01b038c811682528b166020820152604081018a905261ffff891660608201526080810188905260a0810187905261012060c08201819052600090613277838201888a612fb8565b905082810360e084015261328c818688612fb8565b90508281036101008401526132a181856131fe565b9e9d5050505050505050505050505050565b634e487b7160e01b600052601160045260246000fd5b81810381811115610a1957610a196132b3565b6000808335601e198436030181126132f357600080fd5b8301803591506001600160401b0382111561330d57600080fd5b602001915036819003821315612a1657600080fd5b803561332d81612918565b63ffffffff168252602081810135908301526001600160401b0361335360408301612b57565b1660408301525050565b6133678189613322565b60018060a01b038716606082015285608082015260e060a0820152600061339260e083018688612fb8565b82810360c08401526133a5818587612fb8565b9a9950505050505050505050565b60006101406133c2838e613322565b60018060a01b038c1660608401528a60808401528960a08401528860c08401528060e08401526133f5818401888a612fb8565b905082810361010084015261340b818688612fb8565b905082810361012084015261342081856131fe565b9d9c50505050505050505050505050565b6020808252602b908201527f496e697469616c697a61626c653a20636f6e7472616374206973206e6f74206960408201526a6e697469616c697a696e6760a81b606082015260800190565b60006001600160401b03808316818103613498576134986132b3565b6001019392505050565b600080858511156134b257600080fd5b838611156134bf57600080fd5b5050820193919092039150565b6001600160e01b031981358181169160048510156134f45780818660040360031b1b83161692505b505092915050565b60006040828403121561350e57600080fd5b604051604081018181106001600160401b0382111715613530576135306126c3565b60405261353c836126ac565b8152602083013560208201528091505092915050565b80820180821115610a1957610a196132b3565b60008151808452602080850194506020840160005b8381101561359857815115158752958201959082019060010161357a565b509495945050505050565b600060e082016135b3838a613322565b63ffffffff881660608401526001600160a01b03878116608085015260e060a0850152908590528590610100840160005b8781101561361557826135f6856126ac565b16825260208481013590830152604093840193909101906001016135e4565b5084810360c08601526131cb8187613565565b60006001600160401b03821680613641576136416132b3565b6000190192915050565b7f416363657373436f6e74726f6c3a206163636f756e74200000000000000000008152600083516136838160178501602088016131da565b7001034b99036b4b9b9b4b733903937b6329607d1b60179184019182015283516136b48160288401602088016131da565b01602801949350505050565b602081526000611b4960208301846131fe565b80356020831015610a1957600019602084900360031b1b1692915050565b8082028115828204841417610a1957610a196132b3565b600081613717576137176132b3565b506000190190565b60006020828403121561373157600080fd5b8151611b49816128d4565b6000825161374e8184602087016131da565b919091019291505056feb53127684a568b3173ae13b9f8a6016e243e63b6e8ee1178d6a717850b5d6103a49807205ce4d355092ef5a8a18f56e8913cf4a201fbe287825b095693c21775a26469706673582212208948fabb0cbbd12aeaa8e5e8c526d8838710eb5912cdb7a034aed53e3e48e2d364736f6c63430008160033",
  "devdoc": {
    "events": {
      "Initialized(uint8)": {
        "details": "Triggered when the contract has been initialized or reinitialized."
      },
      "Paused(address)": {
        "details": "Emitted when the pause is triggered by `account`."
      },
      "RoleAdminChanged(bytes32,bytes32,bytes32)": {
        "details": "Emitted when `newAdminRole` is set as ``role``'s admin role, replacing `previousAdminRole` `DEFAULT_ADMIN_ROLE` is the starting admin for all roles, despite {RoleAdminChanged} not being emitted signaling this. _Available since v3.1._"
      },
      "RoleGranted(bytes32,address,address)": {
        "details": "Emitted when `account` is granted `role`. `sender` is the account that originated the contract call, an admin role bearer except when using {AccessControl-_setupRole}."
      },
      "RoleRevoked(bytes32,address,address)": {
        "details": "Emitted when `account` is revoked `role`. `sender` is the account that originated the contract call:   - if using `revokeRole`, it is the admin role bearer   - if using `renounceRole`, it is the role bearer (i.e. `account`)"
      },
      "Unpaused(address)": {
        "details": "Emitted when the pause is lifted by `account`."
      }
    },
    "kind": "dev",
    "methods": {
      "getRoleAdmin(bytes32)": {
        "details": "Returns the admin role that controls `role`. See {grantRole} and {revokeRole}. To change a role's admin, use {_setRoleAdmin}."
      },
      "grantRole(bytes32,address)": {
        "details": "Grants `role` to `account`. If `account` had not been already granted `role`, emits a {RoleGranted} event. Requirements: - the caller must have ``role``'s admin role. May emit a {RoleGranted} event."
      },
      "hasAcl(address)": {
        "details": "Access control list using allowlist and denylist1) if one address is in the denylist -> deny2) else if address in the allowlist OR allowlist is empty (allows everyone)-> allow3) else deny",
        "params": {
          "_sender": "address to check"
        }
      },
      "hasRole(bytes32,address)": {
        "details": "Returns `true` if `account` has been granted `role`."
      },
      "paused()": {
        "details": "Returns true if the contract is paused, and false otherwise."
      },
      "renounceRole(bytes32,address)": {
        "details": "overrides AccessControl to disable renouncing of roles"
      },
      "revokeRole(bytes32,address)": {
        "details": "Revokes `role` from `account`. If `account` had been granted `role`, emits a {RoleRevoked} event. Requirements: - the caller must have ``role``'s admin role. May emit a {RoleRevoked} event."
      },
      "setDefaultMultiplierBps(uint16)": {
        "params": {
          "_multiplierBps": "default multiplier for worker fee"
        }
      },
      "setPaused(bool)": {
        "details": "flag to pause execution of workers (if used with whenNotPaused modifier)",
        "params": {
          "_paused": "true to pause, false to unpause"
        }
      },
      "setPriceFeed(address)": {
        "params": {
          "_priceFeed": "price feed address"
        }
      },
      "setWorkerFeeLib(address)": {
        "params": {
          "_workerFeeLib": "worker fee lib address"
        }
      },
      "supportsInterface(bytes4)": {
        "details": "See {IERC165-supportsInterface}."
      },
      "withdrawFee(address,address,uint256)": {
        "details": "supports withdrawing fee from ULN301, ULN302 and more",
        "params": {
          "_amount": "amount to withdraw",
          "_lib": "message lib address",
          "_to": "address to withdraw fee to"
        }
      },
      "withdrawToken(address,address,uint256)": {
        "details": "supports withdrawing token from the contract",
        "params": {
          "_amount": "amount to withdraw",
          "_to": "address to withdraw token to",
          "_token": "token address"
        }
      }
    },
    "version": 1
  },
  "userdoc": {
    "kind": "user",
    "methods": {},
    "version": 1
  },
  "storageLayout": {
    "storage": [
      {
        "astId": 5514,
        "contract": "contracts/messagelib/contracts/Executor.sol:Executor",
        "label": "_initialized",
        "offset": 0,
        "slot": "0",
        "type": "t_uint8"
      },
      {
        "astId": 5517,
        "contract": "contracts/messagelib/contracts/Executor.sol:Executor",
        "label": "_initializing",
        "offset": 1,
        "slot": "0",
        "type": "t_bool"
      },
      {
        "astId": 6269,
        "contract": "contracts/messagelib/contracts/Executor.sol:Executor",
        "label": "__gap",
        "offset": 0,
        "slot": "1",
        "type": "t_array(t_uint256)50_storage"
      },
      {
        "astId": 6543,
        "contract": "contracts/messagelib/contracts/Executor.sol:Executor",
        "label": "__gap",
        "offset": 0,
        "slot": "51",
        "type": "t_array(t_uint256)50_storage"
      },
      {
        "astId": 4993,
        "contract": "contracts/messagelib/contracts/Executor.sol:Executor",
        "label": "_roles",
        "offset": 0,
        "slot": "101",
        "type": "t_mapping(t_bytes32,t_struct(RoleData)4988_storage)"
      },
      {
        "astId": 5300,
        "contract": "contracts/messagelib/contracts/Executor.sol:Executor",
        "label": "__gap",
        "offset": 0,
        "slot": "102",
        "type": "t_array(t_uint256)49_storage"
      },
      {
        "astId": 5698,
        "contract": "contracts/messagelib/contracts/Executor.sol:Executor",
        "label": "_paused",
        "offset": 0,
        "slot": "151",
        "type": "t_bool"
      },
      {
        "astId": 5803,
        "contract": "contracts/messagelib/contracts/Executor.sol:Executor",
        "label": "__gap",
        "offset": 0,
        "slot": "152",
        "type": "t_array(t_uint256)49_storage"
      },
      {
        "astId": 29211,
        "contract": "contracts/messagelib/contracts/Executor.sol:Executor",
        "label": "workerFeeLib",
        "offset": 0,
        "slot": "201",
        "type": "t_address"
      },
      {
        "astId": 29213,
        "contract": "contracts/messagelib/contracts/Executor.sol:Executor",
        "label": "allowlistSize",
        "offset": 20,
        "slot": "201",
        "type": "t_uint64"
      },
      {
        "astId": 29215,
        "contract": "contracts/messagelib/contracts/Executor.sol:Executor",
        "label": "defaultMultiplierBps",
        "offset": 28,
        "slot": "201",
        "type": "t_uint16"
      },
      {
        "astId": 29217,
        "contract": "contracts/messagelib/contracts/Executor.sol:Executor",
        "label": "priceFeed",
        "offset": 0,
        "slot": "202",
        "type": "t_address"
      },
      {
        "astId": 29222,
        "contract": "contracts/messagelib/contracts/Executor.sol:Executor",
        "label": "supportedOptionTypes",
        "offset": 0,
        "slot": "203",
        "type": "t_mapping(t_uint32,t_array(t_uint8)dyn_storage)"
      },
      {
        "astId": 29627,
        "contract": "contracts/messagelib/contracts/Executor.sol:Executor",
        "label": "__gap",
        "offset": 0,
        "slot": "204",
        "type": "t_array(t_uint256)47_storage"
      },
      {
        "astId": 5819,
        "contract": "contracts/messagelib/contracts/Executor.sol:Executor",
        "label": "_status",
        "offset": 0,
        "slot": "251",
        "type": "t_uint256"
      },
      {
        "astId": 5888,
        "contract": "contracts/messagelib/contracts/Executor.sol:Executor",
        "label": "__gap",
        "offset": 0,
        "slot": "252",
        "type": "t_array(t_uint256)49_storage"
      },
      {
        "astId": 12784,
        "contract": "contracts/messagelib/contracts/Executor.sol:Executor",
        "label": "dstConfig",
        "offset": 0,
        "slot": "301",
        "type": "t_mapping(t_uint32,t_struct(DstConfig)18242_storage)"
      },
      {
        "astId": 12786,
        "contract": "contracts/messagelib/contracts/Executor.sol:Executor",
        "label": "endpoint",
        "offset": 0,
        "slot": "302",
        "type": "t_address"
      },
      {
        "astId": 12788,
        "contract": "contracts/messagelib/contracts/Executor.sol:Executor",
        "label": "localEid",
        "offset": 20,
        "slot": "302",
        "type": "t_uint32"
      },
      {
        "astId": 12790,
        "contract": "contracts/messagelib/contracts/Executor.sol:Executor",
        "label": "receiveUln301",
        "offset": 0,
        "slot": "303",
        "type": "t_address"
      }
    ],
    "types": {
      "t_address": {
        "encoding": "inplace",
        "label": "address",
        "numberOfBytes": "20"
      },
      "t_array(t_uint256)47_storage": {
        "base": "t_uint256",
        "encoding": "inplace",
        "label": "uint256[47]",
        "numberOfBytes": "1504"
      },
      "t_array(t_uint256)49_storage": {
        "base": "t_uint256",
        "encoding": "inplace",
        "label": "uint256[49]",
        "numberOfBytes": "1568"
      },
      "t_array(t_uint256)50_storage": {
        "base": "t_uint256",
        "encoding": "inplace",
        "label": "uint256[50]",
        "numberOfBytes": "1600"
      },
      "t_array(t_uint8)dyn_storage": {
        "base": "t_uint8",
        "encoding": "dynamic_array",
        "label": "uint8[]",
        "numberOfBytes": "32"
      },
      "t_bool": {
        "encoding": "inplace",
        "label": "bool",
        "numberOfBytes": "1"
      },
      "t_bytes32": {
        "encoding": "inplace",
        "label": "bytes32",
        "numberOfBytes": "32"
      },
      "t_mapping(t_address,t_bool)": {
        "encoding": "mapping",
        "key": "t_address",
        "label": "mapping(address => bool)",
        "numberOfBytes": "32",
        "value": "t_bool"
      },
      "t_mapping(t_bytes32,t_struct(RoleData)4988_storage)": {
        "encoding": "mapping",
        "key": "t_bytes32",
        "label": "mapping(bytes32 => struct AccessControlUpgradeable.RoleData)",
        "numberOfBytes": "32",
        "value": "t_struct(RoleData)4988_storage"
      },
      "t_mapping(t_uint32,t_array(t_uint8)dyn_storage)": {
        "encoding": "mapping",
        "key": "t_uint32",
        "label": "mapping(uint32 => uint8[])",
        "numberOfBytes": "32",
        "value": "t_array(t_uint8)dyn_storage"
      },
      "t_mapping(t_uint32,t_struct(DstConfig)18242_storage)": {
        "encoding": "mapping",
        "key": "t_uint32",
        "label": "mapping(uint32 => struct IExecutor.DstConfig)",
        "numberOfBytes": "32",
        "value": "t_struct(DstConfig)18242_storage"
      },
      "t_struct(DstConfig)18242_storage": {
        "encoding": "inplace",
        "label": "struct IExecutor.DstConfig",
        "members": [
          {
            "astId": 18233,
            "contract": "contracts/messagelib/contracts/Executor.sol:Executor",
            "label": "lzReceiveBaseGas",
            "offset": 0,
            "slot": "0",
            "type": "t_uint64"
          },
          {
            "astId": 18235,
            "contract": "contracts/messagelib/contracts/Executor.sol:Executor",
            "label": "multiplierBps",
            "offset": 8,
            "slot": "0",
            "type": "t_uint16"
          },
          {
            "astId": 18237,
            "contract": "contracts/messagelib/contracts/Executor.sol:Executor",
            "label": "floorMarginUSD",
            "offset": 10,
            "slot": "0",
            "type": "t_uint128"
          },
          {
            "astId": 18239,
            "contract": "contracts/messagelib/contracts/Executor.sol:Executor",
            "label": "nativeCap",
            "offset": 0,
            "slot": "1",
            "type": "t_uint128"
          },
          {
            "astId": 18241,
            "contract": "contracts/messagelib/contracts/Executor.sol:Executor",
            "label": "lzComposeBaseGas",
            "offset": 16,
            "slot": "1",
            "type": "t_uint64"
          }
        ],
        "numberOfBytes": "64"
      },
      "t_struct(RoleData)4988_storage": {
        "encoding": "inplace",
        "label": "struct AccessControlUpgradeable.RoleData",
        "members": [
          {
            "astId": 4985,
            "contract": "contracts/messagelib/contracts/Executor.sol:Executor",
            "label": "members",
            "offset": 0,
            "slot": "0",
            "type": "t_mapping(t_address,t_bool)"
          },
          {
            "astId": 4987,
            "contract": "contracts/messagelib/contracts/Executor.sol:Executor",
            "label": "adminRole",
            "offset": 0,
            "slot": "1",
            "type": "t_bytes32"
          }
        ],
        "numberOfBytes": "64"
      },
      "t_uint128": {
        "encoding": "inplace",
        "label": "uint128",
        "numberOfBytes": "16"
      },
      "t_uint16": {
        "encoding": "inplace",
        "label": "uint16",
        "numberOfBytes": "2"
      },
      "t_uint256": {
        "encoding": "inplace",
        "label": "uint256",
        "numberOfBytes": "32"
      },
      "t_uint32": {
        "encoding": "inplace",
        "label": "uint32",
        "numberOfBytes": "4"
      },
      "t_uint64": {
        "encoding": "inplace",
        "label": "uint64",
        "numberOfBytes": "8"
      },
      "t_uint8": {
        "encoding": "inplace",
        "label": "uint8",
        "numberOfBytes": "1"
      }
    }
  }
}