{
  "address": "0xfC5a743271672E91D77F0176e5CEa581Fbd5D834",
  "abi": [
    {
      "inputs": [],
      "name": "LzExecutor_Executed",
      "type": "error"
    },
    {
      "inputs": [],
      "name": "LzExecutor_ReceiveLibViewNotSet",
      "type": "error"
    },
    {
      "inputs": [],
      "name": "LzExecutor_Verifying",
      "type": "error"
    },
    {
      "inputs": [
        {
          "internalType": "address",
          "name": "_to",
          "type": "address"
        },
        {
          "internalType": "uint256",
          "name": "_value",
          "type": "uint256"
        }
      ],
      "name": "Transfer_NativeFailed",
      "type": "error"
    },
    {
      "inputs": [],
      "name": "Transfer_ToAddressIsZero",
      "type": "error"
    },
    {
      "anonymous": false,
      "inputs": [
        {
          "indexed": false,
          "internalType": "uint8",
          "name": "version",
          "type": "uint8"
        }
      ],
      "name": "Initialized",
      "type": "event"
    },
    {
      "anonymous": false,
      "inputs": [
        {
          "indexed": false,
          "internalType": "address",
          "name": "_to",
          "type": "address"
        },
        {
          "indexed": false,
          "internalType": "uint256",
          "name": "_amount",
          "type": "uint256"
        }
      ],
      "name": "NativeWithdrawn",
      "type": "event"
    },
    {
      "anonymous": false,
      "inputs": [
        {
          "indexed": true,
          "internalType": "address",
          "name": "previousOwner",
          "type": "address"
        },
        {
          "indexed": true,
          "internalType": "address",
          "name": "newOwner",
          "type": "address"
        }
      ],
      "name": "OwnershipTransferred",
      "type": "event"
    },
    {
      "anonymous": false,
      "inputs": [
        {
          "indexed": false,
          "internalType": "address",
          "name": "_receiveLib",
          "type": "address"
        },
        {
          "indexed": false,
          "internalType": "address",
          "name": "_receiveLibView",
          "type": "address"
        }
      ],
      "name": "ReceiveLibViewSet",
      "type": "event"
    },
    {
      "inputs": [],
      "name": "EMPTY_PAYLOAD_HASH",
      "outputs": [
        {
          "internalType": "bytes32",
          "name": "",
          "type": "bytes32"
        }
      ],
      "stateMutability": "view",
      "type": "function"
    },
    {
      "inputs": [],
      "name": "NIL_PAYLOAD_HASH",
      "outputs": [
        {
          "internalType": "bytes32",
          "name": "",
          "type": "bytes32"
        }
      ],
      "stateMutability": "view",
      "type": "function"
    },
    {
      "inputs": [
        {
          "internalType": "address",
          "name": "_receiveLib",
          "type": "address"
        },
        {
          "components": [
            {
              "components": [
                {
                  "internalType": "uint32",
                  "name": "srcEid",
                  "type": "uint32"
                },
                {
                  "internalType": "bytes32",
                  "name": "sender",
                  "type": "bytes32"
                },
                {
                  "internalType": "uint64",
                  "name": "nonce",
                  "type": "uint64"
                }
              ],
              "internalType": "struct Origin",
              "name": "origin",
              "type": "tuple"
            },
            {
              "internalType": "address",
              "name": "receiver",
              "type": "address"
            },
            {
              "internalType": "bytes32",
              "name": "guid",
              "type": "bytes32"
            },
            {
              "internalType": "bytes",
              "name": "message",
              "type": "bytes"
            },
            {
              "internalType": "bytes",
              "name": "extraData",
              "type": "bytes"
            },
            {
              "internalType": "uint256",
              "name": "gas",
              "type": "uint256"
            },
            {
              "internalType": "uint256",
              "name": "value",
              "type": "uint256"
            }
          ],
          "internalType": "struct LzReceiveParam",
          "name": "_lzReceiveParam",
          "type": "tuple"
        },
        {
          "components": [
            {
              "internalType": "address",
              "name": "_receiver",
              "type": "address"
            },
            {
              "internalType": "uint256",
              "name": "_amount",
              "type": "uint256"
            }
          ],
          "internalType": "struct NativeDropParam[]",
          "name": "_nativeDropParams",
          "type": "tuple[]"
        }
      ],
      "name": "commitAndExecute",
      "outputs": [],
      "stateMutability": "payable",
      "type": "function"
    },
    {
      "inputs": [],
      "name": "endpoint",
      "outputs": [
        {
          "internalType": "contract ILayerZeroEndpointV2",
          "name": "",
          "type": "address"
        }
      ],
      "stateMutability": "view",
      "type": "function"
    },
    {
      "inputs": [
        {
          "components": [
            {
              "internalType": "uint32",
              "name": "srcEid",
              "type": "uint32"
            },
            {
              "internalType": "bytes32",
              "name": "sender",
              "type": "bytes32"
            },
            {
              "internalType": "uint64",
              "name": "nonce",
              "type": "uint64"
            }
          ],
          "internalType": "struct Origin",
          "name": "_origin",
          "type": "tuple"
        },
        {
          "internalType": "address",
          "name": "_receiver",
          "type": "address"
        }
      ],
      "name": "executable",
      "outputs": [
        {
          "internalType": "enum ExecutionState",
          "name": "",
          "type": "uint8"
        }
      ],
      "stateMutability": "view",
      "type": "function"
    },
    {
      "inputs": [
        {
          "components": [
            {
              "internalType": "uint32",
              "name": "srcEid",
              "type": "uint32"
            },
            {
              "internalType": "bytes32",
              "name": "sender",
              "type": "bytes32"
            },
            {
              "internalType": "uint64",
              "name": "nonce",
              "type": "uint64"
            }
          ],
          "internalType": "struct Origin",
          "name": "_origin",
          "type": "tuple"
        },
        {
          "internalType": "address",
          "name": "_receiver",
          "type": "address"
        }
      ],
      "name": "initializable",
      "outputs": [
        {
          "internalType": "bool",
          "name": "",
          "type": "bool"
        }
      ],
      "stateMutability": "view",
      "type": "function"
    },
    {
      "inputs": [
        {
          "internalType": "address",
          "name": "_receiveUln302",
          "type": "address"
        },
        {
          "internalType": "address",
          "name": "_receiveUln302View",
          "type": "address"
        },
        {
          "internalType": "address",
          "name": "_endpoint",
          "type": "address"
        }
      ],
      "name": "initialize",
      "outputs": [],
      "stateMutability": "nonpayable",
      "type": "function"
    },
    {
      "inputs": [],
      "name": "localEid",
      "outputs": [
        {
          "internalType": "uint32",
          "name": "",
          "type": "uint32"
        }
      ],
      "stateMutability": "view",
      "type": "function"
    },
    {
      "inputs": [],
      "name": "owner",
      "outputs": [
        {
          "internalType": "address",
          "name": "",
          "type": "address"
        }
      ],
      "stateMutability": "view",
      "type": "function"
    },
    {
      "inputs": [
        {
          "internalType": "address",
          "name": "receiveLib",
          "type": "address"
        }
      ],
      "name": "receiveLibToView",
      "outputs": [
        {
          "internalType": "address",
          "name": "receiveLibView",
          "type": "address"
        }
      ],
      "stateMutability": "view",
      "type": "function"
    },
    {
      "inputs": [],
      "name": "receiveUln302",
      "outputs": [
        {
          "internalType": "address",
          "name": "",
          "type": "address"
        }
      ],
      "stateMutability": "view",
      "type": "function"
    },
    {
      "inputs": [],
      "name": "renounceOwnership",
      "outputs": [],
      "stateMutability": "nonpayable",
      "type": "function"
    },
    {
      "inputs": [
        {
          "internalType": "address",
          "name": "_receiveLib",
          "type": "address"
        },
        {
          "internalType": "address",
          "name": "_receiveLibView",
          "type": "address"
        }
      ],
      "name": "setReceiveLibView",
      "outputs": [],
      "stateMutability": "nonpayable",
      "type": "function"
    },
    {
      "inputs": [
        {
          "internalType": "address",
          "name": "newOwner",
          "type": "address"
        }
      ],
      "name": "transferOwnership",
      "outputs": [],
      "stateMutability": "nonpayable",
      "type": "function"
    },
    {
      "inputs": [
        {
          "components": [
            {
              "internalType": "uint32",
              "name": "srcEid",
              "type": "uint32"
            },
            {
              "internalType": "bytes32",
              "name": "sender",
              "type": "bytes32"
            },
            {
              "internalType": "uint64",
              "name": "nonce",
              "type": "uint64"
            }
          ],
          "internalType": "struct Origin",
          "name": "_origin",
          "type": "tuple"
        },
        {
          "internalType": "address",
          "name": "_receiver",
          "type": "address"
        },
        {
          "internalType": "address",
          "name": "_receiveLib",
          "type": "address"
        },
        {
          "internalType": "bytes32",
          "name": "_payloadHash",
          "type": "bytes32"
        }
      ],
      "name": "verifiable",
      "outputs": [
        {
          "internalType": "bool",
          "name": "",
          "type": "bool"
        }
      ],
      "stateMutability": "view",
      "type": "function"
    },
    {
      "inputs": [
        {
          "internalType": "address",
          "name": "_to",
          "type": "address"
        },
        {
          "internalType": "uint256",
          "name": "_amount",
          "type": "uint256"
        }
      ],
      "name": "withdrawNative",
      "outputs": [],
      "stateMutability": "nonpayable",
      "type": "function"
    }
  ],
  "transactionHash": "0xfe41a60c83fd4660333d37b740818df2c47c888af5ef917b291c2ab9aff2ccf9",
  "args": [],
  "numDeployments": 1,
  "solcInputHash": "df45c5d73ee7212b45689d2cdbb787f2",
  "bytecode": "0x608060405234801561001057600080fd5b50611744806100206000396000f3fe6080604052600436106100f35760003560e01c8063861e1ca51161008a578063d73d37c611610059578063d73d37c6146102cf578063dcfdeb60146102ef578063e1e3a7df14610302578063f2fde38b1461032257600080fd5b8063861e1ca51461024c5780638da5cb5b1461027c578063c0c53b8b1461029a578063cb5026b9146102ba57600080fd5b80636f178835116100c65780636f178835146101a8578063715018a6146101de57806372607537146101f3578063843c7b0e1461022c57600080fd5b806307b18bde146100f85780632baf0be71461011a5780634b4b2efb146101435780635e280f1114610170575b600080fd5b34801561010457600080fd5b5061011861011336600461114b565b610342565b005b34801561012657600080fd5b5061013060001981565b6040519081526020015b60405180910390f35b34801561014f57600080fd5b5061016361015e366004611218565b61039b565b60405161013a9190611262565b34801561017c57600080fd5b50606554610190906001600160a01b031681565b6040516001600160a01b03909116815260200161013a565b3480156101b457600080fd5b506101906101c336600461128a565b6098602052600090815260409020546001600160a01b031681565b3480156101ea57600080fd5b506101186105e8565b3480156101ff57600080fd5b5060975461021790600160a01b900463ffffffff1681565b60405163ffffffff909116815260200161013a565b34801561023857600080fd5b50609754610190906001600160a01b031681565b34801561025857600080fd5b5061026c610267366004611218565b6105fc565b604051901515815260200161013a565b34801561028857600080fd5b506033546001600160a01b0316610190565b3480156102a657600080fd5b506101186102b53660046112ac565b61067b565b3480156102c657600080fd5b50610130600081565b3480156102db57600080fd5b506101186102ea3660046112ef565b6108f6565b6101186102fd366004611319565b610962565b34801561030e57600080fd5b5061026c61031d3660046113c7565b610d53565b34801561032e57600080fd5b5061011861033d36600461128a565b610e80565b61034a610ef9565b6103548282610f53565b604080516001600160a01b0384168152602081018390527fc303ca808382409472acbbf899c316cf439f409f6584aae22df86dfa3c9ed50491015b60405180910390a15050565b60655482516020840151604080860151905163c9fc7bcd60e01b81526001600160a01b03868116600483015263ffffffff9094166024820152604481019290925267ffffffffffffffff1660648201526000928392169063c9fc7bcd90608401602060405180830381865afa158015610418573d6000803e3d6000fd5b505050506040513d601f19601f8201168201806040525081019061043c9190611413565b9050801580156104ec5750606554845160208601516040516305b17bb760e41b81526001600160a01b03878116600483015263ffffffff90931660248201526044810191909152911690635b17bb7090606401602060405180830381865afa1580156104ac573d6000803e3d6000fd5b505050506040513d601f19601f820116820180604052508101906104d0919061142c565b67ffffffffffffffff16846040015167ffffffffffffffff1611155b156104fb5760039150506105e2565b60001981148015906105ad57506065548451602086015160405163283750ff60e21b81526001600160a01b03878116600483015263ffffffff9093166024820152604481019190915291169063a0dd43fc90606401602060405180830381865afa15801561056d573d6000803e3d6000fd5b505050506040513d601f19601f82011682018060405250810190610591919061142c565b67ffffffffffffffff16846040015167ffffffffffffffff1611155b156105bc5760029150506105e2565b80158015906105cd57506000198114155b156105dc5760019150506105e2565b60009150505b92915050565b6105f0610ef9565b6105fa6000611005565b565b60655460405163861e1ca560e01b81526000916001600160a01b03169063861e1ca59061062f9086908690600401611449565b602060405180830381865afa925050508015610668575060408051601f3d908101601f1916820190925261066591810190611488565b60015b610674575060006105e2565b90506105e2565b60006106a57fb53127684a568b3173ae13b9f8a6016e243e63b6e8ee1178d6a717850b5d61035490565b90506001600160a01b0381166106e4576001600160a01b037fb53127684a568b3173ae13b9f8a6016e243e63b6e8ee1178d6a717850b5d6103556106f9565b336001600160a01b038216146106f957600080fd5b600054610100900460ff16158080156107195750600054600160ff909116105b806107335750303b158015610733575060005460ff166001145b61079b5760405162461bcd60e51b815260206004820152602e60248201527f496e697469616c697a61626c653a20636f6e747261637420697320616c72656160448201526d191e481a5b9a5d1a585b1a5e995960921b60648201526084015b60405180910390fd5b6000805460ff1916600117905580156107be576000805461ff0019166101001790555b6107c6611057565b6107cf83611086565b609780546001600160a01b0319166001600160a01b03878116919091179091556065546040805163416ecebf60e01b81529051919092169163416ecebf9160048083019260209291908290030181865afa158015610831573d6000803e3d6000fd5b505050506040513d601f19601f8201168201806040525081019061085591906114aa565b6097805463ffffffff60a01b1916600160a01b63ffffffff93909316929092029190911790556001600160a01b03858116600090815260986020526040902080546001600160a01b03191691861691909117905580156108ef576000805461ff0019169055604051600181527f7f26b83ff96e1f2b6a682f133852f6798a09c465da95921460cefb38474024989060200160405180910390a15b5050505050565b6108fe610ef9565b6001600160a01b0382811660008181526098602090815260409182902080546001600160a01b031916948616948517905581519283528201929092527f142c46535a86ac791981f3f16bdfd58291f3f03fc3fd111646f3f0e4eb326b63910161038f565b6000610986610976368690038601866114c7565b61015e608087016060880161128a565b9050600381600381111561099c5761099c61124c565b036109ba57604051631fe9c3ef60e11b815260040160405180910390fd5b60028160038111156109ce576109ce61124c565b14610c5e576097546000906001600160a01b0316156109f8576097546001600160a01b03166109fa565b855b905060006001610a1060608801604089016114e3565b610a1d6020890189611500565b60975460208a013590600160a01b900463ffffffff16610a4360808c0160608d0161128a565b60405160f89690961b6001600160f81b031916602087015260c09490941b6001600160c01b031916602186015260e092831b6001600160e01b03199081166029870152602d86019290925290911b16604d8301526001600160a01b0316605182015260710160408051601f19818403018152919052905060006080870135610ace60a089018961151d565b604051602001610ae09392919061156b565b60408051601f1981840301815291815281516020928301206001600160a01b038087166000908152609890945291909220549192501680610b34576040516303776d1560e31b815260040160405180910390fd5b6040516327d12cd960e01b81526000906001600160a01b038316906327d12cd990610b659087908790600401611585565b602060405180830381865afa158015610b82573d6000803e3d6000fd5b505050506040513d601f19601f82011682018060405250810190610ba691906115da565b90506001816003811115610bbc57610bbc61124c565b03610c2657604051630894edf160e01b81526001600160a01b03861690630894edf190610bef9087908790600401611585565b600060405180830381600087803b158015610c0957600080fd5b505af1158015610c1d573d6000803e3d6000fd5b50505050610c58565b6000816003811115610c3a57610c3a61124c565b03610c58576040516306f5423360e11b815260040160405180910390fd5b50505050505b60005b82811015610caa5736848483818110610c7c57610c7c6115fb565b604002919091019150610ca19050610c97602083018361128a565b8260200135610f53565b50600101610c61565b506065546001600160a01b0316630c0c389e60e086013561010087013587610cd8608082016060830161128a565b60808a0135610cea60a08c018c61151d565b610cf760c08e018e61151d565b6040518a63ffffffff1660e01b8152600401610d19979695949392919061163a565b6000604051808303818589803b158015610d3257600080fd5b5088f1158015610d46573d6000803e3d6000fd5b5050505050505050505050565b6065548451604051639d7f977560e01b81526001600160a01b03868116600483015263ffffffff909216602482015284821660448201526000929190911690639d7f977590606401602060405180830381865afa158015610db8573d6000803e3d6000fd5b505050506040513d601f19601f82011682018060405250810190610ddc9190611488565b610de857506000610e78565b60655460405163c9a54a9960e01b81526001600160a01b039091169063c9a54a9990610e1a9088908890600401611449565b602060405180830381865afa158015610e37573d6000803e3d6000fd5b505050506040513d601f19601f82011682018060405250810190610e5b9190611488565b610e6757506000610e78565b81610e7457506000610e78565b5060015b949350505050565b610e88610ef9565b6001600160a01b038116610eed5760405162461bcd60e51b815260206004820152602660248201527f4f776e61626c653a206e6577206f776e657220697320746865207a65726f206160448201526564647265737360d01b6064820152608401610792565b610ef681611005565b50565b6033546001600160a01b031633146105fa5760405162461bcd60e51b815260206004820181905260248201527f4f776e61626c653a2063616c6c6572206973206e6f7420746865206f776e65726044820152606401610792565b6001600160a01b038216610f7a576040516306b7a93160e41b815260040160405180910390fd5b6000826001600160a01b03168260405160006040518083038185875af1925050503d8060008114610fc7576040519150601f19603f3d011682016040523d82523d6000602084013e610fcc565b606091505b505090508061100057604051631196f20d60e21b81526001600160a01b038416600482015260248101839052604401610792565b505050565b603380546001600160a01b038381166001600160a01b0319831681179093556040519116919082907f8be0079c531659141344cd1fd0a4f28419497f9722a3daafe3b4186f6b6457e090600090a35050565b600054610100900460ff1661107e5760405162461bcd60e51b8152600401610792906116c3565b6105fa6110b6565b600054610100900460ff166110ad5760405162461bcd60e51b8152600401610792906116c3565b610ef6816110e6565b600054610100900460ff166110dd5760405162461bcd60e51b8152600401610792906116c3565b6105fa33611005565b600054610100900460ff1661110d5760405162461bcd60e51b8152600401610792906116c3565b606580546001600160a01b0319166001600160a01b0392909216919091179055565b80356001600160a01b038116811461114657600080fd5b919050565b6000806040838503121561115e57600080fd5b6111678361112f565b946020939093013593505050565b63ffffffff81168114610ef657600080fd5b67ffffffffffffffff81168114610ef657600080fd5b6000606082840312156111af57600080fd5b6040516060810181811067ffffffffffffffff821117156111e057634e487b7160e01b600052604160045260246000fd5b60405290508082356111f181611175565b815260208381013590820152604083013561120b81611187565b6040919091015292915050565b6000806080838503121561122b57600080fd5b611235848461119d565b91506112436060840161112f565b90509250929050565b634e487b7160e01b600052602160045260246000fd5b602081016004831061128457634e487b7160e01b600052602160045260246000fd5b91905290565b60006020828403121561129c57600080fd5b6112a58261112f565b9392505050565b6000806000606084860312156112c157600080fd5b6112ca8461112f565b92506112d86020850161112f565b91506112e66040850161112f565b90509250925092565b6000806040838503121561130257600080fd5b61130b8361112f565b91506112436020840161112f565b6000806000806060858703121561132f57600080fd5b6113388561112f565b9350602085013567ffffffffffffffff8082111561135557600080fd5b90860190610120828903121561136a57600080fd5b9093506040860135908082111561138057600080fd5b818701915087601f83011261139457600080fd5b8135818111156113a357600080fd5b8860208260061b85010111156113b857600080fd5b95989497505060200194505050565b60008060008060c085870312156113dd57600080fd5b6113e7868661119d565b93506113f56060860161112f565b92506114036080860161112f565b9396929550929360a00135925050565b60006020828403121561142557600080fd5b5051919050565b60006020828403121561143e57600080fd5b81516112a581611187565b825163ffffffff1681526020808401519082015260409283015167ffffffffffffffff16928101929092526001600160a01b0316606082015260800190565b60006020828403121561149a57600080fd5b815180151581146112a557600080fd5b6000602082840312156114bc57600080fd5b81516112a581611175565b6000606082840312156114d957600080fd5b6112a5838361119d565b6000602082840312156114f557600080fd5b81356112a581611187565b60006020828403121561151257600080fd5b81356112a581611175565b6000808335601e1984360301811261153457600080fd5b83018035915067ffffffffffffffff82111561154f57600080fd5b60200191503681900382131561156457600080fd5b9250929050565b838152818360208301376000910160200190815292915050565b604081526000835180604084015260005b818110156115b35760208187018101516060868401015201611596565b506000606082850101526060601f19601f8301168401019150508260208301529392505050565b6000602082840312156115ec57600080fd5b8151600481106112a557600080fd5b634e487b7160e01b600052603260045260246000fd5b81835281816020850137506000828201602090810191909152601f909101601f19169091010190565b6000883561164781611175565b63ffffffff16825260208981013590830152604089013561166781611187565b67ffffffffffffffff1660408301526001600160a01b03881660608301526080820187905260e060a083018190526116a29083018688611611565b82810360c08401526116b5818587611611565b9a9950505050505050505050565b6020808252602b908201527f496e697469616c697a61626c653a20636f6e7472616374206973206e6f74206960408201526a6e697469616c697a696e6760a81b60608201526080019056fea264697066735822122044d47c58b2771ce9d9b5749459a0682d5bde7b807635207218ca058ba389980064736f6c63430008160033",
  "devdoc": {
    "events": {
      "Initialized(uint8)": {
        "details": "Triggered when the contract has been initialized or reinitialized."
      }
    },
    "kind": "dev",
    "methods": {
      "executable((uint32,bytes32,uint64),address)": {
        "details": "check if a message is executable.",
        "returns": {
          "_0": "ExecutionState of Executed, Executable, or NotExecutable"
        }
      },
      "owner()": {
        "details": "Returns the address of the current owner."
      },
      "renounceOwnership()": {
        "details": "Leaves the contract without owner. It will not be possible to call `onlyOwner` functions. Can only be called by the current owner. NOTE: Renouncing ownership will leave the contract without an owner, thereby disabling any functionality that is only available to the owner."
      },
      "transferOwnership(address)": {
        "details": "Transfers ownership of the contract to a new account (`newOwner`). Can only be called by the current owner."
      },
      "verifiable((uint32,bytes32,uint64),address,address,bytes32)": {
        "details": "check if a message is verifiable."
      }
    },
    "version": 1
  },
  "userdoc": {
    "kind": "user",
    "methods": {
      "commitAndExecute(address,((uint32,bytes32,uint64),address,bytes32,bytes,bytes,uint256,uint256),(address,uint256)[])": {
        "notice": "process for commit and execute 1. check if executable, revert if executed, execute if executable 2. check if verifiable, revert if verifying, commit if verifiable 3. native drop 4. try execute, will revert if not executable"
      }
    },
    "version": 1
  },
  "storageLayout": {
    "storage": [
      {
        "astId": 5514,
        "contract": "contracts/messagelib/contracts/uln/LzExecutor.sol:LzExecutor",
        "label": "_initialized",
        "offset": 0,
        "slot": "0",
        "type": "t_uint8"
      },
      {
        "astId": 5517,
        "contract": "contracts/messagelib/contracts/uln/LzExecutor.sol:LzExecutor",
        "label": "_initializing",
        "offset": 1,
        "slot": "0",
        "type": "t_bool"
      },
      {
        "astId": 6269,
        "contract": "contracts/messagelib/contracts/uln/LzExecutor.sol:LzExecutor",
        "label": "__gap",
        "offset": 0,
        "slot": "1",
        "type": "t_array(t_uint256)50_storage"
      },
      {
        "astId": 5386,
        "contract": "contracts/messagelib/contracts/uln/LzExecutor.sol:LzExecutor",
        "label": "_owner",
        "offset": 0,
        "slot": "51",
        "type": "t_address"
      },
      {
        "astId": 5506,
        "contract": "contracts/messagelib/contracts/uln/LzExecutor.sol:LzExecutor",
        "label": "__gap",
        "offset": 0,
        "slot": "52",
        "type": "t_array(t_uint256)49_storage"
      },
      {
        "astId": 2340,
        "contract": "contracts/messagelib/contracts/uln/LzExecutor.sol:LzExecutor",
        "label": "endpoint",
        "offset": 0,
        "slot": "101",
        "type": "t_contract(ILayerZeroEndpointV2)2728"
      },
      {
        "astId": 2524,
        "contract": "contracts/messagelib/contracts/uln/LzExecutor.sol:LzExecutor",
        "label": "__gap",
        "offset": 0,
        "slot": "102",
        "type": "t_array(t_uint256)49_storage"
      },
      {
        "astId": 19116,
        "contract": "contracts/messagelib/contracts/uln/LzExecutor.sol:LzExecutor",
        "label": "receiveUln302",
        "offset": 0,
        "slot": "151",
        "type": "t_address"
      },
      {
        "astId": 19118,
        "contract": "contracts/messagelib/contracts/uln/LzExecutor.sol:LzExecutor",
        "label": "localEid",
        "offset": 20,
        "slot": "151",
        "type": "t_uint32"
      },
      {
        "astId": 19122,
        "contract": "contracts/messagelib/contracts/uln/LzExecutor.sol:LzExecutor",
        "label": "receiveLibToView",
        "offset": 0,
        "slot": "152",
        "type": "t_mapping(t_address,t_address)"
      }
    ],
    "types": {
      "t_address": {
        "encoding": "inplace",
        "label": "address",
        "numberOfBytes": "20"
      },
      "t_array(t_uint256)49_storage": {
        "base": "t_uint256",
        "encoding": "inplace",
        "label": "uint256[49]",
        "numberOfBytes": "1568"
      },
      "t_array(t_uint256)50_storage": {
        "base": "t_uint256",
        "encoding": "inplace",
        "label": "uint256[50]",
        "numberOfBytes": "1600"
      },
      "t_bool": {
        "encoding": "inplace",
        "label": "bool",
        "numberOfBytes": "1"
      },
      "t_contract(ILayerZeroEndpointV2)2728": {
        "encoding": "inplace",
        "label": "contract ILayerZeroEndpointV2",
        "numberOfBytes": "20"
      },
      "t_mapping(t_address,t_address)": {
        "encoding": "mapping",
        "key": "t_address",
        "label": "mapping(address => address)",
        "numberOfBytes": "32",
        "value": "t_address"
      },
      "t_uint256": {
        "encoding": "inplace",
        "label": "uint256",
        "numberOfBytes": "32"
      },
      "t_uint32": {
        "encoding": "inplace",
        "label": "uint32",
        "numberOfBytes": "4"
      },
      "t_uint8": {
        "encoding": "inplace",
        "label": "uint8",
        "numberOfBytes": "1"
      }
    }
  }
}