{
  "address": "0x8c3a776d3a0f836ce08CfD9cb3959f0f9b4289E9",
  "abi": [
    {
      "inputs": [
        {
          "internalType": "uint256",
          "name": "provided",
          "type": "uint256"
        },
        {
          "internalType": "uint256",
          "name": "required",
          "type": "uint256"
        }
      ],
      "name": "LZ_PriceFeed_InsufficientFee",
      "type": "error"
    },
    {
      "inputs": [
        {
          "internalType": "uint32",
          "name": "l2Eid",
          "type": "uint32"
        }
      ],
      "name": "LZ_PriceFeed_NotAnOPStack",
      "type": "error"
    },
    {
      "inputs": [],
      "name": "LZ_PriceFeed_OnlyPriceUpdater",
      "type": "error"
    },
    {
      "inputs": [
        {
          "internalType": "address",
          "name": "_to",
          "type": "address"
        },
        {
          "internalType": "uint256",
          "name": "_value",
          "type": "uint256"
        }
      ],
      "name": "Transfer_NativeFailed",
      "type": "error"
    },
    {
      "inputs": [],
      "name": "Transfer_ToAddressIsZero",
      "type": "error"
    },
    {
      "anonymous": false,
      "inputs": [
        {
          "indexed": false,
          "internalType": "uint8",
          "name": "version",
          "type": "uint8"
        }
      ],
      "name": "Initialized",
      "type": "event"
    },
    {
      "anonymous": false,
      "inputs": [
        {
          "indexed": true,
          "internalType": "address",
          "name": "previousOwner",
          "type": "address"
        },
        {
          "indexed": true,
          "internalType": "address",
          "name": "newOwner",
          "type": "address"
        }
      ],
      "name": "OwnershipTransferred",
      "type": "event"
    },
    {
      "inputs": [],
      "name": "ARBITRUM_COMPRESSION_PERCENT",
      "outputs": [
        {
          "internalType": "uint128",
          "name": "",
          "type": "uint128"
        }
      ],
      "stateMutability": "view",
      "type": "function"
    },
    {
      "inputs": [],
      "name": "arbitrumPriceExt",
      "outputs": [
        {
          "components": [
            {
              "internalType": "uint64",
              "name": "gasPerL2Tx",
              "type": "uint64"
            },
            {
              "internalType": "uint32",
              "name": "gasPerL1CallDataByte",
              "type": "uint32"
            }
          ],
          "internalType": "struct ILayerZeroPriceFeed.ArbitrumPriceExt",
          "name": "",
          "type": "tuple"
        }
      ],
      "stateMutability": "view",
      "type": "function"
    },
    {
      "inputs": [
        {
          "internalType": "uint32",
          "name": "",
          "type": "uint32"
        }
      ],
      "name": "eidToModelType",
      "outputs": [
        {
          "internalType": "enum ModelType",
          "name": "",
          "type": "uint8"
        }
      ],
      "stateMutability": "view",
      "type": "function"
    },
    {
      "inputs": [],
      "name": "endpoint",
      "outputs": [
        {
          "internalType": "contract ILayerZeroEndpointV2",
          "name": "",
          "type": "address"
        }
      ],
      "stateMutability": "view",
      "type": "function"
    },
    {
      "inputs": [
        {
          "internalType": "uint16",
          "name": "_dstEid",
          "type": "uint16"
        },
        {
          "internalType": "uint256",
          "name": "_callDataSize",
          "type": "uint256"
        },
        {
          "internalType": "uint256",
          "name": "_gas",
          "type": "uint256"
        }
      ],
      "name": "estimateFeeByChain",
      "outputs": [
        {
          "internalType": "uint256",
          "name": "fee",
          "type": "uint256"
        },
        {
          "internalType": "uint128",
          "name": "priceRatio",
          "type": "uint128"
        }
      ],
      "stateMutability": "view",
      "type": "function"
    },
    {
      "inputs": [
        {
          "internalType": "uint32",
          "name": "_dstEid",
          "type": "uint32"
        },
        {
          "internalType": "uint256",
          "name": "_callDataSize",
          "type": "uint256"
        },
        {
          "internalType": "uint256",
          "name": "_gas",
          "type": "uint256"
        }
      ],
      "name": "estimateFeeByEid",
      "outputs": [
        {
          "internalType": "uint256",
          "name": "",
          "type": "uint256"
        },
        {
          "internalType": "uint128",
          "name": "",
          "type": "uint128"
        },
        {
          "internalType": "uint128",
          "name": "",
          "type": "uint128"
        },
        {
          "internalType": "uint128",
          "name": "",
          "type": "uint128"
        }
      ],
      "stateMutability": "view",
      "type": "function"
    },
    {
      "inputs": [
        {
          "internalType": "uint32",
          "name": "_dstEid",
          "type": "uint32"
        },
        {
          "internalType": "uint256",
          "name": "_callDataSize",
          "type": "uint256"
        },
        {
          "internalType": "uint256",
          "name": "_gas",
          "type": "uint256"
        }
      ],
      "name": "estimateFeeOnSend",
      "outputs": [
        {
          "internalType": "uint256",
          "name": "",
          "type": "uint256"
        },
        {
          "internalType": "uint128",
          "name": "",
          "type": "uint128"
        },
        {
          "internalType": "uint128",
          "name": "",
          "type": "uint128"
        },
        {
          "internalType": "uint128",
          "name": "",
          "type": "uint128"
        }
      ],
      "stateMutability": "payable",
      "type": "function"
    },
    {
      "inputs": [
        {
          "internalType": "uint32",
          "name": "",
          "type": "uint32"
        },
        {
          "internalType": "uint256",
          "name": "",
          "type": "uint256"
        },
        {
          "internalType": "uint256",
          "name": "",
          "type": "uint256"
        }
      ],
      "name": "getFee",
      "outputs": [
        {
          "internalType": "uint256",
          "name": "",
          "type": "uint256"
        }
      ],
      "stateMutability": "pure",
      "type": "function"
    },
    {
      "inputs": [
        {
          "internalType": "uint32",
          "name": "_dstEid",
          "type": "uint32"
        }
      ],
      "name": "getPrice",
      "outputs": [
        {
          "components": [
            {
              "internalType": "uint128",
              "name": "priceRatio",
              "type": "uint128"
            },
            {
              "internalType": "uint64",
              "name": "gasPriceInUnit",
              "type": "uint64"
            },
            {
              "internalType": "uint32",
              "name": "gasPerByte",
              "type": "uint32"
            }
          ],
          "internalType": "struct ILayerZeroPriceFeed.Price",
          "name": "price",
          "type": "tuple"
        }
      ],
      "stateMutability": "view",
      "type": "function"
    },
    {
      "inputs": [
        {
          "internalType": "uint16",
          "name": "_dstEid",
          "type": "uint16"
        }
      ],
      "name": "getPrice",
      "outputs": [
        {
          "components": [
            {
              "internalType": "uint128",
              "name": "priceRatio",
              "type": "uint128"
            },
            {
              "internalType": "uint64",
              "name": "gasPriceInUnit",
              "type": "uint64"
            },
            {
              "internalType": "uint32",
              "name": "gasPerByte",
              "type": "uint32"
            }
          ],
          "internalType": "struct ILayerZeroPriceFeed.Price",
          "name": "price",
          "type": "tuple"
        }
      ],
      "stateMutability": "view",
      "type": "function"
    },
    {
      "inputs": [],
      "name": "getPriceRatioDenominator",
      "outputs": [
        {
          "internalType": "uint128",
          "name": "",
          "type": "uint128"
        }
      ],
      "stateMutability": "view",
      "type": "function"
    },
    {
      "inputs": [
        {
          "internalType": "address",
          "name": "_priceUpdater",
          "type": "address"
        }
      ],
      "name": "initialize",
      "outputs": [],
      "stateMutability": "nonpayable",
      "type": "function"
    },
    {
      "inputs": [],
      "name": "nativeTokenPriceUSD",
      "outputs": [
        {
          "internalType": "uint128",
          "name": "",
          "type": "uint128"
        }
      ],
      "stateMutability": "view",
      "type": "function"
    },
    {
      "inputs": [],
      "name": "owner",
      "outputs": [
        {
          "internalType": "address",
          "name": "",
          "type": "address"
        }
      ],
      "stateMutability": "view",
      "type": "function"
    },
    {
      "inputs": [
        {
          "internalType": "address",
          "name": "updater",
          "type": "address"
        }
      ],
      "name": "priceUpdater",
      "outputs": [
        {
          "internalType": "bool",
          "name": "active",
          "type": "bool"
        }
      ],
      "stateMutability": "view",
      "type": "function"
    },
    {
      "inputs": [],
      "name": "renounceOwnership",
      "outputs": [],
      "stateMutability": "nonpayable",
      "type": "function"
    },
    {
      "inputs": [
        {
          "internalType": "uint128",
          "name": "_compressionPercent",
          "type": "uint128"
        }
      ],
      "name": "setArbitrumCompressionPercent",
      "outputs": [],
      "stateMutability": "nonpayable",
      "type": "function"
    },
    {
      "inputs": [
        {
          "components": [
            {
              "internalType": "uint32",
              "name": "dstEid",
              "type": "uint32"
            },
            {
              "internalType": "enum ModelType",
              "name": "modelType",
              "type": "uint8"
            }
          ],
          "internalType": "struct SetEidToModelTypeParam[]",
          "name": "_params",
          "type": "tuple[]"
        }
      ],
      "name": "setEidToModelType",
      "outputs": [],
      "stateMutability": "nonpayable",
      "type": "function"
    },
    {
      "inputs": [
        {
          "internalType": "address",
          "name": "_endpoint",
          "type": "address"
        }
      ],
      "name": "setEndpoint",
      "outputs": [],
      "stateMutability": "nonpayable",
      "type": "function"
    },
    {
      "inputs": [
        {
          "internalType": "uint128",
          "name": "_nativeTokenPriceUSD",
          "type": "uint128"
        }
      ],
      "name": "setNativeTokenPriceUSD",
      "outputs": [],
      "stateMutability": "nonpayable",
      "type": "function"
    },
    {
      "inputs": [
        {
          "components": [
            {
              "internalType": "uint32",
              "name": "eid",
              "type": "uint32"
            },
            {
              "components": [
                {
                  "internalType": "uint128",
                  "name": "priceRatio",
                  "type": "uint128"
                },
                {
                  "internalType": "uint64",
                  "name": "gasPriceInUnit",
                  "type": "uint64"
                },
                {
                  "internalType": "uint32",
                  "name": "gasPerByte",
                  "type": "uint32"
                }
              ],
              "internalType": "struct ILayerZeroPriceFeed.Price",
              "name": "price",
              "type": "tuple"
            }
          ],
          "internalType": "struct ILayerZeroPriceFeed.UpdatePrice[]",
          "name": "_price",
          "type": "tuple[]"
        }
      ],
      "name": "setPrice",
      "outputs": [],
      "stateMutability": "nonpayable",
      "type": "function"
    },
    {
      "inputs": [
        {
          "components": [
            {
              "internalType": "uint32",
              "name": "eid",
              "type": "uint32"
            },
            {
              "components": [
                {
                  "internalType": "uint128",
                  "name": "priceRatio",
                  "type": "uint128"
                },
                {
                  "internalType": "uint64",
                  "name": "gasPriceInUnit",
                  "type": "uint64"
                },
                {
                  "internalType": "uint32",
                  "name": "gasPerByte",
                  "type": "uint32"
                }
              ],
              "internalType": "struct ILayerZeroPriceFeed.Price",
              "name": "price",
              "type": "tuple"
            },
            {
              "components": [
                {
                  "internalType": "uint64",
                  "name": "gasPerL2Tx",
                  "type": "uint64"
                },
                {
                  "internalType": "uint32",
                  "name": "gasPerL1CallDataByte",
                  "type": "uint32"
                }
              ],
              "internalType": "struct ILayerZeroPriceFeed.ArbitrumPriceExt",
              "name": "extend",
              "type": "tuple"
            }
          ],
          "internalType": "struct ILayerZeroPriceFeed.UpdatePriceExt",
          "name": "_update",
          "type": "tuple"
        }
      ],
      "name": "setPriceForArbitrum",
      "outputs": [],
      "stateMutability": "nonpayable",
      "type": "function"
    },
    {
      "inputs": [
        {
          "internalType": "uint128",
          "name": "_denominator",
          "type": "uint128"
        }
      ],
      "name": "setPriceRatioDenominator",
      "outputs": [],
      "stateMutability": "nonpayable",
      "type": "function"
    },
    {
      "inputs": [
        {
          "internalType": "address",
          "name": "_addr",
          "type": "address"
        },
        {
          "internalType": "bool",
          "name": "_active",
          "type": "bool"
        }
      ],
      "name": "setPriceUpdater",
      "outputs": [],
      "stateMutability": "nonpayable",
      "type": "function"
    },
    {
      "inputs": [
        {
          "internalType": "address",
          "name": "newOwner",
          "type": "address"
        }
      ],
      "name": "transferOwnership",
      "outputs": [],
      "stateMutability": "nonpayable",
      "type": "function"
    },
    {
      "inputs": [
        {
          "internalType": "address",
          "name": "_to",
          "type": "address"
        },
        {
          "internalType": "uint256",
          "name": "_amount",
          "type": "uint256"
        }
      ],
      "name": "withdrawFee",
      "outputs": [],
      "stateMutability": "nonpayable",
      "type": "function"
    }
  ],
  "transactionHash": "0xaf9d2c1afa8ce1a6ae84b0c5972058fc1570ffd6b536cbf8953daa2d590ecd59",
  "args": [],
  "numDeployments": 1,
  "solcInputHash": "df45c5d73ee7212b45689d2cdbb787f2",
  "bytecode": "0x608060405234801561001057600080fd5b506119fe806100206000396000f3fe6080604052600436106101815760003560e01c80638ca2fb08116100d1578063cd68b79b1161008a578063dbbb415511610064578063dbbb4155146105e0578063e0ad121a14610600578063f2fde38b14610689578063fd9be522146106a957600080fd5b8063cd68b79b146104d8578063d350ad25146104ff578063da26663a1461051f57600080fd5b80638ca2fb08146103f75780638da5cb5b1461043757806392807f5814610455578063c1723a1d14610487578063c18403271461049a578063c4d66de8146104b857600080fd5b80635d6d7ccb1161013e5780637760e22d116101185780637760e22d1461032b5780637bc3c9ab1461034b5780637dc438a41461038857806388a4124c146103a857600080fd5b80635d6d7ccb146102be5780635e280f11146102de578063715018a61461031657600080fd5b806311f2c34314610186578063223cf5b2146101bd5780632f7cb0b4146101fa5780633161b7f61461021c57806336a5beba1461023c57806352a725101461029e575b600080fd5b34801561019257600080fd5b506101aa6101a1366004611572565b60009392505050565b6040519081526020015b60405180910390f35b3480156101c957600080fd5b506101ed6101d83660046115a5565b606b6020526000908152604090205460ff1681565b6040516101b491906115dd565b34801561020657600080fd5b5061021a61021536600461161c565b6106c9565b005b34801561022857600080fd5b5061021a610237366004611637565b6106f0565b34801561024857600080fd5b506040805180820182526000808252602091820152815180830183526068546001600160401b03811680835263ffffffff600160401b9092048216928401928352845190815291511691810191909152016101b4565b3480156102aa57600080fd5b5061021a6102b93660046116c2565b610831565b3480156102ca57600080fd5b5061021a6102d936600461161c565b610864565b3480156102ea57600080fd5b50606a546102fe906001600160a01b031681565b6040516001600160a01b0390911681526020016101b4565b34801561032257600080fd5b5061021a6108d7565b34801561033757600080fd5b5061021a6103463660046116fe565b6108eb565b34801561035757600080fd5b5061036b610366366004611772565b610991565b604080519283526001600160801b039091166020830152016101b4565b34801561039457600080fd5b5061021a6103a3366004611790565b610a9d565b3480156103b457600080fd5b506103c86103c3366004611572565b610b5e565b604080519485526001600160801b039384166020860152918316918401919091521660608201526080016101b4565b34801561040357600080fd5b506104276104123660046117a8565b60666020526000908152604090205460ff1681565b60405190151581526020016101b4565b34801561044357600080fd5b506033546001600160a01b03166102fe565b34801561046157600080fd5b506069546001600160801b03165b6040516001600160801b0390911681526020016101b4565b6103c8610495366004611572565b610b80565b3480156104a657600080fd5b506065546001600160801b031661046f565b3480156104c457600080fd5b5061021a6104d33660046117a8565b610bb1565b3480156104e457600080fd5b5060695461046f90600160801b90046001600160801b031681565b34801561050b57600080fd5b5061021a61051a36600461161c565b610d97565b34801561052b57600080fd5b506105a661053a3660046115a5565b60408051606080820183526000808352602080840182905292840181905263ffffffff94851681526067835283902083519182018452546001600160801b0381168252600160801b81046001600160401b031692820192909252600160c01b9091049092169082015290565b6040805182516001600160801b031681526020808401516001600160401b0316908201529181015163ffffffff16908201526060016101b4565b3480156105ec57600080fd5b5061021a6105fb3660046117a8565b610dc1565b34801561060c57600080fd5b506105a661061b3660046117c3565b60408051606080820183526000808352602080840182905292840181905261ffff949094168452606782529282902082519384018352546001600160801b03811684526001600160401b03600160801b82041691840191909152600160c01b900463ffffffff169082015290565b34801561069557600080fd5b5061021a6106a43660046117a8565b610deb565b3480156106b557600080fd5b5061021a6106c43660046117de565b610e64565b6106d1610e7a565b606980546001600160801b03928316600160801b029216919091179055565b336107036033546001600160a01b031690565b6001600160a01b031614610741573360009081526066602052604090205460ff166107415760405163320ae52960e01b815260040160405180910390fd5b60005b8181101561082c573683838381811061075f5761075f611808565b608002919091019150610823905061077a60208301836115a5565b61078c36849003840160208501611835565b805160208083015160409384015184516060810186526001600160801b0394851681526001600160401b0392831681850190815263ffffffff9283168288019081529783166000908152606790955295909320925183549551965194166001600160c01b031990951694909417600160801b95909116949094029390931763ffffffff60c01b1916600160c01b9190921602179055565b50600101610744565b505050565b610839610e7a565b6001600160a01b03919091166000908152606660205260409020805460ff1916911515919091179055565b336108776033546001600160a01b031690565b6001600160a01b0316146108b5573360009081526066602052604090205460ff166108b55760405163320ae52960e01b815260040160405180910390fd5b606980546001600160801b0319166001600160801b0392909216919091179055565b6108df610e7a565b6108e96000610ed4565b565b6108f3610e7a565b60005b8181101561082c5782828281811061091057610910611808565b905060400201602001602081019061092891906118ae565b606b600085858581811061093e5761093e611808565b61095492602060409092020190810191506115a5565b63ffffffff1681526020810191909152604001600020805460ff19166001836002811115610984576109846115c7565b02179055506001016108f6565b6000808461ffff16606e14806109ac57508461ffff1661279f145b806109bc57508461ffff16614eaf145b156109d9576109d08561ffff168585610f26565b91509150610a95565b8461ffff16606f14806109f157508461ffff16612794145b80610a0157508461ffff16614ea4145b15610a15576109d08561ffff168585611033565b61ffff85166000908152606b602052604090205460ff166002816002811115610a4057610a406115c7565b03610a5e57610a548661ffff168686611033565b9250925050610a95565b6001816002811115610a7257610a726115c7565b03610a8657610a548661ffff168686610f26565b610a548661ffff168686611183565b935093915050565b33610ab06033546001600160a01b031690565b6001600160a01b031614610aee573360009081526066602052604090205460ff16610aee5760405163320ae52960e01b815260040160405180910390fd5b610afe61077a60208301836115a5565b6000610b1060a08301608084016118cf565b90506000610b2460c0840160a085016115a5565b6068805463ffffffff909216600160401b026bffffffffffffffffffffffff199092166001600160401b0390941693909317179091555050565b600080600080610b6f878787611223565b935093509350935093509350935093565b600080808080610b94565b60405180910390fd5b610b9f888888611223565b94509450945094505093509350935093565b6000610bdb7fb53127684a568b3173ae13b9f8a6016e243e63b6e8ee1178d6a717850b5d61035490565b90506001600160a01b038116610c1a576001600160a01b037fb53127684a568b3173ae13b9f8a6016e243e63b6e8ee1178d6a717850b5d610355610c2f565b336001600160a01b03821614610c2f57600080fd5b600054610100900460ff1615808015610c4f5750600054600160ff909116105b80610c695750303b158015610c69575060005460ff166001145b610ccc5760405162461bcd60e51b815260206004820152602e60248201527f496e697469616c697a61626c653a20636f6e747261637420697320616c72656160448201526d191e481a5b9a5d1a585b1a5e995960921b6064820152608401610b8b565b6000805460ff191660011790558015610cef576000805461ff0019166101001790555b610cf7611364565b6001600160a01b0383166000908152606660205260409020805460ff19166001179055606580546001600160801b03191668056bc75e2d6310000017905560698054602f60801b6001600160801b0391909116179055801561082c576000805461ff0019169055604051600181527f7f26b83ff96e1f2b6a682f133852f6798a09c465da95921460cefb38474024989060200160405180910390a1505050565b610d9f610e7a565b606580546001600160801b0319166001600160801b0392909216919091179055565b610dc9610e7a565b606a80546001600160a01b0319166001600160a01b0392909216919091179055565b610df3610e7a565b6001600160a01b038116610e585760405162461bcd60e51b815260206004820152602660248201527f4f776e61626c653a206e6577206f776e657220697320746865207a65726f206160448201526564647265737360d01b6064820152608401610b8b565b610e6181610ed4565b50565b610e6c610e7a565b610e768282611393565b5050565b6033546001600160a01b031633146108e95760405162461bcd60e51b815260206004820181905260248201527f4f776e61626c653a2063616c6c6572206973206e6f7420746865206f776e65726044820152606401610b8b565b603380546001600160a01b038381166001600160a01b0319831681179093556040519116919082907f8be0079c531659141344cd1fd0a4f28419497f9722a3daafe3b4186f6b6457e090600090a35050565b63ffffffff8381166000908152606760205260408120606854606954929384938492600160401b900490911690606490610f7090600160801b90046001600160801b031689611900565b610f7a9190611933565b610f849190611900565b8254909150600090610fa390600160c01b900463ffffffff1688611900565b83546068549192506000916001600160401b03600160801b90920482169184918691610fd091168b611947565b610fda9190611947565b610fe49190611947565b610fee9190611900565b60655485549192506001600160801b039081169161100d911683611900565b6110179190611933565b935493996001600160801b039094169850929650505050505050565b600080600061104186611440565b63ffffffff8082166000908152606760205260408120805493945092909161107191600160c01b90041688611900565b61107d90610c74611947565b825490915060009061109f90600160801b90046001600160401b031683611900565b63ffffffff808b16600090815260676020526040812080549394509290916110cf91600160c01b9004168b611900565b8254909150600090600160801b90046001600160401b03166110f18b84611947565b6110fb9190611900565b60655487549192506000916001600160801b039182169161111d911687611900565b6111279190611933565b60655485549192506000916001600160801b0391821691611149911685611900565b6111539190611933565b905060006111618284611947565b9554959f6001600160801b039096169e50949c50505050505050505050505050565b63ffffffff808416600090815260676020526040812080549192839283916111b391600160c01b90041687611900565b8254909150600090600160801b90046001600160401b03166111d58784611947565b6111df9190611900565b60655484549192506001600160801b03908116916111fe911683611900565b6112089190611933565b925492986001600160801b0390931697509195505050505050565b6000808080806112356175308961195a565b90508063ffffffff16606e148061125357508063ffffffff1661279f145b8061126557508063ffffffff16614eaf145b1561127f57611275818888610f26565b90955093506112c3565b8063ffffffff16606f148061129b57508063ffffffff16612794145b806112ad57508063ffffffff16614ea4145b156112c3576112bd818888611033565b90955093505b63ffffffff81166000908152606b602052604090205460ff1660028160028111156112f0576112f06115c7565b0361130a57611300828989611033565b909650945061133f565b600181600281111561131e5761131e6115c7565b0361132e57611300828989610f26565b611339828989611183565b90965094505b505060655460695494989397506001600160801b039081169650909316935090915050565b600054610100900460ff1661138b5760405162461bcd60e51b8152600401610b8b9061197d565b6108e9611529565b6001600160a01b0382166113ba576040516306b7a93160e41b815260040160405180910390fd5b6000826001600160a01b03168260405160006040518083038185875af1925050503d8060008114611407576040519150601f19603f3d011682016040523d82523d6000602084013e61140c565b606091505b505090508061082c57604051631196f20d60e21b81526001600160a01b038416600482015260248101839052604401610b8b565b60008061144f6175308461195a565b90508063ffffffff16606f036114685750606592915050565b8063ffffffff1661279403611481575061278992915050565b8063ffffffff16614ea40361149a5750614e9992915050565b600263ffffffff82166000908152606b602052604090205460ff1660028111156114c6576114c66115c7565b146114ec57604051633d0b0cf760e21b815263ffffffff84166004820152602401610b8b565b6127108163ffffffff1610156115055750606592915050565b614e208163ffffffff16101561151f57506127b192915050565b50614e9992915050565b600054610100900460ff166115505760405162461bcd60e51b8152600401610b8b9061197d565b6108e933610ed4565b803563ffffffff8116811461156d57600080fd5b919050565b60008060006060848603121561158757600080fd5b61159084611559565b95602085013595506040909401359392505050565b6000602082840312156115b757600080fd5b6115c082611559565b9392505050565b634e487b7160e01b600052602160045260246000fd5b60208101600383106115ff57634e487b7160e01b600052602160045260246000fd5b91905290565b80356001600160801b038116811461156d57600080fd5b60006020828403121561162e57600080fd5b6115c082611605565b6000806020838503121561164a57600080fd5b82356001600160401b038082111561166157600080fd5b818501915085601f83011261167557600080fd5b81358181111561168457600080fd5b8660208260071b850101111561169957600080fd5b60209290920196919550909350505050565b80356001600160a01b038116811461156d57600080fd5b600080604083850312156116d557600080fd5b6116de836116ab565b9150602083013580151581146116f357600080fd5b809150509250929050565b6000806020838503121561171157600080fd5b82356001600160401b038082111561172857600080fd5b818501915085601f83011261173c57600080fd5b81358181111561174b57600080fd5b8660208260061b850101111561169957600080fd5b803561ffff8116811461156d57600080fd5b60008060006060848603121561178757600080fd5b61159084611760565b600060c082840312156117a257600080fd5b50919050565b6000602082840312156117ba57600080fd5b6115c0826116ab565b6000602082840312156117d557600080fd5b6115c082611760565b600080604083850312156117f157600080fd5b6117fa836116ab565b946020939093013593505050565b634e487b7160e01b600052603260045260246000fd5b80356001600160401b038116811461156d57600080fd5b60006060828403121561184757600080fd5b604051606081018181106001600160401b038211171561187757634e487b7160e01b600052604160045260246000fd5b60405261188383611605565b81526118916020840161181e565b60208201526118a260408401611559565b60408201529392505050565b6000602082840312156118c057600080fd5b8135600381106115c057600080fd5b6000602082840312156118e157600080fd5b6115c08261181e565b634e487b7160e01b600052601160045260246000fd5b8082028115828204841417611917576119176118ea565b92915050565b634e487b7160e01b600052601260045260246000fd5b6000826119425761194261191d565b500490565b80820180821115611917576119176118ea565b600063ffffffff808416806119715761197161191d565b92169190910692915050565b6020808252602b908201527f496e697469616c697a61626c653a20636f6e7472616374206973206e6f74206960408201526a6e697469616c697a696e6760a81b60608201526080019056fea264697066735822122004834225e7418a5ceaad336b075a62ac47ba66c6766856204640e08caeae392b64736f6c63430008160033",
  "devdoc": {
    "events": {
      "Initialized(uint8)": {
        "details": "Triggered when the contract has been initialized or reinitialized."
      }
    },
    "kind": "dev",
    "methods": {
      "owner()": {
        "details": "Returns the address of the current owner."
      },
      "renounceOwnership()": {
        "details": "Leaves the contract without owner. It will not be possible to call `onlyOwner` functions. Can only be called by the current owner. NOTE: Renouncing ownership will leave the contract without an owner, thereby disabling any functionality that is only available to the owner."
      },
      "transferOwnership(address)": {
        "details": "Transfers ownership of the contract to a new account (`newOwner`). Can only be called by the current owner."
      }
    },
    "version": 1
  },
  "userdoc": {
    "kind": "user",
    "methods": {},
    "version": 1
  },
  "storageLayout": {
    "storage": [
      {
        "astId": 5514,
        "contract": "contracts/messagelib/contracts/PriceFeed.sol:PriceFeed",
        "label": "_initialized",
        "offset": 0,
        "slot": "0",
        "type": "t_uint8"
      },
      {
        "astId": 5517,
        "contract": "contracts/messagelib/contracts/PriceFeed.sol:PriceFeed",
        "label": "_initializing",
        "offset": 1,
        "slot": "0",
        "type": "t_bool"
      },
      {
        "astId": 6269,
        "contract": "contracts/messagelib/contracts/PriceFeed.sol:PriceFeed",
        "label": "__gap",
        "offset": 0,
        "slot": "1",
        "type": "t_array(t_uint256)50_storage"
      },
      {
        "astId": 5386,
        "contract": "contracts/messagelib/contracts/PriceFeed.sol:PriceFeed",
        "label": "_owner",
        "offset": 0,
        "slot": "51",
        "type": "t_address"
      },
      {
        "astId": 5506,
        "contract": "contracts/messagelib/contracts/PriceFeed.sol:PriceFeed",
        "label": "__gap",
        "offset": 0,
        "slot": "52",
        "type": "t_array(t_uint256)49_storage"
      },
      {
        "astId": 14003,
        "contract": "contracts/messagelib/contracts/PriceFeed.sol:PriceFeed",
        "label": "PRICE_RATIO_DENOMINATOR",
        "offset": 0,
        "slot": "101",
        "type": "t_uint128"
      },
      {
        "astId": 14007,
        "contract": "contracts/messagelib/contracts/PriceFeed.sol:PriceFeed",
        "label": "priceUpdater",
        "offset": 0,
        "slot": "102",
        "type": "t_mapping(t_address,t_bool)"
      },
      {
        "astId": 14012,
        "contract": "contracts/messagelib/contracts/PriceFeed.sol:PriceFeed",
        "label": "_defaultModelPrice",
        "offset": 0,
        "slot": "103",
        "type": "t_mapping(t_uint32,t_struct(Price)18404_storage)"
      },
      {
        "astId": 14015,
        "contract": "contracts/messagelib/contracts/PriceFeed.sol:PriceFeed",
        "label": "_arbitrumPriceExt",
        "offset": 0,
        "slot": "104",
        "type": "t_struct(ArbitrumPriceExt)18416_storage"
      },
      {
        "astId": 14017,
        "contract": "contracts/messagelib/contracts/PriceFeed.sol:PriceFeed",
        "label": "_nativePriceUSD",
        "offset": 0,
        "slot": "105",
        "type": "t_uint128"
      },
      {
        "astId": 14019,
        "contract": "contracts/messagelib/contracts/PriceFeed.sol:PriceFeed",
        "label": "ARBITRUM_COMPRESSION_PERCENT",
        "offset": 16,
        "slot": "105",
        "type": "t_uint128"
      },
      {
        "astId": 14022,
        "contract": "contracts/messagelib/contracts/PriceFeed.sol:PriceFeed",
        "label": "endpoint",
        "offset": 0,
        "slot": "106",
        "type": "t_contract(ILayerZeroEndpointV2)2728"
      },
      {
        "astId": 14027,
        "contract": "contracts/messagelib/contracts/PriceFeed.sol:PriceFeed",
        "label": "eidToModelType",
        "offset": 0,
        "slot": "107",
        "type": "t_mapping(t_uint32,t_enum(ModelType)13989)"
      }
    ],
    "types": {
      "t_address": {
        "encoding": "inplace",
        "label": "address",
        "numberOfBytes": "20"
      },
      "t_array(t_uint256)49_storage": {
        "base": "t_uint256",
        "encoding": "inplace",
        "label": "uint256[49]",
        "numberOfBytes": "1568"
      },
      "t_array(t_uint256)50_storage": {
        "base": "t_uint256",
        "encoding": "inplace",
        "label": "uint256[50]",
        "numberOfBytes": "1600"
      },
      "t_bool": {
        "encoding": "inplace",
        "label": "bool",
        "numberOfBytes": "1"
      },
      "t_contract(ILayerZeroEndpointV2)2728": {
        "encoding": "inplace",
        "label": "contract ILayerZeroEndpointV2",
        "numberOfBytes": "20"
      },
      "t_enum(ModelType)13989": {
        "encoding": "inplace",
        "label": "enum ModelType",
        "numberOfBytes": "1"
      },
      "t_mapping(t_address,t_bool)": {
        "encoding": "mapping",
        "key": "t_address",
        "label": "mapping(address => bool)",
        "numberOfBytes": "32",
        "value": "t_bool"
      },
      "t_mapping(t_uint32,t_enum(ModelType)13989)": {
        "encoding": "mapping",
        "key": "t_uint32",
        "label": "mapping(uint32 => enum ModelType)",
        "numberOfBytes": "32",
        "value": "t_enum(ModelType)13989"
      },
      "t_mapping(t_uint32,t_struct(Price)18404_storage)": {
        "encoding": "mapping",
        "key": "t_uint32",
        "label": "mapping(uint32 => struct ILayerZeroPriceFeed.Price)",
        "numberOfBytes": "32",
        "value": "t_struct(Price)18404_storage"
      },
      "t_struct(ArbitrumPriceExt)18416_storage": {
        "encoding": "inplace",
        "label": "struct ILayerZeroPriceFeed.ArbitrumPriceExt",
        "members": [
          {
            "astId": 18413,
            "contract": "contracts/messagelib/contracts/PriceFeed.sol:PriceFeed",
            "label": "gasPerL2Tx",
            "offset": 0,
            "slot": "0",
            "type": "t_uint64"
          },
          {
            "astId": 18415,
            "contract": "contracts/messagelib/contracts/PriceFeed.sol:PriceFeed",
            "label": "gasPerL1CallDataByte",
            "offset": 8,
            "slot": "0",
            "type": "t_uint32"
          }
        ],
        "numberOfBytes": "32"
      },
      "t_struct(Price)18404_storage": {
        "encoding": "inplace",
        "label": "struct ILayerZeroPriceFeed.Price",
        "members": [
          {
            "astId": 18399,
            "contract": "contracts/messagelib/contracts/PriceFeed.sol:PriceFeed",
            "label": "priceRatio",
            "offset": 0,
            "slot": "0",
            "type": "t_uint128"
          },
          {
            "astId": 18401,
            "contract": "contracts/messagelib/contracts/PriceFeed.sol:PriceFeed",
            "label": "gasPriceInUnit",
            "offset": 16,
            "slot": "0",
            "type": "t_uint64"
          },
          {
            "astId": 18403,
            "contract": "contracts/messagelib/contracts/PriceFeed.sol:PriceFeed",
            "label": "gasPerByte",
            "offset": 24,
            "slot": "0",
            "type": "t_uint32"
          }
        ],
        "numberOfBytes": "32"
      },
      "t_uint128": {
        "encoding": "inplace",
        "label": "uint128",
        "numberOfBytes": "16"
      },
      "t_uint256": {
        "encoding": "inplace",
        "label": "uint256",
        "numberOfBytes": "32"
      },
      "t_uint32": {
        "encoding": "inplace",
        "label": "uint32",
        "numberOfBytes": "4"
      },
      "t_uint64": {
        "encoding": "inplace",
        "label": "uint64",
        "numberOfBytes": "8"
      },
      "t_uint8": {
        "encoding": "inplace",
        "label": "uint8",
        "numberOfBytes": "1"
      }
    }
  }
}