{
  "address": "0xa5FFd3493c0D877D6032464C5FE37eE53Cf752e2",
  "abi": [
    {
      "anonymous": false,
      "inputs": [
        {
          "indexed": false,
          "internalType": "uint8",
          "name": "version",
          "type": "uint8"
        }
      ],
      "name": "Initialized",
      "type": "event"
    },
    {
      "inputs": [],
      "name": "EMPTY_PAYLOAD_HASH",
      "outputs": [
        {
          "internalType": "bytes32",
          "name": "",
          "type": "bytes32"
        }
      ],
      "stateMutability": "view",
      "type": "function"
    },
    {
      "inputs": [],
      "name": "NIL_PAYLOAD_HASH",
      "outputs": [
        {
          "internalType": "bytes32",
          "name": "",
          "type": "bytes32"
        }
      ],
      "stateMutability": "view",
      "type": "function"
    },
    {
      "inputs": [],
      "name": "endpoint",
      "outputs": [
        {
          "internalType": "contract ILayerZeroEndpointV2",
          "name": "",
          "type": "address"
        }
      ],
      "stateMutability": "view",
      "type": "function"
    },
    {
      "inputs": [
        {
          "components": [
            {
              "internalType": "uint32",
              "name": "srcEid",
              "type": "uint32"
            },
            {
              "internalType": "bytes32",
              "name": "sender",
              "type": "bytes32"
            },
            {
              "internalType": "uint64",
              "name": "nonce",
              "type": "uint64"
            }
          ],
          "internalType": "struct Origin",
          "name": "_origin",
          "type": "tuple"
        },
        {
          "internalType": "address",
          "name": "_receiver",
          "type": "address"
        }
      ],
      "name": "executable",
      "outputs": [
        {
          "internalType": "enum ExecutionState",
          "name": "",
          "type": "uint8"
        }
      ],
      "stateMutability": "view",
      "type": "function"
    },
    {
      "inputs": [
        {
          "components": [
            {
              "internalType": "uint32",
              "name": "srcEid",
              "type": "uint32"
            },
            {
              "internalType": "bytes32",
              "name": "sender",
              "type": "bytes32"
            },
            {
              "internalType": "uint64",
              "name": "nonce",
              "type": "uint64"
            }
          ],
          "internalType": "struct Origin",
          "name": "_origin",
          "type": "tuple"
        },
        {
          "internalType": "address",
          "name": "_receiver",
          "type": "address"
        }
      ],
      "name": "initializable",
      "outputs": [
        {
          "internalType": "bool",
          "name": "",
          "type": "bool"
        }
      ],
      "stateMutability": "view",
      "type": "function"
    },
    {
      "inputs": [
        {
          "internalType": "address",
          "name": "_endpoint",
          "type": "address"
        },
        {
          "internalType": "address",
          "name": "_receiveUln302",
          "type": "address"
        }
      ],
      "name": "initialize",
      "outputs": [],
      "stateMutability": "nonpayable",
      "type": "function"
    },
    {
      "inputs": [],
      "name": "receiveUln302",
      "outputs": [
        {
          "internalType": "contract IReceiveUln302",
          "name": "",
          "type": "address"
        }
      ],
      "stateMutability": "view",
      "type": "function"
    },
    {
      "inputs": [
        {
          "internalType": "bytes",
          "name": "_packetHeader",
          "type": "bytes"
        },
        {
          "internalType": "bytes32",
          "name": "_payloadHash",
          "type": "bytes32"
        }
      ],
      "name": "verifiable",
      "outputs": [
        {
          "internalType": "enum VerificationState",
          "name": "",
          "type": "uint8"
        }
      ],
      "stateMutability": "view",
      "type": "function"
    },
    {
      "inputs": [
        {
          "components": [
            {
              "internalType": "uint32",
              "name": "srcEid",
              "type": "uint32"
            },
            {
              "internalType": "bytes32",
              "name": "sender",
              "type": "bytes32"
            },
            {
              "internalType": "uint64",
              "name": "nonce",
              "type": "uint64"
            }
          ],
          "internalType": "struct Origin",
          "name": "_origin",
          "type": "tuple"
        },
        {
          "internalType": "address",
          "name": "_receiver",
          "type": "address"
        },
        {
          "internalType": "address",
          "name": "_receiveLib",
          "type": "address"
        },
        {
          "internalType": "bytes32",
          "name": "_payloadHash",
          "type": "bytes32"
        }
      ],
      "name": "verifiable",
      "outputs": [
        {
          "internalType": "bool",
          "name": "",
          "type": "bool"
        }
      ],
      "stateMutability": "view",
      "type": "function"
    }
  ],
  "transactionHash": "0xc21581bd017290c36c18e68d837d8c662e9e855e5d644b40cfa580115ee62a8b",
  "args": [],
  "numDeployments": 1,
  "solcInputHash": "df45c5d73ee7212b45689d2cdbb787f2",
  "bytecode": "0x608060405234801561001057600080fd5b506112b4806100206000396000f3fe608060405234801561001057600080fd5b50600436106100935760003560e01c80635e280f11116100665780635e280f1114610100578063843c7b0e14610131578063861e1ca514610144578063cb5026b914610167578063e1e3a7df1461016f57600080fd5b806327d12cd9146100985780632baf0be7146100c1578063485cc955146100d85780634b4b2efb146100ed575b600080fd5b6100ab6100a6366004610bde565b610182565b6040516100b89190610c73565b60405180910390f35b6100ca60001981565b6040519081526020016100b8565b6100eb6100e6366004610c9b565b61039e565b005b6100ab6100fb366004610da5565b6105e2565b600054610119906201000090046001600160a01b031681565b6040516001600160a01b0390911681526020016100b8565b603254610119906001600160a01b031681565b610157610152366004610da5565b61083c565b60405190151581526020016100b8565b6100ca600081565b61015761017d366004610dd2565b6108c0565b60325460405163c40ff83560e01b81526000916001600160a01b0381169163c40ff835916101c59188918891600160a01b90910463ffffffff1690600401610e22565b60006040518083038186803b1580156101dd57600080fd5b505afa1580156101f1573d6000803e3d6000fd5b50505050600061020185856109f4565b90506000604051806060016040528061021a8888610a06565b63ffffffff16815260200161022f8888610a29565b815260200161023e8888610a42565b6001600160401b031690529050610255818361083c565b61026457600392505050610397565b61026f818386610a65565b61027e57600292505050610397565b60325481516040516343ea4fa960e01b81526001600160a01b03858116600483015263ffffffff909216602482015291169063e084d9529082906343ea4fa990604401600060405180830381865afa1580156102de573d6000803e3d6000fd5b505050506040513d6000823e601f3d908101601f191682016040526103069190810190610f28565b8888604051610316929190610ffc565b6040519081900381206001600160e01b031960e085901b16825261033f92918990600401611051565b602060405180830381865afa15801561035c573d6000803e3d6000fd5b505050506040513d601f19601f8201168201806040525081019061038091906110da565b1561039057600192505050610397565b6000925050505b9392505050565b60006103c87fb53127684a568b3173ae13b9f8a6016e243e63b6e8ee1178d6a717850b5d61035490565b90506001600160a01b038116610407576001600160a01b037fb53127684a568b3173ae13b9f8a6016e243e63b6e8ee1178d6a717850b5d61035561041c565b336001600160a01b0382161461041c57600080fd5b600054610100900460ff161580801561043c5750600054600160ff909116105b806104565750303b158015610456575060005460ff166001145b6104be5760405162461bcd60e51b815260206004820152602e60248201527f496e697469616c697a61626c653a20636f6e747261637420697320616c72656160448201526d191e481a5b9a5d1a585b1a5e995960921b60648201526084015b60405180910390fd5b6000805460ff1916600117905580156104e1576000805461ff0019166101001790555b6104ea84610b4a565b603280546001600160a01b0319166001600160a01b03858116919091179091556000546040805163416ecebf60e01b81529051620100009092049092169163416ecebf9160048083019260209291908290030181865afa158015610552573d6000803e3d6000fd5b505050506040513d601f19601f8201168201806040525081019061057691906110fc565b603260146101000a81548163ffffffff021916908363ffffffff16021790555080156105dc576000805461ff0019169055604051600181527f7f26b83ff96e1f2b6a682f133852f6798a09c465da95921460cefb38474024989060200160405180910390a15b50505050565b6000805483516020850151604080870151905163c9fc7bcd60e01b81526001600160a01b03878116600483015263ffffffff909416602482015260448101929092526001600160401b0316606482015283926201000090049091169063c9fc7bcd90608401602060405180830381865afa158015610664573d6000803e3d6000fd5b505050506040513d601f19601f820116820180604052508101906106889190611119565b90508015801561073c5750600054845160208601516040516305b17bb760e41b81526001600160a01b03878116600483015263ffffffff90931660248201526044810191909152620100009092041690635b17bb7090606401602060405180830381865afa1580156106fe573d6000803e3d6000fd5b505050506040513d601f19601f820116820180604052508101906107229190611132565b6001600160401b031684604001516001600160401b031611155b1561074b576003915050610836565b600019811480159061080157506000548451602086015160405163283750ff60e21b81526001600160a01b03878116600483015263ffffffff9093166024820152604481019190915262010000909204169063a0dd43fc90606401602060405180830381865afa1580156107c3573d6000803e3d6000fd5b505050506040513d601f19601f820116820180604052508101906107e79190611132565b6001600160401b031684604001516001600160401b031611155b15610810576002915050610836565b801580159061082157506000198114155b15610830576001915050610836565b60009150505b92915050565b6000805460405163861e1ca560e01b8152620100009091046001600160a01b03169063861e1ca590610874908690869060040161114f565b602060405180830381865afa9250505080156108ad575060408051601f3d908101601f191682019092526108aa918101906110da565b60015b6108b957506000610836565b9050610836565b600080548551604051639d7f977560e01b81526001600160a01b03878116600483015263ffffffff90921660248201528582166044820152620100009092041690639d7f977590606401602060405180830381865afa158015610927573d6000803e3d6000fd5b505050506040513d601f19601f8201168201806040525081019061094b91906110da565b610957575060006109ec565b60005460405163c9a54a9960e01b8152620100009091046001600160a01b03169063c9a54a999061098e908890889060040161114f565b602060405180830381865afa1580156109ab573d6000803e3d6000fd5b505050506040513d601f19601f820116820180604052508101906109cf91906110da565b6109db575060006109ec565b816109e8575060006109ec565b5060015b949350505050565b6000610397610a038484610b7d565b90565b6000610a16600d6009848661118d565b610a1f916111b7565b60e01c9392505050565b6000610a39602d600d848661118d565b610397916111e7565b6000610a5260096001848661118d565b610a5b91611205565b60c01c9392505050565b603254600090610a8290859085906001600160a01b0316856108c0565b610a8e57506000610397565b60005484516020860151604080880151905163c9fc7bcd60e01b81526001600160a01b03888116600483015263ffffffff909416602482015260448101929092526001600160401b0316606482015284926201000090049091169063c9fc7bcd90608401602060405180830381865afa158015610b0f573d6000803e3d6000fd5b505050506040513d601f19601f82011682018060405250810190610b339190611119565b03610b4057506000610397565b5060019392505050565b600054610100900460ff16610b715760405162461bcd60e51b81526004016104b590611233565b610b7a81610b8d565b50565b6000610a3960516031848661118d565b600054610100900460ff16610bb45760405162461bcd60e51b81526004016104b590611233565b600080546001600160a01b03909216620100000262010000600160b01b0319909216919091179055565b600080600060408486031215610bf357600080fd5b83356001600160401b0380821115610c0a57600080fd5b818601915086601f830112610c1e57600080fd5b813581811115610c2d57600080fd5b876020828501011115610c3f57600080fd5b6020928301989097509590910135949350505050565b60048110610b7a57634e487b7160e01b600052602160045260246000fd5b60208101610c8083610c55565b91905290565b6001600160a01b0381168114610b7a57600080fd5b60008060408385031215610cae57600080fd5b8235610cb981610c86565b91506020830135610cc981610c86565b809150509250929050565b634e487b7160e01b600052604160045260246000fd5b60405160c081016001600160401b0381118282101715610d0c57610d0c610cd4565b60405290565b63ffffffff81168114610b7a57600080fd5b6001600160401b0381168114610b7a57600080fd5b600060608284031215610d4b57600080fd5b604051606081018181106001600160401b0382111715610d6d57610d6d610cd4565b6040529050808235610d7e81610d12565b8152602083810135908201526040830135610d9881610d24565b6040919091015292915050565b60008060808385031215610db857600080fd5b610dc28484610d39565b91506060830135610cc981610c86565b60008060008060c08587031215610de857600080fd5b610df28686610d39565b93506060850135610e0281610c86565b92506080850135610e1281610c86565b9396929550929360a00135925050565b604081528260408201528284606083013760006060848301015260006060601f19601f860116830101905063ffffffff83166020830152949350505050565b8051610e6c81610d24565b919050565b805160ff81168114610e6c57600080fd5b600082601f830112610e9357600080fd5b815160206001600160401b0380831115610eaf57610eaf610cd4565b8260051b604051601f19603f83011681018181108482111715610ed457610ed4610cd4565b6040529384526020818701810194908101925087851115610ef457600080fd5b6020870191505b84821015610f1d578151610f0e81610c86565b83529183019190830190610efb565b979650505050505050565b600060208284031215610f3a57600080fd5b81516001600160401b0380821115610f5157600080fd5b9083019060c08286031215610f6557600080fd5b610f6d610cea565b610f7683610e61565b8152610f8460208401610e71565b6020820152610f9560408401610e71565b6040820152610fa660608401610e71565b6060820152608083015182811115610fbd57600080fd5b610fc987828601610e82565b60808301525060a083015182811115610fe157600080fd5b610fed87828601610e82565b60a08301525095945050505050565b8183823760009101908152919050565b60008151808452602080850194506020840160005b838110156110465781516001600160a01b031687529582019590820190600101611021565b509495945050505050565b606081526001600160401b03845116606082015260ff602085015116608082015260ff60408501511660a082015260ff60608501511660c08201526000608085015160c060e08401526110a861012084018261100c565b905060a0860151605f19848303016101008501526110c6828261100c565b602085019690965250505060400152919050565b6000602082840312156110ec57600080fd5b8151801515811461039757600080fd5b60006020828403121561110e57600080fd5b815161039781610d12565b60006020828403121561112b57600080fd5b5051919050565b60006020828403121561114457600080fd5b815161039781610d24565b825163ffffffff168152602080840151908201526040928301516001600160401b0316928101929092526001600160a01b0316606082015260800190565b6000808585111561119d57600080fd5b838611156111aa57600080fd5b5050820193919092039150565b6001600160e01b031981358181169160048510156111df5780818660040360031b1b83161692505b505092915050565b8035602083101561083657600019602084900360031b1b1692915050565b6001600160c01b031981358181169160088510156111df5760089490940360031b84901b1690921692915050565b6020808252602b908201527f496e697469616c697a61626c653a20636f6e7472616374206973206e6f74206960408201526a6e697469616c697a696e6760a81b60608201526080019056fea2646970667358221220b126bb8d764054c5536261764fd9aedc9ebb96f715c49a83639fa79bcd681ed264736f6c63430008160033",
  "devdoc": {
    "events": {
      "Initialized(uint8)": {
        "details": "Triggered when the contract has been initialized or reinitialized."
      }
    },
    "kind": "dev",
    "methods": {
      "executable((uint32,bytes32,uint64),address)": {
        "details": "check if a message is executable.",
        "returns": {
          "_0": "ExecutionState of Executed, Executable, or NotExecutable"
        }
      },
      "verifiable((uint32,bytes32,uint64),address,address,bytes32)": {
        "details": "check if a message is verifiable."
      },
      "verifiable(bytes,bytes32)": {
        "details": "a ULN verifiable requires it to be endpoint verifiable and committable"
      }
    },
    "version": 1
  },
  "userdoc": {
    "kind": "user",
    "methods": {},
    "version": 1
  },
  "storageLayout": {
    "storage": [
      {
        "astId": 5514,
        "contract": "contracts/messagelib/contracts/uln/uln302/ReceiveUln302View.sol:ReceiveUln302View",
        "label": "_initialized",
        "offset": 0,
        "slot": "0",
        "type": "t_uint8"
      },
      {
        "astId": 5517,
        "contract": "contracts/messagelib/contracts/uln/uln302/ReceiveUln302View.sol:ReceiveUln302View",
        "label": "_initializing",
        "offset": 1,
        "slot": "0",
        "type": "t_bool"
      },
      {
        "astId": 2340,
        "contract": "contracts/messagelib/contracts/uln/uln302/ReceiveUln302View.sol:ReceiveUln302View",
        "label": "endpoint",
        "offset": 2,
        "slot": "0",
        "type": "t_contract(ILayerZeroEndpointV2)2728"
      },
      {
        "astId": 2524,
        "contract": "contracts/messagelib/contracts/uln/uln302/ReceiveUln302View.sol:ReceiveUln302View",
        "label": "__gap",
        "offset": 0,
        "slot": "1",
        "type": "t_array(t_uint256)49_storage"
      },
      {
        "astId": 28745,
        "contract": "contracts/messagelib/contracts/uln/uln302/ReceiveUln302View.sol:ReceiveUln302View",
        "label": "receiveUln302",
        "offset": 0,
        "slot": "50",
        "type": "t_contract(IReceiveUln302)28735"
      },
      {
        "astId": 28747,
        "contract": "contracts/messagelib/contracts/uln/uln302/ReceiveUln302View.sol:ReceiveUln302View",
        "label": "localEid",
        "offset": 20,
        "slot": "50",
        "type": "t_uint32"
      }
    ],
    "types": {
      "t_array(t_uint256)49_storage": {
        "base": "t_uint256",
        "encoding": "inplace",
        "label": "uint256[49]",
        "numberOfBytes": "1568"
      },
      "t_bool": {
        "encoding": "inplace",
        "label": "bool",
        "numberOfBytes": "1"
      },
      "t_contract(ILayerZeroEndpointV2)2728": {
        "encoding": "inplace",
        "label": "contract ILayerZeroEndpointV2",
        "numberOfBytes": "20"
      },
      "t_contract(IReceiveUln302)28735": {
        "encoding": "inplace",
        "label": "contract IReceiveUln302",
        "numberOfBytes": "20"
      },
      "t_uint256": {
        "encoding": "inplace",
        "label": "uint256",
        "numberOfBytes": "32"
      },
      "t_uint32": {
        "encoding": "inplace",
        "label": "uint32",
        "numberOfBytes": "4"
      },
      "t_uint8": {
        "encoding": "inplace",
        "label": "uint8",
        "numberOfBytes": "1"
      }
    }
  }
}