{
  "address": "0xD4393F73658adbdaE9fF0279e4C162935a4d7356",
  "abi": [
    {
      "inputs": [
        {
          "internalType": "address",
          "name": "_endpoint",
          "type": "address"
        },
        {
          "internalType": "uint32",
          "name": "_localEid",
          "type": "uint32"
        }
      ],
      "stateMutability": "nonpayable",
      "type": "constructor"
    },
    {
      "inputs": [],
      "name": "AddressCast_InvalidSizeForAddress",
      "type": "error"
    },
    {
      "inputs": [],
      "name": "AddressSizeConfig_AddressSizeAlreadySet",
      "type": "error"
    },
    {
      "inputs": [],
      "name": "AddressSizeConfig_InvalidAddressSize",
      "type": "error"
    },
    {
      "inputs": [],
      "name": "LZ_MessageLib_InvalidExecutor",
      "type": "error"
    },
    {
      "inputs": [],
      "name": "LZ_MessageLib_OnlyEndpoint",
      "type": "error"
    },
    {
      "inputs": [],
      "name": "LZ_MessageLib_OnlyExecutor",
      "type": "error"
    },
    {
      "inputs": [],
      "name": "LZ_ULN_AtLeastOneDVN",
      "type": "error"
    },
    {
      "inputs": [
        {
          "internalType": "uint256",
          "name": "configType",
          "type": "uint256"
        }
      ],
      "name": "LZ_ULN_InvalidConfigType",
      "type": "error"
    },
    {
      "inputs": [],
      "name": "LZ_ULN_InvalidConfirmations",
      "type": "error"
    },
    {
      "inputs": [],
      "name": "LZ_ULN_InvalidEid",
      "type": "error"
    },
    {
      "inputs": [],
      "name": "LZ_ULN_InvalidOptionalDVNCount",
      "type": "error"
    },
    {
      "inputs": [],
      "name": "LZ_ULN_InvalidOptionalDVNThreshold",
      "type": "error"
    },
    {
      "inputs": [],
      "name": "LZ_ULN_InvalidPacketHeader",
      "type": "error"
    },
    {
      "inputs": [],
      "name": "LZ_ULN_InvalidPacketVersion",
      "type": "error"
    },
    {
      "inputs": [],
      "name": "LZ_ULN_InvalidRequiredDVNCount",
      "type": "error"
    },
    {
      "inputs": [],
      "name": "LZ_ULN_Unsorted",
      "type": "error"
    },
    {
      "inputs": [
        {
          "internalType": "uint32",
          "name": "eid",
          "type": "uint32"
        }
      ],
      "name": "LZ_ULN_UnsupportedEid",
      "type": "error"
    },
    {
      "inputs": [],
      "name": "LZ_ULN_Verifying",
      "type": "error"
    },
    {
      "anonymous": false,
      "inputs": [
        {
          "indexed": false,
          "internalType": "uint16",
          "name": "eid",
          "type": "uint16"
        },
        {
          "indexed": false,
          "internalType": "uint256",
          "name": "size",
          "type": "uint256"
        }
      ],
      "name": "AddressSizeSet",
      "type": "event"
    },
    {
      "anonymous": false,
      "inputs": [
        {
          "components": [
            {
              "internalType": "uint32",
              "name": "eid",
              "type": "uint32"
            },
            {
              "internalType": "address",
              "name": "executor",
              "type": "address"
            }
          ],
          "indexed": false,
          "internalType": "struct SetDefaultExecutorParam[]",
          "name": "params",
          "type": "tuple[]"
        }
      ],
      "name": "DefaultExecutorsSet",
      "type": "event"
    },
    {
      "anonymous": false,
      "inputs": [
        {
          "components": [
            {
              "internalType": "uint32",
              "name": "eid",
              "type": "uint32"
            },
            {
              "components": [
                {
                  "internalType": "uint64",
                  "name": "confirmations",
                  "type": "uint64"
                },
                {
                  "internalType": "uint8",
                  "name": "requiredDVNCount",
                  "type": "uint8"
                },
                {
                  "internalType": "uint8",
                  "name": "optionalDVNCount",
                  "type": "uint8"
                },
                {
                  "internalType": "uint8",
                  "name": "optionalDVNThreshold",
                  "type": "uint8"
                },
                {
                  "internalType": "address[]",
                  "name": "requiredDVNs",
                  "type": "address[]"
                },
                {
                  "internalType": "address[]",
                  "name": "optionalDVNs",
                  "type": "address[]"
                }
              ],
              "internalType": "struct UlnConfig",
              "name": "config",
              "type": "tuple"
            }
          ],
          "indexed": false,
          "internalType": "struct SetDefaultUlnConfigParam[]",
          "name": "params",
          "type": "tuple[]"
        }
      ],
      "name": "DefaultUlnConfigsSet",
      "type": "event"
    },
    {
      "anonymous": false,
      "inputs": [
        {
          "indexed": false,
          "internalType": "address",
          "name": "oapp",
          "type": "address"
        },
        {
          "indexed": false,
          "internalType": "uint32",
          "name": "eid",
          "type": "uint32"
        },
        {
          "indexed": false,
          "internalType": "address",
          "name": "executor",
          "type": "address"
        }
      ],
      "name": "ExecutorSet",
      "type": "event"
    },
    {
      "anonymous": false,
      "inputs": [
        {
          "indexed": true,
          "internalType": "uint16",
          "name": "srcChainId",
          "type": "uint16"
        },
        {
          "indexed": false,
          "internalType": "bytes32",
          "name": "srcAddress",
          "type": "bytes32"
        },
        {
          "indexed": true,
          "internalType": "address",
          "name": "dstAddress",
          "type": "address"
        },
        {
          "indexed": false,
          "internalType": "uint64",
          "name": "nonce",
          "type": "uint64"
        },
        {
          "indexed": false,
          "internalType": "bytes32",
          "name": "payloadHash",
          "type": "bytes32"
        }
      ],
      "name": "InvalidDst",
      "type": "event"
    },
    {
      "anonymous": false,
      "inputs": [
        {
          "indexed": true,
          "internalType": "address",
          "name": "previousOwner",
          "type": "address"
        },
        {
          "indexed": true,
          "internalType": "address",
          "name": "newOwner",
          "type": "address"
        }
      ],
      "name": "OwnershipTransferred",
      "type": "event"
    },
    {
      "anonymous": false,
      "inputs": [
        {
          "components": [
            {
              "internalType": "uint32",
              "name": "srcEid",
              "type": "uint32"
            },
            {
              "internalType": "bytes32",
              "name": "sender",
              "type": "bytes32"
            },
            {
              "internalType": "uint64",
              "name": "nonce",
              "type": "uint64"
            }
          ],
          "indexed": false,
          "internalType": "struct Origin",
          "name": "origin",
          "type": "tuple"
        },
        {
          "indexed": false,
          "internalType": "address",
          "name": "receiver",
          "type": "address"
        }
      ],
      "name": "PacketDelivered",
      "type": "event"
    },
    {
      "anonymous": false,
      "inputs": [
        {
          "indexed": false,
          "internalType": "address",
          "name": "dvn",
          "type": "address"
        },
        {
          "indexed": false,
          "internalType": "bytes",
          "name": "header",
          "type": "bytes"
        },
        {
          "indexed": false,
          "internalType": "uint256",
          "name": "confirmations",
          "type": "uint256"
        },
        {
          "indexed": false,
          "internalType": "bytes32",
          "name": "proofHash",
          "type": "bytes32"
        }
      ],
      "name": "PayloadVerified",
      "type": "event"
    },
    {
      "anonymous": false,
      "inputs": [
        {
          "indexed": false,
          "internalType": "address",
          "name": "oapp",
          "type": "address"
        },
        {
          "indexed": false,
          "internalType": "uint32",
          "name": "eid",
          "type": "uint32"
        },
        {
          "components": [
            {
              "internalType": "uint64",
              "name": "confirmations",
              "type": "uint64"
            },
            {
              "internalType": "uint8",
              "name": "requiredDVNCount",
              "type": "uint8"
            },
            {
              "internalType": "uint8",
              "name": "optionalDVNCount",
              "type": "uint8"
            },
            {
              "internalType": "uint8",
              "name": "optionalDVNThreshold",
              "type": "uint8"
            },
            {
              "internalType": "address[]",
              "name": "requiredDVNs",
              "type": "address[]"
            },
            {
              "internalType": "address[]",
              "name": "optionalDVNs",
              "type": "address[]"
            }
          ],
          "indexed": false,
          "internalType": "struct UlnConfig",
          "name": "config",
          "type": "tuple"
        }
      ],
      "name": "UlnConfigSet",
      "type": "event"
    },
    {
      "inputs": [
        {
          "internalType": "uint32",
          "name": "dstEid",
          "type": "uint32"
        }
      ],
      "name": "addressSizes",
      "outputs": [
        {
          "internalType": "uint256",
          "name": "size",
          "type": "uint256"
        }
      ],
      "stateMutability": "view",
      "type": "function"
    },
    {
      "inputs": [
        {
          "internalType": "bytes",
          "name": "_packetHeader",
          "type": "bytes"
        },
        {
          "internalType": "uint32",
          "name": "_localEid",
          "type": "uint32"
        }
      ],
      "name": "assertHeader",
      "outputs": [],
      "stateMutability": "pure",
      "type": "function"
    },
    {
      "inputs": [
        {
          "internalType": "bytes",
          "name": "_packet",
          "type": "bytes"
        },
        {
          "internalType": "uint256",
          "name": "_gasLimit",
          "type": "uint256"
        }
      ],
      "name": "commitVerification",
      "outputs": [],
      "stateMutability": "nonpayable",
      "type": "function"
    },
    {
      "inputs": [
        {
          "internalType": "uint32",
          "name": "eid",
          "type": "uint32"
        }
      ],
      "name": "defaultExecutors",
      "outputs": [
        {
          "internalType": "address",
          "name": "executor",
          "type": "address"
        }
      ],
      "stateMutability": "view",
      "type": "function"
    },
    {
      "inputs": [
        {
          "internalType": "address",
          "name": "oapp",
          "type": "address"
        },
        {
          "internalType": "uint32",
          "name": "eid",
          "type": "uint32"
        }
      ],
      "name": "executors",
      "outputs": [
        {
          "internalType": "address",
          "name": "executor",
          "type": "address"
        }
      ],
      "stateMutability": "view",
      "type": "function"
    },
    {
      "inputs": [
        {
          "internalType": "address",
          "name": "_oapp",
          "type": "address"
        },
        {
          "internalType": "uint32",
          "name": "_remoteEid",
          "type": "uint32"
        }
      ],
      "name": "getAppUlnConfig",
      "outputs": [
        {
          "components": [
            {
              "internalType": "uint64",
              "name": "confirmations",
              "type": "uint64"
            },
            {
              "internalType": "uint8",
              "name": "requiredDVNCount",
              "type": "uint8"
            },
            {
              "internalType": "uint8",
              "name": "optionalDVNCount",
              "type": "uint8"
            },
            {
              "internalType": "uint8",
              "name": "optionalDVNThreshold",
              "type": "uint8"
            },
            {
              "internalType": "address[]",
              "name": "requiredDVNs",
              "type": "address[]"
            },
            {
              "internalType": "address[]",
              "name": "optionalDVNs",
              "type": "address[]"
            }
          ],
          "internalType": "struct UlnConfig",
          "name": "",
          "type": "tuple"
        }
      ],
      "stateMutability": "view",
      "type": "function"
    },
    {
      "inputs": [
        {
          "internalType": "uint16",
          "name": "_eid",
          "type": "uint16"
        },
        {
          "internalType": "address",
          "name": "_oapp",
          "type": "address"
        },
        {
          "internalType": "uint256",
          "name": "_configType",
          "type": "uint256"
        }
      ],
      "name": "getConfig",
      "outputs": [
        {
          "internalType": "bytes",
          "name": "",
          "type": "bytes"
        }
      ],
      "stateMutability": "view",
      "type": "function"
    },
    {
      "inputs": [
        {
          "internalType": "address",
          "name": "_oapp",
          "type": "address"
        },
        {
          "internalType": "uint32",
          "name": "_remoteEid",
          "type": "uint32"
        }
      ],
      "name": "getExecutor",
      "outputs": [
        {
          "internalType": "address",
          "name": "",
          "type": "address"
        }
      ],
      "stateMutability": "view",
      "type": "function"
    },
    {
      "inputs": [
        {
          "internalType": "address",
          "name": "_oapp",
          "type": "address"
        },
        {
          "internalType": "uint32",
          "name": "_remoteEid",
          "type": "uint32"
        }
      ],
      "name": "getUlnConfig",
      "outputs": [
        {
          "components": [
            {
              "internalType": "uint64",
              "name": "confirmations",
              "type": "uint64"
            },
            {
              "internalType": "uint8",
              "name": "requiredDVNCount",
              "type": "uint8"
            },
            {
              "internalType": "uint8",
              "name": "optionalDVNCount",
              "type": "uint8"
            },
            {
              "internalType": "uint8",
              "name": "optionalDVNThreshold",
              "type": "uint8"
            },
            {
              "internalType": "address[]",
              "name": "requiredDVNs",
              "type": "address[]"
            },
            {
              "internalType": "address[]",
              "name": "optionalDVNs",
              "type": "address[]"
            }
          ],
          "internalType": "struct UlnConfig",
          "name": "rtnConfig",
          "type": "tuple"
        }
      ],
      "stateMutability": "view",
      "type": "function"
    },
    {
      "inputs": [
        {
          "internalType": "bytes32",
          "name": "headerHash",
          "type": "bytes32"
        },
        {
          "internalType": "bytes32",
          "name": "payloadHash",
          "type": "bytes32"
        },
        {
          "internalType": "address",
          "name": "dvn",
          "type": "address"
        }
      ],
      "name": "hashLookup",
      "outputs": [
        {
          "internalType": "bool",
          "name": "submitted",
          "type": "bool"
        },
        {
          "internalType": "uint64",
          "name": "confirmations",
          "type": "uint64"
        }
      ],
      "stateMutability": "view",
      "type": "function"
    },
    {
      "inputs": [],
      "name": "owner",
      "outputs": [
        {
          "internalType": "address",
          "name": "",
          "type": "address"
        }
      ],
      "stateMutability": "view",
      "type": "function"
    },
    {
      "inputs": [],
      "name": "renounceOwnership",
      "outputs": [],
      "stateMutability": "nonpayable",
      "type": "function"
    },
    {
      "inputs": [
        {
          "internalType": "uint16",
          "name": "_eid",
          "type": "uint16"
        },
        {
          "internalType": "uint256",
          "name": "_size",
          "type": "uint256"
        }
      ],
      "name": "setAddressSize",
      "outputs": [],
      "stateMutability": "nonpayable",
      "type": "function"
    },
    {
      "inputs": [
        {
          "internalType": "uint16",
          "name": "_eid",
          "type": "uint16"
        },
        {
          "internalType": "address",
          "name": "_oapp",
          "type": "address"
        },
        {
          "internalType": "uint256",
          "name": "_configType",
          "type": "uint256"
        },
        {
          "internalType": "bytes",
          "name": "_config",
          "type": "bytes"
        }
      ],
      "name": "setConfig",
      "outputs": [],
      "stateMutability": "nonpayable",
      "type": "function"
    },
    {
      "inputs": [
        {
          "components": [
            {
              "internalType": "uint32",
              "name": "eid",
              "type": "uint32"
            },
            {
              "internalType": "address",
              "name": "executor",
              "type": "address"
            }
          ],
          "internalType": "struct SetDefaultExecutorParam[]",
          "name": "_params",
          "type": "tuple[]"
        }
      ],
      "name": "setDefaultExecutors",
      "outputs": [],
      "stateMutability": "nonpayable",
      "type": "function"
    },
    {
      "inputs": [
        {
          "components": [
            {
              "internalType": "uint32",
              "name": "eid",
              "type": "uint32"
            },
            {
              "components": [
                {
                  "internalType": "uint64",
                  "name": "confirmations",
                  "type": "uint64"
                },
                {
                  "internalType": "uint8",
                  "name": "requiredDVNCount",
                  "type": "uint8"
                },
                {
                  "internalType": "uint8",
                  "name": "optionalDVNCount",
                  "type": "uint8"
                },
                {
                  "internalType": "uint8",
                  "name": "optionalDVNThreshold",
                  "type": "uint8"
                },
                {
                  "internalType": "address[]",
                  "name": "requiredDVNs",
                  "type": "address[]"
                },
                {
                  "internalType": "address[]",
                  "name": "optionalDVNs",
                  "type": "address[]"
                }
              ],
              "internalType": "struct UlnConfig",
              "name": "config",
              "type": "tuple"
            }
          ],
          "internalType": "struct SetDefaultUlnConfigParam[]",
          "name": "_params",
          "type": "tuple[]"
        }
      ],
      "name": "setDefaultUlnConfigs",
      "outputs": [],
      "stateMutability": "nonpayable",
      "type": "function"
    },
    {
      "inputs": [
        {
          "internalType": "address",
          "name": "newOwner",
          "type": "address"
        }
      ],
      "name": "transferOwnership",
      "outputs": [],
      "stateMutability": "nonpayable",
      "type": "function"
    },
    {
      "inputs": [
        {
          "components": [
            {
              "internalType": "uint64",
              "name": "confirmations",
              "type": "uint64"
            },
            {
              "internalType": "uint8",
              "name": "requiredDVNCount",
              "type": "uint8"
            },
            {
              "internalType": "uint8",
              "name": "optionalDVNCount",
              "type": "uint8"
            },
            {
              "internalType": "uint8",
              "name": "optionalDVNThreshold",
              "type": "uint8"
            },
            {
              "internalType": "address[]",
              "name": "requiredDVNs",
              "type": "address[]"
            },
            {
              "internalType": "address[]",
              "name": "optionalDVNs",
              "type": "address[]"
            }
          ],
          "internalType": "struct UlnConfig",
          "name": "_config",
          "type": "tuple"
        },
        {
          "internalType": "bytes32",
          "name": "_headerHash",
          "type": "bytes32"
        },
        {
          "internalType": "bytes32",
          "name": "_payloadHash",
          "type": "bytes32"
        }
      ],
      "name": "verifiable",
      "outputs": [
        {
          "internalType": "bool",
          "name": "",
          "type": "bool"
        }
      ],
      "stateMutability": "view",
      "type": "function"
    },
    {
      "inputs": [
        {
          "internalType": "bytes",
          "name": "_packetHeader",
          "type": "bytes"
        },
        {
          "internalType": "bytes32",
          "name": "_payloadHash",
          "type": "bytes32"
        },
        {
          "internalType": "uint64",
          "name": "_confirmations",
          "type": "uint64"
        }
      ],
      "name": "verify",
      "outputs": [],
      "stateMutability": "nonpayable",
      "type": "function"
    },
    {
      "inputs": [],
      "name": "version",
      "outputs": [
        {
          "internalType": "uint64",
          "name": "major",
          "type": "uint64"
        },
        {
          "internalType": "uint8",
          "name": "minor",
          "type": "uint8"
        },
        {
          "internalType": "uint8",
          "name": "endpointVersion",
          "type": "uint8"
        }
      ],
      "stateMutability": "pure",
      "type": "function"
    }
  ],
  "transactionHash": "0x3dc9d53be34da32ba523b6db9d6f483399900ab2d5cc32f77e49b3176ab1a204",
  "args": [
    "0x0000000000000000000000000000000000000001",
    10106
  ],
  "numDeployments": 1,
  "solcInputHash": "df45c5d73ee7212b45689d2cdbb787f2",
  "bytecode": "0x60c06040523480156200001157600080fd5b5060405162002acd38038062002acd8339810160408190526200003491620000b2565b6001600160a01b03821660805263ffffffff811660a0528181620000583362000062565b5050505062000104565b600080546001600160a01b038381166001600160a01b0319831681178455604051919092169283917f8be0079c531659141344cd1fd0a4f28419497f9722a3daafe3b4186f6b6457e09190a35050565b60008060408385031215620000c657600080fd5b82516001600160a01b0381168114620000de57600080fd5b602084015190925063ffffffff81168114620000f957600080fd5b809150509250929050565b60805160a05161299c620001316000396000610c70015260008181610ddf0152611823015261299c6000f3fe608060405234801561001057600080fd5b506004361061012c5760003560e01c80636d26e5d0116100ad578063c40ff83511610071578063c40ff83514610329578063e084d9521461033c578063e65106f81461035f578063f2fde38b14610372578063f8e1734c1461038557600080fd5b80636d26e5d0146102b6578063715018a6146102c95780638da5cb5b146102d15780639653a704146102e257806398678a11146102f557600080fd5b806339e928a8116100f457806339e928a8146101ed5780633c782a521461020057806343ea4fa91461026357806352d2871f1461027657806354fd4d501461029657600080fd5b80630223536e146101315780630f8355c01461014657806329460b0b146101795780632fed39ae1461018c57806339e3f938146101cd575b600080fd5b61014461013f366004611d4a565b610398565b005b610166610154366004611dba565b60036020526000908152604090205481565b6040519081526020015b60405180910390f35b610144610187366004611dd5565b6103aa565b6101b561019a366004611dba565b6005602052600090815260409020546001600160a01b031681565b6040516001600160a01b039091168152602001610170565b6101e06101db366004611e5e565b610542565b6040516101709190611f49565b6101446101fb366004611f5c565b61067e565b61024461020e366004611fbe565b600260209081526000938452604080852082529284528284209052825290205460ff81169061010090046001600160401b031682565b6040805192151583526001600160401b03909116602083015201610170565b6101e0610271366004611e5e565b610781565b610289610284366004612009565b610a8d565b6040516101709190612098565b604080516003815260006020820152600191810191909152606001610170565b6101446102c43660046120ab565b610b1f565b610144610bc6565b6000546001600160a01b03166101b5565b6101b56102f0366004611e5e565b610bda565b6101b5610303366004611e5e565b60046020908152600092835260408084209091529082529020546001600160a01b031681565b6101446103373660046120d5565b610c3b565b61034f61034a3660046122cf565b610c4b565b6040519015158152602001610170565b61014461036d36600461231c565b610c58565b610144610380366004612367565b610d64565b610144610393366004612384565b610ddd565b6103a484848484610e9f565b50505050565b6103b2610f85565b60005b8181101561050457368383838181106103d0576103d06123f4565b90506020028101906103e2919061240a565b905060ff6103f3602083018361242a565b610404906040810190602001612440565b60ff1603610425576040516341d50bed60e11b815260040160405180910390fd5b60ff610434602083018361242a565b610445906060810190604001612440565b60ff16036104665760405163211089b360e11b815260040160405180910390fd5b6001600160401b0361047b602083018361242a565b61048990602081019061245b565b6001600160401b0316036104b05760405163281b33d760e11b815260040160405180910390fd5b6104ce6104c0602083018361242a565b6104c990612476565b610fdf565b6104fb60006104e06020840184611dba565b6104ed602085018561242a565b6104f690612476565b611017565b506001016103b5565b507faaf3aaa0c11056e86ac56eb653e25b005ca1a7d4dcd21ba24647f7ab63f3b5608282604051610536929190612508565b60405180910390a15050565b61054a611c34565b6001600160a01b038316600090815260016020818152604080842063ffffffff87168552825292839020835160c08101855281546001600160401b038116825260ff600160401b8204811683860152600160481b8204811683880152600160501b909104166060820152928101805485518185028101850190965280865293949193608086019383018282801561060a57602002820191906000526020600020905b81546001600160a01b031681526001909101906020018083116105ec575b505050505081526020016002820180548060200260200160405190810160405280929190818152602001828054801561066c57602002820191906000526020600020905b81546001600160a01b0316815260019091019060200180831161064e575b50505050508152505090505b92915050565b610686610f85565b60005b8181101561074f57368383838181106106a4576106a46123f4565b905060400201905060006001600160a01b03168160200160208101906106ca9190612367565b6001600160a01b0316036106f157604051631074e82d60e11b815260040160405180910390fd5b6107016040820160208301612367565b600560006107126020850185611dba565b63ffffffff168152602081019190915260400160002080546001600160a01b0319166001600160a01b039290921691909117905550600101610689565b507f2a2676897ce6724d11fb8016f9bcdfe9fe564bc3524411d5df7914aac78aeeb3828260405161053692919061264a565b610789611c34565b63ffffffff821660008181527fa6eef7e35abe7026729641147f7915573c7e97b47efa546f5f6e3230263bcb49602090815260408083206001600160a01b03881684526001835281842094845293909152902080546001600160401b0316806107fe5782546001600160401b0316845261081b565b6001600160401b038181161461081b576001600160401b03811684525b8154600160401b900460ff166108b5578254600160401b900460ff16156108b0578260010180548060200260200160405190810160405280929190818152602001828054801561089457602002820191906000526020600020905b81546001600160a01b03168152600190910190602001808311610876575b505050505060808501528254600160401b900460ff1660208501525b61093c565b8154600160401b900460ff9081161461093c578160010180548060200260200160405190810160405280929190818152602001828054801561092057602002820191906000526020600020905b81546001600160a01b03168152600190910190602001808311610902575b505050505060808501528154600160401b900460ff1660208501525b8154600160481b900460ff166109e5578254600160481b900460ff16156109e057826002018054806020026020016040519081016040528092919081815260200182805480156109b557602002820191906000526020600020905b81546001600160a01b03168152600190910190602001808311610997575b505050505060a0850152825460ff600160481b820481166040870152600160501b9091041660608501525b610a7b565b8154600160481b900460ff90811614610a7b5781600201805480602002602001604051908101604052809291908181526020018280548015610a5057602002820191906000526020600020905b81546001600160a01b03168152600190910190602001808311610a32575b505050505060a0850152815460ff600160481b820481166040870152600160501b9091041660608501525b610a8484610fdf565b50505092915050565b606060018203610ad157610aa5838561ffff16610bda565b604080516001600160a01b039092166020830152015b6040516020818303038152906040529050610b18565b60028203610af757610ae7838561ffff16610781565b604051602001610abb9190611f49565b604051630c509b5b60e01b8152600481018390526024015b60405180910390fd5b9392505050565b610b27610f85565b6020811115610b4957604051636f85e1b760e01b815260040160405180910390fd5b61ffff821660009081526003602052604090205415610b7b5760405163e4df7bef60e01b815260040160405180910390fd5b61ffff8216600081815260036020908152604091829020849055815192835282018390527ee9ab3709e58edd0db46318d63673d8ae4681fa3e51d9f9dc07cde5109ff7489101610536565b610bce610f85565b610bd860006112b0565b565b6001600160a01b03808316600090815260046020908152604080832063ffffffff8616845290915281205490911680610c315763ffffffff83166000908152600560205260409020546001600160a01b0316610c33565b805b949350505050565b610c46838383611300565b505050565b6000610c33848484611383565b366000610c65858561148c565b91509150610c9482827f0000000000000000000000000000000000000000000000000000000000000000611300565b6000610ca086866114a8565b90506000610cbc610cb188886114ba565b63ffffffff166114dd565b90506000610cce838361ffff16610781565b9050610cfb818686604051610ce49291906126b0565b6040518091039020610cf68b8b611544565b61156e565b610d5a82610d098a8a6116be565b85610d148c8c6116d7565b610d1e8d8d6116fa565b8080601f0160208091040260200160405190810160405280939291908181526020018383808284376000920191909152508e925061170a915050565b5050505050505050565b610d6c610f85565b6001600160a01b038116610dd15760405162461bcd60e51b815260206004820152602660248201527f4f776e61626c653a206e6577206f776e657220697320746865207a65726f206160448201526564647265737360d01b6064820152608401610b0f565b610dda816112b0565b50565b7f00000000000000000000000000000000000000000000000000000000000000006001600160a01b03163314610e265760405163467409c360e01b815260040160405180910390fd5b610e338561ffff1661191d565b60018303610e5a57610e5561ffff861685610e5084860186612367565b61194b565b610e98565b60028303610e7c57610e5561ffff861685610e77848601866126c0565b6119d1565b604051630c509b5b60e01b815260048101849052602401610b0f565b5050505050565b604080518082018252600181526001600160401b03831660208201529051600290600090610ed090889088906126b0565b604080519182900390912082526020808301939093529081016000908120868252835281812033808352908452908290208451815495909401516001600160401b03166101000268ffffffffffffffff00199415159490941668ffffffffffffffffff19909516949094179290921790925590517f2cb0eed7538baeae4c6fde038c0fd0384d27de0dd55a228c65847bda6aa1ab5691610f779187908790869088906126f4565b60405180910390a150505050565b6000546001600160a01b03163314610bd85760405162461bcd60e51b815260206004820181905260248201527f4f776e61626c653a2063616c6c6572206973206e6f7420746865206f776e65726044820152606401610b0f565b602081015160ff16158015610ff95750606081015160ff16155b15610dda5760405163ce2c375160e01b815260040160405180910390fd5b602081015160ff90811614806110325750602081015160ff16155b15611060576080810151511561105b576040516341d50bed60e11b815260040160405180910390fd5b6110c6565b806020015160ff1681608001515114158061109b57506002611084600160ff612764565b61108e919061277d565b60ff16816020015160ff16115b156110b9576040516341d50bed60e11b815260040160405180910390fd5b6110c68160800151611a1a565b604081015160ff90811614806110e15750604081015160ff16155b156111355760a0810151511561110a5760405163211089b360e11b815260040160405180910390fd5b606081015160ff1615611130576040516338682fa960e01b815260040160405180910390fd5b6111da565b806040015160ff168160a001515114158061117057506002611159600160ff612764565b611163919061277d565b60ff16816040015160ff16115b1561118e5760405163211089b360e11b815260040160405180910390fd5b606081015160ff1615806111af5750806040015160ff16816060015160ff16115b156111cd576040516338682fa960e01b815260040160405180910390fd5b6111da8160a00151611a1a565b6001600160a01b038316600090815260016020818152604080842063ffffffff8716855282529283902084518154868401519587015160608801516001600160401b0390931668ffffffffffffffffff1990921691909117600160401b60ff97881602176affff0000000000000000001916600160481b9187169190910260ff60501b191617600160501b95909116949094029390931783556080840151805185949361128c93908501920190611c7c565b5060a082015180516112a8916002840191602090910190611c7c565b505050505050565b600080546001600160a01b038381166001600160a01b0319831681178455604051919092169283917f8be0079c531659141344cd1fd0a4f28419497f9722a3daafe3b4186f6b6457e09190a35050565b605182146113215760405163c9bf37b760e01b815260040160405180910390fd5b600161132d8484611a81565b60ff161461134e57604051633a9ae7b960e01b815260040160405180910390fd5b8063ffffffff1661135f8484611aa3565b63ffffffff1614610c465760405163216964bf60e11b815260040160405180910390fd5b602083015160009060ff16156114065760005b846020015160ff168160ff1610156113ee576113d885608001518260ff16815181106113c4576113c46123f4565b602002602001015185858860000151611ab3565b6113e6576000915050610b18565b600101611396565b50836040015160ff1660000361140657506001610b18565b606084015160005b856040015160ff168160ff161015611480576114508660a001518260ff168151811061143c5761143c6123f4565b602002602001015186868960000151611ab3565b15611478578161145f816127ad565b9250508160ff1660000361147857600192505050610b18565b60010161140e565b50600095945050505050565b36600061149c60518285876127ca565b915091505b9250929050565b6000610b186114b78484611b32565b90565b60006114ca600d600984866127ca565b6114d3916127f4565b60e01c9392505050565b600061ffff8211156115405760405162461bcd60e51b815260206004820152602660248201527f53616665436173743a2076616c756520646f65736e27742066697420696e203160448201526536206269747360d01b6064820152608401610b0f565b5090565b60006115508383611b42565b60405161155e9291906126b0565b6040518091039020905092915050565b611579838383611383565b6115965760405163130c463560e21b815260040160405180910390fd5b602083015160ff161561162b5760005b836020015160ff168160ff16101561162957600083815260026020908152604080832085845290915281206080860151805191929160ff85169081106115ee576115ee6123f4565b6020908102919091018101516001600160a01b03168252810191909152604001600020805468ffffffffffffffffff191690556001016115a6565b505b604083015160ff1615610c465760005b836040015160ff168160ff1610156103a4576000838152600260209081526040808320858452909152812060a0860151805191929160ff8516908110611683576116836123f4565b6020908102919091018101516001600160a01b03168252810191909152604001600020805468ffffffffffffffffff1916905560010161163b565b60006116ce602d600d84866127ca565b610b1891612824565b60006116e76009600184866127ca565b6116f091612842565b60c01c9392505050565b36600061149c83607181876127ca565b611718848761ffff16610bda565b6001600160a01b0316336001600160a01b03161461174957604051635b9c369960e11b815260040160405180910390fd5b836001600160a01b03163b6000036117cb57836001600160a01b03168661ffff167feca5e9e3d49c3ee9d9362efa82baa91c668a7f032b3a403638ae65e273680136878686805190602001206040516117be939291909283526001600160401b03919091166020830152604082015260600190565b60405180910390a36112a8565b61ffff86166000908152600360205260408120546117ea908790611b52565b856040516020016117fc929190612870565b60408051601f198184030181529082905263c2fa481360e01b825291506001600160a01b037f0000000000000000000000000000000000000000000000000000000000000000169063c2fa481390611862908a9085908a908a9089908b906004016128a7565b600060405180830381600087803b15801561187c57600080fd5b505af1158015611890573d6000803e3d6000fd5b5050604080516060808201835261ffff8c1680835260208084018d81526001600160401b038c811686880190815287519485529151928401929092525116938101939093526001600160a01b038a169083015292507f3cd5e48f9730b129dc7550f0fcea9c767b7be37837cd10e55eb35f734f4bca04915060800160405180910390a15050505050505050565b61192681611bd9565b610dda57604051633c30434160e21b815263ffffffff82166004820152602401610b0f565b6001600160a01b03828116600081815260046020908152604080832063ffffffff89168085529083529281902080546001600160a01b03191695871695861790558051938452908301919091528101919091527f2bef5fe6b6383925f8e9893d464521c5fcd4f9d4dc14d32d900849c5ae0af710906060015b60405180910390a1505050565b6119dc828483611017565b6119e68284610781565b507f82118522aa536ac0e96cc5c689407ae42b89d592aa133890a01f1509842f50818284836040516119c493929190612908565b6000805b8251811015610c46576000838281518110611a3b57611a3b6123f4565b60200260200101519050826001600160a01b0316816001600160a01b031611611a775760405163447516e160e01b815260040160405180910390fd5b9150600101611a1e565b6000611a9060018284866127ca565b611a9991612938565b60f81c9392505050565b60006114ca6031602d84866127ca565b600083815260026020908152604080832085845282528083206001600160a01b0388168452825280832081518083019092525460ff81161580158084526101009092046001600160401b0316938301939093529091611b285750826001600160401b031681602001516001600160401b031610155b9695505050505050565b60006116ce6051603184866127ca565b36600061149c83605181876127ca565b6060811580611b615750602082115b15611b7f576040516318456c9b60e01b815260040160405180910390fd5b816001600160401b03811115611b9757611b97612128565b6040519080825280601f01601f191660200182016040528015611bc1576020820181803683370190505b506008909202610100039290921b6020820152919050565b63ffffffff811660009081527fa6eef7e35abe7026729641147f7915573c7e97b47efa546f5f6e3230263bcb49602052604081208054600160401b900460ff16151580610b18575054600160501b900460ff16151592915050565b6040518060c0016040528060006001600160401b03168152602001600060ff168152602001600060ff168152602001600060ff16815260200160608152602001606081525090565b828054828255906000526020600020908101928215611cd1579160200282015b82811115611cd157825182546001600160a01b0319166001600160a01b03909116178255602090920191600190910190611c9c565b506115409291505b808211156115405760008155600101611cd9565b60008083601f840112611cff57600080fd5b5081356001600160401b03811115611d1657600080fd5b6020830191508360208285010111156114a157600080fd5b80356001600160401b0381168114611d4557600080fd5b919050565b60008060008060608587031215611d6057600080fd5b84356001600160401b03811115611d7657600080fd5b611d8287828801611ced565b90955093505060208501359150611d9b60408601611d2e565b905092959194509250565b803563ffffffff81168114611d4557600080fd5b600060208284031215611dcc57600080fd5b610b1882611da6565b60008060208385031215611de857600080fd5b82356001600160401b0380821115611dff57600080fd5b818501915085601f830112611e1357600080fd5b813581811115611e2257600080fd5b8660208260051b8501011115611e3757600080fd5b60209290920196919550909350505050565b6001600160a01b0381168114610dda57600080fd5b60008060408385031215611e7157600080fd5b8235611e7c81611e49565b9150611e8a60208401611da6565b90509250929050565b60008151808452602080850194506020840160005b83811015611ecd5781516001600160a01b031687529582019590820190600101611ea8565b509495945050505050565b6001600160401b03815116825260ff602082015116602083015260ff604082015116604083015260ff60608201511660608301526000608082015160c06080850152611f2760c0850182611e93565b905060a083015184820360a0860152611f408282611e93565b95945050505050565b602081526000610b186020830184611ed8565b60008060208385031215611f6f57600080fd5b82356001600160401b0380821115611f8657600080fd5b818501915085601f830112611f9a57600080fd5b813581811115611fa957600080fd5b8660208260061b8501011115611e3757600080fd5b600080600060608486031215611fd357600080fd5b83359250602084013591506040840135611fec81611e49565b809150509250925092565b803561ffff81168114611d4557600080fd5b60008060006060848603121561201e57600080fd5b61202784611ff7565b9250602084013561203781611e49565b929592945050506040919091013590565b60005b8381101561206357818101518382015260200161204b565b50506000910152565b60008151808452612084816020860160208601612048565b601f01601f19169290920160200192915050565b602081526000610b18602083018461206c565b600080604083850312156120be57600080fd5b6120c783611ff7565b946020939093013593505050565b6000806000604084860312156120ea57600080fd5b83356001600160401b0381111561210057600080fd5b61210c86828701611ced565b909450925061211f905060208501611da6565b90509250925092565b634e487b7160e01b600052604160045260246000fd5b60405160c081016001600160401b038111828210171561216057612160612128565b60405290565b803560ff81168114611d4557600080fd5b600082601f83011261218857600080fd5b813560206001600160401b03808311156121a4576121a4612128565b8260051b604051601f19603f830116810181811084821117156121c9576121c9612128565b60405293845260208187018101949081019250878511156121e957600080fd5b6020870191505b8482101561221257813561220381611e49565b835291830191908301906121f0565b979650505050505050565b600060c0828403121561222f57600080fd5b61223761213e565b905061224282611d2e565b815261225060208301612166565b602082015261226160408301612166565b604082015261227260608301612166565b606082015260808201356001600160401b038082111561229157600080fd5b61229d85838601612177565b608084015260a08401359150808211156122b657600080fd5b506122c384828501612177565b60a08301525092915050565b6000806000606084860312156122e457600080fd5b83356001600160401b038111156122fa57600080fd5b6123068682870161221d565b9660208601359650604090950135949350505050565b60008060006040848603121561233157600080fd5b83356001600160401b0381111561234757600080fd5b61235386828701611ced565b909790965060209590950135949350505050565b60006020828403121561237957600080fd5b8135610c3181611e49565b60008060008060006080868803121561239c57600080fd5b6123a586611ff7565b945060208601356123b581611e49565b93506040860135925060608601356001600160401b038111156123d757600080fd5b6123e388828901611ced565b969995985093965092949392505050565b634e487b7160e01b600052603260045260246000fd5b60008235603e1983360301811261242057600080fd5b9190910192915050565b6000823560be1983360301811261242057600080fd5b60006020828403121561245257600080fd5b610b1882612166565b60006020828403121561246d57600080fd5b610b1882611d2e565b6000610678368361221d565b6000808335601e1984360301811261249957600080fd5b83016020810192503590506001600160401b038111156124b857600080fd5b8060051b36038213156114a157600080fd5b8183526000602080850194508260005b85811015611ecd5781356124ed81611e49565b6001600160a01b0316875295820195908201906001016124da565b60208082528181018390526000906040808401600586901b8501820187855b8881101561263c57603f19808985030185528235603e198c360301811261254d57600080fd5b8b0163ffffffff61255d82611da6565b1685528781013560be1982360301811261257657600080fd5b858901889052016001600160401b0361258e82611d2e565b168786015261259e888201612166565b606060ff808316828901526125b48a8501612166565b92506080818416818a01526125ca838601612166565b935060a09250818416838a01526125e381860186612482565b60c08b810152945091506125fe9050610100890184836124ca565b92505061260d81840184612482565b93509050838783030160e08801526126268284836124ca565b978a019796505050928701925050600101612527565b509098975050505050505050565b6020808252818101839052600090604080840186845b878110156126a35763ffffffff61267683611da6565b1683528482013561268681611e49565b6001600160a01b0316838601529183019190830190600101612660565b5090979650505050505050565b8183823760009101908152919050565b6000602082840312156126d257600080fd5b81356001600160401b038111156126e857600080fd5b610c338482850161221d565b6001600160a01b03861681526080602082018190528101849052838560a0830137600060a08583010152600060a0601f19601f87011683010190506001600160401b03841660408301528260608301529695505050505050565b634e487b7160e01b600052601160045260246000fd5b60ff82811682821603908111156106785761067861274e565b600060ff83168061279e57634e487b7160e01b600052601260045260246000fd5b8060ff84160491505092915050565b600060ff8216806127c0576127c061274e565b6000190192915050565b600080858511156127da57600080fd5b838611156127e757600080fd5b5050820193919092039150565b6001600160e01b0319813581811691600485101561281c5780818660040360031b1b83161692505b505092915050565b8035602083101561067857600019602084900360031b1b1692915050565b6001600160c01b0319813581811691600885101561281c5760089490940360031b84901b1690921692915050565b60008351612882818460208801612048565b60609390931b6bffffffffffffffffffffffff19169190920190815260140192915050565b61ffff8716815260c0602082015260006128c460c083018861206c565b6001600160a01b03871660408401526001600160401b03861660608401526080830185905282810360a08401526128fb818561206c565b9998505050505050505050565b6001600160a01b038416815263ffffffff83166020820152606060408201819052600090611f4090830184611ed8565b6001600160f81b0319813581811691600185101561281c5760019490940360031b84901b169092169291505056fea26469706673582212206dbb6248d92f745c52013632c77e1f19030ac2c60c2dadefc3887859efc1ecf464736f6c63430008160033",
  "devdoc": {
    "details": "ULN301 will be deployed on EndpointV1 and is for backward compatibility with ULN302 on EndpointV2. 301 can talk to both 301 and 302This is a gluing contract. It simply parses the requests and forward to the super.impl() accordingly.In this case, it combines the logic of ReceiveUlnBase and ReceiveLibBaseE1",
    "kind": "dev",
    "methods": {
      "commitVerification(bytes,uint256)": {
        "details": "in 301, this is equivalent to execution as in Endpoint V2dont need to check endpoint verifiable here to save gas, as it will reverts if not verifiable."
      },
      "getAppUlnConfig(address,uint32)": {
        "details": "Get the uln config without the default config for the given remoteEid."
      },
      "owner()": {
        "details": "Returns the address of the current owner."
      },
      "renounceOwnership()": {
        "details": "Leaves the contract without owner. It will not be possible to call `onlyOwner` functions. Can only be called by the current owner. NOTE: Renouncing ownership will leave the contract without an owner, thereby disabling any functionality that is only available to the owner."
      },
      "setDefaultUlnConfigs((uint32,(uint64,uint8,uint8,uint8,address[],address[]))[])": {
        "details": "about the DEFAULT ULN config 1) its values are all LITERAL (e.g. 0 is 0). whereas in the oapp ULN config, 0 (default value) points to the default ULN config     this design enables the oapp to point to DEFAULT config without explicitly setting the config 2) its configuration is more restrictive than the oapp ULN config that     a) it must not use NIL value, where NIL is used only by oapps to indicate the LITERAL 0     b) it must have at least one DVN"
      },
      "transferOwnership(address)": {
        "details": "Transfers ownership of the contract to a new account (`newOwner`). Can only be called by the current owner."
      }
    },
    "version": 1
  },
  "userdoc": {
    "kind": "user",
    "methods": {},
    "version": 1
  },
  "storageLayout": {
    "storage": [
      {
        "astId": 7924,
        "contract": "contracts/messagelib/contracts/uln/uln301/ReceiveUln301.sol:ReceiveUln301",
        "label": "_owner",
        "offset": 0,
        "slot": "0",
        "type": "t_address"
      },
      {
        "astId": 20352,
        "contract": "contracts/messagelib/contracts/uln/uln301/ReceiveUln301.sol:ReceiveUln301",
        "label": "ulnConfigs",
        "offset": 0,
        "slot": "1",
        "type": "t_mapping(t_address,t_mapping(t_uint32,t_struct(UlnConfig)20301_storage))"
      },
      {
        "astId": 19426,
        "contract": "contracts/messagelib/contracts/uln/uln301/ReceiveUln301.sol:ReceiveUln301",
        "label": "hashLookup",
        "offset": 0,
        "slot": "2",
        "type": "t_mapping(t_bytes32,t_mapping(t_bytes32,t_mapping(t_address,t_struct(Verification)19411_storage)))"
      },
      {
        "astId": 26573,
        "contract": "contracts/messagelib/contracts/uln/uln301/ReceiveUln301.sol:ReceiveUln301",
        "label": "addressSizes",
        "offset": 0,
        "slot": "3",
        "type": "t_mapping(t_uint32,t_uint256)"
      },
      {
        "astId": 26677,
        "contract": "contracts/messagelib/contracts/uln/uln301/ReceiveUln301.sol:ReceiveUln301",
        "label": "executors",
        "offset": 0,
        "slot": "4",
        "type": "t_mapping(t_address,t_mapping(t_uint32,t_address))"
      },
      {
        "astId": 26681,
        "contract": "contracts/messagelib/contracts/uln/uln301/ReceiveUln301.sol:ReceiveUln301",
        "label": "defaultExecutors",
        "offset": 0,
        "slot": "5",
        "type": "t_mapping(t_uint32,t_address)"
      }
    ],
    "types": {
      "t_address": {
        "encoding": "inplace",
        "label": "address",
        "numberOfBytes": "20"
      },
      "t_array(t_address)dyn_storage": {
        "base": "t_address",
        "encoding": "dynamic_array",
        "label": "address[]",
        "numberOfBytes": "32"
      },
      "t_bool": {
        "encoding": "inplace",
        "label": "bool",
        "numberOfBytes": "1"
      },
      "t_bytes32": {
        "encoding": "inplace",
        "label": "bytes32",
        "numberOfBytes": "32"
      },
      "t_mapping(t_address,t_mapping(t_uint32,t_address))": {
        "encoding": "mapping",
        "key": "t_address",
        "label": "mapping(address => mapping(uint32 => address))",
        "numberOfBytes": "32",
        "value": "t_mapping(t_uint32,t_address)"
      },
      "t_mapping(t_address,t_mapping(t_uint32,t_struct(UlnConfig)20301_storage))": {
        "encoding": "mapping",
        "key": "t_address",
        "label": "mapping(address => mapping(uint32 => struct UlnConfig))",
        "numberOfBytes": "32",
        "value": "t_mapping(t_uint32,t_struct(UlnConfig)20301_storage)"
      },
      "t_mapping(t_address,t_struct(Verification)19411_storage)": {
        "encoding": "mapping",
        "key": "t_address",
        "label": "mapping(address => struct Verification)",
        "numberOfBytes": "32",
        "value": "t_struct(Verification)19411_storage"
      },
      "t_mapping(t_bytes32,t_mapping(t_address,t_struct(Verification)19411_storage))": {
        "encoding": "mapping",
        "key": "t_bytes32",
        "label": "mapping(bytes32 => mapping(address => struct Verification))",
        "numberOfBytes": "32",
        "value": "t_mapping(t_address,t_struct(Verification)19411_storage)"
      },
      "t_mapping(t_bytes32,t_mapping(t_bytes32,t_mapping(t_address,t_struct(Verification)19411_storage)))": {
        "encoding": "mapping",
        "key": "t_bytes32",
        "label": "mapping(bytes32 => mapping(bytes32 => mapping(address => struct Verification)))",
        "numberOfBytes": "32",
        "value": "t_mapping(t_bytes32,t_mapping(t_address,t_struct(Verification)19411_storage))"
      },
      "t_mapping(t_uint32,t_address)": {
        "encoding": "mapping",
        "key": "t_uint32",
        "label": "mapping(uint32 => address)",
        "numberOfBytes": "32",
        "value": "t_address"
      },
      "t_mapping(t_uint32,t_struct(UlnConfig)20301_storage)": {
        "encoding": "mapping",
        "key": "t_uint32",
        "label": "mapping(uint32 => struct UlnConfig)",
        "numberOfBytes": "32",
        "value": "t_struct(UlnConfig)20301_storage"
      },
      "t_mapping(t_uint32,t_uint256)": {
        "encoding": "mapping",
        "key": "t_uint32",
        "label": "mapping(uint32 => uint256)",
        "numberOfBytes": "32",
        "value": "t_uint256"
      },
      "t_struct(UlnConfig)20301_storage": {
        "encoding": "inplace",
        "label": "struct UlnConfig",
        "members": [
          {
            "astId": 20288,
            "contract": "contracts/messagelib/contracts/uln/uln301/ReceiveUln301.sol:ReceiveUln301",
            "label": "confirmations",
            "offset": 0,
            "slot": "0",
            "type": "t_uint64"
          },
          {
            "astId": 20290,
            "contract": "contracts/messagelib/contracts/uln/uln301/ReceiveUln301.sol:ReceiveUln301",
            "label": "requiredDVNCount",
            "offset": 8,
            "slot": "0",
            "type": "t_uint8"
          },
          {
            "astId": 20292,
            "contract": "contracts/messagelib/contracts/uln/uln301/ReceiveUln301.sol:ReceiveUln301",
            "label": "optionalDVNCount",
            "offset": 9,
            "slot": "0",
            "type": "t_uint8"
          },
          {
            "astId": 20294,
            "contract": "contracts/messagelib/contracts/uln/uln301/ReceiveUln301.sol:ReceiveUln301",
            "label": "optionalDVNThreshold",
            "offset": 10,
            "slot": "0",
            "type": "t_uint8"
          },
          {
            "astId": 20297,
            "contract": "contracts/messagelib/contracts/uln/uln301/ReceiveUln301.sol:ReceiveUln301",
            "label": "requiredDVNs",
            "offset": 0,
            "slot": "1",
            "type": "t_array(t_address)dyn_storage"
          },
          {
            "astId": 20300,
            "contract": "contracts/messagelib/contracts/uln/uln301/ReceiveUln301.sol:ReceiveUln301",
            "label": "optionalDVNs",
            "offset": 0,
            "slot": "2",
            "type": "t_array(t_address)dyn_storage"
          }
        ],
        "numberOfBytes": "96"
      },
      "t_struct(Verification)19411_storage": {
        "encoding": "inplace",
        "label": "struct Verification",
        "members": [
          {
            "astId": 19408,
            "contract": "contracts/messagelib/contracts/uln/uln301/ReceiveUln301.sol:ReceiveUln301",
            "label": "submitted",
            "offset": 0,
            "slot": "0",
            "type": "t_bool"
          },
          {
            "astId": 19410,
            "contract": "contracts/messagelib/contracts/uln/uln301/ReceiveUln301.sol:ReceiveUln301",
            "label": "confirmations",
            "offset": 1,
            "slot": "0",
            "type": "t_uint64"
          }
        ],
        "numberOfBytes": "32"
      },
      "t_uint256": {
        "encoding": "inplace",
        "label": "uint256",
        "numberOfBytes": "32"
      },
      "t_uint32": {
        "encoding": "inplace",
        "label": "uint32",
        "numberOfBytes": "4"
      },
      "t_uint64": {
        "encoding": "inplace",
        "label": "uint64",
        "numberOfBytes": "8"
      },
      "t_uint8": {
        "encoding": "inplace",
        "label": "uint8",
        "numberOfBytes": "1"
      }
    }
  }
}