{
  "address": "0xEcDfD631Bdd95C350f1e5d0809DE316014c31E2b",
  "abi": [
    {
      "inputs": [
        {
          "internalType": "address",
          "name": "_endpoint",
          "type": "address"
        }
      ],
      "stateMutability": "nonpayable",
      "type": "constructor"
    },
    {
      "inputs": [],
      "name": "LZ_MessageLib_OnlyEndpoint",
      "type": "error"
    },
    {
      "inputs": [],
      "name": "LZ_ULN_AtLeastOneDVN",
      "type": "error"
    },
    {
      "inputs": [
        {
          "internalType": "uint32",
          "name": "configType",
          "type": "uint32"
        }
      ],
      "name": "LZ_ULN_InvalidConfigType",
      "type": "error"
    },
    {
      "inputs": [],
      "name": "LZ_ULN_InvalidConfirmations",
      "type": "error"
    },
    {
      "inputs": [],
      "name": "LZ_ULN_InvalidEid",
      "type": "error"
    },
    {
      "inputs": [],
      "name": "LZ_ULN_InvalidOptionalDVNCount",
      "type": "error"
    },
    {
      "inputs": [],
      "name": "LZ_ULN_InvalidOptionalDVNThreshold",
      "type": "error"
    },
    {
      "inputs": [],
      "name": "LZ_ULN_InvalidPacketHeader",
      "type": "error"
    },
    {
      "inputs": [],
      "name": "LZ_ULN_InvalidPacketVersion",
      "type": "error"
    },
    {
      "inputs": [],
      "name": "LZ_ULN_InvalidRequiredDVNCount",
      "type": "error"
    },
    {
      "inputs": [],
      "name": "LZ_ULN_Unsorted",
      "type": "error"
    },
    {
      "inputs": [
        {
          "internalType": "uint32",
          "name": "eid",
          "type": "uint32"
        }
      ],
      "name": "LZ_ULN_UnsupportedEid",
      "type": "error"
    },
    {
      "inputs": [],
      "name": "LZ_ULN_Verifying",
      "type": "error"
    },
    {
      "anonymous": false,
      "inputs": [
        {
          "components": [
            {
              "internalType": "uint32",
              "name": "eid",
              "type": "uint32"
            },
            {
              "components": [
                {
                  "internalType": "uint64",
                  "name": "confirmations",
                  "type": "uint64"
                },
                {
                  "internalType": "uint8",
                  "name": "requiredDVNCount",
                  "type": "uint8"
                },
                {
                  "internalType": "uint8",
                  "name": "optionalDVNCount",
                  "type": "uint8"
                },
                {
                  "internalType": "uint8",
                  "name": "optionalDVNThreshold",
                  "type": "uint8"
                },
                {
                  "internalType": "address[]",
                  "name": "requiredDVNs",
                  "type": "address[]"
                },
                {
                  "internalType": "address[]",
                  "name": "optionalDVNs",
                  "type": "address[]"
                }
              ],
              "internalType": "struct UlnConfig",
              "name": "config",
              "type": "tuple"
            }
          ],
          "indexed": false,
          "internalType": "struct SetDefaultUlnConfigParam[]",
          "name": "params",
          "type": "tuple[]"
        }
      ],
      "name": "DefaultUlnConfigsSet",
      "type": "event"
    },
    {
      "anonymous": false,
      "inputs": [
        {
          "indexed": true,
          "internalType": "address",
          "name": "previousOwner",
          "type": "address"
        },
        {
          "indexed": true,
          "internalType": "address",
          "name": "newOwner",
          "type": "address"
        }
      ],
      "name": "OwnershipTransferred",
      "type": "event"
    },
    {
      "anonymous": false,
      "inputs": [
        {
          "indexed": false,
          "internalType": "address",
          "name": "dvn",
          "type": "address"
        },
        {
          "indexed": false,
          "internalType": "bytes",
          "name": "header",
          "type": "bytes"
        },
        {
          "indexed": false,
          "internalType": "uint256",
          "name": "confirmations",
          "type": "uint256"
        },
        {
          "indexed": false,
          "internalType": "bytes32",
          "name": "proofHash",
          "type": "bytes32"
        }
      ],
      "name": "PayloadVerified",
      "type": "event"
    },
    {
      "anonymous": false,
      "inputs": [
        {
          "indexed": false,
          "internalType": "address",
          "name": "oapp",
          "type": "address"
        },
        {
          "indexed": false,
          "internalType": "uint32",
          "name": "eid",
          "type": "uint32"
        },
        {
          "components": [
            {
              "internalType": "uint64",
              "name": "confirmations",
              "type": "uint64"
            },
            {
              "internalType": "uint8",
              "name": "requiredDVNCount",
              "type": "uint8"
            },
            {
              "internalType": "uint8",
              "name": "optionalDVNCount",
              "type": "uint8"
            },
            {
              "internalType": "uint8",
              "name": "optionalDVNThreshold",
              "type": "uint8"
            },
            {
              "internalType": "address[]",
              "name": "requiredDVNs",
              "type": "address[]"
            },
            {
              "internalType": "address[]",
              "name": "optionalDVNs",
              "type": "address[]"
            }
          ],
          "indexed": false,
          "internalType": "struct UlnConfig",
          "name": "config",
          "type": "tuple"
        }
      ],
      "name": "UlnConfigSet",
      "type": "event"
    },
    {
      "inputs": [
        {
          "internalType": "bytes",
          "name": "_packetHeader",
          "type": "bytes"
        },
        {
          "internalType": "uint32",
          "name": "_localEid",
          "type": "uint32"
        }
      ],
      "name": "assertHeader",
      "outputs": [],
      "stateMutability": "pure",
      "type": "function"
    },
    {
      "inputs": [
        {
          "internalType": "bytes",
          "name": "_packetHeader",
          "type": "bytes"
        },
        {
          "internalType": "bytes32",
          "name": "_payloadHash",
          "type": "bytes32"
        }
      ],
      "name": "commitVerification",
      "outputs": [],
      "stateMutability": "nonpayable",
      "type": "function"
    },
    {
      "inputs": [
        {
          "internalType": "address",
          "name": "_oapp",
          "type": "address"
        },
        {
          "internalType": "uint32",
          "name": "_remoteEid",
          "type": "uint32"
        }
      ],
      "name": "getAppUlnConfig",
      "outputs": [
        {
          "components": [
            {
              "internalType": "uint64",
              "name": "confirmations",
              "type": "uint64"
            },
            {
              "internalType": "uint8",
              "name": "requiredDVNCount",
              "type": "uint8"
            },
            {
              "internalType": "uint8",
              "name": "optionalDVNCount",
              "type": "uint8"
            },
            {
              "internalType": "uint8",
              "name": "optionalDVNThreshold",
              "type": "uint8"
            },
            {
              "internalType": "address[]",
              "name": "requiredDVNs",
              "type": "address[]"
            },
            {
              "internalType": "address[]",
              "name": "optionalDVNs",
              "type": "address[]"
            }
          ],
          "internalType": "struct UlnConfig",
          "name": "",
          "type": "tuple"
        }
      ],
      "stateMutability": "view",
      "type": "function"
    },
    {
      "inputs": [
        {
          "internalType": "uint32",
          "name": "_eid",
          "type": "uint32"
        },
        {
          "internalType": "address",
          "name": "_oapp",
          "type": "address"
        },
        {
          "internalType": "uint32",
          "name": "_configType",
          "type": "uint32"
        }
      ],
      "name": "getConfig",
      "outputs": [
        {
          "internalType": "bytes",
          "name": "",
          "type": "bytes"
        }
      ],
      "stateMutability": "view",
      "type": "function"
    },
    {
      "inputs": [
        {
          "internalType": "address",
          "name": "_oapp",
          "type": "address"
        },
        {
          "internalType": "uint32",
          "name": "_remoteEid",
          "type": "uint32"
        }
      ],
      "name": "getUlnConfig",
      "outputs": [
        {
          "components": [
            {
              "internalType": "uint64",
              "name": "confirmations",
              "type": "uint64"
            },
            {
              "internalType": "uint8",
              "name": "requiredDVNCount",
              "type": "uint8"
            },
            {
              "internalType": "uint8",
              "name": "optionalDVNCount",
              "type": "uint8"
            },
            {
              "internalType": "uint8",
              "name": "optionalDVNThreshold",
              "type": "uint8"
            },
            {
              "internalType": "address[]",
              "name": "requiredDVNs",
              "type": "address[]"
            },
            {
              "internalType": "address[]",
              "name": "optionalDVNs",
              "type": "address[]"
            }
          ],
          "internalType": "struct UlnConfig",
          "name": "rtnConfig",
          "type": "tuple"
        }
      ],
      "stateMutability": "view",
      "type": "function"
    },
    {
      "inputs": [
        {
          "internalType": "bytes32",
          "name": "headerHash",
          "type": "bytes32"
        },
        {
          "internalType": "bytes32",
          "name": "payloadHash",
          "type": "bytes32"
        },
        {
          "internalType": "address",
          "name": "dvn",
          "type": "address"
        }
      ],
      "name": "hashLookup",
      "outputs": [
        {
          "internalType": "bool",
          "name": "submitted",
          "type": "bool"
        },
        {
          "internalType": "uint64",
          "name": "confirmations",
          "type": "uint64"
        }
      ],
      "stateMutability": "view",
      "type": "function"
    },
    {
      "inputs": [
        {
          "internalType": "uint32",
          "name": "_eid",
          "type": "uint32"
        }
      ],
      "name": "isSupportedEid",
      "outputs": [
        {
          "internalType": "bool",
          "name": "",
          "type": "bool"
        }
      ],
      "stateMutability": "view",
      "type": "function"
    },
    {
      "inputs": [],
      "name": "messageLibType",
      "outputs": [
        {
          "internalType": "enum MessageLibType",
          "name": "",
          "type": "uint8"
        }
      ],
      "stateMutability": "pure",
      "type": "function"
    },
    {
      "inputs": [],
      "name": "owner",
      "outputs": [
        {
          "internalType": "address",
          "name": "",
          "type": "address"
        }
      ],
      "stateMutability": "view",
      "type": "function"
    },
    {
      "inputs": [],
      "name": "renounceOwnership",
      "outputs": [],
      "stateMutability": "nonpayable",
      "type": "function"
    },
    {
      "inputs": [
        {
          "internalType": "address",
          "name": "_oapp",
          "type": "address"
        },
        {
          "components": [
            {
              "internalType": "uint32",
              "name": "eid",
              "type": "uint32"
            },
            {
              "internalType": "uint32",
              "name": "configType",
              "type": "uint32"
            },
            {
              "internalType": "bytes",
              "name": "config",
              "type": "bytes"
            }
          ],
          "internalType": "struct SetConfigParam[]",
          "name": "_params",
          "type": "tuple[]"
        }
      ],
      "name": "setConfig",
      "outputs": [],
      "stateMutability": "nonpayable",
      "type": "function"
    },
    {
      "inputs": [
        {
          "components": [
            {
              "internalType": "uint32",
              "name": "eid",
              "type": "uint32"
            },
            {
              "components": [
                {
                  "internalType": "uint64",
                  "name": "confirmations",
                  "type": "uint64"
                },
                {
                  "internalType": "uint8",
                  "name": "requiredDVNCount",
                  "type": "uint8"
                },
                {
                  "internalType": "uint8",
                  "name": "optionalDVNCount",
                  "type": "uint8"
                },
                {
                  "internalType": "uint8",
                  "name": "optionalDVNThreshold",
                  "type": "uint8"
                },
                {
                  "internalType": "address[]",
                  "name": "requiredDVNs",
                  "type": "address[]"
                },
                {
                  "internalType": "address[]",
                  "name": "optionalDVNs",
                  "type": "address[]"
                }
              ],
              "internalType": "struct UlnConfig",
              "name": "config",
              "type": "tuple"
            }
          ],
          "internalType": "struct SetDefaultUlnConfigParam[]",
          "name": "_params",
          "type": "tuple[]"
        }
      ],
      "name": "setDefaultUlnConfigs",
      "outputs": [],
      "stateMutability": "nonpayable",
      "type": "function"
    },
    {
      "inputs": [
        {
          "internalType": "bytes4",
          "name": "_interfaceId",
          "type": "bytes4"
        }
      ],
      "name": "supportsInterface",
      "outputs": [
        {
          "internalType": "bool",
          "name": "",
          "type": "bool"
        }
      ],
      "stateMutability": "view",
      "type": "function"
    },
    {
      "inputs": [
        {
          "internalType": "address",
          "name": "newOwner",
          "type": "address"
        }
      ],
      "name": "transferOwnership",
      "outputs": [],
      "stateMutability": "nonpayable",
      "type": "function"
    },
    {
      "inputs": [
        {
          "components": [
            {
              "internalType": "uint64",
              "name": "confirmations",
              "type": "uint64"
            },
            {
              "internalType": "uint8",
              "name": "requiredDVNCount",
              "type": "uint8"
            },
            {
              "internalType": "uint8",
              "name": "optionalDVNCount",
              "type": "uint8"
            },
            {
              "internalType": "uint8",
              "name": "optionalDVNThreshold",
              "type": "uint8"
            },
            {
              "internalType": "address[]",
              "name": "requiredDVNs",
              "type": "address[]"
            },
            {
              "internalType": "address[]",
              "name": "optionalDVNs",
              "type": "address[]"
            }
          ],
          "internalType": "struct UlnConfig",
          "name": "_config",
          "type": "tuple"
        },
        {
          "internalType": "bytes32",
          "name": "_headerHash",
          "type": "bytes32"
        },
        {
          "internalType": "bytes32",
          "name": "_payloadHash",
          "type": "bytes32"
        }
      ],
      "name": "verifiable",
      "outputs": [
        {
          "internalType": "bool",
          "name": "",
          "type": "bool"
        }
      ],
      "stateMutability": "view",
      "type": "function"
    },
    {
      "inputs": [
        {
          "internalType": "bytes",
          "name": "_packetHeader",
          "type": "bytes"
        },
        {
          "internalType": "bytes32",
          "name": "_payloadHash",
          "type": "bytes32"
        },
        {
          "internalType": "uint64",
          "name": "_confirmations",
          "type": "uint64"
        }
      ],
      "name": "verify",
      "outputs": [],
      "stateMutability": "nonpayable",
      "type": "function"
    },
    {
      "inputs": [],
      "name": "version",
      "outputs": [
        {
          "internalType": "uint64",
          "name": "major",
          "type": "uint64"
        },
        {
          "internalType": "uint8",
          "name": "minor",
          "type": "uint8"
        },
        {
          "internalType": "uint8",
          "name": "endpointVersion",
          "type": "uint8"
        }
      ],
      "stateMutability": "pure",
      "type": "function"
    }
  ],
  "transactionHash": "0xcc35719088c263ecbde17fd6bda66678bb697a2d5c353e0ffde812f7f3ad33ee",
  "args": [
    "0x1260AdfaFCad76834BaEB4693724067A0C19cA62"
  ],
  "numDeployments": 1,
  "solcInputHash": "df45c5d73ee7212b45689d2cdbb787f2",
  "bytecode": "0x60c06040523480156200001157600080fd5b506040516200248138038062002481833981016040819052620000349162000116565b8080816001600160a01b031663416ecebf6040518163ffffffff1660e01b8152600401602060405180830381865afa15801562000075573d6000803e3d6000fd5b505050506040513d601f19601f820116820180604052508101906200009b919062000148565b620000a633620000c6565b6001600160a01b0390911660805263ffffffff1660a05250620001709050565b600080546001600160a01b038381166001600160a01b0319831681178455604051919092169283917f8be0079c531659141344cd1fd0a4f28419497f9722a3daafe3b4186f6b6457e09190a35050565b6000602082840312156200012957600080fd5b81516001600160a01b03811681146200014157600080fd5b9392505050565b6000602082840312156200015b57600080fd5b815163ffffffff811681146200014157600080fd5b60805160a0516122e46200019d600039600061031e01526000818161041b015261048401526122e46000f3fe608060405234801561001057600080fd5b506004361061010b5760003560e01c806343ea4fa9116100a25780638da5cb5b116100715780638da5cb5b146102665780639c33abf714610281578063c40ff835146102a1578063e084d952146102b4578063f2fde38b146102c757600080fd5b806343ea4fa91461021857806354fd4d501461022b5780636750cd4c1461024b578063715018a61461025e57600080fd5b806320efd722116100de57806320efd7221461016f57806329460b0b1461018257806339e3f938146101955780633c782a52146101b557600080fd5b806301ffc9a7146101105780630223536e146101385780630894edf11461014d5780631881d94d14610160575b600080fd5b61012361011e366004611755565b6102da565b60405190151581526020015b60405180910390f35b61014b6101463660046117e3565b610305565b005b61014b61015b36600461183f565b610317565b600160405161012f919061188a565b61014b61017d36600461190d565b610482565b61014b61019036600461195f565b6105a4565b6101a86101a33660046119b4565b61073c565b60405161012f9190611a9d565b6101f96101c3366004611ab0565b600260209081526000938452604080852082529284528284209052825290205460ff81169061010090046001600160401b031682565b6040805192151583526001600160401b0390911660208301520161012f565b6101a86102263660046119b4565b610877565b60408051600381526000602082015260029181019190915260600161012f565b610123610259366004611ae5565b610b83565b61014b610b8e565b6000546040516001600160a01b03909116815260200161012f565b61029461028f366004611b00565b610ba2565b60405161012f9190611b3a565b61014b6102af366004611b89565b610c0b565b6101236102c2366004611d78565b610c1b565b61014b6102d5366004611dc5565b610c30565b60006001600160e01b03198216630ab7be9f60e01b14806102ff57506102ff82610ca9565b92915050565b61031184848484610cde565b50505050565b61034283837f0000000000000000000000000000000000000000000000000000000000000000610dc4565b600061034e8484610e47565b9050600061035c8585610e59565b9050600061036a8383610877565b905061038e818787604051610380929190611de0565b604051809103902086610e7c565b600060405180606001604052808463ffffffff1681526020016103b18989610fcc565b81526020016103c08989610fe5565b6001600160401b039081169091526040805163a825d74760e01b8152835163ffffffff166004820152602084015160248201529083015190911660448201526001600160a01b038681166064830152608482018890529192507f00000000000000000000000000000000000000000000000000000000000000009091169063a825d7479060a401600060405180830381600087803b15801561046157600080fd5b505af1158015610475573d6000803e3d6000fd5b5050505050505050505050565b7f00000000000000000000000000000000000000000000000000000000000000006001600160a01b031633146104cb5760405163467409c360e01b815260040160405180910390fd5b60005b8181101561031157368383838181106104e9576104e9611df0565b90506020028101906104fb9190611e06565b905061051261050d6020830183611ae5565b611008565b60026105246040830160208401611ae5565b63ffffffff16036105645761055f61053f6020830183611ae5565b8661054d6040850185611e26565b81019061055a9190611e6c565b611036565b61059b565b6105746040820160208301611ae5565b604051635d4be0fd60e11b815263ffffffff90911660048201526024015b60405180910390fd5b506001016104ce565b6105ac61108c565b60005b818110156106fe57368383838181106105ca576105ca611df0565b90506020028101906105dc9190611ea0565b905060ff6105ed6020830183611eb6565b6105fe906040810190602001611ecc565b60ff160361061f576040516341d50bed60e11b815260040160405180910390fd5b60ff61062e6020830183611eb6565b61063f906060810190604001611ecc565b60ff16036106605760405163211089b360e11b815260040160405180910390fd5b6001600160401b036106756020830183611eb6565b610683906020810190611ee7565b6001600160401b0316036106aa5760405163281b33d760e11b815260040160405180910390fd5b6106c86106ba6020830183611eb6565b6106c390611f02565b6110e6565b6106f560006106da6020840184611ae5565b6106e76020850185611eb6565b6106f090611f02565b61111e565b506001016105af565b507faaf3aaa0c11056e86ac56eb653e25b005ca1a7d4dcd21ba24647f7ab63f3b5608282604051610730929190611f92565b60405180910390a15050565b610744611693565b6001600160a01b038316600090815260016020818152604080842063ffffffff87168552825292839020835160c08101855281546001600160401b038116825260ff600160401b8204811683860152600160481b8204811683880152600160501b909104166060820152928101805485518185028101850190965280865293949193608086019383018282801561080457602002820191906000526020600020905b81546001600160a01b031681526001909101906020018083116107e6575b505050505081526020016002820180548060200260200160405190810160405280929190818152602001828054801561086657602002820191906000526020600020905b81546001600160a01b03168152600190910190602001808311610848575b505050505081525050905092915050565b61087f611693565b63ffffffff821660008181527fa6eef7e35abe7026729641147f7915573c7e97b47efa546f5f6e3230263bcb49602090815260408083206001600160a01b03881684526001835281842094845293909152902080546001600160401b0316806108f45782546001600160401b03168452610911565b6001600160401b0381811614610911576001600160401b03811684525b8154600160401b900460ff166109ab578254600160401b900460ff16156109a6578260010180548060200260200160405190810160405280929190818152602001828054801561098a57602002820191906000526020600020905b81546001600160a01b0316815260019091019060200180831161096c575b505050505060808501528254600160401b900460ff1660208501525b610a32565b8154600160401b900460ff90811614610a325781600101805480602002602001604051908101604052809291908181526020018280548015610a1657602002820191906000526020600020905b81546001600160a01b031681526001909101906020018083116109f8575b505050505060808501528154600160401b900460ff1660208501525b8154600160481b900460ff16610adb578254600160481b900460ff1615610ad65782600201805480602002602001604051908101604052809291908181526020018280548015610aab57602002820191906000526020600020905b81546001600160a01b03168152600190910190602001808311610a8d575b505050505060a0850152825460ff600160481b820481166040870152600160501b9091041660608501525b610b71565b8154600160481b900460ff90811614610b715781600201805480602002602001604051908101604052809291908181526020018280548015610b4657602002820191906000526020600020905b81546001600160a01b03168152600190910190602001808311610b28575b505050505060a0850152815460ff600160481b820481166040870152600160501b9091041660608501525b610b7a846110e6565b50505092915050565b60006102ff826113b7565b610b9661108c565b610ba06000611412565b565b606060011963ffffffff831601610be357610bbd8385610877565b604051602001610bcd9190611a9d565b6040516020818303038152906040529050610c04565b604051635d4be0fd60e11b815263ffffffff83166004820152602401610592565b9392505050565b610c16838383610dc4565b505050565b6000610c28848484611462565b949350505050565b610c3861108c565b6001600160a01b038116610c9d5760405162461bcd60e51b815260206004820152602660248201527f4f776e61626c653a206e6577206f776e657220697320746865207a65726f206160448201526564647265737360d01b6064820152608401610592565b610ca681611412565b50565b60006001600160e01b031982166325fc096160e21b14806102ff57506301ffc9a760e01b6001600160e01b03198316146102ff565b604080518082018252600181526001600160401b03831660208201529051600290600090610d0f9088908890611de0565b604080519182900390912082526020808301939093529081016000908120868252835281812033808352908452908290208451815495909401516001600160401b03166101000268ffffffffffffffff00199415159490941668ffffffffffffffffff19909516949094179290921790925590517f2cb0eed7538baeae4c6fde038c0fd0384d27de0dd55a228c65847bda6aa1ab5691610db69187908790869088906120d4565b60405180910390a150505050565b60518214610de55760405163c9bf37b760e01b815260040160405180910390fd5b6001610df1848461156b565b60ff1614610e1257604051633a9ae7b960e01b815260040160405180910390fd5b8063ffffffff16610e23848461158d565b63ffffffff1614610c165760405163216964bf60e11b815260040160405180910390fd5b6000610c04610e56848461159d565b90565b6000610e69600d6009848661212e565b610e7291612158565b60e01c9392505050565b610e87838383611462565b610ea45760405163130c463560e21b815260040160405180910390fd5b602083015160ff1615610f395760005b836020015160ff168160ff161015610f3757600083815260026020908152604080832085845290915281206080860151805191929160ff8516908110610efc57610efc611df0565b6020908102919091018101516001600160a01b03168252810191909152604001600020805468ffffffffffffffffff19169055600101610eb4565b505b604083015160ff1615610c165760005b836040015160ff168160ff161015610311576000838152600260209081526040808320858452909152812060a0860151805191929160ff8516908110610f9157610f91611df0565b6020908102919091018101516001600160a01b03168252810191909152604001600020805468ffffffffffffffffff19169055600101610f49565b6000610fdc602d600d848661212e565b610c0491612188565b6000610ff560096001848661212e565b610ffe916121a6565b60c01c9392505050565b611011816113b7565b610ca657604051633c30434160e21b815263ffffffff82166004820152602401610592565b61104182848361111e565b61104b8284610877565b507f82118522aa536ac0e96cc5c689407ae42b89d592aa133890a01f1509842f508182848360405161107f939291906121d4565b60405180910390a1505050565b6000546001600160a01b03163314610ba05760405162461bcd60e51b815260206004820181905260248201527f4f776e61626c653a2063616c6c6572206973206e6f7420746865206f776e65726044820152606401610592565b602081015160ff161580156111005750606081015160ff16155b15610ca65760405163ce2c375160e01b815260040160405180910390fd5b602081015160ff90811614806111395750602081015160ff16155b156111675760808101515115611162576040516341d50bed60e11b815260040160405180910390fd5b6111cd565b806020015160ff168160800151511415806111a25750600261118b600160ff61221a565b6111959190612233565b60ff16816020015160ff16115b156111c0576040516341d50bed60e11b815260040160405180910390fd5b6111cd81608001516115ad565b604081015160ff90811614806111e85750604081015160ff16155b1561123c5760a081015151156112115760405163211089b360e11b815260040160405180910390fd5b606081015160ff1615611237576040516338682fa960e01b815260040160405180910390fd5b6112e1565b806040015160ff168160a001515114158061127757506002611260600160ff61221a565b61126a9190612233565b60ff16816040015160ff16115b156112955760405163211089b360e11b815260040160405180910390fd5b606081015160ff1615806112b65750806040015160ff16816060015160ff16115b156112d4576040516338682fa960e01b815260040160405180910390fd5b6112e18160a001516115ad565b6001600160a01b038316600090815260016020818152604080842063ffffffff8716855282529283902084518154868401519587015160608801516001600160401b0390931668ffffffffffffffffff1990921691909117600160401b60ff97881602176affff0000000000000000001916600160481b9187169190910260ff60501b191617600160501b959091169490940293909317835560808401518051859493611393939085019201906116db565b5060a082015180516113af9160028401916020909101906116db565b505050505050565b63ffffffff811660009081527fa6eef7e35abe7026729641147f7915573c7e97b47efa546f5f6e3230263bcb49602052604081208054600160401b900460ff16151580610c04575054600160501b900460ff16151592915050565b600080546001600160a01b038381166001600160a01b0319831681178455604051919092169283917f8be0079c531659141344cd1fd0a4f28419497f9722a3daafe3b4186f6b6457e09190a35050565b602083015160009060ff16156114e55760005b846020015160ff168160ff1610156114cd576114b785608001518260ff16815181106114a3576114a3611df0565b602002602001015185858860000151611614565b6114c5576000915050610c04565b600101611475565b50836040015160ff166000036114e557506001610c04565b606084015160005b856040015160ff168160ff16101561155f5761152f8660a001518260ff168151811061151b5761151b611df0565b602002602001015186868960000151611614565b15611557578161153e81612263565b9250508160ff1660000361155757600192505050610c04565b6001016114ed565b50600095945050505050565b600061157a600182848661212e565b61158391612280565b60f81c9392505050565b6000610e696031602d848661212e565b6000610fdc60516031848661212e565b6000805b8251811015610c165760008382815181106115ce576115ce611df0565b60200260200101519050826001600160a01b0316816001600160a01b03161161160a5760405163447516e160e01b815260040160405180910390fd5b91506001016115b1565b600083815260026020908152604080832085845282528083206001600160a01b0388168452825280832081518083019092525460ff81161580158084526101009092046001600160401b03169383019390935290916116895750826001600160401b031681602001516001600160401b031610155b9695505050505050565b6040518060c0016040528060006001600160401b03168152602001600060ff168152602001600060ff168152602001600060ff16815260200160608152602001606081525090565b828054828255906000526020600020908101928215611730579160200282015b8281111561173057825182546001600160a01b0319166001600160a01b039091161782556020909201916001909101906116fb565b5061173c929150611740565b5090565b5b8082111561173c5760008155600101611741565b60006020828403121561176757600080fd5b81356001600160e01b031981168114610c0457600080fd5b60008083601f84011261179157600080fd5b5081356001600160401b038111156117a857600080fd5b6020830191508360208285010111156117c057600080fd5b9250929050565b80356001600160401b03811681146117de57600080fd5b919050565b600080600080606085870312156117f957600080fd5b84356001600160401b0381111561180f57600080fd5b61181b8782880161177f565b90955093505060208501359150611834604086016117c7565b905092959194509250565b60008060006040848603121561185457600080fd5b83356001600160401b0381111561186a57600080fd5b6118768682870161177f565b909790965060209590950135949350505050565b60208101600383106118ac57634e487b7160e01b600052602160045260246000fd5b91905290565b80356001600160a01b03811681146117de57600080fd5b60008083601f8401126118db57600080fd5b5081356001600160401b038111156118f257600080fd5b6020830191508360208260051b85010111156117c057600080fd5b60008060006040848603121561192257600080fd5b61192b846118b2565b925060208401356001600160401b0381111561194657600080fd5b611952868287016118c9565b9497909650939450505050565b6000806020838503121561197257600080fd5b82356001600160401b0381111561198857600080fd5b611994858286016118c9565b90969095509350505050565b803563ffffffff811681146117de57600080fd5b600080604083850312156119c757600080fd5b6119d0836118b2565b91506119de602084016119a0565b90509250929050565b60008151808452602080850194506020840160005b83811015611a215781516001600160a01b0316875295820195908201906001016119fc565b509495945050505050565b6001600160401b03815116825260ff602082015116602083015260ff604082015116604083015260ff60608201511660608301526000608082015160c06080850152611a7b60c08501826119e7565b905060a083015184820360a0860152611a9482826119e7565b95945050505050565b602081526000610c046020830184611a2c565b600080600060608486031215611ac557600080fd5b8335925060208401359150611adc604085016118b2565b90509250925092565b600060208284031215611af757600080fd5b610c04826119a0565b600080600060608486031215611b1557600080fd5b611b1e846119a0565b9250611b2c602085016118b2565b9150611adc604085016119a0565b60006020808352835180602085015260005b81811015611b6857858101830151858201604001528201611b4c565b506000604082860101526040601f19601f8301168501019250505092915050565b600080600060408486031215611b9e57600080fd5b83356001600160401b03811115611bb457600080fd5b611bc08682870161177f565b9094509250611adc9050602085016119a0565b634e487b7160e01b600052604160045260246000fd5b60405160c081016001600160401b0381118282101715611c0b57611c0b611bd3565b60405290565b803560ff811681146117de57600080fd5b600082601f830112611c3357600080fd5b813560206001600160401b0380831115611c4f57611c4f611bd3565b8260051b604051601f19603f83011681018181108482111715611c7457611c74611bd3565b6040529384526020818701810194908101925087851115611c9457600080fd5b6020870191505b84821015611cbb57611cac826118b2565b83529183019190830190611c9b565b979650505050505050565b600060c08284031215611cd857600080fd5b611ce0611be9565b9050611ceb826117c7565b8152611cf960208301611c11565b6020820152611d0a60408301611c11565b6040820152611d1b60608301611c11565b606082015260808201356001600160401b0380821115611d3a57600080fd5b611d4685838601611c22565b608084015260a0840135915080821115611d5f57600080fd5b50611d6c84828501611c22565b60a08301525092915050565b600080600060608486031215611d8d57600080fd5b83356001600160401b03811115611da357600080fd5b611daf86828701611cc6565b9660208601359650604090950135949350505050565b600060208284031215611dd757600080fd5b610c04826118b2565b8183823760009101908152919050565b634e487b7160e01b600052603260045260246000fd5b60008235605e19833603018112611e1c57600080fd5b9190910192915050565b6000808335601e19843603018112611e3d57600080fd5b8301803591506001600160401b03821115611e5757600080fd5b6020019150368190038213156117c057600080fd5b600060208284031215611e7e57600080fd5b81356001600160401b03811115611e9457600080fd5b610c2884828501611cc6565b60008235603e19833603018112611e1c57600080fd5b6000823560be19833603018112611e1c57600080fd5b600060208284031215611ede57600080fd5b610c0482611c11565b600060208284031215611ef957600080fd5b610c04826117c7565b60006102ff3683611cc6565b6000808335601e19843603018112611f2557600080fd5b83016020810192503590506001600160401b03811115611f4457600080fd5b8060051b36038213156117c057600080fd5b8183526000602080850194508260005b85811015611a21576001600160a01b03611f7f836118b2565b1687529582019590820190600101611f66565b60208082528181018390526000906040808401600586901b8501820187855b888110156120c657603f19808985030185528235603e198c3603018112611fd757600080fd5b8b0163ffffffff611fe7826119a0565b1685528781013560be1982360301811261200057600080fd5b858901889052016001600160401b03612018826117c7565b1687860152612028888201611c11565b606060ff8083168289015261203e8a8501611c11565b92506080818416818a0152612054838601611c11565b935060a09250818416838a015261206d81860186611f0e565b60c08b81015294509150612088905061010089018483611f56565b92505061209781840184611f0e565b93509050838783030160e08801526120b0828483611f56565b978a019796505050928701925050600101611fb1565b509098975050505050505050565b6001600160a01b03861681526080602082018190528101849052838560a0830137600060a08583010152600060a0601f19601f87011683010190506001600160401b03841660408301528260608301529695505050505050565b6000808585111561213e57600080fd5b8386111561214b57600080fd5b5050820193919092039150565b6001600160e01b031981358181169160048510156121805780818660040360031b1b83161692505b505092915050565b803560208310156102ff57600019602084900360031b1b1692915050565b6001600160c01b031981358181169160088510156121805760089490940360031b84901b1690921692915050565b6001600160a01b038416815263ffffffff83166020820152606060408201819052600090611a9490830184611a2c565b634e487b7160e01b600052601160045260246000fd5b60ff82811682821603908111156102ff576102ff612204565b600060ff83168061225457634e487b7160e01b600052601260045260246000fd5b8060ff84160491505092915050565b600060ff82168061227657612276612204565b6000190192915050565b6001600160f81b031981358181169160018510156121805760019490940360031b84901b169092169291505056fea26469706673582212208dbba963c71856a7633afdde05502b8526bebdc2fef884aa7b3e00aa3f94744064736f6c63430008160033",
  "devdoc": {
    "details": "This is a gluing contract. It simply parses the requests and forward to the super.impl() accordingly.In this case, it combines the logic of ReceiveUlnBase and ReceiveLibBaseE2",
    "kind": "dev",
    "methods": {
      "commitVerification(bytes,bytes32)": {
        "details": "dont need to check endpoint verifiable here to save gas, as it will reverts if not verifiable."
      },
      "getAppUlnConfig(address,uint32)": {
        "details": "Get the uln config without the default config for the given remoteEid."
      },
      "owner()": {
        "details": "Returns the address of the current owner."
      },
      "renounceOwnership()": {
        "details": "Leaves the contract without owner. It will not be possible to call `onlyOwner` functions. Can only be called by the current owner. NOTE: Renouncing ownership will leave the contract without an owner, thereby disabling any functionality that is only available to the owner."
      },
      "setDefaultUlnConfigs((uint32,(uint64,uint8,uint8,uint8,address[],address[]))[])": {
        "details": "about the DEFAULT ULN config 1) its values are all LITERAL (e.g. 0 is 0). whereas in the oapp ULN config, 0 (default value) points to the default ULN config     this design enables the oapp to point to DEFAULT config without explicitly setting the config 2) its configuration is more restrictive than the oapp ULN config that     a) it must not use NIL value, where NIL is used only by oapps to indicate the LITERAL 0     b) it must have at least one DVN"
      },
      "transferOwnership(address)": {
        "details": "Transfers ownership of the contract to a new account (`newOwner`). Can only be called by the current owner."
      },
      "verify(bytes,bytes32,uint64)": {
        "details": "for dvn to verify the payload"
      }
    },
    "stateVariables": {
      "CONFIG_TYPE_ULN": {
        "details": "CONFIG_TYPE_ULN=2 here to align with SendUln302/ReceiveUln302/ReceiveUln301"
      }
    },
    "version": 1
  },
  "userdoc": {
    "kind": "user",
    "methods": {},
    "version": 1
  },
  "storageLayout": {
    "storage": [
      {
        "astId": 7924,
        "contract": "contracts/messagelib/contracts/uln/uln302/ReceiveUln302.sol:ReceiveUln302",
        "label": "_owner",
        "offset": 0,
        "slot": "0",
        "type": "t_address"
      },
      {
        "astId": 20352,
        "contract": "contracts/messagelib/contracts/uln/uln302/ReceiveUln302.sol:ReceiveUln302",
        "label": "ulnConfigs",
        "offset": 0,
        "slot": "1",
        "type": "t_mapping(t_address,t_mapping(t_uint32,t_struct(UlnConfig)20301_storage))"
      },
      {
        "astId": 19426,
        "contract": "contracts/messagelib/contracts/uln/uln302/ReceiveUln302.sol:ReceiveUln302",
        "label": "hashLookup",
        "offset": 0,
        "slot": "2",
        "type": "t_mapping(t_bytes32,t_mapping(t_bytes32,t_mapping(t_address,t_struct(Verification)19411_storage)))"
      }
    ],
    "types": {
      "t_address": {
        "encoding": "inplace",
        "label": "address",
        "numberOfBytes": "20"
      },
      "t_array(t_address)dyn_storage": {
        "base": "t_address",
        "encoding": "dynamic_array",
        "label": "address[]",
        "numberOfBytes": "32"
      },
      "t_bool": {
        "encoding": "inplace",
        "label": "bool",
        "numberOfBytes": "1"
      },
      "t_bytes32": {
        "encoding": "inplace",
        "label": "bytes32",
        "numberOfBytes": "32"
      },
      "t_mapping(t_address,t_mapping(t_uint32,t_struct(UlnConfig)20301_storage))": {
        "encoding": "mapping",
        "key": "t_address",
        "label": "mapping(address => mapping(uint32 => struct UlnConfig))",
        "numberOfBytes": "32",
        "value": "t_mapping(t_uint32,t_struct(UlnConfig)20301_storage)"
      },
      "t_mapping(t_address,t_struct(Verification)19411_storage)": {
        "encoding": "mapping",
        "key": "t_address",
        "label": "mapping(address => struct Verification)",
        "numberOfBytes": "32",
        "value": "t_struct(Verification)19411_storage"
      },
      "t_mapping(t_bytes32,t_mapping(t_address,t_struct(Verification)19411_storage))": {
        "encoding": "mapping",
        "key": "t_bytes32",
        "label": "mapping(bytes32 => mapping(address => struct Verification))",
        "numberOfBytes": "32",
        "value": "t_mapping(t_address,t_struct(Verification)19411_storage)"
      },
      "t_mapping(t_bytes32,t_mapping(t_bytes32,t_mapping(t_address,t_struct(Verification)19411_storage)))": {
        "encoding": "mapping",
        "key": "t_bytes32",
        "label": "mapping(bytes32 => mapping(bytes32 => mapping(address => struct Verification)))",
        "numberOfBytes": "32",
        "value": "t_mapping(t_bytes32,t_mapping(t_address,t_struct(Verification)19411_storage))"
      },
      "t_mapping(t_uint32,t_struct(UlnConfig)20301_storage)": {
        "encoding": "mapping",
        "key": "t_uint32",
        "label": "mapping(uint32 => struct UlnConfig)",
        "numberOfBytes": "32",
        "value": "t_struct(UlnConfig)20301_storage"
      },
      "t_struct(UlnConfig)20301_storage": {
        "encoding": "inplace",
        "label": "struct UlnConfig",
        "members": [
          {
            "astId": 20288,
            "contract": "contracts/messagelib/contracts/uln/uln302/ReceiveUln302.sol:ReceiveUln302",
            "label": "confirmations",
            "offset": 0,
            "slot": "0",
            "type": "t_uint64"
          },
          {
            "astId": 20290,
            "contract": "contracts/messagelib/contracts/uln/uln302/ReceiveUln302.sol:ReceiveUln302",
            "label": "requiredDVNCount",
            "offset": 8,
            "slot": "0",
            "type": "t_uint8"
          },
          {
            "astId": 20292,
            "contract": "contracts/messagelib/contracts/uln/uln302/ReceiveUln302.sol:ReceiveUln302",
            "label": "optionalDVNCount",
            "offset": 9,
            "slot": "0",
            "type": "t_uint8"
          },
          {
            "astId": 20294,
            "contract": "contracts/messagelib/contracts/uln/uln302/ReceiveUln302.sol:ReceiveUln302",
            "label": "optionalDVNThreshold",
            "offset": 10,
            "slot": "0",
            "type": "t_uint8"
          },
          {
            "astId": 20297,
            "contract": "contracts/messagelib/contracts/uln/uln302/ReceiveUln302.sol:ReceiveUln302",
            "label": "requiredDVNs",
            "offset": 0,
            "slot": "1",
            "type": "t_array(t_address)dyn_storage"
          },
          {
            "astId": 20300,
            "contract": "contracts/messagelib/contracts/uln/uln302/ReceiveUln302.sol:ReceiveUln302",
            "label": "optionalDVNs",
            "offset": 0,
            "slot": "2",
            "type": "t_array(t_address)dyn_storage"
          }
        ],
        "numberOfBytes": "96"
      },
      "t_struct(Verification)19411_storage": {
        "encoding": "inplace",
        "label": "struct Verification",
        "members": [
          {
            "astId": 19408,
            "contract": "contracts/messagelib/contracts/uln/uln302/ReceiveUln302.sol:ReceiveUln302",
            "label": "submitted",
            "offset": 0,
            "slot": "0",
            "type": "t_bool"
          },
          {
            "astId": 19410,
            "contract": "contracts/messagelib/contracts/uln/uln302/ReceiveUln302.sol:ReceiveUln302",
            "label": "confirmations",
            "offset": 1,
            "slot": "0",
            "type": "t_uint64"
          }
        ],
        "numberOfBytes": "32"
      },
      "t_uint32": {
        "encoding": "inplace",
        "label": "uint32",
        "numberOfBytes": "4"
      },
      "t_uint64": {
        "encoding": "inplace",
        "label": "uint64",
        "numberOfBytes": "8"
      },
      "t_uint8": {
        "encoding": "inplace",
        "label": "uint8",
        "numberOfBytes": "1"
      }
    }
  }
}