{
  "address": "0x415709126014b68A10f83a4f1f0AC2e67F2D33Fe",
  "abi": [
    {
      "inputs": [],
      "name": "AddressCast_InvalidSizeForAddress",
      "type": "error"
    },
    {
      "anonymous": false,
      "inputs": [
        {
          "indexed": false,
          "internalType": "uint8",
          "name": "version",
          "type": "uint8"
        }
      ],
      "name": "Initialized",
      "type": "event"
    },
    {
      "inputs": [],
      "name": "endpoint",
      "outputs": [
        {
          "internalType": "contract ILayerZeroEndpoint",
          "name": "",
          "type": "address"
        }
      ],
      "stateMutability": "view",
      "type": "function"
    },
    {
      "inputs": [
        {
          "internalType": "bytes",
          "name": "_packetHeader",
          "type": "bytes"
        },
        {
          "internalType": "bytes32",
          "name": "_payloadHash",
          "type": "bytes32"
        }
      ],
      "name": "executable",
      "outputs": [
        {
          "internalType": "enum ExecutionState",
          "name": "",
          "type": "uint8"
        }
      ],
      "stateMutability": "view",
      "type": "function"
    },
    {
      "inputs": [
        {
          "internalType": "address",
          "name": "_endpoint",
          "type": "address"
        },
        {
          "internalType": "uint32",
          "name": "_localEid",
          "type": "uint32"
        },
        {
          "internalType": "address",
          "name": "_receiveUln301",
          "type": "address"
        }
      ],
      "name": "initialize",
      "outputs": [],
      "stateMutability": "nonpayable",
      "type": "function"
    },
    {
      "inputs": [],
      "name": "receiveUln301",
      "outputs": [
        {
          "internalType": "contract IReceiveUln301",
          "name": "",
          "type": "address"
        }
      ],
      "stateMutability": "view",
      "type": "function"
    },
    {
      "inputs": [
        {
          "internalType": "bytes",
          "name": "_packetHeader",
          "type": "bytes"
        },
        {
          "internalType": "bytes32",
          "name": "_payloadHash",
          "type": "bytes32"
        }
      ],
      "name": "verifiable",
      "outputs": [
        {
          "internalType": "enum VerificationState",
          "name": "",
          "type": "uint8"
        }
      ],
      "stateMutability": "view",
      "type": "function"
    }
  ],
  "transactionHash": "0x21f2cededade59265aa237b71601a3264701f53bc5633632e93a9578a5e0ee54",
  "args": [],
  "numDeployments": 1,
  "solcInputHash": "df45c5d73ee7212b45689d2cdbb787f2",
  "bytecode": "0x608060405234801561001057600080fd5b50610d94806100206000396000f3fe608060405234801561001057600080fd5b50600436106100575760003560e01c806327d12cd91461005c5780635e280f11146100855780637401fccc146100b6578063c1554a4b146100d6578063c2803b2c146100eb575b600080fd5b61006f61006a36600461079a565b6100fe565b60405161007c9190610828565b60405180910390f35b60005461009e906201000090046001600160a01b031681565b6040516001600160a01b03909116815260200161007c565b6100c96100c436600461079a565b610135565b60405161007c9190610842565b6100e96100e436600461086e565b610444565b005b60015461009e906001600160a01b031681565b60008061010c858585610135565b600381111561011d5761011d610812565b0361012a5750600061012e565b5060025b9392505050565b60015460405163c40ff83560e01b81526000916001600160a01b0381169163c40ff835916101789188918891600160a01b90910463ffffffff16906004016108c2565b60006040518083038186803b15801561019057600080fd5b505afa1580156101a4573d6000803e3d6000fd5b5050505060006101b48585610621565b905060006101d06101c5878761063c565b63ffffffff1661065f565b905060006101de87876106c6565b600154604051623e0d5760e61b815261ffff85166004820152919250600091610265916001600160a01b031690630f8355c090602401602060405180830381865afa158015610231573d6000803e3d6000fd5b505050506040513d601f19601f820116820180604052508101906102559190610901565b61025f8a8a6106e9565b90610702565b8460405160200161027792919061093e565b60408051808303601f1901815290829052600054630fdc07c760e41b83529092506201000090046001600160a01b03169063fdc07c70906102be9086908590600401610975565b602060405180830381865afa1580156102db573d6000803e3d6000fd5b505050506040513d601f19601f820116820180604052508101906102ff91906109d0565b67ffffffffffffffff168267ffffffffffffffff161161032657600394505050505061012e565b6001546040516343ea4fa960e01b81526001600160a01b03868116600483015261ffff861660248301529091169063e084d9529082906343ea4fa990604401600060405180830381865afa158015610382573d6000803e3d6000fd5b505050506040513d6000823e601f3d908101601f191682016040526103aa9190810190610ae2565b8a8a6040516103ba929190610bb7565b6040519081900381206001600160e01b031960e085901b1682526103e392918b90600401610c0c565b602060405180830381865afa158015610400573d6000803e3d6000fd5b505050506040513d601f19601f820116820180604052508101906104249190610c96565b1561043657600294505050505061012e565b506000979650505050505050565b600061046e7fb53127684a568b3173ae13b9f8a6016e243e63b6e8ee1178d6a717850b5d61035490565b90506001600160a01b0381166104ad576001600160a01b037fb53127684a568b3173ae13b9f8a6016e243e63b6e8ee1178d6a717850b5d6103556104c2565b336001600160a01b038216146104c257600080fd5b600054610100900460ff16158080156104e25750600054600160ff909116105b806104fc5750303b1580156104fc575060005460ff166001145b6105645760405162461bcd60e51b815260206004820152602e60248201527f496e697469616c697a61626c653a20636f6e747261637420697320616c72656160448201526d191e481a5b9a5d1a585b1a5e995960921b60648201526084015b60405180910390fd5b6000805460ff191660011790558015610587576000805461ff0019166101001790555b60018054600080546001600160a01b03898116620100000262010000600160b01b03199092169190911790915563ffffffff8716600160a01b026001600160c01b031990921690861617179055801561061a576000805461ff0019169055604051600181527f7f26b83ff96e1f2b6a682f133852f6798a09c465da95921460cefb38474024989060200160405180910390a15b5050505050565b6000610633610630848461078a565b90565b90505b92915050565b600061064c600d60098486610cb8565b61065591610ce2565b60e01c9392505050565b600061ffff8211156106c25760405162461bcd60e51b815260206004820152602660248201527f53616665436173743a2076616c756520646f65736e27742066697420696e203160448201526536206269747360d01b606482015260840161055b565b5090565b60006106d6600960018486610cb8565b6106df91610d12565b60c01c9392505050565b60006106f9602d600d8486610cb8565b61063391610d40565b60608115806107115750602082115b1561072f576040516318456c9b60e01b815260040160405180910390fd5b8167ffffffffffffffff811115610748576107486109eb565b6040519080825280601f01601f191660200182016040528015610772576020820181803683370190505b506008909202610100039290921b6020820152919050565b60006106f9605160318486610cb8565b6000806000604084860312156107af57600080fd5b833567ffffffffffffffff808211156107c757600080fd5b818601915086601f8301126107db57600080fd5b8135818111156107ea57600080fd5b8760208285010111156107fc57600080fd5b6020928301989097509590910135949350505050565b634e487b7160e01b600052602160045260246000fd5b602081016003831061083c5761083c610812565b91905290565b602081016004831061083c5761083c610812565b6001600160a01b038116811461086b57600080fd5b50565b60008060006060848603121561088357600080fd5b833561088e81610856565b9250602084013563ffffffff811681146108a757600080fd5b915060408401356108b781610856565b809150509250925092565b604081528260408201528284606083013760006060848301015260006060601f19601f860116830101905063ffffffff83166020830152949350505050565b60006020828403121561091357600080fd5b5051919050565b60005b8381101561093557818101518382015260200161091d565b50506000910152565b6000835161095081846020880161091a565b60609390931b6bffffffffffffffffffffffff19169190920190815260140192915050565b61ffff83168152604060208201526000825180604084015261099e81606085016020870161091a565b601f01601f1916919091016060019392505050565b805167ffffffffffffffff811681146109cb57600080fd5b919050565b6000602082840312156109e257600080fd5b610633826109b3565b634e487b7160e01b600052604160045260246000fd5b60405160c0810167ffffffffffffffff81118282101715610a2457610a246109eb565b60405290565b805160ff811681146109cb57600080fd5b600082601f830112610a4c57600080fd5b8151602067ffffffffffffffff80831115610a6957610a696109eb565b8260051b604051601f19603f83011681018181108482111715610a8e57610a8e6109eb565b6040529384526020818701810194908101925087851115610aae57600080fd5b6020870191505b84821015610ad7578151610ac881610856565b83529183019190830190610ab5565b979650505050505050565b600060208284031215610af457600080fd5b815167ffffffffffffffff80821115610b0c57600080fd5b9083019060c08286031215610b2057600080fd5b610b28610a01565b610b31836109b3565b8152610b3f60208401610a2a565b6020820152610b5060408401610a2a565b6040820152610b6160608401610a2a565b6060820152608083015182811115610b7857600080fd5b610b8487828601610a3b565b60808301525060a083015182811115610b9c57600080fd5b610ba887828601610a3b565b60a08301525095945050505050565b8183823760009101908152919050565b60008151808452602080850194506020840160005b83811015610c015781516001600160a01b031687529582019590820190600101610bdc565b509495945050505050565b6060815267ffffffffffffffff845116606082015260ff602085015116608082015260ff60408501511660a082015260ff60608501511660c08201526000608085015160c060e0840152610c64610120840182610bc7565b905060a0860151605f1984830301610100850152610c828282610bc7565b602085019690965250505060400152919050565b600060208284031215610ca857600080fd5b8151801515811461012e57600080fd5b60008085851115610cc857600080fd5b83861115610cd557600080fd5b5050820193919092039150565b6001600160e01b03198135818116916004851015610d0a5780818660040360031b1b83161692505b505092915050565b6001600160c01b03198135818116916008851015610d0a5760089490940360031b84901b1690921692915050565b8035602083101561063657600019602084900360031b1b169291505056fea26469706673582212202f030d7b116d152a4120487e030492338f8dd0a3ec19e16ddacd26f035d5cb4064736f6c63430008160033",
  "devdoc": {
    "events": {
      "Initialized(uint8)": {
        "details": "Triggered when the contract has been initialized or reinitialized."
      }
    },
    "kind": "dev",
    "methods": {
      "verifiable(bytes,bytes32)": {
        "details": "keeping the same interface as 302a verifiable message requires it to be ULN verifiable only, excluding the endpoint verifiable check"
      }
    },
    "version": 1
  },
  "userdoc": {
    "kind": "user",
    "methods": {},
    "version": 1
  },
  "storageLayout": {
    "storage": [
      {
        "astId": 5514,
        "contract": "contracts/messagelib/contracts/uln/uln301/ReceiveUln301View.sol:ReceiveUln301View",
        "label": "_initialized",
        "offset": 0,
        "slot": "0",
        "type": "t_uint8"
      },
      {
        "astId": 5517,
        "contract": "contracts/messagelib/contracts/uln/uln301/ReceiveUln301View.sol:ReceiveUln301View",
        "label": "_initializing",
        "offset": 1,
        "slot": "0",
        "type": "t_bool"
      },
      {
        "astId": 27253,
        "contract": "contracts/messagelib/contracts/uln/uln301/ReceiveUln301View.sol:ReceiveUln301View",
        "label": "endpoint",
        "offset": 2,
        "slot": "0",
        "type": "t_contract(ILayerZeroEndpoint)4671"
      },
      {
        "astId": 27256,
        "contract": "contracts/messagelib/contracts/uln/uln301/ReceiveUln301View.sol:ReceiveUln301View",
        "label": "receiveUln301",
        "offset": 0,
        "slot": "1",
        "type": "t_contract(IReceiveUln301)27237"
      },
      {
        "astId": 27258,
        "contract": "contracts/messagelib/contracts/uln/uln301/ReceiveUln301View.sol:ReceiveUln301View",
        "label": "localEid",
        "offset": 20,
        "slot": "1",
        "type": "t_uint32"
      }
    ],
    "types": {
      "t_bool": {
        "encoding": "inplace",
        "label": "bool",
        "numberOfBytes": "1"
      },
      "t_contract(ILayerZeroEndpoint)4671": {
        "encoding": "inplace",
        "label": "contract ILayerZeroEndpoint",
        "numberOfBytes": "20"
      },
      "t_contract(IReceiveUln301)27237": {
        "encoding": "inplace",
        "label": "contract IReceiveUln301",
        "numberOfBytes": "20"
      },
      "t_uint32": {
        "encoding": "inplace",
        "label": "uint32",
        "numberOfBytes": "4"
      },
      "t_uint8": {
        "encoding": "inplace",
        "label": "uint8",
        "numberOfBytes": "1"
      }
    }
  }
}