{
  "address": "0x47636b3188774a3E7273D85A537b9bA4Ee7b2535",
  "abi": [
    {
      "inputs": [
        {
          "internalType": "address",
          "name": "_endpoint",
          "type": "address"
        },
        {
          "internalType": "uint256",
          "name": "_treasuryGasLimit",
          "type": "uint256"
        },
        {
          "internalType": "uint256",
          "name": "_treasuryGasForFeeCap",
          "type": "uint256"
        }
      ],
      "stateMutability": "nonpayable",
      "type": "constructor"
    },
    {
      "inputs": [],
      "name": "DVN_InvalidDVNIdx",
      "type": "error"
    },
    {
      "inputs": [
        {
          "internalType": "uint256",
          "name": "cursor",
          "type": "uint256"
        }
      ],
      "name": "DVN_InvalidDVNOptions",
      "type": "error"
    },
    {
      "inputs": [],
      "name": "LZ_MessageLib_CannotWithdrawAltToken",
      "type": "error"
    },
    {
      "inputs": [
        {
          "internalType": "uint256",
          "name": "requested",
          "type": "uint256"
        },
        {
          "internalType": "uint256",
          "name": "available",
          "type": "uint256"
        }
      ],
      "name": "LZ_MessageLib_InvalidAmount",
      "type": "error"
    },
    {
      "inputs": [],
      "name": "LZ_MessageLib_InvalidExecutor",
      "type": "error"
    },
    {
      "inputs": [
        {
          "internalType": "uint256",
          "name": "actual",
          "type": "uint256"
        },
        {
          "internalType": "uint256",
          "name": "max",
          "type": "uint256"
        }
      ],
      "name": "LZ_MessageLib_InvalidMessageSize",
      "type": "error"
    },
    {
      "inputs": [],
      "name": "LZ_MessageLib_NotTreasury",
      "type": "error"
    },
    {
      "inputs": [],
      "name": "LZ_MessageLib_OnlyEndpoint",
      "type": "error"
    },
    {
      "inputs": [],
      "name": "LZ_MessageLib_TransferFailed",
      "type": "error"
    },
    {
      "inputs": [],
      "name": "LZ_MessageLib_ZeroMessageSize",
      "type": "error"
    },
    {
      "inputs": [],
      "name": "LZ_ULN_AtLeastOneDVN",
      "type": "error"
    },
    {
      "inputs": [
        {
          "internalType": "uint32",
          "name": "configType",
          "type": "uint32"
        }
      ],
      "name": "LZ_ULN_InvalidConfigType",
      "type": "error"
    },
    {
      "inputs": [],
      "name": "LZ_ULN_InvalidConfirmations",
      "type": "error"
    },
    {
      "inputs": [],
      "name": "LZ_ULN_InvalidLegacyType1Option",
      "type": "error"
    },
    {
      "inputs": [],
      "name": "LZ_ULN_InvalidLegacyType2Option",
      "type": "error"
    },
    {
      "inputs": [],
      "name": "LZ_ULN_InvalidOptionalDVNCount",
      "type": "error"
    },
    {
      "inputs": [],
      "name": "LZ_ULN_InvalidOptionalDVNThreshold",
      "type": "error"
    },
    {
      "inputs": [],
      "name": "LZ_ULN_InvalidRequiredDVNCount",
      "type": "error"
    },
    {
      "inputs": [
        {
          "internalType": "uint8",
          "name": "workerId",
          "type": "uint8"
        }
      ],
      "name": "LZ_ULN_InvalidWorkerId",
      "type": "error"
    },
    {
      "inputs": [
        {
          "internalType": "uint256",
          "name": "cursor",
          "type": "uint256"
        }
      ],
      "name": "LZ_ULN_InvalidWorkerOptions",
      "type": "error"
    },
    {
      "inputs": [],
      "name": "LZ_ULN_Unsorted",
      "type": "error"
    },
    {
      "inputs": [
        {
          "internalType": "uint32",
          "name": "eid",
          "type": "uint32"
        }
      ],
      "name": "LZ_ULN_UnsupportedEid",
      "type": "error"
    },
    {
      "inputs": [
        {
          "internalType": "uint16",
          "name": "optionType",
          "type": "uint16"
        }
      ],
      "name": "LZ_ULN_UnsupportedOptionType",
      "type": "error"
    },
    {
      "inputs": [
        {
          "internalType": "address",
          "name": "_to",
          "type": "address"
        },
        {
          "internalType": "uint256",
          "name": "_value",
          "type": "uint256"
        }
      ],
      "name": "Transfer_NativeFailed",
      "type": "error"
    },
    {
      "inputs": [],
      "name": "Transfer_ToAddressIsZero",
      "type": "error"
    },
    {
      "anonymous": false,
      "inputs": [
        {
          "indexed": false,
          "internalType": "address[]",
          "name": "requiredDVNs",
          "type": "address[]"
        },
        {
          "indexed": false,
          "internalType": "address[]",
          "name": "optionalDVNs",
          "type": "address[]"
        },
        {
          "indexed": false,
          "internalType": "uint256[]",
          "name": "fees",
          "type": "uint256[]"
        }
      ],
      "name": "DVNFeePaid",
      "type": "event"
    },
    {
      "anonymous": false,
      "inputs": [
        {
          "components": [
            {
              "internalType": "uint32",
              "name": "eid",
              "type": "uint32"
            },
            {
              "components": [
                {
                  "internalType": "uint32",
                  "name": "maxMessageSize",
                  "type": "uint32"
                },
                {
                  "internalType": "address",
                  "name": "executor",
                  "type": "address"
                }
              ],
              "internalType": "struct ExecutorConfig",
              "name": "config",
              "type": "tuple"
            }
          ],
          "indexed": false,
          "internalType": "struct SetDefaultExecutorConfigParam[]",
          "name": "params",
          "type": "tuple[]"
        }
      ],
      "name": "DefaultExecutorConfigsSet",
      "type": "event"
    },
    {
      "anonymous": false,
      "inputs": [
        {
          "components": [
            {
              "internalType": "uint32",
              "name": "eid",
              "type": "uint32"
            },
            {
              "components": [
                {
                  "internalType": "uint64",
                  "name": "confirmations",
                  "type": "uint64"
                },
                {
                  "internalType": "uint8",
                  "name": "requiredDVNCount",
                  "type": "uint8"
                },
                {
                  "internalType": "uint8",
                  "name": "optionalDVNCount",
                  "type": "uint8"
                },
                {
                  "internalType": "uint8",
                  "name": "optionalDVNThreshold",
                  "type": "uint8"
                },
                {
                  "internalType": "address[]",
                  "name": "requiredDVNs",
                  "type": "address[]"
                },
                {
                  "internalType": "address[]",
                  "name": "optionalDVNs",
                  "type": "address[]"
                }
              ],
              "internalType": "struct UlnConfig",
              "name": "config",
              "type": "tuple"
            }
          ],
          "indexed": false,
          "internalType": "struct SetDefaultUlnConfigParam[]",
          "name": "params",
          "type": "tuple[]"
        }
      ],
      "name": "DefaultUlnConfigsSet",
      "type": "event"
    },
    {
      "anonymous": false,
      "inputs": [
        {
          "indexed": false,
          "internalType": "address",
          "name": "oapp",
          "type": "address"
        },
        {
          "indexed": false,
          "internalType": "uint32",
          "name": "eid",
          "type": "uint32"
        },
        {
          "components": [
            {
              "internalType": "uint32",
              "name": "maxMessageSize",
              "type": "uint32"
            },
            {
              "internalType": "address",
              "name": "executor",
              "type": "address"
            }
          ],
          "indexed": false,
          "internalType": "struct ExecutorConfig",
          "name": "config",
          "type": "tuple"
        }
      ],
      "name": "ExecutorConfigSet",
      "type": "event"
    },
    {
      "anonymous": false,
      "inputs": [
        {
          "indexed": false,
          "internalType": "address",
          "name": "executor",
          "type": "address"
        },
        {
          "indexed": false,
          "internalType": "uint256",
          "name": "fee",
          "type": "uint256"
        }
      ],
      "name": "ExecutorFeePaid",
      "type": "event"
    },
    {
      "anonymous": false,
      "inputs": [
        {
          "indexed": false,
          "internalType": "address",
          "name": "lzToken",
          "type": "address"
        },
        {
          "indexed": false,
          "internalType": "address",
          "name": "receiver",
          "type": "address"
        },
        {
          "indexed": false,
          "internalType": "uint256",
          "name": "amount",
          "type": "uint256"
        }
      ],
      "name": "LzTokenFeeWithdrawn",
      "type": "event"
    },
    {
      "anonymous": false,
      "inputs": [
        {
          "indexed": false,
          "internalType": "address",
          "name": "worker",
          "type": "address"
        },
        {
          "indexed": false,
          "internalType": "address",
          "name": "receiver",
          "type": "address"
        },
        {
          "indexed": false,
          "internalType": "uint256",
          "name": "amount",
          "type": "uint256"
        }
      ],
      "name": "NativeFeeWithdrawn",
      "type": "event"
    },
    {
      "anonymous": false,
      "inputs": [
        {
          "indexed": true,
          "internalType": "address",
          "name": "previousOwner",
          "type": "address"
        },
        {
          "indexed": true,
          "internalType": "address",
          "name": "newOwner",
          "type": "address"
        }
      ],
      "name": "OwnershipTransferred",
      "type": "event"
    },
    {
      "anonymous": false,
      "inputs": [
        {
          "indexed": false,
          "internalType": "uint256",
          "name": "newTreasuryNativeFeeCap",
          "type": "uint256"
        }
      ],
      "name": "TreasuryNativeFeeCapSet",
      "type": "event"
    },
    {
      "anonymous": false,
      "inputs": [
        {
          "indexed": false,
          "internalType": "address",
          "name": "treasury",
          "type": "address"
        }
      ],
      "name": "TreasurySet",
      "type": "event"
    },
    {
      "anonymous": false,
      "inputs": [
        {
          "indexed": false,
          "internalType": "address",
          "name": "oapp",
          "type": "address"
        },
        {
          "indexed": false,
          "internalType": "uint32",
          "name": "eid",
          "type": "uint32"
        },
        {
          "components": [
            {
              "internalType": "uint64",
              "name": "confirmations",
              "type": "uint64"
            },
            {
              "internalType": "uint8",
              "name": "requiredDVNCount",
              "type": "uint8"
            },
            {
              "internalType": "uint8",
              "name": "optionalDVNCount",
              "type": "uint8"
            },
            {
              "internalType": "uint8",
              "name": "optionalDVNThreshold",
              "type": "uint8"
            },
            {
              "internalType": "address[]",
              "name": "requiredDVNs",
              "type": "address[]"
            },
            {
              "internalType": "address[]",
              "name": "optionalDVNs",
              "type": "address[]"
            }
          ],
          "indexed": false,
          "internalType": "struct UlnConfig",
          "name": "config",
          "type": "tuple"
        }
      ],
      "name": "UlnConfigSet",
      "type": "event"
    },
    {
      "inputs": [
        {
          "internalType": "address",
          "name": "oapp",
          "type": "address"
        },
        {
          "internalType": "uint32",
          "name": "eid",
          "type": "uint32"
        }
      ],
      "name": "executorConfigs",
      "outputs": [
        {
          "internalType": "uint32",
          "name": "maxMessageSize",
          "type": "uint32"
        },
        {
          "internalType": "address",
          "name": "executor",
          "type": "address"
        }
      ],
      "stateMutability": "view",
      "type": "function"
    },
    {
      "inputs": [
        {
          "internalType": "address",
          "name": "worker",
          "type": "address"
        }
      ],
      "name": "fees",
      "outputs": [
        {
          "internalType": "uint256",
          "name": "",
          "type": "uint256"
        }
      ],
      "stateMutability": "view",
      "type": "function"
    },
    {
      "inputs": [
        {
          "internalType": "address",
          "name": "_oapp",
          "type": "address"
        },
        {
          "internalType": "uint32",
          "name": "_remoteEid",
          "type": "uint32"
        }
      ],
      "name": "getAppUlnConfig",
      "outputs": [
        {
          "components": [
            {
              "internalType": "uint64",
              "name": "confirmations",
              "type": "uint64"
            },
            {
              "internalType": "uint8",
              "name": "requiredDVNCount",
              "type": "uint8"
            },
            {
              "internalType": "uint8",
              "name": "optionalDVNCount",
              "type": "uint8"
            },
            {
              "internalType": "uint8",
              "name": "optionalDVNThreshold",
              "type": "uint8"
            },
            {
              "internalType": "address[]",
              "name": "requiredDVNs",
              "type": "address[]"
            },
            {
              "internalType": "address[]",
              "name": "optionalDVNs",
              "type": "address[]"
            }
          ],
          "internalType": "struct UlnConfig",
          "name": "",
          "type": "tuple"
        }
      ],
      "stateMutability": "view",
      "type": "function"
    },
    {
      "inputs": [
        {
          "internalType": "uint32",
          "name": "_eid",
          "type": "uint32"
        },
        {
          "internalType": "address",
          "name": "_oapp",
          "type": "address"
        },
        {
          "internalType": "uint32",
          "name": "_configType",
          "type": "uint32"
        }
      ],
      "name": "getConfig",
      "outputs": [
        {
          "internalType": "bytes",
          "name": "",
          "type": "bytes"
        }
      ],
      "stateMutability": "view",
      "type": "function"
    },
    {
      "inputs": [
        {
          "internalType": "address",
          "name": "_oapp",
          "type": "address"
        },
        {
          "internalType": "uint32",
          "name": "_remoteEid",
          "type": "uint32"
        }
      ],
      "name": "getExecutorConfig",
      "outputs": [
        {
          "components": [
            {
              "internalType": "uint32",
              "name": "maxMessageSize",
              "type": "uint32"
            },
            {
              "internalType": "address",
              "name": "executor",
              "type": "address"
            }
          ],
          "internalType": "struct ExecutorConfig",
          "name": "rtnConfig",
          "type": "tuple"
        }
      ],
      "stateMutability": "view",
      "type": "function"
    },
    {
      "inputs": [
        {
          "internalType": "address",
          "name": "_oapp",
          "type": "address"
        },
        {
          "internalType": "uint32",
          "name": "_remoteEid",
          "type": "uint32"
        }
      ],
      "name": "getUlnConfig",
      "outputs": [
        {
          "components": [
            {
              "internalType": "uint64",
              "name": "confirmations",
              "type": "uint64"
            },
            {
              "internalType": "uint8",
              "name": "requiredDVNCount",
              "type": "uint8"
            },
            {
              "internalType": "uint8",
              "name": "optionalDVNCount",
              "type": "uint8"
            },
            {
              "internalType": "uint8",
              "name": "optionalDVNThreshold",
              "type": "uint8"
            },
            {
              "internalType": "address[]",
              "name": "requiredDVNs",
              "type": "address[]"
            },
            {
              "internalType": "address[]",
              "name": "optionalDVNs",
              "type": "address[]"
            }
          ],
          "internalType": "struct UlnConfig",
          "name": "rtnConfig",
          "type": "tuple"
        }
      ],
      "stateMutability": "view",
      "type": "function"
    },
    {
      "inputs": [
        {
          "internalType": "uint32",
          "name": "_eid",
          "type": "uint32"
        }
      ],
      "name": "isSupportedEid",
      "outputs": [
        {
          "internalType": "bool",
          "name": "",
          "type": "bool"
        }
      ],
      "stateMutability": "view",
      "type": "function"
    },
    {
      "inputs": [],
      "name": "messageLibType",
      "outputs": [
        {
          "internalType": "enum MessageLibType",
          "name": "",
          "type": "uint8"
        }
      ],
      "stateMutability": "pure",
      "type": "function"
    },
    {
      "inputs": [],
      "name": "owner",
      "outputs": [
        {
          "internalType": "address",
          "name": "",
          "type": "address"
        }
      ],
      "stateMutability": "view",
      "type": "function"
    },
    {
      "inputs": [
        {
          "components": [
            {
              "internalType": "uint64",
              "name": "nonce",
              "type": "uint64"
            },
            {
              "internalType": "uint32",
              "name": "srcEid",
              "type": "uint32"
            },
            {
              "internalType": "address",
              "name": "sender",
              "type": "address"
            },
            {
              "internalType": "uint32",
              "name": "dstEid",
              "type": "uint32"
            },
            {
              "internalType": "bytes32",
              "name": "receiver",
              "type": "bytes32"
            },
            {
              "internalType": "bytes32",
              "name": "guid",
              "type": "bytes32"
            },
            {
              "internalType": "bytes",
              "name": "message",
              "type": "bytes"
            }
          ],
          "internalType": "struct Packet",
          "name": "_packet",
          "type": "tuple"
        },
        {
          "internalType": "bytes",
          "name": "_options",
          "type": "bytes"
        },
        {
          "internalType": "bool",
          "name": "_payInLzToken",
          "type": "bool"
        }
      ],
      "name": "quote",
      "outputs": [
        {
          "components": [
            {
              "internalType": "uint256",
              "name": "nativeFee",
              "type": "uint256"
            },
            {
              "internalType": "uint256",
              "name": "lzTokenFee",
              "type": "uint256"
            }
          ],
          "internalType": "struct MessagingFee",
          "name": "",
          "type": "tuple"
        }
      ],
      "stateMutability": "view",
      "type": "function"
    },
    {
      "inputs": [],
      "name": "renounceOwnership",
      "outputs": [],
      "stateMutability": "nonpayable",
      "type": "function"
    },
    {
      "inputs": [
        {
          "components": [
            {
              "internalType": "uint64",
              "name": "nonce",
              "type": "uint64"
            },
            {
              "internalType": "uint32",
              "name": "srcEid",
              "type": "uint32"
            },
            {
              "internalType": "address",
              "name": "sender",
              "type": "address"
            },
            {
              "internalType": "uint32",
              "name": "dstEid",
              "type": "uint32"
            },
            {
              "internalType": "bytes32",
              "name": "receiver",
              "type": "bytes32"
            },
            {
              "internalType": "bytes32",
              "name": "guid",
              "type": "bytes32"
            },
            {
              "internalType": "bytes",
              "name": "message",
              "type": "bytes"
            }
          ],
          "internalType": "struct Packet",
          "name": "_packet",
          "type": "tuple"
        },
        {
          "internalType": "bytes",
          "name": "_options",
          "type": "bytes"
        },
        {
          "internalType": "bool",
          "name": "_payInLzToken",
          "type": "bool"
        }
      ],
      "name": "send",
      "outputs": [
        {
          "components": [
            {
              "internalType": "uint256",
              "name": "nativeFee",
              "type": "uint256"
            },
            {
              "internalType": "uint256",
              "name": "lzTokenFee",
              "type": "uint256"
            }
          ],
          "internalType": "struct MessagingFee",
          "name": "",
          "type": "tuple"
        },
        {
          "internalType": "bytes",
          "name": "",
          "type": "bytes"
        }
      ],
      "stateMutability": "nonpayable",
      "type": "function"
    },
    {
      "inputs": [
        {
          "internalType": "address",
          "name": "_oapp",
          "type": "address"
        },
        {
          "components": [
            {
              "internalType": "uint32",
              "name": "eid",
              "type": "uint32"
            },
            {
              "internalType": "uint32",
              "name": "configType",
              "type": "uint32"
            },
            {
              "internalType": "bytes",
              "name": "config",
              "type": "bytes"
            }
          ],
          "internalType": "struct SetConfigParam[]",
          "name": "_params",
          "type": "tuple[]"
        }
      ],
      "name": "setConfig",
      "outputs": [],
      "stateMutability": "nonpayable",
      "type": "function"
    },
    {
      "inputs": [
        {
          "components": [
            {
              "internalType": "uint32",
              "name": "eid",
              "type": "uint32"
            },
            {
              "components": [
                {
                  "internalType": "uint32",
                  "name": "maxMessageSize",
                  "type": "uint32"
                },
                {
                  "internalType": "address",
                  "name": "executor",
                  "type": "address"
                }
              ],
              "internalType": "struct ExecutorConfig",
              "name": "config",
              "type": "tuple"
            }
          ],
          "internalType": "struct SetDefaultExecutorConfigParam[]",
          "name": "_params",
          "type": "tuple[]"
        }
      ],
      "name": "setDefaultExecutorConfigs",
      "outputs": [],
      "stateMutability": "nonpayable",
      "type": "function"
    },
    {
      "inputs": [
        {
          "components": [
            {
              "internalType": "uint32",
              "name": "eid",
              "type": "uint32"
            },
            {
              "components": [
                {
                  "internalType": "uint64",
                  "name": "confirmations",
                  "type": "uint64"
                },
                {
                  "internalType": "uint8",
                  "name": "requiredDVNCount",
                  "type": "uint8"
                },
                {
                  "internalType": "uint8",
                  "name": "optionalDVNCount",
                  "type": "uint8"
                },
                {
                  "internalType": "uint8",
                  "name": "optionalDVNThreshold",
                  "type": "uint8"
                },
                {
                  "internalType": "address[]",
                  "name": "requiredDVNs",
                  "type": "address[]"
                },
                {
                  "internalType": "address[]",
                  "name": "optionalDVNs",
                  "type": "address[]"
                }
              ],
              "internalType": "struct UlnConfig",
              "name": "config",
              "type": "tuple"
            }
          ],
          "internalType": "struct SetDefaultUlnConfigParam[]",
          "name": "_params",
          "type": "tuple[]"
        }
      ],
      "name": "setDefaultUlnConfigs",
      "outputs": [],
      "stateMutability": "nonpayable",
      "type": "function"
    },
    {
      "inputs": [
        {
          "internalType": "address",
          "name": "_treasury",
          "type": "address"
        }
      ],
      "name": "setTreasury",
      "outputs": [],
      "stateMutability": "nonpayable",
      "type": "function"
    },
    {
      "inputs": [
        {
          "internalType": "uint256",
          "name": "_newTreasuryNativeFeeCap",
          "type": "uint256"
        }
      ],
      "name": "setTreasuryNativeFeeCap",
      "outputs": [],
      "stateMutability": "nonpayable",
      "type": "function"
    },
    {
      "inputs": [
        {
          "internalType": "bytes4",
          "name": "_interfaceId",
          "type": "bytes4"
        }
      ],
      "name": "supportsInterface",
      "outputs": [
        {
          "internalType": "bool",
          "name": "",
          "type": "bool"
        }
      ],
      "stateMutability": "view",
      "type": "function"
    },
    {
      "inputs": [
        {
          "internalType": "address",
          "name": "newOwner",
          "type": "address"
        }
      ],
      "name": "transferOwnership",
      "outputs": [],
      "stateMutability": "nonpayable",
      "type": "function"
    },
    {
      "inputs": [],
      "name": "treasury",
      "outputs": [
        {
          "internalType": "address",
          "name": "",
          "type": "address"
        }
      ],
      "stateMutability": "view",
      "type": "function"
    },
    {
      "inputs": [],
      "name": "version",
      "outputs": [
        {
          "internalType": "uint64",
          "name": "major",
          "type": "uint64"
        },
        {
          "internalType": "uint8",
          "name": "minor",
          "type": "uint8"
        },
        {
          "internalType": "uint8",
          "name": "endpointVersion",
          "type": "uint8"
        }
      ],
      "stateMutability": "pure",
      "type": "function"
    },
    {
      "inputs": [
        {
          "internalType": "address",
          "name": "_to",
          "type": "address"
        },
        {
          "internalType": "uint256",
          "name": "_amount",
          "type": "uint256"
        }
      ],
      "name": "withdrawFee",
      "outputs": [],
      "stateMutability": "nonpayable",
      "type": "function"
    },
    {
      "inputs": [
        {
          "internalType": "address",
          "name": "_lzToken",
          "type": "address"
        },
        {
          "internalType": "address",
          "name": "_to",
          "type": "address"
        },
        {
          "internalType": "uint256",
          "name": "_amount",
          "type": "uint256"
        }
      ],
      "name": "withdrawLzTokenFee",
      "outputs": [],
      "stateMutability": "nonpayable",
      "type": "function"
    },
    {
      "stateMutability": "payable",
      "type": "receive"
    }
  ],
  "transactionHash": "0x81a809644c5f860157e8fb0bb65a032c12989dd23a8b954a8a1882a7a048dbb4",
  "args": [
    "0x1260AdfaFCad76834BaEB4693724067A0C19cA62",
    200000,
    100000
  ],
  "numDeployments": 1,
  "solcInputHash": "df45c5d73ee7212b45689d2cdbb787f2",
  "bytecode": "0x60e06040523480156200001157600080fd5b5060405162004ac838038062004ac8833981016040819052620000349162000129565b82828282836001600160a01b031663416ecebf6040518163ffffffff1660e01b8152600401602060405180830381865afa15801562000077573d6000803e3d6000fd5b505050506040513d601f19601f820116820180604052508101906200009d91906200016e565b6001600160a01b03821660805263ffffffff811660a0528383620000c133620000d9565b60c091909152600255506200019d9650505050505050565b600080546001600160a01b038381166001600160a01b0319831681178455604051919092169283917f8be0079c531659141344cd1fd0a4f28419497f9722a3daafe3b4186f6b6457e09190a35050565b6000806000606084860312156200013f57600080fd5b83516001600160a01b03811681146200015757600080fd5b602085015160409095015190969495509392505050565b6000602082840312156200018157600080fd5b815163ffffffff811681146200019657600080fd5b9392505050565b60805160a05160c0516148e2620001e66000396000818161199901526120620152600050506000818161066f0152818161077401528181610bd2015261130001526148e26000f3fe6080604052600436106101445760003560e01c806361d027b3116100b6578063d15b0d491161006f578063d15b0d4914610425578063d80e9bd914610445578063f0f4426014610472578063f2fde38b14610492578063faaebd21146104b2578063fd9be522146104ed57600080fd5b806361d027b31461034d5780636750cd4c14610385578063715018a6146103a55780638da5cb5b146103ba5780639c33abf7146103d8578063c14c43491461040557600080fd5b806329460b0b1161010857806329460b0b1461021057806339e3f938146102305780634389e58f1461025d57806343ea4fa91461028b5780634d963200146102ab57806354fd4d501461032057600080fd5b806301ffc9a714610150578063188183f4146101855780631881d94d146101b2578063200175f7146101ce57806320efd722146101f057600080fd5b3661014b57005b600080fd5b34801561015c57600080fd5b5061017061016b3660046137b6565b61050d565b60405190151581526020015b60405180910390f35b34801561019157600080fd5b506101a56101a0366004613822565b61055f565b60405161017c919061385b565b3480156101be57600080fd5b50600060405161017c9190613881565b3480156101da57600080fd5b506101ee6101e93660046138a9565b610638565b005b3480156101fc57600080fd5b506101ee61020b36600461392e565b610772565b34801561021c57600080fd5b506101ee61022b366004613982565b6108e7565b34801561023c57600080fd5b5061025061024b366004613822565b610a7f565b60405161017c9190613a79565b34801561026957600080fd5b5061027d610278366004613aa5565b610bba565b60405161017c929190613ba4565b34801561029757600080fd5b506102506102a6366004613822565b610c8e565b3480156102b757600080fd5b506102fc6102c6366004613822565b600460209081526000928352604080842090915290825290205463ffffffff81169064010000000090046001600160a01b031682565b6040805163ffffffff90931683526001600160a01b0390911660208301520161017c565b34801561032c57600080fd5b5060408051600381526000602082015260029181019190915260600161017c565b34801561035957600080fd5b5060035461036d906001600160a01b031681565b6040516001600160a01b03909116815260200161017c565b34801561039157600080fd5b506101706103a0366004613bc8565b610f9a565b3480156103b157600080fd5b506101ee610fa5565b3480156103c657600080fd5b506000546001600160a01b031661036d565b3480156103e457600080fd5b506103f86103f3366004613be5565b610fb9565b60405161017c9190613c30565b34801561041157600080fd5b506101ee610420366004613c43565b61104b565b34801561043157600080fd5b506101ee610440366004613cb7565b611184565b34801561045157600080fd5b50610465610460366004613aa5565b6111f9565b60405161017c9190613cd0565b34801561047e57600080fd5b506101ee61048d366004613ce7565b611269565b34801561049e57600080fd5b506101ee6104ad366004613ce7565b61127d565b3480156104be57600080fd5b506104df6104cd366004613ce7565b60056020526000908152604090205481565b60405190815260200161017c565b3480156104f957600080fd5b506101ee610508366004613d04565b6112f3565b60006001600160e01b031982166325fc096160e21b148061053e57506001600160e01b0319821663b6e9ace360e01b145b8061055957506301ffc9a760e01b6001600160e01b03198316145b92915050565b604080518082019091526000808252602082015263ffffffff80831660008181527f17ef568e3e12ab5b9c7254a8d58478811de00f9e6eb34345acd53bf8fd09d3ec602090815260408083206001600160a01b03891684526004835281842094845293909152812080549293909216908190036105e357825463ffffffff166105e5565b805b63ffffffff168452815464010000000090046001600160a01b03168061061d57835464010000000090046001600160a01b031661061f565b805b6001600160a01b03166020860152509295945050505050565b6003546001600160a01b031633146106635760405163885762a760e01b815260040160405180910390fd5b826001600160a01b03167f00000000000000000000000000000000000000000000000000000000000000006001600160a01b031663e1758bd86040518163ffffffff1660e01b8152600401602060405180830381865afa1580156106cb573d6000803e3d6000fd5b505050506040513d601f19601f820116820180604052508101906106ef9190613d30565b6001600160a01b031603610716576040516339a5741160e21b815260040160405180910390fd5b6107218383836113d3565b604080516001600160a01b038086168252841660208201529081018290527fe081464b7278501267de69fa85b7b9560b0ae05d5fbfaab9b1986c70356e2efe906060015b60405180910390a1505050565b7f00000000000000000000000000000000000000000000000000000000000000006001600160a01b031633146107bb5760405163467409c360e01b815260040160405180910390fd5b60005b818110156108e157368383838181106107d9576107d9613d4d565b90506020028101906107eb9190613d63565b90506108026107fd6020830183613bc8565b611413565b60016108146040830160208401613bc8565b63ffffffff16036108545761084f61082f6020830183613bc8565b8661083d6040850185613d83565b81019061084a9190613e59565b611441565b6108d8565b60026108666040830160208401613bc8565b63ffffffff16036108a15761084f6108816020830183613bc8565b8661088f6040850185613d83565b81019061089c919061400e565b6114c9565b6108b16040820160208301613bc8565b604051635d4be0fd60e11b815263ffffffff90911660048201526024015b60405180910390fd5b506001016107be565b50505050565b6108ef611512565b60005b81811015610a41573683838381811061090d5761090d613d4d565b905060200281019061091f9190614042565b905060ff6109306020830183614058565b61094190604081019060200161406e565b60ff1603610962576040516341d50bed60e11b815260040160405180910390fd5b60ff6109716020830183614058565b61098290606081019060400161406e565b60ff16036109a35760405163211089b360e11b815260040160405180910390fd5b6001600160401b036109b86020830183614058565b6109c6906020810190614089565b6001600160401b0316036109ed5760405163281b33d760e11b815260040160405180910390fd5b610a0b6109fd6020830183614058565b610a06906140a4565b61156c565b610a386000610a1d6020840184613bc8565b610a2a6020850185614058565b610a33906140a4565b6115a4565b506001016108f2565b507faaf3aaa0c11056e86ac56eb653e25b005ca1a7d4dcd21ba24647f7ab63f3b5608282604051610a73929190614136565b60405180910390a15050565b610a876136fd565b6001600160a01b038316600090815260016020818152604080842063ffffffff87168552825292839020835160c08101855281546001600160401b038116825260ff600160401b8204811683860152600160481b8204811683880152600160501b9091041660608201529281018054855181850281018501909652808652939491936080860193830182828015610b4757602002820191906000526020600020905b81546001600160a01b03168152600190910190602001808311610b29575b5050505050815260200160028201805480602002602001604051908101604052809291908181526020018280548015610ba957602002820191906000526020600020905b81546001600160a01b03168152600190910190602001808311610b8b575b505050505081525050905092915050565b604080518082019091526000808252602082015260607f00000000000000000000000000000000000000000000000000000000000000006001600160a01b03163314610c195760405163467409c360e01b815260040160405180910390fd5b600080610c2788888861183d565b9092509050600080610c59610c4260608c0160408d01613ce7565b610c5260808d0160608e01613bc8565b858a61190a565b9092509050610c688284614291565b604080518082019091529081526020810191909152945091925050505b94509492505050565b610c966136fd565b63ffffffff821660008181527fa6eef7e35abe7026729641147f7915573c7e97b47efa546f5f6e3230263bcb49602090815260408083206001600160a01b03881684526001835281842094845293909152902080546001600160401b031680610d0b5782546001600160401b03168452610d28565b6001600160401b0381811614610d28576001600160401b03811684525b8154600160401b900460ff16610dc2578254600160401b900460ff1615610dbd5782600101805480602002602001604051908101604052809291908181526020018280548015610da157602002820191906000526020600020905b81546001600160a01b03168152600190910190602001808311610d83575b505050505060808501528254600160401b900460ff1660208501525b610e49565b8154600160401b900460ff90811614610e495781600101805480602002602001604051908101604052809291908181526020018280548015610e2d57602002820191906000526020600020905b81546001600160a01b03168152600190910190602001808311610e0f575b505050505060808501528154600160401b900460ff1660208501525b8154600160481b900460ff16610ef2578254600160481b900460ff1615610eed5782600201805480602002602001604051908101604052809291908181526020018280548015610ec257602002820191906000526020600020905b81546001600160a01b03168152600190910190602001808311610ea4575b505050505060a0850152825460ff600160481b820481166040870152600160501b9091041660608501525b610f88565b8154600160481b900460ff90811614610f885781600201805480602002602001604051908101604052809291908181526020018280548015610f5d57602002820191906000526020600020905b81546001600160a01b03168152600190910190602001808311610f3f575b505050505060a0850152815460ff600160481b820481166040870152600160501b9091041660608501525b610f918461156c565b50505092915050565b600061055982611a18565b610fad611512565b610fb76000611a73565b565b606060001963ffffffff831601610ffa57610fd4838561055f565b604051602001610fe4919061385b565b6040516020818303038152906040529050611044565b60011963ffffffff831601611023576110138385610c8e565b604051602001610fe49190613a79565b604051635d4be0fd60e11b815263ffffffff831660048201526024016108cf565b9392505050565b611053611512565b60005b81811015611152573683838381811061107157611071613d4d565b606090810292909201925060009161108f9150830160408401613ce7565b6001600160a01b0316036110b657604051631074e82d60e11b815260040160405180910390fd5b6110c66040820160208301613bc8565b63ffffffff166000036110ec576040516349cfac4360e01b815260040160405180910390fd5b6000808052600460209081528201907f17ef568e3e12ab5b9c7254a8d58478811de00f9e6eb34345acd53bf8fd09d3ec906111278385613bc8565b63ffffffff168152602081019190915260400160002061114782826142a4565b505050600101611056565b507f2b001e1c6683bf79cc52891bd7215b204c787d18134fc7f3d21b4f32a49e47de8282604051610a739291906142fd565b61118c611512565b6002548111156111bd5760025460405163068109f760e31b81526108cf918391600401918252602082015260400190565b60028190556040518181527f491ff913b5444f4136b0d4075f020cfe3a5f60de926ec0b091612401a22b7842906020015b60405180910390a150565b604080518082019091526000808252602082015260008061124a6112236060890160408a01613ce7565b61123360808a0160608b01613bc8565b61124060c08b018b613d83565b9050878a8a611ac3565b604080518082019091529182526020820152925050505b949350505050565b611271611512565b61127a81611bbc565b50565b611285611512565b6001600160a01b0381166112ea5760405162461bcd60e51b815260206004820152602660248201527f4f776e61626c653a206e6577206f776e657220697320746865207a65726f206160448201526564647265737360d01b60648201526084016108cf565b61127a81611a73565b6112fc81611c0a565b60007f00000000000000000000000000000000000000000000000000000000000000006001600160a01b031663e1758bd86040518163ffffffff1660e01b8152600401602060405180830381865afa15801561135c573d6000803e3d6000fd5b505050506040513d601f19601f820116820180604052508101906113809190613d30565b905061138d818484611c5b565b604080513381526001600160a01b03851660208201529081018390527f820b7fd51bf79c54350bab98400651b3314ff6e79b33528821871d94a666988390606001610765565b6001600160a01b0382166113fa576040516306b7a93160e41b815260040160405180910390fd5b61140e6001600160a01b0384168383611c7e565b505050565b61141c81611a18565b61127a57604051633c30434160e21b815263ffffffff821660048201526024016108cf565b6001600160a01b03808316600090815260046020908152604080832063ffffffff8089168552908352928190208551815493870151909516640100000000026001600160c01b03199093169490931693909317179055517f779cb2dd9d2bb1be1737d05435d744facbfb84a2a4912e21379d39beddcdc805906107659084908690859061437d565b6114d48284836115a4565b6114de8284610c8e565b507f82118522aa536ac0e96cc5c689407ae42b89d592aa133890a01f1509842f5081828483604051610765939291906143bf565b6000546001600160a01b03163314610fb75760405162461bcd60e51b815260206004820181905260248201527f4f776e61626c653a2063616c6c6572206973206e6f7420746865206f776e657260448201526064016108cf565b602081015160ff161580156115865750606081015160ff16155b1561127a5760405163ce2c375160e01b815260040160405180910390fd5b602081015160ff90811614806115bf5750602081015160ff16155b156115ed57608081015151156115e8576040516341d50bed60e11b815260040160405180910390fd5b611653565b806020015160ff1681608001515114158061162857506002611611600160ff6143ef565b61161b9190614408565b60ff16816020015160ff16115b15611646576040516341d50bed60e11b815260040160405180910390fd5b6116538160800151611cd0565b604081015160ff908116148061166e5750604081015160ff16155b156116c25760a081015151156116975760405163211089b360e11b815260040160405180910390fd5b606081015160ff16156116bd576040516338682fa960e01b815260040160405180910390fd5b611767565b806040015160ff168160a00151511415806116fd575060026116e6600160ff6143ef565b6116f09190614408565b60ff16816040015160ff16115b1561171b5760405163211089b360e11b815260040160405180910390fd5b606081015160ff16158061173c5750806040015160ff16816060015160ff16115b1561175a576040516338682fa960e01b815260040160405180910390fd5b6117678160a00151611cd0565b6001600160a01b038316600090815260016020818152604080842063ffffffff8716855282529283902084518154868401519587015160608801516001600160401b0390931668ffffffffffffffffff1990921691909117600160401b60ff97881602176affff0000000000000000001916600160481b9187169190910260ff60501b191617600160501b95909116949094029390931783556080840151805185949361181993908501920190613745565b5060a08201518051611835916002840191602090910190613745565b505050505050565b6060600080600061184e8686611d37565b9092509050600061187861186860608a0160408b01613ce7565b6101a060808b0160608c01613bc8565b9050600061188960c08a018a613d83565b905090506118a181836000015163ffffffff16611d50565b60208201516118d1906118ba60808c0160608d01613bc8565b6118ca60608d0160408e01613ce7565b8488611d7f565b6118db9086614291565b94506000806118ea8b86611e78565b90925090506118f98288614291565b909b909a5098505050505050505050565b60035460009081906001600160a01b031615610c85576040516001600160a01b038716602482015263ffffffff8616604482015260648101859052831515608482015260009060a40160408051601f19818403018152919052602080820180516001600160e01b0316636a8e2a4360e11b17905260035491925060009182916119c1916001600160a01b0316907f000000000000000000000000000000000000000000000000000000000000000090849087611e9b565b915091506119d187878484611f4b565b90955093508415611a0c576003546001600160a01b031660009081526005602052604081208054879290611a06908490614291565b90915550505b50505094509492505050565b63ffffffff811660009081527fa6eef7e35abe7026729641147f7915573c7e97b47efa546f5f6e3230263bcb49602052604081208054600160401b900460ff16151580611044575054600160501b900460ff16151592915050565b600080546001600160a01b038381166001600160a01b0319831681178455604051919092169283917f8be0079c531659141344cd1fd0a4f28419497f9722a3daafe3b4186f6b6457e09190a35050565b600080600080611ad38686611d37565b915091506000611ae48b8b84611fc6565b90506000611af28c8c61055f565b9050611b088a826000015163ffffffff16611d50565b80602001516001600160a01b031663709eb6648c8e8d886040518563ffffffff1660e01b8152600401611b3e9493929190614438565b602060405180830381865afa158015611b5b573d6000803e3d6000fd5b505050506040513d601f19601f82011682018060405250810190611b7f9190614475565b611b899083614291565b9150600080611b9a8e8e868e611fd3565b9092509050611ba98285614291565b9e909d509b505050505050505050505050565b600380546001600160a01b0319166001600160a01b0383169081179091556040519081527f3c864541ef71378c6229510ed90f376565ee42d9c5e0904a984a9e863e6db44f906020016111ee565b3360009081526005602052604090205480821115611c455760405163068109f760e31b815260048101839052602481018290526044016108cf565b3360009081526005602052604090209190039055565b6001600160a01b038316611c735761140e82826120a4565b61140e8383836113d3565b604080516001600160a01b038416602482015260448082018490528251808303909101815260649091019091526020810180516001600160e01b031663a9059cbb60e01b17905261140e908490612151565b6000805b825181101561140e576000838281518110611cf157611cf1613d4d565b60200260200101519050826001600160a01b0316816001600160a01b031611611d2d5760405163447516e160e01b815260040160405180910390fd5b9150600101611cd4565b606080611d448484612226565b915091505b9250929050565b80821115611d7b57604051636333d79f60e11b815260048101839052602481018290526044016108cf565b5050565b6040516338bf452160e11b81526000906001600160a01b0387169063717e8a4290611db4908890889088908890600401614438565b6020604051808303816000875af1158015611dd3573d6000803e3d6000fd5b505050506040513d601f19601f82011682018060405250810190611df79190614475565b90508015611e2d576001600160a01b03861660009081526005602052604081208054839290611e27908490614291565b90915550505b604080516001600160a01b0388168152602081018390527f61ed099e74a97a1d7f8bb0952a88ca8b7b8ebd00c126ea04671f92a81213318a910160405180910390a195945050505050565b60006060611e906005611e8a866144fd565b85612313565b909590945092505050565b60006060863b808303611ec257604080516000808252602082019092529250925050611f41565b60008060008761ffff166001600160401b03811115611ee357611ee3613dc9565b6040519080825280601f01601f191660200182016040528015611f0d576020820181803683370190505b509050600080885160208a018c8f8ff191503d925087831115611f2e578792505b828152826000602083013e909450925050505b9550959350505050565b600080831580611f5c575082516020115b15611f6c57506000905080610c85565b600083806020019051810190611f829190614475565b90508515611f9257809150611fbc565b60006002548811611fa557600254611fa7565b875b9050808211611fb65781611fb8565b805b9350505b5094509492505050565b6000611261848484612461565b60035460009081906001600160a01b031615610c85576040516001600160a01b038716602482015263ffffffff8616604482015260648101859052831515608482015260009060a40160408051601f19818403018152919052602080820180516001600160e01b031663d424422160e01b1790526003549192506000918291612088916001600160a01b0316907f000000000000000000000000000000000000000000000000000000000000000090866124db565b9150915061209887878484611f4b565b94509450505050610c85565b6001600160a01b0382166120cb576040516306b7a93160e41b815260040160405180910390fd5b6000826001600160a01b03168260405160006040518083038185875af1925050503d8060008114612118576040519150601f19603f3d011682016040523d82523d6000602084013e61211d565b606091505b505090508061140e57604051631196f20d60e21b81526001600160a01b0384166004820152602481018390526044016108cf565b60006121a6826040518060400160405280602081526020017f5361666545524332303a206c6f772d6c6576656c2063616c6c206661696c6564815250856001600160a01b03166125879092919063ffffffff16565b90508051600014806121c75750808060200190518101906121c7919061459a565b61140e5760405162461bcd60e51b815260206004820152602a60248201527f5361666545524332303a204552433230206f7065726174696f6e20646964206e6044820152691bdd081cdd58d8d9595960b21b60648201526084016108cf565b6060806000806122368686612596565b91509150805160000361228e57604080516000808252602082019092528391612282565b60408051808201909152600081526060602082015281526020019060019003908161225a5790505b50935093505050611d49565b604080516001808252818301909252600091816020015b6040805180820190915260008152606060208201528152602001906001900390816122a55790505090506040518060400160405280600260ff16815260200183815250816000815181106122fb576122fb613d4d565b60209081029190910101529196919550909350505050565b60006060600061232285612755565b9050600061232f866127e2565b8051602082012060608801516040890151929350909160006123518284610c8e565b905060008951600014612382578960008151811061237157612371613d4d565b602002602001015160200151612393565b604051806020016040528060008152505b905060606123e58d846040518060a001604052808963ffffffff1681526020018c81526020018a815260200187600001516001600160401b03168152602001886001600160a01b0316815250856127ff565b604051919b5091506123fd90899089906020016145b7565b60405160208183030381529060405298507f07ea52d82345d6e838192107d8fd7123d9c2ec8e916cd0aad13fd2b60db2464483608001518460a0015183604051612449939291906145e6565b60405180910390a15050505050505050935093915050565b60008061246e8585610c8e565b90506000835160001461249f578360008151811061248e5761248e613d4d565b6020026020010151602001516124b0565b604051806020016040528060008152505b90506000806124be83612aaa565b915091506124cf84888a8585612d10565b98975050505050505050565b60006060853b80830361250257604080516000808252602082019092529250925050610c85565b60008060008761ffff166001600160401b0381111561252357612523613dc9565b6040519080825280601f01601f19166020018201604052801561254d576020820181803683370190505b509050600080885160208a018d8dfa91503d92508783111561256d578792505b828152826000602083013e90999098509650505050505050565b60606112618484600085612ea8565b60608060028310156125be5760405163196499c760e21b8152600060048201526024016108cf565b60006125cd6002828688614644565b6125d69161466e565b60f01c90506002600219820161273e578060005b868310156126e357600061260360018501858a8c614644565b61260c9161469e565b60f81c9050600081900361263657604051636780cfaf60e01b8152600060048201526024016108cf565b8160ff1660000361264957809150612686565b8160ff168160ff16146126865736600061266586868c8e614644565b915091506126768989868585612f83565b9099509750859450919250829150505b600184019360009061269d90600301868b8d614644565b6126a69161466e565b60f01c905060008190036126d05760405163196499c760e21b8152600481018690526024016108cf565b8060020161ffff168501945050506125ea565b8287146127065760405163196499c760e21b8152600481018490526024016108cf565b60028711156127375736600061271e85858b8d614644565b9150915061272f8888858585612f83565b909850965050505b505061274c565b6127498287876130a3565b93505b50509250929050565b805160208083015160408085015160608087015160808801519351600160f81b9681019690965260c09690961b6001600160c01b031916602186015260e093841b6001600160e01b031990811660298701526001600160a01b03909216602d8601529490921b909116604d83015260518201526071015b6040516020818303038152906040529050919050565b60608160a001518260c001516040516020016127cc9291906146cc565b6000606060008061280f85612aaa565b9150915060008760400151886020015161282991906146f2565b90508060ff166001600160401b0381111561284657612846613dc9565b60405190808252806020026020018201604052801561286f578160200160208202803683370190505b50935060005b8160ff168160ff161015612a9d576000896020015160ff168260ff16106128ca5760a08a015160208b01516128aa90846143ef565b60ff16815181106128bd576128bd613d4d565b60200260200101516128ec565b89608001518260ff16815181106128e3576128e3613d4d565b60200260200101515b60408051602081019091526000808252919250905b8551811015612959578360ff1686828151811061292057612920613d4d565b602002602001015160ff16036129515786818151811061294257612942613d4d565b60200260200101519150612959565b600101612901565b506040516395d376d760e01b81526001600160a01b038316906395d376d790612988908d90859060040161470b565b6020604051808303816000875af11580156129a7573d6000803e3d6000fd5b505050506040513d601f19601f820116820180604052508101906129cb9190614475565b878460ff16815181106129e0576129e0613d4d565b6020026020010181815250506000878460ff1681518110612a0357612a03613d4d565b60200260200101511115612a9357868360ff1681518110612a2657612a26613d4d565b60200260200101518c6000846001600160a01b03166001600160a01b031681526020019081526020016000206000828254612a619190614291565b92505081905550868360ff1681518110612a7d57612a7d613d4d565b602002602001015188612a909190614291565b97505b5050600101612875565b5050505094509492505050565b6060808251600003612abb57915091565b6000612ac68461322e565b90508060ff16600103612b785760408051600180825281830190925290816020015b6060815260200190600190039081612ae85790505092508383600081518110612b1357612b13613d4d565b602090810291909101015260408051600180825281830190925290816020016020820280368337019050509150612b4b846003613308565b82600081518110612b5e57612b5e613d4d565b602002602001019060ff16908160ff168152505050915091565b8060ff166001600160401b03811115612b9357612b93613dc9565b604051908082528060200260200182016040528015612bbc578160200160208202803683370190505b5091508060ff166001600160401b03811115612bda57612bda613dc9565b604051908082528060200260200182016040528015612c0d57816020015b6060815260200190600190039081612bf85790505b50925060008060ff5b8651831015612ca3576001909201916000612c318885613364565b6002949094019390506000612c468986613308565b90508260ff1660ff03612c5b57809250612c94565b8260ff168160ff1614612c9457600219848603016000612c7c8b87846133c1565b9050612c8a8a8a87846134ce565b5093909301929150815b5061ffff169290920191612c16565b8183036000612cb38985846133c1565b9050612cc1888885846134ce565b60005b8660ff168160ff161015612d0457878160ff1681518110612ce757612ce7613d4d565b6020908102919091010180516000190160ff169052600101612cc4565b50505050505050915091565b60008086604001518760200151612d2791906146f2565b905060005b8160ff168160ff161015612e9d576000886020015160ff168260ff1610612d815760a089015160208a0151612d6190846143ef565b60ff1681518110612d7457612d74613d4d565b6020026020010151612da3565b88608001518260ff1681518110612d9a57612d9a613d4d565b60200260200101515b60408051602081019091526000808252919250905b8651811015612e10578360ff16878281518110612dd757612dd7613d4d565b602002602001015160ff1603612e0857878181518110612df957612df9613d4d565b60200260200101519150612e10565b600101612db8565b508951604051630c2eceab60e21b81526001600160a01b038416916330bb3aac91612e43918d918d90879060040161477d565b602060405180830381865afa158015612e60573d6000803e3d6000fd5b505050506040513d601f19601f82011682018060405250810190612e849190614475565b612e8e9086614291565b94505050806001019050612d2c565b505095945050505050565b606082471015612f095760405162461bcd60e51b815260206004820152602660248201527f416464726573733a20696e73756666696369656e742062616c616e636520666f6044820152651c8818d85b1b60d21b60648201526084016108cf565b600080866001600160a01b03168587604051612f2591906147bc565b60006040518083038185875af1925050503d8060008114612f62576040519150601f19603f3d011682016040523d82523d6000602084013e612f67565b606091505b5091509150612f78878383876135e4565b979650505050505050565b60608060001960ff86160161300057865115612fc257868484604051602001612fae939291906147ce565b604051602081830303815290604052612ff9565b83838080601f0160208091040260200160405190810160405280939291908181526020018383808284376000920191909152505050505b9650613098565b60011960ff86160161307a5785511561303c57858484604051602001613028939291906147ce565b604051602081830303815290604052613073565b83838080601f0160208091040260200160405190810160405280939291908181526020018383808284376000920191909152505050505b9550613098565b604051636780cfaf60e01b815260ff861660048201526024016108cf565b509495939450505050565b606060001961ffff85160161314357602282146130d3576040516301b8ca5560e31b815260040160405180910390fd5b60006130f46130e6602260028688614644565b6130ef916147f6565b61365d565b604051600160f81b60208201819052601160f01b602183015260238201526001600160801b0319608083901b166024820152909150603401604051602081830303815290604052915050611044565b60011961ffff85160161320f576042821115806131605750606282115b1561317e576040516360493e2b60e11b815260040160405180910390fd5b60006131916130e6602260028688614644565b905060006131a66130e6604260228789614644565b9050600060411985016131bc866042818a614644565b6131c5916147f6565b60405160086020938403029190911c92506131f6916001916011918391889183916031916002918b918b9101614814565b6040516020818303038152906040529350505050611044565b604051630417051360e41b815261ffff851660048201526024016108cf565b600080805b83518210156132dd57600190910190600061324e8584613364565b905060028301925060028161ffff16101561327f5760405163013adb8360e21b8152600481018490526024016108cf565b600061328b8685613308565b90508060ff1660ff036132b1576040516334f4f66f60e21b815260040160405180910390fd5b600160ff82161b83166132ce5760019485019460ff82161b831792505b5061ffff169190910190613233565b835182146133015760405163013adb8360e21b8152600481018390526024016108cf565b5050919050565b6000613315826001614291565b8351101561335b5760405162461bcd60e51b8152602060048201526013602482015272746f55696e74385f6f75744f66426f756e647360681b60448201526064016108cf565b50016001015190565b6000613371826002614291565b835110156133b85760405162461bcd60e51b8152602060048201526014602482015273746f55696e7431365f6f75744f66426f756e647360601b60448201526064016108cf565b50016002015190565b6060816133cf81601f614291565b101561340e5760405162461bcd60e51b815260206004820152600e60248201526d736c6963655f6f766572666c6f7760901b60448201526064016108cf565b6134188284614291565b8451101561345c5760405162461bcd60e51b8152602060048201526011602482015270736c6963655f6f75744f66426f756e647360781b60448201526064016108cf565b60608215801561347b57604051915060008252602082016040526134c5565b6040519150601f8416801560200281840101858101878315602002848b0101015b818310156134b457805183526020928301920161349c565b5050858452601f01601f1916604052505b50949350505050565b8160ff1660ff036134f2576040516334f4f66f60e21b815260040160405180910390fd5b60006134ff8360016146f2565b905060005b845181101561183557600085828151811061352157613521613d4d565b602002602001015190508060ff168360ff16036135965786828151811061354a5761354a613d4d565b6020026020010151846040516020016135649291906145b7565b60405160208183030381529060405287838151811061358557613585613d4d565b602002602001018190525050611835565b8060ff166000036135db57828683815181106135b4576135b4613d4d565b602002602001019060ff16908160ff16815250508387838151811061358557613585613d4d565b50600101613504565b6060831561365357825160000361364c576001600160a01b0385163b61364c5760405162461bcd60e51b815260206004820152601d60248201527f416464726573733a2063616c6c20746f206e6f6e2d636f6e747261637400000060448201526064016108cf565b5081611261565b61126183836136d3565b60006fffffffffffffffffffffffffffffffff8211156136cf5760405162461bcd60e51b815260206004820152602760248201527f53616665436173743a2076616c756520646f65736e27742066697420696e20316044820152663238206269747360c81b60648201526084016108cf565b5090565b8151156136e35781518083602001fd5b8060405162461bcd60e51b81526004016108cf9190613c30565b6040518060c0016040528060006001600160401b03168152602001600060ff168152602001600060ff168152602001600060ff16815260200160608152602001606081525090565b82805482825590600052602060002090810192821561379a579160200282015b8281111561379a57825182546001600160a01b0319166001600160a01b03909116178255602090920191600190910190613765565b506136cf9291505b808211156136cf57600081556001016137a2565b6000602082840312156137c857600080fd5b81356001600160e01b03198116811461104457600080fd5b6001600160a01b038116811461127a57600080fd5b8035613800816137e0565b919050565b63ffffffff8116811461127a57600080fd5b803561380081613805565b6000806040838503121561383557600080fd5b8235613840816137e0565b9150602083013561385081613805565b809150509250929050565b815163ffffffff1681526020808301516001600160a01b03169082015260408101610559565b60208101600383106138a357634e487b7160e01b600052602160045260246000fd5b91905290565b6000806000606084860312156138be57600080fd5b83356138c9816137e0565b925060208401356138d9816137e0565b929592945050506040919091013590565b60008083601f8401126138fc57600080fd5b5081356001600160401b0381111561391357600080fd5b6020830191508360208260051b8501011115611d4957600080fd5b60008060006040848603121561394357600080fd5b833561394e816137e0565b925060208401356001600160401b0381111561396957600080fd5b613975868287016138ea565b9497909650939450505050565b6000806020838503121561399557600080fd5b82356001600160401b038111156139ab57600080fd5b6139b7858286016138ea565b90969095509350505050565b60008151808452602080850194506020840160005b838110156139fd5781516001600160a01b0316875295820195908201906001016139d8565b509495945050505050565b6001600160401b03815116825260ff602082015116602083015260ff604082015116604083015260ff60608201511660608301526000608082015160c06080850152613a5760c08501826139c3565b905060a083015184820360a0860152613a7082826139c3565b95945050505050565b6020815260006110446020830184613a08565b801515811461127a57600080fd5b803561380081613a8c565b60008060008060608587031215613abb57600080fd5b84356001600160401b0380821115613ad257600080fd5b9086019060e08289031215613ae657600080fd5b90945060208601359080821115613afc57600080fd5b818701915087601f830112613b1057600080fd5b813581811115613b1f57600080fd5b886020828501011115613b3157600080fd5b602083019550809450505050613b4960408601613a9a565b905092959194509250565b60005b83811015613b6f578181015183820152602001613b57565b50506000910152565b60008151808452613b90816020860160208601613b54565b601f01601f19169290920160200192915050565b82518152602080840151908201526060604082015260006112616060830184613b78565b600060208284031215613bda57600080fd5b813561104481613805565b600080600060608486031215613bfa57600080fd5b8335613c0581613805565b92506020840135613c15816137e0565b91506040840135613c2581613805565b809150509250925092565b6020815260006110446020830184613b78565b60008060208385031215613c5657600080fd5b82356001600160401b0380821115613c6d57600080fd5b818501915085601f830112613c8157600080fd5b813581811115613c9057600080fd5b866020606083028501011115613ca557600080fd5b60209290920196919550909350505050565b600060208284031215613cc957600080fd5b5035919050565b815181526020808301519082015260408101610559565b600060208284031215613cf957600080fd5b8135611044816137e0565b60008060408385031215613d1757600080fd5b8235613d22816137e0565b946020939093013593505050565b600060208284031215613d4257600080fd5b8151611044816137e0565b634e487b7160e01b600052603260045260246000fd5b60008235605e19833603018112613d7957600080fd5b9190910192915050565b6000808335601e19843603018112613d9a57600080fd5b8301803591506001600160401b03821115613db457600080fd5b602001915036819003821315611d4957600080fd5b634e487b7160e01b600052604160045260246000fd5b60405160c081016001600160401b0381118282101715613e0157613e01613dc9565b60405290565b60405160e081016001600160401b0381118282101715613e0157613e01613dc9565b604051601f8201601f191681016001600160401b0381118282101715613e5157613e51613dc9565b604052919050565b600060408284031215613e6b57600080fd5b604051604081018181106001600160401b0382111715613e8d57613e8d613dc9565b6040528235613e9b81613805565b81526020830135613eab816137e0565b60208201529392505050565b80356001600160401b038116811461380057600080fd5b803560ff8116811461380057600080fd5b600082601f830112613ef057600080fd5b813560206001600160401b03821115613f0b57613f0b613dc9565b8160051b613f1a828201613e29565b9283528481018201928281019087851115613f3457600080fd5b83870192505b84831015612f78578235613f4d816137e0565b82529183019190830190613f3a565b600060c08284031215613f6e57600080fd5b613f76613ddf565b9050613f8182613eb7565b8152613f8f60208301613ece565b6020820152613fa060408301613ece565b6040820152613fb160608301613ece565b606082015260808201356001600160401b0380821115613fd057600080fd5b613fdc85838601613edf565b608084015260a0840135915080821115613ff557600080fd5b5061400284828501613edf565b60a08301525092915050565b60006020828403121561402057600080fd5b81356001600160401b0381111561403657600080fd5b61126184828501613f5c565b60008235603e19833603018112613d7957600080fd5b6000823560be19833603018112613d7957600080fd5b60006020828403121561408057600080fd5b61104482613ece565b60006020828403121561409b57600080fd5b61104482613eb7565b60006105593683613f5c565b6000808335601e198436030181126140c757600080fd5b83016020810192503590506001600160401b038111156140e657600080fd5b8060051b3603821315611d4957600080fd5b8183526000602080850194508260005b858110156139fd57813561411b816137e0565b6001600160a01b031687529582019590820190600101614108565b60208082528181018390526000906040808401600586901b8501820187855b8881101561426d57603f19808985030185528235603e198c360301811261417b57600080fd5b8b01803561418881613805565b63ffffffff168552808801353682900360be190181126141a757600080fd5b858901889052016001600160401b036141bf82613eb7565b16878601526141cf888201613ece565b606060ff808316828901526141e58a8501613ece565b92506080818416818a01526141fb838601613ece565b935060a09250818416838a0152614214818601866140b0565b60c08b8101529450915061422f9050610100890184836140f8565b92505061423e818401846140b0565b93509050838783030160e08801526142578284836140f8565b978a019796505050928701925050600101614155565b509098975050505050505050565b634e487b7160e01b600052601160045260246000fd5b808201808211156105595761055961427b565b81356142af81613805565b63ffffffff8116905081548163ffffffff19821617835560208401356142d4816137e0565b6001600160c01b03199190911690911760209190911b640100000000600160c01b031617905550565b6020808252818101839052600090604080840186845b8781101561437057813561432681613805565b63ffffffff9081168452828601359061433e82613805565b168386015281840135614350816137e0565b6001600160a01b0316838501526060928301929190910190600101614313565b5090979650505050505050565b6001600160a01b038416815263ffffffff83166020820152608081016112616040830184805163ffffffff1682526020908101516001600160a01b0316910152565b6001600160a01b038416815263ffffffff83166020820152606060408201819052600090613a7090830184613a08565b60ff82811682821603908111156105595761055961427b565b600060ff83168061442957634e487b7160e01b600052601260045260246000fd5b8060ff84160491505092915050565b63ffffffff8516815260018060a01b038416602082015282604082015260806060820152600061446b6080830184613b78565b9695505050505050565b60006020828403121561448757600080fd5b5051919050565b600082601f83011261449f57600080fd5b81356001600160401b038111156144b8576144b8613dc9565b6144cb601f8201601f1916602001613e29565b8181528460208386010111156144e057600080fd5b816020850160208301376000918101602001919091529392505050565b600060e0823603121561450f57600080fd5b614517613e07565b61452083613eb7565b815261452e60208401613817565b602082015261453f604084016137f5565b604082015261455060608401613817565b60608201526080830135608082015260a083013560a082015260c08301356001600160401b0381111561458257600080fd5b61458e3682860161448e565b60c08301525092915050565b6000602082840312156145ac57600080fd5b815161104481613a8c565b600083516145c9818460208801613b54565b8351908301906145dd818360208801613b54565b01949350505050565b6060815260006145f960608301866139c3565b6020838203602085015261460d82876139c3565b84810360408601528551808252602080880194509091019060005b8181101561426d57845183529383019391830191600101614628565b6000808585111561465457600080fd5b8386111561466157600080fd5b5050820193919092039150565b6001600160f01b031981358181169160028510156146965780818660020360031b1b83161692505b505092915050565b6001600160f81b031981358181169160018510156146965760019490940360031b84901b1690921692915050565b828152600082516146e4816020850160208701613b54565b919091016020019392505050565b60ff81811683821601908111156105595761055961427b565b6040815263ffffffff83511660408201526000602084015160a0606084015261473760e0840182613b78565b604086015160808581019190915260608701516001600160401b031660a08601528601516001600160a01b031660c085015283810360208501529050613a708185613b78565b63ffffffff851681526001600160401b03841660208201526001600160a01b038316604082015260806060820181905260009061446b90830184613b78565b60008251613d79818460208701613b54565b600084516147e0818460208901613b54565b8201838582376000930192835250909392505050565b8035602083101561055957600019602084900360031b1b1692915050565b60f88a811b6001600160f81b0319908116835260f08b811b6001600160f01b031990811660018601528b841b8316600386015260808b901b6001600160801b031916600486015289841b831660148601529088901b1660158401529085901b1660178201526000614894601883018560801b6001600160801b0319169052565b5060288101919091526048019897505050505050505056fea2646970667358221220c97868b9851a285ec5758607a2f96be8e5371bbdaab4656c835a7c547b99cc7564736f6c63430008160033",
  "devdoc": {
    "details": "This is a gluing contract. It simply parses the requests and forward to the super.impl() accordingly.In this case, it combines the logic of SendUlnBase and SendLibBaseE2",
    "kind": "dev",
    "methods": {
      "getAppUlnConfig(address,uint32)": {
        "details": "Get the uln config without the default config for the given remoteEid."
      },
      "owner()": {
        "details": "Returns the address of the current owner."
      },
      "renounceOwnership()": {
        "details": "Leaves the contract without owner. It will not be possible to call `onlyOwner` functions. Can only be called by the current owner. NOTE: Renouncing ownership will leave the contract without an owner, thereby disabling any functionality that is only available to the owner."
      },
      "setDefaultUlnConfigs((uint32,(uint64,uint8,uint8,uint8,address[],address[]))[])": {
        "details": "about the DEFAULT ULN config 1) its values are all LITERAL (e.g. 0 is 0). whereas in the oapp ULN config, 0 (default value) points to the default ULN config     this design enables the oapp to point to DEFAULT config without explicitly setting the config 2) its configuration is more restrictive than the oapp ULN config that     a) it must not use NIL value, where NIL is used only by oapps to indicate the LITERAL 0     b) it must have at least one DVN"
      },
      "setTreasuryNativeFeeCap(uint256)": {
        "details": "the new value can not be greater than the old value, i.e. down only"
      },
      "transferOwnership(address)": {
        "details": "Transfers ownership of the contract to a new account (`newOwner`). Can only be called by the current owner."
      },
      "withdrawFee(address,uint256)": {
        "details": "E2 only"
      },
      "withdrawLzTokenFee(address,address,uint256)": {
        "details": "_lzToken is a user-supplied value because lzToken might change in the endpoint before all lzToken can be taken outE2 onlytreasury only function"
      }
    },
    "version": 1
  },
  "userdoc": {
    "kind": "user",
    "methods": {},
    "version": 1
  },
  "storageLayout": {
    "storage": [
      {
        "astId": 7924,
        "contract": "contracts/messagelib/contracts/uln/uln302/SendUln302.sol:SendUln302",
        "label": "_owner",
        "offset": 0,
        "slot": "0",
        "type": "t_address"
      },
      {
        "astId": 20352,
        "contract": "contracts/messagelib/contracts/uln/uln302/SendUln302.sol:SendUln302",
        "label": "ulnConfigs",
        "offset": 0,
        "slot": "1",
        "type": "t_mapping(t_address,t_mapping(t_uint32,t_struct(UlnConfig)20301_storage))"
      },
      {
        "astId": 15063,
        "contract": "contracts/messagelib/contracts/uln/uln302/SendUln302.sol:SendUln302",
        "label": "treasuryNativeFeeCap",
        "offset": 0,
        "slot": "2",
        "type": "t_uint256"
      },
      {
        "astId": 15065,
        "contract": "contracts/messagelib/contracts/uln/uln302/SendUln302.sol:SendUln302",
        "label": "treasury",
        "offset": 0,
        "slot": "3",
        "type": "t_address"
      },
      {
        "astId": 15072,
        "contract": "contracts/messagelib/contracts/uln/uln302/SendUln302.sol:SendUln302",
        "label": "executorConfigs",
        "offset": 0,
        "slot": "4",
        "type": "t_mapping(t_address,t_mapping(t_uint32,t_struct(ExecutorConfig)15042_storage))"
      },
      {
        "astId": 15076,
        "contract": "contracts/messagelib/contracts/uln/uln302/SendUln302.sol:SendUln302",
        "label": "fees",
        "offset": 0,
        "slot": "5",
        "type": "t_mapping(t_address,t_uint256)"
      }
    ],
    "types": {
      "t_address": {
        "encoding": "inplace",
        "label": "address",
        "numberOfBytes": "20"
      },
      "t_array(t_address)dyn_storage": {
        "base": "t_address",
        "encoding": "dynamic_array",
        "label": "address[]",
        "numberOfBytes": "32"
      },
      "t_mapping(t_address,t_mapping(t_uint32,t_struct(ExecutorConfig)15042_storage))": {
        "encoding": "mapping",
        "key": "t_address",
        "label": "mapping(address => mapping(uint32 => struct ExecutorConfig))",
        "numberOfBytes": "32",
        "value": "t_mapping(t_uint32,t_struct(ExecutorConfig)15042_storage)"
      },
      "t_mapping(t_address,t_mapping(t_uint32,t_struct(UlnConfig)20301_storage))": {
        "encoding": "mapping",
        "key": "t_address",
        "label": "mapping(address => mapping(uint32 => struct UlnConfig))",
        "numberOfBytes": "32",
        "value": "t_mapping(t_uint32,t_struct(UlnConfig)20301_storage)"
      },
      "t_mapping(t_address,t_uint256)": {
        "encoding": "mapping",
        "key": "t_address",
        "label": "mapping(address => uint256)",
        "numberOfBytes": "32",
        "value": "t_uint256"
      },
      "t_mapping(t_uint32,t_struct(ExecutorConfig)15042_storage)": {
        "encoding": "mapping",
        "key": "t_uint32",
        "label": "mapping(uint32 => struct ExecutorConfig)",
        "numberOfBytes": "32",
        "value": "t_struct(ExecutorConfig)15042_storage"
      },
      "t_mapping(t_uint32,t_struct(UlnConfig)20301_storage)": {
        "encoding": "mapping",
        "key": "t_uint32",
        "label": "mapping(uint32 => struct UlnConfig)",
        "numberOfBytes": "32",
        "value": "t_struct(UlnConfig)20301_storage"
      },
      "t_struct(ExecutorConfig)15042_storage": {
        "encoding": "inplace",
        "label": "struct ExecutorConfig",
        "members": [
          {
            "astId": 15039,
            "contract": "contracts/messagelib/contracts/uln/uln302/SendUln302.sol:SendUln302",
            "label": "maxMessageSize",
            "offset": 0,
            "slot": "0",
            "type": "t_uint32"
          },
          {
            "astId": 15041,
            "contract": "contracts/messagelib/contracts/uln/uln302/SendUln302.sol:SendUln302",
            "label": "executor",
            "offset": 4,
            "slot": "0",
            "type": "t_address"
          }
        ],
        "numberOfBytes": "32"
      },
      "t_struct(UlnConfig)20301_storage": {
        "encoding": "inplace",
        "label": "struct UlnConfig",
        "members": [
          {
            "astId": 20288,
            "contract": "contracts/messagelib/contracts/uln/uln302/SendUln302.sol:SendUln302",
            "label": "confirmations",
            "offset": 0,
            "slot": "0",
            "type": "t_uint64"
          },
          {
            "astId": 20290,
            "contract": "contracts/messagelib/contracts/uln/uln302/SendUln302.sol:SendUln302",
            "label": "requiredDVNCount",
            "offset": 8,
            "slot": "0",
            "type": "t_uint8"
          },
          {
            "astId": 20292,
            "contract": "contracts/messagelib/contracts/uln/uln302/SendUln302.sol:SendUln302",
            "label": "optionalDVNCount",
            "offset": 9,
            "slot": "0",
            "type": "t_uint8"
          },
          {
            "astId": 20294,
            "contract": "contracts/messagelib/contracts/uln/uln302/SendUln302.sol:SendUln302",
            "label": "optionalDVNThreshold",
            "offset": 10,
            "slot": "0",
            "type": "t_uint8"
          },
          {
            "astId": 20297,
            "contract": "contracts/messagelib/contracts/uln/uln302/SendUln302.sol:SendUln302",
            "label": "requiredDVNs",
            "offset": 0,
            "slot": "1",
            "type": "t_array(t_address)dyn_storage"
          },
          {
            "astId": 20300,
            "contract": "contracts/messagelib/contracts/uln/uln302/SendUln302.sol:SendUln302",
            "label": "optionalDVNs",
            "offset": 0,
            "slot": "2",
            "type": "t_array(t_address)dyn_storage"
          }
        ],
        "numberOfBytes": "96"
      },
      "t_uint256": {
        "encoding": "inplace",
        "label": "uint256",
        "numberOfBytes": "32"
      },
      "t_uint32": {
        "encoding": "inplace",
        "label": "uint32",
        "numberOfBytes": "4"
      },
      "t_uint64": {
        "encoding": "inplace",
        "label": "uint64",
        "numberOfBytes": "8"
      },
      "t_uint8": {
        "encoding": "inplace",
        "label": "uint8",
        "numberOfBytes": "1"
      }
    }
  }
}