{
  "address": "0xC2E94Ba47fEe71A926AD70799480b72C22d30F44",
  "abi": [
    {
      "inputs": [
        {
          "internalType": "address",
          "name": "_endpoint",
          "type": "address"
        },
        {
          "internalType": "uint256",
          "name": "_treasuryGasLimit",
          "type": "uint256"
        },
        {
          "internalType": "uint256",
          "name": "_treasuryGasForFeeCap",
          "type": "uint256"
        },
        {
          "internalType": "address",
          "name": "_nonceContract",
          "type": "address"
        },
        {
          "internalType": "uint32",
          "name": "_localEid",
          "type": "uint32"
        },
        {
          "internalType": "address",
          "name": "_treasuryFeeHandler",
          "type": "address"
        }
      ],
      "stateMutability": "nonpayable",
      "type": "constructor"
    },
    {
      "inputs": [],
      "name": "AddressCast_InvalidAddress",
      "type": "error"
    },
    {
      "inputs": [],
      "name": "AddressSizeConfig_AddressSizeAlreadySet",
      "type": "error"
    },
    {
      "inputs": [],
      "name": "AddressSizeConfig_InvalidAddressSize",
      "type": "error"
    },
    {
      "inputs": [],
      "name": "DVN_InvalidDVNIdx",
      "type": "error"
    },
    {
      "inputs": [
        {
          "internalType": "uint256",
          "name": "cursor",
          "type": "uint256"
        }
      ],
      "name": "DVN_InvalidDVNOptions",
      "type": "error"
    },
    {
      "inputs": [],
      "name": "LZ_MessageLib_InsufficientMsgValue",
      "type": "error"
    },
    {
      "inputs": [
        {
          "internalType": "uint256",
          "name": "requested",
          "type": "uint256"
        },
        {
          "internalType": "uint256",
          "name": "available",
          "type": "uint256"
        }
      ],
      "name": "LZ_MessageLib_InvalidAmount",
      "type": "error"
    },
    {
      "inputs": [],
      "name": "LZ_MessageLib_InvalidExecutor",
      "type": "error"
    },
    {
      "inputs": [
        {
          "internalType": "uint256",
          "name": "actual",
          "type": "uint256"
        },
        {
          "internalType": "uint256",
          "name": "max",
          "type": "uint256"
        }
      ],
      "name": "LZ_MessageLib_InvalidMessageSize",
      "type": "error"
    },
    {
      "inputs": [],
      "name": "LZ_MessageLib_InvalidPath",
      "type": "error"
    },
    {
      "inputs": [],
      "name": "LZ_MessageLib_InvalidSender",
      "type": "error"
    },
    {
      "inputs": [],
      "name": "LZ_MessageLib_LzTokenPaymentAddressMustBeSender",
      "type": "error"
    },
    {
      "inputs": [],
      "name": "LZ_MessageLib_OnlyEndpoint",
      "type": "error"
    },
    {
      "inputs": [],
      "name": "LZ_MessageLib_TransferFailed",
      "type": "error"
    },
    {
      "inputs": [],
      "name": "LZ_MessageLib_ZeroMessageSize",
      "type": "error"
    },
    {
      "inputs": [],
      "name": "LZ_ULN_AtLeastOneDVN",
      "type": "error"
    },
    {
      "inputs": [
        {
          "internalType": "uint256",
          "name": "configType",
          "type": "uint256"
        }
      ],
      "name": "LZ_ULN_InvalidConfigType",
      "type": "error"
    },
    {
      "inputs": [],
      "name": "LZ_ULN_InvalidConfirmations",
      "type": "error"
    },
    {
      "inputs": [],
      "name": "LZ_ULN_InvalidLegacyType1Option",
      "type": "error"
    },
    {
      "inputs": [],
      "name": "LZ_ULN_InvalidLegacyType2Option",
      "type": "error"
    },
    {
      "inputs": [],
      "name": "LZ_ULN_InvalidOptionalDVNCount",
      "type": "error"
    },
    {
      "inputs": [],
      "name": "LZ_ULN_InvalidOptionalDVNThreshold",
      "type": "error"
    },
    {
      "inputs": [],
      "name": "LZ_ULN_InvalidRequiredDVNCount",
      "type": "error"
    },
    {
      "inputs": [
        {
          "internalType": "uint8",
          "name": "workerId",
          "type": "uint8"
        }
      ],
      "name": "LZ_ULN_InvalidWorkerId",
      "type": "error"
    },
    {
      "inputs": [
        {
          "internalType": "uint256",
          "name": "cursor",
          "type": "uint256"
        }
      ],
      "name": "LZ_ULN_InvalidWorkerOptions",
      "type": "error"
    },
    {
      "inputs": [],
      "name": "LZ_ULN_Unsorted",
      "type": "error"
    },
    {
      "inputs": [
        {
          "internalType": "uint32",
          "name": "eid",
          "type": "uint32"
        }
      ],
      "name": "LZ_ULN_UnsupportedEid",
      "type": "error"
    },
    {
      "inputs": [
        {
          "internalType": "uint16",
          "name": "optionType",
          "type": "uint16"
        }
      ],
      "name": "LZ_ULN_UnsupportedOptionType",
      "type": "error"
    },
    {
      "inputs": [
        {
          "internalType": "address",
          "name": "_to",
          "type": "address"
        },
        {
          "internalType": "uint256",
          "name": "_value",
          "type": "uint256"
        }
      ],
      "name": "Transfer_NativeFailed",
      "type": "error"
    },
    {
      "inputs": [],
      "name": "Transfer_ToAddressIsZero",
      "type": "error"
    },
    {
      "anonymous": false,
      "inputs": [
        {
          "indexed": false,
          "internalType": "uint16",
          "name": "eid",
          "type": "uint16"
        },
        {
          "indexed": false,
          "internalType": "uint256",
          "name": "size",
          "type": "uint256"
        }
      ],
      "name": "AddressSizeSet",
      "type": "event"
    },
    {
      "anonymous": false,
      "inputs": [
        {
          "indexed": false,
          "internalType": "address[]",
          "name": "requiredDVNs",
          "type": "address[]"
        },
        {
          "indexed": false,
          "internalType": "address[]",
          "name": "optionalDVNs",
          "type": "address[]"
        },
        {
          "indexed": false,
          "internalType": "uint256[]",
          "name": "fees",
          "type": "uint256[]"
        }
      ],
      "name": "DVNFeePaid",
      "type": "event"
    },
    {
      "anonymous": false,
      "inputs": [
        {
          "components": [
            {
              "internalType": "uint32",
              "name": "eid",
              "type": "uint32"
            },
            {
              "components": [
                {
                  "internalType": "uint32",
                  "name": "maxMessageSize",
                  "type": "uint32"
                },
                {
                  "internalType": "address",
                  "name": "executor",
                  "type": "address"
                }
              ],
              "internalType": "struct ExecutorConfig",
              "name": "config",
              "type": "tuple"
            }
          ],
          "indexed": false,
          "internalType": "struct SetDefaultExecutorConfigParam[]",
          "name": "params",
          "type": "tuple[]"
        }
      ],
      "name": "DefaultExecutorConfigsSet",
      "type": "event"
    },
    {
      "anonymous": false,
      "inputs": [
        {
          "components": [
            {
              "internalType": "uint32",
              "name": "eid",
              "type": "uint32"
            },
            {
              "components": [
                {
                  "internalType": "uint64",
                  "name": "confirmations",
                  "type": "uint64"
                },
                {
                  "internalType": "uint8",
                  "name": "requiredDVNCount",
                  "type": "uint8"
                },
                {
                  "internalType": "uint8",
                  "name": "optionalDVNCount",
                  "type": "uint8"
                },
                {
                  "internalType": "uint8",
                  "name": "optionalDVNThreshold",
                  "type": "uint8"
                },
                {
                  "internalType": "address[]",
                  "name": "requiredDVNs",
                  "type": "address[]"
                },
                {
                  "internalType": "address[]",
                  "name": "optionalDVNs",
                  "type": "address[]"
                }
              ],
              "internalType": "struct UlnConfig",
              "name": "config",
              "type": "tuple"
            }
          ],
          "indexed": false,
          "internalType": "struct SetDefaultUlnConfigParam[]",
          "name": "params",
          "type": "tuple[]"
        }
      ],
      "name": "DefaultUlnConfigsSet",
      "type": "event"
    },
    {
      "anonymous": false,
      "inputs": [
        {
          "indexed": false,
          "internalType": "address",
          "name": "oapp",
          "type": "address"
        },
        {
          "indexed": false,
          "internalType": "uint32",
          "name": "eid",
          "type": "uint32"
        },
        {
          "components": [
            {
              "internalType": "uint32",
              "name": "maxMessageSize",
              "type": "uint32"
            },
            {
              "internalType": "address",
              "name": "executor",
              "type": "address"
            }
          ],
          "indexed": false,
          "internalType": "struct ExecutorConfig",
          "name": "config",
          "type": "tuple"
        }
      ],
      "name": "ExecutorConfigSet",
      "type": "event"
    },
    {
      "anonymous": false,
      "inputs": [
        {
          "indexed": false,
          "internalType": "address",
          "name": "executor",
          "type": "address"
        },
        {
          "indexed": false,
          "internalType": "uint256",
          "name": "fee",
          "type": "uint256"
        }
      ],
      "name": "ExecutorFeePaid",
      "type": "event"
    },
    {
      "anonymous": false,
      "inputs": [
        {
          "indexed": false,
          "internalType": "address",
          "name": "token",
          "type": "address"
        }
      ],
      "name": "LzTokenSet",
      "type": "event"
    },
    {
      "anonymous": false,
      "inputs": [
        {
          "indexed": false,
          "internalType": "address",
          "name": "user",
          "type": "address"
        },
        {
          "indexed": false,
          "internalType": "address",
          "name": "receiver",
          "type": "address"
        },
        {
          "indexed": false,
          "internalType": "uint256",
          "name": "amount",
          "type": "uint256"
        }
      ],
      "name": "NativeFeeWithdrawn",
      "type": "event"
    },
    {
      "anonymous": false,
      "inputs": [
        {
          "indexed": true,
          "internalType": "address",
          "name": "previousOwner",
          "type": "address"
        },
        {
          "indexed": true,
          "internalType": "address",
          "name": "newOwner",
          "type": "address"
        }
      ],
      "name": "OwnershipTransferred",
      "type": "event"
    },
    {
      "anonymous": false,
      "inputs": [
        {
          "indexed": false,
          "internalType": "bytes",
          "name": "encodedPayload",
          "type": "bytes"
        },
        {
          "indexed": false,
          "internalType": "bytes",
          "name": "options",
          "type": "bytes"
        },
        {
          "indexed": false,
          "internalType": "uint256",
          "name": "nativeFee",
          "type": "uint256"
        },
        {
          "indexed": false,
          "internalType": "uint256",
          "name": "lzTokenFee",
          "type": "uint256"
        }
      ],
      "name": "PacketSent",
      "type": "event"
    },
    {
      "anonymous": false,
      "inputs": [
        {
          "indexed": false,
          "internalType": "uint256",
          "name": "newTreasuryNativeFeeCap",
          "type": "uint256"
        }
      ],
      "name": "TreasuryNativeFeeCapSet",
      "type": "event"
    },
    {
      "anonymous": false,
      "inputs": [
        {
          "indexed": false,
          "internalType": "address",
          "name": "treasury",
          "type": "address"
        }
      ],
      "name": "TreasurySet",
      "type": "event"
    },
    {
      "anonymous": false,
      "inputs": [
        {
          "indexed": false,
          "internalType": "address",
          "name": "oapp",
          "type": "address"
        },
        {
          "indexed": false,
          "internalType": "uint32",
          "name": "eid",
          "type": "uint32"
        },
        {
          "components": [
            {
              "internalType": "uint64",
              "name": "confirmations",
              "type": "uint64"
            },
            {
              "internalType": "uint8",
              "name": "requiredDVNCount",
              "type": "uint8"
            },
            {
              "internalType": "uint8",
              "name": "optionalDVNCount",
              "type": "uint8"
            },
            {
              "internalType": "uint8",
              "name": "optionalDVNThreshold",
              "type": "uint8"
            },
            {
              "internalType": "address[]",
              "name": "requiredDVNs",
              "type": "address[]"
            },
            {
              "internalType": "address[]",
              "name": "optionalDVNs",
              "type": "address[]"
            }
          ],
          "indexed": false,
          "internalType": "struct UlnConfig",
          "name": "config",
          "type": "tuple"
        }
      ],
      "name": "UlnConfigSet",
      "type": "event"
    },
    {
      "inputs": [
        {
          "internalType": "uint32",
          "name": "dstEid",
          "type": "uint32"
        }
      ],
      "name": "addressSizes",
      "outputs": [
        {
          "internalType": "uint256",
          "name": "size",
          "type": "uint256"
        }
      ],
      "stateMutability": "view",
      "type": "function"
    },
    {
      "inputs": [
        {
          "internalType": "uint16",
          "name": "_dstEid",
          "type": "uint16"
        },
        {
          "internalType": "address",
          "name": "_sender",
          "type": "address"
        },
        {
          "internalType": "bytes",
          "name": "_message",
          "type": "bytes"
        },
        {
          "internalType": "bool",
          "name": "_payInLzToken",
          "type": "bool"
        },
        {
          "internalType": "bytes",
          "name": "_options",
          "type": "bytes"
        }
      ],
      "name": "estimateFees",
      "outputs": [
        {
          "internalType": "uint256",
          "name": "nativeFee",
          "type": "uint256"
        },
        {
          "internalType": "uint256",
          "name": "lzTokenFee",
          "type": "uint256"
        }
      ],
      "stateMutability": "view",
      "type": "function"
    },
    {
      "inputs": [
        {
          "internalType": "address",
          "name": "oapp",
          "type": "address"
        },
        {
          "internalType": "uint32",
          "name": "eid",
          "type": "uint32"
        }
      ],
      "name": "executorConfigs",
      "outputs": [
        {
          "internalType": "uint32",
          "name": "maxMessageSize",
          "type": "uint32"
        },
        {
          "internalType": "address",
          "name": "executor",
          "type": "address"
        }
      ],
      "stateMutability": "view",
      "type": "function"
    },
    {
      "inputs": [
        {
          "internalType": "address",
          "name": "worker",
          "type": "address"
        }
      ],
      "name": "fees",
      "outputs": [
        {
          "internalType": "uint256",
          "name": "",
          "type": "uint256"
        }
      ],
      "stateMutability": "view",
      "type": "function"
    },
    {
      "inputs": [
        {
          "internalType": "address",
          "name": "_oapp",
          "type": "address"
        },
        {
          "internalType": "uint32",
          "name": "_remoteEid",
          "type": "uint32"
        }
      ],
      "name": "getAppUlnConfig",
      "outputs": [
        {
          "components": [
            {
              "internalType": "uint64",
              "name": "confirmations",
              "type": "uint64"
            },
            {
              "internalType": "uint8",
              "name": "requiredDVNCount",
              "type": "uint8"
            },
            {
              "internalType": "uint8",
              "name": "optionalDVNCount",
              "type": "uint8"
            },
            {
              "internalType": "uint8",
              "name": "optionalDVNThreshold",
              "type": "uint8"
            },
            {
              "internalType": "address[]",
              "name": "requiredDVNs",
              "type": "address[]"
            },
            {
              "internalType": "address[]",
              "name": "optionalDVNs",
              "type": "address[]"
            }
          ],
          "internalType": "struct UlnConfig",
          "name": "",
          "type": "tuple"
        }
      ],
      "stateMutability": "view",
      "type": "function"
    },
    {
      "inputs": [
        {
          "internalType": "uint16",
          "name": "_eid",
          "type": "uint16"
        },
        {
          "internalType": "address",
          "name": "_oapp",
          "type": "address"
        },
        {
          "internalType": "uint256",
          "name": "_configType",
          "type": "uint256"
        }
      ],
      "name": "getConfig",
      "outputs": [
        {
          "internalType": "bytes",
          "name": "",
          "type": "bytes"
        }
      ],
      "stateMutability": "view",
      "type": "function"
    },
    {
      "inputs": [
        {
          "internalType": "address",
          "name": "_oapp",
          "type": "address"
        },
        {
          "internalType": "uint32",
          "name": "_remoteEid",
          "type": "uint32"
        }
      ],
      "name": "getExecutorConfig",
      "outputs": [
        {
          "components": [
            {
              "internalType": "uint32",
              "name": "maxMessageSize",
              "type": "uint32"
            },
            {
              "internalType": "address",
              "name": "executor",
              "type": "address"
            }
          ],
          "internalType": "struct ExecutorConfig",
          "name": "rtnConfig",
          "type": "tuple"
        }
      ],
      "stateMutability": "view",
      "type": "function"
    },
    {
      "inputs": [
        {
          "internalType": "address",
          "name": "_oapp",
          "type": "address"
        },
        {
          "internalType": "uint32",
          "name": "_remoteEid",
          "type": "uint32"
        }
      ],
      "name": "getUlnConfig",
      "outputs": [
        {
          "components": [
            {
              "internalType": "uint64",
              "name": "confirmations",
              "type": "uint64"
            },
            {
              "internalType": "uint8",
              "name": "requiredDVNCount",
              "type": "uint8"
            },
            {
              "internalType": "uint8",
              "name": "optionalDVNCount",
              "type": "uint8"
            },
            {
              "internalType": "uint8",
              "name": "optionalDVNThreshold",
              "type": "uint8"
            },
            {
              "internalType": "address[]",
              "name": "requiredDVNs",
              "type": "address[]"
            },
            {
              "internalType": "address[]",
              "name": "optionalDVNs",
              "type": "address[]"
            }
          ],
          "internalType": "struct UlnConfig",
          "name": "rtnConfig",
          "type": "tuple"
        }
      ],
      "stateMutability": "view",
      "type": "function"
    },
    {
      "inputs": [
        {
          "internalType": "uint32",
          "name": "_eid",
          "type": "uint32"
        }
      ],
      "name": "isSupportedEid",
      "outputs": [
        {
          "internalType": "bool",
          "name": "",
          "type": "bool"
        }
      ],
      "stateMutability": "view",
      "type": "function"
    },
    {
      "inputs": [],
      "name": "nonceContract",
      "outputs": [
        {
          "internalType": "contract INonceContract",
          "name": "",
          "type": "address"
        }
      ],
      "stateMutability": "view",
      "type": "function"
    },
    {
      "inputs": [],
      "name": "owner",
      "outputs": [
        {
          "internalType": "address",
          "name": "",
          "type": "address"
        }
      ],
      "stateMutability": "view",
      "type": "function"
    },
    {
      "inputs": [],
      "name": "renounceOwnership",
      "outputs": [],
      "stateMutability": "nonpayable",
      "type": "function"
    },
    {
      "inputs": [
        {
          "internalType": "address",
          "name": "_sender",
          "type": "address"
        },
        {
          "internalType": "uint64",
          "name": "",
          "type": "uint64"
        },
        {
          "internalType": "uint16",
          "name": "_dstEid",
          "type": "uint16"
        },
        {
          "internalType": "bytes",
          "name": "_path",
          "type": "bytes"
        },
        {
          "internalType": "bytes",
          "name": "_message",
          "type": "bytes"
        },
        {
          "internalType": "address payable",
          "name": "_refundAddress",
          "type": "address"
        },
        {
          "internalType": "address",
          "name": "_lzTokenPaymentAddress",
          "type": "address"
        },
        {
          "internalType": "bytes",
          "name": "_options",
          "type": "bytes"
        }
      ],
      "name": "send",
      "outputs": [],
      "stateMutability": "payable",
      "type": "function"
    },
    {
      "inputs": [
        {
          "internalType": "uint16",
          "name": "_eid",
          "type": "uint16"
        },
        {
          "internalType": "uint256",
          "name": "_size",
          "type": "uint256"
        }
      ],
      "name": "setAddressSize",
      "outputs": [],
      "stateMutability": "nonpayable",
      "type": "function"
    },
    {
      "inputs": [
        {
          "internalType": "uint16",
          "name": "_eid",
          "type": "uint16"
        },
        {
          "internalType": "address",
          "name": "_oapp",
          "type": "address"
        },
        {
          "internalType": "uint256",
          "name": "_configType",
          "type": "uint256"
        },
        {
          "internalType": "bytes",
          "name": "_config",
          "type": "bytes"
        }
      ],
      "name": "setConfig",
      "outputs": [],
      "stateMutability": "nonpayable",
      "type": "function"
    },
    {
      "inputs": [
        {
          "components": [
            {
              "internalType": "uint32",
              "name": "eid",
              "type": "uint32"
            },
            {
              "components": [
                {
                  "internalType": "uint32",
                  "name": "maxMessageSize",
                  "type": "uint32"
                },
                {
                  "internalType": "address",
                  "name": "executor",
                  "type": "address"
                }
              ],
              "internalType": "struct ExecutorConfig",
              "name": "config",
              "type": "tuple"
            }
          ],
          "internalType": "struct SetDefaultExecutorConfigParam[]",
          "name": "_params",
          "type": "tuple[]"
        }
      ],
      "name": "setDefaultExecutorConfigs",
      "outputs": [],
      "stateMutability": "nonpayable",
      "type": "function"
    },
    {
      "inputs": [
        {
          "components": [
            {
              "internalType": "uint32",
              "name": "eid",
              "type": "uint32"
            },
            {
              "components": [
                {
                  "internalType": "uint64",
                  "name": "confirmations",
                  "type": "uint64"
                },
                {
                  "internalType": "uint8",
                  "name": "requiredDVNCount",
                  "type": "uint8"
                },
                {
                  "internalType": "uint8",
                  "name": "optionalDVNCount",
                  "type": "uint8"
                },
                {
                  "internalType": "uint8",
                  "name": "optionalDVNThreshold",
                  "type": "uint8"
                },
                {
                  "internalType": "address[]",
                  "name": "requiredDVNs",
                  "type": "address[]"
                },
                {
                  "internalType": "address[]",
                  "name": "optionalDVNs",
                  "type": "address[]"
                }
              ],
              "internalType": "struct UlnConfig",
              "name": "config",
              "type": "tuple"
            }
          ],
          "internalType": "struct SetDefaultUlnConfigParam[]",
          "name": "_params",
          "type": "tuple[]"
        }
      ],
      "name": "setDefaultUlnConfigs",
      "outputs": [],
      "stateMutability": "nonpayable",
      "type": "function"
    },
    {
      "inputs": [
        {
          "internalType": "address",
          "name": "_lzToken",
          "type": "address"
        }
      ],
      "name": "setLzToken",
      "outputs": [],
      "stateMutability": "nonpayable",
      "type": "function"
    },
    {
      "inputs": [
        {
          "internalType": "address",
          "name": "_treasury",
          "type": "address"
        }
      ],
      "name": "setTreasury",
      "outputs": [],
      "stateMutability": "nonpayable",
      "type": "function"
    },
    {
      "inputs": [
        {
          "internalType": "uint256",
          "name": "_newTreasuryNativeFeeCap",
          "type": "uint256"
        }
      ],
      "name": "setTreasuryNativeFeeCap",
      "outputs": [],
      "stateMutability": "nonpayable",
      "type": "function"
    },
    {
      "inputs": [
        {
          "internalType": "address",
          "name": "newOwner",
          "type": "address"
        }
      ],
      "name": "transferOwnership",
      "outputs": [],
      "stateMutability": "nonpayable",
      "type": "function"
    },
    {
      "inputs": [],
      "name": "treasury",
      "outputs": [
        {
          "internalType": "address",
          "name": "",
          "type": "address"
        }
      ],
      "stateMutability": "view",
      "type": "function"
    },
    {
      "inputs": [],
      "name": "treasuryFeeHandler",
      "outputs": [
        {
          "internalType": "contract ITreasuryFeeHandler",
          "name": "",
          "type": "address"
        }
      ],
      "stateMutability": "view",
      "type": "function"
    },
    {
      "inputs": [],
      "name": "version",
      "outputs": [
        {
          "internalType": "uint64",
          "name": "major",
          "type": "uint64"
        },
        {
          "internalType": "uint8",
          "name": "minor",
          "type": "uint8"
        },
        {
          "internalType": "uint8",
          "name": "endpointVersion",
          "type": "uint8"
        }
      ],
      "stateMutability": "pure",
      "type": "function"
    },
    {
      "inputs": [
        {
          "internalType": "address",
          "name": "_to",
          "type": "address"
        },
        {
          "internalType": "uint256",
          "name": "_amount",
          "type": "uint256"
        }
      ],
      "name": "withdrawFee",
      "outputs": [],
      "stateMutability": "nonpayable",
      "type": "function"
    }
  ],
  "transactionHash": "0x8c98c03bae8d2a5d1c1fcac1209674e6d6639092ae2cb2793e010580ecd9c5e6",
  "args": [
    "0x0000000000000000000000000000000000000001",
    200000,
    100000,
    "0x002692285b051cA32628aD95B55b018e3CdD1837",
    10106,
    "0xe58bc9471a844a83af365FA3a5a4b7504C59bDf2"
  ],
  "numDeployments": 1,
  "solcInputHash": "df45c5d73ee7212b45689d2cdbb787f2",
  "bytecode": "0x6101206040523480156200001257600080fd5b5060405162004a2b38038062004a2b8339810160408190526200003591620000ff565b6001600160a01b03861660805263ffffffff821660a05285858585858585828686620000613362000092565b60c09190915260025550506001600160a01b0392831660e05290911661010052506200017898505050505050505050565b600080546001600160a01b038381166001600160a01b0319831681178455604051919092169283917f8be0079c531659141344cd1fd0a4f28419497f9722a3daafe3b4186f6b6457e09190a35050565b80516001600160a01b0381168114620000fa57600080fd5b919050565b60008060008060008060c087890312156200011957600080fd5b6200012487620000e2565b955060208701519450604087015193506200014260608801620000e2565b9250608087015163ffffffff811681146200015c57600080fd5b91506200016c60a08801620000e2565b90509295509295509295565b60805160a05160c05160e0516101005161484b620001e06000396000818161044101526119be01526000818161017d0152611e920152600081816118490152611dc1015260008181611f460152611fd5015260008181610c6e01526111d0015261484b6000f3fe6080604052600436106101665760003560e01c80636750cd4c116100d1578063c28e0eed1161008a578063f2fde38b11610064578063f2fde38b14610501578063f8e1734c14610521578063faaebd2114610541578063fd9be5221461056e57600080fd5b8063c28e0eed146104a1578063d15b0d49146104c1578063f0f44260146104e157600080fd5b80636750cd4c146103ca5780636d26e5d0146103fa578063715018a61461041a57806389b69dec1461042f5780638da5cb5b14610463578063c14c43491461048157600080fd5b806343ea4fa91161012357806343ea4fa9146102a85780634d3a0f7c146102c85780634d963200146102db57806352d2871f1461035057806354fd4d501461037d57806361d027b3146103aa57600080fd5b806302bd97431461016b5780630f8355c0146101bc578063188183f4146101f757806329460b0b1461022457806339e3f9381461024657806340a7bb1014610273575b600080fd5b34801561017757600080fd5b5061019f7f000000000000000000000000000000000000000000000000000000000000000081565b6040516001600160a01b0390911681526020015b60405180910390f35b3480156101c857600080fd5b506101e96101d73660046137b1565b60066020526000908152604090205481565b6040519081526020016101b3565b34801561020357600080fd5b506102176102123660046137f3565b61058e565b6040516101b3919061382c565b34801561023057600080fd5b5061024461023f366004613852565b610667565b005b34801561025257600080fd5b506102666102613660046137f3565b6107ff565b6040516101b3919061397c565b34801561027f57600080fd5b5061029361028e3660046139e2565b61093b565b604080519283526020830191909152016101b3565b3480156102b457600080fd5b506102666102c33660046137f3565b610960565b6102446102d6366004613aae565b610c6c565b3480156102e757600080fd5b5061032c6102f63660046137f3565b600460209081526000928352604080842090915290825290205463ffffffff81169064010000000090046001600160a01b031682565b6040805163ffffffff90931683526001600160a01b039091166020830152016101b3565b34801561035c57600080fd5b5061037061036b366004613ba1565b610dee565b6040516101b39190613c30565b34801561038957600080fd5b506040805160038152600060208201526001918101919091526060016101b3565b3480156103b657600080fd5b5060035461019f906001600160a01b031681565b3480156103d657600080fd5b506103ea6103e53660046137b1565b610e7a565b60405190151581526020016101b3565b34801561040657600080fd5b50610244610415366004613c43565b610e85565b34801561042657600080fd5b50610244610f2c565b34801561043b57600080fd5b5061019f7f000000000000000000000000000000000000000000000000000000000000000081565b34801561046f57600080fd5b506000546001600160a01b031661019f565b34801561048d57600080fd5b5061024461049c366004613c6d565b610f40565b3480156104ad57600080fd5b506102446104bc366004613ccf565b611079565b3480156104cd57600080fd5b506102446104dc366004613cec565b6110d6565b3480156104ed57600080fd5b506102446104fc366004613ccf565b611144565b34801561050d57600080fd5b5061024461051c366004613ccf565b611158565b34801561052d57600080fd5b5061024461053c366004613d05565b6111ce565b34801561054d57600080fd5b506101e961055c366004613ccf565b60056020526000908152604090205481565b34801561057a57600080fd5b50610244610589366004613d75565b611290565b604080518082019091526000808252602082015263ffffffff80831660008181527f17ef568e3e12ab5b9c7254a8d58478811de00f9e6eb34345acd53bf8fd09d3ec602090815260408083206001600160a01b038916845260048352818420948452939091528120805492939092169081900361061257825463ffffffff16610614565b805b63ffffffff168452815464010000000090046001600160a01b03168061064c57835464010000000090046001600160a01b031661064e565b805b6001600160a01b03166020860152509295945050505050565b61066f6112e9565b60005b818110156107c1573683838381811061068d5761068d613d93565b905060200281019061069f9190613da9565b905060ff6106b06020830183613dc9565b6106c1906040810190602001613df0565b60ff16036106e2576040516341d50bed60e11b815260040160405180910390fd5b60ff6106f16020830183613dc9565b610702906060810190604001613df0565b60ff16036107235760405163211089b360e11b815260040160405180910390fd5b6001600160401b036107386020830183613dc9565b610746906020810190613e0b565b6001600160401b03160361076d5760405163281b33d760e11b815260040160405180910390fd5b61078b61077d6020830183613dc9565b61078690613fbe565b611343565b6107b8600061079d60208401846137b1565b6107aa6020850185613dc9565b6107b390613fbe565b61137b565b50600101610672565b507faaf3aaa0c11056e86ac56eb653e25b005ca1a7d4dcd21ba24647f7ab63f3b56082826040516107f3929190614050565b60405180910390a15050565b6108076136e6565b6001600160a01b038316600090815260016020818152604080842063ffffffff87168552825292839020835160c08101855281546001600160401b038116825260ff600160401b8204811683860152600160481b8204811683880152600160501b90910416606082015292810180548551818502810185019096528086529394919360808601938301828280156108c757602002820191906000526020600020905b81546001600160a01b031681526001909101906020018083116108a9575b505050505081526020016002820180548060200260200160405190810160405280929190818152602001828054801561092957602002820191906000526020600020905b81546001600160a01b0316815260019091019060200180831161090b575b50505050508152505090505b92915050565b6000806109508861ffff8b1688888888611614565b9150915097509795505050505050565b6109686136e6565b63ffffffff821660008181527fa6eef7e35abe7026729641147f7915573c7e97b47efa546f5f6e3230263bcb49602090815260408083206001600160a01b03881684526001835281842094845293909152902080546001600160401b0316806109dd5782546001600160401b031684526109fa565b6001600160401b03818116146109fa576001600160401b03811684525b8154600160401b900460ff16610a94578254600160401b900460ff1615610a8f5782600101805480602002602001604051908101604052809291908181526020018280548015610a7357602002820191906000526020600020905b81546001600160a01b03168152600190910190602001808311610a55575b505050505060808501528254600160401b900460ff1660208501525b610b1b565b8154600160401b900460ff90811614610b1b5781600101805480602002602001604051908101604052809291908181526020018280548015610aff57602002820191906000526020600020905b81546001600160a01b03168152600190910190602001808311610ae1575b505050505060808501528154600160401b900460ff1660208501525b8154600160481b900460ff16610bc4578254600160481b900460ff1615610bbf5782600201805480602002602001604051908101604052809291908181526020018280548015610b9457602002820191906000526020600020905b81546001600160a01b03168152600190910190602001808311610b76575b505050505060a0850152825460ff600160481b820481166040870152600160501b9091041660608501525b610c5a565b8154600160481b900460ff90811614610c5a5781600201805480602002602001604051908101604052809291908181526020018280548015610c2f57602002820191906000526020600020905b81546001600160a01b03168152600190910190602001808311610c11575b505050505060a0850152815460ff600160481b820481166040870152600160501b9091041660608501525b610c6384611343565b50505092915050565b7f00000000000000000000000000000000000000000000000000000000000000006001600160a01b03163314610cb55760405163467409c360e01b815260040160405180910390fd5b600080610cc88d8c8c8c8c8c8a8a61170d565b909250905061ffff8b168d60006001600160a01b03881615801590610cf757506007546001600160a01b031615155b9050600080610d08848688866117ba565b9092509050610d1782876141ad565b955085341015610d3a5760405163645f0f4f60e01b815260040160405180910390fd5b6000610d4687346141c0565b90508015610d5857610d588c826118c9565b8115610d9a57846001600160a01b03168b6001600160a01b031614610d9057604051635dc90ccd60e01b815260040160405180910390fd5b610d9a858361197b565b7f3dc6f2ede34d1db05729bbb76e5efd17ec1bc83f98f665e7fba0596dca438b96888b8b8a86604051610dd19594939291906141fc565b60405180910390a150505050505050505050505050505050505050565b606060018203610e2c57610e06838561ffff1661058e565b604051602001610e16919061382c565b6040516020818303038152906040529050610e73565b60028203610e5257610e42838561ffff16610960565b604051602001610e16919061397c565b604051630c509b5b60e01b8152600481018390526024015b60405180910390fd5b9392505050565b600061093582611a18565b610e8d6112e9565b6020811115610eaf57604051636f85e1b760e01b815260040160405180910390fd5b61ffff821660009081526006602052604090205415610ee15760405163e4df7bef60e01b815260040160405180910390fd5b61ffff8216600081815260066020908152604091829020849055815192835282018390527ee9ab3709e58edd0db46318d63673d8ae4681fa3e51d9f9dc07cde5109ff74891016107f3565b610f346112e9565b610f3e6000611a73565b565b610f486112e9565b60005b818110156110475736838383818110610f6657610f66613d93565b6060908102929092019250600091610f849150830160408401613ccf565b6001600160a01b031603610fab57604051631074e82d60e11b815260040160405180910390fd5b610fbb60408201602083016137b1565b63ffffffff16600003610fe1576040516349cfac4360e01b815260040160405180910390fd5b6000808052600460209081528201907f17ef568e3e12ab5b9c7254a8d58478811de00f9e6eb34345acd53bf8fd09d3ec9061101c83856137b1565b63ffffffff168152602081019190915260400160002061103c8282614237565b505050600101610f4b565b507f2b001e1c6683bf79cc52891bd7215b204c787d18134fc7f3d21b4f32a49e47de82826040516107f3929190614290565b6110816112e9565b600780546001600160a01b0319166001600160a01b0383169081179091556040519081527fd476ec5ec1ac11cec3714d41e7ea49419471aceb9bd0dff1becfc3e363a62396906020015b60405180910390a150565b6110de6112e9565b60025481111561110f5760025460405163068109f760e31b8152610e6a918391600401918252602082015260400190565b60028190556040518181527f491ff913b5444f4136b0d4075f020cfe3a5f60de926ec0b091612401a22b7842906020016110cb565b61114c6112e9565b61115581611ac3565b50565b6111606112e9565b6001600160a01b0381166111c55760405162461bcd60e51b815260206004820152602660248201527f4f776e61626c653a206e6577206f776e657220697320746865207a65726f206160448201526564647265737360d01b6064820152608401610e6a565b61115581611a73565b7f00000000000000000000000000000000000000000000000000000000000000006001600160a01b031633146112175760405163467409c360e01b815260040160405180910390fd5b6112248561ffff16611b11565b6001830361124b5761124661ffff86168561124184860186614310565b611b3f565b611289565b6002830361126d5761124661ffff8616856112688486018661436e565b611bd4565b604051630c509b5b60e01b815260048101849052602401610e6a565b5050505050565b61129981611c1d565b6112a382826118c9565b604080513381526001600160a01b03841660208201529081018290527f820b7fd51bf79c54350bab98400651b3314ff6e79b33528821871d94a6669883906060016107f3565b6000546001600160a01b03163314610f3e5760405162461bcd60e51b815260206004820181905260248201527f4f776e61626c653a2063616c6c6572206973206e6f7420746865206f776e65726044820152606401610e6a565b602081015160ff1615801561135d5750606081015160ff16155b156111555760405163ce2c375160e01b815260040160405180910390fd5b602081015160ff90811614806113965750602081015160ff16155b156113c457608081015151156113bf576040516341d50bed60e11b815260040160405180910390fd5b61142a565b806020015160ff168160800151511415806113ff575060026113e8600160ff6143a2565b6113f291906143bb565b60ff16816020015160ff16115b1561141d576040516341d50bed60e11b815260040160405180910390fd5b61142a8160800151611c6e565b604081015160ff90811614806114455750604081015160ff16155b156114995760a0810151511561146e5760405163211089b360e11b815260040160405180910390fd5b606081015160ff1615611494576040516338682fa960e01b815260040160405180910390fd5b61153e565b806040015160ff168160a00151511415806114d4575060026114bd600160ff6143a2565b6114c791906143bb565b60ff16816040015160ff16115b156114f25760405163211089b360e11b815260040160405180910390fd5b606081015160ff1615806115135750806040015160ff16816060015160ff16115b15611531576040516338682fa960e01b815260040160405180910390fd5b61153e8160a00151611c6e565b6001600160a01b038316600090815260016020818152604080842063ffffffff8716855282529283902084518154868401519587015160608801516001600160401b0390931668ffffffffffffffffff1990921691909117600160401b60ff97881602176affff0000000000000000001916600160481b9187169190910260ff60501b191617600160501b9590911694909402939093178355608084015180518594936115f09390850192019061372e565b5060a0820151805161160c91600284019160209091019061372e565b505050505050565b6000806000806116248686611cd5565b9150915060006116358b8b84611cee565b905060006116438c8c61058e565b90506116598a826000015163ffffffff16611d03565b80602001516001600160a01b031663709eb6648c8e8d886040518563ffffffff1660e01b815260040161168f94939291906143eb565b602060405180830381865afa1580156116ac573d6000803e3d6000fd5b505050506040513d601f19601f820116820180604052508101906116d09190614428565b6116da90836141ad565b91506000806116eb8e8e868e611d32565b90925090506116fa82856141ad565b9e909d509b505050505050505050505050565b60606000806117208b8b8b8b8b8b611e03565b905060008061172f8787611cd5565b9150915060006117438e8e61ffff1661058e565b60c08501515181519192509061176090829063ffffffff16611d03565b6117798260200151866060015187604001518488612071565b61178390876141ad565b9550600080611792878661216a565b90925090506117a182896141ad565b9750809850505050505050509850989650505050505050565b60035460009081906001600160a01b0316156118c0576040516001600160a01b038716602482015263ffffffff8616604482015260648101859052831515608482015260009060a40160408051601f19818403018152919052602080820180516001600160e01b0316636a8e2a4360e11b1790526003549192506000918291611871916001600160a01b0316907f000000000000000000000000000000000000000000000000000000000000000090849087612185565b9150915061188187878484612235565b909550935084156118bc576003546001600160a01b0316600090815260056020526040812080548792906118b69084906141ad565b90915550505b5050505b94509492505050565b6001600160a01b0382166118f0576040516306b7a93160e41b815260040160405180910390fd5b6000826001600160a01b03168260405160006040518083038185875af1925050503d806000811461193d576040519150601f19603f3d011682016040523d82523d6000602084013e611942565b606091505b505090508061197657604051631196f20d60e21b81526001600160a01b038416600482015260248101839052604401610e6a565b505050565b600754600354604051637da56b4b60e01b81526001600160a01b0392831660048201528483166024820152604481018490526064810184905290821660848201527f000000000000000000000000000000000000000000000000000000000000000090911690637da56b4b9060a401600060405180830381600087803b158015611a0457600080fd5b505af115801561160c573d6000803e3d6000fd5b63ffffffff811660009081527fa6eef7e35abe7026729641147f7915573c7e97b47efa546f5f6e3230263bcb49602052604081208054600160401b900460ff16151580610e73575054600160501b900460ff16151592915050565b600080546001600160a01b038381166001600160a01b0319831681178455604051919092169283917f8be0079c531659141344cd1fd0a4f28419497f9722a3daafe3b4186f6b6457e09190a35050565b600380546001600160a01b0319166001600160a01b0383169081179091556040519081527f3c864541ef71378c6229510ed90f376565ee42d9c5e0904a984a9e863e6db44f906020016110cb565b611b1a81611a18565b61115557604051633c30434160e21b815263ffffffff82166004820152602401610e6a565b6001600160a01b03808316600090815260046020908152604080832063ffffffff8089168552908352928190208551815493870151909516640100000000026001600160c01b03199093169490931693909317179055517f779cb2dd9d2bb1be1737d05435d744facbfb84a2a4912e21379d39beddcdc80590611bc790849086908590614441565b60405180910390a1505050565b611bdf82848361137b565b611be98284610960565b507f82118522aa536ac0e96cc5c689407ae42b89d592aa133890a01f1509842f5081828483604051611bc793929190614483565b3360009081526005602052604090205480821115611c585760405163068109f760e31b81526004810183905260248101829052604401610e6a565b3360009081526005602052604090209190039055565b6000805b8251811015611976576000838281518110611c8f57611c8f613d93565b60200260200101519050826001600160a01b0316816001600160a01b031611611ccb5760405163447516e160e01b815260040160405180910390fd5b9150600101611c72565b606080611ce284846122b0565b915091505b9250929050565b6000611cfb84848461239d565b949350505050565b80821115611d2e57604051636333d79f60e11b81526004810183905260248101829052604401610e6a565b5050565b60035460009081906001600160a01b0316156118c0576040516001600160a01b038716602482015263ffffffff8616604482015260648101859052831515608482015260009060a40160408051601f19818403018152919052602080820180516001600160e01b031663d424422160e01b1790526003549192506000918291611de7916001600160a01b0316907f00000000000000000000000000000000000000000000000000000000000000009086612417565b91509150611df787878484612235565b945094505050506118c0565b6040805160e0810182526000808252602080830182905282840182905260608084018390526080840183905260a0840183905260c084015261ffff8916825260069052918220549091819003611e6c5760405163efa83a1360e01b815260040160405180910390fd5b611e78888787846124c3565b604051636fe7b67360e01b81526000906001600160a01b037f00000000000000000000000000000000000000000000000000000000000000001690636fe7b67390611ecd908b908d908c908c906004016144b3565b6020604051808303816000875af1158015611eec573d6000803e3d6000fd5b505050506040513d601f19601f82011682018060405250810190611f1091906144e2565b90506000611f28611f2384838a8c6144ff565b612537565b6040805160c085901b6001600160c01b0319166020808301919091527f000000000000000000000000000000000000000000000000000000000000000060e090811b6001600160e01b03191660288401526001600160a01b038f16602c8401528d901b61ffff60e01b16604c830152605080830185905283518084039091018152607090920190925280519101209091506040518060e00160405280846001600160401b031681526020017f000000000000000000000000000000000000000000000000000000000000000063ffffffff1681526020018c6001600160a01b031681526020018b61ffff1663ffffffff16815260200183815260200182815260200188888080601f01602080910402602001604051908101604052809392919081815260200183838082843760009201919091525050509152509b9a5050505050505050505050565b6040516338bf452160e11b81526000906001600160a01b0387169063717e8a42906120a69088908890889088906004016143eb565b6020604051808303816000875af11580156120c5573d6000803e3d6000fd5b505050506040513d601f19601f820116820180604052508101906120e99190614428565b9050801561211f576001600160a01b038616600090815260056020526040812080548392906121199084906141ad565b90915550505b604080516001600160a01b0388168152602081018390527f61ed099e74a97a1d7f8bb0952a88ca8b7b8ebd00c126ea04671f92a81213318a910160405180910390a195945050505050565b6000606061217a60058585612578565b909590945092505050565b60006060863b8083036121ac5760408051600080825260208201909252925092505061222b565b60008060008761ffff166001600160401b038111156121cd576121cd613e28565b6040519080825280601f01601f1916602001820160405280156121f7576020820181803683370190505b509050600080885160208a018c8f8ff191503d925087831115612218578792505b828152826000602083013e909450925050505b9550959350505050565b600080831580612246575082516020115b15612256575060009050806118c0565b60008380602001905181019061226c9190614428565b9050851561227c578091506122a6565b6000600254881161228f57600254612291565b875b90508082116122a057816122a2565b805b9350505b5094509492505050565b6060806000806122c086866126c6565b9150915080516000036123185760408051600080825260208201909252839161230c565b6040805180820190915260008152606060208201528152602001906001900390816122e45790505b50935093505050611ce7565b604080516001808252818301909252600091816020015b60408051808201909152600081526060602082015281526020019060019003908161232f5790505090506040518060400160405280600260ff168152602001838152508160008151811061238557612385613d93565b60209081029190910101529196919550909350505050565b6000806123aa8585610960565b9050600083516000146123db57836000815181106123ca576123ca613d93565b6020026020010151602001516123ec565b604051806020016040528060008152505b90506000806123fa83612885565b9150915061240b84888a8585612aeb565b98975050505050505050565b60006060853b80830361243e576040805160008082526020820190925292509250506118c0565b60008060008761ffff166001600160401b0381111561245f5761245f613e28565b6040519080825280601f01601f191660200182016040528015612489576020820181803683370190505b509050600080885160208a018d8dfa91503d9250878311156124a9578792505b828152826000602083013e90999098509650505050505050565b6124ce8160146141ad565b82146124ed5760405163efa83a1360e01b815260040160405180910390fd5b60006125036124fe848481886144ff565b612c83565b9050806001600160a01b0316856001600160a01b031614611289576040516360e0a4db60e11b815260040160405180910390fd5b6000602082111561255b57604051633140fd5160e11b815260040160405180910390fd5b6125658284614529565b6020929092036008029190911c92915050565b60006060600061258785612cba565b9050600061259486612d47565b8051602082012060608801516040890151929350909160006125b68284610960565b9050600089516000146125e757896000815181106125d6576125d6613d93565b6020026020010151602001516125f8565b604051806020016040528060008152505b9050606061264a8d846040518060a001604052808963ffffffff1681526020018c81526020018a815260200187600001516001600160401b03168152602001886001600160a01b031681525085612d64565b604051919b5091506126629089908990602001614547565b60405160208183030381529060405298507f07ea52d82345d6e838192107d8fd7123d9c2ec8e916cd0aad13fd2b60db2464483608001518460a00151836040516126ae93929190614576565b60405180910390a15050505050505050935093915050565b60608060028310156126ee5760405163196499c760e21b815260006004820152602401610e6a565b60006126fd60028286886144ff565b612706916145d4565b60f01c90506002600219820161286e578060005b8683101561281357600061273360018501858a8c6144ff565b61273c91614604565b60f81c9050600081900361276657604051636780cfaf60e01b815260006004820152602401610e6a565b8160ff16600003612779578091506127b6565b8160ff168160ff16146127b65736600061279586868c8e6144ff565b915091506127a6898986858561300f565b9099509750859450919250829150505b60018401936000906127cd90600301868b8d6144ff565b6127d6916145d4565b60f01c905060008190036128005760405163196499c760e21b815260048101869052602401610e6a565b8060020161ffff1685019450505061271a565b8287146128365760405163196499c760e21b815260048101849052602401610e6a565b60028711156128675736600061284e85858b8d6144ff565b9150915061285f888885858561300f565b909850965050505b505061287c565b61287982878761312f565b93505b50509250929050565b606080825160000361289657915091565b60006128a1846132ba565b90508060ff166001036129535760408051600180825281830190925290816020015b60608152602001906001900390816128c357905050925083836000815181106128ee576128ee613d93565b602090810291909101015260408051600180825281830190925290816020016020820280368337019050509150612926846003613394565b8260008151811061293957612939613d93565b602002602001019060ff16908160ff168152505050915091565b8060ff166001600160401b0381111561296e5761296e613e28565b604051908082528060200260200182016040528015612997578160200160208202803683370190505b5091508060ff166001600160401b038111156129b5576129b5613e28565b6040519080825280602002602001820160405280156129e857816020015b60608152602001906001900390816129d35790505b50925060008060ff5b8651831015612a7e576001909201916000612a0c88856133f0565b6002949094019390506000612a218986613394565b90508260ff1660ff03612a3657809250612a6f565b8260ff168160ff1614612a6f57600219848603016000612a578b878461344d565b9050612a658a8a878461355a565b5093909301929150815b5061ffff1692909201916129f1565b8183036000612a8e89858461344d565b9050612a9c8888858461355a565b60005b8660ff168160ff161015612adf57878160ff1681518110612ac257612ac2613d93565b6020908102919091010180516000190160ff169052600101612a9f565b50505050505050915091565b60008086604001518760200151612b029190614632565b905060005b8160ff168160ff161015612c78576000886020015160ff168260ff1610612b5c5760a089015160208a0151612b3c90846143a2565b60ff1681518110612b4f57612b4f613d93565b6020026020010151612b7e565b88608001518260ff1681518110612b7557612b75613d93565b60200260200101515b60408051602081019091526000808252919250905b8651811015612beb578360ff16878281518110612bb257612bb2613d93565b602002602001015160ff1603612be357878181518110612bd457612bd4613d93565b60200260200101519150612beb565b600101612b93565b508951604051630c2eceab60e21b81526001600160a01b038416916330bb3aac91612c1e918d918d90879060040161464b565b602060405180830381865afa158015612c3b573d6000803e3d6000fd5b505050506040513d601f19601f82011682018060405250810190612c5f9190614428565b612c6990866141ad565b94505050806001019050612b07565b505095945050505050565b600060148214612ca657604051633140fd5160e11b815260040160405180910390fd5b612cb0828461468a565b60601c9392505050565b805160208083015160408085015160608087015160808801519351600160f81b9681019690965260c09690961b6001600160c01b031916602186015260e093841b6001600160e01b031990811660298701526001600160a01b03909216602d8601529490921b909116604d83015260518201526071015b6040516020818303038152906040529050919050565b60608160a001518260c00151604051602001612d319291906146bd565b60006060600080612d7485612885565b91509150600087604001518860200151612d8e9190614632565b90508060ff166001600160401b03811115612dab57612dab613e28565b604051908082528060200260200182016040528015612dd4578160200160208202803683370190505b50935060005b8160ff168160ff161015613002576000896020015160ff168260ff1610612e2f5760a08a015160208b0151612e0f90846143a2565b60ff1681518110612e2257612e22613d93565b6020026020010151612e51565b89608001518260ff1681518110612e4857612e48613d93565b60200260200101515b60408051602081019091526000808252919250905b8551811015612ebe578360ff16868281518110612e8557612e85613d93565b602002602001015160ff1603612eb657868181518110612ea757612ea7613d93565b60200260200101519150612ebe565b600101612e66565b506040516395d376d760e01b81526001600160a01b038316906395d376d790612eed908d9085906004016146e3565b6020604051808303816000875af1158015612f0c573d6000803e3d6000fd5b505050506040513d601f19601f82011682018060405250810190612f309190614428565b878460ff1681518110612f4557612f45613d93565b6020026020010181815250506000878460ff1681518110612f6857612f68613d93565b60200260200101511115612ff857868360ff1681518110612f8b57612f8b613d93565b60200260200101518c6000846001600160a01b03166001600160a01b031681526020019081526020016000206000828254612fc691906141ad565b92505081905550868360ff1681518110612fe257612fe2613d93565b602002602001015188612ff591906141ad565b97505b5050600101612dda565b5050505094509492505050565b60608060001960ff86160161308c5786511561304e5786848460405160200161303a93929190614755565b604051602081830303815290604052613085565b83838080601f0160208091040260200160405190810160405280939291908181526020018383808284376000920191909152505050505b9650613124565b60011960ff861601613106578551156130c8578584846040516020016130b493929190614755565b6040516020818303038152906040526130ff565b83838080601f0160208091040260200160405190810160405280939291908181526020018383808284376000920191909152505050505b9550613124565b604051636780cfaf60e01b815260ff86166004820152602401610e6a565b509495939450505050565b606060001961ffff8516016131cf576022821461315f576040516301b8ca5560e31b815260040160405180910390fd5b60006131806131726022600286886144ff565b61317b91614529565b613670565b604051600160f81b60208201819052601160f01b602183015260238201526001600160801b0319608083901b166024820152909150603401604051602081830303815290604052915050610e73565b60011961ffff85160161329b576042821115806131ec5750606282115b1561320a576040516360493e2b60e11b815260040160405180910390fd5b600061321d6131726022600286886144ff565b905060006132326131726042602287896144ff565b905060006041198501613248866042818a6144ff565b61325191614529565b60405160086020938403029190911c9250613282916001916011918391889183916031916002918b918b910161477d565b6040516020818303038152906040529350505050610e73565b604051630417051360e41b815261ffff85166004820152602401610e6a565b600080805b83518210156133695760019091019060006132da85846133f0565b905060028301925060028161ffff16101561330b5760405163013adb8360e21b815260048101849052602401610e6a565b60006133178685613394565b90508060ff1660ff0361333d576040516334f4f66f60e21b815260040160405180910390fd5b600160ff82161b831661335a5760019485019460ff82161b831792505b5061ffff1691909101906132bf565b8351821461338d5760405163013adb8360e21b815260048101839052602401610e6a565b5050919050565b60006133a18260016141ad565b835110156133e75760405162461bcd60e51b8152602060048201526013602482015272746f55696e74385f6f75744f66426f756e647360681b6044820152606401610e6a565b50016001015190565b60006133fd8260026141ad565b835110156134445760405162461bcd60e51b8152602060048201526014602482015273746f55696e7431365f6f75744f66426f756e647360601b6044820152606401610e6a565b50016002015190565b60608161345b81601f6141ad565b101561349a5760405162461bcd60e51b815260206004820152600e60248201526d736c6963655f6f766572666c6f7760901b6044820152606401610e6a565b6134a482846141ad565b845110156134e85760405162461bcd60e51b8152602060048201526011602482015270736c6963655f6f75744f66426f756e647360781b6044820152606401610e6a565b6060821580156135075760405191506000825260208201604052613551565b6040519150601f8416801560200281840101858101878315602002848b0101015b81831015613540578051835260209283019201613528565b5050858452601f01601f1916604052505b50949350505050565b8160ff1660ff0361357e576040516334f4f66f60e21b815260040160405180910390fd5b600061358b836001614632565b905060005b845181101561160c5760008582815181106135ad576135ad613d93565b602002602001015190508060ff168360ff1603613622578682815181106135d6576135d6613d93565b6020026020010151846040516020016135f0929190614547565b60405160208183030381529060405287838151811061361157613611613d93565b60200260200101819052505061160c565b8060ff16600003613667578286838151811061364057613640613d93565b602002602001019060ff16908160ff16815250508387838151811061361157613611613d93565b50600101613590565b60006fffffffffffffffffffffffffffffffff8211156136e25760405162461bcd60e51b815260206004820152602760248201527f53616665436173743a2076616c756520646f65736e27742066697420696e20316044820152663238206269747360c81b6064820152608401610e6a565b5090565b6040518060c0016040528060006001600160401b03168152602001600060ff168152602001600060ff168152602001600060ff16815260200160608152602001606081525090565b828054828255906000526020600020908101928215613783579160200282015b8281111561378357825182546001600160a01b0319166001600160a01b0390911617825560209092019160019091019061374e565b506136e29291505b808211156136e2576000815560010161378b565b63ffffffff8116811461115557600080fd5b6000602082840312156137c357600080fd5b8135610e738161379f565b6001600160a01b038116811461115557600080fd5b80356137ee816137ce565b919050565b6000806040838503121561380657600080fd5b8235613811816137ce565b915060208301356138218161379f565b809150509250929050565b815163ffffffff1681526020808301516001600160a01b03169082015260408101610935565b6000806020838503121561386557600080fd5b82356001600160401b038082111561387c57600080fd5b818501915085601f83011261389057600080fd5b81358181111561389f57600080fd5b8660208260051b85010111156138b457600080fd5b60209290920196919550909350505050565b60008151808452602080850194506020840160005b838110156139005781516001600160a01b0316875295820195908201906001016138db565b509495945050505050565b6001600160401b03815116825260ff602082015116602083015260ff604082015116604083015260ff60608201511660608301526000608082015160c0608085015261395a60c08501826138c6565b905060a083015184820360a086015261397382826138c6565b95945050505050565b602081526000610e73602083018461390b565b803561ffff811681146137ee57600080fd5b60008083601f8401126139b357600080fd5b5081356001600160401b038111156139ca57600080fd5b602083019150836020828501011115611ce757600080fd5b600080600080600080600060a0888a0312156139fd57600080fd5b613a068861398f565b96506020880135613a16816137ce565b955060408801356001600160401b0380821115613a3257600080fd5b613a3e8b838c016139a1565b909750955060608a013591508115158214613a5857600080fd5b90935060808901359080821115613a6e57600080fd5b50613a7b8a828b016139a1565b989b979a50959850939692959293505050565b6001600160401b038116811461115557600080fd5b80356137ee81613a8e565b60008060008060008060008060008060006101008c8e031215613ad057600080fd5b613ad98c6137e3565b9a50613ae760208d01613aa3565b9950613af560408d0161398f565b98506001600160401b038060608e01351115613b1057600080fd5b613b208e60608f01358f016139a1565b909950975060808d0135811015613b3657600080fd5b613b468e60808f01358f016139a1565b9097509550613b5760a08e016137e3565b9450613b6560c08e016137e3565b93508060e08e01351115613b7857600080fd5b50613b898d60e08e01358e016139a1565b81935080925050509295989b509295989b9093969950565b600080600060608486031215613bb657600080fd5b613bbf8461398f565b92506020840135613bcf816137ce565b929592945050506040919091013590565b60005b83811015613bfb578181015183820152602001613be3565b50506000910152565b60008151808452613c1c816020860160208601613be0565b601f01601f19169290920160200192915050565b602081526000610e736020830184613c04565b60008060408385031215613c5657600080fd5b613c5f8361398f565b946020939093013593505050565b60008060208385031215613c8057600080fd5b82356001600160401b0380821115613c9757600080fd5b818501915085601f830112613cab57600080fd5b813581811115613cba57600080fd5b8660206060830285010111156138b457600080fd5b600060208284031215613ce157600080fd5b8135610e73816137ce565b600060208284031215613cfe57600080fd5b5035919050565b600080600080600060808688031215613d1d57600080fd5b613d268661398f565b94506020860135613d36816137ce565b93506040860135925060608601356001600160401b03811115613d5857600080fd5b613d64888289016139a1565b969995985093965092949392505050565b60008060408385031215613d8857600080fd5b8235613c5f816137ce565b634e487b7160e01b600052603260045260246000fd5b60008235603e19833603018112613dbf57600080fd5b9190910192915050565b6000823560be19833603018112613dbf57600080fd5b803560ff811681146137ee57600080fd5b600060208284031215613e0257600080fd5b610e7382613ddf565b600060208284031215613e1d57600080fd5b8135610e7381613a8e565b634e487b7160e01b600052604160045260246000fd5b60405160c081016001600160401b0381118282101715613e6057613e60613e28565b60405290565b600082601f830112613e7757600080fd5b813560206001600160401b0380831115613e9357613e93613e28565b8260051b604051601f19603f83011681018181108482111715613eb857613eb8613e28565b6040529384526020818701810194908101925087851115613ed857600080fd5b6020870191505b84821015613f01578135613ef2816137ce565b83529183019190830190613edf565b979650505050505050565b600060c08284031215613f1e57600080fd5b613f26613e3e565b9050613f3182613aa3565b8152613f3f60208301613ddf565b6020820152613f5060408301613ddf565b6040820152613f6160608301613ddf565b606082015260808201356001600160401b0380821115613f8057600080fd5b613f8c85838601613e66565b608084015260a0840135915080821115613fa557600080fd5b50613fb284828501613e66565b60a08301525092915050565b60006109353683613f0c565b6000808335601e19843603018112613fe157600080fd5b83016020810192503590506001600160401b0381111561400057600080fd5b8060051b3603821315611ce757600080fd5b8183526000602080850194508260005b85811015613900578135614035816137ce565b6001600160a01b031687529582019590820190600101614022565b60208082528181018390526000906040808401600586901b8501820187855b8881101561418957603f19808985030185528235603e198c360301811261409557600080fd5b8b0180356140a28161379f565b63ffffffff168552808801353682900360be190181126140c157600080fd5b8589018890520180356140d381613a8e565b6001600160401b0316858801526140eb818901613ddf565b606060ff808316828901526141018a8501613ddf565b92506080818416818a0152614117838601613ddf565b935060a09250818416838a015261413081860186613fca565b60c08b8101529450915061414b905061010089018483614012565b92505061415a81840184613fca565b93509050838783030160e0880152614173828483614012565b978a01979650505092870192505060010161406f565b509098975050505050505050565b634e487b7160e01b600052601160045260246000fd5b8082018082111561093557610935614197565b8181038181111561093557610935614197565b81835281816020850137506000828201602090810191909152601f909101601f19169091010190565b60808152600061420f6080830188613c04565b82810360208401526142228187896141d3565b60408401959095525050606001529392505050565b81356142428161379f565b63ffffffff8116905081548163ffffffff1982161783556020840135614267816137ce565b6001600160c01b03199190911690911760209190911b640100000000600160c01b031617905550565b6020808252818101839052600090604080840186845b878110156143035781356142b98161379f565b63ffffffff908116845282860135906142d18261379f565b1683860152818401356142e3816137ce565b6001600160a01b03168385015260609283019291909101906001016142a6565b5090979650505050505050565b60006040828403121561432257600080fd5b604051604081018181106001600160401b038211171561434457614344613e28565b60405282356143528161379f565b81526020830135614362816137ce565b60208201529392505050565b60006020828403121561438057600080fd5b81356001600160401b0381111561439657600080fd5b611cfb84828501613f0c565b60ff828116828216039081111561093557610935614197565b600060ff8316806143dc57634e487b7160e01b600052601260045260246000fd5b8060ff84160491505092915050565b63ffffffff8516815260018060a01b038416602082015282604082015260806060820152600061441e6080830184613c04565b9695505050505050565b60006020828403121561443a57600080fd5b5051919050565b6001600160a01b038416815263ffffffff8316602082015260808101611cfb6040830184805163ffffffff1682526020908101516001600160a01b0316910152565b6001600160a01b038416815263ffffffff831660208201526060604082018190526000906139739083018461390b565b61ffff851681526001600160a01b038416602082015260606040820181905260009061441e90830184866141d3565b6000602082840312156144f457600080fd5b8151610e7381613a8e565b6000808585111561450f57600080fd5b8386111561451c57600080fd5b5050820193919092039150565b8035602083101561093557600019602084900360031b1b1692915050565b60008351614559818460208801613be0565b83519083019061456d818360208801613be0565b01949350505050565b60608152600061458960608301866138c6565b6020838203602085015261459d82876138c6565b84810360408601528551808252602080880194509091019060005b81811015614189578451835293830193918301916001016145b8565b6001600160f01b031981358181169160028510156145fc5780818660020360031b1b83161692505b505092915050565b6001600160f81b031981358181169160018510156145fc5760019490940360031b84901b1690921692915050565b60ff818116838216019081111561093557610935614197565b63ffffffff851681526001600160401b03841660208201526001600160a01b038316604082015260806060820181905260009061441e90830184613c04565b6bffffffffffffffffffffffff1981358181169160148510156145fc5760149490940360031b84901b1690921692915050565b828152600082516146d5816020850160208701613be0565b919091016020019392505050565b6040815263ffffffff83511660408201526000602084015160a0606084015261470f60e0840182613c04565b604086015160808581019190915260608701516001600160401b031660a08601528601516001600160a01b031660c0850152838103602085015290506139738185613c04565b60008451614767818460208901613be0565b8201838582376000930192835250909392505050565b60f88a811b6001600160f81b0319908116835260f08b811b6001600160f01b031990811660018601528b841b8316600386015260808b901b6001600160801b031916600486015289841b831660148601529088901b1660158401529085901b16601782015260006147fd601883018560801b6001600160801b0319169052565b5060288101919091526048019897505050505050505056fea2646970667358221220be98847b8ac4d5d06a4eb3e294cffbddc431f762002c6002b34f972f4b1df1c364736f6c63430008160033",
  "devdoc": {
    "details": "ULN301 will be deployed on EndpointV1 and is for backward compatibility with ULN302 on EndpointV2. 301 can talk to both 301 and 302This is a gluing contract. It simply parses the requests and forward to the super.impl() accordingly.In this case, it combines the logic of SendUlnBase and SendLibBaseE1",
    "kind": "dev",
    "methods": {
      "getAppUlnConfig(address,uint32)": {
        "details": "Get the uln config without the default config for the given remoteEid."
      },
      "owner()": {
        "details": "Returns the address of the current owner."
      },
      "renounceOwnership()": {
        "details": "Leaves the contract without owner. It will not be possible to call `onlyOwner` functions. Can only be called by the current owner. NOTE: Renouncing ownership will leave the contract without an owner, thereby disabling any functionality that is only available to the owner."
      },
      "send(address,uint64,uint16,bytes,bytes,address,address,bytes)": {
        "details": "the abstract process for send() is: 1/ pay workers, which includes the executor and the validation workers 2/ pay treasury 3/ in EndpointV1, here we handle the fees and refunds"
      },
      "setDefaultUlnConfigs((uint32,(uint64,uint8,uint8,uint8,address[],address[]))[])": {
        "details": "about the DEFAULT ULN config 1) its values are all LITERAL (e.g. 0 is 0). whereas in the oapp ULN config, 0 (default value) points to the default ULN config     this design enables the oapp to point to DEFAULT config without explicitly setting the config 2) its configuration is more restrictive than the oapp ULN config that     a) it must not use NIL value, where NIL is used only by oapps to indicate the LITERAL 0     b) it must have at least one DVN"
      },
      "setTreasuryNativeFeeCap(uint256)": {
        "details": "the new value can not be greater than the old value, i.e. down only"
      },
      "transferOwnership(address)": {
        "details": "Transfers ownership of the contract to a new account (`newOwner`). Can only be called by the current owner."
      }
    },
    "version": 1
  },
  "userdoc": {
    "kind": "user",
    "methods": {},
    "version": 1
  },
  "storageLayout": {
    "storage": [
      {
        "astId": 7924,
        "contract": "contracts/messagelib/contracts/uln/uln301/SendUln301.sol:SendUln301",
        "label": "_owner",
        "offset": 0,
        "slot": "0",
        "type": "t_address"
      },
      {
        "astId": 20352,
        "contract": "contracts/messagelib/contracts/uln/uln301/SendUln301.sol:SendUln301",
        "label": "ulnConfigs",
        "offset": 0,
        "slot": "1",
        "type": "t_mapping(t_address,t_mapping(t_uint32,t_struct(UlnConfig)20301_storage))"
      },
      {
        "astId": 15063,
        "contract": "contracts/messagelib/contracts/uln/uln301/SendUln301.sol:SendUln301",
        "label": "treasuryNativeFeeCap",
        "offset": 0,
        "slot": "2",
        "type": "t_uint256"
      },
      {
        "astId": 15065,
        "contract": "contracts/messagelib/contracts/uln/uln301/SendUln301.sol:SendUln301",
        "label": "treasury",
        "offset": 0,
        "slot": "3",
        "type": "t_address"
      },
      {
        "astId": 15072,
        "contract": "contracts/messagelib/contracts/uln/uln301/SendUln301.sol:SendUln301",
        "label": "executorConfigs",
        "offset": 0,
        "slot": "4",
        "type": "t_mapping(t_address,t_mapping(t_uint32,t_struct(ExecutorConfig)15042_storage))"
      },
      {
        "astId": 15076,
        "contract": "contracts/messagelib/contracts/uln/uln301/SendUln301.sol:SendUln301",
        "label": "fees",
        "offset": 0,
        "slot": "5",
        "type": "t_mapping(t_address,t_uint256)"
      },
      {
        "astId": 26573,
        "contract": "contracts/messagelib/contracts/uln/uln301/SendUln301.sol:SendUln301",
        "label": "addressSizes",
        "offset": 0,
        "slot": "6",
        "type": "t_mapping(t_uint32,t_uint256)"
      },
      {
        "astId": 27438,
        "contract": "contracts/messagelib/contracts/uln/uln301/SendUln301.sol:SendUln301",
        "label": "lzToken",
        "offset": 0,
        "slot": "7",
        "type": "t_address"
      }
    ],
    "types": {
      "t_address": {
        "encoding": "inplace",
        "label": "address",
        "numberOfBytes": "20"
      },
      "t_array(t_address)dyn_storage": {
        "base": "t_address",
        "encoding": "dynamic_array",
        "label": "address[]",
        "numberOfBytes": "32"
      },
      "t_mapping(t_address,t_mapping(t_uint32,t_struct(ExecutorConfig)15042_storage))": {
        "encoding": "mapping",
        "key": "t_address",
        "label": "mapping(address => mapping(uint32 => struct ExecutorConfig))",
        "numberOfBytes": "32",
        "value": "t_mapping(t_uint32,t_struct(ExecutorConfig)15042_storage)"
      },
      "t_mapping(t_address,t_mapping(t_uint32,t_struct(UlnConfig)20301_storage))": {
        "encoding": "mapping",
        "key": "t_address",
        "label": "mapping(address => mapping(uint32 => struct UlnConfig))",
        "numberOfBytes": "32",
        "value": "t_mapping(t_uint32,t_struct(UlnConfig)20301_storage)"
      },
      "t_mapping(t_address,t_uint256)": {
        "encoding": "mapping",
        "key": "t_address",
        "label": "mapping(address => uint256)",
        "numberOfBytes": "32",
        "value": "t_uint256"
      },
      "t_mapping(t_uint32,t_struct(ExecutorConfig)15042_storage)": {
        "encoding": "mapping",
        "key": "t_uint32",
        "label": "mapping(uint32 => struct ExecutorConfig)",
        "numberOfBytes": "32",
        "value": "t_struct(ExecutorConfig)15042_storage"
      },
      "t_mapping(t_uint32,t_struct(UlnConfig)20301_storage)": {
        "encoding": "mapping",
        "key": "t_uint32",
        "label": "mapping(uint32 => struct UlnConfig)",
        "numberOfBytes": "32",
        "value": "t_struct(UlnConfig)20301_storage"
      },
      "t_mapping(t_uint32,t_uint256)": {
        "encoding": "mapping",
        "key": "t_uint32",
        "label": "mapping(uint32 => uint256)",
        "numberOfBytes": "32",
        "value": "t_uint256"
      },
      "t_struct(ExecutorConfig)15042_storage": {
        "encoding": "inplace",
        "label": "struct ExecutorConfig",
        "members": [
          {
            "astId": 15039,
            "contract": "contracts/messagelib/contracts/uln/uln301/SendUln301.sol:SendUln301",
            "label": "maxMessageSize",
            "offset": 0,
            "slot": "0",
            "type": "t_uint32"
          },
          {
            "astId": 15041,
            "contract": "contracts/messagelib/contracts/uln/uln301/SendUln301.sol:SendUln301",
            "label": "executor",
            "offset": 4,
            "slot": "0",
            "type": "t_address"
          }
        ],
        "numberOfBytes": "32"
      },
      "t_struct(UlnConfig)20301_storage": {
        "encoding": "inplace",
        "label": "struct UlnConfig",
        "members": [
          {
            "astId": 20288,
            "contract": "contracts/messagelib/contracts/uln/uln301/SendUln301.sol:SendUln301",
            "label": "confirmations",
            "offset": 0,
            "slot": "0",
            "type": "t_uint64"
          },
          {
            "astId": 20290,
            "contract": "contracts/messagelib/contracts/uln/uln301/SendUln301.sol:SendUln301",
            "label": "requiredDVNCount",
            "offset": 8,
            "slot": "0",
            "type": "t_uint8"
          },
          {
            "astId": 20292,
            "contract": "contracts/messagelib/contracts/uln/uln301/SendUln301.sol:SendUln301",
            "label": "optionalDVNCount",
            "offset": 9,
            "slot": "0",
            "type": "t_uint8"
          },
          {
            "astId": 20294,
            "contract": "contracts/messagelib/contracts/uln/uln301/SendUln301.sol:SendUln301",
            "label": "optionalDVNThreshold",
            "offset": 10,
            "slot": "0",
            "type": "t_uint8"
          },
          {
            "astId": 20297,
            "contract": "contracts/messagelib/contracts/uln/uln301/SendUln301.sol:SendUln301",
            "label": "requiredDVNs",
            "offset": 0,
            "slot": "1",
            "type": "t_array(t_address)dyn_storage"
          },
          {
            "astId": 20300,
            "contract": "contracts/messagelib/contracts/uln/uln301/SendUln301.sol:SendUln301",
            "label": "optionalDVNs",
            "offset": 0,
            "slot": "2",
            "type": "t_array(t_address)dyn_storage"
          }
        ],
        "numberOfBytes": "96"
      },
      "t_uint256": {
        "encoding": "inplace",
        "label": "uint256",
        "numberOfBytes": "32"
      },
      "t_uint32": {
        "encoding": "inplace",
        "label": "uint32",
        "numberOfBytes": "4"
      },
      "t_uint64": {
        "encoding": "inplace",
        "label": "uint64",
        "numberOfBytes": "8"
      },
      "t_uint8": {
        "encoding": "inplace",
        "label": "uint8",
        "numberOfBytes": "1"
      }
    }
  }
}