{
  "address": "0xe58bc9471a844a83af365FA3a5a4b7504C59bDf2",
  "abi": [
    {
      "inputs": [
        {
          "internalType": "address",
          "name": "_endpoint",
          "type": "address"
        }
      ],
      "stateMutability": "nonpayable",
      "type": "constructor"
    },
    {
      "inputs": [
        {
          "internalType": "uint256",
          "name": "required",
          "type": "uint256"
        },
        {
          "internalType": "uint256",
          "name": "supplied",
          "type": "uint256"
        }
      ],
      "name": "LZ_TreasuryFeeHandler_InvalidAmount",
      "type": "error"
    },
    {
      "inputs": [],
      "name": "LZ_TreasuryFeeHandler_OnlyOnSending",
      "type": "error"
    },
    {
      "inputs": [],
      "name": "LZ_TreasuryFeeHandler_OnlySendLibrary",
      "type": "error"
    },
    {
      "inputs": [],
      "name": "endpoint",
      "outputs": [
        {
          "internalType": "contract ILayerZeroEndpoint",
          "name": "",
          "type": "address"
        }
      ],
      "stateMutability": "view",
      "type": "function"
    },
    {
      "inputs": [
        {
          "internalType": "address",
          "name": "_lzToken",
          "type": "address"
        },
        {
          "internalType": "address",
          "name": "_sender",
          "type": "address"
        },
        {
          "internalType": "uint256",
          "name": "_required",
          "type": "uint256"
        },
        {
          "internalType": "uint256",
          "name": "_supplied",
          "type": "uint256"
        },
        {
          "internalType": "address",
          "name": "_treasury",
          "type": "address"
        }
      ],
      "name": "payFee",
      "outputs": [],
      "stateMutability": "nonpayable",
      "type": "function"
    }
  ],
  "transactionHash": "0xdcb920154ffe0ee1d6a4b73ef43529e279a39eaebee61fb75607ec86080a8f17",
  "args": [
    "0x0000000000000000000000000000000000000001"
  ],
  "numDeployments": 1,
  "solcInputHash": "df45c5d73ee7212b45689d2cdbb787f2",
  "bytecode": "0x60a060405234801561001057600080fd5b506040516106fa3803806106fa83398101604081905261002f91610040565b6001600160a01b0316608052610070565b60006020828403121561005257600080fd5b81516001600160a01b038116811461006957600080fd5b9392505050565b6080516106636100976000396000818160400152818160b4015261014a01526106636000f3fe608060405234801561001057600080fd5b50600436106100365760003560e01c80635e280f111461003b5780637da56b4b1461007e575b600080fd5b6100627f000000000000000000000000000000000000000000000000000000000000000081565b6040516001600160a01b03909116815260200160405180910390f35b61009161008c366004610515565b610093565b005b604051639c729da160e01b81526001600160a01b03858116600483015233917f000000000000000000000000000000000000000000000000000000000000000090911690639c729da190602401602060405180830381865afa1580156100fd573d6000803e3d6000fd5b505050506040513d601f19601f820116820180604052508101906101219190610574565b6001600160a01b03161461014857604051633215fd8360e21b815260040160405180910390fd5b7f00000000000000000000000000000000000000000000000000000000000000006001600160a01b031663e97a448a6040518163ffffffff1660e01b8152600401602060405180830381865afa1580156101a6573d6000803e3d6000fd5b505050506040513d601f19601f820116820180604052508101906101ca9190610598565b6101e75760405163bae51fef60e01b815260040160405180910390fd5b8183111561021757604051630120399360e71b815260048101849052602481018390526044015b60405180910390fd5b61022c6001600160a01b038616858386610233565b5050505050565b604080516001600160a01b0385811660248301528416604482015260648082018490528251808303909101815260849091019091526020810180516001600160e01b03166323b872dd60e01b17905261028d908590610293565b50505050565b60006102e8826040518060400160405280602081526020017f5361666545524332303a206c6f772d6c6576656c2063616c6c206661696c6564815250856001600160a01b031661036d9092919063ffffffff16565b90508051600014806103095750808060200190518101906103099190610598565b6103685760405162461bcd60e51b815260206004820152602a60248201527f5361666545524332303a204552433230206f7065726174696f6e20646964206e6044820152691bdd081cdd58d8d9595960b21b606482015260840161020e565b505050565b606061037c8484600085610384565b949350505050565b6060824710156103e55760405162461bcd60e51b815260206004820152602660248201527f416464726573733a20696e73756666696369656e742062616c616e636520666f6044820152651c8818d85b1b60d21b606482015260840161020e565b600080866001600160a01b0316858760405161040191906105de565b60006040518083038185875af1925050503d806000811461043e576040519150601f19603f3d011682016040523d82523d6000602084013e610443565b606091505b50915091506104548783838761045f565b979650505050505050565b606083156104ce5782516000036104c7576001600160a01b0385163b6104c75760405162461bcd60e51b815260206004820152601d60248201527f416464726573733a2063616c6c20746f206e6f6e2d636f6e7472616374000000604482015260640161020e565b508161037c565b61037c83838151156104e35781518083602001fd5b8060405162461bcd60e51b815260040161020e91906105fa565b6001600160a01b038116811461051257600080fd5b50565b600080600080600060a0868803121561052d57600080fd5b8535610538816104fd565b94506020860135610548816104fd565b935060408601359250606086013591506080860135610566816104fd565b809150509295509295909350565b60006020828403121561058657600080fd5b8151610591816104fd565b9392505050565b6000602082840312156105aa57600080fd5b8151801515811461059157600080fd5b60005b838110156105d55781810151838201526020016105bd565b50506000910152565b600082516105f08184602087016105ba565b9190910192915050565b60208152600082518060208401526106198160408501602087016105ba565b601f01601f1916919091016040019291505056fea26469706673582212203feca65ffe2fc3a9f79c996f86004e5bf8cdb422240c558f7e8475f958b7f5f664736f6c63430008160033",
  "devdoc": {
    "kind": "dev",
    "methods": {},
    "version": 1
  },
  "userdoc": {
    "kind": "user",
    "methods": {},
    "version": 1
  },
  "storageLayout": {
    "storage": [],
    "types": null
  }
}